{
	"2-Procesamiento.sol": {
		"Procesamiento": {
			"abi": [
				{
					"inputs": [
						{
							"internalType": "address",
							"name": "_registroFincaAddress",
							"type": "address"
						}
					],
					"stateMutability": "nonpayable",
					"type": "constructor"
				},
				{
					"anonymous": false,
					"inputs": [
						{
							"indexed": false,
							"internalType": "string",
							"name": "batchId",
							"type": "string"
						},
						{
							"indexed": false,
							"internalType": "bytes32",
							"name": "processingHash",
							"type": "bytes32"
						}
					],
					"name": "ProcessingUpdated",
					"type": "event"
				},
				{
					"inputs": [
						{
							"internalType": "uint256",
							"name": "",
							"type": "uint256"
						}
					],
					"name": "allProcessedBatchIds",
					"outputs": [
						{
							"internalType": "string",
							"name": "",
							"type": "string"
						}
					],
					"stateMutability": "view",
					"type": "function"
				},
				{
					"inputs": [],
					"name": "getAllProcessedBatchIds",
					"outputs": [
						{
							"internalType": "string[]",
							"name": "",
							"type": "string[]"
						}
					],
					"stateMutability": "view",
					"type": "function"
				},
				{
					"inputs": [
						{
							"internalType": "string",
							"name": "_batchId",
							"type": "string"
						}
					],
					"name": "getProcessingHash",
					"outputs": [
						{
							"internalType": "bytes32",
							"name": "",
							"type": "bytes32"
						}
					],
					"stateMutability": "view",
					"type": "function"
				},
				{
					"inputs": [
						{
							"internalType": "string",
							"name": "_batchId",
							"type": "string"
						}
					],
					"name": "getProcessingInfo",
					"outputs": [
						{
							"internalType": "string",
							"name": "processingDetails",
							"type": "string"
						},
						{
							"internalType": "string",
							"name": "certifications",
							"type": "string"
						},
						{
							"internalType": "uint256",
							"name": "timestamp",
							"type": "uint256"
						},
						{
							"internalType": "bytes32",
							"name": "previousStageHash",
							"type": "bytes32"
						}
					],
					"stateMutability": "view",
					"type": "function"
				},
				{
					"inputs": [],
					"name": "getTotalProcessedBatches",
					"outputs": [
						{
							"internalType": "uint256",
							"name": "",
							"type": "uint256"
						}
					],
					"stateMutability": "view",
					"type": "function"
				},
				{
					"inputs": [
						{
							"internalType": "string",
							"name": "",
							"type": "string"
						}
					],
					"name": "processData",
					"outputs": [
						{
							"internalType": "string",
							"name": "batchId",
							"type": "string"
						},
						{
							"internalType": "string",
							"name": "processingDetails",
							"type": "string"
						},
						{
							"internalType": "string",
							"name": "certifications",
							"type": "string"
						},
						{
							"internalType": "uint256",
							"name": "timestamp",
							"type": "uint256"
						},
						{
							"internalType": "bytes32",
							"name": "previousStageHash",
							"type": "bytes32"
						}
					],
					"stateMutability": "view",
					"type": "function"
				},
				{
					"inputs": [],
					"name": "registroFincaAddress",
					"outputs": [
						{
							"internalType": "address",
							"name": "",
							"type": "address"
						}
					],
					"stateMutability": "view",
					"type": "function"
				},
				{
					"inputs": [
						{
							"internalType": "string",
							"name": "_batchId",
							"type": "string"
						},
						{
							"internalType": "string",
							"name": "_processingDetails",
							"type": "string"
						},
						{
							"internalType": "string",
							"name": "_certifications",
							"type": "string"
						}
					],
					"name": "updateProcessing",
					"outputs": [],
					"stateMutability": "nonpayable",
					"type": "function"
				}
			],
			"devdoc": {
				"kind": "dev",
				"methods": {},
				"version": 1
			},
			"evm": {
				"assembly": "    /* \"2-Procesamiento.sol\":113:2851  contract Procesamiento {... */\n  mstore(0x40, 0x80)\n    /* \"2-Procesamiento.sol\":591:758  constructor(address _registroFincaAddress) {... */\n  callvalue\n  dup1\n  iszero\n  tag_1\n  jumpi\n  0x00\n  dup1\n  revert\ntag_1:\n  pop\n  mload(0x40)\n  sub(codesize, bytecodeSize)\n  dup1\n  bytecodeSize\n  dup4\n  codecopy\n  dup2\n  dup2\n  add\n  0x40\n  mstore\n  dup2\n  add\n  swap1\n  tag_2\n  swap2\n  swap1\n  tag_3\n  jump\t// in\ntag_2:\n    /* \"2-Procesamiento.sol\":667:688  _registroFincaAddress */\n  dup1\n    /* \"2-Procesamiento.sol\":644:664  registroFincaAddress */\n  0x02\n  0x00\n    /* \"2-Procesamiento.sol\":644:688  registroFincaAddress = _registroFincaAddress */\n  0x0100\n  exp\n  dup2\n  sload\n  dup2\n  0xffffffffffffffffffffffffffffffffffffffff\n  mul\n  not\n  and\n  swap1\n  dup4\n  0xffffffffffffffffffffffffffffffffffffffff\n  and\n  mul\n  or\n  swap1\n  sstore\n  pop\n    /* \"2-Procesamiento.sol\":729:750  _registroFincaAddress */\n  dup1\n    /* \"2-Procesamiento.sol\":698:711  registroFinca */\n  0x03\n  0x00\n    /* \"2-Procesamiento.sol\":698:751  registroFinca = IRegistroFinca(_registroFincaAddress) */\n  0x0100\n  exp\n  dup2\n  sload\n  dup2\n  0xffffffffffffffffffffffffffffffffffffffff\n  mul\n  not\n  and\n  swap1\n  dup4\n  0xffffffffffffffffffffffffffffffffffffffff\n  and\n  mul\n  or\n  swap1\n  sstore\n  pop\n    /* \"2-Procesamiento.sol\":591:758  constructor(address _registroFincaAddress) {... */\n  pop\n    /* \"2-Procesamiento.sol\":113:2851  contract Procesamiento {... */\n  jump(tag_6)\n    /* \"#utility.yul\":88:205   */\ntag_8:\n    /* \"#utility.yul\":197:198   */\n  0x00\n    /* \"#utility.yul\":194:195   */\n  dup1\n    /* \"#utility.yul\":187:199   */\n  revert\n    /* \"#utility.yul\":334:460   */\ntag_10:\n    /* \"#utility.yul\":371:378   */\n  0x00\n    /* \"#utility.yul\":411:453   */\n  0xffffffffffffffffffffffffffffffffffffffff\n    /* \"#utility.yul\":404:409   */\n  dup3\n    /* \"#utility.yul\":400:454   */\n  and\n    /* \"#utility.yul\":389:454   */\n  swap1\n  pop\n    /* \"#utility.yul\":334:460   */\n  swap2\n  swap1\n  pop\n  jump\t// out\n    /* \"#utility.yul\":466:562   */\ntag_11:\n    /* \"#utility.yul\":503:510   */\n  0x00\n    /* \"#utility.yul\":532:556   */\n  tag_20\n    /* \"#utility.yul\":550:555   */\n  dup3\n    /* \"#utility.yul\":532:556   */\n  tag_10\n  jump\t// in\ntag_20:\n    /* \"#utility.yul\":521:556   */\n  swap1\n  pop\n    /* \"#utility.yul\":466:562   */\n  swap2\n  swap1\n  pop\n  jump\t// out\n    /* \"#utility.yul\":568:690   */\ntag_12:\n    /* \"#utility.yul\":641:665   */\n  tag_22\n    /* \"#utility.yul\":659:664   */\n  dup2\n    /* \"#utility.yul\":641:665   */\n  tag_11\n  jump\t// in\ntag_22:\n    /* \"#utility.yul\":634:639   */\n  dup2\n    /* \"#utility.yul\":631:666   */\n  eq\n    /* \"#utility.yul\":621:684   */\n  tag_23\n  jumpi\n    /* \"#utility.yul\":680:681   */\n  0x00\n    /* \"#utility.yul\":677:678   */\n  dup1\n    /* \"#utility.yul\":670:682   */\n  revert\n    /* \"#utility.yul\":621:684   */\ntag_23:\n    /* \"#utility.yul\":568:690   */\n  pop\n  jump\t// out\n    /* \"#utility.yul\":696:839   */\ntag_13:\n    /* \"#utility.yul\":753:758   */\n  0x00\n    /* \"#utility.yul\":784:790   */\n  dup2\n    /* \"#utility.yul\":778:791   */\n  mload\n    /* \"#utility.yul\":769:791   */\n  swap1\n  pop\n    /* \"#utility.yul\":800:833   */\n  tag_25\n    /* \"#utility.yul\":827:832   */\n  dup2\n    /* \"#utility.yul\":800:833   */\n  tag_12\n  jump\t// in\ntag_25:\n    /* \"#utility.yul\":696:839   */\n  swap3\n  swap2\n  pop\n  pop\n  jump\t// out\n    /* \"#utility.yul\":845:1196   */\ntag_3:\n    /* \"#utility.yul\":915:921   */\n  0x00\n    /* \"#utility.yul\":964:966   */\n  0x20\n    /* \"#utility.yul\":952:961   */\n  dup3\n    /* \"#utility.yul\":943:950   */\n  dup5\n    /* \"#utility.yul\":939:962   */\n  sub\n    /* \"#utility.yul\":935:967   */\n  slt\n    /* \"#utility.yul\":932:1051   */\n  iszero\n  tag_27\n  jumpi\n    /* \"#utility.yul\":970:1049   */\n  tag_28\n  tag_8\n  jump\t// in\ntag_28:\n    /* \"#utility.yul\":932:1051   */\ntag_27:\n    /* \"#utility.yul\":1090:1091   */\n  0x00\n    /* \"#utility.yul\":1115:1179   */\n  tag_29\n    /* \"#utility.yul\":1171:1178   */\n  dup5\n    /* \"#utility.yul\":1162:1168   */\n  dup3\n    /* \"#utility.yul\":1151:1160   */\n  dup6\n    /* \"#utility.yul\":1147:1169   */\n  add\n    /* \"#utility.yul\":1115:1179   */\n  tag_13\n  jump\t// in\ntag_29:\n    /* \"#utility.yul\":1105:1179   */\n  swap2\n  pop\n    /* \"#utility.yul\":1061:1189   */\n  pop\n    /* \"#utility.yul\":845:1196   */\n  swap3\n  swap2\n  pop\n  pop\n  jump\t// out\n    /* \"2-Procesamiento.sol\":113:2851  contract Procesamiento {... */\ntag_6:\n  dataSize(sub_0)\n  dup1\n  dataOffset(sub_0)\n  0x00\n  codecopy\n  0x00\n  return\nstop\n\nsub_0: assembly {\n        /* \"2-Procesamiento.sol\":113:2851  contract Procesamiento {... */\n      mstore(0x40, 0x80)\n      callvalue\n      dup1\n      iszero\n      tag_1\n      jumpi\n      0x00\n      dup1\n      revert\n    tag_1:\n      pop\n      jumpi(tag_2, lt(calldatasize, 0x04))\n      shr(0xe0, calldataload(0x00))\n      dup1\n      0x8351a2b3\n      gt\n      tag_11\n      jumpi\n      dup1\n      0x8351a2b3\n      eq\n      tag_7\n      jumpi\n      dup1\n      0x94c158d9\n      eq\n      tag_8\n      jumpi\n      dup1\n      0xbb4d7611\n      eq\n      tag_9\n      jumpi\n      dup1\n      0xf19ac0d5\n      eq\n      tag_10\n      jumpi\n      jump(tag_2)\n    tag_11:\n      dup1\n      0x235ccca1\n      eq\n      tag_3\n      jumpi\n      dup1\n      0x46185dc8\n      eq\n      tag_4\n      jumpi\n      dup1\n      0x4e5365bc\n      eq\n      tag_5\n      jumpi\n      dup1\n      0x53adab30\n      eq\n      tag_6\n      jumpi\n    tag_2:\n      0x00\n      dup1\n      revert\n        /* \"2-Procesamiento.sol\":390:426  string[] public allProcessedBatchIds */\n    tag_3:\n      tag_12\n      0x04\n      dup1\n      calldatasize\n      sub\n      dup2\n      add\n      swap1\n      tag_13\n      swap2\n      swap1\n      tag_14\n      jump\t// in\n    tag_13:\n      tag_15\n      jump\t// in\n    tag_12:\n      mload(0x40)\n      tag_16\n      swap2\n      swap1\n      tag_17\n      jump\t// in\n    tag_16:\n      mload(0x40)\n      dup1\n      swap2\n      sub\n      swap1\n      return\n        /* \"2-Procesamiento.sol\":768:1623  function updateProcessing(... */\n    tag_4:\n      tag_18\n      0x04\n      dup1\n      calldatasize\n      sub\n      dup2\n      add\n      swap1\n      tag_19\n      swap2\n      swap1\n      tag_20\n      jump\t// in\n    tag_19:\n      tag_21\n      jump\t// in\n    tag_18:\n      stop\n        /* \"2-Procesamiento.sol\":2605:2722  function getAllProcessedBatchIds() public view returns (string[] memory) {... */\n    tag_5:\n      tag_22\n      tag_23\n      jump\t// in\n    tag_22:\n      mload(0x40)\n      tag_24\n      swap2\n      swap1\n      tag_25\n      jump\t// in\n    tag_24:\n      mload(0x40)\n      dup1\n      swap2\n      sub\n      swap1\n      return\n        /* \"2-Procesamiento.sol\":1633:2065  function getProcessingHash(string memory _batchId) public view returns (bytes32) {... */\n    tag_6:\n      tag_26\n      0x04\n      dup1\n      calldatasize\n      sub\n      dup2\n      add\n      swap1\n      tag_27\n      swap2\n      swap1\n      tag_28\n      jump\t// in\n    tag_27:\n      tag_29\n      jump\t// in\n    tag_26:\n      mload(0x40)\n      tag_30\n      swap2\n      swap1\n      tag_31\n      jump\t// in\n    tag_30:\n      mload(0x40)\n      dup1\n      swap2\n      sub\n      swap1\n      return\n        /* \"2-Procesamiento.sol\":332:384  mapping(string => ProcessingData) public processData */\n    tag_7:\n      tag_32\n      0x04\n      dup1\n      calldatasize\n      sub\n      dup2\n      add\n      swap1\n      tag_33\n      swap2\n      swap1\n      tag_28\n      jump\t// in\n    tag_33:\n      tag_34\n      jump\t// in\n    tag_32:\n      mload(0x40)\n      tag_35\n      swap6\n      swap5\n      swap4\n      swap3\n      swap2\n      swap1\n      tag_36\n      jump\t// in\n    tag_35:\n      mload(0x40)\n      dup1\n      swap2\n      sub\n      swap1\n      return\n        /* \"2-Procesamiento.sol\":437:472  address public registroFincaAddress */\n    tag_8:\n      tag_37\n      tag_38\n      jump\t// in\n    tag_37:\n      mload(0x40)\n      tag_39\n      swap2\n      swap1\n      tag_40\n      jump\t// in\n    tag_39:\n      mload(0x40)\n      dup1\n      swap2\n      sub\n      swap1\n      return\n        /* \"2-Procesamiento.sol\":2732:2849  function getTotalProcessedBatches() public view returns (uint256) {... */\n    tag_9:\n      tag_41\n      tag_42\n      jump\t// in\n    tag_41:\n      mload(0x40)\n      tag_43\n      swap2\n      swap1\n      tag_44\n      jump\t// in\n    tag_43:\n      mload(0x40)\n      dup1\n      swap2\n      sub\n      swap1\n      return\n        /* \"2-Procesamiento.sol\":2075:2595  function getProcessingInfo(string memory _batchId) public view returns (... */\n    tag_10:\n      tag_45\n      0x04\n      dup1\n      calldatasize\n      sub\n      dup2\n      add\n      swap1\n      tag_46\n      swap2\n      swap1\n      tag_28\n      jump\t// in\n    tag_46:\n      tag_47\n      jump\t// in\n    tag_45:\n      mload(0x40)\n      tag_48\n      swap5\n      swap4\n      swap3\n      swap2\n      swap1\n      tag_49\n      jump\t// in\n    tag_48:\n      mload(0x40)\n      dup1\n      swap2\n      sub\n      swap1\n      return\n        /* \"2-Procesamiento.sol\":390:426  string[] public allProcessedBatchIds */\n    tag_15:\n      0x01\n      dup2\n      dup2\n      sload\n      dup2\n      lt\n      tag_50\n      jumpi\n      0x00\n      dup1\n      revert\n    tag_50:\n      swap1\n      0x00\n      mstore\n      keccak256(0x00, 0x20)\n      add\n      0x00\n      swap2\n      pop\n      swap1\n      pop\n      dup1\n      sload\n      tag_52\n      swap1\n      tag_53\n      jump\t// in\n    tag_52:\n      dup1\n      0x1f\n      add\n      0x20\n      dup1\n      swap2\n      div\n      mul\n      0x20\n      add\n      mload(0x40)\n      swap1\n      dup2\n      add\n      0x40\n      mstore\n      dup1\n      swap3\n      swap2\n      swap1\n      dup2\n      dup2\n      mstore\n      0x20\n      add\n      dup3\n      dup1\n      sload\n      tag_54\n      swap1\n      tag_53\n      jump\t// in\n    tag_54:\n      dup1\n      iszero\n      tag_55\n      jumpi\n      dup1\n      0x1f\n      lt\n      tag_56\n      jumpi\n      0x0100\n      dup1\n      dup4\n      sload\n      div\n      mul\n      dup4\n      mstore\n      swap2\n      0x20\n      add\n      swap2\n      jump(tag_55)\n    tag_56:\n      dup3\n      add\n      swap2\n      swap1\n      0x00\n      mstore\n      keccak256(0x00, 0x20)\n      swap1\n    tag_57:\n      dup2\n      sload\n      dup2\n      mstore\n      swap1\n      0x01\n      add\n      swap1\n      0x20\n      add\n      dup1\n      dup4\n      gt\n      tag_57\n      jumpi\n      dup3\n      swap1\n      sub\n      0x1f\n      and\n      dup3\n      add\n      swap2\n    tag_55:\n      pop\n      pop\n      pop\n      pop\n      pop\n      dup2\n      jump\t// out\n        /* \"2-Procesamiento.sol\":768:1623  function updateProcessing(... */\n    tag_21:\n        /* \"2-Procesamiento.sol\":985:986  0 */\n      0x00\n        /* \"2-Procesamiento.sol\":944:955  processData */\n      dup1\n        /* \"2-Procesamiento.sol\":956:964  _batchId */\n      dup5\n        /* \"2-Procesamiento.sol\":944:965  processData[_batchId] */\n      mload(0x40)\n      tag_59\n      swap2\n      swap1\n      tag_60\n      jump\t// in\n    tag_59:\n      swap1\n      dup2\n      mstore\n      0x20\n      add\n      mload(0x40)\n      dup1\n      swap2\n      sub\n      swap1\n      keccak256\n        /* \"2-Procesamiento.sol\":944:973  processData[_batchId].batchId */\n      0x00\n      add\n        /* \"2-Procesamiento.sol\":938:981  bytes(processData[_batchId].batchId).length */\n      dup1\n      sload\n      tag_61\n      swap1\n      tag_53\n      jump\t// in\n    tag_61:\n      swap1\n      pop\n        /* \"2-Procesamiento.sol\":938:986  bytes(processData[_batchId].batchId).length == 0 */\n      eq\n        /* \"2-Procesamiento.sol\":930:1017  require(bytes(processData[_batchId].batchId).length == 0, \"Processing already updated\") */\n      tag_62\n      jumpi\n      mload(0x40)\n      0x08c379a000000000000000000000000000000000000000000000000000000000\n      dup2\n      mstore\n      0x04\n      add\n      tag_63\n      swap1\n      tag_64\n      jump\t// in\n    tag_63:\n      mload(0x40)\n      dup1\n      swap2\n      sub\n      swap1\n      revert\n    tag_62:\n        /* \"2-Procesamiento.sol\":1093:1113  bytes32 previousHash */\n      0x00\n        /* \"2-Procesamiento.sol\":1116:1129  registroFinca */\n      0x03\n      0x00\n      swap1\n      sload\n      swap1\n      0x0100\n      exp\n      swap1\n      div\n      0xffffffffffffffffffffffffffffffffffffffff\n      and\n        /* \"2-Procesamiento.sol\":1116:1142  registroFinca.getBatchHash */\n      0xffffffffffffffffffffffffffffffffffffffff\n      and\n      0x88cb968e\n        /* \"2-Procesamiento.sol\":1143:1151  _batchId */\n      dup6\n        /* \"2-Procesamiento.sol\":1116:1152  registroFinca.getBatchHash(_batchId) */\n      mload(0x40)\n      dup3\n      0xffffffff\n      and\n      0xe0\n      shl\n      dup2\n      mstore\n      0x04\n      add\n      tag_65\n      swap2\n      swap1\n      tag_17\n      jump\t// in\n    tag_65:\n      0x20\n      mload(0x40)\n      dup1\n      dup4\n      sub\n      dup2\n      dup7\n      gas\n      staticcall\n      iszero\n      dup1\n      iszero\n      tag_67\n      jumpi\n      returndatasize\n      0x00\n      dup1\n      returndatacopy\n      revert(0x00, returndatasize)\n    tag_67:\n      pop\n      pop\n      pop\n      pop\n      mload(0x40)\n      returndatasize\n      not(0x1f)\n      0x1f\n      dup3\n      add\n      and\n      dup3\n      add\n      dup1\n      0x40\n      mstore\n      pop\n      dup2\n      add\n      swap1\n      tag_68\n      swap2\n      swap1\n      tag_69\n      jump\t// in\n    tag_68:\n        /* \"2-Procesamiento.sol\":1093:1152  bytes32 previousHash = registroFinca.getBatchHash(_batchId) */\n      swap1\n      pop\n        /* \"2-Procesamiento.sol\":1195:1433  ProcessingData({... */\n      mload(0x40)\n      dup1\n      0xa0\n      add\n      0x40\n      mstore\n      dup1\n        /* \"2-Procesamiento.sol\":1233:1241  _batchId */\n      dup6\n        /* \"2-Procesamiento.sol\":1195:1433  ProcessingData({... */\n      dup2\n      mstore\n      0x20\n      add\n        /* \"2-Procesamiento.sol\":1274:1292  _processingDetails */\n      dup5\n        /* \"2-Procesamiento.sol\":1195:1433  ProcessingData({... */\n      dup2\n      mstore\n      0x20\n      add\n        /* \"2-Procesamiento.sol\":1322:1337  _certifications */\n      dup4\n        /* \"2-Procesamiento.sol\":1195:1433  ProcessingData({... */\n      dup2\n      mstore\n      0x20\n      add\n        /* \"2-Procesamiento.sol\":1362:1377  block.timestamp */\n      timestamp\n        /* \"2-Procesamiento.sol\":1195:1433  ProcessingData({... */\n      dup2\n      mstore\n      0x20\n      add\n        /* \"2-Procesamiento.sol\":1410:1422  previousHash */\n      dup3\n        /* \"2-Procesamiento.sol\":1195:1433  ProcessingData({... */\n      dup2\n      mstore\n      pop\n        /* \"2-Procesamiento.sol\":1171:1182  processData */\n      0x00\n        /* \"2-Procesamiento.sol\":1183:1191  _batchId */\n      dup6\n        /* \"2-Procesamiento.sol\":1171:1192  processData[_batchId] */\n      mload(0x40)\n      tag_70\n      swap2\n      swap1\n      tag_60\n      jump\t// in\n    tag_70:\n      swap1\n      dup2\n      mstore\n      0x20\n      add\n      mload(0x40)\n      dup1\n      swap2\n      sub\n      swap1\n      keccak256\n        /* \"2-Procesamiento.sol\":1171:1433  processData[_batchId] = ProcessingData({... */\n      0x00\n      dup3\n      add\n      mload\n      dup2\n      0x00\n      add\n      swap1\n      dup2\n      tag_71\n      swap2\n      swap1\n      tag_72\n      jump\t// in\n    tag_71:\n      pop\n      0x20\n      dup3\n      add\n      mload\n      dup2\n      0x01\n      add\n      swap1\n      dup2\n      tag_73\n      swap2\n      swap1\n      tag_72\n      jump\t// in\n    tag_73:\n      pop\n      0x40\n      dup3\n      add\n      mload\n      dup2\n      0x02\n      add\n      swap1\n      dup2\n      tag_74\n      swap2\n      swap1\n      tag_72\n      jump\t// in\n    tag_74:\n      pop\n      0x60\n      dup3\n      add\n      mload\n      dup2\n      0x03\n      add\n      sstore\n      0x80\n      dup3\n      add\n      mload\n      dup2\n      0x04\n      add\n      sstore\n      swap1\n      pop\n      pop\n        /* \"2-Procesamiento.sol\":1452:1472  allProcessedBatchIds */\n      0x01\n        /* \"2-Procesamiento.sol\":1478:1486  _batchId */\n      dup5\n        /* \"2-Procesamiento.sol\":1452:1487  allProcessedBatchIds.push(_batchId) */\n      swap1\n      dup1\n      0x01\n      dup2\n      sload\n      add\n      dup1\n      dup3\n      sstore\n      dup1\n      swap2\n      pop\n      pop\n      0x01\n      swap1\n      sub\n      swap1\n      0x00\n      mstore\n      keccak256(0x00, 0x20)\n      add\n      0x00\n      swap1\n      swap2\n      swap1\n      swap2\n      swap1\n      swap2\n      pop\n      swap1\n      dup2\n      tag_76\n      swap2\n      swap1\n      tag_72\n      jump\t// in\n    tag_76:\n      pop\n        /* \"2-Procesamiento.sol\":1506:1528  bytes32 processingHash */\n      0x00\n        /* \"2-Procesamiento.sol\":1531:1558  getProcessingHash(_batchId) */\n      tag_77\n        /* \"2-Procesamiento.sol\":1549:1557  _batchId */\n      dup6\n        /* \"2-Procesamiento.sol\":1531:1548  getProcessingHash */\n      tag_29\n        /* \"2-Procesamiento.sol\":1531:1558  getProcessingHash(_batchId) */\n      jump\t// in\n    tag_77:\n        /* \"2-Procesamiento.sol\":1506:1558  bytes32 processingHash = getProcessingHash(_batchId) */\n      swap1\n      pop\n        /* \"2-Procesamiento.sol\":1573:1616  ProcessingUpdated(_batchId, processingHash) */\n      0xc9945697c655af0b805a409f564fee17b5e60728ee2f9a821d3ec31b2aea6c05\n        /* \"2-Procesamiento.sol\":1591:1599  _batchId */\n      dup6\n        /* \"2-Procesamiento.sol\":1601:1615  processingHash */\n      dup3\n        /* \"2-Procesamiento.sol\":1573:1616  ProcessingUpdated(_batchId, processingHash) */\n      mload(0x40)\n      tag_78\n      swap3\n      swap2\n      swap1\n      tag_79\n      jump\t// in\n    tag_78:\n      mload(0x40)\n      dup1\n      swap2\n      sub\n      swap1\n      log1\n        /* \"2-Procesamiento.sol\":920:1623  {... */\n      pop\n      pop\n        /* \"2-Procesamiento.sol\":768:1623  function updateProcessing(... */\n      pop\n      pop\n      pop\n      jump\t// out\n        /* \"2-Procesamiento.sol\":2605:2722  function getAllProcessedBatchIds() public view returns (string[] memory) {... */\n    tag_23:\n        /* \"2-Procesamiento.sol\":2661:2676  string[] memory */\n      0x60\n        /* \"2-Procesamiento.sol\":2695:2715  allProcessedBatchIds */\n      0x01\n        /* \"2-Procesamiento.sol\":2688:2715  return allProcessedBatchIds */\n      dup1\n      sload\n      dup1\n      0x20\n      mul\n      0x20\n      add\n      mload(0x40)\n      swap1\n      dup2\n      add\n      0x40\n      mstore\n      dup1\n      swap3\n      swap2\n      swap1\n      dup2\n      dup2\n      mstore\n      0x20\n      add\n      0x00\n      swap1\n    tag_81:\n      dup3\n      dup3\n      lt\n      iszero\n      tag_82\n      jumpi\n      dup4\n      dup3\n      swap1\n      0x00\n      mstore\n      keccak256(0x00, 0x20)\n      add\n      dup1\n      sload\n      tag_84\n      swap1\n      tag_53\n      jump\t// in\n    tag_84:\n      dup1\n      0x1f\n      add\n      0x20\n      dup1\n      swap2\n      div\n      mul\n      0x20\n      add\n      mload(0x40)\n      swap1\n      dup2\n      add\n      0x40\n      mstore\n      dup1\n      swap3\n      swap2\n      swap1\n      dup2\n      dup2\n      mstore\n      0x20\n      add\n      dup3\n      dup1\n      sload\n      tag_85\n      swap1\n      tag_53\n      jump\t// in\n    tag_85:\n      dup1\n      iszero\n      tag_86\n      jumpi\n      dup1\n      0x1f\n      lt\n      tag_87\n      jumpi\n      0x0100\n      dup1\n      dup4\n      sload\n      div\n      mul\n      dup4\n      mstore\n      swap2\n      0x20\n      add\n      swap2\n      jump(tag_86)\n    tag_87:\n      dup3\n      add\n      swap2\n      swap1\n      0x00\n      mstore\n      keccak256(0x00, 0x20)\n      swap1\n    tag_88:\n      dup2\n      sload\n      dup2\n      mstore\n      swap1\n      0x01\n      add\n      swap1\n      0x20\n      add\n      dup1\n      dup4\n      gt\n      tag_88\n      jumpi\n      dup3\n      swap1\n      sub\n      0x1f\n      and\n      dup3\n      add\n      swap2\n    tag_86:\n      pop\n      pop\n      pop\n      pop\n      pop\n      dup2\n      mstore\n      0x20\n      add\n      swap1\n      0x01\n      add\n      swap1\n      jump(tag_81)\n    tag_82:\n      pop\n      pop\n      pop\n      pop\n      swap1\n      pop\n        /* \"2-Procesamiento.sol\":2605:2722  function getAllProcessedBatchIds() public view returns (string[] memory) {... */\n      swap1\n      jump\t// out\n        /* \"2-Procesamiento.sol\":1633:2065  function getProcessingHash(string memory _batchId) public view returns (bytes32) {... */\n    tag_29:\n        /* \"2-Procesamiento.sol\":1705:1712  bytes32 */\n      0x00\n        /* \"2-Procesamiento.sol\":1724:1747  ProcessingData memory p */\n      dup1\n        /* \"2-Procesamiento.sol\":1750:1761  processData */\n      0x00\n        /* \"2-Procesamiento.sol\":1762:1770  _batchId */\n      dup4\n        /* \"2-Procesamiento.sol\":1750:1771  processData[_batchId] */\n      mload(0x40)\n      tag_90\n      swap2\n      swap1\n      tag_60\n      jump\t// in\n    tag_90:\n      swap1\n      dup2\n      mstore\n      0x20\n      add\n      mload(0x40)\n      dup1\n      swap2\n      sub\n      swap1\n      keccak256\n        /* \"2-Procesamiento.sol\":1724:1771  ProcessingData memory p = processData[_batchId] */\n      mload(0x40)\n      dup1\n      0xa0\n      add\n      0x40\n      mstore\n      swap1\n      dup2\n      0x00\n      dup3\n      add\n      dup1\n      sload\n      tag_91\n      swap1\n      tag_53\n      jump\t// in\n    tag_91:\n      dup1\n      0x1f\n      add\n      0x20\n      dup1\n      swap2\n      div\n      mul\n      0x20\n      add\n      mload(0x40)\n      swap1\n      dup2\n      add\n      0x40\n      mstore\n      dup1\n      swap3\n      swap2\n      swap1\n      dup2\n      dup2\n      mstore\n      0x20\n      add\n      dup3\n      dup1\n      sload\n      tag_92\n      swap1\n      tag_53\n      jump\t// in\n    tag_92:\n      dup1\n      iszero\n      tag_93\n      jumpi\n      dup1\n      0x1f\n      lt\n      tag_94\n      jumpi\n      0x0100\n      dup1\n      dup4\n      sload\n      div\n      mul\n      dup4\n      mstore\n      swap2\n      0x20\n      add\n      swap2\n      jump(tag_93)\n    tag_94:\n      dup3\n      add\n      swap2\n      swap1\n      0x00\n      mstore\n      keccak256(0x00, 0x20)\n      swap1\n    tag_95:\n      dup2\n      sload\n      dup2\n      mstore\n      swap1\n      0x01\n      add\n      swap1\n      0x20\n      add\n      dup1\n      dup4\n      gt\n      tag_95\n      jumpi\n      dup3\n      swap1\n      sub\n      0x1f\n      and\n      dup3\n      add\n      swap2\n    tag_93:\n      pop\n      pop\n      pop\n      pop\n      pop\n      dup2\n      mstore\n      0x20\n      add\n      0x01\n      dup3\n      add\n      dup1\n      sload\n      tag_96\n      swap1\n      tag_53\n      jump\t// in\n    tag_96:\n      dup1\n      0x1f\n      add\n      0x20\n      dup1\n      swap2\n      div\n      mul\n      0x20\n      add\n      mload(0x40)\n      swap1\n      dup2\n      add\n      0x40\n      mstore\n      dup1\n      swap3\n      swap2\n      swap1\n      dup2\n      dup2\n      mstore\n      0x20\n      add\n      dup3\n      dup1\n      sload\n      tag_97\n      swap1\n      tag_53\n      jump\t// in\n    tag_97:\n      dup1\n      iszero\n      tag_98\n      jumpi\n      dup1\n      0x1f\n      lt\n      tag_99\n      jumpi\n      0x0100\n      dup1\n      dup4\n      sload\n      div\n      mul\n      dup4\n      mstore\n      swap2\n      0x20\n      add\n      swap2\n      jump(tag_98)\n    tag_99:\n      dup3\n      add\n      swap2\n      swap1\n      0x00\n      mstore\n      keccak256(0x00, 0x20)\n      swap1\n    tag_100:\n      dup2\n      sload\n      dup2\n      mstore\n      swap1\n      0x01\n      add\n      swap1\n      0x20\n      add\n      dup1\n      dup4\n      gt\n      tag_100\n      jumpi\n      dup3\n      swap1\n      sub\n      0x1f\n      and\n      dup3\n      add\n      swap2\n    tag_98:\n      pop\n      pop\n      pop\n      pop\n      pop\n      dup2\n      mstore\n      0x20\n      add\n      0x02\n      dup3\n      add\n      dup1\n      sload\n      tag_101\n      swap1\n      tag_53\n      jump\t// in\n    tag_101:\n      dup1\n      0x1f\n      add\n      0x20\n      dup1\n      swap2\n      div\n      mul\n      0x20\n      add\n      mload(0x40)\n      swap1\n      dup2\n      add\n      0x40\n      mstore\n      dup1\n      swap3\n      swap2\n      swap1\n      dup2\n      dup2\n      mstore\n      0x20\n      add\n      dup3\n      dup1\n      sload\n      tag_102\n      swap1\n      tag_53\n      jump\t// in\n    tag_102:\n      dup1\n      iszero\n      tag_103\n      jumpi\n      dup1\n      0x1f\n      lt\n      tag_104\n      jumpi\n      0x0100\n      dup1\n      dup4\n      sload\n      div\n      mul\n      dup4\n      mstore\n      swap2\n      0x20\n      add\n      swap2\n      jump(tag_103)\n    tag_104:\n      dup3\n      add\n      swap2\n      swap1\n      0x00\n      mstore\n      keccak256(0x00, 0x20)\n      swap1\n    tag_105:\n      dup2\n      sload\n      dup2\n      mstore\n      swap1\n      0x01\n      add\n      swap1\n      0x20\n      add\n      dup1\n      dup4\n      gt\n      tag_105\n      jumpi\n      dup3\n      swap1\n      sub\n      0x1f\n      and\n      dup3\n      add\n      swap2\n    tag_103:\n      pop\n      pop\n      pop\n      pop\n      pop\n      dup2\n      mstore\n      0x20\n      add\n      0x03\n      dup3\n      add\n      sload\n      dup2\n      mstore\n      0x20\n      add\n      0x04\n      dup3\n      add\n      sload\n      dup2\n      mstore\n      pop\n      pop\n      swap1\n      pop\n        /* \"2-Procesamiento.sol\":1815:1816  0 */\n      0x00\n        /* \"2-Procesamiento.sol\":1795:1796  p */\n      dup2\n        /* \"2-Procesamiento.sol\":1795:1804  p.batchId */\n      0x00\n      add\n      mload\n        /* \"2-Procesamiento.sol\":1789:1812  bytes(p.batchId).length */\n      mload\n        /* \"2-Procesamiento.sol\":1789:1816  bytes(p.batchId).length > 0 */\n      gt\n        /* \"2-Procesamiento.sol\":1781:1851  require(bytes(p.batchId).length > 0, \"Processing data does not exist\") */\n      tag_106\n      jumpi\n      mload(0x40)\n      0x08c379a000000000000000000000000000000000000000000000000000000000\n      dup2\n      mstore\n      0x04\n      add\n      tag_107\n      swap1\n      tag_108\n      jump\t// in\n    tag_107:\n      mload(0x40)\n      dup1\n      swap2\n      sub\n      swap1\n      revert\n    tag_106:\n        /* \"2-Procesamiento.sol\":1917:1918  p */\n      dup1\n        /* \"2-Procesamiento.sol\":1917:1926  p.batchId */\n      0x00\n      add\n      mload\n        /* \"2-Procesamiento.sol\":1940:1941  p */\n      dup2\n        /* \"2-Procesamiento.sol\":1940:1959  p.processingDetails */\n      0x20\n      add\n      mload\n        /* \"2-Procesamiento.sol\":1973:1974  p */\n      dup3\n        /* \"2-Procesamiento.sol\":1973:1989  p.certifications */\n      0x40\n      add\n      mload\n        /* \"2-Procesamiento.sol\":2003:2004  p */\n      dup4\n        /* \"2-Procesamiento.sol\":2003:2014  p.timestamp */\n      0x60\n      add\n      mload\n        /* \"2-Procesamiento.sol\":2028:2029  p */\n      dup5\n        /* \"2-Procesamiento.sol\":2028:2047  p.previousStageHash */\n      0x80\n      add\n      mload\n        /* \"2-Procesamiento.sol\":1887:2057  abi.encodePacked(... */\n      add(0x20, mload(0x40))\n      tag_109\n      swap6\n      swap5\n      swap4\n      swap3\n      swap2\n      swap1\n      tag_110\n      jump\t// in\n    tag_109:\n      mload(0x40)\n      0x20\n      dup2\n      dup4\n      sub\n      sub\n      dup2\n      mstore\n      swap1\n      0x40\n      mstore\n        /* \"2-Procesamiento.sol\":1877:2058  keccak256(abi.encodePacked(... */\n      dup1\n      mload\n      swap1\n      0x20\n      add\n      keccak256\n        /* \"2-Procesamiento.sol\":1870:2058  return keccak256(abi.encodePacked(... */\n      swap2\n      pop\n      pop\n        /* \"2-Procesamiento.sol\":1633:2065  function getProcessingHash(string memory _batchId) public view returns (bytes32) {... */\n      swap2\n      swap1\n      pop\n      jump\t// out\n        /* \"2-Procesamiento.sol\":332:384  mapping(string => ProcessingData) public processData */\n    tag_34:\n      0x00\n      dup2\n      dup1\n      mload\n      0x20\n      dup2\n      add\n      dup3\n      add\n      dup1\n      mload\n      dup5\n      dup3\n      mstore\n      0x20\n      dup4\n      add\n      0x20\n      dup6\n      add\n      keccak256\n      dup2\n      dup4\n      mstore\n      dup1\n      swap6\n      pop\n      pop\n      pop\n      pop\n      pop\n      pop\n      0x00\n      swap2\n      pop\n      swap1\n      pop\n      dup1\n      0x00\n      add\n      dup1\n      sload\n      tag_111\n      swap1\n      tag_53\n      jump\t// in\n    tag_111:\n      dup1\n      0x1f\n      add\n      0x20\n      dup1\n      swap2\n      div\n      mul\n      0x20\n      add\n      mload(0x40)\n      swap1\n      dup2\n      add\n      0x40\n      mstore\n      dup1\n      swap3\n      swap2\n      swap1\n      dup2\n      dup2\n      mstore\n      0x20\n      add\n      dup3\n      dup1\n      sload\n      tag_112\n      swap1\n      tag_53\n      jump\t// in\n    tag_112:\n      dup1\n      iszero\n      tag_113\n      jumpi\n      dup1\n      0x1f\n      lt\n      tag_114\n      jumpi\n      0x0100\n      dup1\n      dup4\n      sload\n      div\n      mul\n      dup4\n      mstore\n      swap2\n      0x20\n      add\n      swap2\n      jump(tag_113)\n    tag_114:\n      dup3\n      add\n      swap2\n      swap1\n      0x00\n      mstore\n      keccak256(0x00, 0x20)\n      swap1\n    tag_115:\n      dup2\n      sload\n      dup2\n      mstore\n      swap1\n      0x01\n      add\n      swap1\n      0x20\n      add\n      dup1\n      dup4\n      gt\n      tag_115\n      jumpi\n      dup3\n      swap1\n      sub\n      0x1f\n      and\n      dup3\n      add\n      swap2\n    tag_113:\n      pop\n      pop\n      pop\n      pop\n      pop\n      swap1\n      dup1\n      0x01\n      add\n      dup1\n      sload\n      tag_116\n      swap1\n      tag_53\n      jump\t// in\n    tag_116:\n      dup1\n      0x1f\n      add\n      0x20\n      dup1\n      swap2\n      div\n      mul\n      0x20\n      add\n      mload(0x40)\n      swap1\n      dup2\n      add\n      0x40\n      mstore\n      dup1\n      swap3\n      swap2\n      swap1\n      dup2\n      dup2\n      mstore\n      0x20\n      add\n      dup3\n      dup1\n      sload\n      tag_117\n      swap1\n      tag_53\n      jump\t// in\n    tag_117:\n      dup1\n      iszero\n      tag_118\n      jumpi\n      dup1\n      0x1f\n      lt\n      tag_119\n      jumpi\n      0x0100\n      dup1\n      dup4\n      sload\n      div\n      mul\n      dup4\n      mstore\n      swap2\n      0x20\n      add\n      swap2\n      jump(tag_118)\n    tag_119:\n      dup3\n      add\n      swap2\n      swap1\n      0x00\n      mstore\n      keccak256(0x00, 0x20)\n      swap1\n    tag_120:\n      dup2\n      sload\n      dup2\n      mstore\n      swap1\n      0x01\n      add\n      swap1\n      0x20\n      add\n      dup1\n      dup4\n      gt\n      tag_120\n      jumpi\n      dup3\n      swap1\n      sub\n      0x1f\n      and\n      dup3\n      add\n      swap2\n    tag_118:\n      pop\n      pop\n      pop\n      pop\n      pop\n      swap1\n      dup1\n      0x02\n      add\n      dup1\n      sload\n      tag_121\n      swap1\n      tag_53\n      jump\t// in\n    tag_121:\n      dup1\n      0x1f\n      add\n      0x20\n      dup1\n      swap2\n      div\n      mul\n      0x20\n      add\n      mload(0x40)\n      swap1\n      dup2\n      add\n      0x40\n      mstore\n      dup1\n      swap3\n      swap2\n      swap1\n      dup2\n      dup2\n      mstore\n      0x20\n      add\n      dup3\n      dup1\n      sload\n      tag_122\n      swap1\n      tag_53\n      jump\t// in\n    tag_122:\n      dup1\n      iszero\n      tag_123\n      jumpi\n      dup1\n      0x1f\n      lt\n      tag_124\n      jumpi\n      0x0100\n      dup1\n      dup4\n      sload\n      div\n      mul\n      dup4\n      mstore\n      swap2\n      0x20\n      add\n      swap2\n      jump(tag_123)\n    tag_124:\n      dup3\n      add\n      swap2\n      swap1\n      0x00\n      mstore\n      keccak256(0x00, 0x20)\n      swap1\n    tag_125:\n      dup2\n      sload\n      dup2\n      mstore\n      swap1\n      0x01\n      add\n      swap1\n      0x20\n      add\n      dup1\n      dup4\n      gt\n      tag_125\n      jumpi\n      dup3\n      swap1\n      sub\n      0x1f\n      and\n      dup3\n      add\n      swap2\n    tag_123:\n      pop\n      pop\n      pop\n      pop\n      pop\n      swap1\n      dup1\n      0x03\n      add\n      sload\n      swap1\n      dup1\n      0x04\n      add\n      sload\n      swap1\n      pop\n      dup6\n      jump\t// out\n        /* \"2-Procesamiento.sol\":437:472  address public registroFincaAddress */\n    tag_38:\n      0x02\n      0x00\n      swap1\n      sload\n      swap1\n      0x0100\n      exp\n      swap1\n      div\n      0xffffffffffffffffffffffffffffffffffffffff\n      and\n      dup2\n      jump\t// out\n        /* \"2-Procesamiento.sol\":2732:2849  function getTotalProcessedBatches() public view returns (uint256) {... */\n    tag_42:\n        /* \"2-Procesamiento.sol\":2789:2796  uint256 */\n      0x00\n        /* \"2-Procesamiento.sol\":2815:2835  allProcessedBatchIds */\n      0x01\n        /* \"2-Procesamiento.sol\":2815:2842  allProcessedBatchIds.length */\n      dup1\n      sload\n      swap1\n      pop\n        /* \"2-Procesamiento.sol\":2808:2842  return allProcessedBatchIds.length */\n      swap1\n      pop\n        /* \"2-Procesamiento.sol\":2732:2849  function getTotalProcessedBatches() public view returns (uint256) {... */\n      swap1\n      jump\t// out\n        /* \"2-Procesamiento.sol\":2075:2595  function getProcessingInfo(string memory _batchId) public view returns (... */\n    tag_47:\n        /* \"2-Procesamiento.sol\":2156:2187  string memory processingDetails */\n      0x60\n        /* \"2-Procesamiento.sol\":2197:2225  string memory certifications */\n      dup1\n        /* \"2-Procesamiento.sol\":2235:2252  uint256 timestamp */\n      0x00\n        /* \"2-Procesamiento.sol\":2262:2287  bytes32 previousStageHash */\n      dup1\n        /* \"2-Procesamiento.sol\":2304:2327  ProcessingData memory p */\n      0x00\n        /* \"2-Procesamiento.sol\":2330:2341  processData */\n      dup1\n        /* \"2-Procesamiento.sol\":2342:2350  _batchId */\n      dup7\n        /* \"2-Procesamiento.sol\":2330:2351  processData[_batchId] */\n      mload(0x40)\n      tag_128\n      swap2\n      swap1\n      tag_60\n      jump\t// in\n    tag_128:\n      swap1\n      dup2\n      mstore\n      0x20\n      add\n      mload(0x40)\n      dup1\n      swap2\n      sub\n      swap1\n      keccak256\n        /* \"2-Procesamiento.sol\":2304:2351  ProcessingData memory p = processData[_batchId] */\n      mload(0x40)\n      dup1\n      0xa0\n      add\n      0x40\n      mstore\n      swap1\n      dup2\n      0x00\n      dup3\n      add\n      dup1\n      sload\n      tag_129\n      swap1\n      tag_53\n      jump\t// in\n    tag_129:\n      dup1\n      0x1f\n      add\n      0x20\n      dup1\n      swap2\n      div\n      mul\n      0x20\n      add\n      mload(0x40)\n      swap1\n      dup2\n      add\n      0x40\n      mstore\n      dup1\n      swap3\n      swap2\n      swap1\n      dup2\n      dup2\n      mstore\n      0x20\n      add\n      dup3\n      dup1\n      sload\n      tag_130\n      swap1\n      tag_53\n      jump\t// in\n    tag_130:\n      dup1\n      iszero\n      tag_131\n      jumpi\n      dup1\n      0x1f\n      lt\n      tag_132\n      jumpi\n      0x0100\n      dup1\n      dup4\n      sload\n      div\n      mul\n      dup4\n      mstore\n      swap2\n      0x20\n      add\n      swap2\n      jump(tag_131)\n    tag_132:\n      dup3\n      add\n      swap2\n      swap1\n      0x00\n      mstore\n      keccak256(0x00, 0x20)\n      swap1\n    tag_133:\n      dup2\n      sload\n      dup2\n      mstore\n      swap1\n      0x01\n      add\n      swap1\n      0x20\n      add\n      dup1\n      dup4\n      gt\n      tag_133\n      jumpi\n      dup3\n      swap1\n      sub\n      0x1f\n      and\n      dup3\n      add\n      swap2\n    tag_131:\n      pop\n      pop\n      pop\n      pop\n      pop\n      dup2\n      mstore\n      0x20\n      add\n      0x01\n      dup3\n      add\n      dup1\n      sload\n      tag_134\n      swap1\n      tag_53\n      jump\t// in\n    tag_134:\n      dup1\n      0x1f\n      add\n      0x20\n      dup1\n      swap2\n      div\n      mul\n      0x20\n      add\n      mload(0x40)\n      swap1\n      dup2\n      add\n      0x40\n      mstore\n      dup1\n      swap3\n      swap2\n      swap1\n      dup2\n      dup2\n      mstore\n      0x20\n      add\n      dup3\n      dup1\n      sload\n      tag_135\n      swap1\n      tag_53\n      jump\t// in\n    tag_135:\n      dup1\n      iszero\n      tag_136\n      jumpi\n      dup1\n      0x1f\n      lt\n      tag_137\n      jumpi\n      0x0100\n      dup1\n      dup4\n      sload\n      div\n      mul\n      dup4\n      mstore\n      swap2\n      0x20\n      add\n      swap2\n      jump(tag_136)\n    tag_137:\n      dup3\n      add\n      swap2\n      swap1\n      0x00\n      mstore\n      keccak256(0x00, 0x20)\n      swap1\n    tag_138:\n      dup2\n      sload\n      dup2\n      mstore\n      swap1\n      0x01\n      add\n      swap1\n      0x20\n      add\n      dup1\n      dup4\n      gt\n      tag_138\n      jumpi\n      dup3\n      swap1\n      sub\n      0x1f\n      and\n      dup3\n      add\n      swap2\n    tag_136:\n      pop\n      pop\n      pop\n      pop\n      pop\n      dup2\n      mstore\n      0x20\n      add\n      0x02\n      dup3\n      add\n      dup1\n      sload\n      tag_139\n      swap1\n      tag_53\n      jump\t// in\n    tag_139:\n      dup1\n      0x1f\n      add\n      0x20\n      dup1\n      swap2\n      div\n      mul\n      0x20\n      add\n      mload(0x40)\n      swap1\n      dup2\n      add\n      0x40\n      mstore\n      dup1\n      swap3\n      swap2\n      swap1\n      dup2\n      dup2\n      mstore\n      0x20\n      add\n      dup3\n      dup1\n      sload\n      tag_140\n      swap1\n      tag_53\n      jump\t// in\n    tag_140:\n      dup1\n      iszero\n      tag_141\n      jumpi\n      dup1\n      0x1f\n      lt\n      tag_142\n      jumpi\n      0x0100\n      dup1\n      dup4\n      sload\n      div\n      mul\n      dup4\n      mstore\n      swap2\n      0x20\n      add\n      swap2\n      jump(tag_141)\n    tag_142:\n      dup3\n      add\n      swap2\n      swap1\n      0x00\n      mstore\n      keccak256(0x00, 0x20)\n      swap1\n    tag_143:\n      dup2\n      sload\n      dup2\n      mstore\n      swap1\n      0x01\n      add\n      swap1\n      0x20\n      add\n      dup1\n      dup4\n      gt\n      tag_143\n      jumpi\n      dup3\n      swap1\n      sub\n      0x1f\n      and\n      dup3\n      add\n      swap2\n    tag_141:\n      pop\n      pop\n      pop\n      pop\n      pop\n      dup2\n      mstore\n      0x20\n      add\n      0x03\n      dup3\n      add\n      sload\n      dup2\n      mstore\n      0x20\n      add\n      0x04\n      dup3\n      add\n      sload\n      dup2\n      mstore\n      pop\n      pop\n      swap1\n      pop\n        /* \"2-Procesamiento.sol\":2395:2396  0 */\n      0x00\n        /* \"2-Procesamiento.sol\":2375:2376  p */\n      dup2\n        /* \"2-Procesamiento.sol\":2375:2384  p.batchId */\n      0x00\n      add\n      mload\n        /* \"2-Procesamiento.sol\":2369:2392  bytes(p.batchId).length */\n      mload\n        /* \"2-Procesamiento.sol\":2369:2396  bytes(p.batchId).length > 0 */\n      gt\n        /* \"2-Procesamiento.sol\":2361:2431  require(bytes(p.batchId).length > 0, \"Processing data does not exist\") */\n      tag_144\n      jumpi\n      mload(0x40)\n      0x08c379a000000000000000000000000000000000000000000000000000000000\n      dup2\n      mstore\n      0x04\n      add\n      tag_145\n      swap1\n      tag_108\n      jump\t// in\n    tag_145:\n      mload(0x40)\n      dup1\n      swap2\n      sub\n      swap1\n      revert\n    tag_144:\n        /* \"2-Procesamiento.sol\":2471:2472  p */\n      dup1\n        /* \"2-Procesamiento.sol\":2471:2490  p.processingDetails */\n      0x20\n      add\n      mload\n        /* \"2-Procesamiento.sol\":2504:2505  p */\n      dup2\n        /* \"2-Procesamiento.sol\":2504:2520  p.certifications */\n      0x40\n      add\n      mload\n        /* \"2-Procesamiento.sol\":2534:2535  p */\n      dup3\n        /* \"2-Procesamiento.sol\":2534:2545  p.timestamp */\n      0x60\n      add\n      mload\n        /* \"2-Procesamiento.sol\":2559:2560  p */\n      dup4\n        /* \"2-Procesamiento.sol\":2559:2578  p.previousStageHash */\n      0x80\n      add\n      mload\n        /* \"2-Procesamiento.sol\":2450:2588  return (... */\n      swap5\n      pop\n      swap5\n      pop\n      swap5\n      pop\n      swap5\n      pop\n      pop\n        /* \"2-Procesamiento.sol\":2075:2595  function getProcessingInfo(string memory _batchId) public view returns (... */\n      swap2\n      swap4\n      pop\n      swap2\n      swap4\n      jump\t// out\n        /* \"#utility.yul\":7:82   */\n    tag_146:\n        /* \"#utility.yul\":40:46   */\n      0x00\n        /* \"#utility.yul\":73:75   */\n      0x40\n        /* \"#utility.yul\":67:76   */\n      mload\n        /* \"#utility.yul\":57:76   */\n      swap1\n      pop\n        /* \"#utility.yul\":7:82   */\n      swap1\n      jump\t// out\n        /* \"#utility.yul\":88:205   */\n    tag_147:\n        /* \"#utility.yul\":197:198   */\n      0x00\n        /* \"#utility.yul\":194:195   */\n      dup1\n        /* \"#utility.yul\":187:199   */\n      revert\n        /* \"#utility.yul\":211:328   */\n    tag_148:\n        /* \"#utility.yul\":320:321   */\n      0x00\n        /* \"#utility.yul\":317:318   */\n      dup1\n        /* \"#utility.yul\":310:322   */\n      revert\n        /* \"#utility.yul\":334:411   */\n    tag_149:\n        /* \"#utility.yul\":371:378   */\n      0x00\n        /* \"#utility.yul\":400:405   */\n      dup2\n        /* \"#utility.yul\":389:405   */\n      swap1\n      pop\n        /* \"#utility.yul\":334:411   */\n      swap2\n      swap1\n      pop\n      jump\t// out\n        /* \"#utility.yul\":417:539   */\n    tag_150:\n        /* \"#utility.yul\":490:514   */\n      tag_214\n        /* \"#utility.yul\":508:513   */\n      dup2\n        /* \"#utility.yul\":490:514   */\n      tag_149\n      jump\t// in\n    tag_214:\n        /* \"#utility.yul\":483:488   */\n      dup2\n        /* \"#utility.yul\":480:515   */\n      eq\n        /* \"#utility.yul\":470:533   */\n      tag_215\n      jumpi\n        /* \"#utility.yul\":529:530   */\n      0x00\n        /* \"#utility.yul\":526:527   */\n      dup1\n        /* \"#utility.yul\":519:531   */\n      revert\n        /* \"#utility.yul\":470:533   */\n    tag_215:\n        /* \"#utility.yul\":417:539   */\n      pop\n      jump\t// out\n        /* \"#utility.yul\":545:684   */\n    tag_151:\n        /* \"#utility.yul\":591:596   */\n      0x00\n        /* \"#utility.yul\":629:635   */\n      dup2\n        /* \"#utility.yul\":616:636   */\n      calldataload\n        /* \"#utility.yul\":607:636   */\n      swap1\n      pop\n        /* \"#utility.yul\":645:678   */\n      tag_217\n        /* \"#utility.yul\":672:677   */\n      dup2\n        /* \"#utility.yul\":645:678   */\n      tag_150\n      jump\t// in\n    tag_217:\n        /* \"#utility.yul\":545:684   */\n      swap3\n      swap2\n      pop\n      pop\n      jump\t// out\n        /* \"#utility.yul\":690:1019   */\n    tag_14:\n        /* \"#utility.yul\":749:755   */\n      0x00\n        /* \"#utility.yul\":798:800   */\n      0x20\n        /* \"#utility.yul\":786:795   */\n      dup3\n        /* \"#utility.yul\":777:784   */\n      dup5\n        /* \"#utility.yul\":773:796   */\n      sub\n        /* \"#utility.yul\":769:801   */\n      slt\n        /* \"#utility.yul\":766:885   */\n      iszero\n      tag_219\n      jumpi\n        /* \"#utility.yul\":804:883   */\n      tag_220\n      tag_147\n      jump\t// in\n    tag_220:\n        /* \"#utility.yul\":766:885   */\n    tag_219:\n        /* \"#utility.yul\":924:925   */\n      0x00\n        /* \"#utility.yul\":949:1002   */\n      tag_221\n        /* \"#utility.yul\":994:1001   */\n      dup5\n        /* \"#utility.yul\":985:991   */\n      dup3\n        /* \"#utility.yul\":974:983   */\n      dup6\n        /* \"#utility.yul\":970:992   */\n      add\n        /* \"#utility.yul\":949:1002   */\n      tag_151\n      jump\t// in\n    tag_221:\n        /* \"#utility.yul\":939:1002   */\n      swap2\n      pop\n        /* \"#utility.yul\":895:1012   */\n      pop\n        /* \"#utility.yul\":690:1019   */\n      swap3\n      swap2\n      pop\n      pop\n      jump\t// out\n        /* \"#utility.yul\":1025:1124   */\n    tag_152:\n        /* \"#utility.yul\":1077:1083   */\n      0x00\n        /* \"#utility.yul\":1111:1116   */\n      dup2\n        /* \"#utility.yul\":1105:1117   */\n      mload\n        /* \"#utility.yul\":1095:1117   */\n      swap1\n      pop\n        /* \"#utility.yul\":1025:1124   */\n      swap2\n      swap1\n      pop\n      jump\t// out\n        /* \"#utility.yul\":1130:1299   */\n    tag_153:\n        /* \"#utility.yul\":1214:1225   */\n      0x00\n        /* \"#utility.yul\":1248:1254   */\n      dup3\n        /* \"#utility.yul\":1243:1246   */\n      dup3\n        /* \"#utility.yul\":1236:1255   */\n      mstore\n        /* \"#utility.yul\":1288:1292   */\n      0x20\n        /* \"#utility.yul\":1283:1286   */\n      dup3\n        /* \"#utility.yul\":1279:1293   */\n      add\n        /* \"#utility.yul\":1264:1293   */\n      swap1\n      pop\n        /* \"#utility.yul\":1130:1299   */\n      swap3\n      swap2\n      pop\n      pop\n      jump\t// out\n        /* \"#utility.yul\":1305:1444   */\n    tag_154:\n        /* \"#utility.yul\":1394:1400   */\n      dup3\n        /* \"#utility.yul\":1389:1392   */\n      dup2\n        /* \"#utility.yul\":1384:1387   */\n      dup4\n        /* \"#utility.yul\":1378:1401   */\n      mcopy\n        /* \"#utility.yul\":1435:1436   */\n      0x00\n        /* \"#utility.yul\":1426:1432   */\n      dup4\n        /* \"#utility.yul\":1421:1424   */\n      dup4\n        /* \"#utility.yul\":1417:1433   */\n      add\n        /* \"#utility.yul\":1410:1437   */\n      mstore\n        /* \"#utility.yul\":1305:1444   */\n      pop\n      pop\n      pop\n      jump\t// out\n        /* \"#utility.yul\":1450:1552   */\n    tag_155:\n        /* \"#utility.yul\":1491:1497   */\n      0x00\n        /* \"#utility.yul\":1542:1544   */\n      0x1f\n        /* \"#utility.yul\":1538:1545   */\n      not\n        /* \"#utility.yul\":1533:1535   */\n      0x1f\n        /* \"#utility.yul\":1526:1531   */\n      dup4\n        /* \"#utility.yul\":1522:1536   */\n      add\n        /* \"#utility.yul\":1518:1546   */\n      and\n        /* \"#utility.yul\":1508:1546   */\n      swap1\n      pop\n        /* \"#utility.yul\":1450:1552   */\n      swap2\n      swap1\n      pop\n      jump\t// out\n        /* \"#utility.yul\":1558:1935   */\n    tag_156:\n        /* \"#utility.yul\":1646:1649   */\n      0x00\n        /* \"#utility.yul\":1674:1713   */\n      tag_227\n        /* \"#utility.yul\":1707:1712   */\n      dup3\n        /* \"#utility.yul\":1674:1713   */\n      tag_152\n      jump\t// in\n    tag_227:\n        /* \"#utility.yul\":1729:1800   */\n      tag_228\n        /* \"#utility.yul\":1793:1799   */\n      dup2\n        /* \"#utility.yul\":1788:1791   */\n      dup6\n        /* \"#utility.yul\":1729:1800   */\n      tag_153\n      jump\t// in\n    tag_228:\n        /* \"#utility.yul\":1722:1800   */\n      swap4\n      pop\n        /* \"#utility.yul\":1809:1874   */\n      tag_229\n        /* \"#utility.yul\":1867:1873   */\n      dup2\n        /* \"#utility.yul\":1862:1865   */\n      dup6\n        /* \"#utility.yul\":1855:1859   */\n      0x20\n        /* \"#utility.yul\":1848:1853   */\n      dup7\n        /* \"#utility.yul\":1844:1860   */\n      add\n        /* \"#utility.yul\":1809:1874   */\n      tag_154\n      jump\t// in\n    tag_229:\n        /* \"#utility.yul\":1899:1928   */\n      tag_230\n        /* \"#utility.yul\":1921:1927   */\n      dup2\n        /* \"#utility.yul\":1899:1928   */\n      tag_155\n      jump\t// in\n    tag_230:\n        /* \"#utility.yul\":1894:1897   */\n      dup5\n        /* \"#utility.yul\":1890:1929   */\n      add\n        /* \"#utility.yul\":1883:1929   */\n      swap2\n      pop\n        /* \"#utility.yul\":1650:1935   */\n      pop\n        /* \"#utility.yul\":1558:1935   */\n      swap3\n      swap2\n      pop\n      pop\n      jump\t// out\n        /* \"#utility.yul\":1941:2254   */\n    tag_17:\n        /* \"#utility.yul\":2054:2058   */\n      0x00\n        /* \"#utility.yul\":2092:2094   */\n      0x20\n        /* \"#utility.yul\":2081:2090   */\n      dup3\n        /* \"#utility.yul\":2077:2095   */\n      add\n        /* \"#utility.yul\":2069:2095   */\n      swap1\n      pop\n        /* \"#utility.yul\":2141:2150   */\n      dup2\n        /* \"#utility.yul\":2135:2139   */\n      dup2\n        /* \"#utility.yul\":2131:2151   */\n      sub\n        /* \"#utility.yul\":2127:2128   */\n      0x00\n        /* \"#utility.yul\":2116:2125   */\n      dup4\n        /* \"#utility.yul\":2112:2129   */\n      add\n        /* \"#utility.yul\":2105:2152   */\n      mstore\n        /* \"#utility.yul\":2169:2247   */\n      tag_232\n        /* \"#utility.yul\":2242:2246   */\n      dup2\n        /* \"#utility.yul\":2233:2239   */\n      dup5\n        /* \"#utility.yul\":2169:2247   */\n      tag_156\n      jump\t// in\n    tag_232:\n        /* \"#utility.yul\":2161:2247   */\n      swap1\n      pop\n        /* \"#utility.yul\":1941:2254   */\n      swap3\n      swap2\n      pop\n      pop\n      jump\t// out\n        /* \"#utility.yul\":2260:2377   */\n    tag_157:\n        /* \"#utility.yul\":2369:2370   */\n      0x00\n        /* \"#utility.yul\":2366:2367   */\n      dup1\n        /* \"#utility.yul\":2359:2371   */\n      revert\n        /* \"#utility.yul\":2383:2500   */\n    tag_158:\n        /* \"#utility.yul\":2492:2493   */\n      0x00\n        /* \"#utility.yul\":2489:2490   */\n      dup1\n        /* \"#utility.yul\":2482:2494   */\n      revert\n        /* \"#utility.yul\":2506:2686   */\n    tag_159:\n        /* \"#utility.yul\":2554:2631   */\n      0x4e487b7100000000000000000000000000000000000000000000000000000000\n        /* \"#utility.yul\":2551:2552   */\n      0x00\n        /* \"#utility.yul\":2544:2632   */\n      mstore\n        /* \"#utility.yul\":2651:2655   */\n      0x41\n        /* \"#utility.yul\":2648:2649   */\n      0x04\n        /* \"#utility.yul\":2641:2656   */\n      mstore\n        /* \"#utility.yul\":2675:2679   */\n      0x24\n        /* \"#utility.yul\":2672:2673   */\n      0x00\n        /* \"#utility.yul\":2665:2680   */\n      revert\n        /* \"#utility.yul\":2692:2973   */\n    tag_160:\n        /* \"#utility.yul\":2775:2802   */\n      tag_237\n        /* \"#utility.yul\":2797:2801   */\n      dup3\n        /* \"#utility.yul\":2775:2802   */\n      tag_155\n      jump\t// in\n    tag_237:\n        /* \"#utility.yul\":2767:2773   */\n      dup2\n        /* \"#utility.yul\":2763:2803   */\n      add\n        /* \"#utility.yul\":2905:2911   */\n      dup2\n        /* \"#utility.yul\":2893:2903   */\n      dup2\n        /* \"#utility.yul\":2890:2912   */\n      lt\n        /* \"#utility.yul\":2869:2887   */\n      0xffffffffffffffff\n        /* \"#utility.yul\":2857:2867   */\n      dup3\n        /* \"#utility.yul\":2854:2888   */\n      gt\n        /* \"#utility.yul\":2851:2913   */\n      or\n        /* \"#utility.yul\":2848:2936   */\n      iszero\n      tag_238\n      jumpi\n        /* \"#utility.yul\":2916:2934   */\n      tag_239\n      tag_159\n      jump\t// in\n    tag_239:\n        /* \"#utility.yul\":2848:2936   */\n    tag_238:\n        /* \"#utility.yul\":2956:2966   */\n      dup1\n        /* \"#utility.yul\":2952:2954   */\n      0x40\n        /* \"#utility.yul\":2945:2967   */\n      mstore\n        /* \"#utility.yul\":2735:2973   */\n      pop\n        /* \"#utility.yul\":2692:2973   */\n      pop\n      pop\n      jump\t// out\n        /* \"#utility.yul\":2979:3108   */\n    tag_161:\n        /* \"#utility.yul\":3013:3019   */\n      0x00\n        /* \"#utility.yul\":3040:3060   */\n      tag_241\n      tag_146\n      jump\t// in\n    tag_241:\n        /* \"#utility.yul\":3030:3060   */\n      swap1\n      pop\n        /* \"#utility.yul\":3069:3102   */\n      tag_242\n        /* \"#utility.yul\":3097:3101   */\n      dup3\n        /* \"#utility.yul\":3089:3095   */\n      dup3\n        /* \"#utility.yul\":3069:3102   */\n      tag_160\n      jump\t// in\n    tag_242:\n        /* \"#utility.yul\":2979:3108   */\n      swap2\n      swap1\n      pop\n      jump\t// out\n        /* \"#utility.yul\":3114:3422   */\n    tag_162:\n        /* \"#utility.yul\":3176:3180   */\n      0x00\n        /* \"#utility.yul\":3266:3284   */\n      0xffffffffffffffff\n        /* \"#utility.yul\":3258:3264   */\n      dup3\n        /* \"#utility.yul\":3255:3285   */\n      gt\n        /* \"#utility.yul\":3252:3308   */\n      iszero\n      tag_244\n      jumpi\n        /* \"#utility.yul\":3288:3306   */\n      tag_245\n      tag_159\n      jump\t// in\n    tag_245:\n        /* \"#utility.yul\":3252:3308   */\n    tag_244:\n        /* \"#utility.yul\":3326:3355   */\n      tag_246\n        /* \"#utility.yul\":3348:3354   */\n      dup3\n        /* \"#utility.yul\":3326:3355   */\n      tag_155\n      jump\t// in\n    tag_246:\n        /* \"#utility.yul\":3318:3355   */\n      swap1\n      pop\n        /* \"#utility.yul\":3410:3414   */\n      0x20\n        /* \"#utility.yul\":3404:3408   */\n      dup2\n        /* \"#utility.yul\":3400:3415   */\n      add\n        /* \"#utility.yul\":3392:3415   */\n      swap1\n      pop\n        /* \"#utility.yul\":3114:3422   */\n      swap2\n      swap1\n      pop\n      jump\t// out\n        /* \"#utility.yul\":3428:3576   */\n    tag_163:\n        /* \"#utility.yul\":3526:3532   */\n      dup3\n        /* \"#utility.yul\":3521:3524   */\n      dup2\n        /* \"#utility.yul\":3516:3519   */\n      dup4\n        /* \"#utility.yul\":3503:3533   */\n      calldatacopy\n        /* \"#utility.yul\":3567:3568   */\n      0x00\n        /* \"#utility.yul\":3558:3564   */\n      dup4\n        /* \"#utility.yul\":3553:3556   */\n      dup4\n        /* \"#utility.yul\":3549:3565   */\n      add\n        /* \"#utility.yul\":3542:3569   */\n      mstore\n        /* \"#utility.yul\":3428:3576   */\n      pop\n      pop\n      pop\n      jump\t// out\n        /* \"#utility.yul\":3582:4007   */\n    tag_164:\n        /* \"#utility.yul\":3660:3665   */\n      0x00\n        /* \"#utility.yul\":3685:3751   */\n      tag_249\n        /* \"#utility.yul\":3701:3750   */\n      tag_250\n        /* \"#utility.yul\":3743:3749   */\n      dup5\n        /* \"#utility.yul\":3701:3750   */\n      tag_162\n      jump\t// in\n    tag_250:\n        /* \"#utility.yul\":3685:3751   */\n      tag_161\n      jump\t// in\n    tag_249:\n        /* \"#utility.yul\":3676:3751   */\n      swap1\n      pop\n        /* \"#utility.yul\":3774:3780   */\n      dup3\n        /* \"#utility.yul\":3767:3772   */\n      dup2\n        /* \"#utility.yul\":3760:3781   */\n      mstore\n        /* \"#utility.yul\":3812:3816   */\n      0x20\n        /* \"#utility.yul\":3805:3810   */\n      dup2\n        /* \"#utility.yul\":3801:3817   */\n      add\n        /* \"#utility.yul\":3850:3853   */\n      dup5\n        /* \"#utility.yul\":3841:3847   */\n      dup5\n        /* \"#utility.yul\":3836:3839   */\n      dup5\n        /* \"#utility.yul\":3832:3848   */\n      add\n        /* \"#utility.yul\":3829:3854   */\n      gt\n        /* \"#utility.yul\":3826:3938   */\n      iszero\n      tag_251\n      jumpi\n        /* \"#utility.yul\":3857:3936   */\n      tag_252\n      tag_158\n      jump\t// in\n    tag_252:\n        /* \"#utility.yul\":3826:3938   */\n    tag_251:\n        /* \"#utility.yul\":3947:4001   */\n      tag_253\n        /* \"#utility.yul\":3994:4000   */\n      dup5\n        /* \"#utility.yul\":3989:3992   */\n      dup3\n        /* \"#utility.yul\":3984:3987   */\n      dup6\n        /* \"#utility.yul\":3947:4001   */\n      tag_163\n      jump\t// in\n    tag_253:\n        /* \"#utility.yul\":3666:4007   */\n      pop\n        /* \"#utility.yul\":3582:4007   */\n      swap4\n      swap3\n      pop\n      pop\n      pop\n      jump\t// out\n        /* \"#utility.yul\":4027:4367   */\n    tag_165:\n        /* \"#utility.yul\":4083:4088   */\n      0x00\n        /* \"#utility.yul\":4132:4135   */\n      dup3\n        /* \"#utility.yul\":4125:4129   */\n      0x1f\n        /* \"#utility.yul\":4117:4123   */\n      dup4\n        /* \"#utility.yul\":4113:4130   */\n      add\n        /* \"#utility.yul\":4109:4136   */\n      slt\n        /* \"#utility.yul\":4099:4221   */\n      tag_255\n      jumpi\n        /* \"#utility.yul\":4140:4219   */\n      tag_256\n      tag_157\n      jump\t// in\n    tag_256:\n        /* \"#utility.yul\":4099:4221   */\n    tag_255:\n        /* \"#utility.yul\":4257:4263   */\n      dup2\n        /* \"#utility.yul\":4244:4264   */\n      calldataload\n        /* \"#utility.yul\":4282:4361   */\n      tag_257\n        /* \"#utility.yul\":4357:4360   */\n      dup5\n        /* \"#utility.yul\":4349:4355   */\n      dup3\n        /* \"#utility.yul\":4342:4346   */\n      0x20\n        /* \"#utility.yul\":4334:4340   */\n      dup7\n        /* \"#utility.yul\":4330:4347   */\n      add\n        /* \"#utility.yul\":4282:4361   */\n      tag_164\n      jump\t// in\n    tag_257:\n        /* \"#utility.yul\":4273:4361   */\n      swap2\n      pop\n        /* \"#utility.yul\":4089:4367   */\n      pop\n        /* \"#utility.yul\":4027:4367   */\n      swap3\n      swap2\n      pop\n      pop\n      jump\t// out\n        /* \"#utility.yul\":4373:5532   */\n    tag_20:\n        /* \"#utility.yul\":4480:4486   */\n      0x00\n        /* \"#utility.yul\":4488:4494   */\n      dup1\n        /* \"#utility.yul\":4496:4502   */\n      0x00\n        /* \"#utility.yul\":4545:4547   */\n      0x60\n        /* \"#utility.yul\":4533:4542   */\n      dup5\n        /* \"#utility.yul\":4524:4531   */\n      dup7\n        /* \"#utility.yul\":4520:4543   */\n      sub\n        /* \"#utility.yul\":4516:4548   */\n      slt\n        /* \"#utility.yul\":4513:4632   */\n      iszero\n      tag_259\n      jumpi\n        /* \"#utility.yul\":4551:4630   */\n      tag_260\n      tag_147\n      jump\t// in\n    tag_260:\n        /* \"#utility.yul\":4513:4632   */\n    tag_259:\n        /* \"#utility.yul\":4699:4700   */\n      0x00\n        /* \"#utility.yul\":4688:4697   */\n      dup5\n        /* \"#utility.yul\":4684:4701   */\n      add\n        /* \"#utility.yul\":4671:4702   */\n      calldataload\n        /* \"#utility.yul\":4729:4747   */\n      0xffffffffffffffff\n        /* \"#utility.yul\":4721:4727   */\n      dup2\n        /* \"#utility.yul\":4718:4748   */\n      gt\n        /* \"#utility.yul\":4715:4832   */\n      iszero\n      tag_261\n      jumpi\n        /* \"#utility.yul\":4751:4830   */\n      tag_262\n      tag_148\n      jump\t// in\n    tag_262:\n        /* \"#utility.yul\":4715:4832   */\n    tag_261:\n        /* \"#utility.yul\":4856:4919   */\n      tag_263\n        /* \"#utility.yul\":4911:4918   */\n      dup7\n        /* \"#utility.yul\":4902:4908   */\n      dup3\n        /* \"#utility.yul\":4891:4900   */\n      dup8\n        /* \"#utility.yul\":4887:4909   */\n      add\n        /* \"#utility.yul\":4856:4919   */\n      tag_165\n      jump\t// in\n    tag_263:\n        /* \"#utility.yul\":4846:4919   */\n      swap4\n      pop\n        /* \"#utility.yul\":4642:4929   */\n      pop\n        /* \"#utility.yul\":4996:4998   */\n      0x20\n        /* \"#utility.yul\":4985:4994   */\n      dup5\n        /* \"#utility.yul\":4981:4999   */\n      add\n        /* \"#utility.yul\":4968:5000   */\n      calldataload\n        /* \"#utility.yul\":5027:5045   */\n      0xffffffffffffffff\n        /* \"#utility.yul\":5019:5025   */\n      dup2\n        /* \"#utility.yul\":5016:5046   */\n      gt\n        /* \"#utility.yul\":5013:5130   */\n      iszero\n      tag_264\n      jumpi\n        /* \"#utility.yul\":5049:5128   */\n      tag_265\n      tag_148\n      jump\t// in\n    tag_265:\n        /* \"#utility.yul\":5013:5130   */\n    tag_264:\n        /* \"#utility.yul\":5154:5217   */\n      tag_266\n        /* \"#utility.yul\":5209:5216   */\n      dup7\n        /* \"#utility.yul\":5200:5206   */\n      dup3\n        /* \"#utility.yul\":5189:5198   */\n      dup8\n        /* \"#utility.yul\":5185:5207   */\n      add\n        /* \"#utility.yul\":5154:5217   */\n      tag_165\n      jump\t// in\n    tag_266:\n        /* \"#utility.yul\":5144:5217   */\n      swap3\n      pop\n        /* \"#utility.yul\":4939:5227   */\n      pop\n        /* \"#utility.yul\":5294:5296   */\n      0x40\n        /* \"#utility.yul\":5283:5292   */\n      dup5\n        /* \"#utility.yul\":5279:5297   */\n      add\n        /* \"#utility.yul\":5266:5298   */\n      calldataload\n        /* \"#utility.yul\":5325:5343   */\n      0xffffffffffffffff\n        /* \"#utility.yul\":5317:5323   */\n      dup2\n        /* \"#utility.yul\":5314:5344   */\n      gt\n        /* \"#utility.yul\":5311:5428   */\n      iszero\n      tag_267\n      jumpi\n        /* \"#utility.yul\":5347:5426   */\n      tag_268\n      tag_148\n      jump\t// in\n    tag_268:\n        /* \"#utility.yul\":5311:5428   */\n    tag_267:\n        /* \"#utility.yul\":5452:5515   */\n      tag_269\n        /* \"#utility.yul\":5507:5514   */\n      dup7\n        /* \"#utility.yul\":5498:5504   */\n      dup3\n        /* \"#utility.yul\":5487:5496   */\n      dup8\n        /* \"#utility.yul\":5483:5505   */\n      add\n        /* \"#utility.yul\":5452:5515   */\n      tag_165\n      jump\t// in\n    tag_269:\n        /* \"#utility.yul\":5442:5515   */\n      swap2\n      pop\n        /* \"#utility.yul\":5237:5525   */\n      pop\n        /* \"#utility.yul\":4373:5532   */\n      swap3\n      pop\n      swap3\n      pop\n      swap3\n      jump\t// out\n        /* \"#utility.yul\":5538:5662   */\n    tag_166:\n        /* \"#utility.yul\":5615:5621   */\n      0x00\n        /* \"#utility.yul\":5649:5654   */\n      dup2\n        /* \"#utility.yul\":5643:5655   */\n      mload\n        /* \"#utility.yul\":5633:5655   */\n      swap1\n      pop\n        /* \"#utility.yul\":5538:5662   */\n      swap2\n      swap1\n      pop\n      jump\t// out\n        /* \"#utility.yul\":5668:5862   */\n    tag_167:\n        /* \"#utility.yul\":5777:5788   */\n      0x00\n        /* \"#utility.yul\":5811:5817   */\n      dup3\n        /* \"#utility.yul\":5806:5809   */\n      dup3\n        /* \"#utility.yul\":5799:5818   */\n      mstore\n        /* \"#utility.yul\":5851:5855   */\n      0x20\n        /* \"#utility.yul\":5846:5849   */\n      dup3\n        /* \"#utility.yul\":5842:5856   */\n      add\n        /* \"#utility.yul\":5827:5856   */\n      swap1\n      pop\n        /* \"#utility.yul\":5668:5862   */\n      swap3\n      swap2\n      pop\n      pop\n      jump\t// out\n        /* \"#utility.yul\":5868:6010   */\n    tag_168:\n        /* \"#utility.yul\":5945:5949   */\n      0x00\n        /* \"#utility.yul\":5968:5971   */\n      dup2\n        /* \"#utility.yul\":5960:5971   */\n      swap1\n      pop\n        /* \"#utility.yul\":5998:6002   */\n      0x20\n        /* \"#utility.yul\":5993:5996   */\n      dup3\n        /* \"#utility.yul\":5989:6003   */\n      add\n        /* \"#utility.yul\":5981:6003   */\n      swap1\n      pop\n        /* \"#utility.yul\":5868:6010   */\n      swap2\n      swap1\n      pop\n      jump\t// out\n        /* \"#utility.yul\":6016:6175   */\n    tag_169:\n        /* \"#utility.yul\":6090:6101   */\n      0x00\n        /* \"#utility.yul\":6124:6130   */\n      dup3\n        /* \"#utility.yul\":6119:6122   */\n      dup3\n        /* \"#utility.yul\":6112:6131   */\n      mstore\n        /* \"#utility.yul\":6164:6168   */\n      0x20\n        /* \"#utility.yul\":6159:6162   */\n      dup3\n        /* \"#utility.yul\":6155:6169   */\n      add\n        /* \"#utility.yul\":6140:6169   */\n      swap1\n      pop\n        /* \"#utility.yul\":6016:6175   */\n      swap3\n      swap2\n      pop\n      pop\n      jump\t// out\n        /* \"#utility.yul\":6181:6538   */\n    tag_170:\n        /* \"#utility.yul\":6259:6262   */\n      0x00\n        /* \"#utility.yul\":6287:6326   */\n      tag_275\n        /* \"#utility.yul\":6320:6325   */\n      dup3\n        /* \"#utility.yul\":6287:6326   */\n      tag_152\n      jump\t// in\n    tag_275:\n        /* \"#utility.yul\":6342:6403   */\n      tag_276\n        /* \"#utility.yul\":6396:6402   */\n      dup2\n        /* \"#utility.yul\":6391:6394   */\n      dup6\n        /* \"#utility.yul\":6342:6403   */\n      tag_169\n      jump\t// in\n    tag_276:\n        /* \"#utility.yul\":6335:6403   */\n      swap4\n      pop\n        /* \"#utility.yul\":6412:6477   */\n      tag_277\n        /* \"#utility.yul\":6470:6476   */\n      dup2\n        /* \"#utility.yul\":6465:6468   */\n      dup6\n        /* \"#utility.yul\":6458:6462   */\n      0x20\n        /* \"#utility.yul\":6451:6456   */\n      dup7\n        /* \"#utility.yul\":6447:6463   */\n      add\n        /* \"#utility.yul\":6412:6477   */\n      tag_154\n      jump\t// in\n    tag_277:\n        /* \"#utility.yul\":6502:6531   */\n      tag_278\n        /* \"#utility.yul\":6524:6530   */\n      dup2\n        /* \"#utility.yul\":6502:6531   */\n      tag_155\n      jump\t// in\n    tag_278:\n        /* \"#utility.yul\":6497:6500   */\n      dup5\n        /* \"#utility.yul\":6493:6532   */\n      add\n        /* \"#utility.yul\":6486:6532   */\n      swap2\n      pop\n        /* \"#utility.yul\":6263:6538   */\n      pop\n        /* \"#utility.yul\":6181:6538   */\n      swap3\n      swap2\n      pop\n      pop\n      jump\t// out\n        /* \"#utility.yul\":6544:6740   */\n    tag_171:\n        /* \"#utility.yul\":6633:6643   */\n      0x00\n        /* \"#utility.yul\":6668:6734   */\n      tag_280\n        /* \"#utility.yul\":6730:6733   */\n      dup4\n        /* \"#utility.yul\":6722:6728   */\n      dup4\n        /* \"#utility.yul\":6668:6734   */\n      tag_170\n      jump\t// in\n    tag_280:\n        /* \"#utility.yul\":6654:6734   */\n      swap1\n      pop\n        /* \"#utility.yul\":6544:6740   */\n      swap3\n      swap2\n      pop\n      pop\n      jump\t// out\n        /* \"#utility.yul\":6746:6869   */\n    tag_172:\n        /* \"#utility.yul\":6826:6830   */\n      0x00\n        /* \"#utility.yul\":6858:6862   */\n      0x20\n        /* \"#utility.yul\":6853:6856   */\n      dup3\n        /* \"#utility.yul\":6849:6863   */\n      add\n        /* \"#utility.yul\":6841:6863   */\n      swap1\n      pop\n        /* \"#utility.yul\":6746:6869   */\n      swap2\n      swap1\n      pop\n      jump\t// out\n        /* \"#utility.yul\":6903:7894   */\n    tag_173:\n        /* \"#utility.yul\":7042:7045   */\n      0x00\n        /* \"#utility.yul\":7071:7135   */\n      tag_283\n        /* \"#utility.yul\":7129:7134   */\n      dup3\n        /* \"#utility.yul\":7071:7135   */\n      tag_166\n      jump\t// in\n    tag_283:\n        /* \"#utility.yul\":7151:7247   */\n      tag_284\n        /* \"#utility.yul\":7240:7246   */\n      dup2\n        /* \"#utility.yul\":7235:7238   */\n      dup6\n        /* \"#utility.yul\":7151:7247   */\n      tag_167\n      jump\t// in\n    tag_284:\n        /* \"#utility.yul\":7144:7247   */\n      swap4\n      pop\n        /* \"#utility.yul\":7273:7276   */\n      dup4\n        /* \"#utility.yul\":7318:7322   */\n      0x20\n        /* \"#utility.yul\":7310:7316   */\n      dup3\n        /* \"#utility.yul\":7306:7323   */\n      mul\n        /* \"#utility.yul\":7301:7304   */\n      dup6\n        /* \"#utility.yul\":7297:7324   */\n      add\n        /* \"#utility.yul\":7348:7414   */\n      tag_285\n        /* \"#utility.yul\":7408:7413   */\n      dup6\n        /* \"#utility.yul\":7348:7414   */\n      tag_168\n      jump\t// in\n    tag_285:\n        /* \"#utility.yul\":7437:7444   */\n      dup1\n        /* \"#utility.yul\":7468:7469   */\n      0x00\n        /* \"#utility.yul\":7453:7849   */\n    tag_286:\n        /* \"#utility.yul\":7478:7484   */\n      dup6\n        /* \"#utility.yul\":7475:7476   */\n      dup2\n        /* \"#utility.yul\":7472:7485   */\n      lt\n        /* \"#utility.yul\":7453:7849   */\n      iszero\n      tag_288\n      jumpi\n        /* \"#utility.yul\":7549:7558   */\n      dup5\n        /* \"#utility.yul\":7543:7547   */\n      dup5\n        /* \"#utility.yul\":7539:7559   */\n      sub\n        /* \"#utility.yul\":7534:7537   */\n      dup10\n        /* \"#utility.yul\":7527:7560   */\n      mstore\n        /* \"#utility.yul\":7600:7606   */\n      dup2\n        /* \"#utility.yul\":7594:7607   */\n      mload\n        /* \"#utility.yul\":7628:7712   */\n      tag_289\n        /* \"#utility.yul\":7707:7711   */\n      dup6\n        /* \"#utility.yul\":7692:7705   */\n      dup3\n        /* \"#utility.yul\":7628:7712   */\n      tag_171\n      jump\t// in\n    tag_289:\n        /* \"#utility.yul\":7620:7712   */\n      swap5\n      pop\n        /* \"#utility.yul\":7735:7805   */\n      tag_290\n        /* \"#utility.yul\":7798:7804   */\n      dup4\n        /* \"#utility.yul\":7735:7805   */\n      tag_172\n      jump\t// in\n    tag_290:\n        /* \"#utility.yul\":7725:7805   */\n      swap3\n      pop\n        /* \"#utility.yul\":7834:7838   */\n      0x20\n        /* \"#utility.yul\":7829:7832   */\n      dup11\n        /* \"#utility.yul\":7825:7839   */\n      add\n        /* \"#utility.yul\":7818:7839   */\n      swap10\n      pop\n        /* \"#utility.yul\":7513:7849   */\n      pop\n        /* \"#utility.yul\":7500:7501   */\n      0x01\n        /* \"#utility.yul\":7497:7498   */\n      dup2\n        /* \"#utility.yul\":7493:7502   */\n      add\n        /* \"#utility.yul\":7488:7502   */\n      swap1\n      pop\n        /* \"#utility.yul\":7453:7849   */\n      jump(tag_286)\n    tag_288:\n        /* \"#utility.yul\":7457:7471   */\n      pop\n        /* \"#utility.yul\":7865:7869   */\n      dup3\n        /* \"#utility.yul\":7858:7869   */\n      swap8\n      pop\n        /* \"#utility.yul\":7885:7888   */\n      dup8\n        /* \"#utility.yul\":7878:7888   */\n      swap6\n      pop\n        /* \"#utility.yul\":7047:7894   */\n      pop\n      pop\n      pop\n      pop\n      pop\n        /* \"#utility.yul\":6903:7894   */\n      swap3\n      swap2\n      pop\n      pop\n      jump\t// out\n        /* \"#utility.yul\":7900:8313   */\n    tag_25:\n        /* \"#utility.yul\":8063:8067   */\n      0x00\n        /* \"#utility.yul\":8101:8103   */\n      0x20\n        /* \"#utility.yul\":8090:8099   */\n      dup3\n        /* \"#utility.yul\":8086:8104   */\n      add\n        /* \"#utility.yul\":8078:8104   */\n      swap1\n      pop\n        /* \"#utility.yul\":8150:8159   */\n      dup2\n        /* \"#utility.yul\":8144:8148   */\n      dup2\n        /* \"#utility.yul\":8140:8160   */\n      sub\n        /* \"#utility.yul\":8136:8137   */\n      0x00\n        /* \"#utility.yul\":8125:8134   */\n      dup4\n        /* \"#utility.yul\":8121:8138   */\n      add\n        /* \"#utility.yul\":8114:8161   */\n      mstore\n        /* \"#utility.yul\":8178:8306   */\n      tag_292\n        /* \"#utility.yul\":8301:8305   */\n      dup2\n        /* \"#utility.yul\":8292:8298   */\n      dup5\n        /* \"#utility.yul\":8178:8306   */\n      tag_173\n      jump\t// in\n    tag_292:\n        /* \"#utility.yul\":8170:8306   */\n      swap1\n      pop\n        /* \"#utility.yul\":7900:8313   */\n      swap3\n      swap2\n      pop\n      pop\n      jump\t// out\n        /* \"#utility.yul\":8319:8828   */\n    tag_28:\n        /* \"#utility.yul\":8388:8394   */\n      0x00\n        /* \"#utility.yul\":8437:8439   */\n      0x20\n        /* \"#utility.yul\":8425:8434   */\n      dup3\n        /* \"#utility.yul\":8416:8423   */\n      dup5\n        /* \"#utility.yul\":8412:8435   */\n      sub\n        /* \"#utility.yul\":8408:8440   */\n      slt\n        /* \"#utility.yul\":8405:8524   */\n      iszero\n      tag_294\n      jumpi\n        /* \"#utility.yul\":8443:8522   */\n      tag_295\n      tag_147\n      jump\t// in\n    tag_295:\n        /* \"#utility.yul\":8405:8524   */\n    tag_294:\n        /* \"#utility.yul\":8591:8592   */\n      0x00\n        /* \"#utility.yul\":8580:8589   */\n      dup3\n        /* \"#utility.yul\":8576:8593   */\n      add\n        /* \"#utility.yul\":8563:8594   */\n      calldataload\n        /* \"#utility.yul\":8621:8639   */\n      0xffffffffffffffff\n        /* \"#utility.yul\":8613:8619   */\n      dup2\n        /* \"#utility.yul\":8610:8640   */\n      gt\n        /* \"#utility.yul\":8607:8724   */\n      iszero\n      tag_296\n      jumpi\n        /* \"#utility.yul\":8643:8722   */\n      tag_297\n      tag_148\n      jump\t// in\n    tag_297:\n        /* \"#utility.yul\":8607:8724   */\n    tag_296:\n        /* \"#utility.yul\":8748:8811   */\n      tag_298\n        /* \"#utility.yul\":8803:8810   */\n      dup5\n        /* \"#utility.yul\":8794:8800   */\n      dup3\n        /* \"#utility.yul\":8783:8792   */\n      dup6\n        /* \"#utility.yul\":8779:8801   */\n      add\n        /* \"#utility.yul\":8748:8811   */\n      tag_165\n      jump\t// in\n    tag_298:\n        /* \"#utility.yul\":8738:8811   */\n      swap2\n      pop\n        /* \"#utility.yul\":8534:8821   */\n      pop\n        /* \"#utility.yul\":8319:8828   */\n      swap3\n      swap2\n      pop\n      pop\n      jump\t// out\n        /* \"#utility.yul\":8834:8911   */\n    tag_174:\n        /* \"#utility.yul\":8871:8878   */\n      0x00\n        /* \"#utility.yul\":8900:8905   */\n      dup2\n        /* \"#utility.yul\":8889:8905   */\n      swap1\n      pop\n        /* \"#utility.yul\":8834:8911   */\n      swap2\n      swap1\n      pop\n      jump\t// out\n        /* \"#utility.yul\":8917:9035   */\n    tag_175:\n        /* \"#utility.yul\":9004:9028   */\n      tag_301\n        /* \"#utility.yul\":9022:9027   */\n      dup2\n        /* \"#utility.yul\":9004:9028   */\n      tag_174\n      jump\t// in\n    tag_301:\n        /* \"#utility.yul\":8999:9002   */\n      dup3\n        /* \"#utility.yul\":8992:9029   */\n      mstore\n        /* \"#utility.yul\":8917:9035   */\n      pop\n      pop\n      jump\t// out\n        /* \"#utility.yul\":9041:9263   */\n    tag_31:\n        /* \"#utility.yul\":9134:9138   */\n      0x00\n        /* \"#utility.yul\":9172:9174   */\n      0x20\n        /* \"#utility.yul\":9161:9170   */\n      dup3\n        /* \"#utility.yul\":9157:9175   */\n      add\n        /* \"#utility.yul\":9149:9175   */\n      swap1\n      pop\n        /* \"#utility.yul\":9185:9256   */\n      tag_303\n        /* \"#utility.yul\":9253:9254   */\n      0x00\n        /* \"#utility.yul\":9242:9251   */\n      dup4\n        /* \"#utility.yul\":9238:9255   */\n      add\n        /* \"#utility.yul\":9229:9235   */\n      dup5\n        /* \"#utility.yul\":9185:9256   */\n      tag_175\n      jump\t// in\n    tag_303:\n        /* \"#utility.yul\":9041:9263   */\n      swap3\n      swap2\n      pop\n      pop\n      jump\t// out\n        /* \"#utility.yul\":9269:9387   */\n    tag_176:\n        /* \"#utility.yul\":9356:9380   */\n      tag_305\n        /* \"#utility.yul\":9374:9379   */\n      dup2\n        /* \"#utility.yul\":9356:9380   */\n      tag_149\n      jump\t// in\n    tag_305:\n        /* \"#utility.yul\":9351:9354   */\n      dup3\n        /* \"#utility.yul\":9344:9381   */\n      mstore\n        /* \"#utility.yul\":9269:9387   */\n      pop\n      pop\n      jump\t// out\n        /* \"#utility.yul\":9393:10330   */\n    tag_36:\n        /* \"#utility.yul\":9658:9662   */\n      0x00\n        /* \"#utility.yul\":9696:9699   */\n      0xa0\n        /* \"#utility.yul\":9685:9694   */\n      dup3\n        /* \"#utility.yul\":9681:9700   */\n      add\n        /* \"#utility.yul\":9673:9700   */\n      swap1\n      pop\n        /* \"#utility.yul\":9746:9755   */\n      dup2\n        /* \"#utility.yul\":9740:9744   */\n      dup2\n        /* \"#utility.yul\":9736:9756   */\n      sub\n        /* \"#utility.yul\":9732:9733   */\n      0x00\n        /* \"#utility.yul\":9721:9730   */\n      dup4\n        /* \"#utility.yul\":9717:9734   */\n      add\n        /* \"#utility.yul\":9710:9757   */\n      mstore\n        /* \"#utility.yul\":9774:9852   */\n      tag_307\n        /* \"#utility.yul\":9847:9851   */\n      dup2\n        /* \"#utility.yul\":9838:9844   */\n      dup9\n        /* \"#utility.yul\":9774:9852   */\n      tag_156\n      jump\t// in\n    tag_307:\n        /* \"#utility.yul\":9766:9852   */\n      swap1\n      pop\n        /* \"#utility.yul\":9899:9908   */\n      dup2\n        /* \"#utility.yul\":9893:9897   */\n      dup2\n        /* \"#utility.yul\":9889:9909   */\n      sub\n        /* \"#utility.yul\":9884:9886   */\n      0x20\n        /* \"#utility.yul\":9873:9882   */\n      dup4\n        /* \"#utility.yul\":9869:9887   */\n      add\n        /* \"#utility.yul\":9862:9910   */\n      mstore\n        /* \"#utility.yul\":9927:10005   */\n      tag_308\n        /* \"#utility.yul\":10000:10004   */\n      dup2\n        /* \"#utility.yul\":9991:9997   */\n      dup8\n        /* \"#utility.yul\":9927:10005   */\n      tag_156\n      jump\t// in\n    tag_308:\n        /* \"#utility.yul\":9919:10005   */\n      swap1\n      pop\n        /* \"#utility.yul\":10052:10061   */\n      dup2\n        /* \"#utility.yul\":10046:10050   */\n      dup2\n        /* \"#utility.yul\":10042:10062   */\n      sub\n        /* \"#utility.yul\":10037:10039   */\n      0x40\n        /* \"#utility.yul\":10026:10035   */\n      dup4\n        /* \"#utility.yul\":10022:10040   */\n      add\n        /* \"#utility.yul\":10015:10063   */\n      mstore\n        /* \"#utility.yul\":10080:10158   */\n      tag_309\n        /* \"#utility.yul\":10153:10157   */\n      dup2\n        /* \"#utility.yul\":10144:10150   */\n      dup7\n        /* \"#utility.yul\":10080:10158   */\n      tag_156\n      jump\t// in\n    tag_309:\n        /* \"#utility.yul\":10072:10158   */\n      swap1\n      pop\n        /* \"#utility.yul\":10168:10240   */\n      tag_310\n        /* \"#utility.yul\":10236:10238   */\n      0x60\n        /* \"#utility.yul\":10225:10234   */\n      dup4\n        /* \"#utility.yul\":10221:10239   */\n      add\n        /* \"#utility.yul\":10212:10218   */\n      dup6\n        /* \"#utility.yul\":10168:10240   */\n      tag_176\n      jump\t// in\n    tag_310:\n        /* \"#utility.yul\":10250:10323   */\n      tag_311\n        /* \"#utility.yul\":10318:10321   */\n      0x80\n        /* \"#utility.yul\":10307:10316   */\n      dup4\n        /* \"#utility.yul\":10303:10322   */\n      add\n        /* \"#utility.yul\":10294:10300   */\n      dup5\n        /* \"#utility.yul\":10250:10323   */\n      tag_175\n      jump\t// in\n    tag_311:\n        /* \"#utility.yul\":9393:10330   */\n      swap7\n      swap6\n      pop\n      pop\n      pop\n      pop\n      pop\n      pop\n      jump\t// out\n        /* \"#utility.yul\":10336:10462   */\n    tag_177:\n        /* \"#utility.yul\":10373:10380   */\n      0x00\n        /* \"#utility.yul\":10413:10455   */\n      0xffffffffffffffffffffffffffffffffffffffff\n        /* \"#utility.yul\":10406:10411   */\n      dup3\n        /* \"#utility.yul\":10402:10456   */\n      and\n        /* \"#utility.yul\":10391:10456   */\n      swap1\n      pop\n        /* \"#utility.yul\":10336:10462   */\n      swap2\n      swap1\n      pop\n      jump\t// out\n        /* \"#utility.yul\":10468:10564   */\n    tag_178:\n        /* \"#utility.yul\":10505:10512   */\n      0x00\n        /* \"#utility.yul\":10534:10558   */\n      tag_314\n        /* \"#utility.yul\":10552:10557   */\n      dup3\n        /* \"#utility.yul\":10534:10558   */\n      tag_177\n      jump\t// in\n    tag_314:\n        /* \"#utility.yul\":10523:10558   */\n      swap1\n      pop\n        /* \"#utility.yul\":10468:10564   */\n      swap2\n      swap1\n      pop\n      jump\t// out\n        /* \"#utility.yul\":10570:10688   */\n    tag_179:\n        /* \"#utility.yul\":10657:10681   */\n      tag_316\n        /* \"#utility.yul\":10675:10680   */\n      dup2\n        /* \"#utility.yul\":10657:10681   */\n      tag_178\n      jump\t// in\n    tag_316:\n        /* \"#utility.yul\":10652:10655   */\n      dup3\n        /* \"#utility.yul\":10645:10682   */\n      mstore\n        /* \"#utility.yul\":10570:10688   */\n      pop\n      pop\n      jump\t// out\n        /* \"#utility.yul\":10694:10916   */\n    tag_40:\n        /* \"#utility.yul\":10787:10791   */\n      0x00\n        /* \"#utility.yul\":10825:10827   */\n      0x20\n        /* \"#utility.yul\":10814:10823   */\n      dup3\n        /* \"#utility.yul\":10810:10828   */\n      add\n        /* \"#utility.yul\":10802:10828   */\n      swap1\n      pop\n        /* \"#utility.yul\":10838:10909   */\n      tag_318\n        /* \"#utility.yul\":10906:10907   */\n      0x00\n        /* \"#utility.yul\":10895:10904   */\n      dup4\n        /* \"#utility.yul\":10891:10908   */\n      add\n        /* \"#utility.yul\":10882:10888   */\n      dup5\n        /* \"#utility.yul\":10838:10909   */\n      tag_179\n      jump\t// in\n    tag_318:\n        /* \"#utility.yul\":10694:10916   */\n      swap3\n      swap2\n      pop\n      pop\n      jump\t// out\n        /* \"#utility.yul\":10922:11144   */\n    tag_44:\n        /* \"#utility.yul\":11015:11019   */\n      0x00\n        /* \"#utility.yul\":11053:11055   */\n      0x20\n        /* \"#utility.yul\":11042:11051   */\n      dup3\n        /* \"#utility.yul\":11038:11056   */\n      add\n        /* \"#utility.yul\":11030:11056   */\n      swap1\n      pop\n        /* \"#utility.yul\":11066:11137   */\n      tag_320\n        /* \"#utility.yul\":11134:11135   */\n      0x00\n        /* \"#utility.yul\":11123:11132   */\n      dup4\n        /* \"#utility.yul\":11119:11136   */\n      add\n        /* \"#utility.yul\":11110:11116   */\n      dup5\n        /* \"#utility.yul\":11066:11137   */\n      tag_176\n      jump\t// in\n    tag_320:\n        /* \"#utility.yul\":10922:11144   */\n      swap3\n      swap2\n      pop\n      pop\n      jump\t// out\n        /* \"#utility.yul\":11150:11885   */\n    tag_49:\n        /* \"#utility.yul\":11367:11371   */\n      0x00\n        /* \"#utility.yul\":11405:11408   */\n      0x80\n        /* \"#utility.yul\":11394:11403   */\n      dup3\n        /* \"#utility.yul\":11390:11409   */\n      add\n        /* \"#utility.yul\":11382:11409   */\n      swap1\n      pop\n        /* \"#utility.yul\":11455:11464   */\n      dup2\n        /* \"#utility.yul\":11449:11453   */\n      dup2\n        /* \"#utility.yul\":11445:11465   */\n      sub\n        /* \"#utility.yul\":11441:11442   */\n      0x00\n        /* \"#utility.yul\":11430:11439   */\n      dup4\n        /* \"#utility.yul\":11426:11443   */\n      add\n        /* \"#utility.yul\":11419:11466   */\n      mstore\n        /* \"#utility.yul\":11483:11561   */\n      tag_322\n        /* \"#utility.yul\":11556:11560   */\n      dup2\n        /* \"#utility.yul\":11547:11553   */\n      dup8\n        /* \"#utility.yul\":11483:11561   */\n      tag_156\n      jump\t// in\n    tag_322:\n        /* \"#utility.yul\":11475:11561   */\n      swap1\n      pop\n        /* \"#utility.yul\":11608:11617   */\n      dup2\n        /* \"#utility.yul\":11602:11606   */\n      dup2\n        /* \"#utility.yul\":11598:11618   */\n      sub\n        /* \"#utility.yul\":11593:11595   */\n      0x20\n        /* \"#utility.yul\":11582:11591   */\n      dup4\n        /* \"#utility.yul\":11578:11596   */\n      add\n        /* \"#utility.yul\":11571:11619   */\n      mstore\n        /* \"#utility.yul\":11636:11714   */\n      tag_323\n        /* \"#utility.yul\":11709:11713   */\n      dup2\n        /* \"#utility.yul\":11700:11706   */\n      dup7\n        /* \"#utility.yul\":11636:11714   */\n      tag_156\n      jump\t// in\n    tag_323:\n        /* \"#utility.yul\":11628:11714   */\n      swap1\n      pop\n        /* \"#utility.yul\":11724:11796   */\n      tag_324\n        /* \"#utility.yul\":11792:11794   */\n      0x40\n        /* \"#utility.yul\":11781:11790   */\n      dup4\n        /* \"#utility.yul\":11777:11795   */\n      add\n        /* \"#utility.yul\":11768:11774   */\n      dup6\n        /* \"#utility.yul\":11724:11796   */\n      tag_176\n      jump\t// in\n    tag_324:\n        /* \"#utility.yul\":11806:11878   */\n      tag_325\n        /* \"#utility.yul\":11874:11876   */\n      0x60\n        /* \"#utility.yul\":11863:11872   */\n      dup4\n        /* \"#utility.yul\":11859:11877   */\n      add\n        /* \"#utility.yul\":11850:11856   */\n      dup5\n        /* \"#utility.yul\":11806:11878   */\n      tag_175\n      jump\t// in\n    tag_325:\n        /* \"#utility.yul\":11150:11885   */\n      swap6\n      swap5\n      pop\n      pop\n      pop\n      pop\n      pop\n      jump\t// out\n        /* \"#utility.yul\":11891:12071   */\n    tag_180:\n        /* \"#utility.yul\":11939:12016   */\n      0x4e487b7100000000000000000000000000000000000000000000000000000000\n        /* \"#utility.yul\":11936:11937   */\n      0x00\n        /* \"#utility.yul\":11929:12017   */\n      mstore\n        /* \"#utility.yul\":12036:12040   */\n      0x22\n        /* \"#utility.yul\":12033:12034   */\n      0x04\n        /* \"#utility.yul\":12026:12041   */\n      mstore\n        /* \"#utility.yul\":12060:12064   */\n      0x24\n        /* \"#utility.yul\":12057:12058   */\n      0x00\n        /* \"#utility.yul\":12050:12065   */\n      revert\n        /* \"#utility.yul\":12077:12397   */\n    tag_53:\n        /* \"#utility.yul\":12121:12127   */\n      0x00\n        /* \"#utility.yul\":12158:12159   */\n      0x02\n        /* \"#utility.yul\":12152:12156   */\n      dup3\n        /* \"#utility.yul\":12148:12160   */\n      div\n        /* \"#utility.yul\":12138:12160   */\n      swap1\n      pop\n        /* \"#utility.yul\":12205:12206   */\n      0x01\n        /* \"#utility.yul\":12199:12203   */\n      dup3\n        /* \"#utility.yul\":12195:12207   */\n      and\n        /* \"#utility.yul\":12226:12244   */\n      dup1\n        /* \"#utility.yul\":12216:12297   */\n      tag_328\n      jumpi\n        /* \"#utility.yul\":12282:12286   */\n      0x7f\n        /* \"#utility.yul\":12274:12280   */\n      dup3\n        /* \"#utility.yul\":12270:12287   */\n      and\n        /* \"#utility.yul\":12260:12287   */\n      swap2\n      pop\n        /* \"#utility.yul\":12216:12297   */\n    tag_328:\n        /* \"#utility.yul\":12344:12346   */\n      0x20\n        /* \"#utility.yul\":12336:12342   */\n      dup3\n        /* \"#utility.yul\":12333:12347   */\n      lt\n        /* \"#utility.yul\":12313:12331   */\n      dup2\n        /* \"#utility.yul\":12310:12348   */\n      sub\n        /* \"#utility.yul\":12307:12391   */\n      tag_329\n      jumpi\n        /* \"#utility.yul\":12363:12381   */\n      tag_330\n      tag_180\n      jump\t// in\n    tag_330:\n        /* \"#utility.yul\":12307:12391   */\n    tag_329:\n        /* \"#utility.yul\":12128:12397   */\n      pop\n        /* \"#utility.yul\":12077:12397   */\n      swap2\n      swap1\n      pop\n      jump\t// out\n        /* \"#utility.yul\":12403:12551   */\n    tag_181:\n        /* \"#utility.yul\":12505:12516   */\n      0x00\n        /* \"#utility.yul\":12542:12545   */\n      dup2\n        /* \"#utility.yul\":12527:12545   */\n      swap1\n      pop\n        /* \"#utility.yul\":12403:12551   */\n      swap3\n      swap2\n      pop\n      pop\n      jump\t// out\n        /* \"#utility.yul\":12557:12947   */\n    tag_182:\n        /* \"#utility.yul\":12663:12666   */\n      0x00\n        /* \"#utility.yul\":12691:12730   */\n      tag_333\n        /* \"#utility.yul\":12724:12729   */\n      dup3\n        /* \"#utility.yul\":12691:12730   */\n      tag_152\n      jump\t// in\n    tag_333:\n        /* \"#utility.yul\":12746:12835   */\n      tag_334\n        /* \"#utility.yul\":12828:12834   */\n      dup2\n        /* \"#utility.yul\":12823:12826   */\n      dup6\n        /* \"#utility.yul\":12746:12835   */\n      tag_181\n      jump\t// in\n    tag_334:\n        /* \"#utility.yul\":12739:12835   */\n      swap4\n      pop\n        /* \"#utility.yul\":12844:12909   */\n      tag_335\n        /* \"#utility.yul\":12902:12908   */\n      dup2\n        /* \"#utility.yul\":12897:12900   */\n      dup6\n        /* \"#utility.yul\":12890:12894   */\n      0x20\n        /* \"#utility.yul\":12883:12888   */\n      dup7\n        /* \"#utility.yul\":12879:12895   */\n      add\n        /* \"#utility.yul\":12844:12909   */\n      tag_154\n      jump\t// in\n    tag_335:\n        /* \"#utility.yul\":12934:12940   */\n      dup1\n        /* \"#utility.yul\":12929:12932   */\n      dup5\n        /* \"#utility.yul\":12925:12941   */\n      add\n        /* \"#utility.yul\":12918:12941   */\n      swap2\n      pop\n        /* \"#utility.yul\":12667:12947   */\n      pop\n        /* \"#utility.yul\":12557:12947   */\n      swap3\n      swap2\n      pop\n      pop\n      jump\t// out\n        /* \"#utility.yul\":12953:13228   */\n    tag_60:\n        /* \"#utility.yul\":13085:13088   */\n      0x00\n        /* \"#utility.yul\":13107:13202   */\n      tag_337\n        /* \"#utility.yul\":13198:13201   */\n      dup3\n        /* \"#utility.yul\":13189:13195   */\n      dup5\n        /* \"#utility.yul\":13107:13202   */\n      tag_182\n      jump\t// in\n    tag_337:\n        /* \"#utility.yul\":13100:13202   */\n      swap2\n      pop\n        /* \"#utility.yul\":13219:13222   */\n      dup2\n        /* \"#utility.yul\":13212:13222   */\n      swap1\n      pop\n        /* \"#utility.yul\":12953:13228   */\n      swap3\n      swap2\n      pop\n      pop\n      jump\t// out\n        /* \"#utility.yul\":13234:13410   */\n    tag_183:\n        /* \"#utility.yul\":13374:13402   */\n      0x50726f63657373696e6720616c72656164792075706461746564000000000000\n        /* \"#utility.yul\":13370:13371   */\n      0x00\n        /* \"#utility.yul\":13362:13368   */\n      dup3\n        /* \"#utility.yul\":13358:13372   */\n      add\n        /* \"#utility.yul\":13351:13403   */\n      mstore\n        /* \"#utility.yul\":13234:13410   */\n      pop\n      jump\t// out\n        /* \"#utility.yul\":13416:13782   */\n    tag_184:\n        /* \"#utility.yul\":13558:13561   */\n      0x00\n        /* \"#utility.yul\":13579:13646   */\n      tag_340\n        /* \"#utility.yul\":13643:13645   */\n      0x1a\n        /* \"#utility.yul\":13638:13641   */\n      dup4\n        /* \"#utility.yul\":13579:13646   */\n      tag_153\n      jump\t// in\n    tag_340:\n        /* \"#utility.yul\":13572:13646   */\n      swap2\n      pop\n        /* \"#utility.yul\":13655:13748   */\n      tag_341\n        /* \"#utility.yul\":13744:13747   */\n      dup3\n        /* \"#utility.yul\":13655:13748   */\n      tag_183\n      jump\t// in\n    tag_341:\n        /* \"#utility.yul\":13773:13775   */\n      0x20\n        /* \"#utility.yul\":13768:13771   */\n      dup3\n        /* \"#utility.yul\":13764:13776   */\n      add\n        /* \"#utility.yul\":13757:13776   */\n      swap1\n      pop\n        /* \"#utility.yul\":13416:13782   */\n      swap2\n      swap1\n      pop\n      jump\t// out\n        /* \"#utility.yul\":13788:14207   */\n    tag_64:\n        /* \"#utility.yul\":13954:13958   */\n      0x00\n        /* \"#utility.yul\":13992:13994   */\n      0x20\n        /* \"#utility.yul\":13981:13990   */\n      dup3\n        /* \"#utility.yul\":13977:13995   */\n      add\n        /* \"#utility.yul\":13969:13995   */\n      swap1\n      pop\n        /* \"#utility.yul\":14041:14050   */\n      dup2\n        /* \"#utility.yul\":14035:14039   */\n      dup2\n        /* \"#utility.yul\":14031:14051   */\n      sub\n        /* \"#utility.yul\":14027:14028   */\n      0x00\n        /* \"#utility.yul\":14016:14025   */\n      dup4\n        /* \"#utility.yul\":14012:14029   */\n      add\n        /* \"#utility.yul\":14005:14052   */\n      mstore\n        /* \"#utility.yul\":14069:14200   */\n      tag_343\n        /* \"#utility.yul\":14195:14199   */\n      dup2\n        /* \"#utility.yul\":14069:14200   */\n      tag_184\n      jump\t// in\n    tag_343:\n        /* \"#utility.yul\":14061:14200   */\n      swap1\n      pop\n        /* \"#utility.yul\":13788:14207   */\n      swap2\n      swap1\n      pop\n      jump\t// out\n        /* \"#utility.yul\":14213:14335   */\n    tag_185:\n        /* \"#utility.yul\":14286:14310   */\n      tag_345\n        /* \"#utility.yul\":14304:14309   */\n      dup2\n        /* \"#utility.yul\":14286:14310   */\n      tag_174\n      jump\t// in\n    tag_345:\n        /* \"#utility.yul\":14279:14284   */\n      dup2\n        /* \"#utility.yul\":14276:14311   */\n      eq\n        /* \"#utility.yul\":14266:14329   */\n      tag_346\n      jumpi\n        /* \"#utility.yul\":14325:14326   */\n      0x00\n        /* \"#utility.yul\":14322:14323   */\n      dup1\n        /* \"#utility.yul\":14315:14327   */\n      revert\n        /* \"#utility.yul\":14266:14329   */\n    tag_346:\n        /* \"#utility.yul\":14213:14335   */\n      pop\n      jump\t// out\n        /* \"#utility.yul\":14341:14484   */\n    tag_186:\n        /* \"#utility.yul\":14398:14403   */\n      0x00\n        /* \"#utility.yul\":14429:14435   */\n      dup2\n        /* \"#utility.yul\":14423:14436   */\n      mload\n        /* \"#utility.yul\":14414:14436   */\n      swap1\n      pop\n        /* \"#utility.yul\":14445:14478   */\n      tag_348\n        /* \"#utility.yul\":14472:14477   */\n      dup2\n        /* \"#utility.yul\":14445:14478   */\n      tag_185\n      jump\t// in\n    tag_348:\n        /* \"#utility.yul\":14341:14484   */\n      swap3\n      swap2\n      pop\n      pop\n      jump\t// out\n        /* \"#utility.yul\":14490:14841   */\n    tag_69:\n        /* \"#utility.yul\":14560:14566   */\n      0x00\n        /* \"#utility.yul\":14609:14611   */\n      0x20\n        /* \"#utility.yul\":14597:14606   */\n      dup3\n        /* \"#utility.yul\":14588:14595   */\n      dup5\n        /* \"#utility.yul\":14584:14607   */\n      sub\n        /* \"#utility.yul\":14580:14612   */\n      slt\n        /* \"#utility.yul\":14577:14696   */\n      iszero\n      tag_350\n      jumpi\n        /* \"#utility.yul\":14615:14694   */\n      tag_351\n      tag_147\n      jump\t// in\n    tag_351:\n        /* \"#utility.yul\":14577:14696   */\n    tag_350:\n        /* \"#utility.yul\":14735:14736   */\n      0x00\n        /* \"#utility.yul\":14760:14824   */\n      tag_352\n        /* \"#utility.yul\":14816:14823   */\n      dup5\n        /* \"#utility.yul\":14807:14813   */\n      dup3\n        /* \"#utility.yul\":14796:14805   */\n      dup6\n        /* \"#utility.yul\":14792:14814   */\n      add\n        /* \"#utility.yul\":14760:14824   */\n      tag_186\n      jump\t// in\n    tag_352:\n        /* \"#utility.yul\":14750:14824   */\n      swap2\n      pop\n        /* \"#utility.yul\":14706:14834   */\n      pop\n        /* \"#utility.yul\":14490:14841   */\n      swap3\n      swap2\n      pop\n      pop\n      jump\t// out\n        /* \"#utility.yul\":14847:14988   */\n    tag_187:\n        /* \"#utility.yul\":14896:14900   */\n      0x00\n        /* \"#utility.yul\":14919:14922   */\n      dup2\n        /* \"#utility.yul\":14911:14922   */\n      swap1\n      pop\n        /* \"#utility.yul\":14942:14945   */\n      dup2\n        /* \"#utility.yul\":14939:14940   */\n      0x00\n        /* \"#utility.yul\":14932:14946   */\n      mstore\n        /* \"#utility.yul\":14976:14980   */\n      0x20\n        /* \"#utility.yul\":14973:14974   */\n      0x00\n        /* \"#utility.yul\":14963:14981   */\n      keccak256\n        /* \"#utility.yul\":14955:14981   */\n      swap1\n      pop\n        /* \"#utility.yul\":14847:14988   */\n      swap2\n      swap1\n      pop\n      jump\t// out\n        /* \"#utility.yul\":14994:15087   */\n    tag_188:\n        /* \"#utility.yul\":15031:15037   */\n      0x00\n        /* \"#utility.yul\":15078:15080   */\n      0x20\n        /* \"#utility.yul\":15073:15075   */\n      0x1f\n        /* \"#utility.yul\":15066:15071   */\n      dup4\n        /* \"#utility.yul\":15062:15076   */\n      add\n        /* \"#utility.yul\":15058:15081   */\n      div\n        /* \"#utility.yul\":15048:15081   */\n      swap1\n      pop\n        /* \"#utility.yul\":14994:15087   */\n      swap2\n      swap1\n      pop\n      jump\t// out\n        /* \"#utility.yul\":15093:15200   */\n    tag_189:\n        /* \"#utility.yul\":15137:15145   */\n      0x00\n        /* \"#utility.yul\":15187:15192   */\n      dup3\n        /* \"#utility.yul\":15181:15185   */\n      dup3\n        /* \"#utility.yul\":15177:15193   */\n      shl\n        /* \"#utility.yul\":15156:15193   */\n      swap1\n      pop\n        /* \"#utility.yul\":15093:15200   */\n      swap3\n      swap2\n      pop\n      pop\n      jump\t// out\n        /* \"#utility.yul\":15206:15599   */\n    tag_190:\n        /* \"#utility.yul\":15275:15281   */\n      0x00\n        /* \"#utility.yul\":15325:15326   */\n      0x08\n        /* \"#utility.yul\":15313:15323   */\n      dup4\n        /* \"#utility.yul\":15309:15327   */\n      mul\n        /* \"#utility.yul\":15348:15445   */\n      tag_357\n        /* \"#utility.yul\":15378:15444   */\n      0xffffffffffffffffffffffffffffffffffffffffffffffffffffffffffffffff\n        /* \"#utility.yul\":15367:15376   */\n      dup3\n        /* \"#utility.yul\":15348:15445   */\n      tag_189\n      jump\t// in\n    tag_357:\n        /* \"#utility.yul\":15466:15505   */\n      tag_358\n        /* \"#utility.yul\":15496:15504   */\n      dup7\n        /* \"#utility.yul\":15485:15494   */\n      dup4\n        /* \"#utility.yul\":15466:15505   */\n      tag_189\n      jump\t// in\n    tag_358:\n        /* \"#utility.yul\":15454:15505   */\n      swap6\n      pop\n        /* \"#utility.yul\":15538:15542   */\n      dup1\n        /* \"#utility.yul\":15534:15543   */\n      not\n        /* \"#utility.yul\":15527:15532   */\n      dup5\n        /* \"#utility.yul\":15523:15544   */\n      and\n        /* \"#utility.yul\":15514:15544   */\n      swap4\n      pop\n        /* \"#utility.yul\":15587:15591   */\n      dup1\n        /* \"#utility.yul\":15577:15585   */\n      dup7\n        /* \"#utility.yul\":15573:15592   */\n      and\n        /* \"#utility.yul\":15566:15571   */\n      dup5\n        /* \"#utility.yul\":15563:15593   */\n      or\n        /* \"#utility.yul\":15553:15593   */\n      swap3\n      pop\n        /* \"#utility.yul\":15282:15599   */\n      pop\n      pop\n        /* \"#utility.yul\":15206:15599   */\n      swap4\n      swap3\n      pop\n      pop\n      pop\n      jump\t// out\n        /* \"#utility.yul\":15605:15665   */\n    tag_191:\n        /* \"#utility.yul\":15633:15636   */\n      0x00\n        /* \"#utility.yul\":15654:15659   */\n      dup2\n        /* \"#utility.yul\":15647:15659   */\n      swap1\n      pop\n        /* \"#utility.yul\":15605:15665   */\n      swap2\n      swap1\n      pop\n      jump\t// out\n        /* \"#utility.yul\":15671:15813   */\n    tag_192:\n        /* \"#utility.yul\":15721:15730   */\n      0x00\n        /* \"#utility.yul\":15754:15807   */\n      tag_361\n        /* \"#utility.yul\":15772:15806   */\n      tag_362\n        /* \"#utility.yul\":15781:15805   */\n      tag_363\n        /* \"#utility.yul\":15799:15804   */\n      dup5\n        /* \"#utility.yul\":15781:15805   */\n      tag_149\n      jump\t// in\n    tag_363:\n        /* \"#utility.yul\":15772:15806   */\n      tag_191\n      jump\t// in\n    tag_362:\n        /* \"#utility.yul\":15754:15807   */\n      tag_149\n      jump\t// in\n    tag_361:\n        /* \"#utility.yul\":15741:15807   */\n      swap1\n      pop\n        /* \"#utility.yul\":15671:15813   */\n      swap2\n      swap1\n      pop\n      jump\t// out\n        /* \"#utility.yul\":15819:15894   */\n    tag_193:\n        /* \"#utility.yul\":15862:15865   */\n      0x00\n        /* \"#utility.yul\":15883:15888   */\n      dup2\n        /* \"#utility.yul\":15876:15888   */\n      swap1\n      pop\n        /* \"#utility.yul\":15819:15894   */\n      swap2\n      swap1\n      pop\n      jump\t// out\n        /* \"#utility.yul\":15900:16169   */\n    tag_194:\n        /* \"#utility.yul\":16010:16049   */\n      tag_366\n        /* \"#utility.yul\":16041:16048   */\n      dup4\n        /* \"#utility.yul\":16010:16049   */\n      tag_192\n      jump\t// in\n    tag_366:\n        /* \"#utility.yul\":16071:16162   */\n      tag_367\n        /* \"#utility.yul\":16120:16161   */\n      tag_368\n        /* \"#utility.yul\":16144:16160   */\n      dup3\n        /* \"#utility.yul\":16120:16161   */\n      tag_193\n      jump\t// in\n    tag_368:\n        /* \"#utility.yul\":16112:16118   */\n      dup5\n        /* \"#utility.yul\":16105:16109   */\n      dup5\n        /* \"#utility.yul\":16099:16110   */\n      sload\n        /* \"#utility.yul\":16071:16162   */\n      tag_190\n      jump\t// in\n    tag_367:\n        /* \"#utility.yul\":16065:16069   */\n      dup3\n        /* \"#utility.yul\":16058:16163   */\n      sstore\n        /* \"#utility.yul\":15976:16169   */\n      pop\n        /* \"#utility.yul\":15900:16169   */\n      pop\n      pop\n      pop\n      jump\t// out\n        /* \"#utility.yul\":16175:16248   */\n    tag_195:\n        /* \"#utility.yul\":16220:16223   */\n      0x00\n        /* \"#utility.yul\":16175:16248   */\n      swap1\n      jump\t// out\n        /* \"#utility.yul\":16254:16443   */\n    tag_196:\n        /* \"#utility.yul\":16331:16363   */\n      tag_371\n      tag_195\n      jump\t// in\n    tag_371:\n        /* \"#utility.yul\":16372:16437   */\n      tag_372\n        /* \"#utility.yul\":16430:16436   */\n      dup2\n        /* \"#utility.yul\":16422:16428   */\n      dup5\n        /* \"#utility.yul\":16416:16420   */\n      dup5\n        /* \"#utility.yul\":16372:16437   */\n      tag_194\n      jump\t// in\n    tag_372:\n        /* \"#utility.yul\":16307:16443   */\n      pop\n        /* \"#utility.yul\":16254:16443   */\n      pop\n      pop\n      jump\t// out\n        /* \"#utility.yul\":16449:16635   */\n    tag_197:\n        /* \"#utility.yul\":16509:16629   */\n    tag_374:\n        /* \"#utility.yul\":16526:16529   */\n      dup2\n        /* \"#utility.yul\":16519:16524   */\n      dup2\n        /* \"#utility.yul\":16516:16530   */\n      lt\n        /* \"#utility.yul\":16509:16629   */\n      iszero\n      tag_376\n      jumpi\n        /* \"#utility.yul\":16580:16619   */\n      tag_377\n        /* \"#utility.yul\":16617:16618   */\n      0x00\n        /* \"#utility.yul\":16610:16615   */\n      dup3\n        /* \"#utility.yul\":16580:16619   */\n      tag_196\n      jump\t// in\n    tag_377:\n        /* \"#utility.yul\":16553:16554   */\n      0x01\n        /* \"#utility.yul\":16546:16551   */\n      dup2\n        /* \"#utility.yul\":16542:16555   */\n      add\n        /* \"#utility.yul\":16533:16555   */\n      swap1\n      pop\n        /* \"#utility.yul\":16509:16629   */\n      jump(tag_374)\n    tag_376:\n        /* \"#utility.yul\":16449:16635   */\n      pop\n      pop\n      jump\t// out\n        /* \"#utility.yul\":16641:17184   */\n    tag_198:\n        /* \"#utility.yul\":16742:16744   */\n      0x1f\n        /* \"#utility.yul\":16737:16740   */\n      dup3\n        /* \"#utility.yul\":16734:16745   */\n      gt\n        /* \"#utility.yul\":16731:17177   */\n      iszero\n      tag_379\n      jumpi\n        /* \"#utility.yul\":16776:16814   */\n      tag_380\n        /* \"#utility.yul\":16808:16813   */\n      dup2\n        /* \"#utility.yul\":16776:16814   */\n      tag_187\n      jump\t// in\n    tag_380:\n        /* \"#utility.yul\":16860:16889   */\n      tag_381\n        /* \"#utility.yul\":16878:16888   */\n      dup5\n        /* \"#utility.yul\":16860:16889   */\n      tag_188\n      jump\t// in\n    tag_381:\n        /* \"#utility.yul\":16850:16858   */\n      dup2\n        /* \"#utility.yul\":16846:16890   */\n      add\n        /* \"#utility.yul\":17043:17045   */\n      0x20\n        /* \"#utility.yul\":17031:17041   */\n      dup6\n        /* \"#utility.yul\":17028:17046   */\n      lt\n        /* \"#utility.yul\":17025:17074   */\n      iszero\n      tag_382\n      jumpi\n        /* \"#utility.yul\":17064:17072   */\n      dup2\n        /* \"#utility.yul\":17049:17072   */\n      swap1\n      pop\n        /* \"#utility.yul\":17025:17074   */\n    tag_382:\n        /* \"#utility.yul\":17087:17167   */\n      tag_383\n        /* \"#utility.yul\":17143:17165   */\n      tag_384\n        /* \"#utility.yul\":17161:17164   */\n      dup6\n        /* \"#utility.yul\":17143:17165   */\n      tag_188\n      jump\t// in\n    tag_384:\n        /* \"#utility.yul\":17133:17141   */\n      dup4\n        /* \"#utility.yul\":17129:17166   */\n      add\n        /* \"#utility.yul\":17116:17127   */\n      dup3\n        /* \"#utility.yul\":17087:17167   */\n      tag_197\n      jump\t// in\n    tag_383:\n        /* \"#utility.yul\":16746:17177   */\n      pop\n      pop\n        /* \"#utility.yul\":16731:17177   */\n    tag_379:\n        /* \"#utility.yul\":16641:17184   */\n      pop\n      pop\n      pop\n      jump\t// out\n        /* \"#utility.yul\":17190:17307   */\n    tag_199:\n        /* \"#utility.yul\":17244:17252   */\n      0x00\n        /* \"#utility.yul\":17294:17299   */\n      dup3\n        /* \"#utility.yul\":17288:17292   */\n      dup3\n        /* \"#utility.yul\":17284:17300   */\n      shr\n        /* \"#utility.yul\":17263:17300   */\n      swap1\n      pop\n        /* \"#utility.yul\":17190:17307   */\n      swap3\n      swap2\n      pop\n      pop\n      jump\t// out\n        /* \"#utility.yul\":17313:17482   */\n    tag_200:\n        /* \"#utility.yul\":17357:17363   */\n      0x00\n        /* \"#utility.yul\":17390:17441   */\n      tag_387\n        /* \"#utility.yul\":17438:17439   */\n      0x00\n        /* \"#utility.yul\":17434:17440   */\n      not\n        /* \"#utility.yul\":17426:17431   */\n      dup5\n        /* \"#utility.yul\":17423:17424   */\n      0x08\n        /* \"#utility.yul\":17419:17432   */\n      mul\n        /* \"#utility.yul\":17390:17441   */\n      tag_199\n      jump\t// in\n    tag_387:\n        /* \"#utility.yul\":17386:17442   */\n      not\n        /* \"#utility.yul\":17471:17475   */\n      dup1\n        /* \"#utility.yul\":17465:17469   */\n      dup4\n        /* \"#utility.yul\":17461:17476   */\n      and\n        /* \"#utility.yul\":17451:17476   */\n      swap2\n      pop\n        /* \"#utility.yul\":17364:17482   */\n      pop\n        /* \"#utility.yul\":17313:17482   */\n      swap3\n      swap2\n      pop\n      pop\n      jump\t// out\n        /* \"#utility.yul\":17487:17782   */\n    tag_201:\n        /* \"#utility.yul\":17563:17567   */\n      0x00\n        /* \"#utility.yul\":17709:17738   */\n      tag_389\n        /* \"#utility.yul\":17734:17737   */\n      dup4\n        /* \"#utility.yul\":17728:17732   */\n      dup4\n        /* \"#utility.yul\":17709:17738   */\n      tag_200\n      jump\t// in\n    tag_389:\n        /* \"#utility.yul\":17701:17738   */\n      swap2\n      pop\n        /* \"#utility.yul\":17771:17774   */\n      dup3\n        /* \"#utility.yul\":17768:17769   */\n      0x02\n        /* \"#utility.yul\":17764:17775   */\n      mul\n        /* \"#utility.yul\":17758:17762   */\n      dup3\n        /* \"#utility.yul\":17755:17776   */\n      or\n        /* \"#utility.yul\":17747:17776   */\n      swap1\n      pop\n        /* \"#utility.yul\":17487:17782   */\n      swap3\n      swap2\n      pop\n      pop\n      jump\t// out\n        /* \"#utility.yul\":17787:19182   */\n    tag_72:\n        /* \"#utility.yul\":17904:17941   */\n      tag_391\n        /* \"#utility.yul\":17937:17940   */\n      dup3\n        /* \"#utility.yul\":17904:17941   */\n      tag_152\n      jump\t// in\n    tag_391:\n        /* \"#utility.yul\":18006:18024   */\n      0xffffffffffffffff\n        /* \"#utility.yul\":17998:18004   */\n      dup2\n        /* \"#utility.yul\":17995:18025   */\n      gt\n        /* \"#utility.yul\":17992:18048   */\n      iszero\n      tag_392\n      jumpi\n        /* \"#utility.yul\":18028:18046   */\n      tag_393\n      tag_159\n      jump\t// in\n    tag_393:\n        /* \"#utility.yul\":17992:18048   */\n    tag_392:\n        /* \"#utility.yul\":18072:18110   */\n      tag_394\n        /* \"#utility.yul\":18104:18108   */\n      dup3\n        /* \"#utility.yul\":18098:18109   */\n      sload\n        /* \"#utility.yul\":18072:18110   */\n      tag_53\n      jump\t// in\n    tag_394:\n        /* \"#utility.yul\":18157:18224   */\n      tag_395\n        /* \"#utility.yul\":18217:18223   */\n      dup3\n        /* \"#utility.yul\":18209:18215   */\n      dup3\n        /* \"#utility.yul\":18203:18207   */\n      dup6\n        /* \"#utility.yul\":18157:18224   */\n      tag_198\n      jump\t// in\n    tag_395:\n        /* \"#utility.yul\":18251:18252   */\n      0x00\n        /* \"#utility.yul\":18275:18279   */\n      0x20\n        /* \"#utility.yul\":18262:18279   */\n      swap1\n      pop\n        /* \"#utility.yul\":18307:18309   */\n      0x1f\n        /* \"#utility.yul\":18299:18305   */\n      dup4\n        /* \"#utility.yul\":18296:18310   */\n      gt\n        /* \"#utility.yul\":18324:18325   */\n      0x01\n        /* \"#utility.yul\":18319:18937   */\n      dup2\n      eq\n      tag_397\n      jumpi\n        /* \"#utility.yul\":18981:18982   */\n      0x00\n        /* \"#utility.yul\":18998:19004   */\n      dup5\n        /* \"#utility.yul\":18995:19072   */\n      iszero\n      tag_398\n      jumpi\n        /* \"#utility.yul\":19047:19056   */\n      dup3\n        /* \"#utility.yul\":19042:19045   */\n      dup8\n        /* \"#utility.yul\":19038:19057   */\n      add\n        /* \"#utility.yul\":19032:19058   */\n      mload\n        /* \"#utility.yul\":19023:19058   */\n      swap1\n      pop\n        /* \"#utility.yul\":18995:19072   */\n    tag_398:\n        /* \"#utility.yul\":19098:19165   */\n      tag_399\n        /* \"#utility.yul\":19158:19164   */\n      dup6\n        /* \"#utility.yul\":19151:19156   */\n      dup3\n        /* \"#utility.yul\":19098:19165   */\n      tag_201\n      jump\t// in\n    tag_399:\n        /* \"#utility.yul\":19092:19096   */\n      dup7\n        /* \"#utility.yul\":19085:19166   */\n      sstore\n        /* \"#utility.yul\":18954:19176   */\n      pop\n        /* \"#utility.yul\":18289:19176   */\n      jump(tag_396)\n        /* \"#utility.yul\":18319:18937   */\n    tag_397:\n        /* \"#utility.yul\":18371:18375   */\n      0x1f\n        /* \"#utility.yul\":18367:18376   */\n      not\n        /* \"#utility.yul\":18359:18365   */\n      dup5\n        /* \"#utility.yul\":18355:18377   */\n      and\n        /* \"#utility.yul\":18405:18442   */\n      tag_400\n        /* \"#utility.yul\":18437:18441   */\n      dup7\n        /* \"#utility.yul\":18405:18442   */\n      tag_187\n      jump\t// in\n    tag_400:\n        /* \"#utility.yul\":18464:18465   */\n      0x00\n        /* \"#utility.yul\":18478:18686   */\n    tag_401:\n        /* \"#utility.yul\":18492:18499   */\n      dup3\n        /* \"#utility.yul\":18489:18490   */\n      dup2\n        /* \"#utility.yul\":18486:18500   */\n      lt\n        /* \"#utility.yul\":18478:18686   */\n      iszero\n      tag_403\n      jumpi\n        /* \"#utility.yul\":18571:18580   */\n      dup5\n        /* \"#utility.yul\":18566:18569   */\n      dup10\n        /* \"#utility.yul\":18562:18581   */\n      add\n        /* \"#utility.yul\":18556:18582   */\n      mload\n        /* \"#utility.yul\":18548:18554   */\n      dup3\n        /* \"#utility.yul\":18541:18583   */\n      sstore\n        /* \"#utility.yul\":18622:18623   */\n      0x01\n        /* \"#utility.yul\":18614:18620   */\n      dup3\n        /* \"#utility.yul\":18610:18624   */\n      add\n        /* \"#utility.yul\":18600:18624   */\n      swap2\n      pop\n        /* \"#utility.yul\":18669:18671   */\n      0x20\n        /* \"#utility.yul\":18658:18667   */\n      dup6\n        /* \"#utility.yul\":18654:18672   */\n      add\n        /* \"#utility.yul\":18641:18672   */\n      swap5\n      pop\n        /* \"#utility.yul\":18515:18519   */\n      0x20\n        /* \"#utility.yul\":18512:18513   */\n      dup2\n        /* \"#utility.yul\":18508:18520   */\n      add\n        /* \"#utility.yul\":18503:18520   */\n      swap1\n      pop\n        /* \"#utility.yul\":18478:18686   */\n      jump(tag_401)\n    tag_403:\n        /* \"#utility.yul\":18714:18720   */\n      dup7\n        /* \"#utility.yul\":18705:18712   */\n      dup4\n        /* \"#utility.yul\":18702:18721   */\n      lt\n        /* \"#utility.yul\":18699:18878   */\n      iszero\n      tag_404\n      jumpi\n        /* \"#utility.yul\":18772:18781   */\n      dup5\n        /* \"#utility.yul\":18767:18770   */\n      dup10\n        /* \"#utility.yul\":18763:18782   */\n      add\n        /* \"#utility.yul\":18757:18783   */\n      mload\n        /* \"#utility.yul\":18815:18863   */\n      tag_405\n        /* \"#utility.yul\":18857:18861   */\n      0x1f\n        /* \"#utility.yul\":18849:18855   */\n      dup10\n        /* \"#utility.yul\":18845:18862   */\n      and\n        /* \"#utility.yul\":18834:18843   */\n      dup3\n        /* \"#utility.yul\":18815:18863   */\n      tag_200\n      jump\t// in\n    tag_405:\n        /* \"#utility.yul\":18807:18813   */\n      dup4\n        /* \"#utility.yul\":18800:18864   */\n      sstore\n        /* \"#utility.yul\":18722:18878   */\n      pop\n        /* \"#utility.yul\":18699:18878   */\n    tag_404:\n        /* \"#utility.yul\":18924:18925   */\n      0x01\n        /* \"#utility.yul\":18920:18921   */\n      0x02\n        /* \"#utility.yul\":18912:18918   */\n      dup9\n        /* \"#utility.yul\":18908:18922   */\n      mul\n        /* \"#utility.yul\":18904:18926   */\n      add\n        /* \"#utility.yul\":18898:18902   */\n      dup9\n        /* \"#utility.yul\":18891:18927   */\n      sstore\n        /* \"#utility.yul\":18326:18937   */\n      pop\n      pop\n      pop\n        /* \"#utility.yul\":18289:19176   */\n    tag_396:\n      pop\n        /* \"#utility.yul\":17879:19182   */\n      pop\n      pop\n      pop\n        /* \"#utility.yul\":17787:19182   */\n      pop\n      pop\n      jump\t// out\n        /* \"#utility.yul\":19188:19611   */\n    tag_79:\n        /* \"#utility.yul\":19329:19333   */\n      0x00\n        /* \"#utility.yul\":19367:19369   */\n      0x40\n        /* \"#utility.yul\":19356:19365   */\n      dup3\n        /* \"#utility.yul\":19352:19370   */\n      add\n        /* \"#utility.yul\":19344:19370   */\n      swap1\n      pop\n        /* \"#utility.yul\":19416:19425   */\n      dup2\n        /* \"#utility.yul\":19410:19414   */\n      dup2\n        /* \"#utility.yul\":19406:19426   */\n      sub\n        /* \"#utility.yul\":19402:19403   */\n      0x00\n        /* \"#utility.yul\":19391:19400   */\n      dup4\n        /* \"#utility.yul\":19387:19404   */\n      add\n        /* \"#utility.yul\":19380:19427   */\n      mstore\n        /* \"#utility.yul\":19444:19522   */\n      tag_407\n        /* \"#utility.yul\":19517:19521   */\n      dup2\n        /* \"#utility.yul\":19508:19514   */\n      dup6\n        /* \"#utility.yul\":19444:19522   */\n      tag_156\n      jump\t// in\n    tag_407:\n        /* \"#utility.yul\":19436:19522   */\n      swap1\n      pop\n        /* \"#utility.yul\":19532:19604   */\n      tag_408\n        /* \"#utility.yul\":19600:19602   */\n      0x20\n        /* \"#utility.yul\":19589:19598   */\n      dup4\n        /* \"#utility.yul\":19585:19603   */\n      add\n        /* \"#utility.yul\":19576:19582   */\n      dup5\n        /* \"#utility.yul\":19532:19604   */\n      tag_175\n      jump\t// in\n    tag_408:\n        /* \"#utility.yul\":19188:19611   */\n      swap4\n      swap3\n      pop\n      pop\n      pop\n      jump\t// out\n        /* \"#utility.yul\":19617:19797   */\n    tag_202:\n        /* \"#utility.yul\":19757:19789   */\n      0x50726f63657373696e67206461746120646f6573206e6f742065786973740000\n        /* \"#utility.yul\":19753:19754   */\n      0x00\n        /* \"#utility.yul\":19745:19751   */\n      dup3\n        /* \"#utility.yul\":19741:19755   */\n      add\n        /* \"#utility.yul\":19734:19790   */\n      mstore\n        /* \"#utility.yul\":19617:19797   */\n      pop\n      jump\t// out\n        /* \"#utility.yul\":19803:20169   */\n    tag_203:\n        /* \"#utility.yul\":19945:19948   */\n      0x00\n        /* \"#utility.yul\":19966:20033   */\n      tag_411\n        /* \"#utility.yul\":20030:20032   */\n      0x1e\n        /* \"#utility.yul\":20025:20028   */\n      dup4\n        /* \"#utility.yul\":19966:20033   */\n      tag_153\n      jump\t// in\n    tag_411:\n        /* \"#utility.yul\":19959:20033   */\n      swap2\n      pop\n        /* \"#utility.yul\":20042:20135   */\n      tag_412\n        /* \"#utility.yul\":20131:20134   */\n      dup3\n        /* \"#utility.yul\":20042:20135   */\n      tag_202\n      jump\t// in\n    tag_412:\n        /* \"#utility.yul\":20160:20162   */\n      0x20\n        /* \"#utility.yul\":20155:20158   */\n      dup3\n        /* \"#utility.yul\":20151:20163   */\n      add\n        /* \"#utility.yul\":20144:20163   */\n      swap1\n      pop\n        /* \"#utility.yul\":19803:20169   */\n      swap2\n      swap1\n      pop\n      jump\t// out\n        /* \"#utility.yul\":20175:20594   */\n    tag_108:\n        /* \"#utility.yul\":20341:20345   */\n      0x00\n        /* \"#utility.yul\":20379:20381   */\n      0x20\n        /* \"#utility.yul\":20368:20377   */\n      dup3\n        /* \"#utility.yul\":20364:20382   */\n      add\n        /* \"#utility.yul\":20356:20382   */\n      swap1\n      pop\n        /* \"#utility.yul\":20428:20437   */\n      dup2\n        /* \"#utility.yul\":20422:20426   */\n      dup2\n        /* \"#utility.yul\":20418:20438   */\n      sub\n        /* \"#utility.yul\":20414:20415   */\n      0x00\n        /* \"#utility.yul\":20403:20412   */\n      dup4\n        /* \"#utility.yul\":20399:20416   */\n      add\n        /* \"#utility.yul\":20392:20439   */\n      mstore\n        /* \"#utility.yul\":20456:20587   */\n      tag_414\n        /* \"#utility.yul\":20582:20586   */\n      dup2\n        /* \"#utility.yul\":20456:20587   */\n      tag_203\n      jump\t// in\n    tag_414:\n        /* \"#utility.yul\":20448:20587   */\n      swap1\n      pop\n        /* \"#utility.yul\":20175:20594   */\n      swap2\n      swap1\n      pop\n      jump\t// out\n        /* \"#utility.yul\":20600:20679   */\n    tag_204:\n        /* \"#utility.yul\":20639:20646   */\n      0x00\n        /* \"#utility.yul\":20668:20673   */\n      dup2\n        /* \"#utility.yul\":20657:20673   */\n      swap1\n      pop\n        /* \"#utility.yul\":20600:20679   */\n      swap2\n      swap1\n      pop\n      jump\t// out\n        /* \"#utility.yul\":20685:20842   */\n    tag_205:\n        /* \"#utility.yul\":20790:20835   */\n      tag_417\n        /* \"#utility.yul\":20810:20834   */\n      tag_418\n        /* \"#utility.yul\":20828:20833   */\n      dup3\n        /* \"#utility.yul\":20810:20834   */\n      tag_149\n      jump\t// in\n    tag_418:\n        /* \"#utility.yul\":20790:20835   */\n      tag_204\n      jump\t// in\n    tag_417:\n        /* \"#utility.yul\":20785:20788   */\n      dup3\n        /* \"#utility.yul\":20778:20836   */\n      mstore\n        /* \"#utility.yul\":20685:20842   */\n      pop\n      pop\n      jump\t// out\n        /* \"#utility.yul\":20848:20927   */\n    tag_206:\n        /* \"#utility.yul\":20887:20894   */\n      0x00\n        /* \"#utility.yul\":20916:20921   */\n      dup2\n        /* \"#utility.yul\":20905:20921   */\n      swap1\n      pop\n        /* \"#utility.yul\":20848:20927   */\n      swap2\n      swap1\n      pop\n      jump\t// out\n        /* \"#utility.yul\":20933:21090   */\n    tag_207:\n        /* \"#utility.yul\":21038:21083   */\n      tag_421\n        /* \"#utility.yul\":21058:21082   */\n      tag_422\n        /* \"#utility.yul\":21076:21081   */\n      dup3\n        /* \"#utility.yul\":21058:21082   */\n      tag_174\n      jump\t// in\n    tag_422:\n        /* \"#utility.yul\":21038:21083   */\n      tag_206\n      jump\t// in\n    tag_421:\n        /* \"#utility.yul\":21033:21036   */\n      dup3\n        /* \"#utility.yul\":21026:21084   */\n      mstore\n        /* \"#utility.yul\":20933:21090   */\n      pop\n      pop\n      jump\t// out\n        /* \"#utility.yul\":21096:21973   */\n    tag_110:\n        /* \"#utility.yul\":21380:21383   */\n      0x00\n        /* \"#utility.yul\":21402:21497   */\n      tag_424\n        /* \"#utility.yul\":21493:21496   */\n      dup3\n        /* \"#utility.yul\":21484:21490   */\n      dup9\n        /* \"#utility.yul\":21402:21497   */\n      tag_182\n      jump\t// in\n    tag_424:\n        /* \"#utility.yul\":21395:21497   */\n      swap2\n      pop\n        /* \"#utility.yul\":21514:21609   */\n      tag_425\n        /* \"#utility.yul\":21605:21608   */\n      dup3\n        /* \"#utility.yul\":21596:21602   */\n      dup8\n        /* \"#utility.yul\":21514:21609   */\n      tag_182\n      jump\t// in\n    tag_425:\n        /* \"#utility.yul\":21507:21609   */\n      swap2\n      pop\n        /* \"#utility.yul\":21626:21721   */\n      tag_426\n        /* \"#utility.yul\":21717:21720   */\n      dup3\n        /* \"#utility.yul\":21708:21714   */\n      dup7\n        /* \"#utility.yul\":21626:21721   */\n      tag_182\n      jump\t// in\n    tag_426:\n        /* \"#utility.yul\":21619:21721   */\n      swap2\n      pop\n        /* \"#utility.yul\":21731:21806   */\n      tag_427\n        /* \"#utility.yul\":21802:21805   */\n      dup3\n        /* \"#utility.yul\":21793:21799   */\n      dup6\n        /* \"#utility.yul\":21731:21806   */\n      tag_205\n      jump\t// in\n    tag_427:\n        /* \"#utility.yul\":21831:21833   */\n      0x20\n        /* \"#utility.yul\":21826:21829   */\n      dup3\n        /* \"#utility.yul\":21822:21834   */\n      add\n        /* \"#utility.yul\":21815:21834   */\n      swap2\n      pop\n        /* \"#utility.yul\":21844:21919   */\n      tag_428\n        /* \"#utility.yul\":21915:21918   */\n      dup3\n        /* \"#utility.yul\":21906:21912   */\n      dup5\n        /* \"#utility.yul\":21844:21919   */\n      tag_207\n      jump\t// in\n    tag_428:\n        /* \"#utility.yul\":21944:21946   */\n      0x20\n        /* \"#utility.yul\":21939:21942   */\n      dup3\n        /* \"#utility.yul\":21935:21947   */\n      add\n        /* \"#utility.yul\":21928:21947   */\n      swap2\n      pop\n        /* \"#utility.yul\":21964:21967   */\n      dup2\n        /* \"#utility.yul\":21957:21967   */\n      swap1\n      pop\n        /* \"#utility.yul\":21096:21973   */\n      swap7\n      swap6\n      pop\n      pop\n      pop\n      pop\n      pop\n      pop\n      jump\t// out\n\n    auxdata: 0xa2646970667358221220b596494c3933a7b7effde1d83a2d1e25edaf5f75ea486cae6a91f0419307c18a64736f6c634300081a0033\n}\n",
				"bytecode": {
					"linkReferences": {},
					"object": "608060405234801561000f575f80fd5b5060405161186d38038061186d83398181016040528101906100319190610115565b8060025f6101000a81548173ffffffffffffffffffffffffffffffffffffffff021916908373ffffffffffffffffffffffffffffffffffffffff1602179055508060035f6101000a81548173ffffffffffffffffffffffffffffffffffffffff021916908373ffffffffffffffffffffffffffffffffffffffff16021790555050610140565b5f80fd5b5f73ffffffffffffffffffffffffffffffffffffffff82169050919050565b5f6100e4826100bb565b9050919050565b6100f4816100da565b81146100fe575f80fd5b50565b5f8151905061010f816100eb565b92915050565b5f6020828403121561012a576101296100b7565b5b5f61013784828501610101565b91505092915050565b6117208061014d5f395ff3fe608060405234801561000f575f80fd5b5060043610610086575f3560e01c80638351a2b3116100595780638351a2b31461012457806394c158d914610158578063bb4d761114610176578063f19ac0d51461019457610086565b8063235ccca11461008a57806346185dc8146100ba5780634e5365bc146100d657806353adab30146100f4575b5f80fd5b6100a4600480360381019061009f9190610c8f565b6101c7565b6040516100b19190610d2a565b60405180910390f35b6100d460048036038101906100cf9190610e76565b61026d565b005b6100de61048f565b6040516100eb919061101d565b60405180910390f35b61010e6004803603810190610109919061103d565b610563565b60405161011b919061109c565b60405180910390f35b61013e6004803603810190610139919061103d565b6107e2565b60405161014f9594939291906110c4565b60405180910390f35b6101606109bd565b60405161016d9190611169565b60405180910390f35b61017e6109e2565b60405161018b9190611182565b60405180910390f35b6101ae60048036038101906101a9919061103d565b6109ee565b6040516101be949392919061119b565b60405180910390f35b600181815481106101d6575f80fd5b905f5260205f20015f9150905080546101ee90611219565b80601f016020809104026020016040519081016040528092919081815260200182805461021a90611219565b80156102655780601f1061023c57610100808354040283529160200191610265565b820191905f5260205f20905b81548152906001019060200180831161024857829003601f168201915b505050505081565b5f808460405161027d9190611283565b90815260200160405180910390205f01805461029890611219565b9050146102da576040517f08c379a00000000000000000000000000000000000000000000000000000000081526004016102d1906112e3565b60405180910390fd5b5f60035f9054906101000a900473ffffffffffffffffffffffffffffffffffffffff1673ffffffffffffffffffffffffffffffffffffffff166388cb968e856040518263ffffffff1660e01b81526004016103359190610d2a565b602060405180830381865afa158015610350573d5f803e3d5ffd5b505050506040513d601f19601f82011682018060405250810190610374919061132b565b90506040518060a00160405280858152602001848152602001838152602001428152602001828152505f856040516103ac9190611283565b90815260200160405180910390205f820151815f0190816103cd91906114f3565b5060208201518160010190816103e391906114f3565b5060408201518160020190816103f991906114f3565b506060820151816003015560808201518160040155905050600184908060018154018082558091505060019003905f5260205f20015f90919091909150908161044291906114f3565b505f61044d85610563565b90507fc9945697c655af0b805a409f564fee17b5e60728ee2f9a821d3ec31b2aea6c0585826040516104809291906115c2565b60405180910390a15050505050565b60606001805480602002602001604051908101604052809291908181526020015f905b8282101561055a578382905f5260205f200180546104cf90611219565b80601f01602080910402602001604051908101604052809291908181526020018280546104fb90611219565b80156105465780601f1061051d57610100808354040283529160200191610546565b820191905f5260205f20905b81548152906001019060200180831161052957829003601f168201915b5050505050815260200190600101906104b2565b50505050905090565b5f805f836040516105749190611283565b90815260200160405180910390206040518060a00160405290815f8201805461059c90611219565b80601f01602080910402602001604051908101604052809291908181526020018280546105c890611219565b80156106135780601f106105ea57610100808354040283529160200191610613565b820191905f5260205f20905b8154815290600101906020018083116105f657829003601f168201915b5050505050815260200160018201805461062c90611219565b80601f016020809104026020016040519081016040528092919081815260200182805461065890611219565b80156106a35780601f1061067a576101008083540402835291602001916106a3565b820191905f5260205f20905b81548152906001019060200180831161068657829003601f168201915b505050505081526020016002820180546106bc90611219565b80601f01602080910402602001604051908101604052809291908181526020018280546106e890611219565b80156107335780601f1061070a57610100808354040283529160200191610733565b820191905f5260205f20905b81548152906001019060200180831161071657829003601f168201915b505050505081526020016003820154815260200160048201548152505090505f815f01515111610798576040517f08c379a000000000000000000000000000000000000000000000000000000000815260040161078f9061163a565b60405180910390fd5b805f015181602001518260400151836060015184608001516040516020016107c4959493929190611698565b60405160208183030381529060405280519060200120915050919050565b5f818051602081018201805184825260208301602085012081835280955050505050505f91509050805f01805461081890611219565b80601f016020809104026020016040519081016040528092919081815260200182805461084490611219565b801561088f5780601f106108665761010080835404028352916020019161088f565b820191905f5260205f20905b81548152906001019060200180831161087257829003601f168201915b5050505050908060010180546108a490611219565b80601f01602080910402602001604051908101604052809291908181526020018280546108d090611219565b801561091b5780601f106108f25761010080835404028352916020019161091b565b820191905f5260205f20905b8154815290600101906020018083116108fe57829003601f168201915b50505050509080600201805461093090611219565b80601f016020809104026020016040519081016040528092919081815260200182805461095c90611219565b80156109a75780601f1061097e576101008083540402835291602001916109a7565b820191905f5260205f20905b81548152906001019060200180831161098a57829003601f168201915b5050505050908060030154908060040154905085565b60025f9054906101000a900473ffffffffffffffffffffffffffffffffffffffff1681565b5f600180549050905090565b6060805f805f8086604051610a039190611283565b90815260200160405180910390206040518060a00160405290815f82018054610a2b90611219565b80601f0160208091040260200160405190810160405280929190818152602001828054610a5790611219565b8015610aa25780601f10610a7957610100808354040283529160200191610aa2565b820191905f5260205f20905b815481529060010190602001808311610a8557829003601f168201915b50505050508152602001600182018054610abb90611219565b80601f0160208091040260200160405190810160405280929190818152602001828054610ae790611219565b8015610b325780601f10610b0957610100808354040283529160200191610b32565b820191905f5260205f20905b815481529060010190602001808311610b1557829003601f168201915b50505050508152602001600282018054610b4b90611219565b80601f0160208091040260200160405190810160405280929190818152602001828054610b7790611219565b8015610bc25780601f10610b9957610100808354040283529160200191610bc2565b820191905f5260205f20905b815481529060010190602001808311610ba557829003601f168201915b505050505081526020016003820154815260200160048201548152505090505f815f01515111610c27576040517f08c379a0000000000000000000000000000000000000000000000000000000008152600401610c1e9061163a565b60405180910390fd5b80602001518160400151826060015183608001519450945094509450509193509193565b5f604051905090565b5f80fd5b5f80fd5b5f819050919050565b610c6e81610c5c565b8114610c78575f80fd5b50565b5f81359050610c8981610c65565b92915050565b5f60208284031215610ca457610ca3610c54565b5b5f610cb184828501610c7b565b91505092915050565b5f81519050919050565b5f82825260208201905092915050565b8281835e5f83830152505050565b5f601f19601f8301169050919050565b5f610cfc82610cba565b610d068185610cc4565b9350610d16818560208601610cd4565b610d1f81610ce2565b840191505092915050565b5f6020820190508181035f830152610d428184610cf2565b905092915050565b5f80fd5b5f80fd5b7f4e487b71000000000000000000000000000000000000000000000000000000005f52604160045260245ffd5b610d8882610ce2565b810181811067ffffffffffffffff82111715610da757610da6610d52565b5b80604052505050565b5f610db9610c4b565b9050610dc58282610d7f565b919050565b5f67ffffffffffffffff821115610de457610de3610d52565b5b610ded82610ce2565b9050602081019050919050565b828183375f83830152505050565b5f610e1a610e1584610dca565b610db0565b905082815260208101848484011115610e3657610e35610d4e565b5b610e41848285610dfa565b509392505050565b5f82601f830112610e5d57610e5c610d4a565b5b8135610e6d848260208601610e08565b91505092915050565b5f805f60608486031215610e8d57610e8c610c54565b5b5f84013567ffffffffffffffff811115610eaa57610ea9610c58565b5b610eb686828701610e49565b935050602084013567ffffffffffffffff811115610ed757610ed6610c58565b5b610ee386828701610e49565b925050604084013567ffffffffffffffff811115610f0457610f03610c58565b5b610f1086828701610e49565b9150509250925092565b5f81519050919050565b5f82825260208201905092915050565b5f819050602082019050919050565b5f82825260208201905092915050565b5f610f5d82610cba565b610f678185610f43565b9350610f77818560208601610cd4565b610f8081610ce2565b840191505092915050565b5f610f968383610f53565b905092915050565b5f602082019050919050565b5f610fb482610f1a565b610fbe8185610f24565b935083602082028501610fd085610f34565b805f5b8581101561100b5784840389528151610fec8582610f8b565b9450610ff783610f9e565b925060208a01995050600181019050610fd3565b50829750879550505050505092915050565b5f6020820190508181035f8301526110358184610faa565b905092915050565b5f6020828403121561105257611051610c54565b5b5f82013567ffffffffffffffff81111561106f5761106e610c58565b5b61107b84828501610e49565b91505092915050565b5f819050919050565b61109681611084565b82525050565b5f6020820190506110af5f83018461108d565b92915050565b6110be81610c5c565b82525050565b5f60a0820190508181035f8301526110dc8188610cf2565b905081810360208301526110f08187610cf2565b905081810360408301526111048186610cf2565b905061111360608301856110b5565b611120608083018461108d565b9695505050505050565b5f73ffffffffffffffffffffffffffffffffffffffff82169050919050565b5f6111538261112a565b9050919050565b61116381611149565b82525050565b5f60208201905061117c5f83018461115a565b92915050565b5f6020820190506111955f8301846110b5565b92915050565b5f6080820190508181035f8301526111b38187610cf2565b905081810360208301526111c78186610cf2565b90506111d660408301856110b5565b6111e3606083018461108d565b95945050505050565b7f4e487b71000000000000000000000000000000000000000000000000000000005f52602260045260245ffd5b5f600282049050600182168061123057607f821691505b602082108103611243576112426111ec565b5b50919050565b5f81905092915050565b5f61125d82610cba565b6112678185611249565b9350611277818560208601610cd4565b80840191505092915050565b5f61128e8284611253565b915081905092915050565b7f50726f63657373696e6720616c726561647920757064617465640000000000005f82015250565b5f6112cd601a83610cc4565b91506112d882611299565b602082019050919050565b5f6020820190508181035f8301526112fa816112c1565b9050919050565b61130a81611084565b8114611314575f80fd5b50565b5f8151905061132581611301565b92915050565b5f602082840312156113405761133f610c54565b5b5f61134d84828501611317565b91505092915050565b5f819050815f5260205f209050919050565b5f6020601f8301049050919050565b5f82821b905092915050565b5f600883026113b27fffffffffffffffffffffffffffffffffffffffffffffffffffffffffffffffff82611377565b6113bc8683611377565b95508019841693508086168417925050509392505050565b5f819050919050565b5f6113f76113f26113ed84610c5c565b6113d4565b610c5c565b9050919050565b5f819050919050565b611410836113dd565b61142461141c826113fe565b848454611383565b825550505050565b5f90565b61143861142c565b611443818484611407565b505050565b5b818110156114665761145b5f82611430565b600181019050611449565b5050565b601f8211156114ab5761147c81611356565b61148584611368565b81016020851015611494578190505b6114a86114a085611368565b830182611448565b50505b505050565b5f82821c905092915050565b5f6114cb5f19846008026114b0565b1980831691505092915050565b5f6114e383836114bc565b9150826002028217905092915050565b6114fc82610cba565b67ffffffffffffffff81111561151557611514610d52565b5b61151f8254611219565b61152a82828561146a565b5f60209050601f83116001811461155b575f8415611549578287015190505b61155385826114d8565b8655506115ba565b601f19841661156986611356565b5f5b828110156115905784890151825560018201915060208501945060208101905061156b565b868310156115ad57848901516115a9601f8916826114bc565b8355505b6001600288020188555050505b505050505050565b5f6040820190508181035f8301526115da8185610cf2565b90506115e9602083018461108d565b9392505050565b7f50726f63657373696e67206461746120646f6573206e6f7420657869737400005f82015250565b5f611624601e83610cc4565b915061162f826115f0565b602082019050919050565b5f6020820190508181035f83015261165181611618565b9050919050565b5f819050919050565b61167261166d82610c5c565b611658565b82525050565b5f819050919050565b61169261168d82611084565b611678565b82525050565b5f6116a38288611253565b91506116af8287611253565b91506116bb8286611253565b91506116c78285611661565b6020820191506116d78284611681565b602082019150819050969550505050505056fea2646970667358221220b596494c3933a7b7effde1d83a2d1e25edaf5f75ea486cae6a91f0419307c18a64736f6c634300081a0033",
					"opcodes": "PUSH1 0x80 PUSH1 0x40 MSTORE CALLVALUE DUP1 ISZERO PUSH2 0xF JUMPI PUSH0 DUP1 REVERT JUMPDEST POP PUSH1 0x40 MLOAD PUSH2 0x186D CODESIZE SUB DUP1 PUSH2 0x186D DUP4 CODECOPY DUP2 DUP2 ADD PUSH1 0x40 MSTORE DUP2 ADD SWAP1 PUSH2 0x31 SWAP2 SWAP1 PUSH2 0x115 JUMP JUMPDEST DUP1 PUSH1 0x2 PUSH0 PUSH2 0x100 EXP DUP2 SLOAD DUP2 PUSH20 0xFFFFFFFFFFFFFFFFFFFFFFFFFFFFFFFFFFFFFFFF MUL NOT AND SWAP1 DUP4 PUSH20 0xFFFFFFFFFFFFFFFFFFFFFFFFFFFFFFFFFFFFFFFF AND MUL OR SWAP1 SSTORE POP DUP1 PUSH1 0x3 PUSH0 PUSH2 0x100 EXP DUP2 SLOAD DUP2 PUSH20 0xFFFFFFFFFFFFFFFFFFFFFFFFFFFFFFFFFFFFFFFF MUL NOT AND SWAP1 DUP4 PUSH20 0xFFFFFFFFFFFFFFFFFFFFFFFFFFFFFFFFFFFFFFFF AND MUL OR SWAP1 SSTORE POP POP PUSH2 0x140 JUMP JUMPDEST PUSH0 DUP1 REVERT JUMPDEST PUSH0 PUSH20 0xFFFFFFFFFFFFFFFFFFFFFFFFFFFFFFFFFFFFFFFF DUP3 AND SWAP1 POP SWAP2 SWAP1 POP JUMP JUMPDEST PUSH0 PUSH2 0xE4 DUP3 PUSH2 0xBB JUMP JUMPDEST SWAP1 POP SWAP2 SWAP1 POP JUMP JUMPDEST PUSH2 0xF4 DUP2 PUSH2 0xDA JUMP JUMPDEST DUP2 EQ PUSH2 0xFE JUMPI PUSH0 DUP1 REVERT JUMPDEST POP JUMP JUMPDEST PUSH0 DUP2 MLOAD SWAP1 POP PUSH2 0x10F DUP2 PUSH2 0xEB JUMP JUMPDEST SWAP3 SWAP2 POP POP JUMP JUMPDEST PUSH0 PUSH1 0x20 DUP3 DUP5 SUB SLT ISZERO PUSH2 0x12A JUMPI PUSH2 0x129 PUSH2 0xB7 JUMP JUMPDEST JUMPDEST PUSH0 PUSH2 0x137 DUP5 DUP3 DUP6 ADD PUSH2 0x101 JUMP JUMPDEST SWAP2 POP POP SWAP3 SWAP2 POP POP JUMP JUMPDEST PUSH2 0x1720 DUP1 PUSH2 0x14D PUSH0 CODECOPY PUSH0 RETURN INVALID PUSH1 0x80 PUSH1 0x40 MSTORE CALLVALUE DUP1 ISZERO PUSH2 0xF JUMPI PUSH0 DUP1 REVERT JUMPDEST POP PUSH1 0x4 CALLDATASIZE LT PUSH2 0x86 JUMPI PUSH0 CALLDATALOAD PUSH1 0xE0 SHR DUP1 PUSH4 0x8351A2B3 GT PUSH2 0x59 JUMPI DUP1 PUSH4 0x8351A2B3 EQ PUSH2 0x124 JUMPI DUP1 PUSH4 0x94C158D9 EQ PUSH2 0x158 JUMPI DUP1 PUSH4 0xBB4D7611 EQ PUSH2 0x176 JUMPI DUP1 PUSH4 0xF19AC0D5 EQ PUSH2 0x194 JUMPI PUSH2 0x86 JUMP JUMPDEST DUP1 PUSH4 0x235CCCA1 EQ PUSH2 0x8A JUMPI DUP1 PUSH4 0x46185DC8 EQ PUSH2 0xBA JUMPI DUP1 PUSH4 0x4E5365BC EQ PUSH2 0xD6 JUMPI DUP1 PUSH4 0x53ADAB30 EQ PUSH2 0xF4 JUMPI JUMPDEST PUSH0 DUP1 REVERT JUMPDEST PUSH2 0xA4 PUSH1 0x4 DUP1 CALLDATASIZE SUB DUP2 ADD SWAP1 PUSH2 0x9F SWAP2 SWAP1 PUSH2 0xC8F JUMP JUMPDEST PUSH2 0x1C7 JUMP JUMPDEST PUSH1 0x40 MLOAD PUSH2 0xB1 SWAP2 SWAP1 PUSH2 0xD2A JUMP JUMPDEST PUSH1 0x40 MLOAD DUP1 SWAP2 SUB SWAP1 RETURN JUMPDEST PUSH2 0xD4 PUSH1 0x4 DUP1 CALLDATASIZE SUB DUP2 ADD SWAP1 PUSH2 0xCF SWAP2 SWAP1 PUSH2 0xE76 JUMP JUMPDEST PUSH2 0x26D JUMP JUMPDEST STOP JUMPDEST PUSH2 0xDE PUSH2 0x48F JUMP JUMPDEST PUSH1 0x40 MLOAD PUSH2 0xEB SWAP2 SWAP1 PUSH2 0x101D JUMP JUMPDEST PUSH1 0x40 MLOAD DUP1 SWAP2 SUB SWAP1 RETURN JUMPDEST PUSH2 0x10E PUSH1 0x4 DUP1 CALLDATASIZE SUB DUP2 ADD SWAP1 PUSH2 0x109 SWAP2 SWAP1 PUSH2 0x103D JUMP JUMPDEST PUSH2 0x563 JUMP JUMPDEST PUSH1 0x40 MLOAD PUSH2 0x11B SWAP2 SWAP1 PUSH2 0x109C JUMP JUMPDEST PUSH1 0x40 MLOAD DUP1 SWAP2 SUB SWAP1 RETURN JUMPDEST PUSH2 0x13E PUSH1 0x4 DUP1 CALLDATASIZE SUB DUP2 ADD SWAP1 PUSH2 0x139 SWAP2 SWAP1 PUSH2 0x103D JUMP JUMPDEST PUSH2 0x7E2 JUMP JUMPDEST PUSH1 0x40 MLOAD PUSH2 0x14F SWAP6 SWAP5 SWAP4 SWAP3 SWAP2 SWAP1 PUSH2 0x10C4 JUMP JUMPDEST PUSH1 0x40 MLOAD DUP1 SWAP2 SUB SWAP1 RETURN JUMPDEST PUSH2 0x160 PUSH2 0x9BD JUMP JUMPDEST PUSH1 0x40 MLOAD PUSH2 0x16D SWAP2 SWAP1 PUSH2 0x1169 JUMP JUMPDEST PUSH1 0x40 MLOAD DUP1 SWAP2 SUB SWAP1 RETURN JUMPDEST PUSH2 0x17E PUSH2 0x9E2 JUMP JUMPDEST PUSH1 0x40 MLOAD PUSH2 0x18B SWAP2 SWAP1 PUSH2 0x1182 JUMP JUMPDEST PUSH1 0x40 MLOAD DUP1 SWAP2 SUB SWAP1 RETURN JUMPDEST PUSH2 0x1AE PUSH1 0x4 DUP1 CALLDATASIZE SUB DUP2 ADD SWAP1 PUSH2 0x1A9 SWAP2 SWAP1 PUSH2 0x103D JUMP JUMPDEST PUSH2 0x9EE JUMP JUMPDEST PUSH1 0x40 MLOAD PUSH2 0x1BE SWAP5 SWAP4 SWAP3 SWAP2 SWAP1 PUSH2 0x119B JUMP JUMPDEST PUSH1 0x40 MLOAD DUP1 SWAP2 SUB SWAP1 RETURN JUMPDEST PUSH1 0x1 DUP2 DUP2 SLOAD DUP2 LT PUSH2 0x1D6 JUMPI PUSH0 DUP1 REVERT JUMPDEST SWAP1 PUSH0 MSTORE PUSH1 0x20 PUSH0 KECCAK256 ADD PUSH0 SWAP2 POP SWAP1 POP DUP1 SLOAD PUSH2 0x1EE SWAP1 PUSH2 0x1219 JUMP JUMPDEST DUP1 PUSH1 0x1F ADD PUSH1 0x20 DUP1 SWAP2 DIV MUL PUSH1 0x20 ADD PUSH1 0x40 MLOAD SWAP1 DUP2 ADD PUSH1 0x40 MSTORE DUP1 SWAP3 SWAP2 SWAP1 DUP2 DUP2 MSTORE PUSH1 0x20 ADD DUP3 DUP1 SLOAD PUSH2 0x21A SWAP1 PUSH2 0x1219 JUMP JUMPDEST DUP1 ISZERO PUSH2 0x265 JUMPI DUP1 PUSH1 0x1F LT PUSH2 0x23C JUMPI PUSH2 0x100 DUP1 DUP4 SLOAD DIV MUL DUP4 MSTORE SWAP2 PUSH1 0x20 ADD SWAP2 PUSH2 0x265 JUMP JUMPDEST DUP3 ADD SWAP2 SWAP1 PUSH0 MSTORE PUSH1 0x20 PUSH0 KECCAK256 SWAP1 JUMPDEST DUP2 SLOAD DUP2 MSTORE SWAP1 PUSH1 0x1 ADD SWAP1 PUSH1 0x20 ADD DUP1 DUP4 GT PUSH2 0x248 JUMPI DUP3 SWAP1 SUB PUSH1 0x1F AND DUP3 ADD SWAP2 JUMPDEST POP POP POP POP POP DUP2 JUMP JUMPDEST PUSH0 DUP1 DUP5 PUSH1 0x40 MLOAD PUSH2 0x27D SWAP2 SWAP1 PUSH2 0x1283 JUMP JUMPDEST SWAP1 DUP2 MSTORE PUSH1 0x20 ADD PUSH1 0x40 MLOAD DUP1 SWAP2 SUB SWAP1 KECCAK256 PUSH0 ADD DUP1 SLOAD PUSH2 0x298 SWAP1 PUSH2 0x1219 JUMP JUMPDEST SWAP1 POP EQ PUSH2 0x2DA JUMPI PUSH1 0x40 MLOAD PUSH32 0x8C379A000000000000000000000000000000000000000000000000000000000 DUP2 MSTORE PUSH1 0x4 ADD PUSH2 0x2D1 SWAP1 PUSH2 0x12E3 JUMP JUMPDEST PUSH1 0x40 MLOAD DUP1 SWAP2 SUB SWAP1 REVERT JUMPDEST PUSH0 PUSH1 0x3 PUSH0 SWAP1 SLOAD SWAP1 PUSH2 0x100 EXP SWAP1 DIV PUSH20 0xFFFFFFFFFFFFFFFFFFFFFFFFFFFFFFFFFFFFFFFF AND PUSH20 0xFFFFFFFFFFFFFFFFFFFFFFFFFFFFFFFFFFFFFFFF AND PUSH4 0x88CB968E DUP6 PUSH1 0x40 MLOAD DUP3 PUSH4 0xFFFFFFFF AND PUSH1 0xE0 SHL DUP2 MSTORE PUSH1 0x4 ADD PUSH2 0x335 SWAP2 SWAP1 PUSH2 0xD2A JUMP JUMPDEST PUSH1 0x20 PUSH1 0x40 MLOAD DUP1 DUP4 SUB DUP2 DUP7 GAS STATICCALL ISZERO DUP1 ISZERO PUSH2 0x350 JUMPI RETURNDATASIZE PUSH0 DUP1 RETURNDATACOPY RETURNDATASIZE PUSH0 REVERT JUMPDEST POP POP POP POP PUSH1 0x40 MLOAD RETURNDATASIZE PUSH1 0x1F NOT PUSH1 0x1F DUP3 ADD AND DUP3 ADD DUP1 PUSH1 0x40 MSTORE POP DUP2 ADD SWAP1 PUSH2 0x374 SWAP2 SWAP1 PUSH2 0x132B JUMP JUMPDEST SWAP1 POP PUSH1 0x40 MLOAD DUP1 PUSH1 0xA0 ADD PUSH1 0x40 MSTORE DUP1 DUP6 DUP2 MSTORE PUSH1 0x20 ADD DUP5 DUP2 MSTORE PUSH1 0x20 ADD DUP4 DUP2 MSTORE PUSH1 0x20 ADD TIMESTAMP DUP2 MSTORE PUSH1 0x20 ADD DUP3 DUP2 MSTORE POP PUSH0 DUP6 PUSH1 0x40 MLOAD PUSH2 0x3AC SWAP2 SWAP1 PUSH2 0x1283 JUMP JUMPDEST SWAP1 DUP2 MSTORE PUSH1 0x20 ADD PUSH1 0x40 MLOAD DUP1 SWAP2 SUB SWAP1 KECCAK256 PUSH0 DUP3 ADD MLOAD DUP2 PUSH0 ADD SWAP1 DUP2 PUSH2 0x3CD SWAP2 SWAP1 PUSH2 0x14F3 JUMP JUMPDEST POP PUSH1 0x20 DUP3 ADD MLOAD DUP2 PUSH1 0x1 ADD SWAP1 DUP2 PUSH2 0x3E3 SWAP2 SWAP1 PUSH2 0x14F3 JUMP JUMPDEST POP PUSH1 0x40 DUP3 ADD MLOAD DUP2 PUSH1 0x2 ADD SWAP1 DUP2 PUSH2 0x3F9 SWAP2 SWAP1 PUSH2 0x14F3 JUMP JUMPDEST POP PUSH1 0x60 DUP3 ADD MLOAD DUP2 PUSH1 0x3 ADD SSTORE PUSH1 0x80 DUP3 ADD MLOAD DUP2 PUSH1 0x4 ADD SSTORE SWAP1 POP POP PUSH1 0x1 DUP5 SWAP1 DUP1 PUSH1 0x1 DUP2 SLOAD ADD DUP1 DUP3 SSTORE DUP1 SWAP2 POP POP PUSH1 0x1 SWAP1 SUB SWAP1 PUSH0 MSTORE PUSH1 0x20 PUSH0 KECCAK256 ADD PUSH0 SWAP1 SWAP2 SWAP1 SWAP2 SWAP1 SWAP2 POP SWAP1 DUP2 PUSH2 0x442 SWAP2 SWAP1 PUSH2 0x14F3 JUMP JUMPDEST POP PUSH0 PUSH2 0x44D DUP6 PUSH2 0x563 JUMP JUMPDEST SWAP1 POP PUSH32 0xC9945697C655AF0B805A409F564FEE17B5E60728EE2F9A821D3EC31B2AEA6C05 DUP6 DUP3 PUSH1 0x40 MLOAD PUSH2 0x480 SWAP3 SWAP2 SWAP1 PUSH2 0x15C2 JUMP JUMPDEST PUSH1 0x40 MLOAD DUP1 SWAP2 SUB SWAP1 LOG1 POP POP POP POP POP JUMP JUMPDEST PUSH1 0x60 PUSH1 0x1 DUP1 SLOAD DUP1 PUSH1 0x20 MUL PUSH1 0x20 ADD PUSH1 0x40 MLOAD SWAP1 DUP2 ADD PUSH1 0x40 MSTORE DUP1 SWAP3 SWAP2 SWAP1 DUP2 DUP2 MSTORE PUSH1 0x20 ADD PUSH0 SWAP1 JUMPDEST DUP3 DUP3 LT ISZERO PUSH2 0x55A JUMPI DUP4 DUP3 SWAP1 PUSH0 MSTORE PUSH1 0x20 PUSH0 KECCAK256 ADD DUP1 SLOAD PUSH2 0x4CF SWAP1 PUSH2 0x1219 JUMP JUMPDEST DUP1 PUSH1 0x1F ADD PUSH1 0x20 DUP1 SWAP2 DIV MUL PUSH1 0x20 ADD PUSH1 0x40 MLOAD SWAP1 DUP2 ADD PUSH1 0x40 MSTORE DUP1 SWAP3 SWAP2 SWAP1 DUP2 DUP2 MSTORE PUSH1 0x20 ADD DUP3 DUP1 SLOAD PUSH2 0x4FB SWAP1 PUSH2 0x1219 JUMP JUMPDEST DUP1 ISZERO PUSH2 0x546 JUMPI DUP1 PUSH1 0x1F LT PUSH2 0x51D JUMPI PUSH2 0x100 DUP1 DUP4 SLOAD DIV MUL DUP4 MSTORE SWAP2 PUSH1 0x20 ADD SWAP2 PUSH2 0x546 JUMP JUMPDEST DUP3 ADD SWAP2 SWAP1 PUSH0 MSTORE PUSH1 0x20 PUSH0 KECCAK256 SWAP1 JUMPDEST DUP2 SLOAD DUP2 MSTORE SWAP1 PUSH1 0x1 ADD SWAP1 PUSH1 0x20 ADD DUP1 DUP4 GT PUSH2 0x529 JUMPI DUP3 SWAP1 SUB PUSH1 0x1F AND DUP3 ADD SWAP2 JUMPDEST POP POP POP POP POP DUP2 MSTORE PUSH1 0x20 ADD SWAP1 PUSH1 0x1 ADD SWAP1 PUSH2 0x4B2 JUMP JUMPDEST POP POP POP POP SWAP1 POP SWAP1 JUMP JUMPDEST PUSH0 DUP1 PUSH0 DUP4 PUSH1 0x40 MLOAD PUSH2 0x574 SWAP2 SWAP1 PUSH2 0x1283 JUMP JUMPDEST SWAP1 DUP2 MSTORE PUSH1 0x20 ADD PUSH1 0x40 MLOAD DUP1 SWAP2 SUB SWAP1 KECCAK256 PUSH1 0x40 MLOAD DUP1 PUSH1 0xA0 ADD PUSH1 0x40 MSTORE SWAP1 DUP2 PUSH0 DUP3 ADD DUP1 SLOAD PUSH2 0x59C SWAP1 PUSH2 0x1219 JUMP JUMPDEST DUP1 PUSH1 0x1F ADD PUSH1 0x20 DUP1 SWAP2 DIV MUL PUSH1 0x20 ADD PUSH1 0x40 MLOAD SWAP1 DUP2 ADD PUSH1 0x40 MSTORE DUP1 SWAP3 SWAP2 SWAP1 DUP2 DUP2 MSTORE PUSH1 0x20 ADD DUP3 DUP1 SLOAD PUSH2 0x5C8 SWAP1 PUSH2 0x1219 JUMP JUMPDEST DUP1 ISZERO PUSH2 0x613 JUMPI DUP1 PUSH1 0x1F LT PUSH2 0x5EA JUMPI PUSH2 0x100 DUP1 DUP4 SLOAD DIV MUL DUP4 MSTORE SWAP2 PUSH1 0x20 ADD SWAP2 PUSH2 0x613 JUMP JUMPDEST DUP3 ADD SWAP2 SWAP1 PUSH0 MSTORE PUSH1 0x20 PUSH0 KECCAK256 SWAP1 JUMPDEST DUP2 SLOAD DUP2 MSTORE SWAP1 PUSH1 0x1 ADD SWAP1 PUSH1 0x20 ADD DUP1 DUP4 GT PUSH2 0x5F6 JUMPI DUP3 SWAP1 SUB PUSH1 0x1F AND DUP3 ADD SWAP2 JUMPDEST POP POP POP POP POP DUP2 MSTORE PUSH1 0x20 ADD PUSH1 0x1 DUP3 ADD DUP1 SLOAD PUSH2 0x62C SWAP1 PUSH2 0x1219 JUMP JUMPDEST DUP1 PUSH1 0x1F ADD PUSH1 0x20 DUP1 SWAP2 DIV MUL PUSH1 0x20 ADD PUSH1 0x40 MLOAD SWAP1 DUP2 ADD PUSH1 0x40 MSTORE DUP1 SWAP3 SWAP2 SWAP1 DUP2 DUP2 MSTORE PUSH1 0x20 ADD DUP3 DUP1 SLOAD PUSH2 0x658 SWAP1 PUSH2 0x1219 JUMP JUMPDEST DUP1 ISZERO PUSH2 0x6A3 JUMPI DUP1 PUSH1 0x1F LT PUSH2 0x67A JUMPI PUSH2 0x100 DUP1 DUP4 SLOAD DIV MUL DUP4 MSTORE SWAP2 PUSH1 0x20 ADD SWAP2 PUSH2 0x6A3 JUMP JUMPDEST DUP3 ADD SWAP2 SWAP1 PUSH0 MSTORE PUSH1 0x20 PUSH0 KECCAK256 SWAP1 JUMPDEST DUP2 SLOAD DUP2 MSTORE SWAP1 PUSH1 0x1 ADD SWAP1 PUSH1 0x20 ADD DUP1 DUP4 GT PUSH2 0x686 JUMPI DUP3 SWAP1 SUB PUSH1 0x1F AND DUP3 ADD SWAP2 JUMPDEST POP POP POP POP POP DUP2 MSTORE PUSH1 0x20 ADD PUSH1 0x2 DUP3 ADD DUP1 SLOAD PUSH2 0x6BC SWAP1 PUSH2 0x1219 JUMP JUMPDEST DUP1 PUSH1 0x1F ADD PUSH1 0x20 DUP1 SWAP2 DIV MUL PUSH1 0x20 ADD PUSH1 0x40 MLOAD SWAP1 DUP2 ADD PUSH1 0x40 MSTORE DUP1 SWAP3 SWAP2 SWAP1 DUP2 DUP2 MSTORE PUSH1 0x20 ADD DUP3 DUP1 SLOAD PUSH2 0x6E8 SWAP1 PUSH2 0x1219 JUMP JUMPDEST DUP1 ISZERO PUSH2 0x733 JUMPI DUP1 PUSH1 0x1F LT PUSH2 0x70A JUMPI PUSH2 0x100 DUP1 DUP4 SLOAD DIV MUL DUP4 MSTORE SWAP2 PUSH1 0x20 ADD SWAP2 PUSH2 0x733 JUMP JUMPDEST DUP3 ADD SWAP2 SWAP1 PUSH0 MSTORE PUSH1 0x20 PUSH0 KECCAK256 SWAP1 JUMPDEST DUP2 SLOAD DUP2 MSTORE SWAP1 PUSH1 0x1 ADD SWAP1 PUSH1 0x20 ADD DUP1 DUP4 GT PUSH2 0x716 JUMPI DUP3 SWAP1 SUB PUSH1 0x1F AND DUP3 ADD SWAP2 JUMPDEST POP POP POP POP POP DUP2 MSTORE PUSH1 0x20 ADD PUSH1 0x3 DUP3 ADD SLOAD DUP2 MSTORE PUSH1 0x20 ADD PUSH1 0x4 DUP3 ADD SLOAD DUP2 MSTORE POP POP SWAP1 POP PUSH0 DUP2 PUSH0 ADD MLOAD MLOAD GT PUSH2 0x798 JUMPI PUSH1 0x40 MLOAD PUSH32 0x8C379A000000000000000000000000000000000000000000000000000000000 DUP2 MSTORE PUSH1 0x4 ADD PUSH2 0x78F SWAP1 PUSH2 0x163A JUMP JUMPDEST PUSH1 0x40 MLOAD DUP1 SWAP2 SUB SWAP1 REVERT JUMPDEST DUP1 PUSH0 ADD MLOAD DUP2 PUSH1 0x20 ADD MLOAD DUP3 PUSH1 0x40 ADD MLOAD DUP4 PUSH1 0x60 ADD MLOAD DUP5 PUSH1 0x80 ADD MLOAD PUSH1 0x40 MLOAD PUSH1 0x20 ADD PUSH2 0x7C4 SWAP6 SWAP5 SWAP4 SWAP3 SWAP2 SWAP1 PUSH2 0x1698 JUMP JUMPDEST PUSH1 0x40 MLOAD PUSH1 0x20 DUP2 DUP4 SUB SUB DUP2 MSTORE SWAP1 PUSH1 0x40 MSTORE DUP1 MLOAD SWAP1 PUSH1 0x20 ADD KECCAK256 SWAP2 POP POP SWAP2 SWAP1 POP JUMP JUMPDEST PUSH0 DUP2 DUP1 MLOAD PUSH1 0x20 DUP2 ADD DUP3 ADD DUP1 MLOAD DUP5 DUP3 MSTORE PUSH1 0x20 DUP4 ADD PUSH1 0x20 DUP6 ADD KECCAK256 DUP2 DUP4 MSTORE DUP1 SWAP6 POP POP POP POP POP POP PUSH0 SWAP2 POP SWAP1 POP DUP1 PUSH0 ADD DUP1 SLOAD PUSH2 0x818 SWAP1 PUSH2 0x1219 JUMP JUMPDEST DUP1 PUSH1 0x1F ADD PUSH1 0x20 DUP1 SWAP2 DIV MUL PUSH1 0x20 ADD PUSH1 0x40 MLOAD SWAP1 DUP2 ADD PUSH1 0x40 MSTORE DUP1 SWAP3 SWAP2 SWAP1 DUP2 DUP2 MSTORE PUSH1 0x20 ADD DUP3 DUP1 SLOAD PUSH2 0x844 SWAP1 PUSH2 0x1219 JUMP JUMPDEST DUP1 ISZERO PUSH2 0x88F JUMPI DUP1 PUSH1 0x1F LT PUSH2 0x866 JUMPI PUSH2 0x100 DUP1 DUP4 SLOAD DIV MUL DUP4 MSTORE SWAP2 PUSH1 0x20 ADD SWAP2 PUSH2 0x88F JUMP JUMPDEST DUP3 ADD SWAP2 SWAP1 PUSH0 MSTORE PUSH1 0x20 PUSH0 KECCAK256 SWAP1 JUMPDEST DUP2 SLOAD DUP2 MSTORE SWAP1 PUSH1 0x1 ADD SWAP1 PUSH1 0x20 ADD DUP1 DUP4 GT PUSH2 0x872 JUMPI DUP3 SWAP1 SUB PUSH1 0x1F AND DUP3 ADD SWAP2 JUMPDEST POP POP POP POP POP SWAP1 DUP1 PUSH1 0x1 ADD DUP1 SLOAD PUSH2 0x8A4 SWAP1 PUSH2 0x1219 JUMP JUMPDEST DUP1 PUSH1 0x1F ADD PUSH1 0x20 DUP1 SWAP2 DIV MUL PUSH1 0x20 ADD PUSH1 0x40 MLOAD SWAP1 DUP2 ADD PUSH1 0x40 MSTORE DUP1 SWAP3 SWAP2 SWAP1 DUP2 DUP2 MSTORE PUSH1 0x20 ADD DUP3 DUP1 SLOAD PUSH2 0x8D0 SWAP1 PUSH2 0x1219 JUMP JUMPDEST DUP1 ISZERO PUSH2 0x91B JUMPI DUP1 PUSH1 0x1F LT PUSH2 0x8F2 JUMPI PUSH2 0x100 DUP1 DUP4 SLOAD DIV MUL DUP4 MSTORE SWAP2 PUSH1 0x20 ADD SWAP2 PUSH2 0x91B JUMP JUMPDEST DUP3 ADD SWAP2 SWAP1 PUSH0 MSTORE PUSH1 0x20 PUSH0 KECCAK256 SWAP1 JUMPDEST DUP2 SLOAD DUP2 MSTORE SWAP1 PUSH1 0x1 ADD SWAP1 PUSH1 0x20 ADD DUP1 DUP4 GT PUSH2 0x8FE JUMPI DUP3 SWAP1 SUB PUSH1 0x1F AND DUP3 ADD SWAP2 JUMPDEST POP POP POP POP POP SWAP1 DUP1 PUSH1 0x2 ADD DUP1 SLOAD PUSH2 0x930 SWAP1 PUSH2 0x1219 JUMP JUMPDEST DUP1 PUSH1 0x1F ADD PUSH1 0x20 DUP1 SWAP2 DIV MUL PUSH1 0x20 ADD PUSH1 0x40 MLOAD SWAP1 DUP2 ADD PUSH1 0x40 MSTORE DUP1 SWAP3 SWAP2 SWAP1 DUP2 DUP2 MSTORE PUSH1 0x20 ADD DUP3 DUP1 SLOAD PUSH2 0x95C SWAP1 PUSH2 0x1219 JUMP JUMPDEST DUP1 ISZERO PUSH2 0x9A7 JUMPI DUP1 PUSH1 0x1F LT PUSH2 0x97E JUMPI PUSH2 0x100 DUP1 DUP4 SLOAD DIV MUL DUP4 MSTORE SWAP2 PUSH1 0x20 ADD SWAP2 PUSH2 0x9A7 JUMP JUMPDEST DUP3 ADD SWAP2 SWAP1 PUSH0 MSTORE PUSH1 0x20 PUSH0 KECCAK256 SWAP1 JUMPDEST DUP2 SLOAD DUP2 MSTORE SWAP1 PUSH1 0x1 ADD SWAP1 PUSH1 0x20 ADD DUP1 DUP4 GT PUSH2 0x98A JUMPI DUP3 SWAP1 SUB PUSH1 0x1F AND DUP3 ADD SWAP2 JUMPDEST POP POP POP POP POP SWAP1 DUP1 PUSH1 0x3 ADD SLOAD SWAP1 DUP1 PUSH1 0x4 ADD SLOAD SWAP1 POP DUP6 JUMP JUMPDEST PUSH1 0x2 PUSH0 SWAP1 SLOAD SWAP1 PUSH2 0x100 EXP SWAP1 DIV PUSH20 0xFFFFFFFFFFFFFFFFFFFFFFFFFFFFFFFFFFFFFFFF AND DUP2 JUMP JUMPDEST PUSH0 PUSH1 0x1 DUP1 SLOAD SWAP1 POP SWAP1 POP SWAP1 JUMP JUMPDEST PUSH1 0x60 DUP1 PUSH0 DUP1 PUSH0 DUP1 DUP7 PUSH1 0x40 MLOAD PUSH2 0xA03 SWAP2 SWAP1 PUSH2 0x1283 JUMP JUMPDEST SWAP1 DUP2 MSTORE PUSH1 0x20 ADD PUSH1 0x40 MLOAD DUP1 SWAP2 SUB SWAP1 KECCAK256 PUSH1 0x40 MLOAD DUP1 PUSH1 0xA0 ADD PUSH1 0x40 MSTORE SWAP1 DUP2 PUSH0 DUP3 ADD DUP1 SLOAD PUSH2 0xA2B SWAP1 PUSH2 0x1219 JUMP JUMPDEST DUP1 PUSH1 0x1F ADD PUSH1 0x20 DUP1 SWAP2 DIV MUL PUSH1 0x20 ADD PUSH1 0x40 MLOAD SWAP1 DUP2 ADD PUSH1 0x40 MSTORE DUP1 SWAP3 SWAP2 SWAP1 DUP2 DUP2 MSTORE PUSH1 0x20 ADD DUP3 DUP1 SLOAD PUSH2 0xA57 SWAP1 PUSH2 0x1219 JUMP JUMPDEST DUP1 ISZERO PUSH2 0xAA2 JUMPI DUP1 PUSH1 0x1F LT PUSH2 0xA79 JUMPI PUSH2 0x100 DUP1 DUP4 SLOAD DIV MUL DUP4 MSTORE SWAP2 PUSH1 0x20 ADD SWAP2 PUSH2 0xAA2 JUMP JUMPDEST DUP3 ADD SWAP2 SWAP1 PUSH0 MSTORE PUSH1 0x20 PUSH0 KECCAK256 SWAP1 JUMPDEST DUP2 SLOAD DUP2 MSTORE SWAP1 PUSH1 0x1 ADD SWAP1 PUSH1 0x20 ADD DUP1 DUP4 GT PUSH2 0xA85 JUMPI DUP3 SWAP1 SUB PUSH1 0x1F AND DUP3 ADD SWAP2 JUMPDEST POP POP POP POP POP DUP2 MSTORE PUSH1 0x20 ADD PUSH1 0x1 DUP3 ADD DUP1 SLOAD PUSH2 0xABB SWAP1 PUSH2 0x1219 JUMP JUMPDEST DUP1 PUSH1 0x1F ADD PUSH1 0x20 DUP1 SWAP2 DIV MUL PUSH1 0x20 ADD PUSH1 0x40 MLOAD SWAP1 DUP2 ADD PUSH1 0x40 MSTORE DUP1 SWAP3 SWAP2 SWAP1 DUP2 DUP2 MSTORE PUSH1 0x20 ADD DUP3 DUP1 SLOAD PUSH2 0xAE7 SWAP1 PUSH2 0x1219 JUMP JUMPDEST DUP1 ISZERO PUSH2 0xB32 JUMPI DUP1 PUSH1 0x1F LT PUSH2 0xB09 JUMPI PUSH2 0x100 DUP1 DUP4 SLOAD DIV MUL DUP4 MSTORE SWAP2 PUSH1 0x20 ADD SWAP2 PUSH2 0xB32 JUMP JUMPDEST DUP3 ADD SWAP2 SWAP1 PUSH0 MSTORE PUSH1 0x20 PUSH0 KECCAK256 SWAP1 JUMPDEST DUP2 SLOAD DUP2 MSTORE SWAP1 PUSH1 0x1 ADD SWAP1 PUSH1 0x20 ADD DUP1 DUP4 GT PUSH2 0xB15 JUMPI DUP3 SWAP1 SUB PUSH1 0x1F AND DUP3 ADD SWAP2 JUMPDEST POP POP POP POP POP DUP2 MSTORE PUSH1 0x20 ADD PUSH1 0x2 DUP3 ADD DUP1 SLOAD PUSH2 0xB4B SWAP1 PUSH2 0x1219 JUMP JUMPDEST DUP1 PUSH1 0x1F ADD PUSH1 0x20 DUP1 SWAP2 DIV MUL PUSH1 0x20 ADD PUSH1 0x40 MLOAD SWAP1 DUP2 ADD PUSH1 0x40 MSTORE DUP1 SWAP3 SWAP2 SWAP1 DUP2 DUP2 MSTORE PUSH1 0x20 ADD DUP3 DUP1 SLOAD PUSH2 0xB77 SWAP1 PUSH2 0x1219 JUMP JUMPDEST DUP1 ISZERO PUSH2 0xBC2 JUMPI DUP1 PUSH1 0x1F LT PUSH2 0xB99 JUMPI PUSH2 0x100 DUP1 DUP4 SLOAD DIV MUL DUP4 MSTORE SWAP2 PUSH1 0x20 ADD SWAP2 PUSH2 0xBC2 JUMP JUMPDEST DUP3 ADD SWAP2 SWAP1 PUSH0 MSTORE PUSH1 0x20 PUSH0 KECCAK256 SWAP1 JUMPDEST DUP2 SLOAD DUP2 MSTORE SWAP1 PUSH1 0x1 ADD SWAP1 PUSH1 0x20 ADD DUP1 DUP4 GT PUSH2 0xBA5 JUMPI DUP3 SWAP1 SUB PUSH1 0x1F AND DUP3 ADD SWAP2 JUMPDEST POP POP POP POP POP DUP2 MSTORE PUSH1 0x20 ADD PUSH1 0x3 DUP3 ADD SLOAD DUP2 MSTORE PUSH1 0x20 ADD PUSH1 0x4 DUP3 ADD SLOAD DUP2 MSTORE POP POP SWAP1 POP PUSH0 DUP2 PUSH0 ADD MLOAD MLOAD GT PUSH2 0xC27 JUMPI PUSH1 0x40 MLOAD PUSH32 0x8C379A000000000000000000000000000000000000000000000000000000000 DUP2 MSTORE PUSH1 0x4 ADD PUSH2 0xC1E SWAP1 PUSH2 0x163A JUMP JUMPDEST PUSH1 0x40 MLOAD DUP1 SWAP2 SUB SWAP1 REVERT JUMPDEST DUP1 PUSH1 0x20 ADD MLOAD DUP2 PUSH1 0x40 ADD MLOAD DUP3 PUSH1 0x60 ADD MLOAD DUP4 PUSH1 0x80 ADD MLOAD SWAP5 POP SWAP5 POP SWAP5 POP SWAP5 POP POP SWAP2 SWAP4 POP SWAP2 SWAP4 JUMP JUMPDEST PUSH0 PUSH1 0x40 MLOAD SWAP1 POP SWAP1 JUMP JUMPDEST PUSH0 DUP1 REVERT JUMPDEST PUSH0 DUP1 REVERT JUMPDEST PUSH0 DUP2 SWAP1 POP SWAP2 SWAP1 POP JUMP JUMPDEST PUSH2 0xC6E DUP2 PUSH2 0xC5C JUMP JUMPDEST DUP2 EQ PUSH2 0xC78 JUMPI PUSH0 DUP1 REVERT JUMPDEST POP JUMP JUMPDEST PUSH0 DUP2 CALLDATALOAD SWAP1 POP PUSH2 0xC89 DUP2 PUSH2 0xC65 JUMP JUMPDEST SWAP3 SWAP2 POP POP JUMP JUMPDEST PUSH0 PUSH1 0x20 DUP3 DUP5 SUB SLT ISZERO PUSH2 0xCA4 JUMPI PUSH2 0xCA3 PUSH2 0xC54 JUMP JUMPDEST JUMPDEST PUSH0 PUSH2 0xCB1 DUP5 DUP3 DUP6 ADD PUSH2 0xC7B JUMP JUMPDEST SWAP2 POP POP SWAP3 SWAP2 POP POP JUMP JUMPDEST PUSH0 DUP2 MLOAD SWAP1 POP SWAP2 SWAP1 POP JUMP JUMPDEST PUSH0 DUP3 DUP3 MSTORE PUSH1 0x20 DUP3 ADD SWAP1 POP SWAP3 SWAP2 POP POP JUMP JUMPDEST DUP3 DUP2 DUP4 MCOPY PUSH0 DUP4 DUP4 ADD MSTORE POP POP POP JUMP JUMPDEST PUSH0 PUSH1 0x1F NOT PUSH1 0x1F DUP4 ADD AND SWAP1 POP SWAP2 SWAP1 POP JUMP JUMPDEST PUSH0 PUSH2 0xCFC DUP3 PUSH2 0xCBA JUMP JUMPDEST PUSH2 0xD06 DUP2 DUP6 PUSH2 0xCC4 JUMP JUMPDEST SWAP4 POP PUSH2 0xD16 DUP2 DUP6 PUSH1 0x20 DUP7 ADD PUSH2 0xCD4 JUMP JUMPDEST PUSH2 0xD1F DUP2 PUSH2 0xCE2 JUMP JUMPDEST DUP5 ADD SWAP2 POP POP SWAP3 SWAP2 POP POP JUMP JUMPDEST PUSH0 PUSH1 0x20 DUP3 ADD SWAP1 POP DUP2 DUP2 SUB PUSH0 DUP4 ADD MSTORE PUSH2 0xD42 DUP2 DUP5 PUSH2 0xCF2 JUMP JUMPDEST SWAP1 POP SWAP3 SWAP2 POP POP JUMP JUMPDEST PUSH0 DUP1 REVERT JUMPDEST PUSH0 DUP1 REVERT JUMPDEST PUSH32 0x4E487B7100000000000000000000000000000000000000000000000000000000 PUSH0 MSTORE PUSH1 0x41 PUSH1 0x4 MSTORE PUSH1 0x24 PUSH0 REVERT JUMPDEST PUSH2 0xD88 DUP3 PUSH2 0xCE2 JUMP JUMPDEST DUP2 ADD DUP2 DUP2 LT PUSH8 0xFFFFFFFFFFFFFFFF DUP3 GT OR ISZERO PUSH2 0xDA7 JUMPI PUSH2 0xDA6 PUSH2 0xD52 JUMP JUMPDEST JUMPDEST DUP1 PUSH1 0x40 MSTORE POP POP POP JUMP JUMPDEST PUSH0 PUSH2 0xDB9 PUSH2 0xC4B JUMP JUMPDEST SWAP1 POP PUSH2 0xDC5 DUP3 DUP3 PUSH2 0xD7F JUMP JUMPDEST SWAP2 SWAP1 POP JUMP JUMPDEST PUSH0 PUSH8 0xFFFFFFFFFFFFFFFF DUP3 GT ISZERO PUSH2 0xDE4 JUMPI PUSH2 0xDE3 PUSH2 0xD52 JUMP JUMPDEST JUMPDEST PUSH2 0xDED DUP3 PUSH2 0xCE2 JUMP JUMPDEST SWAP1 POP PUSH1 0x20 DUP2 ADD SWAP1 POP SWAP2 SWAP1 POP JUMP JUMPDEST DUP3 DUP2 DUP4 CALLDATACOPY PUSH0 DUP4 DUP4 ADD MSTORE POP POP POP JUMP JUMPDEST PUSH0 PUSH2 0xE1A PUSH2 0xE15 DUP5 PUSH2 0xDCA JUMP JUMPDEST PUSH2 0xDB0 JUMP JUMPDEST SWAP1 POP DUP3 DUP2 MSTORE PUSH1 0x20 DUP2 ADD DUP5 DUP5 DUP5 ADD GT ISZERO PUSH2 0xE36 JUMPI PUSH2 0xE35 PUSH2 0xD4E JUMP JUMPDEST JUMPDEST PUSH2 0xE41 DUP5 DUP3 DUP6 PUSH2 0xDFA JUMP JUMPDEST POP SWAP4 SWAP3 POP POP POP JUMP JUMPDEST PUSH0 DUP3 PUSH1 0x1F DUP4 ADD SLT PUSH2 0xE5D JUMPI PUSH2 0xE5C PUSH2 0xD4A JUMP JUMPDEST JUMPDEST DUP2 CALLDATALOAD PUSH2 0xE6D DUP5 DUP3 PUSH1 0x20 DUP7 ADD PUSH2 0xE08 JUMP JUMPDEST SWAP2 POP POP SWAP3 SWAP2 POP POP JUMP JUMPDEST PUSH0 DUP1 PUSH0 PUSH1 0x60 DUP5 DUP7 SUB SLT ISZERO PUSH2 0xE8D JUMPI PUSH2 0xE8C PUSH2 0xC54 JUMP JUMPDEST JUMPDEST PUSH0 DUP5 ADD CALLDATALOAD PUSH8 0xFFFFFFFFFFFFFFFF DUP2 GT ISZERO PUSH2 0xEAA JUMPI PUSH2 0xEA9 PUSH2 0xC58 JUMP JUMPDEST JUMPDEST PUSH2 0xEB6 DUP7 DUP3 DUP8 ADD PUSH2 0xE49 JUMP JUMPDEST SWAP4 POP POP PUSH1 0x20 DUP5 ADD CALLDATALOAD PUSH8 0xFFFFFFFFFFFFFFFF DUP2 GT ISZERO PUSH2 0xED7 JUMPI PUSH2 0xED6 PUSH2 0xC58 JUMP JUMPDEST JUMPDEST PUSH2 0xEE3 DUP7 DUP3 DUP8 ADD PUSH2 0xE49 JUMP JUMPDEST SWAP3 POP POP PUSH1 0x40 DUP5 ADD CALLDATALOAD PUSH8 0xFFFFFFFFFFFFFFFF DUP2 GT ISZERO PUSH2 0xF04 JUMPI PUSH2 0xF03 PUSH2 0xC58 JUMP JUMPDEST JUMPDEST PUSH2 0xF10 DUP7 DUP3 DUP8 ADD PUSH2 0xE49 JUMP JUMPDEST SWAP2 POP POP SWAP3 POP SWAP3 POP SWAP3 JUMP JUMPDEST PUSH0 DUP2 MLOAD SWAP1 POP SWAP2 SWAP1 POP JUMP JUMPDEST PUSH0 DUP3 DUP3 MSTORE PUSH1 0x20 DUP3 ADD SWAP1 POP SWAP3 SWAP2 POP POP JUMP JUMPDEST PUSH0 DUP2 SWAP1 POP PUSH1 0x20 DUP3 ADD SWAP1 POP SWAP2 SWAP1 POP JUMP JUMPDEST PUSH0 DUP3 DUP3 MSTORE PUSH1 0x20 DUP3 ADD SWAP1 POP SWAP3 SWAP2 POP POP JUMP JUMPDEST PUSH0 PUSH2 0xF5D DUP3 PUSH2 0xCBA JUMP JUMPDEST PUSH2 0xF67 DUP2 DUP6 PUSH2 0xF43 JUMP JUMPDEST SWAP4 POP PUSH2 0xF77 DUP2 DUP6 PUSH1 0x20 DUP7 ADD PUSH2 0xCD4 JUMP JUMPDEST PUSH2 0xF80 DUP2 PUSH2 0xCE2 JUMP JUMPDEST DUP5 ADD SWAP2 POP POP SWAP3 SWAP2 POP POP JUMP JUMPDEST PUSH0 PUSH2 0xF96 DUP4 DUP4 PUSH2 0xF53 JUMP JUMPDEST SWAP1 POP SWAP3 SWAP2 POP POP JUMP JUMPDEST PUSH0 PUSH1 0x20 DUP3 ADD SWAP1 POP SWAP2 SWAP1 POP JUMP JUMPDEST PUSH0 PUSH2 0xFB4 DUP3 PUSH2 0xF1A JUMP JUMPDEST PUSH2 0xFBE DUP2 DUP6 PUSH2 0xF24 JUMP JUMPDEST SWAP4 POP DUP4 PUSH1 0x20 DUP3 MUL DUP6 ADD PUSH2 0xFD0 DUP6 PUSH2 0xF34 JUMP JUMPDEST DUP1 PUSH0 JUMPDEST DUP6 DUP2 LT ISZERO PUSH2 0x100B JUMPI DUP5 DUP5 SUB DUP10 MSTORE DUP2 MLOAD PUSH2 0xFEC DUP6 DUP3 PUSH2 0xF8B JUMP JUMPDEST SWAP5 POP PUSH2 0xFF7 DUP4 PUSH2 0xF9E JUMP JUMPDEST SWAP3 POP PUSH1 0x20 DUP11 ADD SWAP10 POP POP PUSH1 0x1 DUP2 ADD SWAP1 POP PUSH2 0xFD3 JUMP JUMPDEST POP DUP3 SWAP8 POP DUP8 SWAP6 POP POP POP POP POP POP SWAP3 SWAP2 POP POP JUMP JUMPDEST PUSH0 PUSH1 0x20 DUP3 ADD SWAP1 POP DUP2 DUP2 SUB PUSH0 DUP4 ADD MSTORE PUSH2 0x1035 DUP2 DUP5 PUSH2 0xFAA JUMP JUMPDEST SWAP1 POP SWAP3 SWAP2 POP POP JUMP JUMPDEST PUSH0 PUSH1 0x20 DUP3 DUP5 SUB SLT ISZERO PUSH2 0x1052 JUMPI PUSH2 0x1051 PUSH2 0xC54 JUMP JUMPDEST JUMPDEST PUSH0 DUP3 ADD CALLDATALOAD PUSH8 0xFFFFFFFFFFFFFFFF DUP2 GT ISZERO PUSH2 0x106F JUMPI PUSH2 0x106E PUSH2 0xC58 JUMP JUMPDEST JUMPDEST PUSH2 0x107B DUP5 DUP3 DUP6 ADD PUSH2 0xE49 JUMP JUMPDEST SWAP2 POP POP SWAP3 SWAP2 POP POP JUMP JUMPDEST PUSH0 DUP2 SWAP1 POP SWAP2 SWAP1 POP JUMP JUMPDEST PUSH2 0x1096 DUP2 PUSH2 0x1084 JUMP JUMPDEST DUP3 MSTORE POP POP JUMP JUMPDEST PUSH0 PUSH1 0x20 DUP3 ADD SWAP1 POP PUSH2 0x10AF PUSH0 DUP4 ADD DUP5 PUSH2 0x108D JUMP JUMPDEST SWAP3 SWAP2 POP POP JUMP JUMPDEST PUSH2 0x10BE DUP2 PUSH2 0xC5C JUMP JUMPDEST DUP3 MSTORE POP POP JUMP JUMPDEST PUSH0 PUSH1 0xA0 DUP3 ADD SWAP1 POP DUP2 DUP2 SUB PUSH0 DUP4 ADD MSTORE PUSH2 0x10DC DUP2 DUP9 PUSH2 0xCF2 JUMP JUMPDEST SWAP1 POP DUP2 DUP2 SUB PUSH1 0x20 DUP4 ADD MSTORE PUSH2 0x10F0 DUP2 DUP8 PUSH2 0xCF2 JUMP JUMPDEST SWAP1 POP DUP2 DUP2 SUB PUSH1 0x40 DUP4 ADD MSTORE PUSH2 0x1104 DUP2 DUP7 PUSH2 0xCF2 JUMP JUMPDEST SWAP1 POP PUSH2 0x1113 PUSH1 0x60 DUP4 ADD DUP6 PUSH2 0x10B5 JUMP JUMPDEST PUSH2 0x1120 PUSH1 0x80 DUP4 ADD DUP5 PUSH2 0x108D JUMP JUMPDEST SWAP7 SWAP6 POP POP POP POP POP POP JUMP JUMPDEST PUSH0 PUSH20 0xFFFFFFFFFFFFFFFFFFFFFFFFFFFFFFFFFFFFFFFF DUP3 AND SWAP1 POP SWAP2 SWAP1 POP JUMP JUMPDEST PUSH0 PUSH2 0x1153 DUP3 PUSH2 0x112A JUMP JUMPDEST SWAP1 POP SWAP2 SWAP1 POP JUMP JUMPDEST PUSH2 0x1163 DUP2 PUSH2 0x1149 JUMP JUMPDEST DUP3 MSTORE POP POP JUMP JUMPDEST PUSH0 PUSH1 0x20 DUP3 ADD SWAP1 POP PUSH2 0x117C PUSH0 DUP4 ADD DUP5 PUSH2 0x115A JUMP JUMPDEST SWAP3 SWAP2 POP POP JUMP JUMPDEST PUSH0 PUSH1 0x20 DUP3 ADD SWAP1 POP PUSH2 0x1195 PUSH0 DUP4 ADD DUP5 PUSH2 0x10B5 JUMP JUMPDEST SWAP3 SWAP2 POP POP JUMP JUMPDEST PUSH0 PUSH1 0x80 DUP3 ADD SWAP1 POP DUP2 DUP2 SUB PUSH0 DUP4 ADD MSTORE PUSH2 0x11B3 DUP2 DUP8 PUSH2 0xCF2 JUMP JUMPDEST SWAP1 POP DUP2 DUP2 SUB PUSH1 0x20 DUP4 ADD MSTORE PUSH2 0x11C7 DUP2 DUP7 PUSH2 0xCF2 JUMP JUMPDEST SWAP1 POP PUSH2 0x11D6 PUSH1 0x40 DUP4 ADD DUP6 PUSH2 0x10B5 JUMP JUMPDEST PUSH2 0x11E3 PUSH1 0x60 DUP4 ADD DUP5 PUSH2 0x108D JUMP JUMPDEST SWAP6 SWAP5 POP POP POP POP POP JUMP JUMPDEST PUSH32 0x4E487B7100000000000000000000000000000000000000000000000000000000 PUSH0 MSTORE PUSH1 0x22 PUSH1 0x4 MSTORE PUSH1 0x24 PUSH0 REVERT JUMPDEST PUSH0 PUSH1 0x2 DUP3 DIV SWAP1 POP PUSH1 0x1 DUP3 AND DUP1 PUSH2 0x1230 JUMPI PUSH1 0x7F DUP3 AND SWAP2 POP JUMPDEST PUSH1 0x20 DUP3 LT DUP2 SUB PUSH2 0x1243 JUMPI PUSH2 0x1242 PUSH2 0x11EC JUMP JUMPDEST JUMPDEST POP SWAP2 SWAP1 POP JUMP JUMPDEST PUSH0 DUP2 SWAP1 POP SWAP3 SWAP2 POP POP JUMP JUMPDEST PUSH0 PUSH2 0x125D DUP3 PUSH2 0xCBA JUMP JUMPDEST PUSH2 0x1267 DUP2 DUP6 PUSH2 0x1249 JUMP JUMPDEST SWAP4 POP PUSH2 0x1277 DUP2 DUP6 PUSH1 0x20 DUP7 ADD PUSH2 0xCD4 JUMP JUMPDEST DUP1 DUP5 ADD SWAP2 POP POP SWAP3 SWAP2 POP POP JUMP JUMPDEST PUSH0 PUSH2 0x128E DUP3 DUP5 PUSH2 0x1253 JUMP JUMPDEST SWAP2 POP DUP2 SWAP1 POP SWAP3 SWAP2 POP POP JUMP JUMPDEST PUSH32 0x50726F63657373696E6720616C72656164792075706461746564000000000000 PUSH0 DUP3 ADD MSTORE POP JUMP JUMPDEST PUSH0 PUSH2 0x12CD PUSH1 0x1A DUP4 PUSH2 0xCC4 JUMP JUMPDEST SWAP2 POP PUSH2 0x12D8 DUP3 PUSH2 0x1299 JUMP JUMPDEST PUSH1 0x20 DUP3 ADD SWAP1 POP SWAP2 SWAP1 POP JUMP JUMPDEST PUSH0 PUSH1 0x20 DUP3 ADD SWAP1 POP DUP2 DUP2 SUB PUSH0 DUP4 ADD MSTORE PUSH2 0x12FA DUP2 PUSH2 0x12C1 JUMP JUMPDEST SWAP1 POP SWAP2 SWAP1 POP JUMP JUMPDEST PUSH2 0x130A DUP2 PUSH2 0x1084 JUMP JUMPDEST DUP2 EQ PUSH2 0x1314 JUMPI PUSH0 DUP1 REVERT JUMPDEST POP JUMP JUMPDEST PUSH0 DUP2 MLOAD SWAP1 POP PUSH2 0x1325 DUP2 PUSH2 0x1301 JUMP JUMPDEST SWAP3 SWAP2 POP POP JUMP JUMPDEST PUSH0 PUSH1 0x20 DUP3 DUP5 SUB SLT ISZERO PUSH2 0x1340 JUMPI PUSH2 0x133F PUSH2 0xC54 JUMP JUMPDEST JUMPDEST PUSH0 PUSH2 0x134D DUP5 DUP3 DUP6 ADD PUSH2 0x1317 JUMP JUMPDEST SWAP2 POP POP SWAP3 SWAP2 POP POP JUMP JUMPDEST PUSH0 DUP2 SWAP1 POP DUP2 PUSH0 MSTORE PUSH1 0x20 PUSH0 KECCAK256 SWAP1 POP SWAP2 SWAP1 POP JUMP JUMPDEST PUSH0 PUSH1 0x20 PUSH1 0x1F DUP4 ADD DIV SWAP1 POP SWAP2 SWAP1 POP JUMP JUMPDEST PUSH0 DUP3 DUP3 SHL SWAP1 POP SWAP3 SWAP2 POP POP JUMP JUMPDEST PUSH0 PUSH1 0x8 DUP4 MUL PUSH2 0x13B2 PUSH32 0xFFFFFFFFFFFFFFFFFFFFFFFFFFFFFFFFFFFFFFFFFFFFFFFFFFFFFFFFFFFFFFFF DUP3 PUSH2 0x1377 JUMP JUMPDEST PUSH2 0x13BC DUP7 DUP4 PUSH2 0x1377 JUMP JUMPDEST SWAP6 POP DUP1 NOT DUP5 AND SWAP4 POP DUP1 DUP7 AND DUP5 OR SWAP3 POP POP POP SWAP4 SWAP3 POP POP POP JUMP JUMPDEST PUSH0 DUP2 SWAP1 POP SWAP2 SWAP1 POP JUMP JUMPDEST PUSH0 PUSH2 0x13F7 PUSH2 0x13F2 PUSH2 0x13ED DUP5 PUSH2 0xC5C JUMP JUMPDEST PUSH2 0x13D4 JUMP JUMPDEST PUSH2 0xC5C JUMP JUMPDEST SWAP1 POP SWAP2 SWAP1 POP JUMP JUMPDEST PUSH0 DUP2 SWAP1 POP SWAP2 SWAP1 POP JUMP JUMPDEST PUSH2 0x1410 DUP4 PUSH2 0x13DD JUMP JUMPDEST PUSH2 0x1424 PUSH2 0x141C DUP3 PUSH2 0x13FE JUMP JUMPDEST DUP5 DUP5 SLOAD PUSH2 0x1383 JUMP JUMPDEST DUP3 SSTORE POP POP POP POP JUMP JUMPDEST PUSH0 SWAP1 JUMP JUMPDEST PUSH2 0x1438 PUSH2 0x142C JUMP JUMPDEST PUSH2 0x1443 DUP2 DUP5 DUP5 PUSH2 0x1407 JUMP JUMPDEST POP POP POP JUMP JUMPDEST JUMPDEST DUP2 DUP2 LT ISZERO PUSH2 0x1466 JUMPI PUSH2 0x145B PUSH0 DUP3 PUSH2 0x1430 JUMP JUMPDEST PUSH1 0x1 DUP2 ADD SWAP1 POP PUSH2 0x1449 JUMP JUMPDEST POP POP JUMP JUMPDEST PUSH1 0x1F DUP3 GT ISZERO PUSH2 0x14AB JUMPI PUSH2 0x147C DUP2 PUSH2 0x1356 JUMP JUMPDEST PUSH2 0x1485 DUP5 PUSH2 0x1368 JUMP JUMPDEST DUP2 ADD PUSH1 0x20 DUP6 LT ISZERO PUSH2 0x1494 JUMPI DUP2 SWAP1 POP JUMPDEST PUSH2 0x14A8 PUSH2 0x14A0 DUP6 PUSH2 0x1368 JUMP JUMPDEST DUP4 ADD DUP3 PUSH2 0x1448 JUMP JUMPDEST POP POP JUMPDEST POP POP POP JUMP JUMPDEST PUSH0 DUP3 DUP3 SHR SWAP1 POP SWAP3 SWAP2 POP POP JUMP JUMPDEST PUSH0 PUSH2 0x14CB PUSH0 NOT DUP5 PUSH1 0x8 MUL PUSH2 0x14B0 JUMP JUMPDEST NOT DUP1 DUP4 AND SWAP2 POP POP SWAP3 SWAP2 POP POP JUMP JUMPDEST PUSH0 PUSH2 0x14E3 DUP4 DUP4 PUSH2 0x14BC JUMP JUMPDEST SWAP2 POP DUP3 PUSH1 0x2 MUL DUP3 OR SWAP1 POP SWAP3 SWAP2 POP POP JUMP JUMPDEST PUSH2 0x14FC DUP3 PUSH2 0xCBA JUMP JUMPDEST PUSH8 0xFFFFFFFFFFFFFFFF DUP2 GT ISZERO PUSH2 0x1515 JUMPI PUSH2 0x1514 PUSH2 0xD52 JUMP JUMPDEST JUMPDEST PUSH2 0x151F DUP3 SLOAD PUSH2 0x1219 JUMP JUMPDEST PUSH2 0x152A DUP3 DUP3 DUP6 PUSH2 0x146A JUMP JUMPDEST PUSH0 PUSH1 0x20 SWAP1 POP PUSH1 0x1F DUP4 GT PUSH1 0x1 DUP2 EQ PUSH2 0x155B JUMPI PUSH0 DUP5 ISZERO PUSH2 0x1549 JUMPI DUP3 DUP8 ADD MLOAD SWAP1 POP JUMPDEST PUSH2 0x1553 DUP6 DUP3 PUSH2 0x14D8 JUMP JUMPDEST DUP7 SSTORE POP PUSH2 0x15BA JUMP JUMPDEST PUSH1 0x1F NOT DUP5 AND PUSH2 0x1569 DUP7 PUSH2 0x1356 JUMP JUMPDEST PUSH0 JUMPDEST DUP3 DUP2 LT ISZERO PUSH2 0x1590 JUMPI DUP5 DUP10 ADD MLOAD DUP3 SSTORE PUSH1 0x1 DUP3 ADD SWAP2 POP PUSH1 0x20 DUP6 ADD SWAP5 POP PUSH1 0x20 DUP2 ADD SWAP1 POP PUSH2 0x156B JUMP JUMPDEST DUP7 DUP4 LT ISZERO PUSH2 0x15AD JUMPI DUP5 DUP10 ADD MLOAD PUSH2 0x15A9 PUSH1 0x1F DUP10 AND DUP3 PUSH2 0x14BC JUMP JUMPDEST DUP4 SSTORE POP JUMPDEST PUSH1 0x1 PUSH1 0x2 DUP9 MUL ADD DUP9 SSTORE POP POP POP JUMPDEST POP POP POP POP POP POP JUMP JUMPDEST PUSH0 PUSH1 0x40 DUP3 ADD SWAP1 POP DUP2 DUP2 SUB PUSH0 DUP4 ADD MSTORE PUSH2 0x15DA DUP2 DUP6 PUSH2 0xCF2 JUMP JUMPDEST SWAP1 POP PUSH2 0x15E9 PUSH1 0x20 DUP4 ADD DUP5 PUSH2 0x108D JUMP JUMPDEST SWAP4 SWAP3 POP POP POP JUMP JUMPDEST PUSH32 0x50726F63657373696E67206461746120646F6573206E6F742065786973740000 PUSH0 DUP3 ADD MSTORE POP JUMP JUMPDEST PUSH0 PUSH2 0x1624 PUSH1 0x1E DUP4 PUSH2 0xCC4 JUMP JUMPDEST SWAP2 POP PUSH2 0x162F DUP3 PUSH2 0x15F0 JUMP JUMPDEST PUSH1 0x20 DUP3 ADD SWAP1 POP SWAP2 SWAP1 POP JUMP JUMPDEST PUSH0 PUSH1 0x20 DUP3 ADD SWAP1 POP DUP2 DUP2 SUB PUSH0 DUP4 ADD MSTORE PUSH2 0x1651 DUP2 PUSH2 0x1618 JUMP JUMPDEST SWAP1 POP SWAP2 SWAP1 POP JUMP JUMPDEST PUSH0 DUP2 SWAP1 POP SWAP2 SWAP1 POP JUMP JUMPDEST PUSH2 0x1672 PUSH2 0x166D DUP3 PUSH2 0xC5C JUMP JUMPDEST PUSH2 0x1658 JUMP JUMPDEST DUP3 MSTORE POP POP JUMP JUMPDEST PUSH0 DUP2 SWAP1 POP SWAP2 SWAP1 POP JUMP JUMPDEST PUSH2 0x1692 PUSH2 0x168D DUP3 PUSH2 0x1084 JUMP JUMPDEST PUSH2 0x1678 JUMP JUMPDEST DUP3 MSTORE POP POP JUMP JUMPDEST PUSH0 PUSH2 0x16A3 DUP3 DUP9 PUSH2 0x1253 JUMP JUMPDEST SWAP2 POP PUSH2 0x16AF DUP3 DUP8 PUSH2 0x1253 JUMP JUMPDEST SWAP2 POP PUSH2 0x16BB DUP3 DUP7 PUSH2 0x1253 JUMP JUMPDEST SWAP2 POP PUSH2 0x16C7 DUP3 DUP6 PUSH2 0x1661 JUMP JUMPDEST PUSH1 0x20 DUP3 ADD SWAP2 POP PUSH2 0x16D7 DUP3 DUP5 PUSH2 0x1681 JUMP JUMPDEST PUSH1 0x20 DUP3 ADD SWAP2 POP DUP2 SWAP1 POP SWAP7 SWAP6 POP POP POP POP POP POP JUMP INVALID LOG2 PUSH5 0x6970667358 0x22 SLT KECCAK256 0xB5 SWAP7 BLOBHASH 0x4C CODECOPY CALLER 0xA7 0xB7 0xEF REVERT 0xE1 0xD8 GASPRICE 0x2D 0x1E 0x25 0xED 0xAF PUSH0 PUSH22 0xEA486CAE6A91F0419307C18A64736F6C634300081A00 CALLER "
				},
				"gasEstimates": {
					"creation": {
						"codeDepositCost": "1184000",
						"executionCost": "infinite",
						"totalCost": "infinite"
					},
					"external": {
						"allProcessedBatchIds(uint256)": "infinite",
						"getAllProcessedBatchIds()": "infinite",
						"getProcessingHash(string)": "infinite",
						"getProcessingInfo(string)": "infinite",
						"getTotalProcessedBatches()": "2484",
						"processData(string)": "infinite",
						"registroFincaAddress()": "2530",
						"updateProcessing(string,string,string)": "infinite"
					}
				},
				"methodIdentifiers": {
					"allProcessedBatchIds(uint256)": "235ccca1",
					"getAllProcessedBatchIds()": "4e5365bc",
					"getProcessingHash(string)": "53adab30",
					"getProcessingInfo(string)": "f19ac0d5",
					"getTotalProcessedBatches()": "bb4d7611",
					"processData(string)": "8351a2b3",
					"registroFincaAddress()": "94c158d9",
					"updateProcessing(string,string,string)": "46185dc8"
				}
			},
			"storageLayout": {
				"storage": [
					{
						"astId": 60,
						"contract": "2-Procesamiento.sol:Procesamiento",
						"label": "processData",
						"offset": 0,
						"slot": "0",
						"type": "t_mapping(t_string_memory_ptr,t_struct(ProcessingData)55_storage)"
					},
					{
						"astId": 63,
						"contract": "2-Procesamiento.sol:Procesamiento",
						"label": "allProcessedBatchIds",
						"offset": 0,
						"slot": "1",
						"type": "t_array(t_string_storage)dyn_storage"
					},
					{
						"astId": 65,
						"contract": "2-Procesamiento.sol:Procesamiento",
						"label": "registroFincaAddress",
						"offset": 0,
						"slot": "2",
						"type": "t_address"
					},
					{
						"astId": 68,
						"contract": "2-Procesamiento.sol:Procesamiento",
						"label": "registroFinca",
						"offset": 0,
						"slot": "3",
						"type": "t_contract(IRegistroFinca)9"
					}
				],
				"types": {
					"t_address": {
						"encoding": "inplace",
						"label": "address",
						"numberOfBytes": "20"
					},
					"t_array(t_string_storage)dyn_storage": {
						"base": "t_string_storage",
						"encoding": "dynamic_array",
						"label": "string[]",
						"numberOfBytes": "32"
					},
					"t_bytes32": {
						"encoding": "inplace",
						"label": "bytes32",
						"numberOfBytes": "32"
					},
					"t_contract(IRegistroFinca)9": {
						"encoding": "inplace",
						"label": "contract IRegistroFinca",
						"numberOfBytes": "20"
					},
					"t_mapping(t_string_memory_ptr,t_struct(ProcessingData)55_storage)": {
						"encoding": "mapping",
						"key": "t_string_memory_ptr",
						"label": "mapping(string => struct Procesamiento.ProcessingData)",
						"numberOfBytes": "32",
						"value": "t_struct(ProcessingData)55_storage"
					},
					"t_string_memory_ptr": {
						"encoding": "bytes",
						"label": "string",
						"numberOfBytes": "32"
					},
					"t_string_storage": {
						"encoding": "bytes",
						"label": "string",
						"numberOfBytes": "32"
					},
					"t_struct(ProcessingData)55_storage": {
						"encoding": "inplace",
						"label": "struct Procesamiento.ProcessingData",
						"members": [
							{
								"astId": 46,
								"contract": "2-Procesamiento.sol:Procesamiento",
								"label": "batchId",
								"offset": 0,
								"slot": "0",
								"type": "t_string_storage"
							},
							{
								"astId": 48,
								"contract": "2-Procesamiento.sol:Procesamiento",
								"label": "processingDetails",
								"offset": 0,
								"slot": "1",
								"type": "t_string_storage"
							},
							{
								"astId": 50,
								"contract": "2-Procesamiento.sol:Procesamiento",
								"label": "certifications",
								"offset": 0,
								"slot": "2",
								"type": "t_string_storage"
							},
							{
								"astId": 52,
								"contract": "2-Procesamiento.sol:Procesamiento",
								"label": "timestamp",
								"offset": 0,
								"slot": "3",
								"type": "t_uint256"
							},
							{
								"astId": 54,
								"contract": "2-Procesamiento.sol:Procesamiento",
								"label": "previousStageHash",
								"offset": 0,
								"slot": "4",
								"type": "t_bytes32"
							}
						],
						"numberOfBytes": "160"
					},
					"t_uint256": {
						"encoding": "inplace",
						"label": "uint256",
						"numberOfBytes": "32"
					}
				}
			},
			"userdoc": {
				"kind": "user",
				"methods": {},
				"version": 1
			}
		}
	}
}