{
	"6-Venta.sol": {
		"Venta": {
			"abi": [
				{
					"inputs": [
						{
							"internalType": "address",
							"name": "_distribucionAddress",
							"type": "address"
						}
					],
					"stateMutability": "nonpayable",
					"type": "constructor"
				},
				{
					"anonymous": false,
					"inputs": [
						{
							"indexed": false,
							"internalType": "string",
							"name": "productId",
							"type": "string"
						},
						{
							"indexed": false,
							"internalType": "bytes32",
							"name": "saleHash",
							"type": "bytes32"
						}
					],
					"name": "SaleRecorded",
					"type": "event"
				},
				{
					"inputs": [
						{
							"internalType": "uint256",
							"name": "",
							"type": "uint256"
						}
					],
					"name": "allSoldProductIds",
					"outputs": [
						{
							"internalType": "string",
							"name": "",
							"type": "string"
						}
					],
					"stateMutability": "view",
					"type": "function"
				},
				{
					"inputs": [],
					"name": "distribucionAddress",
					"outputs": [
						{
							"internalType": "address",
							"name": "",
							"type": "address"
						}
					],
					"stateMutability": "view",
					"type": "function"
				},
				{
					"inputs": [],
					"name": "getAllSoldProductIds",
					"outputs": [
						{
							"internalType": "string[]",
							"name": "",
							"type": "string[]"
						}
					],
					"stateMutability": "view",
					"type": "function"
				},
				{
					"inputs": [
						{
							"internalType": "string",
							"name": "_productId",
							"type": "string"
						}
					],
					"name": "getSaleHash",
					"outputs": [
						{
							"internalType": "bytes32",
							"name": "",
							"type": "bytes32"
						}
					],
					"stateMutability": "view",
					"type": "function"
				},
				{
					"inputs": [
						{
							"internalType": "string",
							"name": "_productId",
							"type": "string"
						}
					],
					"name": "getSaleInfo",
					"outputs": [
						{
							"internalType": "string",
							"name": "buyerInfo",
							"type": "string"
						},
						{
							"internalType": "uint256",
							"name": "saleAmount",
							"type": "uint256"
						},
						{
							"internalType": "uint256",
							"name": "timestamp",
							"type": "uint256"
						},
						{
							"internalType": "bytes32",
							"name": "previousStageHash",
							"type": "bytes32"
						}
					],
					"stateMutability": "view",
					"type": "function"
				},
				{
					"inputs": [],
					"name": "getTotalSoldProducts",
					"outputs": [
						{
							"internalType": "uint256",
							"name": "",
							"type": "uint256"
						}
					],
					"stateMutability": "view",
					"type": "function"
				},
				{
					"inputs": [
						{
							"internalType": "string",
							"name": "_productId",
							"type": "string"
						},
						{
							"internalType": "string",
							"name": "_buyerInfo",
							"type": "string"
						},
						{
							"internalType": "uint256",
							"name": "_saleAmount",
							"type": "uint256"
						}
					],
					"name": "recordSale",
					"outputs": [],
					"stateMutability": "nonpayable",
					"type": "function"
				},
				{
					"inputs": [
						{
							"internalType": "string",
							"name": "",
							"type": "string"
						}
					],
					"name": "saleData",
					"outputs": [
						{
							"internalType": "string",
							"name": "productId",
							"type": "string"
						},
						{
							"internalType": "string",
							"name": "buyerInfo",
							"type": "string"
						},
						{
							"internalType": "uint256",
							"name": "saleAmount",
							"type": "uint256"
						},
						{
							"internalType": "uint256",
							"name": "timestamp",
							"type": "uint256"
						},
						{
							"internalType": "bytes32",
							"name": "previousStageHash",
							"type": "bytes32"
						}
					],
					"stateMutability": "view",
					"type": "function"
				}
			],
			"devdoc": {
				"kind": "dev",
				"methods": {},
				"version": 1
			},
			"evm": {
				"assembly": "    /* \"6-Venta.sol\":86:2872  contract Venta {... */\n  mstore(0x40, 0x80)\n    /* \"6-Venta.sol\":591:752  constructor(address _distribucionAddress) {... */\n  callvalue\n  dup1\n  iszero\n  tag_1\n  jumpi\n  0x00\n  dup1\n  revert\ntag_1:\n  pop\n  mload(0x40)\n  sub(codesize, bytecodeSize)\n  dup1\n  bytecodeSize\n  dup4\n  codecopy\n  dup2\n  dup2\n  add\n  0x40\n  mstore\n  dup2\n  add\n  swap1\n  tag_2\n  swap2\n  swap1\n  tag_3\n  jump\t// in\ntag_2:\n    /* \"6-Venta.sol\":665:685  _distribucionAddress */\n  dup1\n    /* \"6-Venta.sol\":643:662  distribucionAddress */\n  0x02\n  0x00\n    /* \"6-Venta.sol\":643:685  distribucionAddress = _distribucionAddress */\n  0x0100\n  exp\n  dup2\n  sload\n  dup2\n  0xffffffffffffffffffffffffffffffffffffffff\n  mul\n  not\n  and\n  swap1\n  dup4\n  0xffffffffffffffffffffffffffffffffffffffff\n  and\n  mul\n  or\n  swap1\n  sstore\n  pop\n    /* \"6-Venta.sol\":724:744  _distribucionAddress */\n  dup1\n    /* \"6-Venta.sol\":695:707  distribucion */\n  0x03\n  0x00\n    /* \"6-Venta.sol\":695:745  distribucion = IDistribucion(_distribucionAddress) */\n  0x0100\n  exp\n  dup2\n  sload\n  dup2\n  0xffffffffffffffffffffffffffffffffffffffff\n  mul\n  not\n  and\n  swap1\n  dup4\n  0xffffffffffffffffffffffffffffffffffffffff\n  and\n  mul\n  or\n  swap1\n  sstore\n  pop\n    /* \"6-Venta.sol\":591:752  constructor(address _distribucionAddress) {... */\n  pop\n    /* \"6-Venta.sol\":86:2872  contract Venta {... */\n  jump(tag_6)\n    /* \"#utility.yul\":88:205   */\ntag_8:\n    /* \"#utility.yul\":197:198   */\n  0x00\n    /* \"#utility.yul\":194:195   */\n  dup1\n    /* \"#utility.yul\":187:199   */\n  revert\n    /* \"#utility.yul\":334:460   */\ntag_10:\n    /* \"#utility.yul\":371:378   */\n  0x00\n    /* \"#utility.yul\":411:453   */\n  0xffffffffffffffffffffffffffffffffffffffff\n    /* \"#utility.yul\":404:409   */\n  dup3\n    /* \"#utility.yul\":400:454   */\n  and\n    /* \"#utility.yul\":389:454   */\n  swap1\n  pop\n    /* \"#utility.yul\":334:460   */\n  swap2\n  swap1\n  pop\n  jump\t// out\n    /* \"#utility.yul\":466:562   */\ntag_11:\n    /* \"#utility.yul\":503:510   */\n  0x00\n    /* \"#utility.yul\":532:556   */\n  tag_20\n    /* \"#utility.yul\":550:555   */\n  dup3\n    /* \"#utility.yul\":532:556   */\n  tag_10\n  jump\t// in\ntag_20:\n    /* \"#utility.yul\":521:556   */\n  swap1\n  pop\n    /* \"#utility.yul\":466:562   */\n  swap2\n  swap1\n  pop\n  jump\t// out\n    /* \"#utility.yul\":568:690   */\ntag_12:\n    /* \"#utility.yul\":641:665   */\n  tag_22\n    /* \"#utility.yul\":659:664   */\n  dup2\n    /* \"#utility.yul\":641:665   */\n  tag_11\n  jump\t// in\ntag_22:\n    /* \"#utility.yul\":634:639   */\n  dup2\n    /* \"#utility.yul\":631:666   */\n  eq\n    /* \"#utility.yul\":621:684   */\n  tag_23\n  jumpi\n    /* \"#utility.yul\":680:681   */\n  0x00\n    /* \"#utility.yul\":677:678   */\n  dup1\n    /* \"#utility.yul\":670:682   */\n  revert\n    /* \"#utility.yul\":621:684   */\ntag_23:\n    /* \"#utility.yul\":568:690   */\n  pop\n  jump\t// out\n    /* \"#utility.yul\":696:839   */\ntag_13:\n    /* \"#utility.yul\":753:758   */\n  0x00\n    /* \"#utility.yul\":784:790   */\n  dup2\n    /* \"#utility.yul\":778:791   */\n  mload\n    /* \"#utility.yul\":769:791   */\n  swap1\n  pop\n    /* \"#utility.yul\":800:833   */\n  tag_25\n    /* \"#utility.yul\":827:832   */\n  dup2\n    /* \"#utility.yul\":800:833   */\n  tag_12\n  jump\t// in\ntag_25:\n    /* \"#utility.yul\":696:839   */\n  swap3\n  swap2\n  pop\n  pop\n  jump\t// out\n    /* \"#utility.yul\":845:1196   */\ntag_3:\n    /* \"#utility.yul\":915:921   */\n  0x00\n    /* \"#utility.yul\":964:966   */\n  0x20\n    /* \"#utility.yul\":952:961   */\n  dup3\n    /* \"#utility.yul\":943:950   */\n  dup5\n    /* \"#utility.yul\":939:962   */\n  sub\n    /* \"#utility.yul\":935:967   */\n  slt\n    /* \"#utility.yul\":932:1051   */\n  iszero\n  tag_27\n  jumpi\n    /* \"#utility.yul\":970:1049   */\n  tag_28\n  tag_8\n  jump\t// in\ntag_28:\n    /* \"#utility.yul\":932:1051   */\ntag_27:\n    /* \"#utility.yul\":1090:1091   */\n  0x00\n    /* \"#utility.yul\":1115:1179   */\n  tag_29\n    /* \"#utility.yul\":1171:1178   */\n  dup5\n    /* \"#utility.yul\":1162:1168   */\n  dup3\n    /* \"#utility.yul\":1151:1160   */\n  dup6\n    /* \"#utility.yul\":1147:1169   */\n  add\n    /* \"#utility.yul\":1115:1179   */\n  tag_13\n  jump\t// in\ntag_29:\n    /* \"#utility.yul\":1105:1179   */\n  swap2\n  pop\n    /* \"#utility.yul\":1061:1189   */\n  pop\n    /* \"#utility.yul\":845:1196   */\n  swap3\n  swap2\n  pop\n  pop\n  jump\t// out\n    /* \"6-Venta.sol\":86:2872  contract Venta {... */\ntag_6:\n  dataSize(sub_0)\n  dup1\n  dataOffset(sub_0)\n  0x00\n  codecopy\n  0x00\n  return\nstop\n\nsub_0: assembly {\n        /* \"6-Venta.sol\":86:2872  contract Venta {... */\n      mstore(0x40, 0x80)\n      callvalue\n      dup1\n      iszero\n      tag_1\n      jumpi\n      0x00\n      dup1\n      revert\n    tag_1:\n      pop\n      jumpi(tag_2, lt(calldatasize, 0x04))\n      shr(0xe0, calldataload(0x00))\n      dup1\n      0xacc7ca43\n      gt\n      tag_11\n      jumpi\n      dup1\n      0xacc7ca43\n      eq\n      tag_7\n      jumpi\n      dup1\n      0xb91c7997\n      eq\n      tag_8\n      jumpi\n      dup1\n      0xbabea0b2\n      eq\n      tag_9\n      jumpi\n      dup1\n      0xcdc82bd5\n      eq\n      tag_10\n      jumpi\n      jump(tag_2)\n    tag_11:\n      dup1\n      0x3b07ce59\n      eq\n      tag_3\n      jumpi\n      dup1\n      0x715f85b4\n      eq\n      tag_4\n      jumpi\n      dup1\n      0x87dc5730\n      eq\n      tag_5\n      jumpi\n      dup1\n      0xaa009012\n      eq\n      tag_6\n      jumpi\n    tag_2:\n      0x00\n      dup1\n      revert\n        /* \"6-Venta.sol\":356:399  mapping(string => SaleData) public saleData */\n    tag_3:\n      tag_12\n      0x04\n      dup1\n      calldatasize\n      sub\n      dup2\n      add\n      swap1\n      tag_13\n      swap2\n      swap1\n      tag_14\n      jump\t// in\n    tag_13:\n      tag_15\n      jump\t// in\n    tag_12:\n      mload(0x40)\n      tag_16\n      swap6\n      swap5\n      swap4\n      swap3\n      swap2\n      swap1\n      tag_17\n      jump\t// in\n    tag_16:\n      mload(0x40)\n      dup1\n      swap2\n      sub\n      swap1\n      return\n        /* \"6-Venta.sol\":1765:2158  function getSaleHash(string memory _productId) public view returns (bytes32) {... */\n    tag_4:\n      tag_18\n      0x04\n      dup1\n      calldatasize\n      sub\n      dup2\n      add\n      swap1\n      tag_19\n      swap2\n      swap1\n      tag_14\n      jump\t// in\n    tag_19:\n      tag_20\n      jump\t// in\n    tag_18:\n      mload(0x40)\n      tag_21\n      swap2\n      swap1\n      tag_22\n      jump\t// in\n    tag_21:\n      mload(0x40)\n      dup1\n      swap2\n      sub\n      swap1\n      return\n        /* \"6-Venta.sol\":2168:2629  function getSaleInfo(string memory _productId) public view returns (... */\n    tag_5:\n      tag_23\n      0x04\n      dup1\n      calldatasize\n      sub\n      dup2\n      add\n      swap1\n      tag_24\n      swap2\n      swap1\n      tag_14\n      jump\t// in\n    tag_24:\n      tag_25\n      jump\t// in\n    tag_23:\n      mload(0x40)\n      tag_26\n      swap5\n      swap4\n      swap3\n      swap2\n      swap1\n      tag_27\n      jump\t// in\n    tag_26:\n      mload(0x40)\n      dup1\n      swap2\n      sub\n      swap1\n      return\n        /* \"6-Venta.sol\":405:438  string[] public allSoldProductIds */\n    tag_6:\n      tag_28\n      0x04\n      dup1\n      calldatasize\n      sub\n      dup2\n      add\n      swap1\n      tag_29\n      swap2\n      swap1\n      tag_30\n      jump\t// in\n    tag_29:\n      tag_31\n      jump\t// in\n    tag_28:\n      mload(0x40)\n      tag_32\n      swap2\n      swap1\n      tag_33\n      jump\t// in\n    tag_32:\n      mload(0x40)\n      dup1\n      swap2\n      sub\n      swap1\n      return\n        /* \"6-Venta.sol\":762:1755  function recordSale(... */\n    tag_7:\n      tag_34\n      0x04\n      dup1\n      calldatasize\n      sub\n      dup2\n      add\n      swap1\n      tag_35\n      swap2\n      swap1\n      tag_36\n      jump\t// in\n    tag_35:\n      tag_37\n      jump\t// in\n    tag_34:\n      stop\n        /* \"6-Venta.sol\":2760:2870  function getTotalSoldProducts() public view returns (uint256) {... */\n    tag_8:\n      tag_38\n      tag_39\n      jump\t// in\n    tag_38:\n      mload(0x40)\n      tag_40\n      swap2\n      swap1\n      tag_41\n      jump\t// in\n    tag_40:\n      mload(0x40)\n      dup1\n      swap2\n      sub\n      swap1\n      return\n        /* \"6-Venta.sol\":2639:2750  function getAllSoldProductIds() public view returns (string[] memory) {... */\n    tag_9:\n      tag_42\n      tag_43\n      jump\t// in\n    tag_42:\n      mload(0x40)\n      tag_44\n      swap2\n      swap1\n      tag_45\n      jump\t// in\n    tag_44:\n      mload(0x40)\n      dup1\n      swap2\n      sub\n      swap1\n      return\n        /* \"6-Venta.sol\":449:483  address public distribucionAddress */\n    tag_10:\n      tag_46\n      tag_47\n      jump\t// in\n    tag_46:\n      mload(0x40)\n      tag_48\n      swap2\n      swap1\n      tag_49\n      jump\t// in\n    tag_48:\n      mload(0x40)\n      dup1\n      swap2\n      sub\n      swap1\n      return\n        /* \"6-Venta.sol\":356:399  mapping(string => SaleData) public saleData */\n    tag_15:\n      0x00\n      dup2\n      dup1\n      mload\n      0x20\n      dup2\n      add\n      dup3\n      add\n      dup1\n      mload\n      dup5\n      dup3\n      mstore\n      0x20\n      dup4\n      add\n      0x20\n      dup6\n      add\n      keccak256\n      dup2\n      dup4\n      mstore\n      dup1\n      swap6\n      pop\n      pop\n      pop\n      pop\n      pop\n      pop\n      0x00\n      swap2\n      pop\n      swap1\n      pop\n      dup1\n      0x00\n      add\n      dup1\n      sload\n      tag_50\n      swap1\n      tag_51\n      jump\t// in\n    tag_50:\n      dup1\n      0x1f\n      add\n      0x20\n      dup1\n      swap2\n      div\n      mul\n      0x20\n      add\n      mload(0x40)\n      swap1\n      dup2\n      add\n      0x40\n      mstore\n      dup1\n      swap3\n      swap2\n      swap1\n      dup2\n      dup2\n      mstore\n      0x20\n      add\n      dup3\n      dup1\n      sload\n      tag_52\n      swap1\n      tag_51\n      jump\t// in\n    tag_52:\n      dup1\n      iszero\n      tag_53\n      jumpi\n      dup1\n      0x1f\n      lt\n      tag_54\n      jumpi\n      0x0100\n      dup1\n      dup4\n      sload\n      div\n      mul\n      dup4\n      mstore\n      swap2\n      0x20\n      add\n      swap2\n      jump(tag_53)\n    tag_54:\n      dup3\n      add\n      swap2\n      swap1\n      0x00\n      mstore\n      keccak256(0x00, 0x20)\n      swap1\n    tag_55:\n      dup2\n      sload\n      dup2\n      mstore\n      swap1\n      0x01\n      add\n      swap1\n      0x20\n      add\n      dup1\n      dup4\n      gt\n      tag_55\n      jumpi\n      dup3\n      swap1\n      sub\n      0x1f\n      and\n      dup3\n      add\n      swap2\n    tag_53:\n      pop\n      pop\n      pop\n      pop\n      pop\n      swap1\n      dup1\n      0x01\n      add\n      dup1\n      sload\n      tag_56\n      swap1\n      tag_51\n      jump\t// in\n    tag_56:\n      dup1\n      0x1f\n      add\n      0x20\n      dup1\n      swap2\n      div\n      mul\n      0x20\n      add\n      mload(0x40)\n      swap1\n      dup2\n      add\n      0x40\n      mstore\n      dup1\n      swap3\n      swap2\n      swap1\n      dup2\n      dup2\n      mstore\n      0x20\n      add\n      dup3\n      dup1\n      sload\n      tag_57\n      swap1\n      tag_51\n      jump\t// in\n    tag_57:\n      dup1\n      iszero\n      tag_58\n      jumpi\n      dup1\n      0x1f\n      lt\n      tag_59\n      jumpi\n      0x0100\n      dup1\n      dup4\n      sload\n      div\n      mul\n      dup4\n      mstore\n      swap2\n      0x20\n      add\n      swap2\n      jump(tag_58)\n    tag_59:\n      dup3\n      add\n      swap2\n      swap1\n      0x00\n      mstore\n      keccak256(0x00, 0x20)\n      swap1\n    tag_60:\n      dup2\n      sload\n      dup2\n      mstore\n      swap1\n      0x01\n      add\n      swap1\n      0x20\n      add\n      dup1\n      dup4\n      gt\n      tag_60\n      jumpi\n      dup3\n      swap1\n      sub\n      0x1f\n      and\n      dup3\n      add\n      swap2\n    tag_58:\n      pop\n      pop\n      pop\n      pop\n      pop\n      swap1\n      dup1\n      0x02\n      add\n      sload\n      swap1\n      dup1\n      0x03\n      add\n      sload\n      swap1\n      dup1\n      0x04\n      add\n      sload\n      swap1\n      pop\n      dup6\n      jump\t// out\n        /* \"6-Venta.sol\":1765:2158  function getSaleHash(string memory _productId) public view returns (bytes32) {... */\n    tag_20:\n        /* \"6-Venta.sol\":1833:1840  bytes32 */\n      0x00\n        /* \"6-Venta.sol\":1852:1869  SaleData memory s */\n      dup1\n        /* \"6-Venta.sol\":1872:1880  saleData */\n      0x00\n        /* \"6-Venta.sol\":1881:1891  _productId */\n      dup4\n        /* \"6-Venta.sol\":1872:1892  saleData[_productId] */\n      mload(0x40)\n      tag_62\n      swap2\n      swap1\n      tag_63\n      jump\t// in\n    tag_62:\n      swap1\n      dup2\n      mstore\n      0x20\n      add\n      mload(0x40)\n      dup1\n      swap2\n      sub\n      swap1\n      keccak256\n        /* \"6-Venta.sol\":1852:1892  SaleData memory s = saleData[_productId] */\n      mload(0x40)\n      dup1\n      0xa0\n      add\n      0x40\n      mstore\n      swap1\n      dup2\n      0x00\n      dup3\n      add\n      dup1\n      sload\n      tag_64\n      swap1\n      tag_51\n      jump\t// in\n    tag_64:\n      dup1\n      0x1f\n      add\n      0x20\n      dup1\n      swap2\n      div\n      mul\n      0x20\n      add\n      mload(0x40)\n      swap1\n      dup2\n      add\n      0x40\n      mstore\n      dup1\n      swap3\n      swap2\n      swap1\n      dup2\n      dup2\n      mstore\n      0x20\n      add\n      dup3\n      dup1\n      sload\n      tag_65\n      swap1\n      tag_51\n      jump\t// in\n    tag_65:\n      dup1\n      iszero\n      tag_66\n      jumpi\n      dup1\n      0x1f\n      lt\n      tag_67\n      jumpi\n      0x0100\n      dup1\n      dup4\n      sload\n      div\n      mul\n      dup4\n      mstore\n      swap2\n      0x20\n      add\n      swap2\n      jump(tag_66)\n    tag_67:\n      dup3\n      add\n      swap2\n      swap1\n      0x00\n      mstore\n      keccak256(0x00, 0x20)\n      swap1\n    tag_68:\n      dup2\n      sload\n      dup2\n      mstore\n      swap1\n      0x01\n      add\n      swap1\n      0x20\n      add\n      dup1\n      dup4\n      gt\n      tag_68\n      jumpi\n      dup3\n      swap1\n      sub\n      0x1f\n      and\n      dup3\n      add\n      swap2\n    tag_66:\n      pop\n      pop\n      pop\n      pop\n      pop\n      dup2\n      mstore\n      0x20\n      add\n      0x01\n      dup3\n      add\n      dup1\n      sload\n      tag_69\n      swap1\n      tag_51\n      jump\t// in\n    tag_69:\n      dup1\n      0x1f\n      add\n      0x20\n      dup1\n      swap2\n      div\n      mul\n      0x20\n      add\n      mload(0x40)\n      swap1\n      dup2\n      add\n      0x40\n      mstore\n      dup1\n      swap3\n      swap2\n      swap1\n      dup2\n      dup2\n      mstore\n      0x20\n      add\n      dup3\n      dup1\n      sload\n      tag_70\n      swap1\n      tag_51\n      jump\t// in\n    tag_70:\n      dup1\n      iszero\n      tag_71\n      jumpi\n      dup1\n      0x1f\n      lt\n      tag_72\n      jumpi\n      0x0100\n      dup1\n      dup4\n      sload\n      div\n      mul\n      dup4\n      mstore\n      swap2\n      0x20\n      add\n      swap2\n      jump(tag_71)\n    tag_72:\n      dup3\n      add\n      swap2\n      swap1\n      0x00\n      mstore\n      keccak256(0x00, 0x20)\n      swap1\n    tag_73:\n      dup2\n      sload\n      dup2\n      mstore\n      swap1\n      0x01\n      add\n      swap1\n      0x20\n      add\n      dup1\n      dup4\n      gt\n      tag_73\n      jumpi\n      dup3\n      swap1\n      sub\n      0x1f\n      and\n      dup3\n      add\n      swap2\n    tag_71:\n      pop\n      pop\n      pop\n      pop\n      pop\n      dup2\n      mstore\n      0x20\n      add\n      0x02\n      dup3\n      add\n      sload\n      dup2\n      mstore\n      0x20\n      add\n      0x03\n      dup3\n      add\n      sload\n      dup2\n      mstore\n      0x20\n      add\n      0x04\n      dup3\n      add\n      sload\n      dup2\n      mstore\n      pop\n      pop\n      swap1\n      pop\n        /* \"6-Venta.sol\":1924:1925  0 */\n      0x00\n        /* \"6-Venta.sol\":1910:1911  s */\n      dup2\n        /* \"6-Venta.sol\":1910:1921  s.timestamp */\n      0x60\n      add\n      mload\n        /* \"6-Venta.sol\":1910:1925  s.timestamp > 0 */\n      gt\n        /* \"6-Venta.sol\":1902:1954  require(s.timestamp > 0, \"Sale data does not exist\") */\n      tag_74\n      jumpi\n      mload(0x40)\n      0x08c379a000000000000000000000000000000000000000000000000000000000\n      dup2\n      mstore\n      0x04\n      add\n      tag_75\n      swap1\n      tag_76\n      jump\t// in\n    tag_75:\n      mload(0x40)\n      dup1\n      swap2\n      sub\n      swap1\n      revert\n    tag_74:\n        /* \"6-Venta.sol\":2020:2021  s */\n      dup1\n        /* \"6-Venta.sol\":2020:2031  s.productId */\n      0x00\n      add\n      mload\n        /* \"6-Venta.sol\":2045:2046  s */\n      dup2\n        /* \"6-Venta.sol\":2045:2056  s.buyerInfo */\n      0x20\n      add\n      mload\n        /* \"6-Venta.sol\":2070:2071  s */\n      dup3\n        /* \"6-Venta.sol\":2070:2082  s.saleAmount */\n      0x40\n      add\n      mload\n        /* \"6-Venta.sol\":2096:2097  s */\n      dup4\n        /* \"6-Venta.sol\":2096:2107  s.timestamp */\n      0x60\n      add\n      mload\n        /* \"6-Venta.sol\":2121:2122  s */\n      dup5\n        /* \"6-Venta.sol\":2121:2140  s.previousStageHash */\n      0x80\n      add\n      mload\n        /* \"6-Venta.sol\":1990:2150  abi.encodePacked(... */\n      add(0x20, mload(0x40))\n      tag_77\n      swap6\n      swap5\n      swap4\n      swap3\n      swap2\n      swap1\n      tag_78\n      jump\t// in\n    tag_77:\n      mload(0x40)\n      0x20\n      dup2\n      dup4\n      sub\n      sub\n      dup2\n      mstore\n      swap1\n      0x40\n      mstore\n        /* \"6-Venta.sol\":1980:2151  keccak256(abi.encodePacked(... */\n      dup1\n      mload\n      swap1\n      0x20\n      add\n      keccak256\n        /* \"6-Venta.sol\":1973:2151  return keccak256(abi.encodePacked(... */\n      swap2\n      pop\n      pop\n        /* \"6-Venta.sol\":1765:2158  function getSaleHash(string memory _productId) public view returns (bytes32) {... */\n      swap2\n      swap1\n      pop\n      jump\t// out\n        /* \"6-Venta.sol\":2168:2629  function getSaleInfo(string memory _productId) public view returns (... */\n    tag_25:\n        /* \"6-Venta.sol\":2245:2268  string memory buyerInfo */\n      0x60\n        /* \"6-Venta.sol\":2278:2296  uint256 saleAmount */\n      0x00\n        /* \"6-Venta.sol\":2306:2323  uint256 timestamp */\n      dup1\n        /* \"6-Venta.sol\":2333:2358  bytes32 previousStageHash */\n      0x00\n        /* \"6-Venta.sol\":2375:2392  SaleData memory s */\n      dup1\n        /* \"6-Venta.sol\":2395:2403  saleData */\n      0x00\n        /* \"6-Venta.sol\":2404:2414  _productId */\n      dup7\n        /* \"6-Venta.sol\":2395:2415  saleData[_productId] */\n      mload(0x40)\n      tag_80\n      swap2\n      swap1\n      tag_63\n      jump\t// in\n    tag_80:\n      swap1\n      dup2\n      mstore\n      0x20\n      add\n      mload(0x40)\n      dup1\n      swap2\n      sub\n      swap1\n      keccak256\n        /* \"6-Venta.sol\":2375:2415  SaleData memory s = saleData[_productId] */\n      mload(0x40)\n      dup1\n      0xa0\n      add\n      0x40\n      mstore\n      swap1\n      dup2\n      0x00\n      dup3\n      add\n      dup1\n      sload\n      tag_81\n      swap1\n      tag_51\n      jump\t// in\n    tag_81:\n      dup1\n      0x1f\n      add\n      0x20\n      dup1\n      swap2\n      div\n      mul\n      0x20\n      add\n      mload(0x40)\n      swap1\n      dup2\n      add\n      0x40\n      mstore\n      dup1\n      swap3\n      swap2\n      swap1\n      dup2\n      dup2\n      mstore\n      0x20\n      add\n      dup3\n      dup1\n      sload\n      tag_82\n      swap1\n      tag_51\n      jump\t// in\n    tag_82:\n      dup1\n      iszero\n      tag_83\n      jumpi\n      dup1\n      0x1f\n      lt\n      tag_84\n      jumpi\n      0x0100\n      dup1\n      dup4\n      sload\n      div\n      mul\n      dup4\n      mstore\n      swap2\n      0x20\n      add\n      swap2\n      jump(tag_83)\n    tag_84:\n      dup3\n      add\n      swap2\n      swap1\n      0x00\n      mstore\n      keccak256(0x00, 0x20)\n      swap1\n    tag_85:\n      dup2\n      sload\n      dup2\n      mstore\n      swap1\n      0x01\n      add\n      swap1\n      0x20\n      add\n      dup1\n      dup4\n      gt\n      tag_85\n      jumpi\n      dup3\n      swap1\n      sub\n      0x1f\n      and\n      dup3\n      add\n      swap2\n    tag_83:\n      pop\n      pop\n      pop\n      pop\n      pop\n      dup2\n      mstore\n      0x20\n      add\n      0x01\n      dup3\n      add\n      dup1\n      sload\n      tag_86\n      swap1\n      tag_51\n      jump\t// in\n    tag_86:\n      dup1\n      0x1f\n      add\n      0x20\n      dup1\n      swap2\n      div\n      mul\n      0x20\n      add\n      mload(0x40)\n      swap1\n      dup2\n      add\n      0x40\n      mstore\n      dup1\n      swap3\n      swap2\n      swap1\n      dup2\n      dup2\n      mstore\n      0x20\n      add\n      dup3\n      dup1\n      sload\n      tag_87\n      swap1\n      tag_51\n      jump\t// in\n    tag_87:\n      dup1\n      iszero\n      tag_88\n      jumpi\n      dup1\n      0x1f\n      lt\n      tag_89\n      jumpi\n      0x0100\n      dup1\n      dup4\n      sload\n      div\n      mul\n      dup4\n      mstore\n      swap2\n      0x20\n      add\n      swap2\n      jump(tag_88)\n    tag_89:\n      dup3\n      add\n      swap2\n      swap1\n      0x00\n      mstore\n      keccak256(0x00, 0x20)\n      swap1\n    tag_90:\n      dup2\n      sload\n      dup2\n      mstore\n      swap1\n      0x01\n      add\n      swap1\n      0x20\n      add\n      dup1\n      dup4\n      gt\n      tag_90\n      jumpi\n      dup3\n      swap1\n      sub\n      0x1f\n      and\n      dup3\n      add\n      swap2\n    tag_88:\n      pop\n      pop\n      pop\n      pop\n      pop\n      dup2\n      mstore\n      0x20\n      add\n      0x02\n      dup3\n      add\n      sload\n      dup2\n      mstore\n      0x20\n      add\n      0x03\n      dup3\n      add\n      sload\n      dup2\n      mstore\n      0x20\n      add\n      0x04\n      dup3\n      add\n      sload\n      dup2\n      mstore\n      pop\n      pop\n      swap1\n      pop\n        /* \"6-Venta.sol\":2447:2448  0 */\n      0x00\n        /* \"6-Venta.sol\":2433:2434  s */\n      dup2\n        /* \"6-Venta.sol\":2433:2444  s.timestamp */\n      0x60\n      add\n      mload\n        /* \"6-Venta.sol\":2433:2448  s.timestamp > 0 */\n      gt\n        /* \"6-Venta.sol\":2425:2477  require(s.timestamp > 0, \"Sale data does not exist\") */\n      tag_91\n      jumpi\n      mload(0x40)\n      0x08c379a000000000000000000000000000000000000000000000000000000000\n      dup2\n      mstore\n      0x04\n      add\n      tag_92\n      swap1\n      tag_76\n      jump\t// in\n    tag_92:\n      mload(0x40)\n      dup1\n      swap2\n      sub\n      swap1\n      revert\n    tag_91:\n        /* \"6-Venta.sol\":2517:2518  s */\n      dup1\n        /* \"6-Venta.sol\":2517:2528  s.buyerInfo */\n      0x20\n      add\n      mload\n        /* \"6-Venta.sol\":2542:2543  s */\n      dup2\n        /* \"6-Venta.sol\":2542:2554  s.saleAmount */\n      0x40\n      add\n      mload\n        /* \"6-Venta.sol\":2568:2569  s */\n      dup3\n        /* \"6-Venta.sol\":2568:2579  s.timestamp */\n      0x60\n      add\n      mload\n        /* \"6-Venta.sol\":2593:2594  s */\n      dup4\n        /* \"6-Venta.sol\":2593:2612  s.previousStageHash */\n      0x80\n      add\n      mload\n        /* \"6-Venta.sol\":2496:2622  return (... */\n      swap5\n      pop\n      swap5\n      pop\n      swap5\n      pop\n      swap5\n      pop\n      pop\n        /* \"6-Venta.sol\":2168:2629  function getSaleInfo(string memory _productId) public view returns (... */\n      swap2\n      swap4\n      pop\n      swap2\n      swap4\n      jump\t// out\n        /* \"6-Venta.sol\":405:438  string[] public allSoldProductIds */\n    tag_31:\n      0x01\n      dup2\n      dup2\n      sload\n      dup2\n      lt\n      tag_93\n      jumpi\n      0x00\n      dup1\n      revert\n    tag_93:\n      swap1\n      0x00\n      mstore\n      keccak256(0x00, 0x20)\n      add\n      0x00\n      swap2\n      pop\n      swap1\n      pop\n      dup1\n      sload\n      tag_95\n      swap1\n      tag_51\n      jump\t// in\n    tag_95:\n      dup1\n      0x1f\n      add\n      0x20\n      dup1\n      swap2\n      div\n      mul\n      0x20\n      add\n      mload(0x40)\n      swap1\n      dup2\n      add\n      0x40\n      mstore\n      dup1\n      swap3\n      swap2\n      swap1\n      dup2\n      dup2\n      mstore\n      0x20\n      add\n      dup3\n      dup1\n      sload\n      tag_96\n      swap1\n      tag_51\n      jump\t// in\n    tag_96:\n      dup1\n      iszero\n      tag_97\n      jumpi\n      dup1\n      0x1f\n      lt\n      tag_98\n      jumpi\n      0x0100\n      dup1\n      dup4\n      sload\n      div\n      mul\n      dup4\n      mstore\n      swap2\n      0x20\n      add\n      swap2\n      jump(tag_97)\n    tag_98:\n      dup3\n      add\n      swap2\n      swap1\n      0x00\n      mstore\n      keccak256(0x00, 0x20)\n      swap1\n    tag_99:\n      dup2\n      sload\n      dup2\n      mstore\n      swap1\n      0x01\n      add\n      swap1\n      0x20\n      add\n      dup1\n      dup4\n      gt\n      tag_99\n      jumpi\n      dup3\n      swap1\n      sub\n      0x1f\n      and\n      dup3\n      add\n      swap2\n    tag_97:\n      pop\n      pop\n      pop\n      pop\n      pop\n      dup2\n      jump\t// out\n        /* \"6-Venta.sol\":762:1755  function recordSale(... */\n    tag_37:\n        /* \"6-Venta.sol\":944:945  0 */\n      0x00\n        /* \"6-Venta.sol\":910:918  saleData */\n      dup1\n        /* \"6-Venta.sol\":919:929  _productId */\n      dup5\n        /* \"6-Venta.sol\":910:930  saleData[_productId] */\n      mload(0x40)\n      tag_101\n      swap2\n      swap1\n      tag_63\n      jump\t// in\n    tag_101:\n      swap1\n      dup2\n      mstore\n      0x20\n      add\n      mload(0x40)\n      dup1\n      swap2\n      sub\n      swap1\n      keccak256\n        /* \"6-Venta.sol\":910:940  saleData[_productId].timestamp */\n      0x03\n      add\n      sload\n        /* \"6-Venta.sol\":910:945  saleData[_productId].timestamp == 0 */\n      eq\n        /* \"6-Venta.sol\":902:988  require(saleData[_productId].timestamp == 0, \"Sale already recorded for this product\") */\n      tag_102\n      jumpi\n      mload(0x40)\n      0x08c379a000000000000000000000000000000000000000000000000000000000\n      dup2\n      mstore\n      0x04\n      add\n      tag_103\n      swap1\n      tag_104\n      jump\t// in\n    tag_103:\n      mload(0x40)\n      dup1\n      swap2\n      sub\n      swap1\n      revert\n    tag_102:\n        /* \"6-Venta.sol\":1006:1018  distribucion */\n      0x03\n      0x00\n      swap1\n      sload\n      swap1\n      0x0100\n      exp\n      swap1\n      div\n      0xffffffffffffffffffffffffffffffffffffffff\n      and\n        /* \"6-Venta.sol\":1006:1035  distribucion.isValidProductId */\n      0xffffffffffffffffffffffffffffffffffffffff\n      and\n      0x707e31c4\n        /* \"6-Venta.sol\":1036:1046  _productId */\n      dup5\n        /* \"6-Venta.sol\":1006:1047  distribucion.isValidProductId(_productId) */\n      mload(0x40)\n      dup3\n      0xffffffff\n      and\n      0xe0\n      shl\n      dup2\n      mstore\n      0x04\n      add\n      tag_105\n      swap2\n      swap1\n      tag_33\n      jump\t// in\n    tag_105:\n      0x20\n      mload(0x40)\n      dup1\n      dup4\n      sub\n      dup2\n      dup7\n      gas\n      staticcall\n      iszero\n      dup1\n      iszero\n      tag_107\n      jumpi\n      returndatasize\n      0x00\n      dup1\n      returndatacopy\n      revert(0x00, returndatasize)\n    tag_107:\n      pop\n      pop\n      pop\n      pop\n      mload(0x40)\n      returndatasize\n      not(0x1f)\n      0x1f\n      dup3\n      add\n      and\n      dup3\n      add\n      dup1\n      0x40\n      mstore\n      pop\n      dup2\n      add\n      swap1\n      tag_108\n      swap2\n      swap1\n      tag_109\n      jump\t// in\n    tag_108:\n        /* \"6-Venta.sol\":998:1070  require(distribucion.isValidProductId(_productId), \"Invalid product ID\") */\n      tag_110\n      jumpi\n      mload(0x40)\n      0x08c379a000000000000000000000000000000000000000000000000000000000\n      dup2\n      mstore\n      0x04\n      add\n      tag_111\n      swap1\n      tag_112\n      jump\t// in\n    tag_111:\n      mload(0x40)\n      dup1\n      swap2\n      sub\n      swap1\n      revert\n    tag_110:\n        /* \"6-Venta.sol\":1248:1268  bytes32 previousHash */\n      0x00\n        /* \"6-Venta.sol\":1298:1308  _productId */\n      dup4\n        /* \"6-Venta.sol\":1310:1329  distribucionAddress */\n      0x02\n      0x00\n      swap1\n      sload\n      swap1\n      0x0100\n      exp\n      swap1\n      div\n      0xffffffffffffffffffffffffffffffffffffffff\n      and\n        /* \"6-Venta.sol\":1281:1330  abi.encodePacked(_productId, distribucionAddress) */\n      add(0x20, mload(0x40))\n      tag_113\n      swap3\n      swap2\n      swap1\n      tag_114\n      jump\t// in\n    tag_113:\n      mload(0x40)\n      0x20\n      dup2\n      dup4\n      sub\n      sub\n      dup2\n      mstore\n      swap1\n      0x40\n      mstore\n        /* \"6-Venta.sol\":1271:1331  keccak256(abi.encodePacked(_productId, distribucionAddress)) */\n      dup1\n      mload\n      swap1\n      0x20\n      add\n      keccak256\n        /* \"6-Venta.sol\":1248:1331  bytes32 previousHash = keccak256(abi.encodePacked(_productId, distribucionAddress)) */\n      swap1\n      pop\n        /* \"6-Venta.sol\":1373:1585  SaleData({... */\n      mload(0x40)\n      dup1\n      0xa0\n      add\n      0x40\n      mstore\n      dup1\n        /* \"6-Venta.sol\":1407:1417  _productId */\n      dup6\n        /* \"6-Venta.sol\":1373:1585  SaleData({... */\n      dup2\n      mstore\n      0x20\n      add\n        /* \"6-Venta.sol\":1442:1452  _buyerInfo */\n      dup5\n        /* \"6-Venta.sol\":1373:1585  SaleData({... */\n      dup2\n      mstore\n      0x20\n      add\n        /* \"6-Venta.sol\":1478:1489  _saleAmount */\n      dup4\n        /* \"6-Venta.sol\":1373:1585  SaleData({... */\n      dup2\n      mstore\n      0x20\n      add\n        /* \"6-Venta.sol\":1514:1529  block.timestamp */\n      timestamp\n        /* \"6-Venta.sol\":1373:1585  SaleData({... */\n      dup2\n      mstore\n      0x20\n      add\n        /* \"6-Venta.sol\":1562:1574  previousHash */\n      dup3\n        /* \"6-Venta.sol\":1373:1585  SaleData({... */\n      dup2\n      mstore\n      pop\n        /* \"6-Venta.sol\":1350:1358  saleData */\n      0x00\n        /* \"6-Venta.sol\":1359:1369  _productId */\n      dup6\n        /* \"6-Venta.sol\":1350:1370  saleData[_productId] */\n      mload(0x40)\n      tag_115\n      swap2\n      swap1\n      tag_63\n      jump\t// in\n    tag_115:\n      swap1\n      dup2\n      mstore\n      0x20\n      add\n      mload(0x40)\n      dup1\n      swap2\n      sub\n      swap1\n      keccak256\n        /* \"6-Venta.sol\":1350:1585  saleData[_productId] = SaleData({... */\n      0x00\n      dup3\n      add\n      mload\n      dup2\n      0x00\n      add\n      swap1\n      dup2\n      tag_116\n      swap2\n      swap1\n      tag_117\n      jump\t// in\n    tag_116:\n      pop\n      0x20\n      dup3\n      add\n      mload\n      dup2\n      0x01\n      add\n      swap1\n      dup2\n      tag_118\n      swap2\n      swap1\n      tag_117\n      jump\t// in\n    tag_118:\n      pop\n      0x40\n      dup3\n      add\n      mload\n      dup2\n      0x02\n      add\n      sstore\n      0x60\n      dup3\n      add\n      mload\n      dup2\n      0x03\n      add\n      sstore\n      0x80\n      dup3\n      add\n      mload\n      dup2\n      0x04\n      add\n      sstore\n      swap1\n      pop\n      pop\n        /* \"6-Venta.sol\":1604:1621  allSoldProductIds */\n      0x01\n        /* \"6-Venta.sol\":1627:1637  _productId */\n      dup5\n        /* \"6-Venta.sol\":1604:1638  allSoldProductIds.push(_productId) */\n      swap1\n      dup1\n      0x01\n      dup2\n      sload\n      add\n      dup1\n      dup3\n      sstore\n      dup1\n      swap2\n      pop\n      pop\n      0x01\n      swap1\n      sub\n      swap1\n      0x00\n      mstore\n      keccak256(0x00, 0x20)\n      add\n      0x00\n      swap1\n      swap2\n      swap1\n      swap2\n      swap1\n      swap2\n      pop\n      swap1\n      dup2\n      tag_120\n      swap2\n      swap1\n      tag_117\n      jump\t// in\n    tag_120:\n      pop\n        /* \"6-Venta.sol\":1657:1673  bytes32 saleHash */\n      0x00\n        /* \"6-Venta.sol\":1676:1699  getSaleHash(_productId) */\n      tag_121\n        /* \"6-Venta.sol\":1688:1698  _productId */\n      dup6\n        /* \"6-Venta.sol\":1676:1687  getSaleHash */\n      tag_20\n        /* \"6-Venta.sol\":1676:1699  getSaleHash(_productId) */\n      jump\t// in\n    tag_121:\n        /* \"6-Venta.sol\":1657:1699  bytes32 saleHash = getSaleHash(_productId) */\n      swap1\n      pop\n        /* \"6-Venta.sol\":1714:1748  SaleRecorded(_productId, saleHash) */\n      0x2613a5d54a5f7e4fd329bd53071bc2bd6c5350fee0392cfa1787a095976cb78e\n        /* \"6-Venta.sol\":1727:1737  _productId */\n      dup6\n        /* \"6-Venta.sol\":1739:1747  saleHash */\n      dup3\n        /* \"6-Venta.sol\":1714:1748  SaleRecorded(_productId, saleHash) */\n      mload(0x40)\n      tag_122\n      swap3\n      swap2\n      swap1\n      tag_123\n      jump\t// in\n    tag_122:\n      mload(0x40)\n      dup1\n      swap2\n      sub\n      swap1\n      log1\n        /* \"6-Venta.sol\":892:1755  {... */\n      pop\n      pop\n        /* \"6-Venta.sol\":762:1755  function recordSale(... */\n      pop\n      pop\n      pop\n      jump\t// out\n        /* \"6-Venta.sol\":2760:2870  function getTotalSoldProducts() public view returns (uint256) {... */\n    tag_39:\n        /* \"6-Venta.sol\":2813:2820  uint256 */\n      0x00\n        /* \"6-Venta.sol\":2839:2856  allSoldProductIds */\n      0x01\n        /* \"6-Venta.sol\":2839:2863  allSoldProductIds.length */\n      dup1\n      sload\n      swap1\n      pop\n        /* \"6-Venta.sol\":2832:2863  return allSoldProductIds.length */\n      swap1\n      pop\n        /* \"6-Venta.sol\":2760:2870  function getTotalSoldProducts() public view returns (uint256) {... */\n      swap1\n      jump\t// out\n        /* \"6-Venta.sol\":2639:2750  function getAllSoldProductIds() public view returns (string[] memory) {... */\n    tag_43:\n        /* \"6-Venta.sol\":2692:2707  string[] memory */\n      0x60\n        /* \"6-Venta.sol\":2726:2743  allSoldProductIds */\n      0x01\n        /* \"6-Venta.sol\":2719:2743  return allSoldProductIds */\n      dup1\n      sload\n      dup1\n      0x20\n      mul\n      0x20\n      add\n      mload(0x40)\n      swap1\n      dup2\n      add\n      0x40\n      mstore\n      dup1\n      swap3\n      swap2\n      swap1\n      dup2\n      dup2\n      mstore\n      0x20\n      add\n      0x00\n      swap1\n    tag_126:\n      dup3\n      dup3\n      lt\n      iszero\n      tag_127\n      jumpi\n      dup4\n      dup3\n      swap1\n      0x00\n      mstore\n      keccak256(0x00, 0x20)\n      add\n      dup1\n      sload\n      tag_129\n      swap1\n      tag_51\n      jump\t// in\n    tag_129:\n      dup1\n      0x1f\n      add\n      0x20\n      dup1\n      swap2\n      div\n      mul\n      0x20\n      add\n      mload(0x40)\n      swap1\n      dup2\n      add\n      0x40\n      mstore\n      dup1\n      swap3\n      swap2\n      swap1\n      dup2\n      dup2\n      mstore\n      0x20\n      add\n      dup3\n      dup1\n      sload\n      tag_130\n      swap1\n      tag_51\n      jump\t// in\n    tag_130:\n      dup1\n      iszero\n      tag_131\n      jumpi\n      dup1\n      0x1f\n      lt\n      tag_132\n      jumpi\n      0x0100\n      dup1\n      dup4\n      sload\n      div\n      mul\n      dup4\n      mstore\n      swap2\n      0x20\n      add\n      swap2\n      jump(tag_131)\n    tag_132:\n      dup3\n      add\n      swap2\n      swap1\n      0x00\n      mstore\n      keccak256(0x00, 0x20)\n      swap1\n    tag_133:\n      dup2\n      sload\n      dup2\n      mstore\n      swap1\n      0x01\n      add\n      swap1\n      0x20\n      add\n      dup1\n      dup4\n      gt\n      tag_133\n      jumpi\n      dup3\n      swap1\n      sub\n      0x1f\n      and\n      dup3\n      add\n      swap2\n    tag_131:\n      pop\n      pop\n      pop\n      pop\n      pop\n      dup2\n      mstore\n      0x20\n      add\n      swap1\n      0x01\n      add\n      swap1\n      jump(tag_126)\n    tag_127:\n      pop\n      pop\n      pop\n      pop\n      swap1\n      pop\n        /* \"6-Venta.sol\":2639:2750  function getAllSoldProductIds() public view returns (string[] memory) {... */\n      swap1\n      jump\t// out\n        /* \"6-Venta.sol\":449:483  address public distribucionAddress */\n    tag_47:\n      0x02\n      0x00\n      swap1\n      sload\n      swap1\n      0x0100\n      exp\n      swap1\n      div\n      0xffffffffffffffffffffffffffffffffffffffff\n      and\n      dup2\n      jump\t// out\n        /* \"#utility.yul\":7:82   */\n    tag_134:\n        /* \"#utility.yul\":40:46   */\n      0x00\n        /* \"#utility.yul\":73:75   */\n      0x40\n        /* \"#utility.yul\":67:76   */\n      mload\n        /* \"#utility.yul\":57:76   */\n      swap1\n      pop\n        /* \"#utility.yul\":7:82   */\n      swap1\n      jump\t// out\n        /* \"#utility.yul\":88:205   */\n    tag_135:\n        /* \"#utility.yul\":197:198   */\n      0x00\n        /* \"#utility.yul\":194:195   */\n      dup1\n        /* \"#utility.yul\":187:199   */\n      revert\n        /* \"#utility.yul\":211:328   */\n    tag_136:\n        /* \"#utility.yul\":320:321   */\n      0x00\n        /* \"#utility.yul\":317:318   */\n      dup1\n        /* \"#utility.yul\":310:322   */\n      revert\n        /* \"#utility.yul\":334:451   */\n    tag_137:\n        /* \"#utility.yul\":443:444   */\n      0x00\n        /* \"#utility.yul\":440:441   */\n      dup1\n        /* \"#utility.yul\":433:445   */\n      revert\n        /* \"#utility.yul\":457:574   */\n    tag_138:\n        /* \"#utility.yul\":566:567   */\n      0x00\n        /* \"#utility.yul\":563:564   */\n      dup1\n        /* \"#utility.yul\":556:568   */\n      revert\n        /* \"#utility.yul\":580:682   */\n    tag_139:\n        /* \"#utility.yul\":621:627   */\n      0x00\n        /* \"#utility.yul\":672:674   */\n      0x1f\n        /* \"#utility.yul\":668:675   */\n      not\n        /* \"#utility.yul\":663:665   */\n      0x1f\n        /* \"#utility.yul\":656:661   */\n      dup4\n        /* \"#utility.yul\":652:666   */\n      add\n        /* \"#utility.yul\":648:676   */\n      and\n        /* \"#utility.yul\":638:676   */\n      swap1\n      pop\n        /* \"#utility.yul\":580:682   */\n      swap2\n      swap1\n      pop\n      jump\t// out\n        /* \"#utility.yul\":688:868   */\n    tag_140:\n        /* \"#utility.yul\":736:813   */\n      0x4e487b7100000000000000000000000000000000000000000000000000000000\n        /* \"#utility.yul\":733:734   */\n      0x00\n        /* \"#utility.yul\":726:814   */\n      mstore\n        /* \"#utility.yul\":833:837   */\n      0x41\n        /* \"#utility.yul\":830:831   */\n      0x04\n        /* \"#utility.yul\":823:838   */\n      mstore\n        /* \"#utility.yul\":857:861   */\n      0x24\n        /* \"#utility.yul\":854:855   */\n      0x00\n        /* \"#utility.yul\":847:862   */\n      revert\n        /* \"#utility.yul\":874:1155   */\n    tag_141:\n        /* \"#utility.yul\":957:984   */\n      tag_212\n        /* \"#utility.yul\":979:983   */\n      dup3\n        /* \"#utility.yul\":957:984   */\n      tag_139\n      jump\t// in\n    tag_212:\n        /* \"#utility.yul\":949:955   */\n      dup2\n        /* \"#utility.yul\":945:985   */\n      add\n        /* \"#utility.yul\":1087:1093   */\n      dup2\n        /* \"#utility.yul\":1075:1085   */\n      dup2\n        /* \"#utility.yul\":1072:1094   */\n      lt\n        /* \"#utility.yul\":1051:1069   */\n      0xffffffffffffffff\n        /* \"#utility.yul\":1039:1049   */\n      dup3\n        /* \"#utility.yul\":1036:1070   */\n      gt\n        /* \"#utility.yul\":1033:1095   */\n      or\n        /* \"#utility.yul\":1030:1118   */\n      iszero\n      tag_213\n      jumpi\n        /* \"#utility.yul\":1098:1116   */\n      tag_214\n      tag_140\n      jump\t// in\n    tag_214:\n        /* \"#utility.yul\":1030:1118   */\n    tag_213:\n        /* \"#utility.yul\":1138:1148   */\n      dup1\n        /* \"#utility.yul\":1134:1136   */\n      0x40\n        /* \"#utility.yul\":1127:1149   */\n      mstore\n        /* \"#utility.yul\":917:1155   */\n      pop\n        /* \"#utility.yul\":874:1155   */\n      pop\n      pop\n      jump\t// out\n        /* \"#utility.yul\":1161:1290   */\n    tag_142:\n        /* \"#utility.yul\":1195:1201   */\n      0x00\n        /* \"#utility.yul\":1222:1242   */\n      tag_216\n      tag_134\n      jump\t// in\n    tag_216:\n        /* \"#utility.yul\":1212:1242   */\n      swap1\n      pop\n        /* \"#utility.yul\":1251:1284   */\n      tag_217\n        /* \"#utility.yul\":1279:1283   */\n      dup3\n        /* \"#utility.yul\":1271:1277   */\n      dup3\n        /* \"#utility.yul\":1251:1284   */\n      tag_141\n      jump\t// in\n    tag_217:\n        /* \"#utility.yul\":1161:1290   */\n      swap2\n      swap1\n      pop\n      jump\t// out\n        /* \"#utility.yul\":1296:1604   */\n    tag_143:\n        /* \"#utility.yul\":1358:1362   */\n      0x00\n        /* \"#utility.yul\":1448:1466   */\n      0xffffffffffffffff\n        /* \"#utility.yul\":1440:1446   */\n      dup3\n        /* \"#utility.yul\":1437:1467   */\n      gt\n        /* \"#utility.yul\":1434:1490   */\n      iszero\n      tag_219\n      jumpi\n        /* \"#utility.yul\":1470:1488   */\n      tag_220\n      tag_140\n      jump\t// in\n    tag_220:\n        /* \"#utility.yul\":1434:1490   */\n    tag_219:\n        /* \"#utility.yul\":1508:1537   */\n      tag_221\n        /* \"#utility.yul\":1530:1536   */\n      dup3\n        /* \"#utility.yul\":1508:1537   */\n      tag_139\n      jump\t// in\n    tag_221:\n        /* \"#utility.yul\":1500:1537   */\n      swap1\n      pop\n        /* \"#utility.yul\":1592:1596   */\n      0x20\n        /* \"#utility.yul\":1586:1590   */\n      dup2\n        /* \"#utility.yul\":1582:1597   */\n      add\n        /* \"#utility.yul\":1574:1597   */\n      swap1\n      pop\n        /* \"#utility.yul\":1296:1604   */\n      swap2\n      swap1\n      pop\n      jump\t// out\n        /* \"#utility.yul\":1610:1758   */\n    tag_144:\n        /* \"#utility.yul\":1708:1714   */\n      dup3\n        /* \"#utility.yul\":1703:1706   */\n      dup2\n        /* \"#utility.yul\":1698:1701   */\n      dup4\n        /* \"#utility.yul\":1685:1715   */\n      calldatacopy\n        /* \"#utility.yul\":1749:1750   */\n      0x00\n        /* \"#utility.yul\":1740:1746   */\n      dup4\n        /* \"#utility.yul\":1735:1738   */\n      dup4\n        /* \"#utility.yul\":1731:1747   */\n      add\n        /* \"#utility.yul\":1724:1751   */\n      mstore\n        /* \"#utility.yul\":1610:1758   */\n      pop\n      pop\n      pop\n      jump\t// out\n        /* \"#utility.yul\":1764:2189   */\n    tag_145:\n        /* \"#utility.yul\":1842:1847   */\n      0x00\n        /* \"#utility.yul\":1867:1933   */\n      tag_224\n        /* \"#utility.yul\":1883:1932   */\n      tag_225\n        /* \"#utility.yul\":1925:1931   */\n      dup5\n        /* \"#utility.yul\":1883:1932   */\n      tag_143\n      jump\t// in\n    tag_225:\n        /* \"#utility.yul\":1867:1933   */\n      tag_142\n      jump\t// in\n    tag_224:\n        /* \"#utility.yul\":1858:1933   */\n      swap1\n      pop\n        /* \"#utility.yul\":1956:1962   */\n      dup3\n        /* \"#utility.yul\":1949:1954   */\n      dup2\n        /* \"#utility.yul\":1942:1963   */\n      mstore\n        /* \"#utility.yul\":1994:1998   */\n      0x20\n        /* \"#utility.yul\":1987:1992   */\n      dup2\n        /* \"#utility.yul\":1983:1999   */\n      add\n        /* \"#utility.yul\":2032:2035   */\n      dup5\n        /* \"#utility.yul\":2023:2029   */\n      dup5\n        /* \"#utility.yul\":2018:2021   */\n      dup5\n        /* \"#utility.yul\":2014:2030   */\n      add\n        /* \"#utility.yul\":2011:2036   */\n      gt\n        /* \"#utility.yul\":2008:2120   */\n      iszero\n      tag_226\n      jumpi\n        /* \"#utility.yul\":2039:2118   */\n      tag_227\n      tag_138\n      jump\t// in\n    tag_227:\n        /* \"#utility.yul\":2008:2120   */\n    tag_226:\n        /* \"#utility.yul\":2129:2183   */\n      tag_228\n        /* \"#utility.yul\":2176:2182   */\n      dup5\n        /* \"#utility.yul\":2171:2174   */\n      dup3\n        /* \"#utility.yul\":2166:2169   */\n      dup6\n        /* \"#utility.yul\":2129:2183   */\n      tag_144\n      jump\t// in\n    tag_228:\n        /* \"#utility.yul\":1848:2189   */\n      pop\n        /* \"#utility.yul\":1764:2189   */\n      swap4\n      swap3\n      pop\n      pop\n      pop\n      jump\t// out\n        /* \"#utility.yul\":2209:2549   */\n    tag_146:\n        /* \"#utility.yul\":2265:2270   */\n      0x00\n        /* \"#utility.yul\":2314:2317   */\n      dup3\n        /* \"#utility.yul\":2307:2311   */\n      0x1f\n        /* \"#utility.yul\":2299:2305   */\n      dup4\n        /* \"#utility.yul\":2295:2312   */\n      add\n        /* \"#utility.yul\":2291:2318   */\n      slt\n        /* \"#utility.yul\":2281:2403   */\n      tag_230\n      jumpi\n        /* \"#utility.yul\":2322:2401   */\n      tag_231\n      tag_137\n      jump\t// in\n    tag_231:\n        /* \"#utility.yul\":2281:2403   */\n    tag_230:\n        /* \"#utility.yul\":2439:2445   */\n      dup2\n        /* \"#utility.yul\":2426:2446   */\n      calldataload\n        /* \"#utility.yul\":2464:2543   */\n      tag_232\n        /* \"#utility.yul\":2539:2542   */\n      dup5\n        /* \"#utility.yul\":2531:2537   */\n      dup3\n        /* \"#utility.yul\":2524:2528   */\n      0x20\n        /* \"#utility.yul\":2516:2522   */\n      dup7\n        /* \"#utility.yul\":2512:2529   */\n      add\n        /* \"#utility.yul\":2464:2543   */\n      tag_145\n      jump\t// in\n    tag_232:\n        /* \"#utility.yul\":2455:2543   */\n      swap2\n      pop\n        /* \"#utility.yul\":2271:2549   */\n      pop\n        /* \"#utility.yul\":2209:2549   */\n      swap3\n      swap2\n      pop\n      pop\n      jump\t// out\n        /* \"#utility.yul\":2555:3064   */\n    tag_14:\n        /* \"#utility.yul\":2624:2630   */\n      0x00\n        /* \"#utility.yul\":2673:2675   */\n      0x20\n        /* \"#utility.yul\":2661:2670   */\n      dup3\n        /* \"#utility.yul\":2652:2659   */\n      dup5\n        /* \"#utility.yul\":2648:2671   */\n      sub\n        /* \"#utility.yul\":2644:2676   */\n      slt\n        /* \"#utility.yul\":2641:2760   */\n      iszero\n      tag_234\n      jumpi\n        /* \"#utility.yul\":2679:2758   */\n      tag_235\n      tag_135\n      jump\t// in\n    tag_235:\n        /* \"#utility.yul\":2641:2760   */\n    tag_234:\n        /* \"#utility.yul\":2827:2828   */\n      0x00\n        /* \"#utility.yul\":2816:2825   */\n      dup3\n        /* \"#utility.yul\":2812:2829   */\n      add\n        /* \"#utility.yul\":2799:2830   */\n      calldataload\n        /* \"#utility.yul\":2857:2875   */\n      0xffffffffffffffff\n        /* \"#utility.yul\":2849:2855   */\n      dup2\n        /* \"#utility.yul\":2846:2876   */\n      gt\n        /* \"#utility.yul\":2843:2960   */\n      iszero\n      tag_236\n      jumpi\n        /* \"#utility.yul\":2879:2958   */\n      tag_237\n      tag_136\n      jump\t// in\n    tag_237:\n        /* \"#utility.yul\":2843:2960   */\n    tag_236:\n        /* \"#utility.yul\":2984:3047   */\n      tag_238\n        /* \"#utility.yul\":3039:3046   */\n      dup5\n        /* \"#utility.yul\":3030:3036   */\n      dup3\n        /* \"#utility.yul\":3019:3028   */\n      dup6\n        /* \"#utility.yul\":3015:3037   */\n      add\n        /* \"#utility.yul\":2984:3047   */\n      tag_146\n      jump\t// in\n    tag_238:\n        /* \"#utility.yul\":2974:3047   */\n      swap2\n      pop\n        /* \"#utility.yul\":2770:3057   */\n      pop\n        /* \"#utility.yul\":2555:3064   */\n      swap3\n      swap2\n      pop\n      pop\n      jump\t// out\n        /* \"#utility.yul\":3070:3169   */\n    tag_147:\n        /* \"#utility.yul\":3122:3128   */\n      0x00\n        /* \"#utility.yul\":3156:3161   */\n      dup2\n        /* \"#utility.yul\":3150:3162   */\n      mload\n        /* \"#utility.yul\":3140:3162   */\n      swap1\n      pop\n        /* \"#utility.yul\":3070:3169   */\n      swap2\n      swap1\n      pop\n      jump\t// out\n        /* \"#utility.yul\":3175:3344   */\n    tag_148:\n        /* \"#utility.yul\":3259:3270   */\n      0x00\n        /* \"#utility.yul\":3293:3299   */\n      dup3\n        /* \"#utility.yul\":3288:3291   */\n      dup3\n        /* \"#utility.yul\":3281:3300   */\n      mstore\n        /* \"#utility.yul\":3333:3337   */\n      0x20\n        /* \"#utility.yul\":3328:3331   */\n      dup3\n        /* \"#utility.yul\":3324:3338   */\n      add\n        /* \"#utility.yul\":3309:3338   */\n      swap1\n      pop\n        /* \"#utility.yul\":3175:3344   */\n      swap3\n      swap2\n      pop\n      pop\n      jump\t// out\n        /* \"#utility.yul\":3350:3489   */\n    tag_149:\n        /* \"#utility.yul\":3439:3445   */\n      dup3\n        /* \"#utility.yul\":3434:3437   */\n      dup2\n        /* \"#utility.yul\":3429:3432   */\n      dup4\n        /* \"#utility.yul\":3423:3446   */\n      mcopy\n        /* \"#utility.yul\":3480:3481   */\n      0x00\n        /* \"#utility.yul\":3471:3477   */\n      dup4\n        /* \"#utility.yul\":3466:3469   */\n      dup4\n        /* \"#utility.yul\":3462:3478   */\n      add\n        /* \"#utility.yul\":3455:3482   */\n      mstore\n        /* \"#utility.yul\":3350:3489   */\n      pop\n      pop\n      pop\n      jump\t// out\n        /* \"#utility.yul\":3495:3872   */\n    tag_150:\n        /* \"#utility.yul\":3583:3586   */\n      0x00\n        /* \"#utility.yul\":3611:3650   */\n      tag_243\n        /* \"#utility.yul\":3644:3649   */\n      dup3\n        /* \"#utility.yul\":3611:3650   */\n      tag_147\n      jump\t// in\n    tag_243:\n        /* \"#utility.yul\":3666:3737   */\n      tag_244\n        /* \"#utility.yul\":3730:3736   */\n      dup2\n        /* \"#utility.yul\":3725:3728   */\n      dup6\n        /* \"#utility.yul\":3666:3737   */\n      tag_148\n      jump\t// in\n    tag_244:\n        /* \"#utility.yul\":3659:3737   */\n      swap4\n      pop\n        /* \"#utility.yul\":3746:3811   */\n      tag_245\n        /* \"#utility.yul\":3804:3810   */\n      dup2\n        /* \"#utility.yul\":3799:3802   */\n      dup6\n        /* \"#utility.yul\":3792:3796   */\n      0x20\n        /* \"#utility.yul\":3785:3790   */\n      dup7\n        /* \"#utility.yul\":3781:3797   */\n      add\n        /* \"#utility.yul\":3746:3811   */\n      tag_149\n      jump\t// in\n    tag_245:\n        /* \"#utility.yul\":3836:3865   */\n      tag_246\n        /* \"#utility.yul\":3858:3864   */\n      dup2\n        /* \"#utility.yul\":3836:3865   */\n      tag_139\n      jump\t// in\n    tag_246:\n        /* \"#utility.yul\":3831:3834   */\n      dup5\n        /* \"#utility.yul\":3827:3866   */\n      add\n        /* \"#utility.yul\":3820:3866   */\n      swap2\n      pop\n        /* \"#utility.yul\":3587:3872   */\n      pop\n        /* \"#utility.yul\":3495:3872   */\n      swap3\n      swap2\n      pop\n      pop\n      jump\t// out\n        /* \"#utility.yul\":3878:3955   */\n    tag_151:\n        /* \"#utility.yul\":3915:3922   */\n      0x00\n        /* \"#utility.yul\":3944:3949   */\n      dup2\n        /* \"#utility.yul\":3933:3949   */\n      swap1\n      pop\n        /* \"#utility.yul\":3878:3955   */\n      swap2\n      swap1\n      pop\n      jump\t// out\n        /* \"#utility.yul\":3961:4079   */\n    tag_152:\n        /* \"#utility.yul\":4048:4072   */\n      tag_249\n        /* \"#utility.yul\":4066:4071   */\n      dup2\n        /* \"#utility.yul\":4048:4072   */\n      tag_151\n      jump\t// in\n    tag_249:\n        /* \"#utility.yul\":4043:4046   */\n      dup3\n        /* \"#utility.yul\":4036:4073   */\n      mstore\n        /* \"#utility.yul\":3961:4079   */\n      pop\n      pop\n      jump\t// out\n        /* \"#utility.yul\":4085:4162   */\n    tag_153:\n        /* \"#utility.yul\":4122:4129   */\n      0x00\n        /* \"#utility.yul\":4151:4156   */\n      dup2\n        /* \"#utility.yul\":4140:4156   */\n      swap1\n      pop\n        /* \"#utility.yul\":4085:4162   */\n      swap2\n      swap1\n      pop\n      jump\t// out\n        /* \"#utility.yul\":4168:4286   */\n    tag_154:\n        /* \"#utility.yul\":4255:4279   */\n      tag_252\n        /* \"#utility.yul\":4273:4278   */\n      dup2\n        /* \"#utility.yul\":4255:4279   */\n      tag_153\n      jump\t// in\n    tag_252:\n        /* \"#utility.yul\":4250:4253   */\n      dup3\n        /* \"#utility.yul\":4243:4280   */\n      mstore\n        /* \"#utility.yul\":4168:4286   */\n      pop\n      pop\n      jump\t// out\n        /* \"#utility.yul\":4292:5138   */\n    tag_17:\n        /* \"#utility.yul\":4537:4541   */\n      0x00\n        /* \"#utility.yul\":4575:4578   */\n      0xa0\n        /* \"#utility.yul\":4564:4573   */\n      dup3\n        /* \"#utility.yul\":4560:4579   */\n      add\n        /* \"#utility.yul\":4552:4579   */\n      swap1\n      pop\n        /* \"#utility.yul\":4625:4634   */\n      dup2\n        /* \"#utility.yul\":4619:4623   */\n      dup2\n        /* \"#utility.yul\":4615:4635   */\n      sub\n        /* \"#utility.yul\":4611:4612   */\n      0x00\n        /* \"#utility.yul\":4600:4609   */\n      dup4\n        /* \"#utility.yul\":4596:4613   */\n      add\n        /* \"#utility.yul\":4589:4636   */\n      mstore\n        /* \"#utility.yul\":4653:4731   */\n      tag_254\n        /* \"#utility.yul\":4726:4730   */\n      dup2\n        /* \"#utility.yul\":4717:4723   */\n      dup9\n        /* \"#utility.yul\":4653:4731   */\n      tag_150\n      jump\t// in\n    tag_254:\n        /* \"#utility.yul\":4645:4731   */\n      swap1\n      pop\n        /* \"#utility.yul\":4778:4787   */\n      dup2\n        /* \"#utility.yul\":4772:4776   */\n      dup2\n        /* \"#utility.yul\":4768:4788   */\n      sub\n        /* \"#utility.yul\":4763:4765   */\n      0x20\n        /* \"#utility.yul\":4752:4761   */\n      dup4\n        /* \"#utility.yul\":4748:4766   */\n      add\n        /* \"#utility.yul\":4741:4789   */\n      mstore\n        /* \"#utility.yul\":4806:4884   */\n      tag_255\n        /* \"#utility.yul\":4879:4883   */\n      dup2\n        /* \"#utility.yul\":4870:4876   */\n      dup8\n        /* \"#utility.yul\":4806:4884   */\n      tag_150\n      jump\t// in\n    tag_255:\n        /* \"#utility.yul\":4798:4884   */\n      swap1\n      pop\n        /* \"#utility.yul\":4894:4966   */\n      tag_256\n        /* \"#utility.yul\":4962:4964   */\n      0x40\n        /* \"#utility.yul\":4951:4960   */\n      dup4\n        /* \"#utility.yul\":4947:4965   */\n      add\n        /* \"#utility.yul\":4938:4944   */\n      dup7\n        /* \"#utility.yul\":4894:4966   */\n      tag_152\n      jump\t// in\n    tag_256:\n        /* \"#utility.yul\":4976:5048   */\n      tag_257\n        /* \"#utility.yul\":5044:5046   */\n      0x60\n        /* \"#utility.yul\":5033:5042   */\n      dup4\n        /* \"#utility.yul\":5029:5047   */\n      add\n        /* \"#utility.yul\":5020:5026   */\n      dup6\n        /* \"#utility.yul\":4976:5048   */\n      tag_152\n      jump\t// in\n    tag_257:\n        /* \"#utility.yul\":5058:5131   */\n      tag_258\n        /* \"#utility.yul\":5126:5129   */\n      0x80\n        /* \"#utility.yul\":5115:5124   */\n      dup4\n        /* \"#utility.yul\":5111:5130   */\n      add\n        /* \"#utility.yul\":5102:5108   */\n      dup5\n        /* \"#utility.yul\":5058:5131   */\n      tag_154\n      jump\t// in\n    tag_258:\n        /* \"#utility.yul\":4292:5138   */\n      swap7\n      swap6\n      pop\n      pop\n      pop\n      pop\n      pop\n      pop\n      jump\t// out\n        /* \"#utility.yul\":5144:5366   */\n    tag_22:\n        /* \"#utility.yul\":5237:5241   */\n      0x00\n        /* \"#utility.yul\":5275:5277   */\n      0x20\n        /* \"#utility.yul\":5264:5273   */\n      dup3\n        /* \"#utility.yul\":5260:5278   */\n      add\n        /* \"#utility.yul\":5252:5278   */\n      swap1\n      pop\n        /* \"#utility.yul\":5288:5359   */\n      tag_260\n        /* \"#utility.yul\":5356:5357   */\n      0x00\n        /* \"#utility.yul\":5345:5354   */\n      dup4\n        /* \"#utility.yul\":5341:5358   */\n      add\n        /* \"#utility.yul\":5332:5338   */\n      dup5\n        /* \"#utility.yul\":5288:5359   */\n      tag_154\n      jump\t// in\n    tag_260:\n        /* \"#utility.yul\":5144:5366   */\n      swap3\n      swap2\n      pop\n      pop\n      jump\t// out\n        /* \"#utility.yul\":5372:6016   */\n    tag_27:\n        /* \"#utility.yul\":5569:5573   */\n      0x00\n        /* \"#utility.yul\":5607:5610   */\n      0x80\n        /* \"#utility.yul\":5596:5605   */\n      dup3\n        /* \"#utility.yul\":5592:5611   */\n      add\n        /* \"#utility.yul\":5584:5611   */\n      swap1\n      pop\n        /* \"#utility.yul\":5657:5666   */\n      dup2\n        /* \"#utility.yul\":5651:5655   */\n      dup2\n        /* \"#utility.yul\":5647:5667   */\n      sub\n        /* \"#utility.yul\":5643:5644   */\n      0x00\n        /* \"#utility.yul\":5632:5641   */\n      dup4\n        /* \"#utility.yul\":5628:5645   */\n      add\n        /* \"#utility.yul\":5621:5668   */\n      mstore\n        /* \"#utility.yul\":5685:5763   */\n      tag_262\n        /* \"#utility.yul\":5758:5762   */\n      dup2\n        /* \"#utility.yul\":5749:5755   */\n      dup8\n        /* \"#utility.yul\":5685:5763   */\n      tag_150\n      jump\t// in\n    tag_262:\n        /* \"#utility.yul\":5677:5763   */\n      swap1\n      pop\n        /* \"#utility.yul\":5773:5845   */\n      tag_263\n        /* \"#utility.yul\":5841:5843   */\n      0x20\n        /* \"#utility.yul\":5830:5839   */\n      dup4\n        /* \"#utility.yul\":5826:5844   */\n      add\n        /* \"#utility.yul\":5817:5823   */\n      dup7\n        /* \"#utility.yul\":5773:5845   */\n      tag_152\n      jump\t// in\n    tag_263:\n        /* \"#utility.yul\":5855:5927   */\n      tag_264\n        /* \"#utility.yul\":5923:5925   */\n      0x40\n        /* \"#utility.yul\":5912:5921   */\n      dup4\n        /* \"#utility.yul\":5908:5926   */\n      add\n        /* \"#utility.yul\":5899:5905   */\n      dup6\n        /* \"#utility.yul\":5855:5927   */\n      tag_152\n      jump\t// in\n    tag_264:\n        /* \"#utility.yul\":5937:6009   */\n      tag_265\n        /* \"#utility.yul\":6005:6007   */\n      0x60\n        /* \"#utility.yul\":5994:6003   */\n      dup4\n        /* \"#utility.yul\":5990:6008   */\n      add\n        /* \"#utility.yul\":5981:5987   */\n      dup5\n        /* \"#utility.yul\":5937:6009   */\n      tag_154\n      jump\t// in\n    tag_265:\n        /* \"#utility.yul\":5372:6016   */\n      swap6\n      swap5\n      pop\n      pop\n      pop\n      pop\n      pop\n      jump\t// out\n        /* \"#utility.yul\":6022:6144   */\n    tag_155:\n        /* \"#utility.yul\":6095:6119   */\n      tag_267\n        /* \"#utility.yul\":6113:6118   */\n      dup2\n        /* \"#utility.yul\":6095:6119   */\n      tag_151\n      jump\t// in\n    tag_267:\n        /* \"#utility.yul\":6088:6093   */\n      dup2\n        /* \"#utility.yul\":6085:6120   */\n      eq\n        /* \"#utility.yul\":6075:6138   */\n      tag_268\n      jumpi\n        /* \"#utility.yul\":6134:6135   */\n      0x00\n        /* \"#utility.yul\":6131:6132   */\n      dup1\n        /* \"#utility.yul\":6124:6136   */\n      revert\n        /* \"#utility.yul\":6075:6138   */\n    tag_268:\n        /* \"#utility.yul\":6022:6144   */\n      pop\n      jump\t// out\n        /* \"#utility.yul\":6150:6289   */\n    tag_156:\n        /* \"#utility.yul\":6196:6201   */\n      0x00\n        /* \"#utility.yul\":6234:6240   */\n      dup2\n        /* \"#utility.yul\":6221:6241   */\n      calldataload\n        /* \"#utility.yul\":6212:6241   */\n      swap1\n      pop\n        /* \"#utility.yul\":6250:6283   */\n      tag_270\n        /* \"#utility.yul\":6277:6282   */\n      dup2\n        /* \"#utility.yul\":6250:6283   */\n      tag_155\n      jump\t// in\n    tag_270:\n        /* \"#utility.yul\":6150:6289   */\n      swap3\n      swap2\n      pop\n      pop\n      jump\t// out\n        /* \"#utility.yul\":6295:6624   */\n    tag_30:\n        /* \"#utility.yul\":6354:6360   */\n      0x00\n        /* \"#utility.yul\":6403:6405   */\n      0x20\n        /* \"#utility.yul\":6391:6400   */\n      dup3\n        /* \"#utility.yul\":6382:6389   */\n      dup5\n        /* \"#utility.yul\":6378:6401   */\n      sub\n        /* \"#utility.yul\":6374:6406   */\n      slt\n        /* \"#utility.yul\":6371:6490   */\n      iszero\n      tag_272\n      jumpi\n        /* \"#utility.yul\":6409:6488   */\n      tag_273\n      tag_135\n      jump\t// in\n    tag_273:\n        /* \"#utility.yul\":6371:6490   */\n    tag_272:\n        /* \"#utility.yul\":6529:6530   */\n      0x00\n        /* \"#utility.yul\":6554:6607   */\n      tag_274\n        /* \"#utility.yul\":6599:6606   */\n      dup5\n        /* \"#utility.yul\":6590:6596   */\n      dup3\n        /* \"#utility.yul\":6579:6588   */\n      dup6\n        /* \"#utility.yul\":6575:6597   */\n      add\n        /* \"#utility.yul\":6554:6607   */\n      tag_156\n      jump\t// in\n    tag_274:\n        /* \"#utility.yul\":6544:6607   */\n      swap2\n      pop\n        /* \"#utility.yul\":6500:6617   */\n      pop\n        /* \"#utility.yul\":6295:6624   */\n      swap3\n      swap2\n      pop\n      pop\n      jump\t// out\n        /* \"#utility.yul\":6630:6943   */\n    tag_33:\n        /* \"#utility.yul\":6743:6747   */\n      0x00\n        /* \"#utility.yul\":6781:6783   */\n      0x20\n        /* \"#utility.yul\":6770:6779   */\n      dup3\n        /* \"#utility.yul\":6766:6784   */\n      add\n        /* \"#utility.yul\":6758:6784   */\n      swap1\n      pop\n        /* \"#utility.yul\":6830:6839   */\n      dup2\n        /* \"#utility.yul\":6824:6828   */\n      dup2\n        /* \"#utility.yul\":6820:6840   */\n      sub\n        /* \"#utility.yul\":6816:6817   */\n      0x00\n        /* \"#utility.yul\":6805:6814   */\n      dup4\n        /* \"#utility.yul\":6801:6818   */\n      add\n        /* \"#utility.yul\":6794:6841   */\n      mstore\n        /* \"#utility.yul\":6858:6936   */\n      tag_276\n        /* \"#utility.yul\":6931:6935   */\n      dup2\n        /* \"#utility.yul\":6922:6928   */\n      dup5\n        /* \"#utility.yul\":6858:6936   */\n      tag_150\n      jump\t// in\n    tag_276:\n        /* \"#utility.yul\":6850:6936   */\n      swap1\n      pop\n        /* \"#utility.yul\":6630:6943   */\n      swap3\n      swap2\n      pop\n      pop\n      jump\t// out\n        /* \"#utility.yul\":6949:7928   */\n    tag_36:\n        /* \"#utility.yul\":7046:7052   */\n      0x00\n        /* \"#utility.yul\":7054:7060   */\n      dup1\n        /* \"#utility.yul\":7062:7068   */\n      0x00\n        /* \"#utility.yul\":7111:7113   */\n      0x60\n        /* \"#utility.yul\":7099:7108   */\n      dup5\n        /* \"#utility.yul\":7090:7097   */\n      dup7\n        /* \"#utility.yul\":7086:7109   */\n      sub\n        /* \"#utility.yul\":7082:7114   */\n      slt\n        /* \"#utility.yul\":7079:7198   */\n      iszero\n      tag_278\n      jumpi\n        /* \"#utility.yul\":7117:7196   */\n      tag_279\n      tag_135\n      jump\t// in\n    tag_279:\n        /* \"#utility.yul\":7079:7198   */\n    tag_278:\n        /* \"#utility.yul\":7265:7266   */\n      0x00\n        /* \"#utility.yul\":7254:7263   */\n      dup5\n        /* \"#utility.yul\":7250:7267   */\n      add\n        /* \"#utility.yul\":7237:7268   */\n      calldataload\n        /* \"#utility.yul\":7295:7313   */\n      0xffffffffffffffff\n        /* \"#utility.yul\":7287:7293   */\n      dup2\n        /* \"#utility.yul\":7284:7314   */\n      gt\n        /* \"#utility.yul\":7281:7398   */\n      iszero\n      tag_280\n      jumpi\n        /* \"#utility.yul\":7317:7396   */\n      tag_281\n      tag_136\n      jump\t// in\n    tag_281:\n        /* \"#utility.yul\":7281:7398   */\n    tag_280:\n        /* \"#utility.yul\":7422:7485   */\n      tag_282\n        /* \"#utility.yul\":7477:7484   */\n      dup7\n        /* \"#utility.yul\":7468:7474   */\n      dup3\n        /* \"#utility.yul\":7457:7466   */\n      dup8\n        /* \"#utility.yul\":7453:7475   */\n      add\n        /* \"#utility.yul\":7422:7485   */\n      tag_146\n      jump\t// in\n    tag_282:\n        /* \"#utility.yul\":7412:7485   */\n      swap4\n      pop\n        /* \"#utility.yul\":7208:7495   */\n      pop\n        /* \"#utility.yul\":7562:7564   */\n      0x20\n        /* \"#utility.yul\":7551:7560   */\n      dup5\n        /* \"#utility.yul\":7547:7565   */\n      add\n        /* \"#utility.yul\":7534:7566   */\n      calldataload\n        /* \"#utility.yul\":7593:7611   */\n      0xffffffffffffffff\n        /* \"#utility.yul\":7585:7591   */\n      dup2\n        /* \"#utility.yul\":7582:7612   */\n      gt\n        /* \"#utility.yul\":7579:7696   */\n      iszero\n      tag_283\n      jumpi\n        /* \"#utility.yul\":7615:7694   */\n      tag_284\n      tag_136\n      jump\t// in\n    tag_284:\n        /* \"#utility.yul\":7579:7696   */\n    tag_283:\n        /* \"#utility.yul\":7720:7783   */\n      tag_285\n        /* \"#utility.yul\":7775:7782   */\n      dup7\n        /* \"#utility.yul\":7766:7772   */\n      dup3\n        /* \"#utility.yul\":7755:7764   */\n      dup8\n        /* \"#utility.yul\":7751:7773   */\n      add\n        /* \"#utility.yul\":7720:7783   */\n      tag_146\n      jump\t// in\n    tag_285:\n        /* \"#utility.yul\":7710:7783   */\n      swap3\n      pop\n        /* \"#utility.yul\":7505:7793   */\n      pop\n        /* \"#utility.yul\":7832:7834   */\n      0x40\n        /* \"#utility.yul\":7858:7911   */\n      tag_286\n        /* \"#utility.yul\":7903:7910   */\n      dup7\n        /* \"#utility.yul\":7894:7900   */\n      dup3\n        /* \"#utility.yul\":7883:7892   */\n      dup8\n        /* \"#utility.yul\":7879:7901   */\n      add\n        /* \"#utility.yul\":7858:7911   */\n      tag_156\n      jump\t// in\n    tag_286:\n        /* \"#utility.yul\":7848:7911   */\n      swap2\n      pop\n        /* \"#utility.yul\":7803:7921   */\n      pop\n        /* \"#utility.yul\":6949:7928   */\n      swap3\n      pop\n      swap3\n      pop\n      swap3\n      jump\t// out\n        /* \"#utility.yul\":7934:8156   */\n    tag_41:\n        /* \"#utility.yul\":8027:8031   */\n      0x00\n        /* \"#utility.yul\":8065:8067   */\n      0x20\n        /* \"#utility.yul\":8054:8063   */\n      dup3\n        /* \"#utility.yul\":8050:8068   */\n      add\n        /* \"#utility.yul\":8042:8068   */\n      swap1\n      pop\n        /* \"#utility.yul\":8078:8149   */\n      tag_288\n        /* \"#utility.yul\":8146:8147   */\n      0x00\n        /* \"#utility.yul\":8135:8144   */\n      dup4\n        /* \"#utility.yul\":8131:8148   */\n      add\n        /* \"#utility.yul\":8122:8128   */\n      dup5\n        /* \"#utility.yul\":8078:8149   */\n      tag_152\n      jump\t// in\n    tag_288:\n        /* \"#utility.yul\":7934:8156   */\n      swap3\n      swap2\n      pop\n      pop\n      jump\t// out\n        /* \"#utility.yul\":8162:8286   */\n    tag_157:\n        /* \"#utility.yul\":8239:8245   */\n      0x00\n        /* \"#utility.yul\":8273:8278   */\n      dup2\n        /* \"#utility.yul\":8267:8279   */\n      mload\n        /* \"#utility.yul\":8257:8279   */\n      swap1\n      pop\n        /* \"#utility.yul\":8162:8286   */\n      swap2\n      swap1\n      pop\n      jump\t// out\n        /* \"#utility.yul\":8292:8486   */\n    tag_158:\n        /* \"#utility.yul\":8401:8412   */\n      0x00\n        /* \"#utility.yul\":8435:8441   */\n      dup3\n        /* \"#utility.yul\":8430:8433   */\n      dup3\n        /* \"#utility.yul\":8423:8442   */\n      mstore\n        /* \"#utility.yul\":8475:8479   */\n      0x20\n        /* \"#utility.yul\":8470:8473   */\n      dup3\n        /* \"#utility.yul\":8466:8480   */\n      add\n        /* \"#utility.yul\":8451:8480   */\n      swap1\n      pop\n        /* \"#utility.yul\":8292:8486   */\n      swap3\n      swap2\n      pop\n      pop\n      jump\t// out\n        /* \"#utility.yul\":8492:8634   */\n    tag_159:\n        /* \"#utility.yul\":8569:8573   */\n      0x00\n        /* \"#utility.yul\":8592:8595   */\n      dup2\n        /* \"#utility.yul\":8584:8595   */\n      swap1\n      pop\n        /* \"#utility.yul\":8622:8626   */\n      0x20\n        /* \"#utility.yul\":8617:8620   */\n      dup3\n        /* \"#utility.yul\":8613:8627   */\n      add\n        /* \"#utility.yul\":8605:8627   */\n      swap1\n      pop\n        /* \"#utility.yul\":8492:8634   */\n      swap2\n      swap1\n      pop\n      jump\t// out\n        /* \"#utility.yul\":8640:8799   */\n    tag_160:\n        /* \"#utility.yul\":8714:8725   */\n      0x00\n        /* \"#utility.yul\":8748:8754   */\n      dup3\n        /* \"#utility.yul\":8743:8746   */\n      dup3\n        /* \"#utility.yul\":8736:8755   */\n      mstore\n        /* \"#utility.yul\":8788:8792   */\n      0x20\n        /* \"#utility.yul\":8783:8786   */\n      dup3\n        /* \"#utility.yul\":8779:8793   */\n      add\n        /* \"#utility.yul\":8764:8793   */\n      swap1\n      pop\n        /* \"#utility.yul\":8640:8799   */\n      swap3\n      swap2\n      pop\n      pop\n      jump\t// out\n        /* \"#utility.yul\":8805:9162   */\n    tag_161:\n        /* \"#utility.yul\":8883:8886   */\n      0x00\n        /* \"#utility.yul\":8911:8950   */\n      tag_294\n        /* \"#utility.yul\":8944:8949   */\n      dup3\n        /* \"#utility.yul\":8911:8950   */\n      tag_147\n      jump\t// in\n    tag_294:\n        /* \"#utility.yul\":8966:9027   */\n      tag_295\n        /* \"#utility.yul\":9020:9026   */\n      dup2\n        /* \"#utility.yul\":9015:9018   */\n      dup6\n        /* \"#utility.yul\":8966:9027   */\n      tag_160\n      jump\t// in\n    tag_295:\n        /* \"#utility.yul\":8959:9027   */\n      swap4\n      pop\n        /* \"#utility.yul\":9036:9101   */\n      tag_296\n        /* \"#utility.yul\":9094:9100   */\n      dup2\n        /* \"#utility.yul\":9089:9092   */\n      dup6\n        /* \"#utility.yul\":9082:9086   */\n      0x20\n        /* \"#utility.yul\":9075:9080   */\n      dup7\n        /* \"#utility.yul\":9071:9087   */\n      add\n        /* \"#utility.yul\":9036:9101   */\n      tag_149\n      jump\t// in\n    tag_296:\n        /* \"#utility.yul\":9126:9155   */\n      tag_297\n        /* \"#utility.yul\":9148:9154   */\n      dup2\n        /* \"#utility.yul\":9126:9155   */\n      tag_139\n      jump\t// in\n    tag_297:\n        /* \"#utility.yul\":9121:9124   */\n      dup5\n        /* \"#utility.yul\":9117:9156   */\n      add\n        /* \"#utility.yul\":9110:9156   */\n      swap2\n      pop\n        /* \"#utility.yul\":8887:9162   */\n      pop\n        /* \"#utility.yul\":8805:9162   */\n      swap3\n      swap2\n      pop\n      pop\n      jump\t// out\n        /* \"#utility.yul\":9168:9364   */\n    tag_162:\n        /* \"#utility.yul\":9257:9267   */\n      0x00\n        /* \"#utility.yul\":9292:9358   */\n      tag_299\n        /* \"#utility.yul\":9354:9357   */\n      dup4\n        /* \"#utility.yul\":9346:9352   */\n      dup4\n        /* \"#utility.yul\":9292:9358   */\n      tag_161\n      jump\t// in\n    tag_299:\n        /* \"#utility.yul\":9278:9358   */\n      swap1\n      pop\n        /* \"#utility.yul\":9168:9364   */\n      swap3\n      swap2\n      pop\n      pop\n      jump\t// out\n        /* \"#utility.yul\":9370:9493   */\n    tag_163:\n        /* \"#utility.yul\":9450:9454   */\n      0x00\n        /* \"#utility.yul\":9482:9486   */\n      0x20\n        /* \"#utility.yul\":9477:9480   */\n      dup3\n        /* \"#utility.yul\":9473:9487   */\n      add\n        /* \"#utility.yul\":9465:9487   */\n      swap1\n      pop\n        /* \"#utility.yul\":9370:9493   */\n      swap2\n      swap1\n      pop\n      jump\t// out\n        /* \"#utility.yul\":9527:10518   */\n    tag_164:\n        /* \"#utility.yul\":9666:9669   */\n      0x00\n        /* \"#utility.yul\":9695:9759   */\n      tag_302\n        /* \"#utility.yul\":9753:9758   */\n      dup3\n        /* \"#utility.yul\":9695:9759   */\n      tag_157\n      jump\t// in\n    tag_302:\n        /* \"#utility.yul\":9775:9871   */\n      tag_303\n        /* \"#utility.yul\":9864:9870   */\n      dup2\n        /* \"#utility.yul\":9859:9862   */\n      dup6\n        /* \"#utility.yul\":9775:9871   */\n      tag_158\n      jump\t// in\n    tag_303:\n        /* \"#utility.yul\":9768:9871   */\n      swap4\n      pop\n        /* \"#utility.yul\":9897:9900   */\n      dup4\n        /* \"#utility.yul\":9942:9946   */\n      0x20\n        /* \"#utility.yul\":9934:9940   */\n      dup3\n        /* \"#utility.yul\":9930:9947   */\n      mul\n        /* \"#utility.yul\":9925:9928   */\n      dup6\n        /* \"#utility.yul\":9921:9948   */\n      add\n        /* \"#utility.yul\":9972:10038   */\n      tag_304\n        /* \"#utility.yul\":10032:10037   */\n      dup6\n        /* \"#utility.yul\":9972:10038   */\n      tag_159\n      jump\t// in\n    tag_304:\n        /* \"#utility.yul\":10061:10068   */\n      dup1\n        /* \"#utility.yul\":10092:10093   */\n      0x00\n        /* \"#utility.yul\":10077:10473   */\n    tag_305:\n        /* \"#utility.yul\":10102:10108   */\n      dup6\n        /* \"#utility.yul\":10099:10100   */\n      dup2\n        /* \"#utility.yul\":10096:10109   */\n      lt\n        /* \"#utility.yul\":10077:10473   */\n      iszero\n      tag_307\n      jumpi\n        /* \"#utility.yul\":10173:10182   */\n      dup5\n        /* \"#utility.yul\":10167:10171   */\n      dup5\n        /* \"#utility.yul\":10163:10183   */\n      sub\n        /* \"#utility.yul\":10158:10161   */\n      dup10\n        /* \"#utility.yul\":10151:10184   */\n      mstore\n        /* \"#utility.yul\":10224:10230   */\n      dup2\n        /* \"#utility.yul\":10218:10231   */\n      mload\n        /* \"#utility.yul\":10252:10336   */\n      tag_308\n        /* \"#utility.yul\":10331:10335   */\n      dup6\n        /* \"#utility.yul\":10316:10329   */\n      dup3\n        /* \"#utility.yul\":10252:10336   */\n      tag_162\n      jump\t// in\n    tag_308:\n        /* \"#utility.yul\":10244:10336   */\n      swap5\n      pop\n        /* \"#utility.yul\":10359:10429   */\n      tag_309\n        /* \"#utility.yul\":10422:10428   */\n      dup4\n        /* \"#utility.yul\":10359:10429   */\n      tag_163\n      jump\t// in\n    tag_309:\n        /* \"#utility.yul\":10349:10429   */\n      swap3\n      pop\n        /* \"#utility.yul\":10458:10462   */\n      0x20\n        /* \"#utility.yul\":10453:10456   */\n      dup11\n        /* \"#utility.yul\":10449:10463   */\n      add\n        /* \"#utility.yul\":10442:10463   */\n      swap10\n      pop\n        /* \"#utility.yul\":10137:10473   */\n      pop\n        /* \"#utility.yul\":10124:10125   */\n      0x01\n        /* \"#utility.yul\":10121:10122   */\n      dup2\n        /* \"#utility.yul\":10117:10126   */\n      add\n        /* \"#utility.yul\":10112:10126   */\n      swap1\n      pop\n        /* \"#utility.yul\":10077:10473   */\n      jump(tag_305)\n    tag_307:\n        /* \"#utility.yul\":10081:10095   */\n      pop\n        /* \"#utility.yul\":10489:10493   */\n      dup3\n        /* \"#utility.yul\":10482:10493   */\n      swap8\n      pop\n        /* \"#utility.yul\":10509:10512   */\n      dup8\n        /* \"#utility.yul\":10502:10512   */\n      swap6\n      pop\n        /* \"#utility.yul\":9671:10518   */\n      pop\n      pop\n      pop\n      pop\n      pop\n        /* \"#utility.yul\":9527:10518   */\n      swap3\n      swap2\n      pop\n      pop\n      jump\t// out\n        /* \"#utility.yul\":10524:10937   */\n    tag_45:\n        /* \"#utility.yul\":10687:10691   */\n      0x00\n        /* \"#utility.yul\":10725:10727   */\n      0x20\n        /* \"#utility.yul\":10714:10723   */\n      dup3\n        /* \"#utility.yul\":10710:10728   */\n      add\n        /* \"#utility.yul\":10702:10728   */\n      swap1\n      pop\n        /* \"#utility.yul\":10774:10783   */\n      dup2\n        /* \"#utility.yul\":10768:10772   */\n      dup2\n        /* \"#utility.yul\":10764:10784   */\n      sub\n        /* \"#utility.yul\":10760:10761   */\n      0x00\n        /* \"#utility.yul\":10749:10758   */\n      dup4\n        /* \"#utility.yul\":10745:10762   */\n      add\n        /* \"#utility.yul\":10738:10785   */\n      mstore\n        /* \"#utility.yul\":10802:10930   */\n      tag_311\n        /* \"#utility.yul\":10925:10929   */\n      dup2\n        /* \"#utility.yul\":10916:10922   */\n      dup5\n        /* \"#utility.yul\":10802:10930   */\n      tag_164\n      jump\t// in\n    tag_311:\n        /* \"#utility.yul\":10794:10930   */\n      swap1\n      pop\n        /* \"#utility.yul\":10524:10937   */\n      swap3\n      swap2\n      pop\n      pop\n      jump\t// out\n        /* \"#utility.yul\":10943:11069   */\n    tag_165:\n        /* \"#utility.yul\":10980:10987   */\n      0x00\n        /* \"#utility.yul\":11020:11062   */\n      0xffffffffffffffffffffffffffffffffffffffff\n        /* \"#utility.yul\":11013:11018   */\n      dup3\n        /* \"#utility.yul\":11009:11063   */\n      and\n        /* \"#utility.yul\":10998:11063   */\n      swap1\n      pop\n        /* \"#utility.yul\":10943:11069   */\n      swap2\n      swap1\n      pop\n      jump\t// out\n        /* \"#utility.yul\":11075:11171   */\n    tag_166:\n        /* \"#utility.yul\":11112:11119   */\n      0x00\n        /* \"#utility.yul\":11141:11165   */\n      tag_314\n        /* \"#utility.yul\":11159:11164   */\n      dup3\n        /* \"#utility.yul\":11141:11165   */\n      tag_165\n      jump\t// in\n    tag_314:\n        /* \"#utility.yul\":11130:11165   */\n      swap1\n      pop\n        /* \"#utility.yul\":11075:11171   */\n      swap2\n      swap1\n      pop\n      jump\t// out\n        /* \"#utility.yul\":11177:11295   */\n    tag_167:\n        /* \"#utility.yul\":11264:11288   */\n      tag_316\n        /* \"#utility.yul\":11282:11287   */\n      dup2\n        /* \"#utility.yul\":11264:11288   */\n      tag_166\n      jump\t// in\n    tag_316:\n        /* \"#utility.yul\":11259:11262   */\n      dup3\n        /* \"#utility.yul\":11252:11289   */\n      mstore\n        /* \"#utility.yul\":11177:11295   */\n      pop\n      pop\n      jump\t// out\n        /* \"#utility.yul\":11301:11523   */\n    tag_49:\n        /* \"#utility.yul\":11394:11398   */\n      0x00\n        /* \"#utility.yul\":11432:11434   */\n      0x20\n        /* \"#utility.yul\":11421:11430   */\n      dup3\n        /* \"#utility.yul\":11417:11435   */\n      add\n        /* \"#utility.yul\":11409:11435   */\n      swap1\n      pop\n        /* \"#utility.yul\":11445:11516   */\n      tag_318\n        /* \"#utility.yul\":11513:11514   */\n      0x00\n        /* \"#utility.yul\":11502:11511   */\n      dup4\n        /* \"#utility.yul\":11498:11515   */\n      add\n        /* \"#utility.yul\":11489:11495   */\n      dup5\n        /* \"#utility.yul\":11445:11516   */\n      tag_167\n      jump\t// in\n    tag_318:\n        /* \"#utility.yul\":11301:11523   */\n      swap3\n      swap2\n      pop\n      pop\n      jump\t// out\n        /* \"#utility.yul\":11529:11709   */\n    tag_168:\n        /* \"#utility.yul\":11577:11654   */\n      0x4e487b7100000000000000000000000000000000000000000000000000000000\n        /* \"#utility.yul\":11574:11575   */\n      0x00\n        /* \"#utility.yul\":11567:11655   */\n      mstore\n        /* \"#utility.yul\":11674:11678   */\n      0x22\n        /* \"#utility.yul\":11671:11672   */\n      0x04\n        /* \"#utility.yul\":11664:11679   */\n      mstore\n        /* \"#utility.yul\":11698:11702   */\n      0x24\n        /* \"#utility.yul\":11695:11696   */\n      0x00\n        /* \"#utility.yul\":11688:11703   */\n      revert\n        /* \"#utility.yul\":11715:12035   */\n    tag_51:\n        /* \"#utility.yul\":11759:11765   */\n      0x00\n        /* \"#utility.yul\":11796:11797   */\n      0x02\n        /* \"#utility.yul\":11790:11794   */\n      dup3\n        /* \"#utility.yul\":11786:11798   */\n      div\n        /* \"#utility.yul\":11776:11798   */\n      swap1\n      pop\n        /* \"#utility.yul\":11843:11844   */\n      0x01\n        /* \"#utility.yul\":11837:11841   */\n      dup3\n        /* \"#utility.yul\":11833:11845   */\n      and\n        /* \"#utility.yul\":11864:11882   */\n      dup1\n        /* \"#utility.yul\":11854:11935   */\n      tag_321\n      jumpi\n        /* \"#utility.yul\":11920:11924   */\n      0x7f\n        /* \"#utility.yul\":11912:11918   */\n      dup3\n        /* \"#utility.yul\":11908:11925   */\n      and\n        /* \"#utility.yul\":11898:11925   */\n      swap2\n      pop\n        /* \"#utility.yul\":11854:11935   */\n    tag_321:\n        /* \"#utility.yul\":11982:11984   */\n      0x20\n        /* \"#utility.yul\":11974:11980   */\n      dup3\n        /* \"#utility.yul\":11971:11985   */\n      lt\n        /* \"#utility.yul\":11951:11969   */\n      dup2\n        /* \"#utility.yul\":11948:11986   */\n      sub\n        /* \"#utility.yul\":11945:12029   */\n      tag_322\n      jumpi\n        /* \"#utility.yul\":12001:12019   */\n      tag_323\n      tag_168\n      jump\t// in\n    tag_323:\n        /* \"#utility.yul\":11945:12029   */\n    tag_322:\n        /* \"#utility.yul\":11766:12035   */\n      pop\n        /* \"#utility.yul\":11715:12035   */\n      swap2\n      swap1\n      pop\n      jump\t// out\n        /* \"#utility.yul\":12041:12189   */\n    tag_169:\n        /* \"#utility.yul\":12143:12154   */\n      0x00\n        /* \"#utility.yul\":12180:12183   */\n      dup2\n        /* \"#utility.yul\":12165:12183   */\n      swap1\n      pop\n        /* \"#utility.yul\":12041:12189   */\n      swap3\n      swap2\n      pop\n      pop\n      jump\t// out\n        /* \"#utility.yul\":12195:12585   */\n    tag_170:\n        /* \"#utility.yul\":12301:12304   */\n      0x00\n        /* \"#utility.yul\":12329:12368   */\n      tag_326\n        /* \"#utility.yul\":12362:12367   */\n      dup3\n        /* \"#utility.yul\":12329:12368   */\n      tag_147\n      jump\t// in\n    tag_326:\n        /* \"#utility.yul\":12384:12473   */\n      tag_327\n        /* \"#utility.yul\":12466:12472   */\n      dup2\n        /* \"#utility.yul\":12461:12464   */\n      dup6\n        /* \"#utility.yul\":12384:12473   */\n      tag_169\n      jump\t// in\n    tag_327:\n        /* \"#utility.yul\":12377:12473   */\n      swap4\n      pop\n        /* \"#utility.yul\":12482:12547   */\n      tag_328\n        /* \"#utility.yul\":12540:12546   */\n      dup2\n        /* \"#utility.yul\":12535:12538   */\n      dup6\n        /* \"#utility.yul\":12528:12532   */\n      0x20\n        /* \"#utility.yul\":12521:12526   */\n      dup7\n        /* \"#utility.yul\":12517:12533   */\n      add\n        /* \"#utility.yul\":12482:12547   */\n      tag_149\n      jump\t// in\n    tag_328:\n        /* \"#utility.yul\":12572:12578   */\n      dup1\n        /* \"#utility.yul\":12567:12570   */\n      dup5\n        /* \"#utility.yul\":12563:12579   */\n      add\n        /* \"#utility.yul\":12556:12579   */\n      swap2\n      pop\n        /* \"#utility.yul\":12305:12585   */\n      pop\n        /* \"#utility.yul\":12195:12585   */\n      swap3\n      swap2\n      pop\n      pop\n      jump\t// out\n        /* \"#utility.yul\":12591:12866   */\n    tag_63:\n        /* \"#utility.yul\":12723:12726   */\n      0x00\n        /* \"#utility.yul\":12745:12840   */\n      tag_330\n        /* \"#utility.yul\":12836:12839   */\n      dup3\n        /* \"#utility.yul\":12827:12833   */\n      dup5\n        /* \"#utility.yul\":12745:12840   */\n      tag_170\n      jump\t// in\n    tag_330:\n        /* \"#utility.yul\":12738:12840   */\n      swap2\n      pop\n        /* \"#utility.yul\":12857:12860   */\n      dup2\n        /* \"#utility.yul\":12850:12860   */\n      swap1\n      pop\n        /* \"#utility.yul\":12591:12866   */\n      swap3\n      swap2\n      pop\n      pop\n      jump\t// out\n        /* \"#utility.yul\":12872:13046   */\n    tag_171:\n        /* \"#utility.yul\":13012:13038   */\n      0x53616c65206461746120646f6573206e6f742065786973740000000000000000\n        /* \"#utility.yul\":13008:13009   */\n      0x00\n        /* \"#utility.yul\":13000:13006   */\n      dup3\n        /* \"#utility.yul\":12996:13010   */\n      add\n        /* \"#utility.yul\":12989:13039   */\n      mstore\n        /* \"#utility.yul\":12872:13046   */\n      pop\n      jump\t// out\n        /* \"#utility.yul\":13052:13418   */\n    tag_172:\n        /* \"#utility.yul\":13194:13197   */\n      0x00\n        /* \"#utility.yul\":13215:13282   */\n      tag_333\n        /* \"#utility.yul\":13279:13281   */\n      0x18\n        /* \"#utility.yul\":13274:13277   */\n      dup4\n        /* \"#utility.yul\":13215:13282   */\n      tag_148\n      jump\t// in\n    tag_333:\n        /* \"#utility.yul\":13208:13282   */\n      swap2\n      pop\n        /* \"#utility.yul\":13291:13384   */\n      tag_334\n        /* \"#utility.yul\":13380:13383   */\n      dup3\n        /* \"#utility.yul\":13291:13384   */\n      tag_171\n      jump\t// in\n    tag_334:\n        /* \"#utility.yul\":13409:13411   */\n      0x20\n        /* \"#utility.yul\":13404:13407   */\n      dup3\n        /* \"#utility.yul\":13400:13412   */\n      add\n        /* \"#utility.yul\":13393:13412   */\n      swap1\n      pop\n        /* \"#utility.yul\":13052:13418   */\n      swap2\n      swap1\n      pop\n      jump\t// out\n        /* \"#utility.yul\":13424:13843   */\n    tag_76:\n        /* \"#utility.yul\":13590:13594   */\n      0x00\n        /* \"#utility.yul\":13628:13630   */\n      0x20\n        /* \"#utility.yul\":13617:13626   */\n      dup3\n        /* \"#utility.yul\":13613:13631   */\n      add\n        /* \"#utility.yul\":13605:13631   */\n      swap1\n      pop\n        /* \"#utility.yul\":13677:13686   */\n      dup2\n        /* \"#utility.yul\":13671:13675   */\n      dup2\n        /* \"#utility.yul\":13667:13687   */\n      sub\n        /* \"#utility.yul\":13663:13664   */\n      0x00\n        /* \"#utility.yul\":13652:13661   */\n      dup4\n        /* \"#utility.yul\":13648:13665   */\n      add\n        /* \"#utility.yul\":13641:13688   */\n      mstore\n        /* \"#utility.yul\":13705:13836   */\n      tag_336\n        /* \"#utility.yul\":13831:13835   */\n      dup2\n        /* \"#utility.yul\":13705:13836   */\n      tag_172\n      jump\t// in\n    tag_336:\n        /* \"#utility.yul\":13697:13836   */\n      swap1\n      pop\n        /* \"#utility.yul\":13424:13843   */\n      swap2\n      swap1\n      pop\n      jump\t// out\n        /* \"#utility.yul\":13849:13928   */\n    tag_173:\n        /* \"#utility.yul\":13888:13895   */\n      0x00\n        /* \"#utility.yul\":13917:13922   */\n      dup2\n        /* \"#utility.yul\":13906:13922   */\n      swap1\n      pop\n        /* \"#utility.yul\":13849:13928   */\n      swap2\n      swap1\n      pop\n      jump\t// out\n        /* \"#utility.yul\":13934:14091   */\n    tag_174:\n        /* \"#utility.yul\":14039:14084   */\n      tag_339\n        /* \"#utility.yul\":14059:14083   */\n      tag_340\n        /* \"#utility.yul\":14077:14082   */\n      dup3\n        /* \"#utility.yul\":14059:14083   */\n      tag_151\n      jump\t// in\n    tag_340:\n        /* \"#utility.yul\":14039:14084   */\n      tag_173\n      jump\t// in\n    tag_339:\n        /* \"#utility.yul\":14034:14037   */\n      dup3\n        /* \"#utility.yul\":14027:14085   */\n      mstore\n        /* \"#utility.yul\":13934:14091   */\n      pop\n      pop\n      jump\t// out\n        /* \"#utility.yul\":14097:14176   */\n    tag_175:\n        /* \"#utility.yul\":14136:14143   */\n      0x00\n        /* \"#utility.yul\":14165:14170   */\n      dup2\n        /* \"#utility.yul\":14154:14170   */\n      swap1\n      pop\n        /* \"#utility.yul\":14097:14176   */\n      swap2\n      swap1\n      pop\n      jump\t// out\n        /* \"#utility.yul\":14182:14339   */\n    tag_176:\n        /* \"#utility.yul\":14287:14332   */\n      tag_343\n        /* \"#utility.yul\":14307:14331   */\n      tag_344\n        /* \"#utility.yul\":14325:14330   */\n      dup3\n        /* \"#utility.yul\":14307:14331   */\n      tag_153\n      jump\t// in\n    tag_344:\n        /* \"#utility.yul\":14287:14332   */\n      tag_175\n      jump\t// in\n    tag_343:\n        /* \"#utility.yul\":14282:14285   */\n      dup3\n        /* \"#utility.yul\":14275:14333   */\n      mstore\n        /* \"#utility.yul\":14182:14339   */\n      pop\n      pop\n      jump\t// out\n        /* \"#utility.yul\":14345:15203   */\n    tag_78:\n        /* \"#utility.yul\":14609:14612   */\n      0x00\n        /* \"#utility.yul\":14631:14726   */\n      tag_346\n        /* \"#utility.yul\":14722:14725   */\n      dup3\n        /* \"#utility.yul\":14713:14719   */\n      dup9\n        /* \"#utility.yul\":14631:14726   */\n      tag_170\n      jump\t// in\n    tag_346:\n        /* \"#utility.yul\":14624:14726   */\n      swap2\n      pop\n        /* \"#utility.yul\":14743:14838   */\n      tag_347\n        /* \"#utility.yul\":14834:14837   */\n      dup3\n        /* \"#utility.yul\":14825:14831   */\n      dup8\n        /* \"#utility.yul\":14743:14838   */\n      tag_170\n      jump\t// in\n    tag_347:\n        /* \"#utility.yul\":14736:14838   */\n      swap2\n      pop\n        /* \"#utility.yul\":14848:14923   */\n      tag_348\n        /* \"#utility.yul\":14919:14922   */\n      dup3\n        /* \"#utility.yul\":14910:14916   */\n      dup7\n        /* \"#utility.yul\":14848:14923   */\n      tag_174\n      jump\t// in\n    tag_348:\n        /* \"#utility.yul\":14948:14950   */\n      0x20\n        /* \"#utility.yul\":14943:14946   */\n      dup3\n        /* \"#utility.yul\":14939:14951   */\n      add\n        /* \"#utility.yul\":14932:14951   */\n      swap2\n      pop\n        /* \"#utility.yul\":14961:15036   */\n      tag_349\n        /* \"#utility.yul\":15032:15035   */\n      dup3\n        /* \"#utility.yul\":15023:15029   */\n      dup6\n        /* \"#utility.yul\":14961:15036   */\n      tag_174\n      jump\t// in\n    tag_349:\n        /* \"#utility.yul\":15061:15063   */\n      0x20\n        /* \"#utility.yul\":15056:15059   */\n      dup3\n        /* \"#utility.yul\":15052:15064   */\n      add\n        /* \"#utility.yul\":15045:15064   */\n      swap2\n      pop\n        /* \"#utility.yul\":15074:15149   */\n      tag_350\n        /* \"#utility.yul\":15145:15148   */\n      dup3\n        /* \"#utility.yul\":15136:15142   */\n      dup5\n        /* \"#utility.yul\":15074:15149   */\n      tag_176\n      jump\t// in\n    tag_350:\n        /* \"#utility.yul\":15174:15176   */\n      0x20\n        /* \"#utility.yul\":15169:15172   */\n      dup3\n        /* \"#utility.yul\":15165:15177   */\n      add\n        /* \"#utility.yul\":15158:15177   */\n      swap2\n      pop\n        /* \"#utility.yul\":15194:15197   */\n      dup2\n        /* \"#utility.yul\":15187:15197   */\n      swap1\n      pop\n        /* \"#utility.yul\":14345:15203   */\n      swap7\n      swap6\n      pop\n      pop\n      pop\n      pop\n      pop\n      pop\n      jump\t// out\n        /* \"#utility.yul\":15209:15434   */\n    tag_177:\n        /* \"#utility.yul\":15349:15383   */\n      0x53616c6520616c7265616479207265636f7264656420666f7220746869732070\n        /* \"#utility.yul\":15345:15346   */\n      0x00\n        /* \"#utility.yul\":15337:15343   */\n      dup3\n        /* \"#utility.yul\":15333:15347   */\n      add\n        /* \"#utility.yul\":15326:15384   */\n      mstore\n        /* \"#utility.yul\":15418:15426   */\n      0x726f647563740000000000000000000000000000000000000000000000000000\n        /* \"#utility.yul\":15413:15415   */\n      0x20\n        /* \"#utility.yul\":15405:15411   */\n      dup3\n        /* \"#utility.yul\":15401:15416   */\n      add\n        /* \"#utility.yul\":15394:15427   */\n      mstore\n        /* \"#utility.yul\":15209:15434   */\n      pop\n      jump\t// out\n        /* \"#utility.yul\":15440:15806   */\n    tag_178:\n        /* \"#utility.yul\":15582:15585   */\n      0x00\n        /* \"#utility.yul\":15603:15670   */\n      tag_353\n        /* \"#utility.yul\":15667:15669   */\n      0x26\n        /* \"#utility.yul\":15662:15665   */\n      dup4\n        /* \"#utility.yul\":15603:15670   */\n      tag_148\n      jump\t// in\n    tag_353:\n        /* \"#utility.yul\":15596:15670   */\n      swap2\n      pop\n        /* \"#utility.yul\":15679:15772   */\n      tag_354\n        /* \"#utility.yul\":15768:15771   */\n      dup3\n        /* \"#utility.yul\":15679:15772   */\n      tag_177\n      jump\t// in\n    tag_354:\n        /* \"#utility.yul\":15797:15799   */\n      0x40\n        /* \"#utility.yul\":15792:15795   */\n      dup3\n        /* \"#utility.yul\":15788:15800   */\n      add\n        /* \"#utility.yul\":15781:15800   */\n      swap1\n      pop\n        /* \"#utility.yul\":15440:15806   */\n      swap2\n      swap1\n      pop\n      jump\t// out\n        /* \"#utility.yul\":15812:16231   */\n    tag_104:\n        /* \"#utility.yul\":15978:15982   */\n      0x00\n        /* \"#utility.yul\":16016:16018   */\n      0x20\n        /* \"#utility.yul\":16005:16014   */\n      dup3\n        /* \"#utility.yul\":16001:16019   */\n      add\n        /* \"#utility.yul\":15993:16019   */\n      swap1\n      pop\n        /* \"#utility.yul\":16065:16074   */\n      dup2\n        /* \"#utility.yul\":16059:16063   */\n      dup2\n        /* \"#utility.yul\":16055:16075   */\n      sub\n        /* \"#utility.yul\":16051:16052   */\n      0x00\n        /* \"#utility.yul\":16040:16049   */\n      dup4\n        /* \"#utility.yul\":16036:16053   */\n      add\n        /* \"#utility.yul\":16029:16076   */\n      mstore\n        /* \"#utility.yul\":16093:16224   */\n      tag_356\n        /* \"#utility.yul\":16219:16223   */\n      dup2\n        /* \"#utility.yul\":16093:16224   */\n      tag_178\n      jump\t// in\n    tag_356:\n        /* \"#utility.yul\":16085:16224   */\n      swap1\n      pop\n        /* \"#utility.yul\":15812:16231   */\n      swap2\n      swap1\n      pop\n      jump\t// out\n        /* \"#utility.yul\":16237:16327   */\n    tag_179:\n        /* \"#utility.yul\":16271:16278   */\n      0x00\n        /* \"#utility.yul\":16314:16319   */\n      dup2\n        /* \"#utility.yul\":16307:16320   */\n      iszero\n        /* \"#utility.yul\":16300:16321   */\n      iszero\n        /* \"#utility.yul\":16289:16321   */\n      swap1\n      pop\n        /* \"#utility.yul\":16237:16327   */\n      swap2\n      swap1\n      pop\n      jump\t// out\n        /* \"#utility.yul\":16333:16449   */\n    tag_180:\n        /* \"#utility.yul\":16403:16424   */\n      tag_359\n        /* \"#utility.yul\":16418:16423   */\n      dup2\n        /* \"#utility.yul\":16403:16424   */\n      tag_179\n      jump\t// in\n    tag_359:\n        /* \"#utility.yul\":16396:16401   */\n      dup2\n        /* \"#utility.yul\":16393:16425   */\n      eq\n        /* \"#utility.yul\":16383:16443   */\n      tag_360\n      jumpi\n        /* \"#utility.yul\":16439:16440   */\n      0x00\n        /* \"#utility.yul\":16436:16437   */\n      dup1\n        /* \"#utility.yul\":16429:16441   */\n      revert\n        /* \"#utility.yul\":16383:16443   */\n    tag_360:\n        /* \"#utility.yul\":16333:16449   */\n      pop\n      jump\t// out\n        /* \"#utility.yul\":16455:16592   */\n    tag_181:\n        /* \"#utility.yul\":16509:16514   */\n      0x00\n        /* \"#utility.yul\":16540:16546   */\n      dup2\n        /* \"#utility.yul\":16534:16547   */\n      mload\n        /* \"#utility.yul\":16525:16547   */\n      swap1\n      pop\n        /* \"#utility.yul\":16556:16586   */\n      tag_362\n        /* \"#utility.yul\":16580:16585   */\n      dup2\n        /* \"#utility.yul\":16556:16586   */\n      tag_180\n      jump\t// in\n    tag_362:\n        /* \"#utility.yul\":16455:16592   */\n      swap3\n      swap2\n      pop\n      pop\n      jump\t// out\n        /* \"#utility.yul\":16598:16943   */\n    tag_109:\n        /* \"#utility.yul\":16665:16671   */\n      0x00\n        /* \"#utility.yul\":16714:16716   */\n      0x20\n        /* \"#utility.yul\":16702:16711   */\n      dup3\n        /* \"#utility.yul\":16693:16700   */\n      dup5\n        /* \"#utility.yul\":16689:16712   */\n      sub\n        /* \"#utility.yul\":16685:16717   */\n      slt\n        /* \"#utility.yul\":16682:16801   */\n      iszero\n      tag_364\n      jumpi\n        /* \"#utility.yul\":16720:16799   */\n      tag_365\n      tag_135\n      jump\t// in\n    tag_365:\n        /* \"#utility.yul\":16682:16801   */\n    tag_364:\n        /* \"#utility.yul\":16840:16841   */\n      0x00\n        /* \"#utility.yul\":16865:16926   */\n      tag_366\n        /* \"#utility.yul\":16918:16925   */\n      dup5\n        /* \"#utility.yul\":16909:16915   */\n      dup3\n        /* \"#utility.yul\":16898:16907   */\n      dup6\n        /* \"#utility.yul\":16894:16916   */\n      add\n        /* \"#utility.yul\":16865:16926   */\n      tag_181\n      jump\t// in\n    tag_366:\n        /* \"#utility.yul\":16855:16926   */\n      swap2\n      pop\n        /* \"#utility.yul\":16811:16936   */\n      pop\n        /* \"#utility.yul\":16598:16943   */\n      swap3\n      swap2\n      pop\n      pop\n      jump\t// out\n        /* \"#utility.yul\":16949:17117   */\n    tag_182:\n        /* \"#utility.yul\":17089:17109   */\n      0x496e76616c69642070726f647563742049440000000000000000000000000000\n        /* \"#utility.yul\":17085:17086   */\n      0x00\n        /* \"#utility.yul\":17077:17083   */\n      dup3\n        /* \"#utility.yul\":17073:17087   */\n      add\n        /* \"#utility.yul\":17066:17110   */\n      mstore\n        /* \"#utility.yul\":16949:17117   */\n      pop\n      jump\t// out\n        /* \"#utility.yul\":17123:17489   */\n    tag_183:\n        /* \"#utility.yul\":17265:17268   */\n      0x00\n        /* \"#utility.yul\":17286:17353   */\n      tag_369\n        /* \"#utility.yul\":17350:17352   */\n      0x12\n        /* \"#utility.yul\":17345:17348   */\n      dup4\n        /* \"#utility.yul\":17286:17353   */\n      tag_148\n      jump\t// in\n    tag_369:\n        /* \"#utility.yul\":17279:17353   */\n      swap2\n      pop\n        /* \"#utility.yul\":17362:17455   */\n      tag_370\n        /* \"#utility.yul\":17451:17454   */\n      dup3\n        /* \"#utility.yul\":17362:17455   */\n      tag_182\n      jump\t// in\n    tag_370:\n        /* \"#utility.yul\":17480:17482   */\n      0x20\n        /* \"#utility.yul\":17475:17478   */\n      dup3\n        /* \"#utility.yul\":17471:17483   */\n      add\n        /* \"#utility.yul\":17464:17483   */\n      swap1\n      pop\n        /* \"#utility.yul\":17123:17489   */\n      swap2\n      swap1\n      pop\n      jump\t// out\n        /* \"#utility.yul\":17495:17914   */\n    tag_112:\n        /* \"#utility.yul\":17661:17665   */\n      0x00\n        /* \"#utility.yul\":17699:17701   */\n      0x20\n        /* \"#utility.yul\":17688:17697   */\n      dup3\n        /* \"#utility.yul\":17684:17702   */\n      add\n        /* \"#utility.yul\":17676:17702   */\n      swap1\n      pop\n        /* \"#utility.yul\":17748:17757   */\n      dup2\n        /* \"#utility.yul\":17742:17746   */\n      dup2\n        /* \"#utility.yul\":17738:17758   */\n      sub\n        /* \"#utility.yul\":17734:17735   */\n      0x00\n        /* \"#utility.yul\":17723:17732   */\n      dup4\n        /* \"#utility.yul\":17719:17736   */\n      add\n        /* \"#utility.yul\":17712:17759   */\n      mstore\n        /* \"#utility.yul\":17776:17907   */\n      tag_372\n        /* \"#utility.yul\":17902:17906   */\n      dup2\n        /* \"#utility.yul\":17776:17907   */\n      tag_183\n      jump\t// in\n    tag_372:\n        /* \"#utility.yul\":17768:17907   */\n      swap1\n      pop\n        /* \"#utility.yul\":17495:17914   */\n      swap2\n      swap1\n      pop\n      jump\t// out\n        /* \"#utility.yul\":17920:18014   */\n    tag_184:\n        /* \"#utility.yul\":17953:17961   */\n      0x00\n        /* \"#utility.yul\":18001:18006   */\n      dup2\n        /* \"#utility.yul\":17997:17999   */\n      0x60\n        /* \"#utility.yul\":17993:18007   */\n      shl\n        /* \"#utility.yul\":17972:18007   */\n      swap1\n      pop\n        /* \"#utility.yul\":17920:18014   */\n      swap2\n      swap1\n      pop\n      jump\t// out\n        /* \"#utility.yul\":18020:18114   */\n    tag_185:\n        /* \"#utility.yul\":18059:18066   */\n      0x00\n        /* \"#utility.yul\":18088:18108   */\n      tag_375\n        /* \"#utility.yul\":18102:18107   */\n      dup3\n        /* \"#utility.yul\":18088:18108   */\n      tag_184\n      jump\t// in\n    tag_375:\n        /* \"#utility.yul\":18077:18108   */\n      swap1\n      pop\n        /* \"#utility.yul\":18020:18114   */\n      swap2\n      swap1\n      pop\n      jump\t// out\n        /* \"#utility.yul\":18120:18220   */\n    tag_186:\n        /* \"#utility.yul\":18159:18166   */\n      0x00\n        /* \"#utility.yul\":18188:18214   */\n      tag_377\n        /* \"#utility.yul\":18208:18213   */\n      dup3\n        /* \"#utility.yul\":18188:18214   */\n      tag_185\n      jump\t// in\n    tag_377:\n        /* \"#utility.yul\":18177:18214   */\n      swap1\n      pop\n        /* \"#utility.yul\":18120:18220   */\n      swap2\n      swap1\n      pop\n      jump\t// out\n        /* \"#utility.yul\":18226:18383   */\n    tag_187:\n        /* \"#utility.yul\":18331:18376   */\n      tag_379\n        /* \"#utility.yul\":18351:18375   */\n      tag_380\n        /* \"#utility.yul\":18369:18374   */\n      dup3\n        /* \"#utility.yul\":18351:18375   */\n      tag_166\n      jump\t// in\n    tag_380:\n        /* \"#utility.yul\":18331:18376   */\n      tag_186\n      jump\t// in\n    tag_379:\n        /* \"#utility.yul\":18326:18329   */\n      dup3\n        /* \"#utility.yul\":18319:18377   */\n      mstore\n        /* \"#utility.yul\":18226:18383   */\n      pop\n      pop\n      jump\t// out\n        /* \"#utility.yul\":18389:18805   */\n    tag_114:\n        /* \"#utility.yul\":18549:18552   */\n      0x00\n        /* \"#utility.yul\":18571:18666   */\n      tag_382\n        /* \"#utility.yul\":18662:18665   */\n      dup3\n        /* \"#utility.yul\":18653:18659   */\n      dup6\n        /* \"#utility.yul\":18571:18666   */\n      tag_170\n      jump\t// in\n    tag_382:\n        /* \"#utility.yul\":18564:18666   */\n      swap2\n      pop\n        /* \"#utility.yul\":18676:18751   */\n      tag_383\n        /* \"#utility.yul\":18747:18750   */\n      dup3\n        /* \"#utility.yul\":18738:18744   */\n      dup5\n        /* \"#utility.yul\":18676:18751   */\n      tag_187\n      jump\t// in\n    tag_383:\n        /* \"#utility.yul\":18776:18778   */\n      0x14\n        /* \"#utility.yul\":18771:18774   */\n      dup3\n        /* \"#utility.yul\":18767:18779   */\n      add\n        /* \"#utility.yul\":18760:18779   */\n      swap2\n      pop\n        /* \"#utility.yul\":18796:18799   */\n      dup2\n        /* \"#utility.yul\":18789:18799   */\n      swap1\n      pop\n        /* \"#utility.yul\":18389:18805   */\n      swap4\n      swap3\n      pop\n      pop\n      pop\n      jump\t// out\n        /* \"#utility.yul\":18811:18952   */\n    tag_188:\n        /* \"#utility.yul\":18860:18864   */\n      0x00\n        /* \"#utility.yul\":18883:18886   */\n      dup2\n        /* \"#utility.yul\":18875:18886   */\n      swap1\n      pop\n        /* \"#utility.yul\":18906:18909   */\n      dup2\n        /* \"#utility.yul\":18903:18904   */\n      0x00\n        /* \"#utility.yul\":18896:18910   */\n      mstore\n        /* \"#utility.yul\":18940:18944   */\n      0x20\n        /* \"#utility.yul\":18937:18938   */\n      0x00\n        /* \"#utility.yul\":18927:18945   */\n      keccak256\n        /* \"#utility.yul\":18919:18945   */\n      swap1\n      pop\n        /* \"#utility.yul\":18811:18952   */\n      swap2\n      swap1\n      pop\n      jump\t// out\n        /* \"#utility.yul\":18958:19051   */\n    tag_189:\n        /* \"#utility.yul\":18995:19001   */\n      0x00\n        /* \"#utility.yul\":19042:19044   */\n      0x20\n        /* \"#utility.yul\":19037:19039   */\n      0x1f\n        /* \"#utility.yul\":19030:19035   */\n      dup4\n        /* \"#utility.yul\":19026:19040   */\n      add\n        /* \"#utility.yul\":19022:19045   */\n      div\n        /* \"#utility.yul\":19012:19045   */\n      swap1\n      pop\n        /* \"#utility.yul\":18958:19051   */\n      swap2\n      swap1\n      pop\n      jump\t// out\n        /* \"#utility.yul\":19057:19164   */\n    tag_190:\n        /* \"#utility.yul\":19101:19109   */\n      0x00\n        /* \"#utility.yul\":19151:19156   */\n      dup3\n        /* \"#utility.yul\":19145:19149   */\n      dup3\n        /* \"#utility.yul\":19141:19157   */\n      shl\n        /* \"#utility.yul\":19120:19157   */\n      swap1\n      pop\n        /* \"#utility.yul\":19057:19164   */\n      swap3\n      swap2\n      pop\n      pop\n      jump\t// out\n        /* \"#utility.yul\":19170:19563   */\n    tag_191:\n        /* \"#utility.yul\":19239:19245   */\n      0x00\n        /* \"#utility.yul\":19289:19290   */\n      0x08\n        /* \"#utility.yul\":19277:19287   */\n      dup4\n        /* \"#utility.yul\":19273:19291   */\n      mul\n        /* \"#utility.yul\":19312:19409   */\n      tag_388\n        /* \"#utility.yul\":19342:19408   */\n      0xffffffffffffffffffffffffffffffffffffffffffffffffffffffffffffffff\n        /* \"#utility.yul\":19331:19340   */\n      dup3\n        /* \"#utility.yul\":19312:19409   */\n      tag_190\n      jump\t// in\n    tag_388:\n        /* \"#utility.yul\":19430:19469   */\n      tag_389\n        /* \"#utility.yul\":19460:19468   */\n      dup7\n        /* \"#utility.yul\":19449:19458   */\n      dup4\n        /* \"#utility.yul\":19430:19469   */\n      tag_190\n      jump\t// in\n    tag_389:\n        /* \"#utility.yul\":19418:19469   */\n      swap6\n      pop\n        /* \"#utility.yul\":19502:19506   */\n      dup1\n        /* \"#utility.yul\":19498:19507   */\n      not\n        /* \"#utility.yul\":19491:19496   */\n      dup5\n        /* \"#utility.yul\":19487:19508   */\n      and\n        /* \"#utility.yul\":19478:19508   */\n      swap4\n      pop\n        /* \"#utility.yul\":19551:19555   */\n      dup1\n        /* \"#utility.yul\":19541:19549   */\n      dup7\n        /* \"#utility.yul\":19537:19556   */\n      and\n        /* \"#utility.yul\":19530:19535   */\n      dup5\n        /* \"#utility.yul\":19527:19557   */\n      or\n        /* \"#utility.yul\":19517:19557   */\n      swap3\n      pop\n        /* \"#utility.yul\":19246:19563   */\n      pop\n      pop\n        /* \"#utility.yul\":19170:19563   */\n      swap4\n      swap3\n      pop\n      pop\n      pop\n      jump\t// out\n        /* \"#utility.yul\":19569:19629   */\n    tag_192:\n        /* \"#utility.yul\":19597:19600   */\n      0x00\n        /* \"#utility.yul\":19618:19623   */\n      dup2\n        /* \"#utility.yul\":19611:19623   */\n      swap1\n      pop\n        /* \"#utility.yul\":19569:19629   */\n      swap2\n      swap1\n      pop\n      jump\t// out\n        /* \"#utility.yul\":19635:19777   */\n    tag_193:\n        /* \"#utility.yul\":19685:19694   */\n      0x00\n        /* \"#utility.yul\":19718:19771   */\n      tag_392\n        /* \"#utility.yul\":19736:19770   */\n      tag_393\n        /* \"#utility.yul\":19745:19769   */\n      tag_394\n        /* \"#utility.yul\":19763:19768   */\n      dup5\n        /* \"#utility.yul\":19745:19769   */\n      tag_151\n      jump\t// in\n    tag_394:\n        /* \"#utility.yul\":19736:19770   */\n      tag_192\n      jump\t// in\n    tag_393:\n        /* \"#utility.yul\":19718:19771   */\n      tag_151\n      jump\t// in\n    tag_392:\n        /* \"#utility.yul\":19705:19771   */\n      swap1\n      pop\n        /* \"#utility.yul\":19635:19777   */\n      swap2\n      swap1\n      pop\n      jump\t// out\n        /* \"#utility.yul\":19783:19858   */\n    tag_194:\n        /* \"#utility.yul\":19826:19829   */\n      0x00\n        /* \"#utility.yul\":19847:19852   */\n      dup2\n        /* \"#utility.yul\":19840:19852   */\n      swap1\n      pop\n        /* \"#utility.yul\":19783:19858   */\n      swap2\n      swap1\n      pop\n      jump\t// out\n        /* \"#utility.yul\":19864:20133   */\n    tag_195:\n        /* \"#utility.yul\":19974:20013   */\n      tag_397\n        /* \"#utility.yul\":20005:20012   */\n      dup4\n        /* \"#utility.yul\":19974:20013   */\n      tag_193\n      jump\t// in\n    tag_397:\n        /* \"#utility.yul\":20035:20126   */\n      tag_398\n        /* \"#utility.yul\":20084:20125   */\n      tag_399\n        /* \"#utility.yul\":20108:20124   */\n      dup3\n        /* \"#utility.yul\":20084:20125   */\n      tag_194\n      jump\t// in\n    tag_399:\n        /* \"#utility.yul\":20076:20082   */\n      dup5\n        /* \"#utility.yul\":20069:20073   */\n      dup5\n        /* \"#utility.yul\":20063:20074   */\n      sload\n        /* \"#utility.yul\":20035:20126   */\n      tag_191\n      jump\t// in\n    tag_398:\n        /* \"#utility.yul\":20029:20033   */\n      dup3\n        /* \"#utility.yul\":20022:20127   */\n      sstore\n        /* \"#utility.yul\":19940:20133   */\n      pop\n        /* \"#utility.yul\":19864:20133   */\n      pop\n      pop\n      pop\n      jump\t// out\n        /* \"#utility.yul\":20139:20212   */\n    tag_196:\n        /* \"#utility.yul\":20184:20187   */\n      0x00\n        /* \"#utility.yul\":20139:20212   */\n      swap1\n      jump\t// out\n        /* \"#utility.yul\":20218:20407   */\n    tag_197:\n        /* \"#utility.yul\":20295:20327   */\n      tag_402\n      tag_196\n      jump\t// in\n    tag_402:\n        /* \"#utility.yul\":20336:20401   */\n      tag_403\n        /* \"#utility.yul\":20394:20400   */\n      dup2\n        /* \"#utility.yul\":20386:20392   */\n      dup5\n        /* \"#utility.yul\":20380:20384   */\n      dup5\n        /* \"#utility.yul\":20336:20401   */\n      tag_195\n      jump\t// in\n    tag_403:\n        /* \"#utility.yul\":20271:20407   */\n      pop\n        /* \"#utility.yul\":20218:20407   */\n      pop\n      pop\n      jump\t// out\n        /* \"#utility.yul\":20413:20599   */\n    tag_198:\n        /* \"#utility.yul\":20473:20593   */\n    tag_405:\n        /* \"#utility.yul\":20490:20493   */\n      dup2\n        /* \"#utility.yul\":20483:20488   */\n      dup2\n        /* \"#utility.yul\":20480:20494   */\n      lt\n        /* \"#utility.yul\":20473:20593   */\n      iszero\n      tag_407\n      jumpi\n        /* \"#utility.yul\":20544:20583   */\n      tag_408\n        /* \"#utility.yul\":20581:20582   */\n      0x00\n        /* \"#utility.yul\":20574:20579   */\n      dup3\n        /* \"#utility.yul\":20544:20583   */\n      tag_197\n      jump\t// in\n    tag_408:\n        /* \"#utility.yul\":20517:20518   */\n      0x01\n        /* \"#utility.yul\":20510:20515   */\n      dup2\n        /* \"#utility.yul\":20506:20519   */\n      add\n        /* \"#utility.yul\":20497:20519   */\n      swap1\n      pop\n        /* \"#utility.yul\":20473:20593   */\n      jump(tag_405)\n    tag_407:\n        /* \"#utility.yul\":20413:20599   */\n      pop\n      pop\n      jump\t// out\n        /* \"#utility.yul\":20605:21148   */\n    tag_199:\n        /* \"#utility.yul\":20706:20708   */\n      0x1f\n        /* \"#utility.yul\":20701:20704   */\n      dup3\n        /* \"#utility.yul\":20698:20709   */\n      gt\n        /* \"#utility.yul\":20695:21141   */\n      iszero\n      tag_410\n      jumpi\n        /* \"#utility.yul\":20740:20778   */\n      tag_411\n        /* \"#utility.yul\":20772:20777   */\n      dup2\n        /* \"#utility.yul\":20740:20778   */\n      tag_188\n      jump\t// in\n    tag_411:\n        /* \"#utility.yul\":20824:20853   */\n      tag_412\n        /* \"#utility.yul\":20842:20852   */\n      dup5\n        /* \"#utility.yul\":20824:20853   */\n      tag_189\n      jump\t// in\n    tag_412:\n        /* \"#utility.yul\":20814:20822   */\n      dup2\n        /* \"#utility.yul\":20810:20854   */\n      add\n        /* \"#utility.yul\":21007:21009   */\n      0x20\n        /* \"#utility.yul\":20995:21005   */\n      dup6\n        /* \"#utility.yul\":20992:21010   */\n      lt\n        /* \"#utility.yul\":20989:21038   */\n      iszero\n      tag_413\n      jumpi\n        /* \"#utility.yul\":21028:21036   */\n      dup2\n        /* \"#utility.yul\":21013:21036   */\n      swap1\n      pop\n        /* \"#utility.yul\":20989:21038   */\n    tag_413:\n        /* \"#utility.yul\":21051:21131   */\n      tag_414\n        /* \"#utility.yul\":21107:21129   */\n      tag_415\n        /* \"#utility.yul\":21125:21128   */\n      dup6\n        /* \"#utility.yul\":21107:21129   */\n      tag_189\n      jump\t// in\n    tag_415:\n        /* \"#utility.yul\":21097:21105   */\n      dup4\n        /* \"#utility.yul\":21093:21130   */\n      add\n        /* \"#utility.yul\":21080:21091   */\n      dup3\n        /* \"#utility.yul\":21051:21131   */\n      tag_198\n      jump\t// in\n    tag_414:\n        /* \"#utility.yul\":20710:21141   */\n      pop\n      pop\n        /* \"#utility.yul\":20695:21141   */\n    tag_410:\n        /* \"#utility.yul\":20605:21148   */\n      pop\n      pop\n      pop\n      jump\t// out\n        /* \"#utility.yul\":21154:21271   */\n    tag_200:\n        /* \"#utility.yul\":21208:21216   */\n      0x00\n        /* \"#utility.yul\":21258:21263   */\n      dup3\n        /* \"#utility.yul\":21252:21256   */\n      dup3\n        /* \"#utility.yul\":21248:21264   */\n      shr\n        /* \"#utility.yul\":21227:21264   */\n      swap1\n      pop\n        /* \"#utility.yul\":21154:21271   */\n      swap3\n      swap2\n      pop\n      pop\n      jump\t// out\n        /* \"#utility.yul\":21277:21446   */\n    tag_201:\n        /* \"#utility.yul\":21321:21327   */\n      0x00\n        /* \"#utility.yul\":21354:21405   */\n      tag_418\n        /* \"#utility.yul\":21402:21403   */\n      0x00\n        /* \"#utility.yul\":21398:21404   */\n      not\n        /* \"#utility.yul\":21390:21395   */\n      dup5\n        /* \"#utility.yul\":21387:21388   */\n      0x08\n        /* \"#utility.yul\":21383:21396   */\n      mul\n        /* \"#utility.yul\":21354:21405   */\n      tag_200\n      jump\t// in\n    tag_418:\n        /* \"#utility.yul\":21350:21406   */\n      not\n        /* \"#utility.yul\":21435:21439   */\n      dup1\n        /* \"#utility.yul\":21429:21433   */\n      dup4\n        /* \"#utility.yul\":21425:21440   */\n      and\n        /* \"#utility.yul\":21415:21440   */\n      swap2\n      pop\n        /* \"#utility.yul\":21328:21446   */\n      pop\n        /* \"#utility.yul\":21277:21446   */\n      swap3\n      swap2\n      pop\n      pop\n      jump\t// out\n        /* \"#utility.yul\":21451:21746   */\n    tag_202:\n        /* \"#utility.yul\":21527:21531   */\n      0x00\n        /* \"#utility.yul\":21673:21702   */\n      tag_420\n        /* \"#utility.yul\":21698:21701   */\n      dup4\n        /* \"#utility.yul\":21692:21696   */\n      dup4\n        /* \"#utility.yul\":21673:21702   */\n      tag_201\n      jump\t// in\n    tag_420:\n        /* \"#utility.yul\":21665:21702   */\n      swap2\n      pop\n        /* \"#utility.yul\":21735:21738   */\n      dup3\n        /* \"#utility.yul\":21732:21733   */\n      0x02\n        /* \"#utility.yul\":21728:21739   */\n      mul\n        /* \"#utility.yul\":21722:21726   */\n      dup3\n        /* \"#utility.yul\":21719:21740   */\n      or\n        /* \"#utility.yul\":21711:21740   */\n      swap1\n      pop\n        /* \"#utility.yul\":21451:21746   */\n      swap3\n      swap2\n      pop\n      pop\n      jump\t// out\n        /* \"#utility.yul\":21751:23146   */\n    tag_117:\n        /* \"#utility.yul\":21868:21905   */\n      tag_422\n        /* \"#utility.yul\":21901:21904   */\n      dup3\n        /* \"#utility.yul\":21868:21905   */\n      tag_147\n      jump\t// in\n    tag_422:\n        /* \"#utility.yul\":21970:21988   */\n      0xffffffffffffffff\n        /* \"#utility.yul\":21962:21968   */\n      dup2\n        /* \"#utility.yul\":21959:21989   */\n      gt\n        /* \"#utility.yul\":21956:22012   */\n      iszero\n      tag_423\n      jumpi\n        /* \"#utility.yul\":21992:22010   */\n      tag_424\n      tag_140\n      jump\t// in\n    tag_424:\n        /* \"#utility.yul\":21956:22012   */\n    tag_423:\n        /* \"#utility.yul\":22036:22074   */\n      tag_425\n        /* \"#utility.yul\":22068:22072   */\n      dup3\n        /* \"#utility.yul\":22062:22073   */\n      sload\n        /* \"#utility.yul\":22036:22074   */\n      tag_51\n      jump\t// in\n    tag_425:\n        /* \"#utility.yul\":22121:22188   */\n      tag_426\n        /* \"#utility.yul\":22181:22187   */\n      dup3\n        /* \"#utility.yul\":22173:22179   */\n      dup3\n        /* \"#utility.yul\":22167:22171   */\n      dup6\n        /* \"#utility.yul\":22121:22188   */\n      tag_199\n      jump\t// in\n    tag_426:\n        /* \"#utility.yul\":22215:22216   */\n      0x00\n        /* \"#utility.yul\":22239:22243   */\n      0x20\n        /* \"#utility.yul\":22226:22243   */\n      swap1\n      pop\n        /* \"#utility.yul\":22271:22273   */\n      0x1f\n        /* \"#utility.yul\":22263:22269   */\n      dup4\n        /* \"#utility.yul\":22260:22274   */\n      gt\n        /* \"#utility.yul\":22288:22289   */\n      0x01\n        /* \"#utility.yul\":22283:22901   */\n      dup2\n      eq\n      tag_428\n      jumpi\n        /* \"#utility.yul\":22945:22946   */\n      0x00\n        /* \"#utility.yul\":22962:22968   */\n      dup5\n        /* \"#utility.yul\":22959:23036   */\n      iszero\n      tag_429\n      jumpi\n        /* \"#utility.yul\":23011:23020   */\n      dup3\n        /* \"#utility.yul\":23006:23009   */\n      dup8\n        /* \"#utility.yul\":23002:23021   */\n      add\n        /* \"#utility.yul\":22996:23022   */\n      mload\n        /* \"#utility.yul\":22987:23022   */\n      swap1\n      pop\n        /* \"#utility.yul\":22959:23036   */\n    tag_429:\n        /* \"#utility.yul\":23062:23129   */\n      tag_430\n        /* \"#utility.yul\":23122:23128   */\n      dup6\n        /* \"#utility.yul\":23115:23120   */\n      dup3\n        /* \"#utility.yul\":23062:23129   */\n      tag_202\n      jump\t// in\n    tag_430:\n        /* \"#utility.yul\":23056:23060   */\n      dup7\n        /* \"#utility.yul\":23049:23130   */\n      sstore\n        /* \"#utility.yul\":22918:23140   */\n      pop\n        /* \"#utility.yul\":22253:23140   */\n      jump(tag_427)\n        /* \"#utility.yul\":22283:22901   */\n    tag_428:\n        /* \"#utility.yul\":22335:22339   */\n      0x1f\n        /* \"#utility.yul\":22331:22340   */\n      not\n        /* \"#utility.yul\":22323:22329   */\n      dup5\n        /* \"#utility.yul\":22319:22341   */\n      and\n        /* \"#utility.yul\":22369:22406   */\n      tag_431\n        /* \"#utility.yul\":22401:22405   */\n      dup7\n        /* \"#utility.yul\":22369:22406   */\n      tag_188\n      jump\t// in\n    tag_431:\n        /* \"#utility.yul\":22428:22429   */\n      0x00\n        /* \"#utility.yul\":22442:22650   */\n    tag_432:\n        /* \"#utility.yul\":22456:22463   */\n      dup3\n        /* \"#utility.yul\":22453:22454   */\n      dup2\n        /* \"#utility.yul\":22450:22464   */\n      lt\n        /* \"#utility.yul\":22442:22650   */\n      iszero\n      tag_434\n      jumpi\n        /* \"#utility.yul\":22535:22544   */\n      dup5\n        /* \"#utility.yul\":22530:22533   */\n      dup10\n        /* \"#utility.yul\":22526:22545   */\n      add\n        /* \"#utility.yul\":22520:22546   */\n      mload\n        /* \"#utility.yul\":22512:22518   */\n      dup3\n        /* \"#utility.yul\":22505:22547   */\n      sstore\n        /* \"#utility.yul\":22586:22587   */\n      0x01\n        /* \"#utility.yul\":22578:22584   */\n      dup3\n        /* \"#utility.yul\":22574:22588   */\n      add\n        /* \"#utility.yul\":22564:22588   */\n      swap2\n      pop\n        /* \"#utility.yul\":22633:22635   */\n      0x20\n        /* \"#utility.yul\":22622:22631   */\n      dup6\n        /* \"#utility.yul\":22618:22636   */\n      add\n        /* \"#utility.yul\":22605:22636   */\n      swap5\n      pop\n        /* \"#utility.yul\":22479:22483   */\n      0x20\n        /* \"#utility.yul\":22476:22477   */\n      dup2\n        /* \"#utility.yul\":22472:22484   */\n      add\n        /* \"#utility.yul\":22467:22484   */\n      swap1\n      pop\n        /* \"#utility.yul\":22442:22650   */\n      jump(tag_432)\n    tag_434:\n        /* \"#utility.yul\":22678:22684   */\n      dup7\n        /* \"#utility.yul\":22669:22676   */\n      dup4\n        /* \"#utility.yul\":22666:22685   */\n      lt\n        /* \"#utility.yul\":22663:22842   */\n      iszero\n      tag_435\n      jumpi\n        /* \"#utility.yul\":22736:22745   */\n      dup5\n        /* \"#utility.yul\":22731:22734   */\n      dup10\n        /* \"#utility.yul\":22727:22746   */\n      add\n        /* \"#utility.yul\":22721:22747   */\n      mload\n        /* \"#utility.yul\":22779:22827   */\n      tag_436\n        /* \"#utility.yul\":22821:22825   */\n      0x1f\n        /* \"#utility.yul\":22813:22819   */\n      dup10\n        /* \"#utility.yul\":22809:22826   */\n      and\n        /* \"#utility.yul\":22798:22807   */\n      dup3\n        /* \"#utility.yul\":22779:22827   */\n      tag_201\n      jump\t// in\n    tag_436:\n        /* \"#utility.yul\":22771:22777   */\n      dup4\n        /* \"#utility.yul\":22764:22828   */\n      sstore\n        /* \"#utility.yul\":22686:22842   */\n      pop\n        /* \"#utility.yul\":22663:22842   */\n    tag_435:\n        /* \"#utility.yul\":22888:22889   */\n      0x01\n        /* \"#utility.yul\":22884:22885   */\n      0x02\n        /* \"#utility.yul\":22876:22882   */\n      dup9\n        /* \"#utility.yul\":22872:22886   */\n      mul\n        /* \"#utility.yul\":22868:22890   */\n      add\n        /* \"#utility.yul\":22862:22866   */\n      dup9\n        /* \"#utility.yul\":22855:22891   */\n      sstore\n        /* \"#utility.yul\":22290:22901   */\n      pop\n      pop\n      pop\n        /* \"#utility.yul\":22253:23140   */\n    tag_427:\n      pop\n        /* \"#utility.yul\":21843:23146   */\n      pop\n      pop\n      pop\n        /* \"#utility.yul\":21751:23146   */\n      pop\n      pop\n      jump\t// out\n        /* \"#utility.yul\":23152:23575   */\n    tag_123:\n        /* \"#utility.yul\":23293:23297   */\n      0x00\n        /* \"#utility.yul\":23331:23333   */\n      0x40\n        /* \"#utility.yul\":23320:23329   */\n      dup3\n        /* \"#utility.yul\":23316:23334   */\n      add\n        /* \"#utility.yul\":23308:23334   */\n      swap1\n      pop\n        /* \"#utility.yul\":23380:23389   */\n      dup2\n        /* \"#utility.yul\":23374:23378   */\n      dup2\n        /* \"#utility.yul\":23370:23390   */\n      sub\n        /* \"#utility.yul\":23366:23367   */\n      0x00\n        /* \"#utility.yul\":23355:23364   */\n      dup4\n        /* \"#utility.yul\":23351:23368   */\n      add\n        /* \"#utility.yul\":23344:23391   */\n      mstore\n        /* \"#utility.yul\":23408:23486   */\n      tag_438\n        /* \"#utility.yul\":23481:23485   */\n      dup2\n        /* \"#utility.yul\":23472:23478   */\n      dup6\n        /* \"#utility.yul\":23408:23486   */\n      tag_150\n      jump\t// in\n    tag_438:\n        /* \"#utility.yul\":23400:23486   */\n      swap1\n      pop\n        /* \"#utility.yul\":23496:23568   */\n      tag_439\n        /* \"#utility.yul\":23564:23566   */\n      0x20\n        /* \"#utility.yul\":23553:23562   */\n      dup4\n        /* \"#utility.yul\":23549:23567   */\n      add\n        /* \"#utility.yul\":23540:23546   */\n      dup5\n        /* \"#utility.yul\":23496:23568   */\n      tag_154\n      jump\t// in\n    tag_439:\n        /* \"#utility.yul\":23152:23575   */\n      swap4\n      swap3\n      pop\n      pop\n      pop\n      jump\t// out\n\n    auxdata: 0xa264697066735822122017d6449f89a75853b5b152406914f93b874c2d08b663049d01758d68e05ec36f64736f6c634300081a0033\n}\n",
				"bytecode": {
					"linkReferences": {},
					"object": "608060405234801561000f575f80fd5b5060405161182c38038061182c83398181016040528101906100319190610115565b8060025f6101000a81548173ffffffffffffffffffffffffffffffffffffffff021916908373ffffffffffffffffffffffffffffffffffffffff1602179055508060035f6101000a81548173ffffffffffffffffffffffffffffffffffffffff021916908373ffffffffffffffffffffffffffffffffffffffff16021790555050610140565b5f80fd5b5f73ffffffffffffffffffffffffffffffffffffffff82169050919050565b5f6100e4826100bb565b9050919050565b6100f4816100da565b81146100fe575f80fd5b50565b5f8151905061010f816100eb565b92915050565b5f6020828403121561012a576101296100b7565b5b5f61013784828501610101565b91505092915050565b6116df8061014d5f395ff3fe608060405234801561000f575f80fd5b5060043610610086575f3560e01c8063acc7ca4311610059578063acc7ca4314610151578063b91c79971461016d578063babea0b21461018b578063cdc82bd5146101a957610086565b80633b07ce591461008a578063715f85b4146100be57806387dc5730146100ee578063aa00901214610121575b5f80fd5b6100a4600480360381019061009f9190610c78565b6101c7565b6040516100b5959493929190610d4f565b60405180910390f35b6100d860048036038101906100d39190610c78565b61031c565b6040516100e59190610dae565b60405180910390f35b61010860048036038101906101039190610c78565b610515565b6040516101189493929190610dc7565b60405180910390f35b61013b60048036038101906101369190610e3b565b6106ec565b6040516101489190610e66565b60405180910390f35b61016b60048036038101906101669190610e86565b610792565b005b610175610a26565b6040516101829190610f0e565b60405180910390f35b610193610a32565b6040516101a0919061102a565b60405180910390f35b6101b1610b06565b6040516101be9190611089565b60405180910390f35b5f818051602081018201805184825260208301602085012081835280955050505050505f91509050805f0180546101fd906110cf565b80601f0160208091040260200160405190810160405280929190818152602001828054610229906110cf565b80156102745780601f1061024b57610100808354040283529160200191610274565b820191905f5260205f20905b81548152906001019060200180831161025757829003601f168201915b505050505090806001018054610289906110cf565b80601f01602080910402602001604051908101604052809291908181526020018280546102b5906110cf565b80156103005780601f106102d757610100808354040283529160200191610300565b820191905f5260205f20905b8154815290600101906020018083116102e357829003601f168201915b5050505050908060020154908060030154908060040154905085565b5f805f8360405161032d9190611139565b90815260200160405180910390206040518060a00160405290815f82018054610355906110cf565b80601f0160208091040260200160405190810160405280929190818152602001828054610381906110cf565b80156103cc5780601f106103a3576101008083540402835291602001916103cc565b820191905f5260205f20905b8154815290600101906020018083116103af57829003601f168201915b505050505081526020016001820180546103e5906110cf565b80601f0160208091040260200160405190810160405280929190818152602001828054610411906110cf565b801561045c5780601f106104335761010080835404028352916020019161045c565b820191905f5260205f20905b81548152906001019060200180831161043f57829003601f168201915b50505050508152602001600282015481526020016003820154815260200160048201548152505090505f8160600151116104cb576040517f08c379a00000000000000000000000000000000000000000000000000000000081526004016104c290611199565b60405180910390fd5b805f015181602001518260400151836060015184608001516040516020016104f79594939291906111f7565b60405160208183030381529060405280519060200120915050919050565b60605f805f805f8660405161052a9190611139565b90815260200160405180910390206040518060a00160405290815f82018054610552906110cf565b80601f016020809104026020016040519081016040528092919081815260200182805461057e906110cf565b80156105c95780601f106105a0576101008083540402835291602001916105c9565b820191905f5260205f20905b8154815290600101906020018083116105ac57829003601f168201915b505050505081526020016001820180546105e2906110cf565b80601f016020809104026020016040519081016040528092919081815260200182805461060e906110cf565b80156106595780601f1061063057610100808354040283529160200191610659565b820191905f5260205f20905b81548152906001019060200180831161063c57829003601f168201915b50505050508152602001600282015481526020016003820154815260200160048201548152505090505f8160600151116106c8576040517f08c379a00000000000000000000000000000000000000000000000000000000081526004016106bf90611199565b60405180910390fd5b80602001518160400151826060015183608001519450945094509450509193509193565b600181815481106106fb575f80fd5b905f5260205f20015f915090508054610713906110cf565b80601f016020809104026020016040519081016040528092919081815260200182805461073f906110cf565b801561078a5780601f106107615761010080835404028352916020019161078a565b820191905f5260205f20905b81548152906001019060200180831161076d57829003601f168201915b505050505081565b5f80846040516107a29190611139565b908152602001604051809103902060030154146107f4576040517f08c379a00000000000000000000000000000000000000000000000000000000081526004016107eb906112bd565b60405180910390fd5b60035f9054906101000a900473ffffffffffffffffffffffffffffffffffffffff1673ffffffffffffffffffffffffffffffffffffffff1663707e31c4846040518263ffffffff1660e01b815260040161084e9190610e66565b602060405180830381865afa158015610869573d5f803e3d5ffd5b505050506040513d601f19601f8201168201806040525081019061088d9190611310565b6108cc576040517f08c379a00000000000000000000000000000000000000000000000000000000081526004016108c390611385565b60405180910390fd5b5f8360025f9054906101000a900473ffffffffffffffffffffffffffffffffffffffff166040516020016109019291906113e8565b6040516020818303038152906040528051906020012090506040518060a00160405280858152602001848152602001838152602001428152602001828152505f8560405161094f9190611139565b90815260200160405180910390205f820151815f01908161097091906115ac565b50602082015181600101908161098691906115ac565b50604082015181600201556060820151816003015560808201518160040155905050600184908060018154018082558091505060019003905f5260205f20015f9091909190915090816109d991906115ac565b505f6109e48561031c565b90507f2613a5d54a5f7e4fd329bd53071bc2bd6c5350fee0392cfa1787a095976cb78e8582604051610a1792919061167b565b60405180910390a15050505050565b5f600180549050905090565b60606001805480602002602001604051908101604052809291908181526020015f905b82821015610afd578382905f5260205f20018054610a72906110cf565b80601f0160208091040260200160405190810160405280929190818152602001828054610a9e906110cf565b8015610ae95780601f10610ac057610100808354040283529160200191610ae9565b820191905f5260205f20905b815481529060010190602001808311610acc57829003601f168201915b505050505081526020019060010190610a55565b50505050905090565b60025f9054906101000a900473ffffffffffffffffffffffffffffffffffffffff1681565b5f604051905090565b5f80fd5b5f80fd5b5f80fd5b5f80fd5b5f601f19601f8301169050919050565b7f4e487b71000000000000000000000000000000000000000000000000000000005f52604160045260245ffd5b610b8a82610b44565b810181811067ffffffffffffffff82111715610ba957610ba8610b54565b5b80604052505050565b5f610bbb610b2b565b9050610bc78282610b81565b919050565b5f67ffffffffffffffff821115610be657610be5610b54565b5b610bef82610b44565b9050602081019050919050565b828183375f83830152505050565b5f610c1c610c1784610bcc565b610bb2565b905082815260208101848484011115610c3857610c37610b40565b5b610c43848285610bfc565b509392505050565b5f82601f830112610c5f57610c5e610b3c565b5b8135610c6f848260208601610c0a565b91505092915050565b5f60208284031215610c8d57610c8c610b34565b5b5f82013567ffffffffffffffff811115610caa57610ca9610b38565b5b610cb684828501610c4b565b91505092915050565b5f81519050919050565b5f82825260208201905092915050565b8281835e5f83830152505050565b5f610cf182610cbf565b610cfb8185610cc9565b9350610d0b818560208601610cd9565b610d1481610b44565b840191505092915050565b5f819050919050565b610d3181610d1f565b82525050565b5f819050919050565b610d4981610d37565b82525050565b5f60a0820190508181035f830152610d678188610ce7565b90508181036020830152610d7b8187610ce7565b9050610d8a6040830186610d28565b610d976060830185610d28565b610da46080830184610d40565b9695505050505050565b5f602082019050610dc15f830184610d40565b92915050565b5f6080820190508181035f830152610ddf8187610ce7565b9050610dee6020830186610d28565b610dfb6040830185610d28565b610e086060830184610d40565b95945050505050565b610e1a81610d1f565b8114610e24575f80fd5b50565b5f81359050610e3581610e11565b92915050565b5f60208284031215610e5057610e4f610b34565b5b5f610e5d84828501610e27565b91505092915050565b5f6020820190508181035f830152610e7e8184610ce7565b905092915050565b5f805f60608486031215610e9d57610e9c610b34565b5b5f84013567ffffffffffffffff811115610eba57610eb9610b38565b5b610ec686828701610c4b565b935050602084013567ffffffffffffffff811115610ee757610ee6610b38565b5b610ef386828701610c4b565b9250506040610f0486828701610e27565b9150509250925092565b5f602082019050610f215f830184610d28565b92915050565b5f81519050919050565b5f82825260208201905092915050565b5f819050602082019050919050565b5f82825260208201905092915050565b5f610f6a82610cbf565b610f748185610f50565b9350610f84818560208601610cd9565b610f8d81610b44565b840191505092915050565b5f610fa38383610f60565b905092915050565b5f602082019050919050565b5f610fc182610f27565b610fcb8185610f31565b935083602082028501610fdd85610f41565b805f5b858110156110185784840389528151610ff98582610f98565b945061100483610fab565b925060208a01995050600181019050610fe0565b50829750879550505050505092915050565b5f6020820190508181035f8301526110428184610fb7565b905092915050565b5f73ffffffffffffffffffffffffffffffffffffffff82169050919050565b5f6110738261104a565b9050919050565b61108381611069565b82525050565b5f60208201905061109c5f83018461107a565b92915050565b7f4e487b71000000000000000000000000000000000000000000000000000000005f52602260045260245ffd5b5f60028204905060018216806110e657607f821691505b6020821081036110f9576110f86110a2565b5b50919050565b5f81905092915050565b5f61111382610cbf565b61111d81856110ff565b935061112d818560208601610cd9565b80840191505092915050565b5f6111448284611109565b915081905092915050565b7f53616c65206461746120646f6573206e6f7420657869737400000000000000005f82015250565b5f611183601883610cc9565b915061118e8261114f565b602082019050919050565b5f6020820190508181035f8301526111b081611177565b9050919050565b5f819050919050565b6111d16111cc82610d1f565b6111b7565b82525050565b5f819050919050565b6111f16111ec82610d37565b6111d7565b82525050565b5f6112028288611109565b915061120e8287611109565b915061121a82866111c0565b60208201915061122a82856111c0565b60208201915061123a82846111e0565b6020820191508190509695505050505050565b7f53616c6520616c7265616479207265636f7264656420666f72207468697320705f8201527f726f647563740000000000000000000000000000000000000000000000000000602082015250565b5f6112a7602683610cc9565b91506112b28261124d565b604082019050919050565b5f6020820190508181035f8301526112d48161129b565b9050919050565b5f8115159050919050565b6112ef816112db565b81146112f9575f80fd5b50565b5f8151905061130a816112e6565b92915050565b5f6020828403121561132557611324610b34565b5b5f611332848285016112fc565b91505092915050565b7f496e76616c69642070726f6475637420494400000000000000000000000000005f82015250565b5f61136f601283610cc9565b915061137a8261133b565b602082019050919050565b5f6020820190508181035f83015261139c81611363565b9050919050565b5f8160601b9050919050565b5f6113b9826113a3565b9050919050565b5f6113ca826113af565b9050919050565b6113e26113dd82611069565b6113c0565b82525050565b5f6113f38285611109565b91506113ff82846113d1565b6014820191508190509392505050565b5f819050815f5260205f209050919050565b5f6020601f8301049050919050565b5f82821b905092915050565b5f6008830261146b7fffffffffffffffffffffffffffffffffffffffffffffffffffffffffffffffff82611430565b6114758683611430565b95508019841693508086168417925050509392505050565b5f819050919050565b5f6114b06114ab6114a684610d1f565b61148d565b610d1f565b9050919050565b5f819050919050565b6114c983611496565b6114dd6114d5826114b7565b84845461143c565b825550505050565b5f90565b6114f16114e5565b6114fc8184846114c0565b505050565b5b8181101561151f576115145f826114e9565b600181019050611502565b5050565b601f821115611564576115358161140f565b61153e84611421565b8101602085101561154d578190505b61156161155985611421565b830182611501565b50505b505050565b5f82821c905092915050565b5f6115845f1984600802611569565b1980831691505092915050565b5f61159c8383611575565b9150826002028217905092915050565b6115b582610cbf565b67ffffffffffffffff8111156115ce576115cd610b54565b5b6115d882546110cf565b6115e3828285611523565b5f60209050601f831160018114611614575f8415611602578287015190505b61160c8582611591565b865550611673565b601f1984166116228661140f565b5f5b8281101561164957848901518255600182019150602085019450602081019050611624565b868310156116665784890151611662601f891682611575565b8355505b6001600288020188555050505b505050505050565b5f6040820190508181035f8301526116938185610ce7565b90506116a26020830184610d40565b939250505056fea264697066735822122017d6449f89a75853b5b152406914f93b874c2d08b663049d01758d68e05ec36f64736f6c634300081a0033",
					"opcodes": "PUSH1 0x80 PUSH1 0x40 MSTORE CALLVALUE DUP1 ISZERO PUSH2 0xF JUMPI PUSH0 DUP1 REVERT JUMPDEST POP PUSH1 0x40 MLOAD PUSH2 0x182C CODESIZE SUB DUP1 PUSH2 0x182C DUP4 CODECOPY DUP2 DUP2 ADD PUSH1 0x40 MSTORE DUP2 ADD SWAP1 PUSH2 0x31 SWAP2 SWAP1 PUSH2 0x115 JUMP JUMPDEST DUP1 PUSH1 0x2 PUSH0 PUSH2 0x100 EXP DUP2 SLOAD DUP2 PUSH20 0xFFFFFFFFFFFFFFFFFFFFFFFFFFFFFFFFFFFFFFFF MUL NOT AND SWAP1 DUP4 PUSH20 0xFFFFFFFFFFFFFFFFFFFFFFFFFFFFFFFFFFFFFFFF AND MUL OR SWAP1 SSTORE POP DUP1 PUSH1 0x3 PUSH0 PUSH2 0x100 EXP DUP2 SLOAD DUP2 PUSH20 0xFFFFFFFFFFFFFFFFFFFFFFFFFFFFFFFFFFFFFFFF MUL NOT AND SWAP1 DUP4 PUSH20 0xFFFFFFFFFFFFFFFFFFFFFFFFFFFFFFFFFFFFFFFF AND MUL OR SWAP1 SSTORE POP POP PUSH2 0x140 JUMP JUMPDEST PUSH0 DUP1 REVERT JUMPDEST PUSH0 PUSH20 0xFFFFFFFFFFFFFFFFFFFFFFFFFFFFFFFFFFFFFFFF DUP3 AND SWAP1 POP SWAP2 SWAP1 POP JUMP JUMPDEST PUSH0 PUSH2 0xE4 DUP3 PUSH2 0xBB JUMP JUMPDEST SWAP1 POP SWAP2 SWAP1 POP JUMP JUMPDEST PUSH2 0xF4 DUP2 PUSH2 0xDA JUMP JUMPDEST DUP2 EQ PUSH2 0xFE JUMPI PUSH0 DUP1 REVERT JUMPDEST POP JUMP JUMPDEST PUSH0 DUP2 MLOAD SWAP1 POP PUSH2 0x10F DUP2 PUSH2 0xEB JUMP JUMPDEST SWAP3 SWAP2 POP POP JUMP JUMPDEST PUSH0 PUSH1 0x20 DUP3 DUP5 SUB SLT ISZERO PUSH2 0x12A JUMPI PUSH2 0x129 PUSH2 0xB7 JUMP JUMPDEST JUMPDEST PUSH0 PUSH2 0x137 DUP5 DUP3 DUP6 ADD PUSH2 0x101 JUMP JUMPDEST SWAP2 POP POP SWAP3 SWAP2 POP POP JUMP JUMPDEST PUSH2 0x16DF DUP1 PUSH2 0x14D PUSH0 CODECOPY PUSH0 RETURN INVALID PUSH1 0x80 PUSH1 0x40 MSTORE CALLVALUE DUP1 ISZERO PUSH2 0xF JUMPI PUSH0 DUP1 REVERT JUMPDEST POP PUSH1 0x4 CALLDATASIZE LT PUSH2 0x86 JUMPI PUSH0 CALLDATALOAD PUSH1 0xE0 SHR DUP1 PUSH4 0xACC7CA43 GT PUSH2 0x59 JUMPI DUP1 PUSH4 0xACC7CA43 EQ PUSH2 0x151 JUMPI DUP1 PUSH4 0xB91C7997 EQ PUSH2 0x16D JUMPI DUP1 PUSH4 0xBABEA0B2 EQ PUSH2 0x18B JUMPI DUP1 PUSH4 0xCDC82BD5 EQ PUSH2 0x1A9 JUMPI PUSH2 0x86 JUMP JUMPDEST DUP1 PUSH4 0x3B07CE59 EQ PUSH2 0x8A JUMPI DUP1 PUSH4 0x715F85B4 EQ PUSH2 0xBE JUMPI DUP1 PUSH4 0x87DC5730 EQ PUSH2 0xEE JUMPI DUP1 PUSH4 0xAA009012 EQ PUSH2 0x121 JUMPI JUMPDEST PUSH0 DUP1 REVERT JUMPDEST PUSH2 0xA4 PUSH1 0x4 DUP1 CALLDATASIZE SUB DUP2 ADD SWAP1 PUSH2 0x9F SWAP2 SWAP1 PUSH2 0xC78 JUMP JUMPDEST PUSH2 0x1C7 JUMP JUMPDEST PUSH1 0x40 MLOAD PUSH2 0xB5 SWAP6 SWAP5 SWAP4 SWAP3 SWAP2 SWAP1 PUSH2 0xD4F JUMP JUMPDEST PUSH1 0x40 MLOAD DUP1 SWAP2 SUB SWAP1 RETURN JUMPDEST PUSH2 0xD8 PUSH1 0x4 DUP1 CALLDATASIZE SUB DUP2 ADD SWAP1 PUSH2 0xD3 SWAP2 SWAP1 PUSH2 0xC78 JUMP JUMPDEST PUSH2 0x31C JUMP JUMPDEST PUSH1 0x40 MLOAD PUSH2 0xE5 SWAP2 SWAP1 PUSH2 0xDAE JUMP JUMPDEST PUSH1 0x40 MLOAD DUP1 SWAP2 SUB SWAP1 RETURN JUMPDEST PUSH2 0x108 PUSH1 0x4 DUP1 CALLDATASIZE SUB DUP2 ADD SWAP1 PUSH2 0x103 SWAP2 SWAP1 PUSH2 0xC78 JUMP JUMPDEST PUSH2 0x515 JUMP JUMPDEST PUSH1 0x40 MLOAD PUSH2 0x118 SWAP5 SWAP4 SWAP3 SWAP2 SWAP1 PUSH2 0xDC7 JUMP JUMPDEST PUSH1 0x40 MLOAD DUP1 SWAP2 SUB SWAP1 RETURN JUMPDEST PUSH2 0x13B PUSH1 0x4 DUP1 CALLDATASIZE SUB DUP2 ADD SWAP1 PUSH2 0x136 SWAP2 SWAP1 PUSH2 0xE3B JUMP JUMPDEST PUSH2 0x6EC JUMP JUMPDEST PUSH1 0x40 MLOAD PUSH2 0x148 SWAP2 SWAP1 PUSH2 0xE66 JUMP JUMPDEST PUSH1 0x40 MLOAD DUP1 SWAP2 SUB SWAP1 RETURN JUMPDEST PUSH2 0x16B PUSH1 0x4 DUP1 CALLDATASIZE SUB DUP2 ADD SWAP1 PUSH2 0x166 SWAP2 SWAP1 PUSH2 0xE86 JUMP JUMPDEST PUSH2 0x792 JUMP JUMPDEST STOP JUMPDEST PUSH2 0x175 PUSH2 0xA26 JUMP JUMPDEST PUSH1 0x40 MLOAD PUSH2 0x182 SWAP2 SWAP1 PUSH2 0xF0E JUMP JUMPDEST PUSH1 0x40 MLOAD DUP1 SWAP2 SUB SWAP1 RETURN JUMPDEST PUSH2 0x193 PUSH2 0xA32 JUMP JUMPDEST PUSH1 0x40 MLOAD PUSH2 0x1A0 SWAP2 SWAP1 PUSH2 0x102A JUMP JUMPDEST PUSH1 0x40 MLOAD DUP1 SWAP2 SUB SWAP1 RETURN JUMPDEST PUSH2 0x1B1 PUSH2 0xB06 JUMP JUMPDEST PUSH1 0x40 MLOAD PUSH2 0x1BE SWAP2 SWAP1 PUSH2 0x1089 JUMP JUMPDEST PUSH1 0x40 MLOAD DUP1 SWAP2 SUB SWAP1 RETURN JUMPDEST PUSH0 DUP2 DUP1 MLOAD PUSH1 0x20 DUP2 ADD DUP3 ADD DUP1 MLOAD DUP5 DUP3 MSTORE PUSH1 0x20 DUP4 ADD PUSH1 0x20 DUP6 ADD KECCAK256 DUP2 DUP4 MSTORE DUP1 SWAP6 POP POP POP POP POP POP PUSH0 SWAP2 POP SWAP1 POP DUP1 PUSH0 ADD DUP1 SLOAD PUSH2 0x1FD SWAP1 PUSH2 0x10CF JUMP JUMPDEST DUP1 PUSH1 0x1F ADD PUSH1 0x20 DUP1 SWAP2 DIV MUL PUSH1 0x20 ADD PUSH1 0x40 MLOAD SWAP1 DUP2 ADD PUSH1 0x40 MSTORE DUP1 SWAP3 SWAP2 SWAP1 DUP2 DUP2 MSTORE PUSH1 0x20 ADD DUP3 DUP1 SLOAD PUSH2 0x229 SWAP1 PUSH2 0x10CF JUMP JUMPDEST DUP1 ISZERO PUSH2 0x274 JUMPI DUP1 PUSH1 0x1F LT PUSH2 0x24B JUMPI PUSH2 0x100 DUP1 DUP4 SLOAD DIV MUL DUP4 MSTORE SWAP2 PUSH1 0x20 ADD SWAP2 PUSH2 0x274 JUMP JUMPDEST DUP3 ADD SWAP2 SWAP1 PUSH0 MSTORE PUSH1 0x20 PUSH0 KECCAK256 SWAP1 JUMPDEST DUP2 SLOAD DUP2 MSTORE SWAP1 PUSH1 0x1 ADD SWAP1 PUSH1 0x20 ADD DUP1 DUP4 GT PUSH2 0x257 JUMPI DUP3 SWAP1 SUB PUSH1 0x1F AND DUP3 ADD SWAP2 JUMPDEST POP POP POP POP POP SWAP1 DUP1 PUSH1 0x1 ADD DUP1 SLOAD PUSH2 0x289 SWAP1 PUSH2 0x10CF JUMP JUMPDEST DUP1 PUSH1 0x1F ADD PUSH1 0x20 DUP1 SWAP2 DIV MUL PUSH1 0x20 ADD PUSH1 0x40 MLOAD SWAP1 DUP2 ADD PUSH1 0x40 MSTORE DUP1 SWAP3 SWAP2 SWAP1 DUP2 DUP2 MSTORE PUSH1 0x20 ADD DUP3 DUP1 SLOAD PUSH2 0x2B5 SWAP1 PUSH2 0x10CF JUMP JUMPDEST DUP1 ISZERO PUSH2 0x300 JUMPI DUP1 PUSH1 0x1F LT PUSH2 0x2D7 JUMPI PUSH2 0x100 DUP1 DUP4 SLOAD DIV MUL DUP4 MSTORE SWAP2 PUSH1 0x20 ADD SWAP2 PUSH2 0x300 JUMP JUMPDEST DUP3 ADD SWAP2 SWAP1 PUSH0 MSTORE PUSH1 0x20 PUSH0 KECCAK256 SWAP1 JUMPDEST DUP2 SLOAD DUP2 MSTORE SWAP1 PUSH1 0x1 ADD SWAP1 PUSH1 0x20 ADD DUP1 DUP4 GT PUSH2 0x2E3 JUMPI DUP3 SWAP1 SUB PUSH1 0x1F AND DUP3 ADD SWAP2 JUMPDEST POP POP POP POP POP SWAP1 DUP1 PUSH1 0x2 ADD SLOAD SWAP1 DUP1 PUSH1 0x3 ADD SLOAD SWAP1 DUP1 PUSH1 0x4 ADD SLOAD SWAP1 POP DUP6 JUMP JUMPDEST PUSH0 DUP1 PUSH0 DUP4 PUSH1 0x40 MLOAD PUSH2 0x32D SWAP2 SWAP1 PUSH2 0x1139 JUMP JUMPDEST SWAP1 DUP2 MSTORE PUSH1 0x20 ADD PUSH1 0x40 MLOAD DUP1 SWAP2 SUB SWAP1 KECCAK256 PUSH1 0x40 MLOAD DUP1 PUSH1 0xA0 ADD PUSH1 0x40 MSTORE SWAP1 DUP2 PUSH0 DUP3 ADD DUP1 SLOAD PUSH2 0x355 SWAP1 PUSH2 0x10CF JUMP JUMPDEST DUP1 PUSH1 0x1F ADD PUSH1 0x20 DUP1 SWAP2 DIV MUL PUSH1 0x20 ADD PUSH1 0x40 MLOAD SWAP1 DUP2 ADD PUSH1 0x40 MSTORE DUP1 SWAP3 SWAP2 SWAP1 DUP2 DUP2 MSTORE PUSH1 0x20 ADD DUP3 DUP1 SLOAD PUSH2 0x381 SWAP1 PUSH2 0x10CF JUMP JUMPDEST DUP1 ISZERO PUSH2 0x3CC JUMPI DUP1 PUSH1 0x1F LT PUSH2 0x3A3 JUMPI PUSH2 0x100 DUP1 DUP4 SLOAD DIV MUL DUP4 MSTORE SWAP2 PUSH1 0x20 ADD SWAP2 PUSH2 0x3CC JUMP JUMPDEST DUP3 ADD SWAP2 SWAP1 PUSH0 MSTORE PUSH1 0x20 PUSH0 KECCAK256 SWAP1 JUMPDEST DUP2 SLOAD DUP2 MSTORE SWAP1 PUSH1 0x1 ADD SWAP1 PUSH1 0x20 ADD DUP1 DUP4 GT PUSH2 0x3AF JUMPI DUP3 SWAP1 SUB PUSH1 0x1F AND DUP3 ADD SWAP2 JUMPDEST POP POP POP POP POP DUP2 MSTORE PUSH1 0x20 ADD PUSH1 0x1 DUP3 ADD DUP1 SLOAD PUSH2 0x3E5 SWAP1 PUSH2 0x10CF JUMP JUMPDEST DUP1 PUSH1 0x1F ADD PUSH1 0x20 DUP1 SWAP2 DIV MUL PUSH1 0x20 ADD PUSH1 0x40 MLOAD SWAP1 DUP2 ADD PUSH1 0x40 MSTORE DUP1 SWAP3 SWAP2 SWAP1 DUP2 DUP2 MSTORE PUSH1 0x20 ADD DUP3 DUP1 SLOAD PUSH2 0x411 SWAP1 PUSH2 0x10CF JUMP JUMPDEST DUP1 ISZERO PUSH2 0x45C JUMPI DUP1 PUSH1 0x1F LT PUSH2 0x433 JUMPI PUSH2 0x100 DUP1 DUP4 SLOAD DIV MUL DUP4 MSTORE SWAP2 PUSH1 0x20 ADD SWAP2 PUSH2 0x45C JUMP JUMPDEST DUP3 ADD SWAP2 SWAP1 PUSH0 MSTORE PUSH1 0x20 PUSH0 KECCAK256 SWAP1 JUMPDEST DUP2 SLOAD DUP2 MSTORE SWAP1 PUSH1 0x1 ADD SWAP1 PUSH1 0x20 ADD DUP1 DUP4 GT PUSH2 0x43F JUMPI DUP3 SWAP1 SUB PUSH1 0x1F AND DUP3 ADD SWAP2 JUMPDEST POP POP POP POP POP DUP2 MSTORE PUSH1 0x20 ADD PUSH1 0x2 DUP3 ADD SLOAD DUP2 MSTORE PUSH1 0x20 ADD PUSH1 0x3 DUP3 ADD SLOAD DUP2 MSTORE PUSH1 0x20 ADD PUSH1 0x4 DUP3 ADD SLOAD DUP2 MSTORE POP POP SWAP1 POP PUSH0 DUP2 PUSH1 0x60 ADD MLOAD GT PUSH2 0x4CB JUMPI PUSH1 0x40 MLOAD PUSH32 0x8C379A000000000000000000000000000000000000000000000000000000000 DUP2 MSTORE PUSH1 0x4 ADD PUSH2 0x4C2 SWAP1 PUSH2 0x1199 JUMP JUMPDEST PUSH1 0x40 MLOAD DUP1 SWAP2 SUB SWAP1 REVERT JUMPDEST DUP1 PUSH0 ADD MLOAD DUP2 PUSH1 0x20 ADD MLOAD DUP3 PUSH1 0x40 ADD MLOAD DUP4 PUSH1 0x60 ADD MLOAD DUP5 PUSH1 0x80 ADD MLOAD PUSH1 0x40 MLOAD PUSH1 0x20 ADD PUSH2 0x4F7 SWAP6 SWAP5 SWAP4 SWAP3 SWAP2 SWAP1 PUSH2 0x11F7 JUMP JUMPDEST PUSH1 0x40 MLOAD PUSH1 0x20 DUP2 DUP4 SUB SUB DUP2 MSTORE SWAP1 PUSH1 0x40 MSTORE DUP1 MLOAD SWAP1 PUSH1 0x20 ADD KECCAK256 SWAP2 POP POP SWAP2 SWAP1 POP JUMP JUMPDEST PUSH1 0x60 PUSH0 DUP1 PUSH0 DUP1 PUSH0 DUP7 PUSH1 0x40 MLOAD PUSH2 0x52A SWAP2 SWAP1 PUSH2 0x1139 JUMP JUMPDEST SWAP1 DUP2 MSTORE PUSH1 0x20 ADD PUSH1 0x40 MLOAD DUP1 SWAP2 SUB SWAP1 KECCAK256 PUSH1 0x40 MLOAD DUP1 PUSH1 0xA0 ADD PUSH1 0x40 MSTORE SWAP1 DUP2 PUSH0 DUP3 ADD DUP1 SLOAD PUSH2 0x552 SWAP1 PUSH2 0x10CF JUMP JUMPDEST DUP1 PUSH1 0x1F ADD PUSH1 0x20 DUP1 SWAP2 DIV MUL PUSH1 0x20 ADD PUSH1 0x40 MLOAD SWAP1 DUP2 ADD PUSH1 0x40 MSTORE DUP1 SWAP3 SWAP2 SWAP1 DUP2 DUP2 MSTORE PUSH1 0x20 ADD DUP3 DUP1 SLOAD PUSH2 0x57E SWAP1 PUSH2 0x10CF JUMP JUMPDEST DUP1 ISZERO PUSH2 0x5C9 JUMPI DUP1 PUSH1 0x1F LT PUSH2 0x5A0 JUMPI PUSH2 0x100 DUP1 DUP4 SLOAD DIV MUL DUP4 MSTORE SWAP2 PUSH1 0x20 ADD SWAP2 PUSH2 0x5C9 JUMP JUMPDEST DUP3 ADD SWAP2 SWAP1 PUSH0 MSTORE PUSH1 0x20 PUSH0 KECCAK256 SWAP1 JUMPDEST DUP2 SLOAD DUP2 MSTORE SWAP1 PUSH1 0x1 ADD SWAP1 PUSH1 0x20 ADD DUP1 DUP4 GT PUSH2 0x5AC JUMPI DUP3 SWAP1 SUB PUSH1 0x1F AND DUP3 ADD SWAP2 JUMPDEST POP POP POP POP POP DUP2 MSTORE PUSH1 0x20 ADD PUSH1 0x1 DUP3 ADD DUP1 SLOAD PUSH2 0x5E2 SWAP1 PUSH2 0x10CF JUMP JUMPDEST DUP1 PUSH1 0x1F ADD PUSH1 0x20 DUP1 SWAP2 DIV MUL PUSH1 0x20 ADD PUSH1 0x40 MLOAD SWAP1 DUP2 ADD PUSH1 0x40 MSTORE DUP1 SWAP3 SWAP2 SWAP1 DUP2 DUP2 MSTORE PUSH1 0x20 ADD DUP3 DUP1 SLOAD PUSH2 0x60E SWAP1 PUSH2 0x10CF JUMP JUMPDEST DUP1 ISZERO PUSH2 0x659 JUMPI DUP1 PUSH1 0x1F LT PUSH2 0x630 JUMPI PUSH2 0x100 DUP1 DUP4 SLOAD DIV MUL DUP4 MSTORE SWAP2 PUSH1 0x20 ADD SWAP2 PUSH2 0x659 JUMP JUMPDEST DUP3 ADD SWAP2 SWAP1 PUSH0 MSTORE PUSH1 0x20 PUSH0 KECCAK256 SWAP1 JUMPDEST DUP2 SLOAD DUP2 MSTORE SWAP1 PUSH1 0x1 ADD SWAP1 PUSH1 0x20 ADD DUP1 DUP4 GT PUSH2 0x63C JUMPI DUP3 SWAP1 SUB PUSH1 0x1F AND DUP3 ADD SWAP2 JUMPDEST POP POP POP POP POP DUP2 MSTORE PUSH1 0x20 ADD PUSH1 0x2 DUP3 ADD SLOAD DUP2 MSTORE PUSH1 0x20 ADD PUSH1 0x3 DUP3 ADD SLOAD DUP2 MSTORE PUSH1 0x20 ADD PUSH1 0x4 DUP3 ADD SLOAD DUP2 MSTORE POP POP SWAP1 POP PUSH0 DUP2 PUSH1 0x60 ADD MLOAD GT PUSH2 0x6C8 JUMPI PUSH1 0x40 MLOAD PUSH32 0x8C379A000000000000000000000000000000000000000000000000000000000 DUP2 MSTORE PUSH1 0x4 ADD PUSH2 0x6BF SWAP1 PUSH2 0x1199 JUMP JUMPDEST PUSH1 0x40 MLOAD DUP1 SWAP2 SUB SWAP1 REVERT JUMPDEST DUP1 PUSH1 0x20 ADD MLOAD DUP2 PUSH1 0x40 ADD MLOAD DUP3 PUSH1 0x60 ADD MLOAD DUP4 PUSH1 0x80 ADD MLOAD SWAP5 POP SWAP5 POP SWAP5 POP SWAP5 POP POP SWAP2 SWAP4 POP SWAP2 SWAP4 JUMP JUMPDEST PUSH1 0x1 DUP2 DUP2 SLOAD DUP2 LT PUSH2 0x6FB JUMPI PUSH0 DUP1 REVERT JUMPDEST SWAP1 PUSH0 MSTORE PUSH1 0x20 PUSH0 KECCAK256 ADD PUSH0 SWAP2 POP SWAP1 POP DUP1 SLOAD PUSH2 0x713 SWAP1 PUSH2 0x10CF JUMP JUMPDEST DUP1 PUSH1 0x1F ADD PUSH1 0x20 DUP1 SWAP2 DIV MUL PUSH1 0x20 ADD PUSH1 0x40 MLOAD SWAP1 DUP2 ADD PUSH1 0x40 MSTORE DUP1 SWAP3 SWAP2 SWAP1 DUP2 DUP2 MSTORE PUSH1 0x20 ADD DUP3 DUP1 SLOAD PUSH2 0x73F SWAP1 PUSH2 0x10CF JUMP JUMPDEST DUP1 ISZERO PUSH2 0x78A JUMPI DUP1 PUSH1 0x1F LT PUSH2 0x761 JUMPI PUSH2 0x100 DUP1 DUP4 SLOAD DIV MUL DUP4 MSTORE SWAP2 PUSH1 0x20 ADD SWAP2 PUSH2 0x78A JUMP JUMPDEST DUP3 ADD SWAP2 SWAP1 PUSH0 MSTORE PUSH1 0x20 PUSH0 KECCAK256 SWAP1 JUMPDEST DUP2 SLOAD DUP2 MSTORE SWAP1 PUSH1 0x1 ADD SWAP1 PUSH1 0x20 ADD DUP1 DUP4 GT PUSH2 0x76D JUMPI DUP3 SWAP1 SUB PUSH1 0x1F AND DUP3 ADD SWAP2 JUMPDEST POP POP POP POP POP DUP2 JUMP JUMPDEST PUSH0 DUP1 DUP5 PUSH1 0x40 MLOAD PUSH2 0x7A2 SWAP2 SWAP1 PUSH2 0x1139 JUMP JUMPDEST SWAP1 DUP2 MSTORE PUSH1 0x20 ADD PUSH1 0x40 MLOAD DUP1 SWAP2 SUB SWAP1 KECCAK256 PUSH1 0x3 ADD SLOAD EQ PUSH2 0x7F4 JUMPI PUSH1 0x40 MLOAD PUSH32 0x8C379A000000000000000000000000000000000000000000000000000000000 DUP2 MSTORE PUSH1 0x4 ADD PUSH2 0x7EB SWAP1 PUSH2 0x12BD JUMP JUMPDEST PUSH1 0x40 MLOAD DUP1 SWAP2 SUB SWAP1 REVERT JUMPDEST PUSH1 0x3 PUSH0 SWAP1 SLOAD SWAP1 PUSH2 0x100 EXP SWAP1 DIV PUSH20 0xFFFFFFFFFFFFFFFFFFFFFFFFFFFFFFFFFFFFFFFF AND PUSH20 0xFFFFFFFFFFFFFFFFFFFFFFFFFFFFFFFFFFFFFFFF AND PUSH4 0x707E31C4 DUP5 PUSH1 0x40 MLOAD DUP3 PUSH4 0xFFFFFFFF AND PUSH1 0xE0 SHL DUP2 MSTORE PUSH1 0x4 ADD PUSH2 0x84E SWAP2 SWAP1 PUSH2 0xE66 JUMP JUMPDEST PUSH1 0x20 PUSH1 0x40 MLOAD DUP1 DUP4 SUB DUP2 DUP7 GAS STATICCALL ISZERO DUP1 ISZERO PUSH2 0x869 JUMPI RETURNDATASIZE PUSH0 DUP1 RETURNDATACOPY RETURNDATASIZE PUSH0 REVERT JUMPDEST POP POP POP POP PUSH1 0x40 MLOAD RETURNDATASIZE PUSH1 0x1F NOT PUSH1 0x1F DUP3 ADD AND DUP3 ADD DUP1 PUSH1 0x40 MSTORE POP DUP2 ADD SWAP1 PUSH2 0x88D SWAP2 SWAP1 PUSH2 0x1310 JUMP JUMPDEST PUSH2 0x8CC JUMPI PUSH1 0x40 MLOAD PUSH32 0x8C379A000000000000000000000000000000000000000000000000000000000 DUP2 MSTORE PUSH1 0x4 ADD PUSH2 0x8C3 SWAP1 PUSH2 0x1385 JUMP JUMPDEST PUSH1 0x40 MLOAD DUP1 SWAP2 SUB SWAP1 REVERT JUMPDEST PUSH0 DUP4 PUSH1 0x2 PUSH0 SWAP1 SLOAD SWAP1 PUSH2 0x100 EXP SWAP1 DIV PUSH20 0xFFFFFFFFFFFFFFFFFFFFFFFFFFFFFFFFFFFFFFFF AND PUSH1 0x40 MLOAD PUSH1 0x20 ADD PUSH2 0x901 SWAP3 SWAP2 SWAP1 PUSH2 0x13E8 JUMP JUMPDEST PUSH1 0x40 MLOAD PUSH1 0x20 DUP2 DUP4 SUB SUB DUP2 MSTORE SWAP1 PUSH1 0x40 MSTORE DUP1 MLOAD SWAP1 PUSH1 0x20 ADD KECCAK256 SWAP1 POP PUSH1 0x40 MLOAD DUP1 PUSH1 0xA0 ADD PUSH1 0x40 MSTORE DUP1 DUP6 DUP2 MSTORE PUSH1 0x20 ADD DUP5 DUP2 MSTORE PUSH1 0x20 ADD DUP4 DUP2 MSTORE PUSH1 0x20 ADD TIMESTAMP DUP2 MSTORE PUSH1 0x20 ADD DUP3 DUP2 MSTORE POP PUSH0 DUP6 PUSH1 0x40 MLOAD PUSH2 0x94F SWAP2 SWAP1 PUSH2 0x1139 JUMP JUMPDEST SWAP1 DUP2 MSTORE PUSH1 0x20 ADD PUSH1 0x40 MLOAD DUP1 SWAP2 SUB SWAP1 KECCAK256 PUSH0 DUP3 ADD MLOAD DUP2 PUSH0 ADD SWAP1 DUP2 PUSH2 0x970 SWAP2 SWAP1 PUSH2 0x15AC JUMP JUMPDEST POP PUSH1 0x20 DUP3 ADD MLOAD DUP2 PUSH1 0x1 ADD SWAP1 DUP2 PUSH2 0x986 SWAP2 SWAP1 PUSH2 0x15AC JUMP JUMPDEST POP PUSH1 0x40 DUP3 ADD MLOAD DUP2 PUSH1 0x2 ADD SSTORE PUSH1 0x60 DUP3 ADD MLOAD DUP2 PUSH1 0x3 ADD SSTORE PUSH1 0x80 DUP3 ADD MLOAD DUP2 PUSH1 0x4 ADD SSTORE SWAP1 POP POP PUSH1 0x1 DUP5 SWAP1 DUP1 PUSH1 0x1 DUP2 SLOAD ADD DUP1 DUP3 SSTORE DUP1 SWAP2 POP POP PUSH1 0x1 SWAP1 SUB SWAP1 PUSH0 MSTORE PUSH1 0x20 PUSH0 KECCAK256 ADD PUSH0 SWAP1 SWAP2 SWAP1 SWAP2 SWAP1 SWAP2 POP SWAP1 DUP2 PUSH2 0x9D9 SWAP2 SWAP1 PUSH2 0x15AC JUMP JUMPDEST POP PUSH0 PUSH2 0x9E4 DUP6 PUSH2 0x31C JUMP JUMPDEST SWAP1 POP PUSH32 0x2613A5D54A5F7E4FD329BD53071BC2BD6C5350FEE0392CFA1787A095976CB78E DUP6 DUP3 PUSH1 0x40 MLOAD PUSH2 0xA17 SWAP3 SWAP2 SWAP1 PUSH2 0x167B JUMP JUMPDEST PUSH1 0x40 MLOAD DUP1 SWAP2 SUB SWAP1 LOG1 POP POP POP POP POP JUMP JUMPDEST PUSH0 PUSH1 0x1 DUP1 SLOAD SWAP1 POP SWAP1 POP SWAP1 JUMP JUMPDEST PUSH1 0x60 PUSH1 0x1 DUP1 SLOAD DUP1 PUSH1 0x20 MUL PUSH1 0x20 ADD PUSH1 0x40 MLOAD SWAP1 DUP2 ADD PUSH1 0x40 MSTORE DUP1 SWAP3 SWAP2 SWAP1 DUP2 DUP2 MSTORE PUSH1 0x20 ADD PUSH0 SWAP1 JUMPDEST DUP3 DUP3 LT ISZERO PUSH2 0xAFD JUMPI DUP4 DUP3 SWAP1 PUSH0 MSTORE PUSH1 0x20 PUSH0 KECCAK256 ADD DUP1 SLOAD PUSH2 0xA72 SWAP1 PUSH2 0x10CF JUMP JUMPDEST DUP1 PUSH1 0x1F ADD PUSH1 0x20 DUP1 SWAP2 DIV MUL PUSH1 0x20 ADD PUSH1 0x40 MLOAD SWAP1 DUP2 ADD PUSH1 0x40 MSTORE DUP1 SWAP3 SWAP2 SWAP1 DUP2 DUP2 MSTORE PUSH1 0x20 ADD DUP3 DUP1 SLOAD PUSH2 0xA9E SWAP1 PUSH2 0x10CF JUMP JUMPDEST DUP1 ISZERO PUSH2 0xAE9 JUMPI DUP1 PUSH1 0x1F LT PUSH2 0xAC0 JUMPI PUSH2 0x100 DUP1 DUP4 SLOAD DIV MUL DUP4 MSTORE SWAP2 PUSH1 0x20 ADD SWAP2 PUSH2 0xAE9 JUMP JUMPDEST DUP3 ADD SWAP2 SWAP1 PUSH0 MSTORE PUSH1 0x20 PUSH0 KECCAK256 SWAP1 JUMPDEST DUP2 SLOAD DUP2 MSTORE SWAP1 PUSH1 0x1 ADD SWAP1 PUSH1 0x20 ADD DUP1 DUP4 GT PUSH2 0xACC JUMPI DUP3 SWAP1 SUB PUSH1 0x1F AND DUP3 ADD SWAP2 JUMPDEST POP POP POP POP POP DUP2 MSTORE PUSH1 0x20 ADD SWAP1 PUSH1 0x1 ADD SWAP1 PUSH2 0xA55 JUMP JUMPDEST POP POP POP POP SWAP1 POP SWAP1 JUMP JUMPDEST PUSH1 0x2 PUSH0 SWAP1 SLOAD SWAP1 PUSH2 0x100 EXP SWAP1 DIV PUSH20 0xFFFFFFFFFFFFFFFFFFFFFFFFFFFFFFFFFFFFFFFF AND DUP2 JUMP JUMPDEST PUSH0 PUSH1 0x40 MLOAD SWAP1 POP SWAP1 JUMP JUMPDEST PUSH0 DUP1 REVERT JUMPDEST PUSH0 DUP1 REVERT JUMPDEST PUSH0 DUP1 REVERT JUMPDEST PUSH0 DUP1 REVERT JUMPDEST PUSH0 PUSH1 0x1F NOT PUSH1 0x1F DUP4 ADD AND SWAP1 POP SWAP2 SWAP1 POP JUMP JUMPDEST PUSH32 0x4E487B7100000000000000000000000000000000000000000000000000000000 PUSH0 MSTORE PUSH1 0x41 PUSH1 0x4 MSTORE PUSH1 0x24 PUSH0 REVERT JUMPDEST PUSH2 0xB8A DUP3 PUSH2 0xB44 JUMP JUMPDEST DUP2 ADD DUP2 DUP2 LT PUSH8 0xFFFFFFFFFFFFFFFF DUP3 GT OR ISZERO PUSH2 0xBA9 JUMPI PUSH2 0xBA8 PUSH2 0xB54 JUMP JUMPDEST JUMPDEST DUP1 PUSH1 0x40 MSTORE POP POP POP JUMP JUMPDEST PUSH0 PUSH2 0xBBB PUSH2 0xB2B JUMP JUMPDEST SWAP1 POP PUSH2 0xBC7 DUP3 DUP3 PUSH2 0xB81 JUMP JUMPDEST SWAP2 SWAP1 POP JUMP JUMPDEST PUSH0 PUSH8 0xFFFFFFFFFFFFFFFF DUP3 GT ISZERO PUSH2 0xBE6 JUMPI PUSH2 0xBE5 PUSH2 0xB54 JUMP JUMPDEST JUMPDEST PUSH2 0xBEF DUP3 PUSH2 0xB44 JUMP JUMPDEST SWAP1 POP PUSH1 0x20 DUP2 ADD SWAP1 POP SWAP2 SWAP1 POP JUMP JUMPDEST DUP3 DUP2 DUP4 CALLDATACOPY PUSH0 DUP4 DUP4 ADD MSTORE POP POP POP JUMP JUMPDEST PUSH0 PUSH2 0xC1C PUSH2 0xC17 DUP5 PUSH2 0xBCC JUMP JUMPDEST PUSH2 0xBB2 JUMP JUMPDEST SWAP1 POP DUP3 DUP2 MSTORE PUSH1 0x20 DUP2 ADD DUP5 DUP5 DUP5 ADD GT ISZERO PUSH2 0xC38 JUMPI PUSH2 0xC37 PUSH2 0xB40 JUMP JUMPDEST JUMPDEST PUSH2 0xC43 DUP5 DUP3 DUP6 PUSH2 0xBFC JUMP JUMPDEST POP SWAP4 SWAP3 POP POP POP JUMP JUMPDEST PUSH0 DUP3 PUSH1 0x1F DUP4 ADD SLT PUSH2 0xC5F JUMPI PUSH2 0xC5E PUSH2 0xB3C JUMP JUMPDEST JUMPDEST DUP2 CALLDATALOAD PUSH2 0xC6F DUP5 DUP3 PUSH1 0x20 DUP7 ADD PUSH2 0xC0A JUMP JUMPDEST SWAP2 POP POP SWAP3 SWAP2 POP POP JUMP JUMPDEST PUSH0 PUSH1 0x20 DUP3 DUP5 SUB SLT ISZERO PUSH2 0xC8D JUMPI PUSH2 0xC8C PUSH2 0xB34 JUMP JUMPDEST JUMPDEST PUSH0 DUP3 ADD CALLDATALOAD PUSH8 0xFFFFFFFFFFFFFFFF DUP2 GT ISZERO PUSH2 0xCAA JUMPI PUSH2 0xCA9 PUSH2 0xB38 JUMP JUMPDEST JUMPDEST PUSH2 0xCB6 DUP5 DUP3 DUP6 ADD PUSH2 0xC4B JUMP JUMPDEST SWAP2 POP POP SWAP3 SWAP2 POP POP JUMP JUMPDEST PUSH0 DUP2 MLOAD SWAP1 POP SWAP2 SWAP1 POP JUMP JUMPDEST PUSH0 DUP3 DUP3 MSTORE PUSH1 0x20 DUP3 ADD SWAP1 POP SWAP3 SWAP2 POP POP JUMP JUMPDEST DUP3 DUP2 DUP4 MCOPY PUSH0 DUP4 DUP4 ADD MSTORE POP POP POP JUMP JUMPDEST PUSH0 PUSH2 0xCF1 DUP3 PUSH2 0xCBF JUMP JUMPDEST PUSH2 0xCFB DUP2 DUP6 PUSH2 0xCC9 JUMP JUMPDEST SWAP4 POP PUSH2 0xD0B DUP2 DUP6 PUSH1 0x20 DUP7 ADD PUSH2 0xCD9 JUMP JUMPDEST PUSH2 0xD14 DUP2 PUSH2 0xB44 JUMP JUMPDEST DUP5 ADD SWAP2 POP POP SWAP3 SWAP2 POP POP JUMP JUMPDEST PUSH0 DUP2 SWAP1 POP SWAP2 SWAP1 POP JUMP JUMPDEST PUSH2 0xD31 DUP2 PUSH2 0xD1F JUMP JUMPDEST DUP3 MSTORE POP POP JUMP JUMPDEST PUSH0 DUP2 SWAP1 POP SWAP2 SWAP1 POP JUMP JUMPDEST PUSH2 0xD49 DUP2 PUSH2 0xD37 JUMP JUMPDEST DUP3 MSTORE POP POP JUMP JUMPDEST PUSH0 PUSH1 0xA0 DUP3 ADD SWAP1 POP DUP2 DUP2 SUB PUSH0 DUP4 ADD MSTORE PUSH2 0xD67 DUP2 DUP9 PUSH2 0xCE7 JUMP JUMPDEST SWAP1 POP DUP2 DUP2 SUB PUSH1 0x20 DUP4 ADD MSTORE PUSH2 0xD7B DUP2 DUP8 PUSH2 0xCE7 JUMP JUMPDEST SWAP1 POP PUSH2 0xD8A PUSH1 0x40 DUP4 ADD DUP7 PUSH2 0xD28 JUMP JUMPDEST PUSH2 0xD97 PUSH1 0x60 DUP4 ADD DUP6 PUSH2 0xD28 JUMP JUMPDEST PUSH2 0xDA4 PUSH1 0x80 DUP4 ADD DUP5 PUSH2 0xD40 JUMP JUMPDEST SWAP7 SWAP6 POP POP POP POP POP POP JUMP JUMPDEST PUSH0 PUSH1 0x20 DUP3 ADD SWAP1 POP PUSH2 0xDC1 PUSH0 DUP4 ADD DUP5 PUSH2 0xD40 JUMP JUMPDEST SWAP3 SWAP2 POP POP JUMP JUMPDEST PUSH0 PUSH1 0x80 DUP3 ADD SWAP1 POP DUP2 DUP2 SUB PUSH0 DUP4 ADD MSTORE PUSH2 0xDDF DUP2 DUP8 PUSH2 0xCE7 JUMP JUMPDEST SWAP1 POP PUSH2 0xDEE PUSH1 0x20 DUP4 ADD DUP7 PUSH2 0xD28 JUMP JUMPDEST PUSH2 0xDFB PUSH1 0x40 DUP4 ADD DUP6 PUSH2 0xD28 JUMP JUMPDEST PUSH2 0xE08 PUSH1 0x60 DUP4 ADD DUP5 PUSH2 0xD40 JUMP JUMPDEST SWAP6 SWAP5 POP POP POP POP POP JUMP JUMPDEST PUSH2 0xE1A DUP2 PUSH2 0xD1F JUMP JUMPDEST DUP2 EQ PUSH2 0xE24 JUMPI PUSH0 DUP1 REVERT JUMPDEST POP JUMP JUMPDEST PUSH0 DUP2 CALLDATALOAD SWAP1 POP PUSH2 0xE35 DUP2 PUSH2 0xE11 JUMP JUMPDEST SWAP3 SWAP2 POP POP JUMP JUMPDEST PUSH0 PUSH1 0x20 DUP3 DUP5 SUB SLT ISZERO PUSH2 0xE50 JUMPI PUSH2 0xE4F PUSH2 0xB34 JUMP JUMPDEST JUMPDEST PUSH0 PUSH2 0xE5D DUP5 DUP3 DUP6 ADD PUSH2 0xE27 JUMP JUMPDEST SWAP2 POP POP SWAP3 SWAP2 POP POP JUMP JUMPDEST PUSH0 PUSH1 0x20 DUP3 ADD SWAP1 POP DUP2 DUP2 SUB PUSH0 DUP4 ADD MSTORE PUSH2 0xE7E DUP2 DUP5 PUSH2 0xCE7 JUMP JUMPDEST SWAP1 POP SWAP3 SWAP2 POP POP JUMP JUMPDEST PUSH0 DUP1 PUSH0 PUSH1 0x60 DUP5 DUP7 SUB SLT ISZERO PUSH2 0xE9D JUMPI PUSH2 0xE9C PUSH2 0xB34 JUMP JUMPDEST JUMPDEST PUSH0 DUP5 ADD CALLDATALOAD PUSH8 0xFFFFFFFFFFFFFFFF DUP2 GT ISZERO PUSH2 0xEBA JUMPI PUSH2 0xEB9 PUSH2 0xB38 JUMP JUMPDEST JUMPDEST PUSH2 0xEC6 DUP7 DUP3 DUP8 ADD PUSH2 0xC4B JUMP JUMPDEST SWAP4 POP POP PUSH1 0x20 DUP5 ADD CALLDATALOAD PUSH8 0xFFFFFFFFFFFFFFFF DUP2 GT ISZERO PUSH2 0xEE7 JUMPI PUSH2 0xEE6 PUSH2 0xB38 JUMP JUMPDEST JUMPDEST PUSH2 0xEF3 DUP7 DUP3 DUP8 ADD PUSH2 0xC4B JUMP JUMPDEST SWAP3 POP POP PUSH1 0x40 PUSH2 0xF04 DUP7 DUP3 DUP8 ADD PUSH2 0xE27 JUMP JUMPDEST SWAP2 POP POP SWAP3 POP SWAP3 POP SWAP3 JUMP JUMPDEST PUSH0 PUSH1 0x20 DUP3 ADD SWAP1 POP PUSH2 0xF21 PUSH0 DUP4 ADD DUP5 PUSH2 0xD28 JUMP JUMPDEST SWAP3 SWAP2 POP POP JUMP JUMPDEST PUSH0 DUP2 MLOAD SWAP1 POP SWAP2 SWAP1 POP JUMP JUMPDEST PUSH0 DUP3 DUP3 MSTORE PUSH1 0x20 DUP3 ADD SWAP1 POP SWAP3 SWAP2 POP POP JUMP JUMPDEST PUSH0 DUP2 SWAP1 POP PUSH1 0x20 DUP3 ADD SWAP1 POP SWAP2 SWAP1 POP JUMP JUMPDEST PUSH0 DUP3 DUP3 MSTORE PUSH1 0x20 DUP3 ADD SWAP1 POP SWAP3 SWAP2 POP POP JUMP JUMPDEST PUSH0 PUSH2 0xF6A DUP3 PUSH2 0xCBF JUMP JUMPDEST PUSH2 0xF74 DUP2 DUP6 PUSH2 0xF50 JUMP JUMPDEST SWAP4 POP PUSH2 0xF84 DUP2 DUP6 PUSH1 0x20 DUP7 ADD PUSH2 0xCD9 JUMP JUMPDEST PUSH2 0xF8D DUP2 PUSH2 0xB44 JUMP JUMPDEST DUP5 ADD SWAP2 POP POP SWAP3 SWAP2 POP POP JUMP JUMPDEST PUSH0 PUSH2 0xFA3 DUP4 DUP4 PUSH2 0xF60 JUMP JUMPDEST SWAP1 POP SWAP3 SWAP2 POP POP JUMP JUMPDEST PUSH0 PUSH1 0x20 DUP3 ADD SWAP1 POP SWAP2 SWAP1 POP JUMP JUMPDEST PUSH0 PUSH2 0xFC1 DUP3 PUSH2 0xF27 JUMP JUMPDEST PUSH2 0xFCB DUP2 DUP6 PUSH2 0xF31 JUMP JUMPDEST SWAP4 POP DUP4 PUSH1 0x20 DUP3 MUL DUP6 ADD PUSH2 0xFDD DUP6 PUSH2 0xF41 JUMP JUMPDEST DUP1 PUSH0 JUMPDEST DUP6 DUP2 LT ISZERO PUSH2 0x1018 JUMPI DUP5 DUP5 SUB DUP10 MSTORE DUP2 MLOAD PUSH2 0xFF9 DUP6 DUP3 PUSH2 0xF98 JUMP JUMPDEST SWAP5 POP PUSH2 0x1004 DUP4 PUSH2 0xFAB JUMP JUMPDEST SWAP3 POP PUSH1 0x20 DUP11 ADD SWAP10 POP POP PUSH1 0x1 DUP2 ADD SWAP1 POP PUSH2 0xFE0 JUMP JUMPDEST POP DUP3 SWAP8 POP DUP8 SWAP6 POP POP POP POP POP POP SWAP3 SWAP2 POP POP JUMP JUMPDEST PUSH0 PUSH1 0x20 DUP3 ADD SWAP1 POP DUP2 DUP2 SUB PUSH0 DUP4 ADD MSTORE PUSH2 0x1042 DUP2 DUP5 PUSH2 0xFB7 JUMP JUMPDEST SWAP1 POP SWAP3 SWAP2 POP POP JUMP JUMPDEST PUSH0 PUSH20 0xFFFFFFFFFFFFFFFFFFFFFFFFFFFFFFFFFFFFFFFF DUP3 AND SWAP1 POP SWAP2 SWAP1 POP JUMP JUMPDEST PUSH0 PUSH2 0x1073 DUP3 PUSH2 0x104A JUMP JUMPDEST SWAP1 POP SWAP2 SWAP1 POP JUMP JUMPDEST PUSH2 0x1083 DUP2 PUSH2 0x1069 JUMP JUMPDEST DUP3 MSTORE POP POP JUMP JUMPDEST PUSH0 PUSH1 0x20 DUP3 ADD SWAP1 POP PUSH2 0x109C PUSH0 DUP4 ADD DUP5 PUSH2 0x107A JUMP JUMPDEST SWAP3 SWAP2 POP POP JUMP JUMPDEST PUSH32 0x4E487B7100000000000000000000000000000000000000000000000000000000 PUSH0 MSTORE PUSH1 0x22 PUSH1 0x4 MSTORE PUSH1 0x24 PUSH0 REVERT JUMPDEST PUSH0 PUSH1 0x2 DUP3 DIV SWAP1 POP PUSH1 0x1 DUP3 AND DUP1 PUSH2 0x10E6 JUMPI PUSH1 0x7F DUP3 AND SWAP2 POP JUMPDEST PUSH1 0x20 DUP3 LT DUP2 SUB PUSH2 0x10F9 JUMPI PUSH2 0x10F8 PUSH2 0x10A2 JUMP JUMPDEST JUMPDEST POP SWAP2 SWAP1 POP JUMP JUMPDEST PUSH0 DUP2 SWAP1 POP SWAP3 SWAP2 POP POP JUMP JUMPDEST PUSH0 PUSH2 0x1113 DUP3 PUSH2 0xCBF JUMP JUMPDEST PUSH2 0x111D DUP2 DUP6 PUSH2 0x10FF JUMP JUMPDEST SWAP4 POP PUSH2 0x112D DUP2 DUP6 PUSH1 0x20 DUP7 ADD PUSH2 0xCD9 JUMP JUMPDEST DUP1 DUP5 ADD SWAP2 POP POP SWAP3 SWAP2 POP POP JUMP JUMPDEST PUSH0 PUSH2 0x1144 DUP3 DUP5 PUSH2 0x1109 JUMP JUMPDEST SWAP2 POP DUP2 SWAP1 POP SWAP3 SWAP2 POP POP JUMP JUMPDEST PUSH32 0x53616C65206461746120646F6573206E6F742065786973740000000000000000 PUSH0 DUP3 ADD MSTORE POP JUMP JUMPDEST PUSH0 PUSH2 0x1183 PUSH1 0x18 DUP4 PUSH2 0xCC9 JUMP JUMPDEST SWAP2 POP PUSH2 0x118E DUP3 PUSH2 0x114F JUMP JUMPDEST PUSH1 0x20 DUP3 ADD SWAP1 POP SWAP2 SWAP1 POP JUMP JUMPDEST PUSH0 PUSH1 0x20 DUP3 ADD SWAP1 POP DUP2 DUP2 SUB PUSH0 DUP4 ADD MSTORE PUSH2 0x11B0 DUP2 PUSH2 0x1177 JUMP JUMPDEST SWAP1 POP SWAP2 SWAP1 POP JUMP JUMPDEST PUSH0 DUP2 SWAP1 POP SWAP2 SWAP1 POP JUMP JUMPDEST PUSH2 0x11D1 PUSH2 0x11CC DUP3 PUSH2 0xD1F JUMP JUMPDEST PUSH2 0x11B7 JUMP JUMPDEST DUP3 MSTORE POP POP JUMP JUMPDEST PUSH0 DUP2 SWAP1 POP SWAP2 SWAP1 POP JUMP JUMPDEST PUSH2 0x11F1 PUSH2 0x11EC DUP3 PUSH2 0xD37 JUMP JUMPDEST PUSH2 0x11D7 JUMP JUMPDEST DUP3 MSTORE POP POP JUMP JUMPDEST PUSH0 PUSH2 0x1202 DUP3 DUP9 PUSH2 0x1109 JUMP JUMPDEST SWAP2 POP PUSH2 0x120E DUP3 DUP8 PUSH2 0x1109 JUMP JUMPDEST SWAP2 POP PUSH2 0x121A DUP3 DUP7 PUSH2 0x11C0 JUMP JUMPDEST PUSH1 0x20 DUP3 ADD SWAP2 POP PUSH2 0x122A DUP3 DUP6 PUSH2 0x11C0 JUMP JUMPDEST PUSH1 0x20 DUP3 ADD SWAP2 POP PUSH2 0x123A DUP3 DUP5 PUSH2 0x11E0 JUMP JUMPDEST PUSH1 0x20 DUP3 ADD SWAP2 POP DUP2 SWAP1 POP SWAP7 SWAP6 POP POP POP POP POP POP JUMP JUMPDEST PUSH32 0x53616C6520616C7265616479207265636F7264656420666F7220746869732070 PUSH0 DUP3 ADD MSTORE PUSH32 0x726F647563740000000000000000000000000000000000000000000000000000 PUSH1 0x20 DUP3 ADD MSTORE POP JUMP JUMPDEST PUSH0 PUSH2 0x12A7 PUSH1 0x26 DUP4 PUSH2 0xCC9 JUMP JUMPDEST SWAP2 POP PUSH2 0x12B2 DUP3 PUSH2 0x124D JUMP JUMPDEST PUSH1 0x40 DUP3 ADD SWAP1 POP SWAP2 SWAP1 POP JUMP JUMPDEST PUSH0 PUSH1 0x20 DUP3 ADD SWAP1 POP DUP2 DUP2 SUB PUSH0 DUP4 ADD MSTORE PUSH2 0x12D4 DUP2 PUSH2 0x129B JUMP JUMPDEST SWAP1 POP SWAP2 SWAP1 POP JUMP JUMPDEST PUSH0 DUP2 ISZERO ISZERO SWAP1 POP SWAP2 SWAP1 POP JUMP JUMPDEST PUSH2 0x12EF DUP2 PUSH2 0x12DB JUMP JUMPDEST DUP2 EQ PUSH2 0x12F9 JUMPI PUSH0 DUP1 REVERT JUMPDEST POP JUMP JUMPDEST PUSH0 DUP2 MLOAD SWAP1 POP PUSH2 0x130A DUP2 PUSH2 0x12E6 JUMP JUMPDEST SWAP3 SWAP2 POP POP JUMP JUMPDEST PUSH0 PUSH1 0x20 DUP3 DUP5 SUB SLT ISZERO PUSH2 0x1325 JUMPI PUSH2 0x1324 PUSH2 0xB34 JUMP JUMPDEST JUMPDEST PUSH0 PUSH2 0x1332 DUP5 DUP3 DUP6 ADD PUSH2 0x12FC JUMP JUMPDEST SWAP2 POP POP SWAP3 SWAP2 POP POP JUMP JUMPDEST PUSH32 0x496E76616C69642070726F647563742049440000000000000000000000000000 PUSH0 DUP3 ADD MSTORE POP JUMP JUMPDEST PUSH0 PUSH2 0x136F PUSH1 0x12 DUP4 PUSH2 0xCC9 JUMP JUMPDEST SWAP2 POP PUSH2 0x137A DUP3 PUSH2 0x133B JUMP JUMPDEST PUSH1 0x20 DUP3 ADD SWAP1 POP SWAP2 SWAP1 POP JUMP JUMPDEST PUSH0 PUSH1 0x20 DUP3 ADD SWAP1 POP DUP2 DUP2 SUB PUSH0 DUP4 ADD MSTORE PUSH2 0x139C DUP2 PUSH2 0x1363 JUMP JUMPDEST SWAP1 POP SWAP2 SWAP1 POP JUMP JUMPDEST PUSH0 DUP2 PUSH1 0x60 SHL SWAP1 POP SWAP2 SWAP1 POP JUMP JUMPDEST PUSH0 PUSH2 0x13B9 DUP3 PUSH2 0x13A3 JUMP JUMPDEST SWAP1 POP SWAP2 SWAP1 POP JUMP JUMPDEST PUSH0 PUSH2 0x13CA DUP3 PUSH2 0x13AF JUMP JUMPDEST SWAP1 POP SWAP2 SWAP1 POP JUMP JUMPDEST PUSH2 0x13E2 PUSH2 0x13DD DUP3 PUSH2 0x1069 JUMP JUMPDEST PUSH2 0x13C0 JUMP JUMPDEST DUP3 MSTORE POP POP JUMP JUMPDEST PUSH0 PUSH2 0x13F3 DUP3 DUP6 PUSH2 0x1109 JUMP JUMPDEST SWAP2 POP PUSH2 0x13FF DUP3 DUP5 PUSH2 0x13D1 JUMP JUMPDEST PUSH1 0x14 DUP3 ADD SWAP2 POP DUP2 SWAP1 POP SWAP4 SWAP3 POP POP POP JUMP JUMPDEST PUSH0 DUP2 SWAP1 POP DUP2 PUSH0 MSTORE PUSH1 0x20 PUSH0 KECCAK256 SWAP1 POP SWAP2 SWAP1 POP JUMP JUMPDEST PUSH0 PUSH1 0x20 PUSH1 0x1F DUP4 ADD DIV SWAP1 POP SWAP2 SWAP1 POP JUMP JUMPDEST PUSH0 DUP3 DUP3 SHL SWAP1 POP SWAP3 SWAP2 POP POP JUMP JUMPDEST PUSH0 PUSH1 0x8 DUP4 MUL PUSH2 0x146B PUSH32 0xFFFFFFFFFFFFFFFFFFFFFFFFFFFFFFFFFFFFFFFFFFFFFFFFFFFFFFFFFFFFFFFF DUP3 PUSH2 0x1430 JUMP JUMPDEST PUSH2 0x1475 DUP7 DUP4 PUSH2 0x1430 JUMP JUMPDEST SWAP6 POP DUP1 NOT DUP5 AND SWAP4 POP DUP1 DUP7 AND DUP5 OR SWAP3 POP POP POP SWAP4 SWAP3 POP POP POP JUMP JUMPDEST PUSH0 DUP2 SWAP1 POP SWAP2 SWAP1 POP JUMP JUMPDEST PUSH0 PUSH2 0x14B0 PUSH2 0x14AB PUSH2 0x14A6 DUP5 PUSH2 0xD1F JUMP JUMPDEST PUSH2 0x148D JUMP JUMPDEST PUSH2 0xD1F JUMP JUMPDEST SWAP1 POP SWAP2 SWAP1 POP JUMP JUMPDEST PUSH0 DUP2 SWAP1 POP SWAP2 SWAP1 POP JUMP JUMPDEST PUSH2 0x14C9 DUP4 PUSH2 0x1496 JUMP JUMPDEST PUSH2 0x14DD PUSH2 0x14D5 DUP3 PUSH2 0x14B7 JUMP JUMPDEST DUP5 DUP5 SLOAD PUSH2 0x143C JUMP JUMPDEST DUP3 SSTORE POP POP POP POP JUMP JUMPDEST PUSH0 SWAP1 JUMP JUMPDEST PUSH2 0x14F1 PUSH2 0x14E5 JUMP JUMPDEST PUSH2 0x14FC DUP2 DUP5 DUP5 PUSH2 0x14C0 JUMP JUMPDEST POP POP POP JUMP JUMPDEST JUMPDEST DUP2 DUP2 LT ISZERO PUSH2 0x151F JUMPI PUSH2 0x1514 PUSH0 DUP3 PUSH2 0x14E9 JUMP JUMPDEST PUSH1 0x1 DUP2 ADD SWAP1 POP PUSH2 0x1502 JUMP JUMPDEST POP POP JUMP JUMPDEST PUSH1 0x1F DUP3 GT ISZERO PUSH2 0x1564 JUMPI PUSH2 0x1535 DUP2 PUSH2 0x140F JUMP JUMPDEST PUSH2 0x153E DUP5 PUSH2 0x1421 JUMP JUMPDEST DUP2 ADD PUSH1 0x20 DUP6 LT ISZERO PUSH2 0x154D JUMPI DUP2 SWAP1 POP JUMPDEST PUSH2 0x1561 PUSH2 0x1559 DUP6 PUSH2 0x1421 JUMP JUMPDEST DUP4 ADD DUP3 PUSH2 0x1501 JUMP JUMPDEST POP POP JUMPDEST POP POP POP JUMP JUMPDEST PUSH0 DUP3 DUP3 SHR SWAP1 POP SWAP3 SWAP2 POP POP JUMP JUMPDEST PUSH0 PUSH2 0x1584 PUSH0 NOT DUP5 PUSH1 0x8 MUL PUSH2 0x1569 JUMP JUMPDEST NOT DUP1 DUP4 AND SWAP2 POP POP SWAP3 SWAP2 POP POP JUMP JUMPDEST PUSH0 PUSH2 0x159C DUP4 DUP4 PUSH2 0x1575 JUMP JUMPDEST SWAP2 POP DUP3 PUSH1 0x2 MUL DUP3 OR SWAP1 POP SWAP3 SWAP2 POP POP JUMP JUMPDEST PUSH2 0x15B5 DUP3 PUSH2 0xCBF JUMP JUMPDEST PUSH8 0xFFFFFFFFFFFFFFFF DUP2 GT ISZERO PUSH2 0x15CE JUMPI PUSH2 0x15CD PUSH2 0xB54 JUMP JUMPDEST JUMPDEST PUSH2 0x15D8 DUP3 SLOAD PUSH2 0x10CF JUMP JUMPDEST PUSH2 0x15E3 DUP3 DUP3 DUP6 PUSH2 0x1523 JUMP JUMPDEST PUSH0 PUSH1 0x20 SWAP1 POP PUSH1 0x1F DUP4 GT PUSH1 0x1 DUP2 EQ PUSH2 0x1614 JUMPI PUSH0 DUP5 ISZERO PUSH2 0x1602 JUMPI DUP3 DUP8 ADD MLOAD SWAP1 POP JUMPDEST PUSH2 0x160C DUP6 DUP3 PUSH2 0x1591 JUMP JUMPDEST DUP7 SSTORE POP PUSH2 0x1673 JUMP JUMPDEST PUSH1 0x1F NOT DUP5 AND PUSH2 0x1622 DUP7 PUSH2 0x140F JUMP JUMPDEST PUSH0 JUMPDEST DUP3 DUP2 LT ISZERO PUSH2 0x1649 JUMPI DUP5 DUP10 ADD MLOAD DUP3 SSTORE PUSH1 0x1 DUP3 ADD SWAP2 POP PUSH1 0x20 DUP6 ADD SWAP5 POP PUSH1 0x20 DUP2 ADD SWAP1 POP PUSH2 0x1624 JUMP JUMPDEST DUP7 DUP4 LT ISZERO PUSH2 0x1666 JUMPI DUP5 DUP10 ADD MLOAD PUSH2 0x1662 PUSH1 0x1F DUP10 AND DUP3 PUSH2 0x1575 JUMP JUMPDEST DUP4 SSTORE POP JUMPDEST PUSH1 0x1 PUSH1 0x2 DUP9 MUL ADD DUP9 SSTORE POP POP POP JUMPDEST POP POP POP POP POP POP JUMP JUMPDEST PUSH0 PUSH1 0x40 DUP3 ADD SWAP1 POP DUP2 DUP2 SUB PUSH0 DUP4 ADD MSTORE PUSH2 0x1693 DUP2 DUP6 PUSH2 0xCE7 JUMP JUMPDEST SWAP1 POP PUSH2 0x16A2 PUSH1 0x20 DUP4 ADD DUP5 PUSH2 0xD40 JUMP JUMPDEST SWAP4 SWAP3 POP POP POP JUMP INVALID LOG2 PUSH5 0x6970667358 0x22 SLT KECCAK256 OR 0xD6 PREVRANDAO SWAP16 DUP10 0xA7 PC MSTORE8 0xB5 0xB1 MSTORE BLOCKHASH PUSH10 0x14F93B874C2D08B66304 SWAP14 ADD PUSH22 0x8D68E05EC36F64736F6C634300081A00330000000000 "
				},
				"gasEstimates": {
					"creation": {
						"codeDepositCost": "1171000",
						"executionCost": "infinite",
						"totalCost": "infinite"
					},
					"external": {
						"allSoldProductIds(uint256)": "infinite",
						"distribucionAddress()": "2574",
						"getAllSoldProductIds()": "infinite",
						"getSaleHash(string)": "infinite",
						"getSaleInfo(string)": "infinite",
						"getTotalSoldProducts()": "2462",
						"recordSale(string,string,uint256)": "infinite",
						"saleData(string)": "infinite"
					}
				},
				"methodIdentifiers": {
					"allSoldProductIds(uint256)": "aa009012",
					"distribucionAddress()": "cdc82bd5",
					"getAllSoldProductIds()": "babea0b2",
					"getSaleHash(string)": "715f85b4",
					"getSaleInfo(string)": "87dc5730",
					"getTotalSoldProducts()": "b91c7997",
					"recordSale(string,string,uint256)": "acc7ca43",
					"saleData(string)": "3b07ce59"
				}
			},
			"storageLayout": {
				"storage": [
					{
						"astId": 67,
						"contract": "6-Venta.sol:Venta",
						"label": "saleData",
						"offset": 0,
						"slot": "0",
						"type": "t_mapping(t_string_memory_ptr,t_struct(SaleData)62_storage)"
					},
					{
						"astId": 70,
						"contract": "6-Venta.sol:Venta",
						"label": "allSoldProductIds",
						"offset": 0,
						"slot": "1",
						"type": "t_array(t_string_storage)dyn_storage"
					},
					{
						"astId": 72,
						"contract": "6-Venta.sol:Venta",
						"label": "distribucionAddress",
						"offset": 0,
						"slot": "2",
						"type": "t_address"
					},
					{
						"astId": 75,
						"contract": "6-Venta.sol:Venta",
						"label": "distribucion",
						"offset": 0,
						"slot": "3",
						"type": "t_contract(IDistribucion)48"
					}
				],
				"types": {
					"t_address": {
						"encoding": "inplace",
						"label": "address",
						"numberOfBytes": "20"
					},
					"t_array(t_string_storage)dyn_storage": {
						"base": "t_string_storage",
						"encoding": "dynamic_array",
						"label": "string[]",
						"numberOfBytes": "32"
					},
					"t_bytes32": {
						"encoding": "inplace",
						"label": "bytes32",
						"numberOfBytes": "32"
					},
					"t_contract(IDistribucion)48": {
						"encoding": "inplace",
						"label": "contract IDistribucion",
						"numberOfBytes": "20"
					},
					"t_mapping(t_string_memory_ptr,t_struct(SaleData)62_storage)": {
						"encoding": "mapping",
						"key": "t_string_memory_ptr",
						"label": "mapping(string => struct Venta.SaleData)",
						"numberOfBytes": "32",
						"value": "t_struct(SaleData)62_storage"
					},
					"t_string_memory_ptr": {
						"encoding": "bytes",
						"label": "string",
						"numberOfBytes": "32"
					},
					"t_string_storage": {
						"encoding": "bytes",
						"label": "string",
						"numberOfBytes": "32"
					},
					"t_struct(SaleData)62_storage": {
						"encoding": "inplace",
						"label": "struct Venta.SaleData",
						"members": [
							{
								"astId": 53,
								"contract": "6-Venta.sol:Venta",
								"label": "productId",
								"offset": 0,
								"slot": "0",
								"type": "t_string_storage"
							},
							{
								"astId": 55,
								"contract": "6-Venta.sol:Venta",
								"label": "buyerInfo",
								"offset": 0,
								"slot": "1",
								"type": "t_string_storage"
							},
							{
								"astId": 57,
								"contract": "6-Venta.sol:Venta",
								"label": "saleAmount",
								"offset": 0,
								"slot": "2",
								"type": "t_uint256"
							},
							{
								"astId": 59,
								"contract": "6-Venta.sol:Venta",
								"label": "timestamp",
								"offset": 0,
								"slot": "3",
								"type": "t_uint256"
							},
							{
								"astId": 61,
								"contract": "6-Venta.sol:Venta",
								"label": "previousStageHash",
								"offset": 0,
								"slot": "4",
								"type": "t_bytes32"
							}
						],
						"numberOfBytes": "160"
					},
					"t_uint256": {
						"encoding": "inplace",
						"label": "uint256",
						"numberOfBytes": "32"
					}
				}
			},
			"userdoc": {
				"kind": "user",
				"methods": {},
				"version": 1
			}
		}
	}
}