{
	"RegistroFinca.sol": {
		"RegistroFinca": {
			"abi": [
				{
					"anonymous": false,
					"inputs": [
						{
							"indexed": false,
							"internalType": "string",
							"name": "batchId",
							"type": "string"
						},
						{
							"indexed": false,
							"internalType": "bytes32",
							"name": "batchHash",
							"type": "bytes32"
						}
					],
					"name": "BatchRegistered",
					"type": "event"
				},
				{
					"inputs": [
						{
							"internalType": "string",
							"name": "",
							"type": "string"
						}
					],
					"name": "batches",
					"outputs": [
						{
							"internalType": "string",
							"name": "batchId",
							"type": "string"
						},
						{
							"internalType": "string",
							"name": "producerName",
							"type": "string"
						},
						{
							"internalType": "string",
							"name": "farm",
							"type": "string"
						},
						{
							"internalType": "string",
							"name": "locationGPS",
							"type": "string"
						},
						{
							"internalType": "string",
							"name": "tastingResults",
							"type": "string"
						},
						{
							"internalType": "string",
							"name": "humidityAnalysis",
							"type": "string"
						},
						{
							"internalType": "uint256",
							"name": "timestamp",
							"type": "uint256"
						}
					],
					"stateMutability": "view",
					"type": "function"
				},
				{
					"inputs": [
						{
							"internalType": "string",
							"name": "_batchId",
							"type": "string"
						}
					],
					"name": "getBatchHash",
					"outputs": [
						{
							"internalType": "bytes32",
							"name": "",
							"type": "bytes32"
						}
					],
					"stateMutability": "view",
					"type": "function"
				},
				{
					"inputs": [
						{
							"internalType": "string",
							"name": "_batchId",
							"type": "string"
						},
						{
							"internalType": "string",
							"name": "_producerName",
							"type": "string"
						},
						{
							"internalType": "string",
							"name": "_farm",
							"type": "string"
						},
						{
							"internalType": "string",
							"name": "_locationGPS",
							"type": "string"
						},
						{
							"internalType": "string",
							"name": "_tastingResults",
							"type": "string"
						},
						{
							"internalType": "string",
							"name": "_humidityAnalysis",
							"type": "string"
						}
					],
					"name": "registerBatch",
					"outputs": [],
					"stateMutability": "nonpayable",
					"type": "function"
				}
			],
			"devdoc": {
				"kind": "dev",
				"methods": {},
				"version": 1
			},
			"evm": {
				"assembly": "    /* \"RegistroFinca.sol\":58:2142  contract RegistroFinca {... */\n  mstore(0x40, 0x80)\n  callvalue\n  dup1\n  iszero\n  tag_1\n  jumpi\n  0x00\n  dup1\n  revert\ntag_1:\n  pop\n  dataSize(sub_0)\n  dup1\n  dataOffset(sub_0)\n  0x00\n  codecopy\n  0x00\n  return\nstop\n\nsub_0: assembly {\n        /* \"RegistroFinca.sol\":58:2142  contract RegistroFinca {... */\n      mstore(0x40, 0x80)\n      callvalue\n      dup1\n      iszero\n      tag_1\n      jumpi\n      0x00\n      dup1\n      revert\n    tag_1:\n      pop\n      jumpi(tag_2, lt(calldatasize, 0x04))\n      shr(0xe0, calldataload(0x00))\n      dup1\n      0x7ef1446a\n      eq\n      tag_3\n      jumpi\n      dup1\n      0x88cb968e\n      eq\n      tag_4\n      jumpi\n      dup1\n      0xf16f9271\n      eq\n      tag_5\n      jumpi\n    tag_2:\n      0x00\n      dup1\n      revert\n        /* \"RegistroFinca.sol\":562:601  mapping(string => Batch) public batches */\n    tag_3:\n      tag_6\n      0x04\n      dup1\n      calldatasize\n      sub\n      dup2\n      add\n      swap1\n      tag_7\n      swap2\n      swap1\n      tag_8\n      jump\t// in\n    tag_7:\n      tag_9\n      jump\t// in\n    tag_6:\n      mload(0x40)\n      tag_10\n      swap8\n      swap7\n      swap6\n      swap5\n      swap4\n      swap3\n      swap2\n      swap1\n      tag_11\n      jump\t// in\n    tag_10:\n      mload(0x40)\n      dup1\n      swap2\n      sub\n      swap1\n      return\n        /* \"RegistroFinca.sol\":1774:2140  function getBatchHash(string memory _batchId) public view returns (bytes32) {... */\n    tag_4:\n      tag_12\n      0x04\n      dup1\n      calldatasize\n      sub\n      dup2\n      add\n      swap1\n      tag_13\n      swap2\n      swap1\n      tag_8\n      jump\t// in\n    tag_13:\n      tag_14\n      jump\t// in\n    tag_12:\n      mload(0x40)\n      tag_15\n      swap2\n      swap1\n      tag_16\n      jump\t// in\n    tag_15:\n      mload(0x40)\n      dup1\n      swap2\n      sub\n      swap1\n      return\n        /* \"RegistroFinca.sol\":731:1697  function registerBatch(... */\n    tag_5:\n      tag_17\n      0x04\n      dup1\n      calldatasize\n      sub\n      dup2\n      add\n      swap1\n      tag_18\n      swap2\n      swap1\n      tag_19\n      jump\t// in\n    tag_18:\n      tag_20\n      jump\t// in\n    tag_17:\n      stop\n        /* \"RegistroFinca.sol\":562:601  mapping(string => Batch) public batches */\n    tag_9:\n      0x00\n      dup2\n      dup1\n      mload\n      0x20\n      dup2\n      add\n      dup3\n      add\n      dup1\n      mload\n      dup5\n      dup3\n      mstore\n      0x20\n      dup4\n      add\n      0x20\n      dup6\n      add\n      keccak256\n      dup2\n      dup4\n      mstore\n      dup1\n      swap6\n      pop\n      pop\n      pop\n      pop\n      pop\n      pop\n      0x00\n      swap2\n      pop\n      swap1\n      pop\n      dup1\n      0x00\n      add\n      dup1\n      sload\n      tag_21\n      swap1\n      tag_22\n      jump\t// in\n    tag_21:\n      dup1\n      0x1f\n      add\n      0x20\n      dup1\n      swap2\n      div\n      mul\n      0x20\n      add\n      mload(0x40)\n      swap1\n      dup2\n      add\n      0x40\n      mstore\n      dup1\n      swap3\n      swap2\n      swap1\n      dup2\n      dup2\n      mstore\n      0x20\n      add\n      dup3\n      dup1\n      sload\n      tag_23\n      swap1\n      tag_22\n      jump\t// in\n    tag_23:\n      dup1\n      iszero\n      tag_24\n      jumpi\n      dup1\n      0x1f\n      lt\n      tag_25\n      jumpi\n      0x0100\n      dup1\n      dup4\n      sload\n      div\n      mul\n      dup4\n      mstore\n      swap2\n      0x20\n      add\n      swap2\n      jump(tag_24)\n    tag_25:\n      dup3\n      add\n      swap2\n      swap1\n      0x00\n      mstore\n      keccak256(0x00, 0x20)\n      swap1\n    tag_26:\n      dup2\n      sload\n      dup2\n      mstore\n      swap1\n      0x01\n      add\n      swap1\n      0x20\n      add\n      dup1\n      dup4\n      gt\n      tag_26\n      jumpi\n      dup3\n      swap1\n      sub\n      0x1f\n      and\n      dup3\n      add\n      swap2\n    tag_24:\n      pop\n      pop\n      pop\n      pop\n      pop\n      swap1\n      dup1\n      0x01\n      add\n      dup1\n      sload\n      tag_27\n      swap1\n      tag_22\n      jump\t// in\n    tag_27:\n      dup1\n      0x1f\n      add\n      0x20\n      dup1\n      swap2\n      div\n      mul\n      0x20\n      add\n      mload(0x40)\n      swap1\n      dup2\n      add\n      0x40\n      mstore\n      dup1\n      swap3\n      swap2\n      swap1\n      dup2\n      dup2\n      mstore\n      0x20\n      add\n      dup3\n      dup1\n      sload\n      tag_28\n      swap1\n      tag_22\n      jump\t// in\n    tag_28:\n      dup1\n      iszero\n      tag_29\n      jumpi\n      dup1\n      0x1f\n      lt\n      tag_30\n      jumpi\n      0x0100\n      dup1\n      dup4\n      sload\n      div\n      mul\n      dup4\n      mstore\n      swap2\n      0x20\n      add\n      swap2\n      jump(tag_29)\n    tag_30:\n      dup3\n      add\n      swap2\n      swap1\n      0x00\n      mstore\n      keccak256(0x00, 0x20)\n      swap1\n    tag_31:\n      dup2\n      sload\n      dup2\n      mstore\n      swap1\n      0x01\n      add\n      swap1\n      0x20\n      add\n      dup1\n      dup4\n      gt\n      tag_31\n      jumpi\n      dup3\n      swap1\n      sub\n      0x1f\n      and\n      dup3\n      add\n      swap2\n    tag_29:\n      pop\n      pop\n      pop\n      pop\n      pop\n      swap1\n      dup1\n      0x02\n      add\n      dup1\n      sload\n      tag_32\n      swap1\n      tag_22\n      jump\t// in\n    tag_32:\n      dup1\n      0x1f\n      add\n      0x20\n      dup1\n      swap2\n      div\n      mul\n      0x20\n      add\n      mload(0x40)\n      swap1\n      dup2\n      add\n      0x40\n      mstore\n      dup1\n      swap3\n      swap2\n      swap1\n      dup2\n      dup2\n      mstore\n      0x20\n      add\n      dup3\n      dup1\n      sload\n      tag_33\n      swap1\n      tag_22\n      jump\t// in\n    tag_33:\n      dup1\n      iszero\n      tag_34\n      jumpi\n      dup1\n      0x1f\n      lt\n      tag_35\n      jumpi\n      0x0100\n      dup1\n      dup4\n      sload\n      div\n      mul\n      dup4\n      mstore\n      swap2\n      0x20\n      add\n      swap2\n      jump(tag_34)\n    tag_35:\n      dup3\n      add\n      swap2\n      swap1\n      0x00\n      mstore\n      keccak256(0x00, 0x20)\n      swap1\n    tag_36:\n      dup2\n      sload\n      dup2\n      mstore\n      swap1\n      0x01\n      add\n      swap1\n      0x20\n      add\n      dup1\n      dup4\n      gt\n      tag_36\n      jumpi\n      dup3\n      swap1\n      sub\n      0x1f\n      and\n      dup3\n      add\n      swap2\n    tag_34:\n      pop\n      pop\n      pop\n      pop\n      pop\n      swap1\n      dup1\n      0x03\n      add\n      dup1\n      sload\n      tag_37\n      swap1\n      tag_22\n      jump\t// in\n    tag_37:\n      dup1\n      0x1f\n      add\n      0x20\n      dup1\n      swap2\n      div\n      mul\n      0x20\n      add\n      mload(0x40)\n      swap1\n      dup2\n      add\n      0x40\n      mstore\n      dup1\n      swap3\n      swap2\n      swap1\n      dup2\n      dup2\n      mstore\n      0x20\n      add\n      dup3\n      dup1\n      sload\n      tag_38\n      swap1\n      tag_22\n      jump\t// in\n    tag_38:\n      dup1\n      iszero\n      tag_39\n      jumpi\n      dup1\n      0x1f\n      lt\n      tag_40\n      jumpi\n      0x0100\n      dup1\n      dup4\n      sload\n      div\n      mul\n      dup4\n      mstore\n      swap2\n      0x20\n      add\n      swap2\n      jump(tag_39)\n    tag_40:\n      dup3\n      add\n      swap2\n      swap1\n      0x00\n      mstore\n      keccak256(0x00, 0x20)\n      swap1\n    tag_41:\n      dup2\n      sload\n      dup2\n      mstore\n      swap1\n      0x01\n      add\n      swap1\n      0x20\n      add\n      dup1\n      dup4\n      gt\n      tag_41\n      jumpi\n      dup3\n      swap1\n      sub\n      0x1f\n      and\n      dup3\n      add\n      swap2\n    tag_39:\n      pop\n      pop\n      pop\n      pop\n      pop\n      swap1\n      dup1\n      0x04\n      add\n      dup1\n      sload\n      tag_42\n      swap1\n      tag_22\n      jump\t// in\n    tag_42:\n      dup1\n      0x1f\n      add\n      0x20\n      dup1\n      swap2\n      div\n      mul\n      0x20\n      add\n      mload(0x40)\n      swap1\n      dup2\n      add\n      0x40\n      mstore\n      dup1\n      swap3\n      swap2\n      swap1\n      dup2\n      dup2\n      mstore\n      0x20\n      add\n      dup3\n      dup1\n      sload\n      tag_43\n      swap1\n      tag_22\n      jump\t// in\n    tag_43:\n      dup1\n      iszero\n      tag_44\n      jumpi\n      dup1\n      0x1f\n      lt\n      tag_45\n      jumpi\n      0x0100\n      dup1\n      dup4\n      sload\n      div\n      mul\n      dup4\n      mstore\n      swap2\n      0x20\n      add\n      swap2\n      jump(tag_44)\n    tag_45:\n      dup3\n      add\n      swap2\n      swap1\n      0x00\n      mstore\n      keccak256(0x00, 0x20)\n      swap1\n    tag_46:\n      dup2\n      sload\n      dup2\n      mstore\n      swap1\n      0x01\n      add\n      swap1\n      0x20\n      add\n      dup1\n      dup4\n      gt\n      tag_46\n      jumpi\n      dup3\n      swap1\n      sub\n      0x1f\n      and\n      dup3\n      add\n      swap2\n    tag_44:\n      pop\n      pop\n      pop\n      pop\n      pop\n      swap1\n      dup1\n      0x05\n      add\n      dup1\n      sload\n      tag_47\n      swap1\n      tag_22\n      jump\t// in\n    tag_47:\n      dup1\n      0x1f\n      add\n      0x20\n      dup1\n      swap2\n      div\n      mul\n      0x20\n      add\n      mload(0x40)\n      swap1\n      dup2\n      add\n      0x40\n      mstore\n      dup1\n      swap3\n      swap2\n      swap1\n      dup2\n      dup2\n      mstore\n      0x20\n      add\n      dup3\n      dup1\n      sload\n      tag_48\n      swap1\n      tag_22\n      jump\t// in\n    tag_48:\n      dup1\n      iszero\n      tag_49\n      jumpi\n      dup1\n      0x1f\n      lt\n      tag_50\n      jumpi\n      0x0100\n      dup1\n      dup4\n      sload\n      div\n      mul\n      dup4\n      mstore\n      swap2\n      0x20\n      add\n      swap2\n      jump(tag_49)\n    tag_50:\n      dup3\n      add\n      swap2\n      swap1\n      0x00\n      mstore\n      keccak256(0x00, 0x20)\n      swap1\n    tag_51:\n      dup2\n      sload\n      dup2\n      mstore\n      swap1\n      0x01\n      add\n      swap1\n      0x20\n      add\n      dup1\n      dup4\n      gt\n      tag_51\n      jumpi\n      dup3\n      swap1\n      sub\n      0x1f\n      and\n      dup3\n      add\n      swap2\n    tag_49:\n      pop\n      pop\n      pop\n      pop\n      pop\n      swap1\n      dup1\n      0x06\n      add\n      sload\n      swap1\n      pop\n      dup8\n      jump\t// out\n        /* \"RegistroFinca.sol\":1774:2140  function getBatchHash(string memory _batchId) public view returns (bytes32) {... */\n    tag_14:\n        /* \"RegistroFinca.sol\":1841:1848  bytes32 */\n      0x00\n        /* \"RegistroFinca.sol\":1860:1874  Batch memory b */\n      dup1\n        /* \"RegistroFinca.sol\":1877:1884  batches */\n      0x00\n        /* \"RegistroFinca.sol\":1885:1893  _batchId */\n      dup4\n        /* \"RegistroFinca.sol\":1877:1894  batches[_batchId] */\n      mload(0x40)\n      tag_53\n      swap2\n      swap1\n      tag_54\n      jump\t// in\n    tag_53:\n      swap1\n      dup2\n      mstore\n      0x20\n      add\n      mload(0x40)\n      dup1\n      swap2\n      sub\n      swap1\n      keccak256\n        /* \"RegistroFinca.sol\":1860:1894  Batch memory b = batches[_batchId] */\n      mload(0x40)\n      dup1\n      0xe0\n      add\n      0x40\n      mstore\n      swap1\n      dup2\n      0x00\n      dup3\n      add\n      dup1\n      sload\n      tag_55\n      swap1\n      tag_22\n      jump\t// in\n    tag_55:\n      dup1\n      0x1f\n      add\n      0x20\n      dup1\n      swap2\n      div\n      mul\n      0x20\n      add\n      mload(0x40)\n      swap1\n      dup2\n      add\n      0x40\n      mstore\n      dup1\n      swap3\n      swap2\n      swap1\n      dup2\n      dup2\n      mstore\n      0x20\n      add\n      dup3\n      dup1\n      sload\n      tag_56\n      swap1\n      tag_22\n      jump\t// in\n    tag_56:\n      dup1\n      iszero\n      tag_57\n      jumpi\n      dup1\n      0x1f\n      lt\n      tag_58\n      jumpi\n      0x0100\n      dup1\n      dup4\n      sload\n      div\n      mul\n      dup4\n      mstore\n      swap2\n      0x20\n      add\n      swap2\n      jump(tag_57)\n    tag_58:\n      dup3\n      add\n      swap2\n      swap1\n      0x00\n      mstore\n      keccak256(0x00, 0x20)\n      swap1\n    tag_59:\n      dup2\n      sload\n      dup2\n      mstore\n      swap1\n      0x01\n      add\n      swap1\n      0x20\n      add\n      dup1\n      dup4\n      gt\n      tag_59\n      jumpi\n      dup3\n      swap1\n      sub\n      0x1f\n      and\n      dup3\n      add\n      swap2\n    tag_57:\n      pop\n      pop\n      pop\n      pop\n      pop\n      dup2\n      mstore\n      0x20\n      add\n      0x01\n      dup3\n      add\n      dup1\n      sload\n      tag_60\n      swap1\n      tag_22\n      jump\t// in\n    tag_60:\n      dup1\n      0x1f\n      add\n      0x20\n      dup1\n      swap2\n      div\n      mul\n      0x20\n      add\n      mload(0x40)\n      swap1\n      dup2\n      add\n      0x40\n      mstore\n      dup1\n      swap3\n      swap2\n      swap1\n      dup2\n      dup2\n      mstore\n      0x20\n      add\n      dup3\n      dup1\n      sload\n      tag_61\n      swap1\n      tag_22\n      jump\t// in\n    tag_61:\n      dup1\n      iszero\n      tag_62\n      jumpi\n      dup1\n      0x1f\n      lt\n      tag_63\n      jumpi\n      0x0100\n      dup1\n      dup4\n      sload\n      div\n      mul\n      dup4\n      mstore\n      swap2\n      0x20\n      add\n      swap2\n      jump(tag_62)\n    tag_63:\n      dup3\n      add\n      swap2\n      swap1\n      0x00\n      mstore\n      keccak256(0x00, 0x20)\n      swap1\n    tag_64:\n      dup2\n      sload\n      dup2\n      mstore\n      swap1\n      0x01\n      add\n      swap1\n      0x20\n      add\n      dup1\n      dup4\n      gt\n      tag_64\n      jumpi\n      dup3\n      swap1\n      sub\n      0x1f\n      and\n      dup3\n      add\n      swap2\n    tag_62:\n      pop\n      pop\n      pop\n      pop\n      pop\n      dup2\n      mstore\n      0x20\n      add\n      0x02\n      dup3\n      add\n      dup1\n      sload\n      tag_65\n      swap1\n      tag_22\n      jump\t// in\n    tag_65:\n      dup1\n      0x1f\n      add\n      0x20\n      dup1\n      swap2\n      div\n      mul\n      0x20\n      add\n      mload(0x40)\n      swap1\n      dup2\n      add\n      0x40\n      mstore\n      dup1\n      swap3\n      swap2\n      swap1\n      dup2\n      dup2\n      mstore\n      0x20\n      add\n      dup3\n      dup1\n      sload\n      tag_66\n      swap1\n      tag_22\n      jump\t// in\n    tag_66:\n      dup1\n      iszero\n      tag_67\n      jumpi\n      dup1\n      0x1f\n      lt\n      tag_68\n      jumpi\n      0x0100\n      dup1\n      dup4\n      sload\n      div\n      mul\n      dup4\n      mstore\n      swap2\n      0x20\n      add\n      swap2\n      jump(tag_67)\n    tag_68:\n      dup3\n      add\n      swap2\n      swap1\n      0x00\n      mstore\n      keccak256(0x00, 0x20)\n      swap1\n    tag_69:\n      dup2\n      sload\n      dup2\n      mstore\n      swap1\n      0x01\n      add\n      swap1\n      0x20\n      add\n      dup1\n      dup4\n      gt\n      tag_69\n      jumpi\n      dup3\n      swap1\n      sub\n      0x1f\n      and\n      dup3\n      add\n      swap2\n    tag_67:\n      pop\n      pop\n      pop\n      pop\n      pop\n      dup2\n      mstore\n      0x20\n      add\n      0x03\n      dup3\n      add\n      dup1\n      sload\n      tag_70\n      swap1\n      tag_22\n      jump\t// in\n    tag_70:\n      dup1\n      0x1f\n      add\n      0x20\n      dup1\n      swap2\n      div\n      mul\n      0x20\n      add\n      mload(0x40)\n      swap1\n      dup2\n      add\n      0x40\n      mstore\n      dup1\n      swap3\n      swap2\n      swap1\n      dup2\n      dup2\n      mstore\n      0x20\n      add\n      dup3\n      dup1\n      sload\n      tag_71\n      swap1\n      tag_22\n      jump\t// in\n    tag_71:\n      dup1\n      iszero\n      tag_72\n      jumpi\n      dup1\n      0x1f\n      lt\n      tag_73\n      jumpi\n      0x0100\n      dup1\n      dup4\n      sload\n      div\n      mul\n      dup4\n      mstore\n      swap2\n      0x20\n      add\n      swap2\n      jump(tag_72)\n    tag_73:\n      dup3\n      add\n      swap2\n      swap1\n      0x00\n      mstore\n      keccak256(0x00, 0x20)\n      swap1\n    tag_74:\n      dup2\n      sload\n      dup2\n      mstore\n      swap1\n      0x01\n      add\n      swap1\n      0x20\n      add\n      dup1\n      dup4\n      gt\n      tag_74\n      jumpi\n      dup3\n      swap1\n      sub\n      0x1f\n      and\n      dup3\n      add\n      swap2\n    tag_72:\n      pop\n      pop\n      pop\n      pop\n      pop\n      dup2\n      mstore\n      0x20\n      add\n      0x04\n      dup3\n      add\n      dup1\n      sload\n      tag_75\n      swap1\n      tag_22\n      jump\t// in\n    tag_75:\n      dup1\n      0x1f\n      add\n      0x20\n      dup1\n      swap2\n      div\n      mul\n      0x20\n      add\n      mload(0x40)\n      swap1\n      dup2\n      add\n      0x40\n      mstore\n      dup1\n      swap3\n      swap2\n      swap1\n      dup2\n      dup2\n      mstore\n      0x20\n      add\n      dup3\n      dup1\n      sload\n      tag_76\n      swap1\n      tag_22\n      jump\t// in\n    tag_76:\n      dup1\n      iszero\n      tag_77\n      jumpi\n      dup1\n      0x1f\n      lt\n      tag_78\n      jumpi\n      0x0100\n      dup1\n      dup4\n      sload\n      div\n      mul\n      dup4\n      mstore\n      swap2\n      0x20\n      add\n      swap2\n      jump(tag_77)\n    tag_78:\n      dup3\n      add\n      swap2\n      swap1\n      0x00\n      mstore\n      keccak256(0x00, 0x20)\n      swap1\n    tag_79:\n      dup2\n      sload\n      dup2\n      mstore\n      swap1\n      0x01\n      add\n      swap1\n      0x20\n      add\n      dup1\n      dup4\n      gt\n      tag_79\n      jumpi\n      dup3\n      swap1\n      sub\n      0x1f\n      and\n      dup3\n      add\n      swap2\n    tag_77:\n      pop\n      pop\n      pop\n      pop\n      pop\n      dup2\n      mstore\n      0x20\n      add\n      0x05\n      dup3\n      add\n      dup1\n      sload\n      tag_80\n      swap1\n      tag_22\n      jump\t// in\n    tag_80:\n      dup1\n      0x1f\n      add\n      0x20\n      dup1\n      swap2\n      div\n      mul\n      0x20\n      add\n      mload(0x40)\n      swap1\n      dup2\n      add\n      0x40\n      mstore\n      dup1\n      swap3\n      swap2\n      swap1\n      dup2\n      dup2\n      mstore\n      0x20\n      add\n      dup3\n      dup1\n      sload\n      tag_81\n      swap1\n      tag_22\n      jump\t// in\n    tag_81:\n      dup1\n      iszero\n      tag_82\n      jumpi\n      dup1\n      0x1f\n      lt\n      tag_83\n      jumpi\n      0x0100\n      dup1\n      dup4\n      sload\n      div\n      mul\n      dup4\n      mstore\n      swap2\n      0x20\n      add\n      swap2\n      jump(tag_82)\n    tag_83:\n      dup3\n      add\n      swap2\n      swap1\n      0x00\n      mstore\n      keccak256(0x00, 0x20)\n      swap1\n    tag_84:\n      dup2\n      sload\n      dup2\n      mstore\n      swap1\n      0x01\n      add\n      swap1\n      0x20\n      add\n      dup1\n      dup4\n      gt\n      tag_84\n      jumpi\n      dup3\n      swap1\n      sub\n      0x1f\n      and\n      dup3\n      add\n      swap2\n    tag_82:\n      pop\n      pop\n      pop\n      pop\n      pop\n      dup2\n      mstore\n      0x20\n      add\n      0x06\n      dup3\n      add\n      sload\n      dup2\n      mstore\n      pop\n      pop\n      swap1\n      pop\n        /* \"RegistroFinca.sol\":1951:1952  b */\n      dup1\n        /* \"RegistroFinca.sol\":1951:1960  b.batchId */\n      0x00\n      add\n      mload\n        /* \"RegistroFinca.sol\":1974:1975  b */\n      dup2\n        /* \"RegistroFinca.sol\":1974:1988  b.producerName */\n      0x20\n      add\n      mload\n        /* \"RegistroFinca.sol\":2002:2003  b */\n      dup3\n        /* \"RegistroFinca.sol\":2002:2008  b.farm */\n      0x40\n      add\n      mload\n        /* \"RegistroFinca.sol\":2022:2023  b */\n      dup4\n        /* \"RegistroFinca.sol\":2022:2035  b.locationGPS */\n      0x60\n      add\n      mload\n        /* \"RegistroFinca.sol\":2049:2050  b */\n      dup5\n        /* \"RegistroFinca.sol\":2049:2065  b.tastingResults */\n      0x80\n      add\n      mload\n        /* \"RegistroFinca.sol\":2079:2080  b */\n      dup6\n        /* \"RegistroFinca.sol\":2079:2097  b.humidityAnalysis */\n      0xa0\n      add\n      mload\n        /* \"RegistroFinca.sol\":2111:2112  b */\n      dup7\n        /* \"RegistroFinca.sol\":2111:2122  b.timestamp */\n      0xc0\n      add\n      mload\n        /* \"RegistroFinca.sol\":1921:2132  abi.encodePacked(... */\n      add(0x20, mload(0x40))\n      tag_85\n      swap8\n      swap7\n      swap6\n      swap5\n      swap4\n      swap3\n      swap2\n      swap1\n      tag_86\n      jump\t// in\n    tag_85:\n      mload(0x40)\n      0x20\n      dup2\n      dup4\n      sub\n      sub\n      dup2\n      mstore\n      swap1\n      0x40\n      mstore\n        /* \"RegistroFinca.sol\":1911:2133  keccak256(abi.encodePacked(... */\n      dup1\n      mload\n      swap1\n      0x20\n      add\n      keccak256\n        /* \"RegistroFinca.sol\":1904:2133  return keccak256(abi.encodePacked(... */\n      swap2\n      pop\n      pop\n        /* \"RegistroFinca.sol\":1774:2140  function getBatchHash(string memory _batchId) public view returns (bytes32) {... */\n      swap2\n      swap1\n      pop\n      jump\t// out\n        /* \"RegistroFinca.sol\":731:1697  function registerBatch(... */\n    tag_20:\n        /* \"RegistroFinca.sol\":1042:1043  0 */\n      0x00\n        /* \"RegistroFinca.sol\":1005:1012  batches */\n      dup1\n        /* \"RegistroFinca.sol\":1013:1021  _batchId */\n      dup8\n        /* \"RegistroFinca.sol\":1005:1022  batches[_batchId] */\n      mload(0x40)\n      tag_88\n      swap2\n      swap1\n      tag_54\n      jump\t// in\n    tag_88:\n      swap1\n      dup2\n      mstore\n      0x20\n      add\n      mload(0x40)\n      dup1\n      swap2\n      sub\n      swap1\n      keccak256\n        /* \"RegistroFinca.sol\":1005:1030  batches[_batchId].batchId */\n      0x00\n      add\n        /* \"RegistroFinca.sol\":999:1038  bytes(batches[_batchId].batchId).length */\n      dup1\n      sload\n      tag_89\n      swap1\n      tag_22\n      jump\t// in\n    tag_89:\n      swap1\n      pop\n        /* \"RegistroFinca.sol\":999:1043  bytes(batches[_batchId].batchId).length == 0 */\n      eq\n        /* \"RegistroFinca.sol\":991:1072  require(bytes(batches[_batchId].batchId).length == 0, \"Batch already registered\") */\n      tag_90\n      jumpi\n      mload(0x40)\n      0x08c379a000000000000000000000000000000000000000000000000000000000\n      dup2\n      mstore\n      0x04\n      add\n      tag_91\n      swap1\n      tag_92\n      jump\t// in\n    tag_91:\n      mload(0x40)\n      dup1\n      swap2\n      sub\n      swap1\n      revert\n    tag_90:\n        /* \"RegistroFinca.sol\":1102:1389  Batch({... */\n      mload(0x40)\n      dup1\n      0xe0\n      add\n      0x40\n      mstore\n      dup1\n        /* \"RegistroFinca.sol\":1131:1139  _batchId */\n      dup8\n        /* \"RegistroFinca.sol\":1102:1389  Batch({... */\n      dup2\n      mstore\n      0x20\n      add\n        /* \"RegistroFinca.sol\":1167:1180  _producerName */\n      dup7\n        /* \"RegistroFinca.sol\":1102:1389  Batch({... */\n      dup2\n      mstore\n      0x20\n      add\n        /* \"RegistroFinca.sol\":1200:1205  _farm */\n      dup6\n        /* \"RegistroFinca.sol\":1102:1389  Batch({... */\n      dup2\n      mstore\n      0x20\n      add\n        /* \"RegistroFinca.sol\":1232:1244  _locationGPS */\n      dup5\n        /* \"RegistroFinca.sol\":1102:1389  Batch({... */\n      dup2\n      mstore\n      0x20\n      add\n        /* \"RegistroFinca.sol\":1274:1289  _tastingResults */\n      dup4\n        /* \"RegistroFinca.sol\":1102:1389  Batch({... */\n      dup2\n      mstore\n      0x20\n      add\n        /* \"RegistroFinca.sol\":1321:1338  _humidityAnalysis */\n      dup3\n        /* \"RegistroFinca.sol\":1102:1389  Batch({... */\n      dup2\n      mstore\n      0x20\n      add\n        /* \"RegistroFinca.sol\":1363:1378  block.timestamp */\n      timestamp\n        /* \"RegistroFinca.sol\":1102:1389  Batch({... */\n      dup2\n      mstore\n      pop\n        /* \"RegistroFinca.sol\":1082:1089  batches */\n      0x00\n        /* \"RegistroFinca.sol\":1090:1098  _batchId */\n      dup8\n        /* \"RegistroFinca.sol\":1082:1099  batches[_batchId] */\n      mload(0x40)\n      tag_93\n      swap2\n      swap1\n      tag_54\n      jump\t// in\n    tag_93:\n      swap1\n      dup2\n      mstore\n      0x20\n      add\n      mload(0x40)\n      dup1\n      swap2\n      sub\n      swap1\n      keccak256\n        /* \"RegistroFinca.sol\":1082:1389  batches[_batchId] = Batch({... */\n      0x00\n      dup3\n      add\n      mload\n      dup2\n      0x00\n      add\n      swap1\n      dup2\n      tag_94\n      swap2\n      swap1\n      tag_95\n      jump\t// in\n    tag_94:\n      pop\n      0x20\n      dup3\n      add\n      mload\n      dup2\n      0x01\n      add\n      swap1\n      dup2\n      tag_96\n      swap2\n      swap1\n      tag_95\n      jump\t// in\n    tag_96:\n      pop\n      0x40\n      dup3\n      add\n      mload\n      dup2\n      0x02\n      add\n      swap1\n      dup2\n      tag_97\n      swap2\n      swap1\n      tag_95\n      jump\t// in\n    tag_97:\n      pop\n      0x60\n      dup3\n      add\n      mload\n      dup2\n      0x03\n      add\n      swap1\n      dup2\n      tag_98\n      swap2\n      swap1\n      tag_95\n      jump\t// in\n    tag_98:\n      pop\n      0x80\n      dup3\n      add\n      mload\n      dup2\n      0x04\n      add\n      swap1\n      dup2\n      tag_99\n      swap2\n      swap1\n      tag_95\n      jump\t// in\n    tag_99:\n      pop\n      0xa0\n      dup3\n      add\n      mload\n      dup2\n      0x05\n      add\n      swap1\n      dup2\n      tag_100\n      swap2\n      swap1\n      tag_95\n      jump\t// in\n    tag_100:\n      pop\n      0xc0\n      dup3\n      add\n      mload\n      dup2\n      0x06\n      add\n      sstore\n      swap1\n      pop\n      pop\n        /* \"RegistroFinca.sol\":1399:1416  bytes32 batchHash */\n      0x00\n        /* \"RegistroFinca.sol\":1459:1467  _batchId */\n      dup7\n        /* \"RegistroFinca.sol\":1481:1494  _producerName */\n      dup7\n        /* \"RegistroFinca.sol\":1508:1513  _farm */\n      dup7\n        /* \"RegistroFinca.sol\":1527:1539  _locationGPS */\n      dup7\n        /* \"RegistroFinca.sol\":1553:1568  _tastingResults */\n      dup7\n        /* \"RegistroFinca.sol\":1582:1599  _humidityAnalysis */\n      dup7\n        /* \"RegistroFinca.sol\":1613:1628  block.timestamp */\n      timestamp\n        /* \"RegistroFinca.sol\":1429:1638  abi.encodePacked(... */\n      add(0x20, mload(0x40))\n      tag_101\n      swap8\n      swap7\n      swap6\n      swap5\n      swap4\n      swap3\n      swap2\n      swap1\n      tag_86\n      jump\t// in\n    tag_101:\n      mload(0x40)\n      0x20\n      dup2\n      dup4\n      sub\n      sub\n      dup2\n      mstore\n      swap1\n      0x40\n      mstore\n        /* \"RegistroFinca.sol\":1419:1639  keccak256(abi.encodePacked(... */\n      dup1\n      mload\n      swap1\n      0x20\n      add\n      keccak256\n        /* \"RegistroFinca.sol\":1399:1639  bytes32 batchHash = keccak256(abi.encodePacked(... */\n      swap1\n      pop\n        /* \"RegistroFinca.sol\":1654:1690  BatchRegistered(_batchId, batchHash) */\n      0x609d236b1e89861dacd5955039123e735c00914465da65b79aa8cff0762e941c\n        /* \"RegistroFinca.sol\":1670:1678  _batchId */\n      dup8\n        /* \"RegistroFinca.sol\":1680:1689  batchHash */\n      dup3\n        /* \"RegistroFinca.sol\":1654:1690  BatchRegistered(_batchId, batchHash) */\n      mload(0x40)\n      tag_102\n      swap3\n      swap2\n      swap1\n      tag_103\n      jump\t// in\n    tag_102:\n      mload(0x40)\n      dup1\n      swap2\n      sub\n      swap1\n      log1\n        /* \"RegistroFinca.sol\":981:1697  {... */\n      pop\n        /* \"RegistroFinca.sol\":731:1697  function registerBatch(... */\n      pop\n      pop\n      pop\n      pop\n      pop\n      pop\n      jump\t// out\n        /* \"#utility.yul\":7:82   */\n    tag_104:\n        /* \"#utility.yul\":40:46   */\n      0x00\n        /* \"#utility.yul\":73:75   */\n      0x40\n        /* \"#utility.yul\":67:76   */\n      mload\n        /* \"#utility.yul\":57:76   */\n      swap1\n      pop\n        /* \"#utility.yul\":7:82   */\n      swap1\n      jump\t// out\n        /* \"#utility.yul\":88:205   */\n    tag_105:\n        /* \"#utility.yul\":197:198   */\n      0x00\n        /* \"#utility.yul\":194:195   */\n      dup1\n        /* \"#utility.yul\":187:199   */\n      revert\n        /* \"#utility.yul\":211:328   */\n    tag_106:\n        /* \"#utility.yul\":320:321   */\n      0x00\n        /* \"#utility.yul\":317:318   */\n      dup1\n        /* \"#utility.yul\":310:322   */\n      revert\n        /* \"#utility.yul\":334:451   */\n    tag_107:\n        /* \"#utility.yul\":443:444   */\n      0x00\n        /* \"#utility.yul\":440:441   */\n      dup1\n        /* \"#utility.yul\":433:445   */\n      revert\n        /* \"#utility.yul\":457:574   */\n    tag_108:\n        /* \"#utility.yul\":566:567   */\n      0x00\n        /* \"#utility.yul\":563:564   */\n      dup1\n        /* \"#utility.yul\":556:568   */\n      revert\n        /* \"#utility.yul\":580:682   */\n    tag_109:\n        /* \"#utility.yul\":621:627   */\n      0x00\n        /* \"#utility.yul\":672:674   */\n      0x1f\n        /* \"#utility.yul\":668:675   */\n      not\n        /* \"#utility.yul\":663:665   */\n      0x1f\n        /* \"#utility.yul\":656:661   */\n      dup4\n        /* \"#utility.yul\":652:666   */\n      add\n        /* \"#utility.yul\":648:676   */\n      and\n        /* \"#utility.yul\":638:676   */\n      swap1\n      pop\n        /* \"#utility.yul\":580:682   */\n      swap2\n      swap1\n      pop\n      jump\t// out\n        /* \"#utility.yul\":688:868   */\n    tag_110:\n        /* \"#utility.yul\":736:813   */\n      0x4e487b7100000000000000000000000000000000000000000000000000000000\n        /* \"#utility.yul\":733:734   */\n      0x00\n        /* \"#utility.yul\":726:814   */\n      mstore\n        /* \"#utility.yul\":833:837   */\n      0x41\n        /* \"#utility.yul\":830:831   */\n      0x04\n        /* \"#utility.yul\":823:838   */\n      mstore\n        /* \"#utility.yul\":857:861   */\n      0x24\n        /* \"#utility.yul\":854:855   */\n      0x00\n        /* \"#utility.yul\":847:862   */\n      revert\n        /* \"#utility.yul\":874:1155   */\n    tag_111:\n        /* \"#utility.yul\":957:984   */\n      tag_156\n        /* \"#utility.yul\":979:983   */\n      dup3\n        /* \"#utility.yul\":957:984   */\n      tag_109\n      jump\t// in\n    tag_156:\n        /* \"#utility.yul\":949:955   */\n      dup2\n        /* \"#utility.yul\":945:985   */\n      add\n        /* \"#utility.yul\":1087:1093   */\n      dup2\n        /* \"#utility.yul\":1075:1085   */\n      dup2\n        /* \"#utility.yul\":1072:1094   */\n      lt\n        /* \"#utility.yul\":1051:1069   */\n      0xffffffffffffffff\n        /* \"#utility.yul\":1039:1049   */\n      dup3\n        /* \"#utility.yul\":1036:1070   */\n      gt\n        /* \"#utility.yul\":1033:1095   */\n      or\n        /* \"#utility.yul\":1030:1118   */\n      iszero\n      tag_157\n      jumpi\n        /* \"#utility.yul\":1098:1116   */\n      tag_158\n      tag_110\n      jump\t// in\n    tag_158:\n        /* \"#utility.yul\":1030:1118   */\n    tag_157:\n        /* \"#utility.yul\":1138:1148   */\n      dup1\n        /* \"#utility.yul\":1134:1136   */\n      0x40\n        /* \"#utility.yul\":1127:1149   */\n      mstore\n        /* \"#utility.yul\":917:1155   */\n      pop\n        /* \"#utility.yul\":874:1155   */\n      pop\n      pop\n      jump\t// out\n        /* \"#utility.yul\":1161:1290   */\n    tag_112:\n        /* \"#utility.yul\":1195:1201   */\n      0x00\n        /* \"#utility.yul\":1222:1242   */\n      tag_160\n      tag_104\n      jump\t// in\n    tag_160:\n        /* \"#utility.yul\":1212:1242   */\n      swap1\n      pop\n        /* \"#utility.yul\":1251:1284   */\n      tag_161\n        /* \"#utility.yul\":1279:1283   */\n      dup3\n        /* \"#utility.yul\":1271:1277   */\n      dup3\n        /* \"#utility.yul\":1251:1284   */\n      tag_111\n      jump\t// in\n    tag_161:\n        /* \"#utility.yul\":1161:1290   */\n      swap2\n      swap1\n      pop\n      jump\t// out\n        /* \"#utility.yul\":1296:1604   */\n    tag_113:\n        /* \"#utility.yul\":1358:1362   */\n      0x00\n        /* \"#utility.yul\":1448:1466   */\n      0xffffffffffffffff\n        /* \"#utility.yul\":1440:1446   */\n      dup3\n        /* \"#utility.yul\":1437:1467   */\n      gt\n        /* \"#utility.yul\":1434:1490   */\n      iszero\n      tag_163\n      jumpi\n        /* \"#utility.yul\":1470:1488   */\n      tag_164\n      tag_110\n      jump\t// in\n    tag_164:\n        /* \"#utility.yul\":1434:1490   */\n    tag_163:\n        /* \"#utility.yul\":1508:1537   */\n      tag_165\n        /* \"#utility.yul\":1530:1536   */\n      dup3\n        /* \"#utility.yul\":1508:1537   */\n      tag_109\n      jump\t// in\n    tag_165:\n        /* \"#utility.yul\":1500:1537   */\n      swap1\n      pop\n        /* \"#utility.yul\":1592:1596   */\n      0x20\n        /* \"#utility.yul\":1586:1590   */\n      dup2\n        /* \"#utility.yul\":1582:1597   */\n      add\n        /* \"#utility.yul\":1574:1597   */\n      swap1\n      pop\n        /* \"#utility.yul\":1296:1604   */\n      swap2\n      swap1\n      pop\n      jump\t// out\n        /* \"#utility.yul\":1610:1758   */\n    tag_114:\n        /* \"#utility.yul\":1708:1714   */\n      dup3\n        /* \"#utility.yul\":1703:1706   */\n      dup2\n        /* \"#utility.yul\":1698:1701   */\n      dup4\n        /* \"#utility.yul\":1685:1715   */\n      calldatacopy\n        /* \"#utility.yul\":1749:1750   */\n      0x00\n        /* \"#utility.yul\":1740:1746   */\n      dup4\n        /* \"#utility.yul\":1735:1738   */\n      dup4\n        /* \"#utility.yul\":1731:1747   */\n      add\n        /* \"#utility.yul\":1724:1751   */\n      mstore\n        /* \"#utility.yul\":1610:1758   */\n      pop\n      pop\n      pop\n      jump\t// out\n        /* \"#utility.yul\":1764:2189   */\n    tag_115:\n        /* \"#utility.yul\":1842:1847   */\n      0x00\n        /* \"#utility.yul\":1867:1933   */\n      tag_168\n        /* \"#utility.yul\":1883:1932   */\n      tag_169\n        /* \"#utility.yul\":1925:1931   */\n      dup5\n        /* \"#utility.yul\":1883:1932   */\n      tag_113\n      jump\t// in\n    tag_169:\n        /* \"#utility.yul\":1867:1933   */\n      tag_112\n      jump\t// in\n    tag_168:\n        /* \"#utility.yul\":1858:1933   */\n      swap1\n      pop\n        /* \"#utility.yul\":1956:1962   */\n      dup3\n        /* \"#utility.yul\":1949:1954   */\n      dup2\n        /* \"#utility.yul\":1942:1963   */\n      mstore\n        /* \"#utility.yul\":1994:1998   */\n      0x20\n        /* \"#utility.yul\":1987:1992   */\n      dup2\n        /* \"#utility.yul\":1983:1999   */\n      add\n        /* \"#utility.yul\":2032:2035   */\n      dup5\n        /* \"#utility.yul\":2023:2029   */\n      dup5\n        /* \"#utility.yul\":2018:2021   */\n      dup5\n        /* \"#utility.yul\":2014:2030   */\n      add\n        /* \"#utility.yul\":2011:2036   */\n      gt\n        /* \"#utility.yul\":2008:2120   */\n      iszero\n      tag_170\n      jumpi\n        /* \"#utility.yul\":2039:2118   */\n      tag_171\n      tag_108\n      jump\t// in\n    tag_171:\n        /* \"#utility.yul\":2008:2120   */\n    tag_170:\n        /* \"#utility.yul\":2129:2183   */\n      tag_172\n        /* \"#utility.yul\":2176:2182   */\n      dup5\n        /* \"#utility.yul\":2171:2174   */\n      dup3\n        /* \"#utility.yul\":2166:2169   */\n      dup6\n        /* \"#utility.yul\":2129:2183   */\n      tag_114\n      jump\t// in\n    tag_172:\n        /* \"#utility.yul\":1848:2189   */\n      pop\n        /* \"#utility.yul\":1764:2189   */\n      swap4\n      swap3\n      pop\n      pop\n      pop\n      jump\t// out\n        /* \"#utility.yul\":2209:2549   */\n    tag_116:\n        /* \"#utility.yul\":2265:2270   */\n      0x00\n        /* \"#utility.yul\":2314:2317   */\n      dup3\n        /* \"#utility.yul\":2307:2311   */\n      0x1f\n        /* \"#utility.yul\":2299:2305   */\n      dup4\n        /* \"#utility.yul\":2295:2312   */\n      add\n        /* \"#utility.yul\":2291:2318   */\n      slt\n        /* \"#utility.yul\":2281:2403   */\n      tag_174\n      jumpi\n        /* \"#utility.yul\":2322:2401   */\n      tag_175\n      tag_107\n      jump\t// in\n    tag_175:\n        /* \"#utility.yul\":2281:2403   */\n    tag_174:\n        /* \"#utility.yul\":2439:2445   */\n      dup2\n        /* \"#utility.yul\":2426:2446   */\n      calldataload\n        /* \"#utility.yul\":2464:2543   */\n      tag_176\n        /* \"#utility.yul\":2539:2542   */\n      dup5\n        /* \"#utility.yul\":2531:2537   */\n      dup3\n        /* \"#utility.yul\":2524:2528   */\n      0x20\n        /* \"#utility.yul\":2516:2522   */\n      dup7\n        /* \"#utility.yul\":2512:2529   */\n      add\n        /* \"#utility.yul\":2464:2543   */\n      tag_115\n      jump\t// in\n    tag_176:\n        /* \"#utility.yul\":2455:2543   */\n      swap2\n      pop\n        /* \"#utility.yul\":2271:2549   */\n      pop\n        /* \"#utility.yul\":2209:2549   */\n      swap3\n      swap2\n      pop\n      pop\n      jump\t// out\n        /* \"#utility.yul\":2555:3064   */\n    tag_8:\n        /* \"#utility.yul\":2624:2630   */\n      0x00\n        /* \"#utility.yul\":2673:2675   */\n      0x20\n        /* \"#utility.yul\":2661:2670   */\n      dup3\n        /* \"#utility.yul\":2652:2659   */\n      dup5\n        /* \"#utility.yul\":2648:2671   */\n      sub\n        /* \"#utility.yul\":2644:2676   */\n      slt\n        /* \"#utility.yul\":2641:2760   */\n      iszero\n      tag_178\n      jumpi\n        /* \"#utility.yul\":2679:2758   */\n      tag_179\n      tag_105\n      jump\t// in\n    tag_179:\n        /* \"#utility.yul\":2641:2760   */\n    tag_178:\n        /* \"#utility.yul\":2827:2828   */\n      0x00\n        /* \"#utility.yul\":2816:2825   */\n      dup3\n        /* \"#utility.yul\":2812:2829   */\n      add\n        /* \"#utility.yul\":2799:2830   */\n      calldataload\n        /* \"#utility.yul\":2857:2875   */\n      0xffffffffffffffff\n        /* \"#utility.yul\":2849:2855   */\n      dup2\n        /* \"#utility.yul\":2846:2876   */\n      gt\n        /* \"#utility.yul\":2843:2960   */\n      iszero\n      tag_180\n      jumpi\n        /* \"#utility.yul\":2879:2958   */\n      tag_181\n      tag_106\n      jump\t// in\n    tag_181:\n        /* \"#utility.yul\":2843:2960   */\n    tag_180:\n        /* \"#utility.yul\":2984:3047   */\n      tag_182\n        /* \"#utility.yul\":3039:3046   */\n      dup5\n        /* \"#utility.yul\":3030:3036   */\n      dup3\n        /* \"#utility.yul\":3019:3028   */\n      dup6\n        /* \"#utility.yul\":3015:3037   */\n      add\n        /* \"#utility.yul\":2984:3047   */\n      tag_116\n      jump\t// in\n    tag_182:\n        /* \"#utility.yul\":2974:3047   */\n      swap2\n      pop\n        /* \"#utility.yul\":2770:3057   */\n      pop\n        /* \"#utility.yul\":2555:3064   */\n      swap3\n      swap2\n      pop\n      pop\n      jump\t// out\n        /* \"#utility.yul\":3070:3169   */\n    tag_117:\n        /* \"#utility.yul\":3122:3128   */\n      0x00\n        /* \"#utility.yul\":3156:3161   */\n      dup2\n        /* \"#utility.yul\":3150:3162   */\n      mload\n        /* \"#utility.yul\":3140:3162   */\n      swap1\n      pop\n        /* \"#utility.yul\":3070:3169   */\n      swap2\n      swap1\n      pop\n      jump\t// out\n        /* \"#utility.yul\":3175:3344   */\n    tag_118:\n        /* \"#utility.yul\":3259:3270   */\n      0x00\n        /* \"#utility.yul\":3293:3299   */\n      dup3\n        /* \"#utility.yul\":3288:3291   */\n      dup3\n        /* \"#utility.yul\":3281:3300   */\n      mstore\n        /* \"#utility.yul\":3333:3337   */\n      0x20\n        /* \"#utility.yul\":3328:3331   */\n      dup3\n        /* \"#utility.yul\":3324:3338   */\n      add\n        /* \"#utility.yul\":3309:3338   */\n      swap1\n      pop\n        /* \"#utility.yul\":3175:3344   */\n      swap3\n      swap2\n      pop\n      pop\n      jump\t// out\n        /* \"#utility.yul\":3350:3489   */\n    tag_119:\n        /* \"#utility.yul\":3439:3445   */\n      dup3\n        /* \"#utility.yul\":3434:3437   */\n      dup2\n        /* \"#utility.yul\":3429:3432   */\n      dup4\n        /* \"#utility.yul\":3423:3446   */\n      mcopy\n        /* \"#utility.yul\":3480:3481   */\n      0x00\n        /* \"#utility.yul\":3471:3477   */\n      dup4\n        /* \"#utility.yul\":3466:3469   */\n      dup4\n        /* \"#utility.yul\":3462:3478   */\n      add\n        /* \"#utility.yul\":3455:3482   */\n      mstore\n        /* \"#utility.yul\":3350:3489   */\n      pop\n      pop\n      pop\n      jump\t// out\n        /* \"#utility.yul\":3495:3872   */\n    tag_120:\n        /* \"#utility.yul\":3583:3586   */\n      0x00\n        /* \"#utility.yul\":3611:3650   */\n      tag_187\n        /* \"#utility.yul\":3644:3649   */\n      dup3\n        /* \"#utility.yul\":3611:3650   */\n      tag_117\n      jump\t// in\n    tag_187:\n        /* \"#utility.yul\":3666:3737   */\n      tag_188\n        /* \"#utility.yul\":3730:3736   */\n      dup2\n        /* \"#utility.yul\":3725:3728   */\n      dup6\n        /* \"#utility.yul\":3666:3737   */\n      tag_118\n      jump\t// in\n    tag_188:\n        /* \"#utility.yul\":3659:3737   */\n      swap4\n      pop\n        /* \"#utility.yul\":3746:3811   */\n      tag_189\n        /* \"#utility.yul\":3804:3810   */\n      dup2\n        /* \"#utility.yul\":3799:3802   */\n      dup6\n        /* \"#utility.yul\":3792:3796   */\n      0x20\n        /* \"#utility.yul\":3785:3790   */\n      dup7\n        /* \"#utility.yul\":3781:3797   */\n      add\n        /* \"#utility.yul\":3746:3811   */\n      tag_119\n      jump\t// in\n    tag_189:\n        /* \"#utility.yul\":3836:3865   */\n      tag_190\n        /* \"#utility.yul\":3858:3864   */\n      dup2\n        /* \"#utility.yul\":3836:3865   */\n      tag_109\n      jump\t// in\n    tag_190:\n        /* \"#utility.yul\":3831:3834   */\n      dup5\n        /* \"#utility.yul\":3827:3866   */\n      add\n        /* \"#utility.yul\":3820:3866   */\n      swap2\n      pop\n        /* \"#utility.yul\":3587:3872   */\n      pop\n        /* \"#utility.yul\":3495:3872   */\n      swap3\n      swap2\n      pop\n      pop\n      jump\t// out\n        /* \"#utility.yul\":3878:3955   */\n    tag_121:\n        /* \"#utility.yul\":3915:3922   */\n      0x00\n        /* \"#utility.yul\":3944:3949   */\n      dup2\n        /* \"#utility.yul\":3933:3949   */\n      swap1\n      pop\n        /* \"#utility.yul\":3878:3955   */\n      swap2\n      swap1\n      pop\n      jump\t// out\n        /* \"#utility.yul\":3961:4079   */\n    tag_122:\n        /* \"#utility.yul\":4048:4072   */\n      tag_193\n        /* \"#utility.yul\":4066:4071   */\n      dup2\n        /* \"#utility.yul\":4048:4072   */\n      tag_121\n      jump\t// in\n    tag_193:\n        /* \"#utility.yul\":4043:4046   */\n      dup3\n        /* \"#utility.yul\":4036:4073   */\n      mstore\n        /* \"#utility.yul\":3961:4079   */\n      pop\n      pop\n      jump\t// out\n        /* \"#utility.yul\":4085:5517   */\n    tag_11:\n        /* \"#utility.yul\":4466:4470   */\n      0x00\n        /* \"#utility.yul\":4504:4507   */\n      0xe0\n        /* \"#utility.yul\":4493:4502   */\n      dup3\n        /* \"#utility.yul\":4489:4508   */\n      add\n        /* \"#utility.yul\":4481:4508   */\n      swap1\n      pop\n        /* \"#utility.yul\":4554:4563   */\n      dup2\n        /* \"#utility.yul\":4548:4552   */\n      dup2\n        /* \"#utility.yul\":4544:4564   */\n      sub\n        /* \"#utility.yul\":4540:4541   */\n      0x00\n        /* \"#utility.yul\":4529:4538   */\n      dup4\n        /* \"#utility.yul\":4525:4542   */\n      add\n        /* \"#utility.yul\":4518:4565   */\n      mstore\n        /* \"#utility.yul\":4582:4660   */\n      tag_195\n        /* \"#utility.yul\":4655:4659   */\n      dup2\n        /* \"#utility.yul\":4646:4652   */\n      dup11\n        /* \"#utility.yul\":4582:4660   */\n      tag_120\n      jump\t// in\n    tag_195:\n        /* \"#utility.yul\":4574:4660   */\n      swap1\n      pop\n        /* \"#utility.yul\":4707:4716   */\n      dup2\n        /* \"#utility.yul\":4701:4705   */\n      dup2\n        /* \"#utility.yul\":4697:4717   */\n      sub\n        /* \"#utility.yul\":4692:4694   */\n      0x20\n        /* \"#utility.yul\":4681:4690   */\n      dup4\n        /* \"#utility.yul\":4677:4695   */\n      add\n        /* \"#utility.yul\":4670:4718   */\n      mstore\n        /* \"#utility.yul\":4735:4813   */\n      tag_196\n        /* \"#utility.yul\":4808:4812   */\n      dup2\n        /* \"#utility.yul\":4799:4805   */\n      dup10\n        /* \"#utility.yul\":4735:4813   */\n      tag_120\n      jump\t// in\n    tag_196:\n        /* \"#utility.yul\":4727:4813   */\n      swap1\n      pop\n        /* \"#utility.yul\":4860:4869   */\n      dup2\n        /* \"#utility.yul\":4854:4858   */\n      dup2\n        /* \"#utility.yul\":4850:4870   */\n      sub\n        /* \"#utility.yul\":4845:4847   */\n      0x40\n        /* \"#utility.yul\":4834:4843   */\n      dup4\n        /* \"#utility.yul\":4830:4848   */\n      add\n        /* \"#utility.yul\":4823:4871   */\n      mstore\n        /* \"#utility.yul\":4888:4966   */\n      tag_197\n        /* \"#utility.yul\":4961:4965   */\n      dup2\n        /* \"#utility.yul\":4952:4958   */\n      dup9\n        /* \"#utility.yul\":4888:4966   */\n      tag_120\n      jump\t// in\n    tag_197:\n        /* \"#utility.yul\":4880:4966   */\n      swap1\n      pop\n        /* \"#utility.yul\":5013:5022   */\n      dup2\n        /* \"#utility.yul\":5007:5011   */\n      dup2\n        /* \"#utility.yul\":5003:5023   */\n      sub\n        /* \"#utility.yul\":4998:5000   */\n      0x60\n        /* \"#utility.yul\":4987:4996   */\n      dup4\n        /* \"#utility.yul\":4983:5001   */\n      add\n        /* \"#utility.yul\":4976:5024   */\n      mstore\n        /* \"#utility.yul\":5041:5119   */\n      tag_198\n        /* \"#utility.yul\":5114:5118   */\n      dup2\n        /* \"#utility.yul\":5105:5111   */\n      dup8\n        /* \"#utility.yul\":5041:5119   */\n      tag_120\n      jump\t// in\n    tag_198:\n        /* \"#utility.yul\":5033:5119   */\n      swap1\n      pop\n        /* \"#utility.yul\":5167:5176   */\n      dup2\n        /* \"#utility.yul\":5161:5165   */\n      dup2\n        /* \"#utility.yul\":5157:5177   */\n      sub\n        /* \"#utility.yul\":5151:5154   */\n      0x80\n        /* \"#utility.yul\":5140:5149   */\n      dup4\n        /* \"#utility.yul\":5136:5155   */\n      add\n        /* \"#utility.yul\":5129:5178   */\n      mstore\n        /* \"#utility.yul\":5195:5273   */\n      tag_199\n        /* \"#utility.yul\":5268:5272   */\n      dup2\n        /* \"#utility.yul\":5259:5265   */\n      dup7\n        /* \"#utility.yul\":5195:5273   */\n      tag_120\n      jump\t// in\n    tag_199:\n        /* \"#utility.yul\":5187:5273   */\n      swap1\n      pop\n        /* \"#utility.yul\":5321:5330   */\n      dup2\n        /* \"#utility.yul\":5315:5319   */\n      dup2\n        /* \"#utility.yul\":5311:5331   */\n      sub\n        /* \"#utility.yul\":5305:5308   */\n      0xa0\n        /* \"#utility.yul\":5294:5303   */\n      dup4\n        /* \"#utility.yul\":5290:5309   */\n      add\n        /* \"#utility.yul\":5283:5332   */\n      mstore\n        /* \"#utility.yul\":5349:5427   */\n      tag_200\n        /* \"#utility.yul\":5422:5426   */\n      dup2\n        /* \"#utility.yul\":5413:5419   */\n      dup6\n        /* \"#utility.yul\":5349:5427   */\n      tag_120\n      jump\t// in\n    tag_200:\n        /* \"#utility.yul\":5341:5427   */\n      swap1\n      pop\n        /* \"#utility.yul\":5437:5510   */\n      tag_201\n        /* \"#utility.yul\":5505:5508   */\n      0xc0\n        /* \"#utility.yul\":5494:5503   */\n      dup4\n        /* \"#utility.yul\":5490:5509   */\n      add\n        /* \"#utility.yul\":5481:5487   */\n      dup5\n        /* \"#utility.yul\":5437:5510   */\n      tag_122\n      jump\t// in\n    tag_201:\n        /* \"#utility.yul\":4085:5517   */\n      swap9\n      swap8\n      pop\n      pop\n      pop\n      pop\n      pop\n      pop\n      pop\n      pop\n      jump\t// out\n        /* \"#utility.yul\":5523:5600   */\n    tag_123:\n        /* \"#utility.yul\":5560:5567   */\n      0x00\n        /* \"#utility.yul\":5589:5594   */\n      dup2\n        /* \"#utility.yul\":5578:5594   */\n      swap1\n      pop\n        /* \"#utility.yul\":5523:5600   */\n      swap2\n      swap1\n      pop\n      jump\t// out\n        /* \"#utility.yul\":5606:5724   */\n    tag_124:\n        /* \"#utility.yul\":5693:5717   */\n      tag_204\n        /* \"#utility.yul\":5711:5716   */\n      dup2\n        /* \"#utility.yul\":5693:5717   */\n      tag_123\n      jump\t// in\n    tag_204:\n        /* \"#utility.yul\":5688:5691   */\n      dup3\n        /* \"#utility.yul\":5681:5718   */\n      mstore\n        /* \"#utility.yul\":5606:5724   */\n      pop\n      pop\n      jump\t// out\n        /* \"#utility.yul\":5730:5952   */\n    tag_16:\n        /* \"#utility.yul\":5823:5827   */\n      0x00\n        /* \"#utility.yul\":5861:5863   */\n      0x20\n        /* \"#utility.yul\":5850:5859   */\n      dup3\n        /* \"#utility.yul\":5846:5864   */\n      add\n        /* \"#utility.yul\":5838:5864   */\n      swap1\n      pop\n        /* \"#utility.yul\":5874:5945   */\n      tag_206\n        /* \"#utility.yul\":5942:5943   */\n      0x00\n        /* \"#utility.yul\":5931:5940   */\n      dup4\n        /* \"#utility.yul\":5927:5944   */\n      add\n        /* \"#utility.yul\":5918:5924   */\n      dup5\n        /* \"#utility.yul\":5874:5945   */\n      tag_124\n      jump\t// in\n    tag_206:\n        /* \"#utility.yul\":5730:5952   */\n      swap3\n      swap2\n      pop\n      pop\n      jump\t// out\n        /* \"#utility.yul\":5958:8095   */\n    tag_19:\n        /* \"#utility.yul\":6122:6128   */\n      0x00\n        /* \"#utility.yul\":6130:6136   */\n      dup1\n        /* \"#utility.yul\":6138:6144   */\n      0x00\n        /* \"#utility.yul\":6146:6152   */\n      dup1\n        /* \"#utility.yul\":6154:6160   */\n      0x00\n        /* \"#utility.yul\":6162:6168   */\n      dup1\n        /* \"#utility.yul\":6211:6214   */\n      0xc0\n        /* \"#utility.yul\":6199:6208   */\n      dup8\n        /* \"#utility.yul\":6190:6197   */\n      dup10\n        /* \"#utility.yul\":6186:6209   */\n      sub\n        /* \"#utility.yul\":6182:6215   */\n      slt\n        /* \"#utility.yul\":6179:6299   */\n      iszero\n      tag_208\n      jumpi\n        /* \"#utility.yul\":6218:6297   */\n      tag_209\n      tag_105\n      jump\t// in\n    tag_209:\n        /* \"#utility.yul\":6179:6299   */\n    tag_208:\n        /* \"#utility.yul\":6366:6367   */\n      0x00\n        /* \"#utility.yul\":6355:6364   */\n      dup8\n        /* \"#utility.yul\":6351:6368   */\n      add\n        /* \"#utility.yul\":6338:6369   */\n      calldataload\n        /* \"#utility.yul\":6396:6414   */\n      0xffffffffffffffff\n        /* \"#utility.yul\":6388:6394   */\n      dup2\n        /* \"#utility.yul\":6385:6415   */\n      gt\n        /* \"#utility.yul\":6382:6499   */\n      iszero\n      tag_210\n      jumpi\n        /* \"#utility.yul\":6418:6497   */\n      tag_211\n      tag_106\n      jump\t// in\n    tag_211:\n        /* \"#utility.yul\":6382:6499   */\n    tag_210:\n        /* \"#utility.yul\":6523:6586   */\n      tag_212\n        /* \"#utility.yul\":6578:6585   */\n      dup10\n        /* \"#utility.yul\":6569:6575   */\n      dup3\n        /* \"#utility.yul\":6558:6567   */\n      dup11\n        /* \"#utility.yul\":6554:6576   */\n      add\n        /* \"#utility.yul\":6523:6586   */\n      tag_116\n      jump\t// in\n    tag_212:\n        /* \"#utility.yul\":6513:6586   */\n      swap7\n      pop\n        /* \"#utility.yul\":6309:6596   */\n      pop\n        /* \"#utility.yul\":6663:6665   */\n      0x20\n        /* \"#utility.yul\":6652:6661   */\n      dup8\n        /* \"#utility.yul\":6648:6666   */\n      add\n        /* \"#utility.yul\":6635:6667   */\n      calldataload\n        /* \"#utility.yul\":6694:6712   */\n      0xffffffffffffffff\n        /* \"#utility.yul\":6686:6692   */\n      dup2\n        /* \"#utility.yul\":6683:6713   */\n      gt\n        /* \"#utility.yul\":6680:6797   */\n      iszero\n      tag_213\n      jumpi\n        /* \"#utility.yul\":6716:6795   */\n      tag_214\n      tag_106\n      jump\t// in\n    tag_214:\n        /* \"#utility.yul\":6680:6797   */\n    tag_213:\n        /* \"#utility.yul\":6821:6884   */\n      tag_215\n        /* \"#utility.yul\":6876:6883   */\n      dup10\n        /* \"#utility.yul\":6867:6873   */\n      dup3\n        /* \"#utility.yul\":6856:6865   */\n      dup11\n        /* \"#utility.yul\":6852:6874   */\n      add\n        /* \"#utility.yul\":6821:6884   */\n      tag_116\n      jump\t// in\n    tag_215:\n        /* \"#utility.yul\":6811:6884   */\n      swap6\n      pop\n        /* \"#utility.yul\":6606:6894   */\n      pop\n        /* \"#utility.yul\":6961:6963   */\n      0x40\n        /* \"#utility.yul\":6950:6959   */\n      dup8\n        /* \"#utility.yul\":6946:6964   */\n      add\n        /* \"#utility.yul\":6933:6965   */\n      calldataload\n        /* \"#utility.yul\":6992:7010   */\n      0xffffffffffffffff\n        /* \"#utility.yul\":6984:6990   */\n      dup2\n        /* \"#utility.yul\":6981:7011   */\n      gt\n        /* \"#utility.yul\":6978:7095   */\n      iszero\n      tag_216\n      jumpi\n        /* \"#utility.yul\":7014:7093   */\n      tag_217\n      tag_106\n      jump\t// in\n    tag_217:\n        /* \"#utility.yul\":6978:7095   */\n    tag_216:\n        /* \"#utility.yul\":7119:7182   */\n      tag_218\n        /* \"#utility.yul\":7174:7181   */\n      dup10\n        /* \"#utility.yul\":7165:7171   */\n      dup3\n        /* \"#utility.yul\":7154:7163   */\n      dup11\n        /* \"#utility.yul\":7150:7172   */\n      add\n        /* \"#utility.yul\":7119:7182   */\n      tag_116\n      jump\t// in\n    tag_218:\n        /* \"#utility.yul\":7109:7182   */\n      swap5\n      pop\n        /* \"#utility.yul\":6904:7192   */\n      pop\n        /* \"#utility.yul\":7259:7261   */\n      0x60\n        /* \"#utility.yul\":7248:7257   */\n      dup8\n        /* \"#utility.yul\":7244:7262   */\n      add\n        /* \"#utility.yul\":7231:7263   */\n      calldataload\n        /* \"#utility.yul\":7290:7308   */\n      0xffffffffffffffff\n        /* \"#utility.yul\":7282:7288   */\n      dup2\n        /* \"#utility.yul\":7279:7309   */\n      gt\n        /* \"#utility.yul\":7276:7393   */\n      iszero\n      tag_219\n      jumpi\n        /* \"#utility.yul\":7312:7391   */\n      tag_220\n      tag_106\n      jump\t// in\n    tag_220:\n        /* \"#utility.yul\":7276:7393   */\n    tag_219:\n        /* \"#utility.yul\":7417:7480   */\n      tag_221\n        /* \"#utility.yul\":7472:7479   */\n      dup10\n        /* \"#utility.yul\":7463:7469   */\n      dup3\n        /* \"#utility.yul\":7452:7461   */\n      dup11\n        /* \"#utility.yul\":7448:7470   */\n      add\n        /* \"#utility.yul\":7417:7480   */\n      tag_116\n      jump\t// in\n    tag_221:\n        /* \"#utility.yul\":7407:7480   */\n      swap4\n      pop\n        /* \"#utility.yul\":7202:7490   */\n      pop\n        /* \"#utility.yul\":7557:7560   */\n      0x80\n        /* \"#utility.yul\":7546:7555   */\n      dup8\n        /* \"#utility.yul\":7542:7561   */\n      add\n        /* \"#utility.yul\":7529:7562   */\n      calldataload\n        /* \"#utility.yul\":7589:7607   */\n      0xffffffffffffffff\n        /* \"#utility.yul\":7581:7587   */\n      dup2\n        /* \"#utility.yul\":7578:7608   */\n      gt\n        /* \"#utility.yul\":7575:7692   */\n      iszero\n      tag_222\n      jumpi\n        /* \"#utility.yul\":7611:7690   */\n      tag_223\n      tag_106\n      jump\t// in\n    tag_223:\n        /* \"#utility.yul\":7575:7692   */\n    tag_222:\n        /* \"#utility.yul\":7716:7779   */\n      tag_224\n        /* \"#utility.yul\":7771:7778   */\n      dup10\n        /* \"#utility.yul\":7762:7768   */\n      dup3\n        /* \"#utility.yul\":7751:7760   */\n      dup11\n        /* \"#utility.yul\":7747:7769   */\n      add\n        /* \"#utility.yul\":7716:7779   */\n      tag_116\n      jump\t// in\n    tag_224:\n        /* \"#utility.yul\":7706:7779   */\n      swap3\n      pop\n        /* \"#utility.yul\":7500:7789   */\n      pop\n        /* \"#utility.yul\":7856:7859   */\n      0xa0\n        /* \"#utility.yul\":7845:7854   */\n      dup8\n        /* \"#utility.yul\":7841:7860   */\n      add\n        /* \"#utility.yul\":7828:7861   */\n      calldataload\n        /* \"#utility.yul\":7888:7906   */\n      0xffffffffffffffff\n        /* \"#utility.yul\":7880:7886   */\n      dup2\n        /* \"#utility.yul\":7877:7907   */\n      gt\n        /* \"#utility.yul\":7874:7991   */\n      iszero\n      tag_225\n      jumpi\n        /* \"#utility.yul\":7910:7989   */\n      tag_226\n      tag_106\n      jump\t// in\n    tag_226:\n        /* \"#utility.yul\":7874:7991   */\n    tag_225:\n        /* \"#utility.yul\":8015:8078   */\n      tag_227\n        /* \"#utility.yul\":8070:8077   */\n      dup10\n        /* \"#utility.yul\":8061:8067   */\n      dup3\n        /* \"#utility.yul\":8050:8059   */\n      dup11\n        /* \"#utility.yul\":8046:8068   */\n      add\n        /* \"#utility.yul\":8015:8078   */\n      tag_116\n      jump\t// in\n    tag_227:\n        /* \"#utility.yul\":8005:8078   */\n      swap2\n      pop\n        /* \"#utility.yul\":7799:8088   */\n      pop\n        /* \"#utility.yul\":5958:8095   */\n      swap3\n      swap6\n      pop\n      swap3\n      swap6\n      pop\n      swap3\n      swap6\n      jump\t// out\n        /* \"#utility.yul\":8101:8281   */\n    tag_125:\n        /* \"#utility.yul\":8149:8226   */\n      0x4e487b7100000000000000000000000000000000000000000000000000000000\n        /* \"#utility.yul\":8146:8147   */\n      0x00\n        /* \"#utility.yul\":8139:8227   */\n      mstore\n        /* \"#utility.yul\":8246:8250   */\n      0x22\n        /* \"#utility.yul\":8243:8244   */\n      0x04\n        /* \"#utility.yul\":8236:8251   */\n      mstore\n        /* \"#utility.yul\":8270:8274   */\n      0x24\n        /* \"#utility.yul\":8267:8268   */\n      0x00\n        /* \"#utility.yul\":8260:8275   */\n      revert\n        /* \"#utility.yul\":8287:8607   */\n    tag_22:\n        /* \"#utility.yul\":8331:8337   */\n      0x00\n        /* \"#utility.yul\":8368:8369   */\n      0x02\n        /* \"#utility.yul\":8362:8366   */\n      dup3\n        /* \"#utility.yul\":8358:8370   */\n      div\n        /* \"#utility.yul\":8348:8370   */\n      swap1\n      pop\n        /* \"#utility.yul\":8415:8416   */\n      0x01\n        /* \"#utility.yul\":8409:8413   */\n      dup3\n        /* \"#utility.yul\":8405:8417   */\n      and\n        /* \"#utility.yul\":8436:8454   */\n      dup1\n        /* \"#utility.yul\":8426:8507   */\n      tag_230\n      jumpi\n        /* \"#utility.yul\":8492:8496   */\n      0x7f\n        /* \"#utility.yul\":8484:8490   */\n      dup3\n        /* \"#utility.yul\":8480:8497   */\n      and\n        /* \"#utility.yul\":8470:8497   */\n      swap2\n      pop\n        /* \"#utility.yul\":8426:8507   */\n    tag_230:\n        /* \"#utility.yul\":8554:8556   */\n      0x20\n        /* \"#utility.yul\":8546:8552   */\n      dup3\n        /* \"#utility.yul\":8543:8557   */\n      lt\n        /* \"#utility.yul\":8523:8541   */\n      dup2\n        /* \"#utility.yul\":8520:8558   */\n      sub\n        /* \"#utility.yul\":8517:8601   */\n      tag_231\n      jumpi\n        /* \"#utility.yul\":8573:8591   */\n      tag_232\n      tag_125\n      jump\t// in\n    tag_232:\n        /* \"#utility.yul\":8517:8601   */\n    tag_231:\n        /* \"#utility.yul\":8338:8607   */\n      pop\n        /* \"#utility.yul\":8287:8607   */\n      swap2\n      swap1\n      pop\n      jump\t// out\n        /* \"#utility.yul\":8613:8761   */\n    tag_126:\n        /* \"#utility.yul\":8715:8726   */\n      0x00\n        /* \"#utility.yul\":8752:8755   */\n      dup2\n        /* \"#utility.yul\":8737:8755   */\n      swap1\n      pop\n        /* \"#utility.yul\":8613:8761   */\n      swap3\n      swap2\n      pop\n      pop\n      jump\t// out\n        /* \"#utility.yul\":8767:9157   */\n    tag_127:\n        /* \"#utility.yul\":8873:8876   */\n      0x00\n        /* \"#utility.yul\":8901:8940   */\n      tag_235\n        /* \"#utility.yul\":8934:8939   */\n      dup3\n        /* \"#utility.yul\":8901:8940   */\n      tag_117\n      jump\t// in\n    tag_235:\n        /* \"#utility.yul\":8956:9045   */\n      tag_236\n        /* \"#utility.yul\":9038:9044   */\n      dup2\n        /* \"#utility.yul\":9033:9036   */\n      dup6\n        /* \"#utility.yul\":8956:9045   */\n      tag_126\n      jump\t// in\n    tag_236:\n        /* \"#utility.yul\":8949:9045   */\n      swap4\n      pop\n        /* \"#utility.yul\":9054:9119   */\n      tag_237\n        /* \"#utility.yul\":9112:9118   */\n      dup2\n        /* \"#utility.yul\":9107:9110   */\n      dup6\n        /* \"#utility.yul\":9100:9104   */\n      0x20\n        /* \"#utility.yul\":9093:9098   */\n      dup7\n        /* \"#utility.yul\":9089:9105   */\n      add\n        /* \"#utility.yul\":9054:9119   */\n      tag_119\n      jump\t// in\n    tag_237:\n        /* \"#utility.yul\":9144:9150   */\n      dup1\n        /* \"#utility.yul\":9139:9142   */\n      dup5\n        /* \"#utility.yul\":9135:9151   */\n      add\n        /* \"#utility.yul\":9128:9151   */\n      swap2\n      pop\n        /* \"#utility.yul\":8877:9157   */\n      pop\n        /* \"#utility.yul\":8767:9157   */\n      swap3\n      swap2\n      pop\n      pop\n      jump\t// out\n        /* \"#utility.yul\":9163:9438   */\n    tag_54:\n        /* \"#utility.yul\":9295:9298   */\n      0x00\n        /* \"#utility.yul\":9317:9412   */\n      tag_239\n        /* \"#utility.yul\":9408:9411   */\n      dup3\n        /* \"#utility.yul\":9399:9405   */\n      dup5\n        /* \"#utility.yul\":9317:9412   */\n      tag_127\n      jump\t// in\n    tag_239:\n        /* \"#utility.yul\":9310:9412   */\n      swap2\n      pop\n        /* \"#utility.yul\":9429:9432   */\n      dup2\n        /* \"#utility.yul\":9422:9432   */\n      swap1\n      pop\n        /* \"#utility.yul\":9163:9438   */\n      swap3\n      swap2\n      pop\n      pop\n      jump\t// out\n        /* \"#utility.yul\":9444:9523   */\n    tag_128:\n        /* \"#utility.yul\":9483:9490   */\n      0x00\n        /* \"#utility.yul\":9512:9517   */\n      dup2\n        /* \"#utility.yul\":9501:9517   */\n      swap1\n      pop\n        /* \"#utility.yul\":9444:9523   */\n      swap2\n      swap1\n      pop\n      jump\t// out\n        /* \"#utility.yul\":9529:9686   */\n    tag_129:\n        /* \"#utility.yul\":9634:9679   */\n      tag_242\n        /* \"#utility.yul\":9654:9678   */\n      tag_243\n        /* \"#utility.yul\":9672:9677   */\n      dup3\n        /* \"#utility.yul\":9654:9678   */\n      tag_121\n      jump\t// in\n    tag_243:\n        /* \"#utility.yul\":9634:9679   */\n      tag_128\n      jump\t// in\n    tag_242:\n        /* \"#utility.yul\":9629:9632   */\n      dup3\n        /* \"#utility.yul\":9622:9680   */\n      mstore\n        /* \"#utility.yul\":9529:9686   */\n      pop\n      pop\n      jump\t// out\n        /* \"#utility.yul\":9692:10908   */\n    tag_86:\n        /* \"#utility.yul\":10092:10095   */\n      0x00\n        /* \"#utility.yul\":10114:10209   */\n      tag_245\n        /* \"#utility.yul\":10205:10208   */\n      dup3\n        /* \"#utility.yul\":10196:10202   */\n      dup11\n        /* \"#utility.yul\":10114:10209   */\n      tag_127\n      jump\t// in\n    tag_245:\n        /* \"#utility.yul\":10107:10209   */\n      swap2\n      pop\n        /* \"#utility.yul\":10226:10321   */\n      tag_246\n        /* \"#utility.yul\":10317:10320   */\n      dup3\n        /* \"#utility.yul\":10308:10314   */\n      dup10\n        /* \"#utility.yul\":10226:10321   */\n      tag_127\n      jump\t// in\n    tag_246:\n        /* \"#utility.yul\":10219:10321   */\n      swap2\n      pop\n        /* \"#utility.yul\":10338:10433   */\n      tag_247\n        /* \"#utility.yul\":10429:10432   */\n      dup3\n        /* \"#utility.yul\":10420:10426   */\n      dup9\n        /* \"#utility.yul\":10338:10433   */\n      tag_127\n      jump\t// in\n    tag_247:\n        /* \"#utility.yul\":10331:10433   */\n      swap2\n      pop\n        /* \"#utility.yul\":10450:10545   */\n      tag_248\n        /* \"#utility.yul\":10541:10544   */\n      dup3\n        /* \"#utility.yul\":10532:10538   */\n      dup8\n        /* \"#utility.yul\":10450:10545   */\n      tag_127\n      jump\t// in\n    tag_248:\n        /* \"#utility.yul\":10443:10545   */\n      swap2\n      pop\n        /* \"#utility.yul\":10562:10657   */\n      tag_249\n        /* \"#utility.yul\":10653:10656   */\n      dup3\n        /* \"#utility.yul\":10644:10650   */\n      dup7\n        /* \"#utility.yul\":10562:10657   */\n      tag_127\n      jump\t// in\n    tag_249:\n        /* \"#utility.yul\":10555:10657   */\n      swap2\n      pop\n        /* \"#utility.yul\":10674:10769   */\n      tag_250\n        /* \"#utility.yul\":10765:10768   */\n      dup3\n        /* \"#utility.yul\":10756:10762   */\n      dup6\n        /* \"#utility.yul\":10674:10769   */\n      tag_127\n      jump\t// in\n    tag_250:\n        /* \"#utility.yul\":10667:10769   */\n      swap2\n      pop\n        /* \"#utility.yul\":10779:10854   */\n      tag_251\n        /* \"#utility.yul\":10850:10853   */\n      dup3\n        /* \"#utility.yul\":10841:10847   */\n      dup5\n        /* \"#utility.yul\":10779:10854   */\n      tag_129\n      jump\t// in\n    tag_251:\n        /* \"#utility.yul\":10879:10881   */\n      0x20\n        /* \"#utility.yul\":10874:10877   */\n      dup3\n        /* \"#utility.yul\":10870:10882   */\n      add\n        /* \"#utility.yul\":10863:10882   */\n      swap2\n      pop\n        /* \"#utility.yul\":10899:10902   */\n      dup2\n        /* \"#utility.yul\":10892:10902   */\n      swap1\n      pop\n        /* \"#utility.yul\":9692:10908   */\n      swap9\n      swap8\n      pop\n      pop\n      pop\n      pop\n      pop\n      pop\n      pop\n      pop\n      jump\t// out\n        /* \"#utility.yul\":10914:11088   */\n    tag_130:\n        /* \"#utility.yul\":11054:11080   */\n      0x426174636820616c726561647920726567697374657265640000000000000000\n        /* \"#utility.yul\":11050:11051   */\n      0x00\n        /* \"#utility.yul\":11042:11048   */\n      dup3\n        /* \"#utility.yul\":11038:11052   */\n      add\n        /* \"#utility.yul\":11031:11081   */\n      mstore\n        /* \"#utility.yul\":10914:11088   */\n      pop\n      jump\t// out\n        /* \"#utility.yul\":11094:11460   */\n    tag_131:\n        /* \"#utility.yul\":11236:11239   */\n      0x00\n        /* \"#utility.yul\":11257:11324   */\n      tag_254\n        /* \"#utility.yul\":11321:11323   */\n      0x18\n        /* \"#utility.yul\":11316:11319   */\n      dup4\n        /* \"#utility.yul\":11257:11324   */\n      tag_118\n      jump\t// in\n    tag_254:\n        /* \"#utility.yul\":11250:11324   */\n      swap2\n      pop\n        /* \"#utility.yul\":11333:11426   */\n      tag_255\n        /* \"#utility.yul\":11422:11425   */\n      dup3\n        /* \"#utility.yul\":11333:11426   */\n      tag_130\n      jump\t// in\n    tag_255:\n        /* \"#utility.yul\":11451:11453   */\n      0x20\n        /* \"#utility.yul\":11446:11449   */\n      dup3\n        /* \"#utility.yul\":11442:11454   */\n      add\n        /* \"#utility.yul\":11435:11454   */\n      swap1\n      pop\n        /* \"#utility.yul\":11094:11460   */\n      swap2\n      swap1\n      pop\n      jump\t// out\n        /* \"#utility.yul\":11466:11885   */\n    tag_92:\n        /* \"#utility.yul\":11632:11636   */\n      0x00\n        /* \"#utility.yul\":11670:11672   */\n      0x20\n        /* \"#utility.yul\":11659:11668   */\n      dup3\n        /* \"#utility.yul\":11655:11673   */\n      add\n        /* \"#utility.yul\":11647:11673   */\n      swap1\n      pop\n        /* \"#utility.yul\":11719:11728   */\n      dup2\n        /* \"#utility.yul\":11713:11717   */\n      dup2\n        /* \"#utility.yul\":11709:11729   */\n      sub\n        /* \"#utility.yul\":11705:11706   */\n      0x00\n        /* \"#utility.yul\":11694:11703   */\n      dup4\n        /* \"#utility.yul\":11690:11707   */\n      add\n        /* \"#utility.yul\":11683:11730   */\n      mstore\n        /* \"#utility.yul\":11747:11878   */\n      tag_257\n        /* \"#utility.yul\":11873:11877   */\n      dup2\n        /* \"#utility.yul\":11747:11878   */\n      tag_131\n      jump\t// in\n    tag_257:\n        /* \"#utility.yul\":11739:11878   */\n      swap1\n      pop\n        /* \"#utility.yul\":11466:11885   */\n      swap2\n      swap1\n      pop\n      jump\t// out\n        /* \"#utility.yul\":11891:12032   */\n    tag_132:\n        /* \"#utility.yul\":11940:11944   */\n      0x00\n        /* \"#utility.yul\":11963:11966   */\n      dup2\n        /* \"#utility.yul\":11955:11966   */\n      swap1\n      pop\n        /* \"#utility.yul\":11986:11989   */\n      dup2\n        /* \"#utility.yul\":11983:11984   */\n      0x00\n        /* \"#utility.yul\":11976:11990   */\n      mstore\n        /* \"#utility.yul\":12020:12024   */\n      0x20\n        /* \"#utility.yul\":12017:12018   */\n      0x00\n        /* \"#utility.yul\":12007:12025   */\n      keccak256\n        /* \"#utility.yul\":11999:12025   */\n      swap1\n      pop\n        /* \"#utility.yul\":11891:12032   */\n      swap2\n      swap1\n      pop\n      jump\t// out\n        /* \"#utility.yul\":12038:12131   */\n    tag_133:\n        /* \"#utility.yul\":12075:12081   */\n      0x00\n        /* \"#utility.yul\":12122:12124   */\n      0x20\n        /* \"#utility.yul\":12117:12119   */\n      0x1f\n        /* \"#utility.yul\":12110:12115   */\n      dup4\n        /* \"#utility.yul\":12106:12120   */\n      add\n        /* \"#utility.yul\":12102:12125   */\n      div\n        /* \"#utility.yul\":12092:12125   */\n      swap1\n      pop\n        /* \"#utility.yul\":12038:12131   */\n      swap2\n      swap1\n      pop\n      jump\t// out\n        /* \"#utility.yul\":12137:12244   */\n    tag_134:\n        /* \"#utility.yul\":12181:12189   */\n      0x00\n        /* \"#utility.yul\":12231:12236   */\n      dup3\n        /* \"#utility.yul\":12225:12229   */\n      dup3\n        /* \"#utility.yul\":12221:12237   */\n      shl\n        /* \"#utility.yul\":12200:12237   */\n      swap1\n      pop\n        /* \"#utility.yul\":12137:12244   */\n      swap3\n      swap2\n      pop\n      pop\n      jump\t// out\n        /* \"#utility.yul\":12250:12643   */\n    tag_135:\n        /* \"#utility.yul\":12319:12325   */\n      0x00\n        /* \"#utility.yul\":12369:12370   */\n      0x08\n        /* \"#utility.yul\":12357:12367   */\n      dup4\n        /* \"#utility.yul\":12353:12371   */\n      mul\n        /* \"#utility.yul\":12392:12489   */\n      tag_262\n        /* \"#utility.yul\":12422:12488   */\n      0xffffffffffffffffffffffffffffffffffffffffffffffffffffffffffffffff\n        /* \"#utility.yul\":12411:12420   */\n      dup3\n        /* \"#utility.yul\":12392:12489   */\n      tag_134\n      jump\t// in\n    tag_262:\n        /* \"#utility.yul\":12510:12549   */\n      tag_263\n        /* \"#utility.yul\":12540:12548   */\n      dup7\n        /* \"#utility.yul\":12529:12538   */\n      dup4\n        /* \"#utility.yul\":12510:12549   */\n      tag_134\n      jump\t// in\n    tag_263:\n        /* \"#utility.yul\":12498:12549   */\n      swap6\n      pop\n        /* \"#utility.yul\":12582:12586   */\n      dup1\n        /* \"#utility.yul\":12578:12587   */\n      not\n        /* \"#utility.yul\":12571:12576   */\n      dup5\n        /* \"#utility.yul\":12567:12588   */\n      and\n        /* \"#utility.yul\":12558:12588   */\n      swap4\n      pop\n        /* \"#utility.yul\":12631:12635   */\n      dup1\n        /* \"#utility.yul\":12621:12629   */\n      dup7\n        /* \"#utility.yul\":12617:12636   */\n      and\n        /* \"#utility.yul\":12610:12615   */\n      dup5\n        /* \"#utility.yul\":12607:12637   */\n      or\n        /* \"#utility.yul\":12597:12637   */\n      swap3\n      pop\n        /* \"#utility.yul\":12326:12643   */\n      pop\n      pop\n        /* \"#utility.yul\":12250:12643   */\n      swap4\n      swap3\n      pop\n      pop\n      pop\n      jump\t// out\n        /* \"#utility.yul\":12649:12709   */\n    tag_136:\n        /* \"#utility.yul\":12677:12680   */\n      0x00\n        /* \"#utility.yul\":12698:12703   */\n      dup2\n        /* \"#utility.yul\":12691:12703   */\n      swap1\n      pop\n        /* \"#utility.yul\":12649:12709   */\n      swap2\n      swap1\n      pop\n      jump\t// out\n        /* \"#utility.yul\":12715:12857   */\n    tag_137:\n        /* \"#utility.yul\":12765:12774   */\n      0x00\n        /* \"#utility.yul\":12798:12851   */\n      tag_266\n        /* \"#utility.yul\":12816:12850   */\n      tag_267\n        /* \"#utility.yul\":12825:12849   */\n      tag_268\n        /* \"#utility.yul\":12843:12848   */\n      dup5\n        /* \"#utility.yul\":12825:12849   */\n      tag_121\n      jump\t// in\n    tag_268:\n        /* \"#utility.yul\":12816:12850   */\n      tag_136\n      jump\t// in\n    tag_267:\n        /* \"#utility.yul\":12798:12851   */\n      tag_121\n      jump\t// in\n    tag_266:\n        /* \"#utility.yul\":12785:12851   */\n      swap1\n      pop\n        /* \"#utility.yul\":12715:12857   */\n      swap2\n      swap1\n      pop\n      jump\t// out\n        /* \"#utility.yul\":12863:12938   */\n    tag_138:\n        /* \"#utility.yul\":12906:12909   */\n      0x00\n        /* \"#utility.yul\":12927:12932   */\n      dup2\n        /* \"#utility.yul\":12920:12932   */\n      swap1\n      pop\n        /* \"#utility.yul\":12863:12938   */\n      swap2\n      swap1\n      pop\n      jump\t// out\n        /* \"#utility.yul\":12944:13213   */\n    tag_139:\n        /* \"#utility.yul\":13054:13093   */\n      tag_271\n        /* \"#utility.yul\":13085:13092   */\n      dup4\n        /* \"#utility.yul\":13054:13093   */\n      tag_137\n      jump\t// in\n    tag_271:\n        /* \"#utility.yul\":13115:13206   */\n      tag_272\n        /* \"#utility.yul\":13164:13205   */\n      tag_273\n        /* \"#utility.yul\":13188:13204   */\n      dup3\n        /* \"#utility.yul\":13164:13205   */\n      tag_138\n      jump\t// in\n    tag_273:\n        /* \"#utility.yul\":13156:13162   */\n      dup5\n        /* \"#utility.yul\":13149:13153   */\n      dup5\n        /* \"#utility.yul\":13143:13154   */\n      sload\n        /* \"#utility.yul\":13115:13206   */\n      tag_135\n      jump\t// in\n    tag_272:\n        /* \"#utility.yul\":13109:13113   */\n      dup3\n        /* \"#utility.yul\":13102:13207   */\n      sstore\n        /* \"#utility.yul\":13020:13213   */\n      pop\n        /* \"#utility.yul\":12944:13213   */\n      pop\n      pop\n      pop\n      jump\t// out\n        /* \"#utility.yul\":13219:13292   */\n    tag_140:\n        /* \"#utility.yul\":13264:13267   */\n      0x00\n        /* \"#utility.yul\":13219:13292   */\n      swap1\n      jump\t// out\n        /* \"#utility.yul\":13298:13487   */\n    tag_141:\n        /* \"#utility.yul\":13375:13407   */\n      tag_276\n      tag_140\n      jump\t// in\n    tag_276:\n        /* \"#utility.yul\":13416:13481   */\n      tag_277\n        /* \"#utility.yul\":13474:13480   */\n      dup2\n        /* \"#utility.yul\":13466:13472   */\n      dup5\n        /* \"#utility.yul\":13460:13464   */\n      dup5\n        /* \"#utility.yul\":13416:13481   */\n      tag_139\n      jump\t// in\n    tag_277:\n        /* \"#utility.yul\":13351:13487   */\n      pop\n        /* \"#utility.yul\":13298:13487   */\n      pop\n      pop\n      jump\t// out\n        /* \"#utility.yul\":13493:13679   */\n    tag_142:\n        /* \"#utility.yul\":13553:13673   */\n    tag_279:\n        /* \"#utility.yul\":13570:13573   */\n      dup2\n        /* \"#utility.yul\":13563:13568   */\n      dup2\n        /* \"#utility.yul\":13560:13574   */\n      lt\n        /* \"#utility.yul\":13553:13673   */\n      iszero\n      tag_281\n      jumpi\n        /* \"#utility.yul\":13624:13663   */\n      tag_282\n        /* \"#utility.yul\":13661:13662   */\n      0x00\n        /* \"#utility.yul\":13654:13659   */\n      dup3\n        /* \"#utility.yul\":13624:13663   */\n      tag_141\n      jump\t// in\n    tag_282:\n        /* \"#utility.yul\":13597:13598   */\n      0x01\n        /* \"#utility.yul\":13590:13595   */\n      dup2\n        /* \"#utility.yul\":13586:13599   */\n      add\n        /* \"#utility.yul\":13577:13599   */\n      swap1\n      pop\n        /* \"#utility.yul\":13553:13673   */\n      jump(tag_279)\n    tag_281:\n        /* \"#utility.yul\":13493:13679   */\n      pop\n      pop\n      jump\t// out\n        /* \"#utility.yul\":13685:14228   */\n    tag_143:\n        /* \"#utility.yul\":13786:13788   */\n      0x1f\n        /* \"#utility.yul\":13781:13784   */\n      dup3\n        /* \"#utility.yul\":13778:13789   */\n      gt\n        /* \"#utility.yul\":13775:14221   */\n      iszero\n      tag_284\n      jumpi\n        /* \"#utility.yul\":13820:13858   */\n      tag_285\n        /* \"#utility.yul\":13852:13857   */\n      dup2\n        /* \"#utility.yul\":13820:13858   */\n      tag_132\n      jump\t// in\n    tag_285:\n        /* \"#utility.yul\":13904:13933   */\n      tag_286\n        /* \"#utility.yul\":13922:13932   */\n      dup5\n        /* \"#utility.yul\":13904:13933   */\n      tag_133\n      jump\t// in\n    tag_286:\n        /* \"#utility.yul\":13894:13902   */\n      dup2\n        /* \"#utility.yul\":13890:13934   */\n      add\n        /* \"#utility.yul\":14087:14089   */\n      0x20\n        /* \"#utility.yul\":14075:14085   */\n      dup6\n        /* \"#utility.yul\":14072:14090   */\n      lt\n        /* \"#utility.yul\":14069:14118   */\n      iszero\n      tag_287\n      jumpi\n        /* \"#utility.yul\":14108:14116   */\n      dup2\n        /* \"#utility.yul\":14093:14116   */\n      swap1\n      pop\n        /* \"#utility.yul\":14069:14118   */\n    tag_287:\n        /* \"#utility.yul\":14131:14211   */\n      tag_288\n        /* \"#utility.yul\":14187:14209   */\n      tag_289\n        /* \"#utility.yul\":14205:14208   */\n      dup6\n        /* \"#utility.yul\":14187:14209   */\n      tag_133\n      jump\t// in\n    tag_289:\n        /* \"#utility.yul\":14177:14185   */\n      dup4\n        /* \"#utility.yul\":14173:14210   */\n      add\n        /* \"#utility.yul\":14160:14171   */\n      dup3\n        /* \"#utility.yul\":14131:14211   */\n      tag_142\n      jump\t// in\n    tag_288:\n        /* \"#utility.yul\":13790:14221   */\n      pop\n      pop\n        /* \"#utility.yul\":13775:14221   */\n    tag_284:\n        /* \"#utility.yul\":13685:14228   */\n      pop\n      pop\n      pop\n      jump\t// out\n        /* \"#utility.yul\":14234:14351   */\n    tag_144:\n        /* \"#utility.yul\":14288:14296   */\n      0x00\n        /* \"#utility.yul\":14338:14343   */\n      dup3\n        /* \"#utility.yul\":14332:14336   */\n      dup3\n        /* \"#utility.yul\":14328:14344   */\n      shr\n        /* \"#utility.yul\":14307:14344   */\n      swap1\n      pop\n        /* \"#utility.yul\":14234:14351   */\n      swap3\n      swap2\n      pop\n      pop\n      jump\t// out\n        /* \"#utility.yul\":14357:14526   */\n    tag_145:\n        /* \"#utility.yul\":14401:14407   */\n      0x00\n        /* \"#utility.yul\":14434:14485   */\n      tag_292\n        /* \"#utility.yul\":14482:14483   */\n      0x00\n        /* \"#utility.yul\":14478:14484   */\n      not\n        /* \"#utility.yul\":14470:14475   */\n      dup5\n        /* \"#utility.yul\":14467:14468   */\n      0x08\n        /* \"#utility.yul\":14463:14476   */\n      mul\n        /* \"#utility.yul\":14434:14485   */\n      tag_144\n      jump\t// in\n    tag_292:\n        /* \"#utility.yul\":14430:14486   */\n      not\n        /* \"#utility.yul\":14515:14519   */\n      dup1\n        /* \"#utility.yul\":14509:14513   */\n      dup4\n        /* \"#utility.yul\":14505:14520   */\n      and\n        /* \"#utility.yul\":14495:14520   */\n      swap2\n      pop\n        /* \"#utility.yul\":14408:14526   */\n      pop\n        /* \"#utility.yul\":14357:14526   */\n      swap3\n      swap2\n      pop\n      pop\n      jump\t// out\n        /* \"#utility.yul\":14531:14826   */\n    tag_146:\n        /* \"#utility.yul\":14607:14611   */\n      0x00\n        /* \"#utility.yul\":14753:14782   */\n      tag_294\n        /* \"#utility.yul\":14778:14781   */\n      dup4\n        /* \"#utility.yul\":14772:14776   */\n      dup4\n        /* \"#utility.yul\":14753:14782   */\n      tag_145\n      jump\t// in\n    tag_294:\n        /* \"#utility.yul\":14745:14782   */\n      swap2\n      pop\n        /* \"#utility.yul\":14815:14818   */\n      dup3\n        /* \"#utility.yul\":14812:14813   */\n      0x02\n        /* \"#utility.yul\":14808:14819   */\n      mul\n        /* \"#utility.yul\":14802:14806   */\n      dup3\n        /* \"#utility.yul\":14799:14820   */\n      or\n        /* \"#utility.yul\":14791:14820   */\n      swap1\n      pop\n        /* \"#utility.yul\":14531:14826   */\n      swap3\n      swap2\n      pop\n      pop\n      jump\t// out\n        /* \"#utility.yul\":14831:16226   */\n    tag_95:\n        /* \"#utility.yul\":14948:14985   */\n      tag_296\n        /* \"#utility.yul\":14981:14984   */\n      dup3\n        /* \"#utility.yul\":14948:14985   */\n      tag_117\n      jump\t// in\n    tag_296:\n        /* \"#utility.yul\":15050:15068   */\n      0xffffffffffffffff\n        /* \"#utility.yul\":15042:15048   */\n      dup2\n        /* \"#utility.yul\":15039:15069   */\n      gt\n        /* \"#utility.yul\":15036:15092   */\n      iszero\n      tag_297\n      jumpi\n        /* \"#utility.yul\":15072:15090   */\n      tag_298\n      tag_110\n      jump\t// in\n    tag_298:\n        /* \"#utility.yul\":15036:15092   */\n    tag_297:\n        /* \"#utility.yul\":15116:15154   */\n      tag_299\n        /* \"#utility.yul\":15148:15152   */\n      dup3\n        /* \"#utility.yul\":15142:15153   */\n      sload\n        /* \"#utility.yul\":15116:15154   */\n      tag_22\n      jump\t// in\n    tag_299:\n        /* \"#utility.yul\":15201:15268   */\n      tag_300\n        /* \"#utility.yul\":15261:15267   */\n      dup3\n        /* \"#utility.yul\":15253:15259   */\n      dup3\n        /* \"#utility.yul\":15247:15251   */\n      dup6\n        /* \"#utility.yul\":15201:15268   */\n      tag_143\n      jump\t// in\n    tag_300:\n        /* \"#utility.yul\":15295:15296   */\n      0x00\n        /* \"#utility.yul\":15319:15323   */\n      0x20\n        /* \"#utility.yul\":15306:15323   */\n      swap1\n      pop\n        /* \"#utility.yul\":15351:15353   */\n      0x1f\n        /* \"#utility.yul\":15343:15349   */\n      dup4\n        /* \"#utility.yul\":15340:15354   */\n      gt\n        /* \"#utility.yul\":15368:15369   */\n      0x01\n        /* \"#utility.yul\":15363:15981   */\n      dup2\n      eq\n      tag_302\n      jumpi\n        /* \"#utility.yul\":16025:16026   */\n      0x00\n        /* \"#utility.yul\":16042:16048   */\n      dup5\n        /* \"#utility.yul\":16039:16116   */\n      iszero\n      tag_303\n      jumpi\n        /* \"#utility.yul\":16091:16100   */\n      dup3\n        /* \"#utility.yul\":16086:16089   */\n      dup8\n        /* \"#utility.yul\":16082:16101   */\n      add\n        /* \"#utility.yul\":16076:16102   */\n      mload\n        /* \"#utility.yul\":16067:16102   */\n      swap1\n      pop\n        /* \"#utility.yul\":16039:16116   */\n    tag_303:\n        /* \"#utility.yul\":16142:16209   */\n      tag_304\n        /* \"#utility.yul\":16202:16208   */\n      dup6\n        /* \"#utility.yul\":16195:16200   */\n      dup3\n        /* \"#utility.yul\":16142:16209   */\n      tag_146\n      jump\t// in\n    tag_304:\n        /* \"#utility.yul\":16136:16140   */\n      dup7\n        /* \"#utility.yul\":16129:16210   */\n      sstore\n        /* \"#utility.yul\":15998:16220   */\n      pop\n        /* \"#utility.yul\":15333:16220   */\n      jump(tag_301)\n        /* \"#utility.yul\":15363:15981   */\n    tag_302:\n        /* \"#utility.yul\":15415:15419   */\n      0x1f\n        /* \"#utility.yul\":15411:15420   */\n      not\n        /* \"#utility.yul\":15403:15409   */\n      dup5\n        /* \"#utility.yul\":15399:15421   */\n      and\n        /* \"#utility.yul\":15449:15486   */\n      tag_305\n        /* \"#utility.yul\":15481:15485   */\n      dup7\n        /* \"#utility.yul\":15449:15486   */\n      tag_132\n      jump\t// in\n    tag_305:\n        /* \"#utility.yul\":15508:15509   */\n      0x00\n        /* \"#utility.yul\":15522:15730   */\n    tag_306:\n        /* \"#utility.yul\":15536:15543   */\n      dup3\n        /* \"#utility.yul\":15533:15534   */\n      dup2\n        /* \"#utility.yul\":15530:15544   */\n      lt\n        /* \"#utility.yul\":15522:15730   */\n      iszero\n      tag_308\n      jumpi\n        /* \"#utility.yul\":15615:15624   */\n      dup5\n        /* \"#utility.yul\":15610:15613   */\n      dup10\n        /* \"#utility.yul\":15606:15625   */\n      add\n        /* \"#utility.yul\":15600:15626   */\n      mload\n        /* \"#utility.yul\":15592:15598   */\n      dup3\n        /* \"#utility.yul\":15585:15627   */\n      sstore\n        /* \"#utility.yul\":15666:15667   */\n      0x01\n        /* \"#utility.yul\":15658:15664   */\n      dup3\n        /* \"#utility.yul\":15654:15668   */\n      add\n        /* \"#utility.yul\":15644:15668   */\n      swap2\n      pop\n        /* \"#utility.yul\":15713:15715   */\n      0x20\n        /* \"#utility.yul\":15702:15711   */\n      dup6\n        /* \"#utility.yul\":15698:15716   */\n      add\n        /* \"#utility.yul\":15685:15716   */\n      swap5\n      pop\n        /* \"#utility.yul\":15559:15563   */\n      0x20\n        /* \"#utility.yul\":15556:15557   */\n      dup2\n        /* \"#utility.yul\":15552:15564   */\n      add\n        /* \"#utility.yul\":15547:15564   */\n      swap1\n      pop\n        /* \"#utility.yul\":15522:15730   */\n      jump(tag_306)\n    tag_308:\n        /* \"#utility.yul\":15758:15764   */\n      dup7\n        /* \"#utility.yul\":15749:15756   */\n      dup4\n        /* \"#utility.yul\":15746:15765   */\n      lt\n        /* \"#utility.yul\":15743:15922   */\n      iszero\n      tag_309\n      jumpi\n        /* \"#utility.yul\":15816:15825   */\n      dup5\n        /* \"#utility.yul\":15811:15814   */\n      dup10\n        /* \"#utility.yul\":15807:15826   */\n      add\n        /* \"#utility.yul\":15801:15827   */\n      mload\n        /* \"#utility.yul\":15859:15907   */\n      tag_310\n        /* \"#utility.yul\":15901:15905   */\n      0x1f\n        /* \"#utility.yul\":15893:15899   */\n      dup10\n        /* \"#utility.yul\":15889:15906   */\n      and\n        /* \"#utility.yul\":15878:15887   */\n      dup3\n        /* \"#utility.yul\":15859:15907   */\n      tag_145\n      jump\t// in\n    tag_310:\n        /* \"#utility.yul\":15851:15857   */\n      dup4\n        /* \"#utility.yul\":15844:15908   */\n      sstore\n        /* \"#utility.yul\":15766:15922   */\n      pop\n        /* \"#utility.yul\":15743:15922   */\n    tag_309:\n        /* \"#utility.yul\":15968:15969   */\n      0x01\n        /* \"#utility.yul\":15964:15965   */\n      0x02\n        /* \"#utility.yul\":15956:15962   */\n      dup9\n        /* \"#utility.yul\":15952:15966   */\n      mul\n        /* \"#utility.yul\":15948:15970   */\n      add\n        /* \"#utility.yul\":15942:15946   */\n      dup9\n        /* \"#utility.yul\":15935:15971   */\n      sstore\n        /* \"#utility.yul\":15370:15981   */\n      pop\n      pop\n      pop\n        /* \"#utility.yul\":15333:16220   */\n    tag_301:\n      pop\n        /* \"#utility.yul\":14923:16226   */\n      pop\n      pop\n      pop\n        /* \"#utility.yul\":14831:16226   */\n      pop\n      pop\n      jump\t// out\n        /* \"#utility.yul\":16232:16655   */\n    tag_103:\n        /* \"#utility.yul\":16373:16377   */\n      0x00\n        /* \"#utility.yul\":16411:16413   */\n      0x40\n        /* \"#utility.yul\":16400:16409   */\n      dup3\n        /* \"#utility.yul\":16396:16414   */\n      add\n        /* \"#utility.yul\":16388:16414   */\n      swap1\n      pop\n        /* \"#utility.yul\":16460:16469   */\n      dup2\n        /* \"#utility.yul\":16454:16458   */\n      dup2\n        /* \"#utility.yul\":16450:16470   */\n      sub\n        /* \"#utility.yul\":16446:16447   */\n      0x00\n        /* \"#utility.yul\":16435:16444   */\n      dup4\n        /* \"#utility.yul\":16431:16448   */\n      add\n        /* \"#utility.yul\":16424:16471   */\n      mstore\n        /* \"#utility.yul\":16488:16566   */\n      tag_312\n        /* \"#utility.yul\":16561:16565   */\n      dup2\n        /* \"#utility.yul\":16552:16558   */\n      dup6\n        /* \"#utility.yul\":16488:16566   */\n      tag_120\n      jump\t// in\n    tag_312:\n        /* \"#utility.yul\":16480:16566   */\n      swap1\n      pop\n        /* \"#utility.yul\":16576:16648   */\n      tag_313\n        /* \"#utility.yul\":16644:16646   */\n      0x20\n        /* \"#utility.yul\":16633:16642   */\n      dup4\n        /* \"#utility.yul\":16629:16647   */\n      add\n        /* \"#utility.yul\":16620:16626   */\n      dup5\n        /* \"#utility.yul\":16576:16648   */\n      tag_124\n      jump\t// in\n    tag_313:\n        /* \"#utility.yul\":16232:16655   */\n      swap4\n      swap3\n      pop\n      pop\n      pop\n      jump\t// out\n\n    auxdata: 0xa2646970667358221220e6ba16c3282f8e4ff9464a0541948c78b72a0c8db8aa3894bb7d05c8d0a9ca9564736f6c634300081a0033\n}\n",
				"bytecode": {
					"linkReferences": {},
					"object": "6080604052348015600e575f80fd5b5061125f8061001c5f395ff3fe608060405234801561000f575f80fd5b506004361061003f575f3560e01c80637ef1446a1461004357806388cb968e14610079578063f16f9271146100a9575b5f80fd5b61005d60048036038101906100589190610b3a565b6100c5565b6040516100709796959493929190610bf9565b60405180910390f35b610093600480360381019061008e9190610b3a565b61043e565b6040516100a09190610ca8565b60405180910390f35b6100c360048036038101906100be9190610cc1565b610829565b005b5f818051602081018201805184825260208301602085012081835280955050505050505f91509050805f0180546100fb90610e1f565b80601f016020809104026020016040519081016040528092919081815260200182805461012790610e1f565b80156101725780601f1061014957610100808354040283529160200191610172565b820191905f5260205f20905b81548152906001019060200180831161015557829003601f168201915b50505050509080600101805461018790610e1f565b80601f01602080910402602001604051908101604052809291908181526020018280546101b390610e1f565b80156101fe5780601f106101d5576101008083540402835291602001916101fe565b820191905f5260205f20905b8154815290600101906020018083116101e157829003601f168201915b50505050509080600201805461021390610e1f565b80601f016020809104026020016040519081016040528092919081815260200182805461023f90610e1f565b801561028a5780601f106102615761010080835404028352916020019161028a565b820191905f5260205f20905b81548152906001019060200180831161026d57829003601f168201915b50505050509080600301805461029f90610e1f565b80601f01602080910402602001604051908101604052809291908181526020018280546102cb90610e1f565b80156103165780601f106102ed57610100808354040283529160200191610316565b820191905f5260205f20905b8154815290600101906020018083116102f957829003601f168201915b50505050509080600401805461032b90610e1f565b80601f016020809104026020016040519081016040528092919081815260200182805461035790610e1f565b80156103a25780601f10610379576101008083540402835291602001916103a2565b820191905f5260205f20905b81548152906001019060200180831161038557829003601f168201915b5050505050908060050180546103b790610e1f565b80601f01602080910402602001604051908101604052809291908181526020018280546103e390610e1f565b801561042e5780601f106104055761010080835404028352916020019161042e565b820191905f5260205f20905b81548152906001019060200180831161041157829003601f168201915b5050505050908060060154905087565b5f805f8360405161044f9190610e89565b90815260200160405180910390206040518060e00160405290815f8201805461047790610e1f565b80601f01602080910402602001604051908101604052809291908181526020018280546104a390610e1f565b80156104ee5780601f106104c5576101008083540402835291602001916104ee565b820191905f5260205f20905b8154815290600101906020018083116104d157829003601f168201915b5050505050815260200160018201805461050790610e1f565b80601f016020809104026020016040519081016040528092919081815260200182805461053390610e1f565b801561057e5780601f106105555761010080835404028352916020019161057e565b820191905f5260205f20905b81548152906001019060200180831161056157829003601f168201915b5050505050815260200160028201805461059790610e1f565b80601f01602080910402602001604051908101604052809291908181526020018280546105c390610e1f565b801561060e5780601f106105e55761010080835404028352916020019161060e565b820191905f5260205f20905b8154815290600101906020018083116105f157829003601f168201915b5050505050815260200160038201805461062790610e1f565b80601f016020809104026020016040519081016040528092919081815260200182805461065390610e1f565b801561069e5780601f106106755761010080835404028352916020019161069e565b820191905f5260205f20905b81548152906001019060200180831161068157829003601f168201915b505050505081526020016004820180546106b790610e1f565b80601f01602080910402602001604051908101604052809291908181526020018280546106e390610e1f565b801561072e5780601f106107055761010080835404028352916020019161072e565b820191905f5260205f20905b81548152906001019060200180831161071157829003601f168201915b5050505050815260200160058201805461074790610e1f565b80601f016020809104026020016040519081016040528092919081815260200182805461077390610e1f565b80156107be5780601f10610795576101008083540402835291602001916107be565b820191905f5260205f20905b8154815290600101906020018083116107a157829003601f168201915b505050505081526020016006820154815250509050805f015181602001518260400151836060015184608001518560a001518660c0015160405160200161080b9796959493929190610ebf565b60405160208183030381529060405280519060200120915050919050565b5f80876040516108399190610e89565b90815260200160405180910390205f01805461085490610e1f565b905014610896576040517f08c379a000000000000000000000000000000000000000000000000000000000815260040161088d90610f71565b60405180910390fd5b6040518060e00160405280878152602001868152602001858152602001848152602001838152602001828152602001428152505f876040516108d89190610e89565b90815260200160405180910390205f820151815f0190816108f9919061112c565b50602082015181600101908161090f919061112c565b506040820151816002019081610925919061112c565b50606082015181600301908161093b919061112c565b506080820151816004019081610951919061112c565b5060a0820151816005019081610967919061112c565b5060c082015181600601559050505f868686868686426040516020016109939796959493929190610ebf565b6040516020818303038152906040528051906020012090507f609d236b1e89861dacd5955039123e735c00914465da65b79aa8cff0762e941c87826040516109dc9291906111fb565b60405180910390a150505050505050565b5f604051905090565b5f80fd5b5f80fd5b5f80fd5b5f80fd5b5f601f19601f8301169050919050565b7f4e487b71000000000000000000000000000000000000000000000000000000005f52604160045260245ffd5b610a4c82610a06565b810181811067ffffffffffffffff82111715610a6b57610a6a610a16565b5b80604052505050565b5f610a7d6109ed565b9050610a898282610a43565b919050565b5f67ffffffffffffffff821115610aa857610aa7610a16565b5b610ab182610a06565b9050602081019050919050565b828183375f83830152505050565b5f610ade610ad984610a8e565b610a74565b905082815260208101848484011115610afa57610af9610a02565b5b610b05848285610abe565b509392505050565b5f82601f830112610b2157610b206109fe565b5b8135610b31848260208601610acc565b91505092915050565b5f60208284031215610b4f57610b4e6109f6565b5b5f82013567ffffffffffffffff811115610b6c57610b6b6109fa565b5b610b7884828501610b0d565b91505092915050565b5f81519050919050565b5f82825260208201905092915050565b8281835e5f83830152505050565b5f610bb382610b81565b610bbd8185610b8b565b9350610bcd818560208601610b9b565b610bd681610a06565b840191505092915050565b5f819050919050565b610bf381610be1565b82525050565b5f60e0820190508181035f830152610c11818a610ba9565b90508181036020830152610c258189610ba9565b90508181036040830152610c398188610ba9565b90508181036060830152610c4d8187610ba9565b90508181036080830152610c618186610ba9565b905081810360a0830152610c758185610ba9565b9050610c8460c0830184610bea565b98975050505050505050565b5f819050919050565b610ca281610c90565b82525050565b5f602082019050610cbb5f830184610c99565b92915050565b5f805f805f8060c08789031215610cdb57610cda6109f6565b5b5f87013567ffffffffffffffff811115610cf857610cf76109fa565b5b610d0489828a01610b0d565b965050602087013567ffffffffffffffff811115610d2557610d246109fa565b5b610d3189828a01610b0d565b955050604087013567ffffffffffffffff811115610d5257610d516109fa565b5b610d5e89828a01610b0d565b945050606087013567ffffffffffffffff811115610d7f57610d7e6109fa565b5b610d8b89828a01610b0d565b935050608087013567ffffffffffffffff811115610dac57610dab6109fa565b5b610db889828a01610b0d565b92505060a087013567ffffffffffffffff811115610dd957610dd86109fa565b5b610de589828a01610b0d565b9150509295509295509295565b7f4e487b71000000000000000000000000000000000000000000000000000000005f52602260045260245ffd5b5f6002820490506001821680610e3657607f821691505b602082108103610e4957610e48610df2565b5b50919050565b5f81905092915050565b5f610e6382610b81565b610e6d8185610e4f565b9350610e7d818560208601610b9b565b80840191505092915050565b5f610e948284610e59565b915081905092915050565b5f819050919050565b610eb9610eb482610be1565b610e9f565b82525050565b5f610eca828a610e59565b9150610ed68289610e59565b9150610ee28288610e59565b9150610eee8287610e59565b9150610efa8286610e59565b9150610f068285610e59565b9150610f128284610ea8565b60208201915081905098975050505050505050565b7f426174636820616c7265616479207265676973746572656400000000000000005f82015250565b5f610f5b601883610b8b565b9150610f6682610f27565b602082019050919050565b5f6020820190508181035f830152610f8881610f4f565b9050919050565b5f819050815f5260205f209050919050565b5f6020601f8301049050919050565b5f82821b905092915050565b5f60088302610feb7fffffffffffffffffffffffffffffffffffffffffffffffffffffffffffffffff82610fb0565b610ff58683610fb0565b95508019841693508086168417925050509392505050565b5f819050919050565b5f61103061102b61102684610be1565b61100d565b610be1565b9050919050565b5f819050919050565b61104983611016565b61105d61105582611037565b848454610fbc565b825550505050565b5f90565b611071611065565b61107c818484611040565b505050565b5b8181101561109f576110945f82611069565b600181019050611082565b5050565b601f8211156110e4576110b581610f8f565b6110be84610fa1565b810160208510156110cd578190505b6110e16110d985610fa1565b830182611081565b50505b505050565b5f82821c905092915050565b5f6111045f19846008026110e9565b1980831691505092915050565b5f61111c83836110f5565b9150826002028217905092915050565b61113582610b81565b67ffffffffffffffff81111561114e5761114d610a16565b5b6111588254610e1f565b6111638282856110a3565b5f60209050601f831160018114611194575f8415611182578287015190505b61118c8582611111565b8655506111f3565b601f1984166111a286610f8f565b5f5b828110156111c9578489015182556001820191506020850194506020810190506111a4565b868310156111e657848901516111e2601f8916826110f5565b8355505b6001600288020188555050505b505050505050565b5f6040820190508181035f8301526112138185610ba9565b90506112226020830184610c99565b939250505056fea2646970667358221220e6ba16c3282f8e4ff9464a0541948c78b72a0c8db8aa3894bb7d05c8d0a9ca9564736f6c634300081a0033",
					"opcodes": "PUSH1 0x80 PUSH1 0x40 MSTORE CALLVALUE DUP1 ISZERO PUSH1 0xE JUMPI PUSH0 DUP1 REVERT JUMPDEST POP PUSH2 0x125F DUP1 PUSH2 0x1C PUSH0 CODECOPY PUSH0 RETURN INVALID PUSH1 0x80 PUSH1 0x40 MSTORE CALLVALUE DUP1 ISZERO PUSH2 0xF JUMPI PUSH0 DUP1 REVERT JUMPDEST POP PUSH1 0x4 CALLDATASIZE LT PUSH2 0x3F JUMPI PUSH0 CALLDATALOAD PUSH1 0xE0 SHR DUP1 PUSH4 0x7EF1446A EQ PUSH2 0x43 JUMPI DUP1 PUSH4 0x88CB968E EQ PUSH2 0x79 JUMPI DUP1 PUSH4 0xF16F9271 EQ PUSH2 0xA9 JUMPI JUMPDEST PUSH0 DUP1 REVERT JUMPDEST PUSH2 0x5D PUSH1 0x4 DUP1 CALLDATASIZE SUB DUP2 ADD SWAP1 PUSH2 0x58 SWAP2 SWAP1 PUSH2 0xB3A JUMP JUMPDEST PUSH2 0xC5 JUMP JUMPDEST PUSH1 0x40 MLOAD PUSH2 0x70 SWAP8 SWAP7 SWAP6 SWAP5 SWAP4 SWAP3 SWAP2 SWAP1 PUSH2 0xBF9 JUMP JUMPDEST PUSH1 0x40 MLOAD DUP1 SWAP2 SUB SWAP1 RETURN JUMPDEST PUSH2 0x93 PUSH1 0x4 DUP1 CALLDATASIZE SUB DUP2 ADD SWAP1 PUSH2 0x8E SWAP2 SWAP1 PUSH2 0xB3A JUMP JUMPDEST PUSH2 0x43E JUMP JUMPDEST PUSH1 0x40 MLOAD PUSH2 0xA0 SWAP2 SWAP1 PUSH2 0xCA8 JUMP JUMPDEST PUSH1 0x40 MLOAD DUP1 SWAP2 SUB SWAP1 RETURN JUMPDEST PUSH2 0xC3 PUSH1 0x4 DUP1 CALLDATASIZE SUB DUP2 ADD SWAP1 PUSH2 0xBE SWAP2 SWAP1 PUSH2 0xCC1 JUMP JUMPDEST PUSH2 0x829 JUMP JUMPDEST STOP JUMPDEST PUSH0 DUP2 DUP1 MLOAD PUSH1 0x20 DUP2 ADD DUP3 ADD DUP1 MLOAD DUP5 DUP3 MSTORE PUSH1 0x20 DUP4 ADD PUSH1 0x20 DUP6 ADD KECCAK256 DUP2 DUP4 MSTORE DUP1 SWAP6 POP POP POP POP POP POP PUSH0 SWAP2 POP SWAP1 POP DUP1 PUSH0 ADD DUP1 SLOAD PUSH2 0xFB SWAP1 PUSH2 0xE1F JUMP JUMPDEST DUP1 PUSH1 0x1F ADD PUSH1 0x20 DUP1 SWAP2 DIV MUL PUSH1 0x20 ADD PUSH1 0x40 MLOAD SWAP1 DUP2 ADD PUSH1 0x40 MSTORE DUP1 SWAP3 SWAP2 SWAP1 DUP2 DUP2 MSTORE PUSH1 0x20 ADD DUP3 DUP1 SLOAD PUSH2 0x127 SWAP1 PUSH2 0xE1F JUMP JUMPDEST DUP1 ISZERO PUSH2 0x172 JUMPI DUP1 PUSH1 0x1F LT PUSH2 0x149 JUMPI PUSH2 0x100 DUP1 DUP4 SLOAD DIV MUL DUP4 MSTORE SWAP2 PUSH1 0x20 ADD SWAP2 PUSH2 0x172 JUMP JUMPDEST DUP3 ADD SWAP2 SWAP1 PUSH0 MSTORE PUSH1 0x20 PUSH0 KECCAK256 SWAP1 JUMPDEST DUP2 SLOAD DUP2 MSTORE SWAP1 PUSH1 0x1 ADD SWAP1 PUSH1 0x20 ADD DUP1 DUP4 GT PUSH2 0x155 JUMPI DUP3 SWAP1 SUB PUSH1 0x1F AND DUP3 ADD SWAP2 JUMPDEST POP POP POP POP POP SWAP1 DUP1 PUSH1 0x1 ADD DUP1 SLOAD PUSH2 0x187 SWAP1 PUSH2 0xE1F JUMP JUMPDEST DUP1 PUSH1 0x1F ADD PUSH1 0x20 DUP1 SWAP2 DIV MUL PUSH1 0x20 ADD PUSH1 0x40 MLOAD SWAP1 DUP2 ADD PUSH1 0x40 MSTORE DUP1 SWAP3 SWAP2 SWAP1 DUP2 DUP2 MSTORE PUSH1 0x20 ADD DUP3 DUP1 SLOAD PUSH2 0x1B3 SWAP1 PUSH2 0xE1F JUMP JUMPDEST DUP1 ISZERO PUSH2 0x1FE JUMPI DUP1 PUSH1 0x1F LT PUSH2 0x1D5 JUMPI PUSH2 0x100 DUP1 DUP4 SLOAD DIV MUL DUP4 MSTORE SWAP2 PUSH1 0x20 ADD SWAP2 PUSH2 0x1FE JUMP JUMPDEST DUP3 ADD SWAP2 SWAP1 PUSH0 MSTORE PUSH1 0x20 PUSH0 KECCAK256 SWAP1 JUMPDEST DUP2 SLOAD DUP2 MSTORE SWAP1 PUSH1 0x1 ADD SWAP1 PUSH1 0x20 ADD DUP1 DUP4 GT PUSH2 0x1E1 JUMPI DUP3 SWAP1 SUB PUSH1 0x1F AND DUP3 ADD SWAP2 JUMPDEST POP POP POP POP POP SWAP1 DUP1 PUSH1 0x2 ADD DUP1 SLOAD PUSH2 0x213 SWAP1 PUSH2 0xE1F JUMP JUMPDEST DUP1 PUSH1 0x1F ADD PUSH1 0x20 DUP1 SWAP2 DIV MUL PUSH1 0x20 ADD PUSH1 0x40 MLOAD SWAP1 DUP2 ADD PUSH1 0x40 MSTORE DUP1 SWAP3 SWAP2 SWAP1 DUP2 DUP2 MSTORE PUSH1 0x20 ADD DUP3 DUP1 SLOAD PUSH2 0x23F SWAP1 PUSH2 0xE1F JUMP JUMPDEST DUP1 ISZERO PUSH2 0x28A JUMPI DUP1 PUSH1 0x1F LT PUSH2 0x261 JUMPI PUSH2 0x100 DUP1 DUP4 SLOAD DIV MUL DUP4 MSTORE SWAP2 PUSH1 0x20 ADD SWAP2 PUSH2 0x28A JUMP JUMPDEST DUP3 ADD SWAP2 SWAP1 PUSH0 MSTORE PUSH1 0x20 PUSH0 KECCAK256 SWAP1 JUMPDEST DUP2 SLOAD DUP2 MSTORE SWAP1 PUSH1 0x1 ADD SWAP1 PUSH1 0x20 ADD DUP1 DUP4 GT PUSH2 0x26D JUMPI DUP3 SWAP1 SUB PUSH1 0x1F AND DUP3 ADD SWAP2 JUMPDEST POP POP POP POP POP SWAP1 DUP1 PUSH1 0x3 ADD DUP1 SLOAD PUSH2 0x29F SWAP1 PUSH2 0xE1F JUMP JUMPDEST DUP1 PUSH1 0x1F ADD PUSH1 0x20 DUP1 SWAP2 DIV MUL PUSH1 0x20 ADD PUSH1 0x40 MLOAD SWAP1 DUP2 ADD PUSH1 0x40 MSTORE DUP1 SWAP3 SWAP2 SWAP1 DUP2 DUP2 MSTORE PUSH1 0x20 ADD DUP3 DUP1 SLOAD PUSH2 0x2CB SWAP1 PUSH2 0xE1F JUMP JUMPDEST DUP1 ISZERO PUSH2 0x316 JUMPI DUP1 PUSH1 0x1F LT PUSH2 0x2ED JUMPI PUSH2 0x100 DUP1 DUP4 SLOAD DIV MUL DUP4 MSTORE SWAP2 PUSH1 0x20 ADD SWAP2 PUSH2 0x316 JUMP JUMPDEST DUP3 ADD SWAP2 SWAP1 PUSH0 MSTORE PUSH1 0x20 PUSH0 KECCAK256 SWAP1 JUMPDEST DUP2 SLOAD DUP2 MSTORE SWAP1 PUSH1 0x1 ADD SWAP1 PUSH1 0x20 ADD DUP1 DUP4 GT PUSH2 0x2F9 JUMPI DUP3 SWAP1 SUB PUSH1 0x1F AND DUP3 ADD SWAP2 JUMPDEST POP POP POP POP POP SWAP1 DUP1 PUSH1 0x4 ADD DUP1 SLOAD PUSH2 0x32B SWAP1 PUSH2 0xE1F JUMP JUMPDEST DUP1 PUSH1 0x1F ADD PUSH1 0x20 DUP1 SWAP2 DIV MUL PUSH1 0x20 ADD PUSH1 0x40 MLOAD SWAP1 DUP2 ADD PUSH1 0x40 MSTORE DUP1 SWAP3 SWAP2 SWAP1 DUP2 DUP2 MSTORE PUSH1 0x20 ADD DUP3 DUP1 SLOAD PUSH2 0x357 SWAP1 PUSH2 0xE1F JUMP JUMPDEST DUP1 ISZERO PUSH2 0x3A2 JUMPI DUP1 PUSH1 0x1F LT PUSH2 0x379 JUMPI PUSH2 0x100 DUP1 DUP4 SLOAD DIV MUL DUP4 MSTORE SWAP2 PUSH1 0x20 ADD SWAP2 PUSH2 0x3A2 JUMP JUMPDEST DUP3 ADD SWAP2 SWAP1 PUSH0 MSTORE PUSH1 0x20 PUSH0 KECCAK256 SWAP1 JUMPDEST DUP2 SLOAD DUP2 MSTORE SWAP1 PUSH1 0x1 ADD SWAP1 PUSH1 0x20 ADD DUP1 DUP4 GT PUSH2 0x385 JUMPI DUP3 SWAP1 SUB PUSH1 0x1F AND DUP3 ADD SWAP2 JUMPDEST POP POP POP POP POP SWAP1 DUP1 PUSH1 0x5 ADD DUP1 SLOAD PUSH2 0x3B7 SWAP1 PUSH2 0xE1F JUMP JUMPDEST DUP1 PUSH1 0x1F ADD PUSH1 0x20 DUP1 SWAP2 DIV MUL PUSH1 0x20 ADD PUSH1 0x40 MLOAD SWAP1 DUP2 ADD PUSH1 0x40 MSTORE DUP1 SWAP3 SWAP2 SWAP1 DUP2 DUP2 MSTORE PUSH1 0x20 ADD DUP3 DUP1 SLOAD PUSH2 0x3E3 SWAP1 PUSH2 0xE1F JUMP JUMPDEST DUP1 ISZERO PUSH2 0x42E JUMPI DUP1 PUSH1 0x1F LT PUSH2 0x405 JUMPI PUSH2 0x100 DUP1 DUP4 SLOAD DIV MUL DUP4 MSTORE SWAP2 PUSH1 0x20 ADD SWAP2 PUSH2 0x42E JUMP JUMPDEST DUP3 ADD SWAP2 SWAP1 PUSH0 MSTORE PUSH1 0x20 PUSH0 KECCAK256 SWAP1 JUMPDEST DUP2 SLOAD DUP2 MSTORE SWAP1 PUSH1 0x1 ADD SWAP1 PUSH1 0x20 ADD DUP1 DUP4 GT PUSH2 0x411 JUMPI DUP3 SWAP1 SUB PUSH1 0x1F AND DUP3 ADD SWAP2 JUMPDEST POP POP POP POP POP SWAP1 DUP1 PUSH1 0x6 ADD SLOAD SWAP1 POP DUP8 JUMP JUMPDEST PUSH0 DUP1 PUSH0 DUP4 PUSH1 0x40 MLOAD PUSH2 0x44F SWAP2 SWAP1 PUSH2 0xE89 JUMP JUMPDEST SWAP1 DUP2 MSTORE PUSH1 0x20 ADD PUSH1 0x40 MLOAD DUP1 SWAP2 SUB SWAP1 KECCAK256 PUSH1 0x40 MLOAD DUP1 PUSH1 0xE0 ADD PUSH1 0x40 MSTORE SWAP1 DUP2 PUSH0 DUP3 ADD DUP1 SLOAD PUSH2 0x477 SWAP1 PUSH2 0xE1F JUMP JUMPDEST DUP1 PUSH1 0x1F ADD PUSH1 0x20 DUP1 SWAP2 DIV MUL PUSH1 0x20 ADD PUSH1 0x40 MLOAD SWAP1 DUP2 ADD PUSH1 0x40 MSTORE DUP1 SWAP3 SWAP2 SWAP1 DUP2 DUP2 MSTORE PUSH1 0x20 ADD DUP3 DUP1 SLOAD PUSH2 0x4A3 SWAP1 PUSH2 0xE1F JUMP JUMPDEST DUP1 ISZERO PUSH2 0x4EE JUMPI DUP1 PUSH1 0x1F LT PUSH2 0x4C5 JUMPI PUSH2 0x100 DUP1 DUP4 SLOAD DIV MUL DUP4 MSTORE SWAP2 PUSH1 0x20 ADD SWAP2 PUSH2 0x4EE JUMP JUMPDEST DUP3 ADD SWAP2 SWAP1 PUSH0 MSTORE PUSH1 0x20 PUSH0 KECCAK256 SWAP1 JUMPDEST DUP2 SLOAD DUP2 MSTORE SWAP1 PUSH1 0x1 ADD SWAP1 PUSH1 0x20 ADD DUP1 DUP4 GT PUSH2 0x4D1 JUMPI DUP3 SWAP1 SUB PUSH1 0x1F AND DUP3 ADD SWAP2 JUMPDEST POP POP POP POP POP DUP2 MSTORE PUSH1 0x20 ADD PUSH1 0x1 DUP3 ADD DUP1 SLOAD PUSH2 0x507 SWAP1 PUSH2 0xE1F JUMP JUMPDEST DUP1 PUSH1 0x1F ADD PUSH1 0x20 DUP1 SWAP2 DIV MUL PUSH1 0x20 ADD PUSH1 0x40 MLOAD SWAP1 DUP2 ADD PUSH1 0x40 MSTORE DUP1 SWAP3 SWAP2 SWAP1 DUP2 DUP2 MSTORE PUSH1 0x20 ADD DUP3 DUP1 SLOAD PUSH2 0x533 SWAP1 PUSH2 0xE1F JUMP JUMPDEST DUP1 ISZERO PUSH2 0x57E JUMPI DUP1 PUSH1 0x1F LT PUSH2 0x555 JUMPI PUSH2 0x100 DUP1 DUP4 SLOAD DIV MUL DUP4 MSTORE SWAP2 PUSH1 0x20 ADD SWAP2 PUSH2 0x57E JUMP JUMPDEST DUP3 ADD SWAP2 SWAP1 PUSH0 MSTORE PUSH1 0x20 PUSH0 KECCAK256 SWAP1 JUMPDEST DUP2 SLOAD DUP2 MSTORE SWAP1 PUSH1 0x1 ADD SWAP1 PUSH1 0x20 ADD DUP1 DUP4 GT PUSH2 0x561 JUMPI DUP3 SWAP1 SUB PUSH1 0x1F AND DUP3 ADD SWAP2 JUMPDEST POP POP POP POP POP DUP2 MSTORE PUSH1 0x20 ADD PUSH1 0x2 DUP3 ADD DUP1 SLOAD PUSH2 0x597 SWAP1 PUSH2 0xE1F JUMP JUMPDEST DUP1 PUSH1 0x1F ADD PUSH1 0x20 DUP1 SWAP2 DIV MUL PUSH1 0x20 ADD PUSH1 0x40 MLOAD SWAP1 DUP2 ADD PUSH1 0x40 MSTORE DUP1 SWAP3 SWAP2 SWAP1 DUP2 DUP2 MSTORE PUSH1 0x20 ADD DUP3 DUP1 SLOAD PUSH2 0x5C3 SWAP1 PUSH2 0xE1F JUMP JUMPDEST DUP1 ISZERO PUSH2 0x60E JUMPI DUP1 PUSH1 0x1F LT PUSH2 0x5E5 JUMPI PUSH2 0x100 DUP1 DUP4 SLOAD DIV MUL DUP4 MSTORE SWAP2 PUSH1 0x20 ADD SWAP2 PUSH2 0x60E JUMP JUMPDEST DUP3 ADD SWAP2 SWAP1 PUSH0 MSTORE PUSH1 0x20 PUSH0 KECCAK256 SWAP1 JUMPDEST DUP2 SLOAD DUP2 MSTORE SWAP1 PUSH1 0x1 ADD SWAP1 PUSH1 0x20 ADD DUP1 DUP4 GT PUSH2 0x5F1 JUMPI DUP3 SWAP1 SUB PUSH1 0x1F AND DUP3 ADD SWAP2 JUMPDEST POP POP POP POP POP DUP2 MSTORE PUSH1 0x20 ADD PUSH1 0x3 DUP3 ADD DUP1 SLOAD PUSH2 0x627 SWAP1 PUSH2 0xE1F JUMP JUMPDEST DUP1 PUSH1 0x1F ADD PUSH1 0x20 DUP1 SWAP2 DIV MUL PUSH1 0x20 ADD PUSH1 0x40 MLOAD SWAP1 DUP2 ADD PUSH1 0x40 MSTORE DUP1 SWAP3 SWAP2 SWAP1 DUP2 DUP2 MSTORE PUSH1 0x20 ADD DUP3 DUP1 SLOAD PUSH2 0x653 SWAP1 PUSH2 0xE1F JUMP JUMPDEST DUP1 ISZERO PUSH2 0x69E JUMPI DUP1 PUSH1 0x1F LT PUSH2 0x675 JUMPI PUSH2 0x100 DUP1 DUP4 SLOAD DIV MUL DUP4 MSTORE SWAP2 PUSH1 0x20 ADD SWAP2 PUSH2 0x69E JUMP JUMPDEST DUP3 ADD SWAP2 SWAP1 PUSH0 MSTORE PUSH1 0x20 PUSH0 KECCAK256 SWAP1 JUMPDEST DUP2 SLOAD DUP2 MSTORE SWAP1 PUSH1 0x1 ADD SWAP1 PUSH1 0x20 ADD DUP1 DUP4 GT PUSH2 0x681 JUMPI DUP3 SWAP1 SUB PUSH1 0x1F AND DUP3 ADD SWAP2 JUMPDEST POP POP POP POP POP DUP2 MSTORE PUSH1 0x20 ADD PUSH1 0x4 DUP3 ADD DUP1 SLOAD PUSH2 0x6B7 SWAP1 PUSH2 0xE1F JUMP JUMPDEST DUP1 PUSH1 0x1F ADD PUSH1 0x20 DUP1 SWAP2 DIV MUL PUSH1 0x20 ADD PUSH1 0x40 MLOAD SWAP1 DUP2 ADD PUSH1 0x40 MSTORE DUP1 SWAP3 SWAP2 SWAP1 DUP2 DUP2 MSTORE PUSH1 0x20 ADD DUP3 DUP1 SLOAD PUSH2 0x6E3 SWAP1 PUSH2 0xE1F JUMP JUMPDEST DUP1 ISZERO PUSH2 0x72E JUMPI DUP1 PUSH1 0x1F LT PUSH2 0x705 JUMPI PUSH2 0x100 DUP1 DUP4 SLOAD DIV MUL DUP4 MSTORE SWAP2 PUSH1 0x20 ADD SWAP2 PUSH2 0x72E JUMP JUMPDEST DUP3 ADD SWAP2 SWAP1 PUSH0 MSTORE PUSH1 0x20 PUSH0 KECCAK256 SWAP1 JUMPDEST DUP2 SLOAD DUP2 MSTORE SWAP1 PUSH1 0x1 ADD SWAP1 PUSH1 0x20 ADD DUP1 DUP4 GT PUSH2 0x711 JUMPI DUP3 SWAP1 SUB PUSH1 0x1F AND DUP3 ADD SWAP2 JUMPDEST POP POP POP POP POP DUP2 MSTORE PUSH1 0x20 ADD PUSH1 0x5 DUP3 ADD DUP1 SLOAD PUSH2 0x747 SWAP1 PUSH2 0xE1F JUMP JUMPDEST DUP1 PUSH1 0x1F ADD PUSH1 0x20 DUP1 SWAP2 DIV MUL PUSH1 0x20 ADD PUSH1 0x40 MLOAD SWAP1 DUP2 ADD PUSH1 0x40 MSTORE DUP1 SWAP3 SWAP2 SWAP1 DUP2 DUP2 MSTORE PUSH1 0x20 ADD DUP3 DUP1 SLOAD PUSH2 0x773 SWAP1 PUSH2 0xE1F JUMP JUMPDEST DUP1 ISZERO PUSH2 0x7BE JUMPI DUP1 PUSH1 0x1F LT PUSH2 0x795 JUMPI PUSH2 0x100 DUP1 DUP4 SLOAD DIV MUL DUP4 MSTORE SWAP2 PUSH1 0x20 ADD SWAP2 PUSH2 0x7BE JUMP JUMPDEST DUP3 ADD SWAP2 SWAP1 PUSH0 MSTORE PUSH1 0x20 PUSH0 KECCAK256 SWAP1 JUMPDEST DUP2 SLOAD DUP2 MSTORE SWAP1 PUSH1 0x1 ADD SWAP1 PUSH1 0x20 ADD DUP1 DUP4 GT PUSH2 0x7A1 JUMPI DUP3 SWAP1 SUB PUSH1 0x1F AND DUP3 ADD SWAP2 JUMPDEST POP POP POP POP POP DUP2 MSTORE PUSH1 0x20 ADD PUSH1 0x6 DUP3 ADD SLOAD DUP2 MSTORE POP POP SWAP1 POP DUP1 PUSH0 ADD MLOAD DUP2 PUSH1 0x20 ADD MLOAD DUP3 PUSH1 0x40 ADD MLOAD DUP4 PUSH1 0x60 ADD MLOAD DUP5 PUSH1 0x80 ADD MLOAD DUP6 PUSH1 0xA0 ADD MLOAD DUP7 PUSH1 0xC0 ADD MLOAD PUSH1 0x40 MLOAD PUSH1 0x20 ADD PUSH2 0x80B SWAP8 SWAP7 SWAP6 SWAP5 SWAP4 SWAP3 SWAP2 SWAP1 PUSH2 0xEBF JUMP JUMPDEST PUSH1 0x40 MLOAD PUSH1 0x20 DUP2 DUP4 SUB SUB DUP2 MSTORE SWAP1 PUSH1 0x40 MSTORE DUP1 MLOAD SWAP1 PUSH1 0x20 ADD KECCAK256 SWAP2 POP POP SWAP2 SWAP1 POP JUMP JUMPDEST PUSH0 DUP1 DUP8 PUSH1 0x40 MLOAD PUSH2 0x839 SWAP2 SWAP1 PUSH2 0xE89 JUMP JUMPDEST SWAP1 DUP2 MSTORE PUSH1 0x20 ADD PUSH1 0x40 MLOAD DUP1 SWAP2 SUB SWAP1 KECCAK256 PUSH0 ADD DUP1 SLOAD PUSH2 0x854 SWAP1 PUSH2 0xE1F JUMP JUMPDEST SWAP1 POP EQ PUSH2 0x896 JUMPI PUSH1 0x40 MLOAD PUSH32 0x8C379A000000000000000000000000000000000000000000000000000000000 DUP2 MSTORE PUSH1 0x4 ADD PUSH2 0x88D SWAP1 PUSH2 0xF71 JUMP JUMPDEST PUSH1 0x40 MLOAD DUP1 SWAP2 SUB SWAP1 REVERT JUMPDEST PUSH1 0x40 MLOAD DUP1 PUSH1 0xE0 ADD PUSH1 0x40 MSTORE DUP1 DUP8 DUP2 MSTORE PUSH1 0x20 ADD DUP7 DUP2 MSTORE PUSH1 0x20 ADD DUP6 DUP2 MSTORE PUSH1 0x20 ADD DUP5 DUP2 MSTORE PUSH1 0x20 ADD DUP4 DUP2 MSTORE PUSH1 0x20 ADD DUP3 DUP2 MSTORE PUSH1 0x20 ADD TIMESTAMP DUP2 MSTORE POP PUSH0 DUP8 PUSH1 0x40 MLOAD PUSH2 0x8D8 SWAP2 SWAP1 PUSH2 0xE89 JUMP JUMPDEST SWAP1 DUP2 MSTORE PUSH1 0x20 ADD PUSH1 0x40 MLOAD DUP1 SWAP2 SUB SWAP1 KECCAK256 PUSH0 DUP3 ADD MLOAD DUP2 PUSH0 ADD SWAP1 DUP2 PUSH2 0x8F9 SWAP2 SWAP1 PUSH2 0x112C JUMP JUMPDEST POP PUSH1 0x20 DUP3 ADD MLOAD DUP2 PUSH1 0x1 ADD SWAP1 DUP2 PUSH2 0x90F SWAP2 SWAP1 PUSH2 0x112C JUMP JUMPDEST POP PUSH1 0x40 DUP3 ADD MLOAD DUP2 PUSH1 0x2 ADD SWAP1 DUP2 PUSH2 0x925 SWAP2 SWAP1 PUSH2 0x112C JUMP JUMPDEST POP PUSH1 0x60 DUP3 ADD MLOAD DUP2 PUSH1 0x3 ADD SWAP1 DUP2 PUSH2 0x93B SWAP2 SWAP1 PUSH2 0x112C JUMP JUMPDEST POP PUSH1 0x80 DUP3 ADD MLOAD DUP2 PUSH1 0x4 ADD SWAP1 DUP2 PUSH2 0x951 SWAP2 SWAP1 PUSH2 0x112C JUMP JUMPDEST POP PUSH1 0xA0 DUP3 ADD MLOAD DUP2 PUSH1 0x5 ADD SWAP1 DUP2 PUSH2 0x967 SWAP2 SWAP1 PUSH2 0x112C JUMP JUMPDEST POP PUSH1 0xC0 DUP3 ADD MLOAD DUP2 PUSH1 0x6 ADD SSTORE SWAP1 POP POP PUSH0 DUP7 DUP7 DUP7 DUP7 DUP7 DUP7 TIMESTAMP PUSH1 0x40 MLOAD PUSH1 0x20 ADD PUSH2 0x993 SWAP8 SWAP7 SWAP6 SWAP5 SWAP4 SWAP3 SWAP2 SWAP1 PUSH2 0xEBF JUMP JUMPDEST PUSH1 0x40 MLOAD PUSH1 0x20 DUP2 DUP4 SUB SUB DUP2 MSTORE SWAP1 PUSH1 0x40 MSTORE DUP1 MLOAD SWAP1 PUSH1 0x20 ADD KECCAK256 SWAP1 POP PUSH32 0x609D236B1E89861DACD5955039123E735C00914465DA65B79AA8CFF0762E941C DUP8 DUP3 PUSH1 0x40 MLOAD PUSH2 0x9DC SWAP3 SWAP2 SWAP1 PUSH2 0x11FB JUMP JUMPDEST PUSH1 0x40 MLOAD DUP1 SWAP2 SUB SWAP1 LOG1 POP POP POP POP POP POP POP JUMP JUMPDEST PUSH0 PUSH1 0x40 MLOAD SWAP1 POP SWAP1 JUMP JUMPDEST PUSH0 DUP1 REVERT JUMPDEST PUSH0 DUP1 REVERT JUMPDEST PUSH0 DUP1 REVERT JUMPDEST PUSH0 DUP1 REVERT JUMPDEST PUSH0 PUSH1 0x1F NOT PUSH1 0x1F DUP4 ADD AND SWAP1 POP SWAP2 SWAP1 POP JUMP JUMPDEST PUSH32 0x4E487B7100000000000000000000000000000000000000000000000000000000 PUSH0 MSTORE PUSH1 0x41 PUSH1 0x4 MSTORE PUSH1 0x24 PUSH0 REVERT JUMPDEST PUSH2 0xA4C DUP3 PUSH2 0xA06 JUMP JUMPDEST DUP2 ADD DUP2 DUP2 LT PUSH8 0xFFFFFFFFFFFFFFFF DUP3 GT OR ISZERO PUSH2 0xA6B JUMPI PUSH2 0xA6A PUSH2 0xA16 JUMP JUMPDEST JUMPDEST DUP1 PUSH1 0x40 MSTORE POP POP POP JUMP JUMPDEST PUSH0 PUSH2 0xA7D PUSH2 0x9ED JUMP JUMPDEST SWAP1 POP PUSH2 0xA89 DUP3 DUP3 PUSH2 0xA43 JUMP JUMPDEST SWAP2 SWAP1 POP JUMP JUMPDEST PUSH0 PUSH8 0xFFFFFFFFFFFFFFFF DUP3 GT ISZERO PUSH2 0xAA8 JUMPI PUSH2 0xAA7 PUSH2 0xA16 JUMP JUMPDEST JUMPDEST PUSH2 0xAB1 DUP3 PUSH2 0xA06 JUMP JUMPDEST SWAP1 POP PUSH1 0x20 DUP2 ADD SWAP1 POP SWAP2 SWAP1 POP JUMP JUMPDEST DUP3 DUP2 DUP4 CALLDATACOPY PUSH0 DUP4 DUP4 ADD MSTORE POP POP POP JUMP JUMPDEST PUSH0 PUSH2 0xADE PUSH2 0xAD9 DUP5 PUSH2 0xA8E JUMP JUMPDEST PUSH2 0xA74 JUMP JUMPDEST SWAP1 POP DUP3 DUP2 MSTORE PUSH1 0x20 DUP2 ADD DUP5 DUP5 DUP5 ADD GT ISZERO PUSH2 0xAFA JUMPI PUSH2 0xAF9 PUSH2 0xA02 JUMP JUMPDEST JUMPDEST PUSH2 0xB05 DUP5 DUP3 DUP6 PUSH2 0xABE JUMP JUMPDEST POP SWAP4 SWAP3 POP POP POP JUMP JUMPDEST PUSH0 DUP3 PUSH1 0x1F DUP4 ADD SLT PUSH2 0xB21 JUMPI PUSH2 0xB20 PUSH2 0x9FE JUMP JUMPDEST JUMPDEST DUP2 CALLDATALOAD PUSH2 0xB31 DUP5 DUP3 PUSH1 0x20 DUP7 ADD PUSH2 0xACC JUMP JUMPDEST SWAP2 POP POP SWAP3 SWAP2 POP POP JUMP JUMPDEST PUSH0 PUSH1 0x20 DUP3 DUP5 SUB SLT ISZERO PUSH2 0xB4F JUMPI PUSH2 0xB4E PUSH2 0x9F6 JUMP JUMPDEST JUMPDEST PUSH0 DUP3 ADD CALLDATALOAD PUSH8 0xFFFFFFFFFFFFFFFF DUP2 GT ISZERO PUSH2 0xB6C JUMPI PUSH2 0xB6B PUSH2 0x9FA JUMP JUMPDEST JUMPDEST PUSH2 0xB78 DUP5 DUP3 DUP6 ADD PUSH2 0xB0D JUMP JUMPDEST SWAP2 POP POP SWAP3 SWAP2 POP POP JUMP JUMPDEST PUSH0 DUP2 MLOAD SWAP1 POP SWAP2 SWAP1 POP JUMP JUMPDEST PUSH0 DUP3 DUP3 MSTORE PUSH1 0x20 DUP3 ADD SWAP1 POP SWAP3 SWAP2 POP POP JUMP JUMPDEST DUP3 DUP2 DUP4 MCOPY PUSH0 DUP4 DUP4 ADD MSTORE POP POP POP JUMP JUMPDEST PUSH0 PUSH2 0xBB3 DUP3 PUSH2 0xB81 JUMP JUMPDEST PUSH2 0xBBD DUP2 DUP6 PUSH2 0xB8B JUMP JUMPDEST SWAP4 POP PUSH2 0xBCD DUP2 DUP6 PUSH1 0x20 DUP7 ADD PUSH2 0xB9B JUMP JUMPDEST PUSH2 0xBD6 DUP2 PUSH2 0xA06 JUMP JUMPDEST DUP5 ADD SWAP2 POP POP SWAP3 SWAP2 POP POP JUMP JUMPDEST PUSH0 DUP2 SWAP1 POP SWAP2 SWAP1 POP JUMP JUMPDEST PUSH2 0xBF3 DUP2 PUSH2 0xBE1 JUMP JUMPDEST DUP3 MSTORE POP POP JUMP JUMPDEST PUSH0 PUSH1 0xE0 DUP3 ADD SWAP1 POP DUP2 DUP2 SUB PUSH0 DUP4 ADD MSTORE PUSH2 0xC11 DUP2 DUP11 PUSH2 0xBA9 JUMP JUMPDEST SWAP1 POP DUP2 DUP2 SUB PUSH1 0x20 DUP4 ADD MSTORE PUSH2 0xC25 DUP2 DUP10 PUSH2 0xBA9 JUMP JUMPDEST SWAP1 POP DUP2 DUP2 SUB PUSH1 0x40 DUP4 ADD MSTORE PUSH2 0xC39 DUP2 DUP9 PUSH2 0xBA9 JUMP JUMPDEST SWAP1 POP DUP2 DUP2 SUB PUSH1 0x60 DUP4 ADD MSTORE PUSH2 0xC4D DUP2 DUP8 PUSH2 0xBA9 JUMP JUMPDEST SWAP1 POP DUP2 DUP2 SUB PUSH1 0x80 DUP4 ADD MSTORE PUSH2 0xC61 DUP2 DUP7 PUSH2 0xBA9 JUMP JUMPDEST SWAP1 POP DUP2 DUP2 SUB PUSH1 0xA0 DUP4 ADD MSTORE PUSH2 0xC75 DUP2 DUP6 PUSH2 0xBA9 JUMP JUMPDEST SWAP1 POP PUSH2 0xC84 PUSH1 0xC0 DUP4 ADD DUP5 PUSH2 0xBEA JUMP JUMPDEST SWAP9 SWAP8 POP POP POP POP POP POP POP POP JUMP JUMPDEST PUSH0 DUP2 SWAP1 POP SWAP2 SWAP1 POP JUMP JUMPDEST PUSH2 0xCA2 DUP2 PUSH2 0xC90 JUMP JUMPDEST DUP3 MSTORE POP POP JUMP JUMPDEST PUSH0 PUSH1 0x20 DUP3 ADD SWAP1 POP PUSH2 0xCBB PUSH0 DUP4 ADD DUP5 PUSH2 0xC99 JUMP JUMPDEST SWAP3 SWAP2 POP POP JUMP JUMPDEST PUSH0 DUP1 PUSH0 DUP1 PUSH0 DUP1 PUSH1 0xC0 DUP8 DUP10 SUB SLT ISZERO PUSH2 0xCDB JUMPI PUSH2 0xCDA PUSH2 0x9F6 JUMP JUMPDEST JUMPDEST PUSH0 DUP8 ADD CALLDATALOAD PUSH8 0xFFFFFFFFFFFFFFFF DUP2 GT ISZERO PUSH2 0xCF8 JUMPI PUSH2 0xCF7 PUSH2 0x9FA JUMP JUMPDEST JUMPDEST PUSH2 0xD04 DUP10 DUP3 DUP11 ADD PUSH2 0xB0D JUMP JUMPDEST SWAP7 POP POP PUSH1 0x20 DUP8 ADD CALLDATALOAD PUSH8 0xFFFFFFFFFFFFFFFF DUP2 GT ISZERO PUSH2 0xD25 JUMPI PUSH2 0xD24 PUSH2 0x9FA JUMP JUMPDEST JUMPDEST PUSH2 0xD31 DUP10 DUP3 DUP11 ADD PUSH2 0xB0D JUMP JUMPDEST SWAP6 POP POP PUSH1 0x40 DUP8 ADD CALLDATALOAD PUSH8 0xFFFFFFFFFFFFFFFF DUP2 GT ISZERO PUSH2 0xD52 JUMPI PUSH2 0xD51 PUSH2 0x9FA JUMP JUMPDEST JUMPDEST PUSH2 0xD5E DUP10 DUP3 DUP11 ADD PUSH2 0xB0D JUMP JUMPDEST SWAP5 POP POP PUSH1 0x60 DUP8 ADD CALLDATALOAD PUSH8 0xFFFFFFFFFFFFFFFF DUP2 GT ISZERO PUSH2 0xD7F JUMPI PUSH2 0xD7E PUSH2 0x9FA JUMP JUMPDEST JUMPDEST PUSH2 0xD8B DUP10 DUP3 DUP11 ADD PUSH2 0xB0D JUMP JUMPDEST SWAP4 POP POP PUSH1 0x80 DUP8 ADD CALLDATALOAD PUSH8 0xFFFFFFFFFFFFFFFF DUP2 GT ISZERO PUSH2 0xDAC JUMPI PUSH2 0xDAB PUSH2 0x9FA JUMP JUMPDEST JUMPDEST PUSH2 0xDB8 DUP10 DUP3 DUP11 ADD PUSH2 0xB0D JUMP JUMPDEST SWAP3 POP POP PUSH1 0xA0 DUP8 ADD CALLDATALOAD PUSH8 0xFFFFFFFFFFFFFFFF DUP2 GT ISZERO PUSH2 0xDD9 JUMPI PUSH2 0xDD8 PUSH2 0x9FA JUMP JUMPDEST JUMPDEST PUSH2 0xDE5 DUP10 DUP3 DUP11 ADD PUSH2 0xB0D JUMP JUMPDEST SWAP2 POP POP SWAP3 SWAP6 POP SWAP3 SWAP6 POP SWAP3 SWAP6 JUMP JUMPDEST PUSH32 0x4E487B7100000000000000000000000000000000000000000000000000000000 PUSH0 MSTORE PUSH1 0x22 PUSH1 0x4 MSTORE PUSH1 0x24 PUSH0 REVERT JUMPDEST PUSH0 PUSH1 0x2 DUP3 DIV SWAP1 POP PUSH1 0x1 DUP3 AND DUP1 PUSH2 0xE36 JUMPI PUSH1 0x7F DUP3 AND SWAP2 POP JUMPDEST PUSH1 0x20 DUP3 LT DUP2 SUB PUSH2 0xE49 JUMPI PUSH2 0xE48 PUSH2 0xDF2 JUMP JUMPDEST JUMPDEST POP SWAP2 SWAP1 POP JUMP JUMPDEST PUSH0 DUP2 SWAP1 POP SWAP3 SWAP2 POP POP JUMP JUMPDEST PUSH0 PUSH2 0xE63 DUP3 PUSH2 0xB81 JUMP JUMPDEST PUSH2 0xE6D DUP2 DUP6 PUSH2 0xE4F JUMP JUMPDEST SWAP4 POP PUSH2 0xE7D DUP2 DUP6 PUSH1 0x20 DUP7 ADD PUSH2 0xB9B JUMP JUMPDEST DUP1 DUP5 ADD SWAP2 POP POP SWAP3 SWAP2 POP POP JUMP JUMPDEST PUSH0 PUSH2 0xE94 DUP3 DUP5 PUSH2 0xE59 JUMP JUMPDEST SWAP2 POP DUP2 SWAP1 POP SWAP3 SWAP2 POP POP JUMP JUMPDEST PUSH0 DUP2 SWAP1 POP SWAP2 SWAP1 POP JUMP JUMPDEST PUSH2 0xEB9 PUSH2 0xEB4 DUP3 PUSH2 0xBE1 JUMP JUMPDEST PUSH2 0xE9F JUMP JUMPDEST DUP3 MSTORE POP POP JUMP JUMPDEST PUSH0 PUSH2 0xECA DUP3 DUP11 PUSH2 0xE59 JUMP JUMPDEST SWAP2 POP PUSH2 0xED6 DUP3 DUP10 PUSH2 0xE59 JUMP JUMPDEST SWAP2 POP PUSH2 0xEE2 DUP3 DUP9 PUSH2 0xE59 JUMP JUMPDEST SWAP2 POP PUSH2 0xEEE DUP3 DUP8 PUSH2 0xE59 JUMP JUMPDEST SWAP2 POP PUSH2 0xEFA DUP3 DUP7 PUSH2 0xE59 JUMP JUMPDEST SWAP2 POP PUSH2 0xF06 DUP3 DUP6 PUSH2 0xE59 JUMP JUMPDEST SWAP2 POP PUSH2 0xF12 DUP3 DUP5 PUSH2 0xEA8 JUMP JUMPDEST PUSH1 0x20 DUP3 ADD SWAP2 POP DUP2 SWAP1 POP SWAP9 SWAP8 POP POP POP POP POP POP POP POP JUMP JUMPDEST PUSH32 0x426174636820616C726561647920726567697374657265640000000000000000 PUSH0 DUP3 ADD MSTORE POP JUMP JUMPDEST PUSH0 PUSH2 0xF5B PUSH1 0x18 DUP4 PUSH2 0xB8B JUMP JUMPDEST SWAP2 POP PUSH2 0xF66 DUP3 PUSH2 0xF27 JUMP JUMPDEST PUSH1 0x20 DUP3 ADD SWAP1 POP SWAP2 SWAP1 POP JUMP JUMPDEST PUSH0 PUSH1 0x20 DUP3 ADD SWAP1 POP DUP2 DUP2 SUB PUSH0 DUP4 ADD MSTORE PUSH2 0xF88 DUP2 PUSH2 0xF4F JUMP JUMPDEST SWAP1 POP SWAP2 SWAP1 POP JUMP JUMPDEST PUSH0 DUP2 SWAP1 POP DUP2 PUSH0 MSTORE PUSH1 0x20 PUSH0 KECCAK256 SWAP1 POP SWAP2 SWAP1 POP JUMP JUMPDEST PUSH0 PUSH1 0x20 PUSH1 0x1F DUP4 ADD DIV SWAP1 POP SWAP2 SWAP1 POP JUMP JUMPDEST PUSH0 DUP3 DUP3 SHL SWAP1 POP SWAP3 SWAP2 POP POP JUMP JUMPDEST PUSH0 PUSH1 0x8 DUP4 MUL PUSH2 0xFEB PUSH32 0xFFFFFFFFFFFFFFFFFFFFFFFFFFFFFFFFFFFFFFFFFFFFFFFFFFFFFFFFFFFFFFFF DUP3 PUSH2 0xFB0 JUMP JUMPDEST PUSH2 0xFF5 DUP7 DUP4 PUSH2 0xFB0 JUMP JUMPDEST SWAP6 POP DUP1 NOT DUP5 AND SWAP4 POP DUP1 DUP7 AND DUP5 OR SWAP3 POP POP POP SWAP4 SWAP3 POP POP POP JUMP JUMPDEST PUSH0 DUP2 SWAP1 POP SWAP2 SWAP1 POP JUMP JUMPDEST PUSH0 PUSH2 0x1030 PUSH2 0x102B PUSH2 0x1026 DUP5 PUSH2 0xBE1 JUMP JUMPDEST PUSH2 0x100D JUMP JUMPDEST PUSH2 0xBE1 JUMP JUMPDEST SWAP1 POP SWAP2 SWAP1 POP JUMP JUMPDEST PUSH0 DUP2 SWAP1 POP SWAP2 SWAP1 POP JUMP JUMPDEST PUSH2 0x1049 DUP4 PUSH2 0x1016 JUMP JUMPDEST PUSH2 0x105D PUSH2 0x1055 DUP3 PUSH2 0x1037 JUMP JUMPDEST DUP5 DUP5 SLOAD PUSH2 0xFBC JUMP JUMPDEST DUP3 SSTORE POP POP POP POP JUMP JUMPDEST PUSH0 SWAP1 JUMP JUMPDEST PUSH2 0x1071 PUSH2 0x1065 JUMP JUMPDEST PUSH2 0x107C DUP2 DUP5 DUP5 PUSH2 0x1040 JUMP JUMPDEST POP POP POP JUMP JUMPDEST JUMPDEST DUP2 DUP2 LT ISZERO PUSH2 0x109F JUMPI PUSH2 0x1094 PUSH0 DUP3 PUSH2 0x1069 JUMP JUMPDEST PUSH1 0x1 DUP2 ADD SWAP1 POP PUSH2 0x1082 JUMP JUMPDEST POP POP JUMP JUMPDEST PUSH1 0x1F DUP3 GT ISZERO PUSH2 0x10E4 JUMPI PUSH2 0x10B5 DUP2 PUSH2 0xF8F JUMP JUMPDEST PUSH2 0x10BE DUP5 PUSH2 0xFA1 JUMP JUMPDEST DUP2 ADD PUSH1 0x20 DUP6 LT ISZERO PUSH2 0x10CD JUMPI DUP2 SWAP1 POP JUMPDEST PUSH2 0x10E1 PUSH2 0x10D9 DUP6 PUSH2 0xFA1 JUMP JUMPDEST DUP4 ADD DUP3 PUSH2 0x1081 JUMP JUMPDEST POP POP JUMPDEST POP POP POP JUMP JUMPDEST PUSH0 DUP3 DUP3 SHR SWAP1 POP SWAP3 SWAP2 POP POP JUMP JUMPDEST PUSH0 PUSH2 0x1104 PUSH0 NOT DUP5 PUSH1 0x8 MUL PUSH2 0x10E9 JUMP JUMPDEST NOT DUP1 DUP4 AND SWAP2 POP POP SWAP3 SWAP2 POP POP JUMP JUMPDEST PUSH0 PUSH2 0x111C DUP4 DUP4 PUSH2 0x10F5 JUMP JUMPDEST SWAP2 POP DUP3 PUSH1 0x2 MUL DUP3 OR SWAP1 POP SWAP3 SWAP2 POP POP JUMP JUMPDEST PUSH2 0x1135 DUP3 PUSH2 0xB81 JUMP JUMPDEST PUSH8 0xFFFFFFFFFFFFFFFF DUP2 GT ISZERO PUSH2 0x114E JUMPI PUSH2 0x114D PUSH2 0xA16 JUMP JUMPDEST JUMPDEST PUSH2 0x1158 DUP3 SLOAD PUSH2 0xE1F JUMP JUMPDEST PUSH2 0x1163 DUP3 DUP3 DUP6 PUSH2 0x10A3 JUMP JUMPDEST PUSH0 PUSH1 0x20 SWAP1 POP PUSH1 0x1F DUP4 GT PUSH1 0x1 DUP2 EQ PUSH2 0x1194 JUMPI PUSH0 DUP5 ISZERO PUSH2 0x1182 JUMPI DUP3 DUP8 ADD MLOAD SWAP1 POP JUMPDEST PUSH2 0x118C DUP6 DUP3 PUSH2 0x1111 JUMP JUMPDEST DUP7 SSTORE POP PUSH2 0x11F3 JUMP JUMPDEST PUSH1 0x1F NOT DUP5 AND PUSH2 0x11A2 DUP7 PUSH2 0xF8F JUMP JUMPDEST PUSH0 JUMPDEST DUP3 DUP2 LT ISZERO PUSH2 0x11C9 JUMPI DUP5 DUP10 ADD MLOAD DUP3 SSTORE PUSH1 0x1 DUP3 ADD SWAP2 POP PUSH1 0x20 DUP6 ADD SWAP5 POP PUSH1 0x20 DUP2 ADD SWAP1 POP PUSH2 0x11A4 JUMP JUMPDEST DUP7 DUP4 LT ISZERO PUSH2 0x11E6 JUMPI DUP5 DUP10 ADD MLOAD PUSH2 0x11E2 PUSH1 0x1F DUP10 AND DUP3 PUSH2 0x10F5 JUMP JUMPDEST DUP4 SSTORE POP JUMPDEST PUSH1 0x1 PUSH1 0x2 DUP9 MUL ADD DUP9 SSTORE POP POP POP JUMPDEST POP POP POP POP POP POP JUMP JUMPDEST PUSH0 PUSH1 0x40 DUP3 ADD SWAP1 POP DUP2 DUP2 SUB PUSH0 DUP4 ADD MSTORE PUSH2 0x1213 DUP2 DUP6 PUSH2 0xBA9 JUMP JUMPDEST SWAP1 POP PUSH2 0x1222 PUSH1 0x20 DUP4 ADD DUP5 PUSH2 0xC99 JUMP JUMPDEST SWAP4 SWAP3 POP POP POP JUMP INVALID LOG2 PUSH5 0x6970667358 0x22 SLT KECCAK256 0xE6 0xBA AND 0xC3 0x28 0x2F DUP15 0x4F 0xF9 CHAINID BLOBBASEFEE SDIV COINBASE SWAP5 DUP13 PUSH25 0xB72A0C8DB8AA3894BB7D05C8D0A9CA9564736F6C634300081A STOP CALLER "
				},
				"gasEstimates": {
					"creation": {
						"codeDepositCost": "940600",
						"executionCost": "973",
						"totalCost": "941573"
					},
					"external": {
						"batches(string)": "infinite",
						"getBatchHash(string)": "infinite",
						"registerBatch(string,string,string,string,string,string)": "infinite"
					}
				},
				"methodIdentifiers": {
					"batches(string)": "7ef1446a",
					"getBatchHash(string)": "88cb968e",
					"registerBatch(string,string,string,string,string,string)": "f16f9271"
				}
			},
			"storageLayout": {
				"storage": [
					{
						"astId": 21,
						"contract": "RegistroFinca.sol:RegistroFinca",
						"label": "batches",
						"offset": 0,
						"slot": "0",
						"type": "t_mapping(t_string_memory_ptr,t_struct(Batch)16_storage)"
					}
				],
				"types": {
					"t_mapping(t_string_memory_ptr,t_struct(Batch)16_storage)": {
						"encoding": "mapping",
						"key": "t_string_memory_ptr",
						"label": "mapping(string => struct RegistroFinca.Batch)",
						"numberOfBytes": "32",
						"value": "t_struct(Batch)16_storage"
					},
					"t_string_memory_ptr": {
						"encoding": "bytes",
						"label": "string",
						"numberOfBytes": "32"
					},
					"t_string_storage": {
						"encoding": "bytes",
						"label": "string",
						"numberOfBytes": "32"
					},
					"t_struct(Batch)16_storage": {
						"encoding": "inplace",
						"label": "struct RegistroFinca.Batch",
						"members": [
							{
								"astId": 3,
								"contract": "RegistroFinca.sol:RegistroFinca",
								"label": "batchId",
								"offset": 0,
								"slot": "0",
								"type": "t_string_storage"
							},
							{
								"astId": 5,
								"contract": "RegistroFinca.sol:RegistroFinca",
								"label": "producerName",
								"offset": 0,
								"slot": "1",
								"type": "t_string_storage"
							},
							{
								"astId": 7,
								"contract": "RegistroFinca.sol:RegistroFinca",
								"label": "farm",
								"offset": 0,
								"slot": "2",
								"type": "t_string_storage"
							},
							{
								"astId": 9,
								"contract": "RegistroFinca.sol:RegistroFinca",
								"label": "locationGPS",
								"offset": 0,
								"slot": "3",
								"type": "t_string_storage"
							},
							{
								"astId": 11,
								"contract": "RegistroFinca.sol:RegistroFinca",
								"label": "tastingResults",
								"offset": 0,
								"slot": "4",
								"type": "t_string_storage"
							},
							{
								"astId": 13,
								"contract": "RegistroFinca.sol:RegistroFinca",
								"label": "humidityAnalysis",
								"offset": 0,
								"slot": "5",
								"type": "t_string_storage"
							},
							{
								"astId": 15,
								"contract": "RegistroFinca.sol:RegistroFinca",
								"label": "timestamp",
								"offset": 0,
								"slot": "6",
								"type": "t_uint256"
							}
						],
						"numberOfBytes": "224"
					},
					"t_uint256": {
						"encoding": "inplace",
						"label": "uint256",
						"numberOfBytes": "32"
					}
				}
			},
			"userdoc": {
				"kind": "user",
				"methods": {},
				"version": 1
			}
		}
	}
}