{
	"1-RegistroFinca.sol": {
		"RegistroFinca": {
			"abi": [
				{
					"anonymous": false,
					"inputs": [
						{
							"indexed": false,
							"internalType": "string",
							"name": "batchId",
							"type": "string"
						},
						{
							"indexed": false,
							"internalType": "bytes32",
							"name": "batchHash",
							"type": "bytes32"
						}
					],
					"name": "BatchRegistered",
					"type": "event"
				},
				{
					"inputs": [
						{
							"internalType": "uint256",
							"name": "",
							"type": "uint256"
						}
					],
					"name": "allBatchIds",
					"outputs": [
						{
							"internalType": "string",
							"name": "",
							"type": "string"
						}
					],
					"stateMutability": "view",
					"type": "function"
				},
				{
					"inputs": [
						{
							"internalType": "string",
							"name": "",
							"type": "string"
						}
					],
					"name": "batches",
					"outputs": [
						{
							"internalType": "string",
							"name": "batchId",
							"type": "string"
						},
						{
							"internalType": "string",
							"name": "producerName",
							"type": "string"
						},
						{
							"internalType": "string",
							"name": "farm",
							"type": "string"
						},
						{
							"internalType": "string",
							"name": "locationGPS",
							"type": "string"
						},
						{
							"internalType": "string",
							"name": "tastingResults",
							"type": "string"
						},
						{
							"internalType": "string",
							"name": "humidityAnalysis",
							"type": "string"
						},
						{
							"internalType": "uint256",
							"name": "timestamp",
							"type": "uint256"
						}
					],
					"stateMutability": "view",
					"type": "function"
				},
				{
					"inputs": [],
					"name": "getAllBatchIds",
					"outputs": [
						{
							"internalType": "string[]",
							"name": "",
							"type": "string[]"
						}
					],
					"stateMutability": "view",
					"type": "function"
				},
				{
					"inputs": [
						{
							"internalType": "string",
							"name": "_batchId",
							"type": "string"
						}
					],
					"name": "getBatchHash",
					"outputs": [
						{
							"internalType": "bytes32",
							"name": "",
							"type": "bytes32"
						}
					],
					"stateMutability": "view",
					"type": "function"
				},
				{
					"inputs": [
						{
							"internalType": "string",
							"name": "_batchId",
							"type": "string"
						}
					],
					"name": "getBatchInfo",
					"outputs": [
						{
							"internalType": "string",
							"name": "producerName",
							"type": "string"
						},
						{
							"internalType": "string",
							"name": "farm",
							"type": "string"
						},
						{
							"internalType": "string",
							"name": "locationGPS",
							"type": "string"
						},
						{
							"internalType": "string",
							"name": "tastingResults",
							"type": "string"
						},
						{
							"internalType": "string",
							"name": "humidityAnalysis",
							"type": "string"
						},
						{
							"internalType": "uint256",
							"name": "timestamp",
							"type": "uint256"
						}
					],
					"stateMutability": "view",
					"type": "function"
				},
				{
					"inputs": [],
					"name": "getTotalBatches",
					"outputs": [
						{
							"internalType": "uint256",
							"name": "",
							"type": "uint256"
						}
					],
					"stateMutability": "view",
					"type": "function"
				},
				{
					"inputs": [
						{
							"internalType": "string",
							"name": "_batchId",
							"type": "string"
						},
						{
							"internalType": "string",
							"name": "_producerName",
							"type": "string"
						},
						{
							"internalType": "string",
							"name": "_farm",
							"type": "string"
						},
						{
							"internalType": "string",
							"name": "_locationGPS",
							"type": "string"
						},
						{
							"internalType": "string",
							"name": "_tastingResults",
							"type": "string"
						},
						{
							"internalType": "string",
							"name": "_humidityAnalysis",
							"type": "string"
						}
					],
					"name": "registerBatch",
					"outputs": [],
					"stateMutability": "nonpayable",
					"type": "function"
				}
			],
			"devdoc": {
				"kind": "dev",
				"methods": {},
				"version": 1
			},
			"evm": {
				"assembly": "    /* \"1-RegistroFinca.sol\":58:2572  contract RegistroFinca {... */\n  mstore(0x40, 0x80)\n  callvalue\n  dup1\n  iszero\n  tag_1\n  jumpi\n  0x00\n  dup1\n  revert\ntag_1:\n  pop\n  dataSize(sub_0)\n  dup1\n  dataOffset(sub_0)\n  0x00\n  codecopy\n  0x00\n  return\nstop\n\nsub_0: assembly {\n        /* \"1-RegistroFinca.sol\":58:2572  contract RegistroFinca {... */\n      mstore(0x40, 0x80)\n      callvalue\n      dup1\n      iszero\n      tag_1\n      jumpi\n      0x00\n      dup1\n      revert\n    tag_1:\n      pop\n      jumpi(tag_2, lt(calldatasize, 0x04))\n      shr(0xe0, calldataload(0x00))\n      dup1\n      0xbce06947\n      gt\n      tag_10\n      jumpi\n      dup1\n      0xbce06947\n      eq\n      tag_6\n      jumpi\n      dup1\n      0xd54d5b92\n      eq\n      tag_7\n      jumpi\n      dup1\n      0xe561dddc\n      eq\n      tag_8\n      jumpi\n      dup1\n      0xf16f9271\n      eq\n      tag_9\n      jumpi\n      jump(tag_2)\n    tag_10:\n      dup1\n      0x290b17ec\n      eq\n      tag_3\n      jumpi\n      dup1\n      0x7ef1446a\n      eq\n      tag_4\n      jumpi\n      dup1\n      0x88cb968e\n      eq\n      tag_5\n      jumpi\n    tag_2:\n      0x00\n      dup1\n      revert\n        /* \"1-RegistroFinca.sol\":355:382  string[] public allBatchIds */\n    tag_3:\n      tag_11\n      0x04\n      dup1\n      calldatasize\n      sub\n      dup2\n      add\n      swap1\n      tag_12\n      swap2\n      swap1\n      tag_13\n      jump\t// in\n    tag_12:\n      tag_14\n      jump\t// in\n    tag_11:\n      mload(0x40)\n      tag_15\n      swap2\n      swap1\n      tag_16\n      jump\t// in\n    tag_15:\n      mload(0x40)\n      dup1\n      swap2\n      sub\n      swap1\n      return\n        /* \"1-RegistroFinca.sol\":310:349  mapping(string => Batch) public batches */\n    tag_4:\n      tag_17\n      0x04\n      dup1\n      calldatasize\n      sub\n      dup2\n      add\n      swap1\n      tag_18\n      swap2\n      swap1\n      tag_19\n      jump\t// in\n    tag_18:\n      tag_20\n      jump\t// in\n    tag_17:\n      mload(0x40)\n      tag_21\n      swap8\n      swap7\n      swap6\n      swap5\n      swap4\n      swap3\n      swap2\n      swap1\n      tag_22\n      jump\t// in\n    tag_21:\n      mload(0x40)\n      dup1\n      swap2\n      sub\n      swap1\n      return\n        /* \"1-RegistroFinca.sol\":1301:1746  function getBatchHash(string memory _batchId) public view returns (bytes32) {... */\n    tag_5:\n      tag_23\n      0x04\n      dup1\n      calldatasize\n      sub\n      dup2\n      add\n      swap1\n      tag_24\n      swap2\n      swap1\n      tag_19\n      jump\t// in\n    tag_24:\n      tag_25\n      jump\t// in\n    tag_23:\n      mload(0x40)\n      tag_26\n      swap2\n      swap1\n      tag_27\n      jump\t// in\n    tag_26:\n      mload(0x40)\n      dup1\n      swap2\n      sub\n      swap1\n      return\n        /* \"1-RegistroFinca.sol\":2362:2461  function getAllBatchIds() public view returns (string[] memory) {... */\n    tag_6:\n      tag_28\n      tag_29\n      jump\t// in\n    tag_28:\n      mload(0x40)\n      tag_30\n      swap2\n      swap1\n      tag_31\n      jump\t// in\n    tag_30:\n      mload(0x40)\n      dup1\n      swap2\n      sub\n      swap1\n      return\n        /* \"1-RegistroFinca.sol\":1756:2352  function getBatchInfo(string memory _batchId) public view returns (... */\n    tag_7:\n      tag_32\n      0x04\n      dup1\n      calldatasize\n      sub\n      dup2\n      add\n      swap1\n      tag_33\n      swap2\n      swap1\n      tag_19\n      jump\t// in\n    tag_33:\n      tag_34\n      jump\t// in\n    tag_32:\n      mload(0x40)\n      tag_35\n      swap7\n      swap6\n      swap5\n      swap4\n      swap3\n      swap2\n      swap1\n      tag_36\n      jump\t// in\n    tag_35:\n      mload(0x40)\n      dup1\n      swap2\n      sub\n      swap1\n      return\n        /* \"1-RegistroFinca.sol\":2471:2570  function getTotalBatches() public view returns (uint256) {... */\n    tag_8:\n      tag_37\n      tag_38\n      jump\t// in\n    tag_37:\n      mload(0x40)\n      tag_39\n      swap2\n      swap1\n      tag_40\n      jump\t// in\n    tag_39:\n      mload(0x40)\n      dup1\n      swap2\n      sub\n      swap1\n      return\n        /* \"1-RegistroFinca.sol\":460:1291  function registerBatch(... */\n    tag_9:\n      tag_41\n      0x04\n      dup1\n      calldatasize\n      sub\n      dup2\n      add\n      swap1\n      tag_42\n      swap2\n      swap1\n      tag_43\n      jump\t// in\n    tag_42:\n      tag_44\n      jump\t// in\n    tag_41:\n      stop\n        /* \"1-RegistroFinca.sol\":355:382  string[] public allBatchIds */\n    tag_14:\n      0x01\n      dup2\n      dup2\n      sload\n      dup2\n      lt\n      tag_45\n      jumpi\n      0x00\n      dup1\n      revert\n    tag_45:\n      swap1\n      0x00\n      mstore\n      keccak256(0x00, 0x20)\n      add\n      0x00\n      swap2\n      pop\n      swap1\n      pop\n      dup1\n      sload\n      tag_47\n      swap1\n      tag_48\n      jump\t// in\n    tag_47:\n      dup1\n      0x1f\n      add\n      0x20\n      dup1\n      swap2\n      div\n      mul\n      0x20\n      add\n      mload(0x40)\n      swap1\n      dup2\n      add\n      0x40\n      mstore\n      dup1\n      swap3\n      swap2\n      swap1\n      dup2\n      dup2\n      mstore\n      0x20\n      add\n      dup3\n      dup1\n      sload\n      tag_49\n      swap1\n      tag_48\n      jump\t// in\n    tag_49:\n      dup1\n      iszero\n      tag_50\n      jumpi\n      dup1\n      0x1f\n      lt\n      tag_51\n      jumpi\n      0x0100\n      dup1\n      dup4\n      sload\n      div\n      mul\n      dup4\n      mstore\n      swap2\n      0x20\n      add\n      swap2\n      jump(tag_50)\n    tag_51:\n      dup3\n      add\n      swap2\n      swap1\n      0x00\n      mstore\n      keccak256(0x00, 0x20)\n      swap1\n    tag_52:\n      dup2\n      sload\n      dup2\n      mstore\n      swap1\n      0x01\n      add\n      swap1\n      0x20\n      add\n      dup1\n      dup4\n      gt\n      tag_52\n      jumpi\n      dup3\n      swap1\n      sub\n      0x1f\n      and\n      dup3\n      add\n      swap2\n    tag_50:\n      pop\n      pop\n      pop\n      pop\n      pop\n      dup2\n      jump\t// out\n        /* \"1-RegistroFinca.sol\":310:349  mapping(string => Batch) public batches */\n    tag_20:\n      0x00\n      dup2\n      dup1\n      mload\n      0x20\n      dup2\n      add\n      dup3\n      add\n      dup1\n      mload\n      dup5\n      dup3\n      mstore\n      0x20\n      dup4\n      add\n      0x20\n      dup6\n      add\n      keccak256\n      dup2\n      dup4\n      mstore\n      dup1\n      swap6\n      pop\n      pop\n      pop\n      pop\n      pop\n      pop\n      0x00\n      swap2\n      pop\n      swap1\n      pop\n      dup1\n      0x00\n      add\n      dup1\n      sload\n      tag_53\n      swap1\n      tag_48\n      jump\t// in\n    tag_53:\n      dup1\n      0x1f\n      add\n      0x20\n      dup1\n      swap2\n      div\n      mul\n      0x20\n      add\n      mload(0x40)\n      swap1\n      dup2\n      add\n      0x40\n      mstore\n      dup1\n      swap3\n      swap2\n      swap1\n      dup2\n      dup2\n      mstore\n      0x20\n      add\n      dup3\n      dup1\n      sload\n      tag_54\n      swap1\n      tag_48\n      jump\t// in\n    tag_54:\n      dup1\n      iszero\n      tag_55\n      jumpi\n      dup1\n      0x1f\n      lt\n      tag_56\n      jumpi\n      0x0100\n      dup1\n      dup4\n      sload\n      div\n      mul\n      dup4\n      mstore\n      swap2\n      0x20\n      add\n      swap2\n      jump(tag_55)\n    tag_56:\n      dup3\n      add\n      swap2\n      swap1\n      0x00\n      mstore\n      keccak256(0x00, 0x20)\n      swap1\n    tag_57:\n      dup2\n      sload\n      dup2\n      mstore\n      swap1\n      0x01\n      add\n      swap1\n      0x20\n      add\n      dup1\n      dup4\n      gt\n      tag_57\n      jumpi\n      dup3\n      swap1\n      sub\n      0x1f\n      and\n      dup3\n      add\n      swap2\n    tag_55:\n      pop\n      pop\n      pop\n      pop\n      pop\n      swap1\n      dup1\n      0x01\n      add\n      dup1\n      sload\n      tag_58\n      swap1\n      tag_48\n      jump\t// in\n    tag_58:\n      dup1\n      0x1f\n      add\n      0x20\n      dup1\n      swap2\n      div\n      mul\n      0x20\n      add\n      mload(0x40)\n      swap1\n      dup2\n      add\n      0x40\n      mstore\n      dup1\n      swap3\n      swap2\n      swap1\n      dup2\n      dup2\n      mstore\n      0x20\n      add\n      dup3\n      dup1\n      sload\n      tag_59\n      swap1\n      tag_48\n      jump\t// in\n    tag_59:\n      dup1\n      iszero\n      tag_60\n      jumpi\n      dup1\n      0x1f\n      lt\n      tag_61\n      jumpi\n      0x0100\n      dup1\n      dup4\n      sload\n      div\n      mul\n      dup4\n      mstore\n      swap2\n      0x20\n      add\n      swap2\n      jump(tag_60)\n    tag_61:\n      dup3\n      add\n      swap2\n      swap1\n      0x00\n      mstore\n      keccak256(0x00, 0x20)\n      swap1\n    tag_62:\n      dup2\n      sload\n      dup2\n      mstore\n      swap1\n      0x01\n      add\n      swap1\n      0x20\n      add\n      dup1\n      dup4\n      gt\n      tag_62\n      jumpi\n      dup3\n      swap1\n      sub\n      0x1f\n      and\n      dup3\n      add\n      swap2\n    tag_60:\n      pop\n      pop\n      pop\n      pop\n      pop\n      swap1\n      dup1\n      0x02\n      add\n      dup1\n      sload\n      tag_63\n      swap1\n      tag_48\n      jump\t// in\n    tag_63:\n      dup1\n      0x1f\n      add\n      0x20\n      dup1\n      swap2\n      div\n      mul\n      0x20\n      add\n      mload(0x40)\n      swap1\n      dup2\n      add\n      0x40\n      mstore\n      dup1\n      swap3\n      swap2\n      swap1\n      dup2\n      dup2\n      mstore\n      0x20\n      add\n      dup3\n      dup1\n      sload\n      tag_64\n      swap1\n      tag_48\n      jump\t// in\n    tag_64:\n      dup1\n      iszero\n      tag_65\n      jumpi\n      dup1\n      0x1f\n      lt\n      tag_66\n      jumpi\n      0x0100\n      dup1\n      dup4\n      sload\n      div\n      mul\n      dup4\n      mstore\n      swap2\n      0x20\n      add\n      swap2\n      jump(tag_65)\n    tag_66:\n      dup3\n      add\n      swap2\n      swap1\n      0x00\n      mstore\n      keccak256(0x00, 0x20)\n      swap1\n    tag_67:\n      dup2\n      sload\n      dup2\n      mstore\n      swap1\n      0x01\n      add\n      swap1\n      0x20\n      add\n      dup1\n      dup4\n      gt\n      tag_67\n      jumpi\n      dup3\n      swap1\n      sub\n      0x1f\n      and\n      dup3\n      add\n      swap2\n    tag_65:\n      pop\n      pop\n      pop\n      pop\n      pop\n      swap1\n      dup1\n      0x03\n      add\n      dup1\n      sload\n      tag_68\n      swap1\n      tag_48\n      jump\t// in\n    tag_68:\n      dup1\n      0x1f\n      add\n      0x20\n      dup1\n      swap2\n      div\n      mul\n      0x20\n      add\n      mload(0x40)\n      swap1\n      dup2\n      add\n      0x40\n      mstore\n      dup1\n      swap3\n      swap2\n      swap1\n      dup2\n      dup2\n      mstore\n      0x20\n      add\n      dup3\n      dup1\n      sload\n      tag_69\n      swap1\n      tag_48\n      jump\t// in\n    tag_69:\n      dup1\n      iszero\n      tag_70\n      jumpi\n      dup1\n      0x1f\n      lt\n      tag_71\n      jumpi\n      0x0100\n      dup1\n      dup4\n      sload\n      div\n      mul\n      dup4\n      mstore\n      swap2\n      0x20\n      add\n      swap2\n      jump(tag_70)\n    tag_71:\n      dup3\n      add\n      swap2\n      swap1\n      0x00\n      mstore\n      keccak256(0x00, 0x20)\n      swap1\n    tag_72:\n      dup2\n      sload\n      dup2\n      mstore\n      swap1\n      0x01\n      add\n      swap1\n      0x20\n      add\n      dup1\n      dup4\n      gt\n      tag_72\n      jumpi\n      dup3\n      swap1\n      sub\n      0x1f\n      and\n      dup3\n      add\n      swap2\n    tag_70:\n      pop\n      pop\n      pop\n      pop\n      pop\n      swap1\n      dup1\n      0x04\n      add\n      dup1\n      sload\n      tag_73\n      swap1\n      tag_48\n      jump\t// in\n    tag_73:\n      dup1\n      0x1f\n      add\n      0x20\n      dup1\n      swap2\n      div\n      mul\n      0x20\n      add\n      mload(0x40)\n      swap1\n      dup2\n      add\n      0x40\n      mstore\n      dup1\n      swap3\n      swap2\n      swap1\n      dup2\n      dup2\n      mstore\n      0x20\n      add\n      dup3\n      dup1\n      sload\n      tag_74\n      swap1\n      tag_48\n      jump\t// in\n    tag_74:\n      dup1\n      iszero\n      tag_75\n      jumpi\n      dup1\n      0x1f\n      lt\n      tag_76\n      jumpi\n      0x0100\n      dup1\n      dup4\n      sload\n      div\n      mul\n      dup4\n      mstore\n      swap2\n      0x20\n      add\n      swap2\n      jump(tag_75)\n    tag_76:\n      dup3\n      add\n      swap2\n      swap1\n      0x00\n      mstore\n      keccak256(0x00, 0x20)\n      swap1\n    tag_77:\n      dup2\n      sload\n      dup2\n      mstore\n      swap1\n      0x01\n      add\n      swap1\n      0x20\n      add\n      dup1\n      dup4\n      gt\n      tag_77\n      jumpi\n      dup3\n      swap1\n      sub\n      0x1f\n      and\n      dup3\n      add\n      swap2\n    tag_75:\n      pop\n      pop\n      pop\n      pop\n      pop\n      swap1\n      dup1\n      0x05\n      add\n      dup1\n      sload\n      tag_78\n      swap1\n      tag_48\n      jump\t// in\n    tag_78:\n      dup1\n      0x1f\n      add\n      0x20\n      dup1\n      swap2\n      div\n      mul\n      0x20\n      add\n      mload(0x40)\n      swap1\n      dup2\n      add\n      0x40\n      mstore\n      dup1\n      swap3\n      swap2\n      swap1\n      dup2\n      dup2\n      mstore\n      0x20\n      add\n      dup3\n      dup1\n      sload\n      tag_79\n      swap1\n      tag_48\n      jump\t// in\n    tag_79:\n      dup1\n      iszero\n      tag_80\n      jumpi\n      dup1\n      0x1f\n      lt\n      tag_81\n      jumpi\n      0x0100\n      dup1\n      dup4\n      sload\n      div\n      mul\n      dup4\n      mstore\n      swap2\n      0x20\n      add\n      swap2\n      jump(tag_80)\n    tag_81:\n      dup3\n      add\n      swap2\n      swap1\n      0x00\n      mstore\n      keccak256(0x00, 0x20)\n      swap1\n    tag_82:\n      dup2\n      sload\n      dup2\n      mstore\n      swap1\n      0x01\n      add\n      swap1\n      0x20\n      add\n      dup1\n      dup4\n      gt\n      tag_82\n      jumpi\n      dup3\n      swap1\n      sub\n      0x1f\n      and\n      dup3\n      add\n      swap2\n    tag_80:\n      pop\n      pop\n      pop\n      pop\n      pop\n      swap1\n      dup1\n      0x06\n      add\n      sload\n      swap1\n      pop\n      dup8\n      jump\t// out\n        /* \"1-RegistroFinca.sol\":1301:1746  function getBatchHash(string memory _batchId) public view returns (bytes32) {... */\n    tag_25:\n        /* \"1-RegistroFinca.sol\":1368:1375  bytes32 */\n      0x00\n        /* \"1-RegistroFinca.sol\":1387:1401  Batch memory b */\n      dup1\n        /* \"1-RegistroFinca.sol\":1404:1411  batches */\n      0x00\n        /* \"1-RegistroFinca.sol\":1412:1420  _batchId */\n      dup4\n        /* \"1-RegistroFinca.sol\":1404:1421  batches[_batchId] */\n      mload(0x40)\n      tag_84\n      swap2\n      swap1\n      tag_85\n      jump\t// in\n    tag_84:\n      swap1\n      dup2\n      mstore\n      0x20\n      add\n      mload(0x40)\n      dup1\n      swap2\n      sub\n      swap1\n      keccak256\n        /* \"1-RegistroFinca.sol\":1387:1421  Batch memory b = batches[_batchId] */\n      mload(0x40)\n      dup1\n      0xe0\n      add\n      0x40\n      mstore\n      swap1\n      dup2\n      0x00\n      dup3\n      add\n      dup1\n      sload\n      tag_86\n      swap1\n      tag_48\n      jump\t// in\n    tag_86:\n      dup1\n      0x1f\n      add\n      0x20\n      dup1\n      swap2\n      div\n      mul\n      0x20\n      add\n      mload(0x40)\n      swap1\n      dup2\n      add\n      0x40\n      mstore\n      dup1\n      swap3\n      swap2\n      swap1\n      dup2\n      dup2\n      mstore\n      0x20\n      add\n      dup3\n      dup1\n      sload\n      tag_87\n      swap1\n      tag_48\n      jump\t// in\n    tag_87:\n      dup1\n      iszero\n      tag_88\n      jumpi\n      dup1\n      0x1f\n      lt\n      tag_89\n      jumpi\n      0x0100\n      dup1\n      dup4\n      sload\n      div\n      mul\n      dup4\n      mstore\n      swap2\n      0x20\n      add\n      swap2\n      jump(tag_88)\n    tag_89:\n      dup3\n      add\n      swap2\n      swap1\n      0x00\n      mstore\n      keccak256(0x00, 0x20)\n      swap1\n    tag_90:\n      dup2\n      sload\n      dup2\n      mstore\n      swap1\n      0x01\n      add\n      swap1\n      0x20\n      add\n      dup1\n      dup4\n      gt\n      tag_90\n      jumpi\n      dup3\n      swap1\n      sub\n      0x1f\n      and\n      dup3\n      add\n      swap2\n    tag_88:\n      pop\n      pop\n      pop\n      pop\n      pop\n      dup2\n      mstore\n      0x20\n      add\n      0x01\n      dup3\n      add\n      dup1\n      sload\n      tag_91\n      swap1\n      tag_48\n      jump\t// in\n    tag_91:\n      dup1\n      0x1f\n      add\n      0x20\n      dup1\n      swap2\n      div\n      mul\n      0x20\n      add\n      mload(0x40)\n      swap1\n      dup2\n      add\n      0x40\n      mstore\n      dup1\n      swap3\n      swap2\n      swap1\n      dup2\n      dup2\n      mstore\n      0x20\n      add\n      dup3\n      dup1\n      sload\n      tag_92\n      swap1\n      tag_48\n      jump\t// in\n    tag_92:\n      dup1\n      iszero\n      tag_93\n      jumpi\n      dup1\n      0x1f\n      lt\n      tag_94\n      jumpi\n      0x0100\n      dup1\n      dup4\n      sload\n      div\n      mul\n      dup4\n      mstore\n      swap2\n      0x20\n      add\n      swap2\n      jump(tag_93)\n    tag_94:\n      dup3\n      add\n      swap2\n      swap1\n      0x00\n      mstore\n      keccak256(0x00, 0x20)\n      swap1\n    tag_95:\n      dup2\n      sload\n      dup2\n      mstore\n      swap1\n      0x01\n      add\n      swap1\n      0x20\n      add\n      dup1\n      dup4\n      gt\n      tag_95\n      jumpi\n      dup3\n      swap1\n      sub\n      0x1f\n      and\n      dup3\n      add\n      swap2\n    tag_93:\n      pop\n      pop\n      pop\n      pop\n      pop\n      dup2\n      mstore\n      0x20\n      add\n      0x02\n      dup3\n      add\n      dup1\n      sload\n      tag_96\n      swap1\n      tag_48\n      jump\t// in\n    tag_96:\n      dup1\n      0x1f\n      add\n      0x20\n      dup1\n      swap2\n      div\n      mul\n      0x20\n      add\n      mload(0x40)\n      swap1\n      dup2\n      add\n      0x40\n      mstore\n      dup1\n      swap3\n      swap2\n      swap1\n      dup2\n      dup2\n      mstore\n      0x20\n      add\n      dup3\n      dup1\n      sload\n      tag_97\n      swap1\n      tag_48\n      jump\t// in\n    tag_97:\n      dup1\n      iszero\n      tag_98\n      jumpi\n      dup1\n      0x1f\n      lt\n      tag_99\n      jumpi\n      0x0100\n      dup1\n      dup4\n      sload\n      div\n      mul\n      dup4\n      mstore\n      swap2\n      0x20\n      add\n      swap2\n      jump(tag_98)\n    tag_99:\n      dup3\n      add\n      swap2\n      swap1\n      0x00\n      mstore\n      keccak256(0x00, 0x20)\n      swap1\n    tag_100:\n      dup2\n      sload\n      dup2\n      mstore\n      swap1\n      0x01\n      add\n      swap1\n      0x20\n      add\n      dup1\n      dup4\n      gt\n      tag_100\n      jumpi\n      dup3\n      swap1\n      sub\n      0x1f\n      and\n      dup3\n      add\n      swap2\n    tag_98:\n      pop\n      pop\n      pop\n      pop\n      pop\n      dup2\n      mstore\n      0x20\n      add\n      0x03\n      dup3\n      add\n      dup1\n      sload\n      tag_101\n      swap1\n      tag_48\n      jump\t// in\n    tag_101:\n      dup1\n      0x1f\n      add\n      0x20\n      dup1\n      swap2\n      div\n      mul\n      0x20\n      add\n      mload(0x40)\n      swap1\n      dup2\n      add\n      0x40\n      mstore\n      dup1\n      swap3\n      swap2\n      swap1\n      dup2\n      dup2\n      mstore\n      0x20\n      add\n      dup3\n      dup1\n      sload\n      tag_102\n      swap1\n      tag_48\n      jump\t// in\n    tag_102:\n      dup1\n      iszero\n      tag_103\n      jumpi\n      dup1\n      0x1f\n      lt\n      tag_104\n      jumpi\n      0x0100\n      dup1\n      dup4\n      sload\n      div\n      mul\n      dup4\n      mstore\n      swap2\n      0x20\n      add\n      swap2\n      jump(tag_103)\n    tag_104:\n      dup3\n      add\n      swap2\n      swap1\n      0x00\n      mstore\n      keccak256(0x00, 0x20)\n      swap1\n    tag_105:\n      dup2\n      sload\n      dup2\n      mstore\n      swap1\n      0x01\n      add\n      swap1\n      0x20\n      add\n      dup1\n      dup4\n      gt\n      tag_105\n      jumpi\n      dup3\n      swap1\n      sub\n      0x1f\n      and\n      dup3\n      add\n      swap2\n    tag_103:\n      pop\n      pop\n      pop\n      pop\n      pop\n      dup2\n      mstore\n      0x20\n      add\n      0x04\n      dup3\n      add\n      dup1\n      sload\n      tag_106\n      swap1\n      tag_48\n      jump\t// in\n    tag_106:\n      dup1\n      0x1f\n      add\n      0x20\n      dup1\n      swap2\n      div\n      mul\n      0x20\n      add\n      mload(0x40)\n      swap1\n      dup2\n      add\n      0x40\n      mstore\n      dup1\n      swap3\n      swap2\n      swap1\n      dup2\n      dup2\n      mstore\n      0x20\n      add\n      dup3\n      dup1\n      sload\n      tag_107\n      swap1\n      tag_48\n      jump\t// in\n    tag_107:\n      dup1\n      iszero\n      tag_108\n      jumpi\n      dup1\n      0x1f\n      lt\n      tag_109\n      jumpi\n      0x0100\n      dup1\n      dup4\n      sload\n      div\n      mul\n      dup4\n      mstore\n      swap2\n      0x20\n      add\n      swap2\n      jump(tag_108)\n    tag_109:\n      dup3\n      add\n      swap2\n      swap1\n      0x00\n      mstore\n      keccak256(0x00, 0x20)\n      swap1\n    tag_110:\n      dup2\n      sload\n      dup2\n      mstore\n      swap1\n      0x01\n      add\n      swap1\n      0x20\n      add\n      dup1\n      dup4\n      gt\n      tag_110\n      jumpi\n      dup3\n      swap1\n      sub\n      0x1f\n      and\n      dup3\n      add\n      swap2\n    tag_108:\n      pop\n      pop\n      pop\n      pop\n      pop\n      dup2\n      mstore\n      0x20\n      add\n      0x05\n      dup3\n      add\n      dup1\n      sload\n      tag_111\n      swap1\n      tag_48\n      jump\t// in\n    tag_111:\n      dup1\n      0x1f\n      add\n      0x20\n      dup1\n      swap2\n      div\n      mul\n      0x20\n      add\n      mload(0x40)\n      swap1\n      dup2\n      add\n      0x40\n      mstore\n      dup1\n      swap3\n      swap2\n      swap1\n      dup2\n      dup2\n      mstore\n      0x20\n      add\n      dup3\n      dup1\n      sload\n      tag_112\n      swap1\n      tag_48\n      jump\t// in\n    tag_112:\n      dup1\n      iszero\n      tag_113\n      jumpi\n      dup1\n      0x1f\n      lt\n      tag_114\n      jumpi\n      0x0100\n      dup1\n      dup4\n      sload\n      div\n      mul\n      dup4\n      mstore\n      swap2\n      0x20\n      add\n      swap2\n      jump(tag_113)\n    tag_114:\n      dup3\n      add\n      swap2\n      swap1\n      0x00\n      mstore\n      keccak256(0x00, 0x20)\n      swap1\n    tag_115:\n      dup2\n      sload\n      dup2\n      mstore\n      swap1\n      0x01\n      add\n      swap1\n      0x20\n      add\n      dup1\n      dup4\n      gt\n      tag_115\n      jumpi\n      dup3\n      swap1\n      sub\n      0x1f\n      and\n      dup3\n      add\n      swap2\n    tag_113:\n      pop\n      pop\n      pop\n      pop\n      pop\n      dup2\n      mstore\n      0x20\n      add\n      0x06\n      dup3\n      add\n      sload\n      dup2\n      mstore\n      pop\n      pop\n      swap1\n      pop\n        /* \"1-RegistroFinca.sol\":1465:1466  0 */\n      0x00\n        /* \"1-RegistroFinca.sol\":1445:1446  b */\n      dup2\n        /* \"1-RegistroFinca.sol\":1445:1454  b.batchId */\n      0x00\n      add\n      mload\n        /* \"1-RegistroFinca.sol\":1439:1462  bytes(b.batchId).length */\n      mload\n        /* \"1-RegistroFinca.sol\":1439:1466  bytes(b.batchId).length > 0 */\n      gt\n        /* \"1-RegistroFinca.sol\":1431:1491  require(bytes(b.batchId).length > 0, \"Batch does not exist\") */\n      tag_116\n      jumpi\n      mload(0x40)\n      0x08c379a000000000000000000000000000000000000000000000000000000000\n      dup2\n      mstore\n      0x04\n      add\n      tag_117\n      swap1\n      tag_118\n      jump\t// in\n    tag_117:\n      mload(0x40)\n      dup1\n      swap2\n      sub\n      swap1\n      revert\n    tag_116:\n        /* \"1-RegistroFinca.sol\":1557:1558  b */\n      dup1\n        /* \"1-RegistroFinca.sol\":1557:1566  b.batchId */\n      0x00\n      add\n      mload\n        /* \"1-RegistroFinca.sol\":1580:1581  b */\n      dup2\n        /* \"1-RegistroFinca.sol\":1580:1594  b.producerName */\n      0x20\n      add\n      mload\n        /* \"1-RegistroFinca.sol\":1608:1609  b */\n      dup3\n        /* \"1-RegistroFinca.sol\":1608:1614  b.farm */\n      0x40\n      add\n      mload\n        /* \"1-RegistroFinca.sol\":1628:1629  b */\n      dup4\n        /* \"1-RegistroFinca.sol\":1628:1641  b.locationGPS */\n      0x60\n      add\n      mload\n        /* \"1-RegistroFinca.sol\":1655:1656  b */\n      dup5\n        /* \"1-RegistroFinca.sol\":1655:1671  b.tastingResults */\n      0x80\n      add\n      mload\n        /* \"1-RegistroFinca.sol\":1685:1686  b */\n      dup6\n        /* \"1-RegistroFinca.sol\":1685:1703  b.humidityAnalysis */\n      0xa0\n      add\n      mload\n        /* \"1-RegistroFinca.sol\":1717:1718  b */\n      dup7\n        /* \"1-RegistroFinca.sol\":1717:1728  b.timestamp */\n      0xc0\n      add\n      mload\n        /* \"1-RegistroFinca.sol\":1527:1738  abi.encodePacked(... */\n      add(0x20, mload(0x40))\n      tag_119\n      swap8\n      swap7\n      swap6\n      swap5\n      swap4\n      swap3\n      swap2\n      swap1\n      tag_120\n      jump\t// in\n    tag_119:\n      mload(0x40)\n      0x20\n      dup2\n      dup4\n      sub\n      sub\n      dup2\n      mstore\n      swap1\n      0x40\n      mstore\n        /* \"1-RegistroFinca.sol\":1517:1739  keccak256(abi.encodePacked(... */\n      dup1\n      mload\n      swap1\n      0x20\n      add\n      keccak256\n        /* \"1-RegistroFinca.sol\":1510:1739  return keccak256(abi.encodePacked(... */\n      swap2\n      pop\n      pop\n        /* \"1-RegistroFinca.sol\":1301:1746  function getBatchHash(string memory _batchId) public view returns (bytes32) {... */\n      swap2\n      swap1\n      pop\n      jump\t// out\n        /* \"1-RegistroFinca.sol\":2362:2461  function getAllBatchIds() public view returns (string[] memory) {... */\n    tag_29:\n        /* \"1-RegistroFinca.sol\":2409:2424  string[] memory */\n      0x60\n        /* \"1-RegistroFinca.sol\":2443:2454  allBatchIds */\n      0x01\n        /* \"1-RegistroFinca.sol\":2436:2454  return allBatchIds */\n      dup1\n      sload\n      dup1\n      0x20\n      mul\n      0x20\n      add\n      mload(0x40)\n      swap1\n      dup2\n      add\n      0x40\n      mstore\n      dup1\n      swap3\n      swap2\n      swap1\n      dup2\n      dup2\n      mstore\n      0x20\n      add\n      0x00\n      swap1\n    tag_122:\n      dup3\n      dup3\n      lt\n      iszero\n      tag_123\n      jumpi\n      dup4\n      dup3\n      swap1\n      0x00\n      mstore\n      keccak256(0x00, 0x20)\n      add\n      dup1\n      sload\n      tag_125\n      swap1\n      tag_48\n      jump\t// in\n    tag_125:\n      dup1\n      0x1f\n      add\n      0x20\n      dup1\n      swap2\n      div\n      mul\n      0x20\n      add\n      mload(0x40)\n      swap1\n      dup2\n      add\n      0x40\n      mstore\n      dup1\n      swap3\n      swap2\n      swap1\n      dup2\n      dup2\n      mstore\n      0x20\n      add\n      dup3\n      dup1\n      sload\n      tag_126\n      swap1\n      tag_48\n      jump\t// in\n    tag_126:\n      dup1\n      iszero\n      tag_127\n      jumpi\n      dup1\n      0x1f\n      lt\n      tag_128\n      jumpi\n      0x0100\n      dup1\n      dup4\n      sload\n      div\n      mul\n      dup4\n      mstore\n      swap2\n      0x20\n      add\n      swap2\n      jump(tag_127)\n    tag_128:\n      dup3\n      add\n      swap2\n      swap1\n      0x00\n      mstore\n      keccak256(0x00, 0x20)\n      swap1\n    tag_129:\n      dup2\n      sload\n      dup2\n      mstore\n      swap1\n      0x01\n      add\n      swap1\n      0x20\n      add\n      dup1\n      dup4\n      gt\n      tag_129\n      jumpi\n      dup3\n      swap1\n      sub\n      0x1f\n      and\n      dup3\n      add\n      swap2\n    tag_127:\n      pop\n      pop\n      pop\n      pop\n      pop\n      dup2\n      mstore\n      0x20\n      add\n      swap1\n      0x01\n      add\n      swap1\n      jump(tag_122)\n    tag_123:\n      pop\n      pop\n      pop\n      pop\n      swap1\n      pop\n        /* \"1-RegistroFinca.sol\":2362:2461  function getAllBatchIds() public view returns (string[] memory) {... */\n      swap1\n      jump\t// out\n        /* \"1-RegistroFinca.sol\":1756:2352  function getBatchInfo(string memory _batchId) public view returns (... */\n    tag_34:\n        /* \"1-RegistroFinca.sol\":1832:1858  string memory producerName */\n      0x60\n        /* \"1-RegistroFinca.sol\":1868:1886  string memory farm */\n      dup1\n        /* \"1-RegistroFinca.sol\":1896:1921  string memory locationGPS */\n      0x60\n        /* \"1-RegistroFinca.sol\":1931:1959  string memory tastingResults */\n      dup1\n        /* \"1-RegistroFinca.sol\":1969:1999  string memory humidityAnalysis */\n      0x60\n        /* \"1-RegistroFinca.sol\":2009:2026  uint256 timestamp */\n      0x00\n        /* \"1-RegistroFinca.sol\":2043:2057  Batch memory b */\n      dup1\n        /* \"1-RegistroFinca.sol\":2060:2067  batches */\n      0x00\n        /* \"1-RegistroFinca.sol\":2068:2076  _batchId */\n      dup9\n        /* \"1-RegistroFinca.sol\":2060:2077  batches[_batchId] */\n      mload(0x40)\n      tag_131\n      swap2\n      swap1\n      tag_85\n      jump\t// in\n    tag_131:\n      swap1\n      dup2\n      mstore\n      0x20\n      add\n      mload(0x40)\n      dup1\n      swap2\n      sub\n      swap1\n      keccak256\n        /* \"1-RegistroFinca.sol\":2043:2077  Batch memory b = batches[_batchId] */\n      mload(0x40)\n      dup1\n      0xe0\n      add\n      0x40\n      mstore\n      swap1\n      dup2\n      0x00\n      dup3\n      add\n      dup1\n      sload\n      tag_132\n      swap1\n      tag_48\n      jump\t// in\n    tag_132:\n      dup1\n      0x1f\n      add\n      0x20\n      dup1\n      swap2\n      div\n      mul\n      0x20\n      add\n      mload(0x40)\n      swap1\n      dup2\n      add\n      0x40\n      mstore\n      dup1\n      swap3\n      swap2\n      swap1\n      dup2\n      dup2\n      mstore\n      0x20\n      add\n      dup3\n      dup1\n      sload\n      tag_133\n      swap1\n      tag_48\n      jump\t// in\n    tag_133:\n      dup1\n      iszero\n      tag_134\n      jumpi\n      dup1\n      0x1f\n      lt\n      tag_135\n      jumpi\n      0x0100\n      dup1\n      dup4\n      sload\n      div\n      mul\n      dup4\n      mstore\n      swap2\n      0x20\n      add\n      swap2\n      jump(tag_134)\n    tag_135:\n      dup3\n      add\n      swap2\n      swap1\n      0x00\n      mstore\n      keccak256(0x00, 0x20)\n      swap1\n    tag_136:\n      dup2\n      sload\n      dup2\n      mstore\n      swap1\n      0x01\n      add\n      swap1\n      0x20\n      add\n      dup1\n      dup4\n      gt\n      tag_136\n      jumpi\n      dup3\n      swap1\n      sub\n      0x1f\n      and\n      dup3\n      add\n      swap2\n    tag_134:\n      pop\n      pop\n      pop\n      pop\n      pop\n      dup2\n      mstore\n      0x20\n      add\n      0x01\n      dup3\n      add\n      dup1\n      sload\n      tag_137\n      swap1\n      tag_48\n      jump\t// in\n    tag_137:\n      dup1\n      0x1f\n      add\n      0x20\n      dup1\n      swap2\n      div\n      mul\n      0x20\n      add\n      mload(0x40)\n      swap1\n      dup2\n      add\n      0x40\n      mstore\n      dup1\n      swap3\n      swap2\n      swap1\n      dup2\n      dup2\n      mstore\n      0x20\n      add\n      dup3\n      dup1\n      sload\n      tag_138\n      swap1\n      tag_48\n      jump\t// in\n    tag_138:\n      dup1\n      iszero\n      tag_139\n      jumpi\n      dup1\n      0x1f\n      lt\n      tag_140\n      jumpi\n      0x0100\n      dup1\n      dup4\n      sload\n      div\n      mul\n      dup4\n      mstore\n      swap2\n      0x20\n      add\n      swap2\n      jump(tag_139)\n    tag_140:\n      dup3\n      add\n      swap2\n      swap1\n      0x00\n      mstore\n      keccak256(0x00, 0x20)\n      swap1\n    tag_141:\n      dup2\n      sload\n      dup2\n      mstore\n      swap1\n      0x01\n      add\n      swap1\n      0x20\n      add\n      dup1\n      dup4\n      gt\n      tag_141\n      jumpi\n      dup3\n      swap1\n      sub\n      0x1f\n      and\n      dup3\n      add\n      swap2\n    tag_139:\n      pop\n      pop\n      pop\n      pop\n      pop\n      dup2\n      mstore\n      0x20\n      add\n      0x02\n      dup3\n      add\n      dup1\n      sload\n      tag_142\n      swap1\n      tag_48\n      jump\t// in\n    tag_142:\n      dup1\n      0x1f\n      add\n      0x20\n      dup1\n      swap2\n      div\n      mul\n      0x20\n      add\n      mload(0x40)\n      swap1\n      dup2\n      add\n      0x40\n      mstore\n      dup1\n      swap3\n      swap2\n      swap1\n      dup2\n      dup2\n      mstore\n      0x20\n      add\n      dup3\n      dup1\n      sload\n      tag_143\n      swap1\n      tag_48\n      jump\t// in\n    tag_143:\n      dup1\n      iszero\n      tag_144\n      jumpi\n      dup1\n      0x1f\n      lt\n      tag_145\n      jumpi\n      0x0100\n      dup1\n      dup4\n      sload\n      div\n      mul\n      dup4\n      mstore\n      swap2\n      0x20\n      add\n      swap2\n      jump(tag_144)\n    tag_145:\n      dup3\n      add\n      swap2\n      swap1\n      0x00\n      mstore\n      keccak256(0x00, 0x20)\n      swap1\n    tag_146:\n      dup2\n      sload\n      dup2\n      mstore\n      swap1\n      0x01\n      add\n      swap1\n      0x20\n      add\n      dup1\n      dup4\n      gt\n      tag_146\n      jumpi\n      dup3\n      swap1\n      sub\n      0x1f\n      and\n      dup3\n      add\n      swap2\n    tag_144:\n      pop\n      pop\n      pop\n      pop\n      pop\n      dup2\n      mstore\n      0x20\n      add\n      0x03\n      dup3\n      add\n      dup1\n      sload\n      tag_147\n      swap1\n      tag_48\n      jump\t// in\n    tag_147:\n      dup1\n      0x1f\n      add\n      0x20\n      dup1\n      swap2\n      div\n      mul\n      0x20\n      add\n      mload(0x40)\n      swap1\n      dup2\n      add\n      0x40\n      mstore\n      dup1\n      swap3\n      swap2\n      swap1\n      dup2\n      dup2\n      mstore\n      0x20\n      add\n      dup3\n      dup1\n      sload\n      tag_148\n      swap1\n      tag_48\n      jump\t// in\n    tag_148:\n      dup1\n      iszero\n      tag_149\n      jumpi\n      dup1\n      0x1f\n      lt\n      tag_150\n      jumpi\n      0x0100\n      dup1\n      dup4\n      sload\n      div\n      mul\n      dup4\n      mstore\n      swap2\n      0x20\n      add\n      swap2\n      jump(tag_149)\n    tag_150:\n      dup3\n      add\n      swap2\n      swap1\n      0x00\n      mstore\n      keccak256(0x00, 0x20)\n      swap1\n    tag_151:\n      dup2\n      sload\n      dup2\n      mstore\n      swap1\n      0x01\n      add\n      swap1\n      0x20\n      add\n      dup1\n      dup4\n      gt\n      tag_151\n      jumpi\n      dup3\n      swap1\n      sub\n      0x1f\n      and\n      dup3\n      add\n      swap2\n    tag_149:\n      pop\n      pop\n      pop\n      pop\n      pop\n      dup2\n      mstore\n      0x20\n      add\n      0x04\n      dup3\n      add\n      dup1\n      sload\n      tag_152\n      swap1\n      tag_48\n      jump\t// in\n    tag_152:\n      dup1\n      0x1f\n      add\n      0x20\n      dup1\n      swap2\n      div\n      mul\n      0x20\n      add\n      mload(0x40)\n      swap1\n      dup2\n      add\n      0x40\n      mstore\n      dup1\n      swap3\n      swap2\n      swap1\n      dup2\n      dup2\n      mstore\n      0x20\n      add\n      dup3\n      dup1\n      sload\n      tag_153\n      swap1\n      tag_48\n      jump\t// in\n    tag_153:\n      dup1\n      iszero\n      tag_154\n      jumpi\n      dup1\n      0x1f\n      lt\n      tag_155\n      jumpi\n      0x0100\n      dup1\n      dup4\n      sload\n      div\n      mul\n      dup4\n      mstore\n      swap2\n      0x20\n      add\n      swap2\n      jump(tag_154)\n    tag_155:\n      dup3\n      add\n      swap2\n      swap1\n      0x00\n      mstore\n      keccak256(0x00, 0x20)\n      swap1\n    tag_156:\n      dup2\n      sload\n      dup2\n      mstore\n      swap1\n      0x01\n      add\n      swap1\n      0x20\n      add\n      dup1\n      dup4\n      gt\n      tag_156\n      jumpi\n      dup3\n      swap1\n      sub\n      0x1f\n      and\n      dup3\n      add\n      swap2\n    tag_154:\n      pop\n      pop\n      pop\n      pop\n      pop\n      dup2\n      mstore\n      0x20\n      add\n      0x05\n      dup3\n      add\n      dup1\n      sload\n      tag_157\n      swap1\n      tag_48\n      jump\t// in\n    tag_157:\n      dup1\n      0x1f\n      add\n      0x20\n      dup1\n      swap2\n      div\n      mul\n      0x20\n      add\n      mload(0x40)\n      swap1\n      dup2\n      add\n      0x40\n      mstore\n      dup1\n      swap3\n      swap2\n      swap1\n      dup2\n      dup2\n      mstore\n      0x20\n      add\n      dup3\n      dup1\n      sload\n      tag_158\n      swap1\n      tag_48\n      jump\t// in\n    tag_158:\n      dup1\n      iszero\n      tag_159\n      jumpi\n      dup1\n      0x1f\n      lt\n      tag_160\n      jumpi\n      0x0100\n      dup1\n      dup4\n      sload\n      div\n      mul\n      dup4\n      mstore\n      swap2\n      0x20\n      add\n      swap2\n      jump(tag_159)\n    tag_160:\n      dup3\n      add\n      swap2\n      swap1\n      0x00\n      mstore\n      keccak256(0x00, 0x20)\n      swap1\n    tag_161:\n      dup2\n      sload\n      dup2\n      mstore\n      swap1\n      0x01\n      add\n      swap1\n      0x20\n      add\n      dup1\n      dup4\n      gt\n      tag_161\n      jumpi\n      dup3\n      swap1\n      sub\n      0x1f\n      and\n      dup3\n      add\n      swap2\n    tag_159:\n      pop\n      pop\n      pop\n      pop\n      pop\n      dup2\n      mstore\n      0x20\n      add\n      0x06\n      dup3\n      add\n      sload\n      dup2\n      mstore\n      pop\n      pop\n      swap1\n      pop\n        /* \"1-RegistroFinca.sol\":2121:2122  0 */\n      0x00\n        /* \"1-RegistroFinca.sol\":2101:2102  b */\n      dup2\n        /* \"1-RegistroFinca.sol\":2101:2110  b.batchId */\n      0x00\n      add\n      mload\n        /* \"1-RegistroFinca.sol\":2095:2118  bytes(b.batchId).length */\n      mload\n        /* \"1-RegistroFinca.sol\":2095:2122  bytes(b.batchId).length > 0 */\n      gt\n        /* \"1-RegistroFinca.sol\":2087:2147  require(bytes(b.batchId).length > 0, \"Batch does not exist\") */\n      tag_162\n      jumpi\n      mload(0x40)\n      0x08c379a000000000000000000000000000000000000000000000000000000000\n      dup2\n      mstore\n      0x04\n      add\n      tag_163\n      swap1\n      tag_118\n      jump\t// in\n    tag_163:\n      mload(0x40)\n      dup1\n      swap2\n      sub\n      swap1\n      revert\n    tag_162:\n        /* \"1-RegistroFinca.sol\":2187:2188  b */\n      dup1\n        /* \"1-RegistroFinca.sol\":2187:2201  b.producerName */\n      0x20\n      add\n      mload\n        /* \"1-RegistroFinca.sol\":2215:2216  b */\n      dup2\n        /* \"1-RegistroFinca.sol\":2215:2221  b.farm */\n      0x40\n      add\n      mload\n        /* \"1-RegistroFinca.sol\":2235:2236  b */\n      dup3\n        /* \"1-RegistroFinca.sol\":2235:2248  b.locationGPS */\n      0x60\n      add\n      mload\n        /* \"1-RegistroFinca.sol\":2262:2263  b */\n      dup4\n        /* \"1-RegistroFinca.sol\":2262:2278  b.tastingResults */\n      0x80\n      add\n      mload\n        /* \"1-RegistroFinca.sol\":2292:2293  b */\n      dup5\n        /* \"1-RegistroFinca.sol\":2292:2310  b.humidityAnalysis */\n      0xa0\n      add\n      mload\n        /* \"1-RegistroFinca.sol\":2324:2325  b */\n      dup6\n        /* \"1-RegistroFinca.sol\":2324:2335  b.timestamp */\n      0xc0\n      add\n      mload\n        /* \"1-RegistroFinca.sol\":2166:2345  return (... */\n      swap7\n      pop\n      swap7\n      pop\n      swap7\n      pop\n      swap7\n      pop\n      swap7\n      pop\n      swap7\n      pop\n      pop\n        /* \"1-RegistroFinca.sol\":1756:2352  function getBatchInfo(string memory _batchId) public view returns (... */\n      swap2\n      swap4\n      swap6\n      pop\n      swap2\n      swap4\n      swap6\n      jump\t// out\n        /* \"1-RegistroFinca.sol\":2471:2570  function getTotalBatches() public view returns (uint256) {... */\n    tag_38:\n        /* \"1-RegistroFinca.sol\":2519:2526  uint256 */\n      0x00\n        /* \"1-RegistroFinca.sol\":2545:2556  allBatchIds */\n      0x01\n        /* \"1-RegistroFinca.sol\":2545:2563  allBatchIds.length */\n      dup1\n      sload\n      swap1\n      pop\n        /* \"1-RegistroFinca.sol\":2538:2563  return allBatchIds.length */\n      swap1\n      pop\n        /* \"1-RegistroFinca.sol\":2471:2570  function getTotalBatches() public view returns (uint256) {... */\n      swap1\n      jump\t// out\n        /* \"1-RegistroFinca.sol\":460:1291  function registerBatch(... */\n    tag_44:\n        /* \"1-RegistroFinca.sol\":771:772  0 */\n      0x00\n        /* \"1-RegistroFinca.sol\":734:741  batches */\n      dup1\n        /* \"1-RegistroFinca.sol\":742:750  _batchId */\n      dup8\n        /* \"1-RegistroFinca.sol\":734:751  batches[_batchId] */\n      mload(0x40)\n      tag_166\n      swap2\n      swap1\n      tag_85\n      jump\t// in\n    tag_166:\n      swap1\n      dup2\n      mstore\n      0x20\n      add\n      mload(0x40)\n      dup1\n      swap2\n      sub\n      swap1\n      keccak256\n        /* \"1-RegistroFinca.sol\":734:759  batches[_batchId].batchId */\n      0x00\n      add\n        /* \"1-RegistroFinca.sol\":728:767  bytes(batches[_batchId].batchId).length */\n      dup1\n      sload\n      tag_167\n      swap1\n      tag_48\n      jump\t// in\n    tag_167:\n      swap1\n      pop\n        /* \"1-RegistroFinca.sol\":728:772  bytes(batches[_batchId].batchId).length == 0 */\n      eq\n        /* \"1-RegistroFinca.sol\":720:801  require(bytes(batches[_batchId].batchId).length == 0, \"Batch already registered\") */\n      tag_168\n      jumpi\n      mload(0x40)\n      0x08c379a000000000000000000000000000000000000000000000000000000000\n      dup2\n      mstore\n      0x04\n      add\n      tag_169\n      swap1\n      tag_170\n      jump\t// in\n    tag_169:\n      mload(0x40)\n      dup1\n      swap2\n      sub\n      swap1\n      revert\n    tag_168:\n        /* \"1-RegistroFinca.sol\":840:1127  Batch({... */\n      mload(0x40)\n      dup1\n      0xe0\n      add\n      0x40\n      mstore\n      dup1\n        /* \"1-RegistroFinca.sol\":869:877  _batchId */\n      dup8\n        /* \"1-RegistroFinca.sol\":840:1127  Batch({... */\n      dup2\n      mstore\n      0x20\n      add\n        /* \"1-RegistroFinca.sol\":905:918  _producerName */\n      dup7\n        /* \"1-RegistroFinca.sol\":840:1127  Batch({... */\n      dup2\n      mstore\n      0x20\n      add\n        /* \"1-RegistroFinca.sol\":938:943  _farm */\n      dup6\n        /* \"1-RegistroFinca.sol\":840:1127  Batch({... */\n      dup2\n      mstore\n      0x20\n      add\n        /* \"1-RegistroFinca.sol\":970:982  _locationGPS */\n      dup5\n        /* \"1-RegistroFinca.sol\":840:1127  Batch({... */\n      dup2\n      mstore\n      0x20\n      add\n        /* \"1-RegistroFinca.sol\":1012:1027  _tastingResults */\n      dup4\n        /* \"1-RegistroFinca.sol\":840:1127  Batch({... */\n      dup2\n      mstore\n      0x20\n      add\n        /* \"1-RegistroFinca.sol\":1059:1076  _humidityAnalysis */\n      dup3\n        /* \"1-RegistroFinca.sol\":840:1127  Batch({... */\n      dup2\n      mstore\n      0x20\n      add\n        /* \"1-RegistroFinca.sol\":1101:1116  block.timestamp */\n      timestamp\n        /* \"1-RegistroFinca.sol\":840:1127  Batch({... */\n      dup2\n      mstore\n      pop\n        /* \"1-RegistroFinca.sol\":820:827  batches */\n      0x00\n        /* \"1-RegistroFinca.sol\":828:836  _batchId */\n      dup8\n        /* \"1-RegistroFinca.sol\":820:837  batches[_batchId] */\n      mload(0x40)\n      tag_171\n      swap2\n      swap1\n      tag_85\n      jump\t// in\n    tag_171:\n      swap1\n      dup2\n      mstore\n      0x20\n      add\n      mload(0x40)\n      dup1\n      swap2\n      sub\n      swap1\n      keccak256\n        /* \"1-RegistroFinca.sol\":820:1127  batches[_batchId] = Batch({... */\n      0x00\n      dup3\n      add\n      mload\n      dup2\n      0x00\n      add\n      swap1\n      dup2\n      tag_172\n      swap2\n      swap1\n      tag_173\n      jump\t// in\n    tag_172:\n      pop\n      0x20\n      dup3\n      add\n      mload\n      dup2\n      0x01\n      add\n      swap1\n      dup2\n      tag_174\n      swap2\n      swap1\n      tag_173\n      jump\t// in\n    tag_174:\n      pop\n      0x40\n      dup3\n      add\n      mload\n      dup2\n      0x02\n      add\n      swap1\n      dup2\n      tag_175\n      swap2\n      swap1\n      tag_173\n      jump\t// in\n    tag_175:\n      pop\n      0x60\n      dup3\n      add\n      mload\n      dup2\n      0x03\n      add\n      swap1\n      dup2\n      tag_176\n      swap2\n      swap1\n      tag_173\n      jump\t// in\n    tag_176:\n      pop\n      0x80\n      dup3\n      add\n      mload\n      dup2\n      0x04\n      add\n      swap1\n      dup2\n      tag_177\n      swap2\n      swap1\n      tag_173\n      jump\t// in\n    tag_177:\n      pop\n      0xa0\n      dup3\n      add\n      mload\n      dup2\n      0x05\n      add\n      swap1\n      dup2\n      tag_178\n      swap2\n      swap1\n      tag_173\n      jump\t// in\n    tag_178:\n      pop\n      0xc0\n      dup3\n      add\n      mload\n      dup2\n      0x06\n      add\n      sstore\n      swap1\n      pop\n      pop\n        /* \"1-RegistroFinca.sol\":1146:1157  allBatchIds */\n      0x01\n        /* \"1-RegistroFinca.sol\":1163:1171  _batchId */\n      dup7\n        /* \"1-RegistroFinca.sol\":1146:1172  allBatchIds.push(_batchId) */\n      swap1\n      dup1\n      0x01\n      dup2\n      sload\n      add\n      dup1\n      dup3\n      sstore\n      dup1\n      swap2\n      pop\n      pop\n      0x01\n      swap1\n      sub\n      swap1\n      0x00\n      mstore\n      keccak256(0x00, 0x20)\n      add\n      0x00\n      swap1\n      swap2\n      swap1\n      swap2\n      swap1\n      swap2\n      pop\n      swap1\n      dup2\n      tag_180\n      swap2\n      swap1\n      tag_173\n      jump\t// in\n    tag_180:\n      pop\n        /* \"1-RegistroFinca.sol\":1191:1208  bytes32 batchHash */\n      0x00\n        /* \"1-RegistroFinca.sol\":1211:1233  getBatchHash(_batchId) */\n      tag_181\n        /* \"1-RegistroFinca.sol\":1224:1232  _batchId */\n      dup8\n        /* \"1-RegistroFinca.sol\":1211:1223  getBatchHash */\n      tag_25\n        /* \"1-RegistroFinca.sol\":1211:1233  getBatchHash(_batchId) */\n      jump\t// in\n    tag_181:\n        /* \"1-RegistroFinca.sol\":1191:1233  bytes32 batchHash = getBatchHash(_batchId) */\n      swap1\n      pop\n        /* \"1-RegistroFinca.sol\":1248:1284  BatchRegistered(_batchId, batchHash) */\n      0x609d236b1e89861dacd5955039123e735c00914465da65b79aa8cff0762e941c\n        /* \"1-RegistroFinca.sol\":1264:1272  _batchId */\n      dup8\n        /* \"1-RegistroFinca.sol\":1274:1283  batchHash */\n      dup3\n        /* \"1-RegistroFinca.sol\":1248:1284  BatchRegistered(_batchId, batchHash) */\n      mload(0x40)\n      tag_182\n      swap3\n      swap2\n      swap1\n      tag_183\n      jump\t// in\n    tag_182:\n      mload(0x40)\n      dup1\n      swap2\n      sub\n      swap1\n      log1\n        /* \"1-RegistroFinca.sol\":710:1291  {... */\n      pop\n        /* \"1-RegistroFinca.sol\":460:1291  function registerBatch(... */\n      pop\n      pop\n      pop\n      pop\n      pop\n      pop\n      jump\t// out\n        /* \"#utility.yul\":7:82   */\n    tag_184:\n        /* \"#utility.yul\":40:46   */\n      0x00\n        /* \"#utility.yul\":73:75   */\n      0x40\n        /* \"#utility.yul\":67:76   */\n      mload\n        /* \"#utility.yul\":57:76   */\n      swap1\n      pop\n        /* \"#utility.yul\":7:82   */\n      swap1\n      jump\t// out\n        /* \"#utility.yul\":88:205   */\n    tag_185:\n        /* \"#utility.yul\":197:198   */\n      0x00\n        /* \"#utility.yul\":194:195   */\n      dup1\n        /* \"#utility.yul\":187:199   */\n      revert\n        /* \"#utility.yul\":211:328   */\n    tag_186:\n        /* \"#utility.yul\":320:321   */\n      0x00\n        /* \"#utility.yul\":317:318   */\n      dup1\n        /* \"#utility.yul\":310:322   */\n      revert\n        /* \"#utility.yul\":334:411   */\n    tag_187:\n        /* \"#utility.yul\":371:378   */\n      0x00\n        /* \"#utility.yul\":400:405   */\n      dup2\n        /* \"#utility.yul\":389:405   */\n      swap1\n      pop\n        /* \"#utility.yul\":334:411   */\n      swap2\n      swap1\n      pop\n      jump\t// out\n        /* \"#utility.yul\":417:539   */\n    tag_188:\n        /* \"#utility.yul\":490:514   */\n      tag_245\n        /* \"#utility.yul\":508:513   */\n      dup2\n        /* \"#utility.yul\":490:514   */\n      tag_187\n      jump\t// in\n    tag_245:\n        /* \"#utility.yul\":483:488   */\n      dup2\n        /* \"#utility.yul\":480:515   */\n      eq\n        /* \"#utility.yul\":470:533   */\n      tag_246\n      jumpi\n        /* \"#utility.yul\":529:530   */\n      0x00\n        /* \"#utility.yul\":526:527   */\n      dup1\n        /* \"#utility.yul\":519:531   */\n      revert\n        /* \"#utility.yul\":470:533   */\n    tag_246:\n        /* \"#utility.yul\":417:539   */\n      pop\n      jump\t// out\n        /* \"#utility.yul\":545:684   */\n    tag_189:\n        /* \"#utility.yul\":591:596   */\n      0x00\n        /* \"#utility.yul\":629:635   */\n      dup2\n        /* \"#utility.yul\":616:636   */\n      calldataload\n        /* \"#utility.yul\":607:636   */\n      swap1\n      pop\n        /* \"#utility.yul\":645:678   */\n      tag_248\n        /* \"#utility.yul\":672:677   */\n      dup2\n        /* \"#utility.yul\":645:678   */\n      tag_188\n      jump\t// in\n    tag_248:\n        /* \"#utility.yul\":545:684   */\n      swap3\n      swap2\n      pop\n      pop\n      jump\t// out\n        /* \"#utility.yul\":690:1019   */\n    tag_13:\n        /* \"#utility.yul\":749:755   */\n      0x00\n        /* \"#utility.yul\":798:800   */\n      0x20\n        /* \"#utility.yul\":786:795   */\n      dup3\n        /* \"#utility.yul\":777:784   */\n      dup5\n        /* \"#utility.yul\":773:796   */\n      sub\n        /* \"#utility.yul\":769:801   */\n      slt\n        /* \"#utility.yul\":766:885   */\n      iszero\n      tag_250\n      jumpi\n        /* \"#utility.yul\":804:883   */\n      tag_251\n      tag_185\n      jump\t// in\n    tag_251:\n        /* \"#utility.yul\":766:885   */\n    tag_250:\n        /* \"#utility.yul\":924:925   */\n      0x00\n        /* \"#utility.yul\":949:1002   */\n      tag_252\n        /* \"#utility.yul\":994:1001   */\n      dup5\n        /* \"#utility.yul\":985:991   */\n      dup3\n        /* \"#utility.yul\":974:983   */\n      dup6\n        /* \"#utility.yul\":970:992   */\n      add\n        /* \"#utility.yul\":949:1002   */\n      tag_189\n      jump\t// in\n    tag_252:\n        /* \"#utility.yul\":939:1002   */\n      swap2\n      pop\n        /* \"#utility.yul\":895:1012   */\n      pop\n        /* \"#utility.yul\":690:1019   */\n      swap3\n      swap2\n      pop\n      pop\n      jump\t// out\n        /* \"#utility.yul\":1025:1124   */\n    tag_190:\n        /* \"#utility.yul\":1077:1083   */\n      0x00\n        /* \"#utility.yul\":1111:1116   */\n      dup2\n        /* \"#utility.yul\":1105:1117   */\n      mload\n        /* \"#utility.yul\":1095:1117   */\n      swap1\n      pop\n        /* \"#utility.yul\":1025:1124   */\n      swap2\n      swap1\n      pop\n      jump\t// out\n        /* \"#utility.yul\":1130:1299   */\n    tag_191:\n        /* \"#utility.yul\":1214:1225   */\n      0x00\n        /* \"#utility.yul\":1248:1254   */\n      dup3\n        /* \"#utility.yul\":1243:1246   */\n      dup3\n        /* \"#utility.yul\":1236:1255   */\n      mstore\n        /* \"#utility.yul\":1288:1292   */\n      0x20\n        /* \"#utility.yul\":1283:1286   */\n      dup3\n        /* \"#utility.yul\":1279:1293   */\n      add\n        /* \"#utility.yul\":1264:1293   */\n      swap1\n      pop\n        /* \"#utility.yul\":1130:1299   */\n      swap3\n      swap2\n      pop\n      pop\n      jump\t// out\n        /* \"#utility.yul\":1305:1444   */\n    tag_192:\n        /* \"#utility.yul\":1394:1400   */\n      dup3\n        /* \"#utility.yul\":1389:1392   */\n      dup2\n        /* \"#utility.yul\":1384:1387   */\n      dup4\n        /* \"#utility.yul\":1378:1401   */\n      mcopy\n        /* \"#utility.yul\":1435:1436   */\n      0x00\n        /* \"#utility.yul\":1426:1432   */\n      dup4\n        /* \"#utility.yul\":1421:1424   */\n      dup4\n        /* \"#utility.yul\":1417:1433   */\n      add\n        /* \"#utility.yul\":1410:1437   */\n      mstore\n        /* \"#utility.yul\":1305:1444   */\n      pop\n      pop\n      pop\n      jump\t// out\n        /* \"#utility.yul\":1450:1552   */\n    tag_193:\n        /* \"#utility.yul\":1491:1497   */\n      0x00\n        /* \"#utility.yul\":1542:1544   */\n      0x1f\n        /* \"#utility.yul\":1538:1545   */\n      not\n        /* \"#utility.yul\":1533:1535   */\n      0x1f\n        /* \"#utility.yul\":1526:1531   */\n      dup4\n        /* \"#utility.yul\":1522:1536   */\n      add\n        /* \"#utility.yul\":1518:1546   */\n      and\n        /* \"#utility.yul\":1508:1546   */\n      swap1\n      pop\n        /* \"#utility.yul\":1450:1552   */\n      swap2\n      swap1\n      pop\n      jump\t// out\n        /* \"#utility.yul\":1558:1935   */\n    tag_194:\n        /* \"#utility.yul\":1646:1649   */\n      0x00\n        /* \"#utility.yul\":1674:1713   */\n      tag_258\n        /* \"#utility.yul\":1707:1712   */\n      dup3\n        /* \"#utility.yul\":1674:1713   */\n      tag_190\n      jump\t// in\n    tag_258:\n        /* \"#utility.yul\":1729:1800   */\n      tag_259\n        /* \"#utility.yul\":1793:1799   */\n      dup2\n        /* \"#utility.yul\":1788:1791   */\n      dup6\n        /* \"#utility.yul\":1729:1800   */\n      tag_191\n      jump\t// in\n    tag_259:\n        /* \"#utility.yul\":1722:1800   */\n      swap4\n      pop\n        /* \"#utility.yul\":1809:1874   */\n      tag_260\n        /* \"#utility.yul\":1867:1873   */\n      dup2\n        /* \"#utility.yul\":1862:1865   */\n      dup6\n        /* \"#utility.yul\":1855:1859   */\n      0x20\n        /* \"#utility.yul\":1848:1853   */\n      dup7\n        /* \"#utility.yul\":1844:1860   */\n      add\n        /* \"#utility.yul\":1809:1874   */\n      tag_192\n      jump\t// in\n    tag_260:\n        /* \"#utility.yul\":1899:1928   */\n      tag_261\n        /* \"#utility.yul\":1921:1927   */\n      dup2\n        /* \"#utility.yul\":1899:1928   */\n      tag_193\n      jump\t// in\n    tag_261:\n        /* \"#utility.yul\":1894:1897   */\n      dup5\n        /* \"#utility.yul\":1890:1929   */\n      add\n        /* \"#utility.yul\":1883:1929   */\n      swap2\n      pop\n        /* \"#utility.yul\":1650:1935   */\n      pop\n        /* \"#utility.yul\":1558:1935   */\n      swap3\n      swap2\n      pop\n      pop\n      jump\t// out\n        /* \"#utility.yul\":1941:2254   */\n    tag_16:\n        /* \"#utility.yul\":2054:2058   */\n      0x00\n        /* \"#utility.yul\":2092:2094   */\n      0x20\n        /* \"#utility.yul\":2081:2090   */\n      dup3\n        /* \"#utility.yul\":2077:2095   */\n      add\n        /* \"#utility.yul\":2069:2095   */\n      swap1\n      pop\n        /* \"#utility.yul\":2141:2150   */\n      dup2\n        /* \"#utility.yul\":2135:2139   */\n      dup2\n        /* \"#utility.yul\":2131:2151   */\n      sub\n        /* \"#utility.yul\":2127:2128   */\n      0x00\n        /* \"#utility.yul\":2116:2125   */\n      dup4\n        /* \"#utility.yul\":2112:2129   */\n      add\n        /* \"#utility.yul\":2105:2152   */\n      mstore\n        /* \"#utility.yul\":2169:2247   */\n      tag_263\n        /* \"#utility.yul\":2242:2246   */\n      dup2\n        /* \"#utility.yul\":2233:2239   */\n      dup5\n        /* \"#utility.yul\":2169:2247   */\n      tag_194\n      jump\t// in\n    tag_263:\n        /* \"#utility.yul\":2161:2247   */\n      swap1\n      pop\n        /* \"#utility.yul\":1941:2254   */\n      swap3\n      swap2\n      pop\n      pop\n      jump\t// out\n        /* \"#utility.yul\":2260:2377   */\n    tag_195:\n        /* \"#utility.yul\":2369:2370   */\n      0x00\n        /* \"#utility.yul\":2366:2367   */\n      dup1\n        /* \"#utility.yul\":2359:2371   */\n      revert\n        /* \"#utility.yul\":2383:2500   */\n    tag_196:\n        /* \"#utility.yul\":2492:2493   */\n      0x00\n        /* \"#utility.yul\":2489:2490   */\n      dup1\n        /* \"#utility.yul\":2482:2494   */\n      revert\n        /* \"#utility.yul\":2506:2686   */\n    tag_197:\n        /* \"#utility.yul\":2554:2631   */\n      0x4e487b7100000000000000000000000000000000000000000000000000000000\n        /* \"#utility.yul\":2551:2552   */\n      0x00\n        /* \"#utility.yul\":2544:2632   */\n      mstore\n        /* \"#utility.yul\":2651:2655   */\n      0x41\n        /* \"#utility.yul\":2648:2649   */\n      0x04\n        /* \"#utility.yul\":2641:2656   */\n      mstore\n        /* \"#utility.yul\":2675:2679   */\n      0x24\n        /* \"#utility.yul\":2672:2673   */\n      0x00\n        /* \"#utility.yul\":2665:2680   */\n      revert\n        /* \"#utility.yul\":2692:2973   */\n    tag_198:\n        /* \"#utility.yul\":2775:2802   */\n      tag_268\n        /* \"#utility.yul\":2797:2801   */\n      dup3\n        /* \"#utility.yul\":2775:2802   */\n      tag_193\n      jump\t// in\n    tag_268:\n        /* \"#utility.yul\":2767:2773   */\n      dup2\n        /* \"#utility.yul\":2763:2803   */\n      add\n        /* \"#utility.yul\":2905:2911   */\n      dup2\n        /* \"#utility.yul\":2893:2903   */\n      dup2\n        /* \"#utility.yul\":2890:2912   */\n      lt\n        /* \"#utility.yul\":2869:2887   */\n      0xffffffffffffffff\n        /* \"#utility.yul\":2857:2867   */\n      dup3\n        /* \"#utility.yul\":2854:2888   */\n      gt\n        /* \"#utility.yul\":2851:2913   */\n      or\n        /* \"#utility.yul\":2848:2936   */\n      iszero\n      tag_269\n      jumpi\n        /* \"#utility.yul\":2916:2934   */\n      tag_270\n      tag_197\n      jump\t// in\n    tag_270:\n        /* \"#utility.yul\":2848:2936   */\n    tag_269:\n        /* \"#utility.yul\":2956:2966   */\n      dup1\n        /* \"#utility.yul\":2952:2954   */\n      0x40\n        /* \"#utility.yul\":2945:2967   */\n      mstore\n        /* \"#utility.yul\":2735:2973   */\n      pop\n        /* \"#utility.yul\":2692:2973   */\n      pop\n      pop\n      jump\t// out\n        /* \"#utility.yul\":2979:3108   */\n    tag_199:\n        /* \"#utility.yul\":3013:3019   */\n      0x00\n        /* \"#utility.yul\":3040:3060   */\n      tag_272\n      tag_184\n      jump\t// in\n    tag_272:\n        /* \"#utility.yul\":3030:3060   */\n      swap1\n      pop\n        /* \"#utility.yul\":3069:3102   */\n      tag_273\n        /* \"#utility.yul\":3097:3101   */\n      dup3\n        /* \"#utility.yul\":3089:3095   */\n      dup3\n        /* \"#utility.yul\":3069:3102   */\n      tag_198\n      jump\t// in\n    tag_273:\n        /* \"#utility.yul\":2979:3108   */\n      swap2\n      swap1\n      pop\n      jump\t// out\n        /* \"#utility.yul\":3114:3422   */\n    tag_200:\n        /* \"#utility.yul\":3176:3180   */\n      0x00\n        /* \"#utility.yul\":3266:3284   */\n      0xffffffffffffffff\n        /* \"#utility.yul\":3258:3264   */\n      dup3\n        /* \"#utility.yul\":3255:3285   */\n      gt\n        /* \"#utility.yul\":3252:3308   */\n      iszero\n      tag_275\n      jumpi\n        /* \"#utility.yul\":3288:3306   */\n      tag_276\n      tag_197\n      jump\t// in\n    tag_276:\n        /* \"#utility.yul\":3252:3308   */\n    tag_275:\n        /* \"#utility.yul\":3326:3355   */\n      tag_277\n        /* \"#utility.yul\":3348:3354   */\n      dup3\n        /* \"#utility.yul\":3326:3355   */\n      tag_193\n      jump\t// in\n    tag_277:\n        /* \"#utility.yul\":3318:3355   */\n      swap1\n      pop\n        /* \"#utility.yul\":3410:3414   */\n      0x20\n        /* \"#utility.yul\":3404:3408   */\n      dup2\n        /* \"#utility.yul\":3400:3415   */\n      add\n        /* \"#utility.yul\":3392:3415   */\n      swap1\n      pop\n        /* \"#utility.yul\":3114:3422   */\n      swap2\n      swap1\n      pop\n      jump\t// out\n        /* \"#utility.yul\":3428:3576   */\n    tag_201:\n        /* \"#utility.yul\":3526:3532   */\n      dup3\n        /* \"#utility.yul\":3521:3524   */\n      dup2\n        /* \"#utility.yul\":3516:3519   */\n      dup4\n        /* \"#utility.yul\":3503:3533   */\n      calldatacopy\n        /* \"#utility.yul\":3567:3568   */\n      0x00\n        /* \"#utility.yul\":3558:3564   */\n      dup4\n        /* \"#utility.yul\":3553:3556   */\n      dup4\n        /* \"#utility.yul\":3549:3565   */\n      add\n        /* \"#utility.yul\":3542:3569   */\n      mstore\n        /* \"#utility.yul\":3428:3576   */\n      pop\n      pop\n      pop\n      jump\t// out\n        /* \"#utility.yul\":3582:4007   */\n    tag_202:\n        /* \"#utility.yul\":3660:3665   */\n      0x00\n        /* \"#utility.yul\":3685:3751   */\n      tag_280\n        /* \"#utility.yul\":3701:3750   */\n      tag_281\n        /* \"#utility.yul\":3743:3749   */\n      dup5\n        /* \"#utility.yul\":3701:3750   */\n      tag_200\n      jump\t// in\n    tag_281:\n        /* \"#utility.yul\":3685:3751   */\n      tag_199\n      jump\t// in\n    tag_280:\n        /* \"#utility.yul\":3676:3751   */\n      swap1\n      pop\n        /* \"#utility.yul\":3774:3780   */\n      dup3\n        /* \"#utility.yul\":3767:3772   */\n      dup2\n        /* \"#utility.yul\":3760:3781   */\n      mstore\n        /* \"#utility.yul\":3812:3816   */\n      0x20\n        /* \"#utility.yul\":3805:3810   */\n      dup2\n        /* \"#utility.yul\":3801:3817   */\n      add\n        /* \"#utility.yul\":3850:3853   */\n      dup5\n        /* \"#utility.yul\":3841:3847   */\n      dup5\n        /* \"#utility.yul\":3836:3839   */\n      dup5\n        /* \"#utility.yul\":3832:3848   */\n      add\n        /* \"#utility.yul\":3829:3854   */\n      gt\n        /* \"#utility.yul\":3826:3938   */\n      iszero\n      tag_282\n      jumpi\n        /* \"#utility.yul\":3857:3936   */\n      tag_283\n      tag_196\n      jump\t// in\n    tag_283:\n        /* \"#utility.yul\":3826:3938   */\n    tag_282:\n        /* \"#utility.yul\":3947:4001   */\n      tag_284\n        /* \"#utility.yul\":3994:4000   */\n      dup5\n        /* \"#utility.yul\":3989:3992   */\n      dup3\n        /* \"#utility.yul\":3984:3987   */\n      dup6\n        /* \"#utility.yul\":3947:4001   */\n      tag_201\n      jump\t// in\n    tag_284:\n        /* \"#utility.yul\":3666:4007   */\n      pop\n        /* \"#utility.yul\":3582:4007   */\n      swap4\n      swap3\n      pop\n      pop\n      pop\n      jump\t// out\n        /* \"#utility.yul\":4027:4367   */\n    tag_203:\n        /* \"#utility.yul\":4083:4088   */\n      0x00\n        /* \"#utility.yul\":4132:4135   */\n      dup3\n        /* \"#utility.yul\":4125:4129   */\n      0x1f\n        /* \"#utility.yul\":4117:4123   */\n      dup4\n        /* \"#utility.yul\":4113:4130   */\n      add\n        /* \"#utility.yul\":4109:4136   */\n      slt\n        /* \"#utility.yul\":4099:4221   */\n      tag_286\n      jumpi\n        /* \"#utility.yul\":4140:4219   */\n      tag_287\n      tag_195\n      jump\t// in\n    tag_287:\n        /* \"#utility.yul\":4099:4221   */\n    tag_286:\n        /* \"#utility.yul\":4257:4263   */\n      dup2\n        /* \"#utility.yul\":4244:4264   */\n      calldataload\n        /* \"#utility.yul\":4282:4361   */\n      tag_288\n        /* \"#utility.yul\":4357:4360   */\n      dup5\n        /* \"#utility.yul\":4349:4355   */\n      dup3\n        /* \"#utility.yul\":4342:4346   */\n      0x20\n        /* \"#utility.yul\":4334:4340   */\n      dup7\n        /* \"#utility.yul\":4330:4347   */\n      add\n        /* \"#utility.yul\":4282:4361   */\n      tag_202\n      jump\t// in\n    tag_288:\n        /* \"#utility.yul\":4273:4361   */\n      swap2\n      pop\n        /* \"#utility.yul\":4089:4367   */\n      pop\n        /* \"#utility.yul\":4027:4367   */\n      swap3\n      swap2\n      pop\n      pop\n      jump\t// out\n        /* \"#utility.yul\":4373:4882   */\n    tag_19:\n        /* \"#utility.yul\":4442:4448   */\n      0x00\n        /* \"#utility.yul\":4491:4493   */\n      0x20\n        /* \"#utility.yul\":4479:4488   */\n      dup3\n        /* \"#utility.yul\":4470:4477   */\n      dup5\n        /* \"#utility.yul\":4466:4489   */\n      sub\n        /* \"#utility.yul\":4462:4494   */\n      slt\n        /* \"#utility.yul\":4459:4578   */\n      iszero\n      tag_290\n      jumpi\n        /* \"#utility.yul\":4497:4576   */\n      tag_291\n      tag_185\n      jump\t// in\n    tag_291:\n        /* \"#utility.yul\":4459:4578   */\n    tag_290:\n        /* \"#utility.yul\":4645:4646   */\n      0x00\n        /* \"#utility.yul\":4634:4643   */\n      dup3\n        /* \"#utility.yul\":4630:4647   */\n      add\n        /* \"#utility.yul\":4617:4648   */\n      calldataload\n        /* \"#utility.yul\":4675:4693   */\n      0xffffffffffffffff\n        /* \"#utility.yul\":4667:4673   */\n      dup2\n        /* \"#utility.yul\":4664:4694   */\n      gt\n        /* \"#utility.yul\":4661:4778   */\n      iszero\n      tag_292\n      jumpi\n        /* \"#utility.yul\":4697:4776   */\n      tag_293\n      tag_186\n      jump\t// in\n    tag_293:\n        /* \"#utility.yul\":4661:4778   */\n    tag_292:\n        /* \"#utility.yul\":4802:4865   */\n      tag_294\n        /* \"#utility.yul\":4857:4864   */\n      dup5\n        /* \"#utility.yul\":4848:4854   */\n      dup3\n        /* \"#utility.yul\":4837:4846   */\n      dup6\n        /* \"#utility.yul\":4833:4855   */\n      add\n        /* \"#utility.yul\":4802:4865   */\n      tag_203\n      jump\t// in\n    tag_294:\n        /* \"#utility.yul\":4792:4865   */\n      swap2\n      pop\n        /* \"#utility.yul\":4588:4875   */\n      pop\n        /* \"#utility.yul\":4373:4882   */\n      swap3\n      swap2\n      pop\n      pop\n      jump\t// out\n        /* \"#utility.yul\":4888:5006   */\n    tag_204:\n        /* \"#utility.yul\":4975:4999   */\n      tag_296\n        /* \"#utility.yul\":4993:4998   */\n      dup2\n        /* \"#utility.yul\":4975:4999   */\n      tag_187\n      jump\t// in\n    tag_296:\n        /* \"#utility.yul\":4970:4973   */\n      dup3\n        /* \"#utility.yul\":4963:5000   */\n      mstore\n        /* \"#utility.yul\":4888:5006   */\n      pop\n      pop\n      jump\t// out\n        /* \"#utility.yul\":5012:6444   */\n    tag_22:\n        /* \"#utility.yul\":5393:5397   */\n      0x00\n        /* \"#utility.yul\":5431:5434   */\n      0xe0\n        /* \"#utility.yul\":5420:5429   */\n      dup3\n        /* \"#utility.yul\":5416:5435   */\n      add\n        /* \"#utility.yul\":5408:5435   */\n      swap1\n      pop\n        /* \"#utility.yul\":5481:5490   */\n      dup2\n        /* \"#utility.yul\":5475:5479   */\n      dup2\n        /* \"#utility.yul\":5471:5491   */\n      sub\n        /* \"#utility.yul\":5467:5468   */\n      0x00\n        /* \"#utility.yul\":5456:5465   */\n      dup4\n        /* \"#utility.yul\":5452:5469   */\n      add\n        /* \"#utility.yul\":5445:5492   */\n      mstore\n        /* \"#utility.yul\":5509:5587   */\n      tag_298\n        /* \"#utility.yul\":5582:5586   */\n      dup2\n        /* \"#utility.yul\":5573:5579   */\n      dup11\n        /* \"#utility.yul\":5509:5587   */\n      tag_194\n      jump\t// in\n    tag_298:\n        /* \"#utility.yul\":5501:5587   */\n      swap1\n      pop\n        /* \"#utility.yul\":5634:5643   */\n      dup2\n        /* \"#utility.yul\":5628:5632   */\n      dup2\n        /* \"#utility.yul\":5624:5644   */\n      sub\n        /* \"#utility.yul\":5619:5621   */\n      0x20\n        /* \"#utility.yul\":5608:5617   */\n      dup4\n        /* \"#utility.yul\":5604:5622   */\n      add\n        /* \"#utility.yul\":5597:5645   */\n      mstore\n        /* \"#utility.yul\":5662:5740   */\n      tag_299\n        /* \"#utility.yul\":5735:5739   */\n      dup2\n        /* \"#utility.yul\":5726:5732   */\n      dup10\n        /* \"#utility.yul\":5662:5740   */\n      tag_194\n      jump\t// in\n    tag_299:\n        /* \"#utility.yul\":5654:5740   */\n      swap1\n      pop\n        /* \"#utility.yul\":5787:5796   */\n      dup2\n        /* \"#utility.yul\":5781:5785   */\n      dup2\n        /* \"#utility.yul\":5777:5797   */\n      sub\n        /* \"#utility.yul\":5772:5774   */\n      0x40\n        /* \"#utility.yul\":5761:5770   */\n      dup4\n        /* \"#utility.yul\":5757:5775   */\n      add\n        /* \"#utility.yul\":5750:5798   */\n      mstore\n        /* \"#utility.yul\":5815:5893   */\n      tag_300\n        /* \"#utility.yul\":5888:5892   */\n      dup2\n        /* \"#utility.yul\":5879:5885   */\n      dup9\n        /* \"#utility.yul\":5815:5893   */\n      tag_194\n      jump\t// in\n    tag_300:\n        /* \"#utility.yul\":5807:5893   */\n      swap1\n      pop\n        /* \"#utility.yul\":5940:5949   */\n      dup2\n        /* \"#utility.yul\":5934:5938   */\n      dup2\n        /* \"#utility.yul\":5930:5950   */\n      sub\n        /* \"#utility.yul\":5925:5927   */\n      0x60\n        /* \"#utility.yul\":5914:5923   */\n      dup4\n        /* \"#utility.yul\":5910:5928   */\n      add\n        /* \"#utility.yul\":5903:5951   */\n      mstore\n        /* \"#utility.yul\":5968:6046   */\n      tag_301\n        /* \"#utility.yul\":6041:6045   */\n      dup2\n        /* \"#utility.yul\":6032:6038   */\n      dup8\n        /* \"#utility.yul\":5968:6046   */\n      tag_194\n      jump\t// in\n    tag_301:\n        /* \"#utility.yul\":5960:6046   */\n      swap1\n      pop\n        /* \"#utility.yul\":6094:6103   */\n      dup2\n        /* \"#utility.yul\":6088:6092   */\n      dup2\n        /* \"#utility.yul\":6084:6104   */\n      sub\n        /* \"#utility.yul\":6078:6081   */\n      0x80\n        /* \"#utility.yul\":6067:6076   */\n      dup4\n        /* \"#utility.yul\":6063:6082   */\n      add\n        /* \"#utility.yul\":6056:6105   */\n      mstore\n        /* \"#utility.yul\":6122:6200   */\n      tag_302\n        /* \"#utility.yul\":6195:6199   */\n      dup2\n        /* \"#utility.yul\":6186:6192   */\n      dup7\n        /* \"#utility.yul\":6122:6200   */\n      tag_194\n      jump\t// in\n    tag_302:\n        /* \"#utility.yul\":6114:6200   */\n      swap1\n      pop\n        /* \"#utility.yul\":6248:6257   */\n      dup2\n        /* \"#utility.yul\":6242:6246   */\n      dup2\n        /* \"#utility.yul\":6238:6258   */\n      sub\n        /* \"#utility.yul\":6232:6235   */\n      0xa0\n        /* \"#utility.yul\":6221:6230   */\n      dup4\n        /* \"#utility.yul\":6217:6236   */\n      add\n        /* \"#utility.yul\":6210:6259   */\n      mstore\n        /* \"#utility.yul\":6276:6354   */\n      tag_303\n        /* \"#utility.yul\":6349:6353   */\n      dup2\n        /* \"#utility.yul\":6340:6346   */\n      dup6\n        /* \"#utility.yul\":6276:6354   */\n      tag_194\n      jump\t// in\n    tag_303:\n        /* \"#utility.yul\":6268:6354   */\n      swap1\n      pop\n        /* \"#utility.yul\":6364:6437   */\n      tag_304\n        /* \"#utility.yul\":6432:6435   */\n      0xc0\n        /* \"#utility.yul\":6421:6430   */\n      dup4\n        /* \"#utility.yul\":6417:6436   */\n      add\n        /* \"#utility.yul\":6408:6414   */\n      dup5\n        /* \"#utility.yul\":6364:6437   */\n      tag_204\n      jump\t// in\n    tag_304:\n        /* \"#utility.yul\":5012:6444   */\n      swap9\n      swap8\n      pop\n      pop\n      pop\n      pop\n      pop\n      pop\n      pop\n      pop\n      jump\t// out\n        /* \"#utility.yul\":6450:6527   */\n    tag_205:\n        /* \"#utility.yul\":6487:6494   */\n      0x00\n        /* \"#utility.yul\":6516:6521   */\n      dup2\n        /* \"#utility.yul\":6505:6521   */\n      swap1\n      pop\n        /* \"#utility.yul\":6450:6527   */\n      swap2\n      swap1\n      pop\n      jump\t// out\n        /* \"#utility.yul\":6533:6651   */\n    tag_206:\n        /* \"#utility.yul\":6620:6644   */\n      tag_307\n        /* \"#utility.yul\":6638:6643   */\n      dup2\n        /* \"#utility.yul\":6620:6644   */\n      tag_205\n      jump\t// in\n    tag_307:\n        /* \"#utility.yul\":6615:6618   */\n      dup3\n        /* \"#utility.yul\":6608:6645   */\n      mstore\n        /* \"#utility.yul\":6533:6651   */\n      pop\n      pop\n      jump\t// out\n        /* \"#utility.yul\":6657:6879   */\n    tag_27:\n        /* \"#utility.yul\":6750:6754   */\n      0x00\n        /* \"#utility.yul\":6788:6790   */\n      0x20\n        /* \"#utility.yul\":6777:6786   */\n      dup3\n        /* \"#utility.yul\":6773:6791   */\n      add\n        /* \"#utility.yul\":6765:6791   */\n      swap1\n      pop\n        /* \"#utility.yul\":6801:6872   */\n      tag_309\n        /* \"#utility.yul\":6869:6870   */\n      0x00\n        /* \"#utility.yul\":6858:6867   */\n      dup4\n        /* \"#utility.yul\":6854:6871   */\n      add\n        /* \"#utility.yul\":6845:6851   */\n      dup5\n        /* \"#utility.yul\":6801:6872   */\n      tag_206\n      jump\t// in\n    tag_309:\n        /* \"#utility.yul\":6657:6879   */\n      swap3\n      swap2\n      pop\n      pop\n      jump\t// out\n        /* \"#utility.yul\":6885:7009   */\n    tag_207:\n        /* \"#utility.yul\":6962:6968   */\n      0x00\n        /* \"#utility.yul\":6996:7001   */\n      dup2\n        /* \"#utility.yul\":6990:7002   */\n      mload\n        /* \"#utility.yul\":6980:7002   */\n      swap1\n      pop\n        /* \"#utility.yul\":6885:7009   */\n      swap2\n      swap1\n      pop\n      jump\t// out\n        /* \"#utility.yul\":7015:7209   */\n    tag_208:\n        /* \"#utility.yul\":7124:7135   */\n      0x00\n        /* \"#utility.yul\":7158:7164   */\n      dup3\n        /* \"#utility.yul\":7153:7156   */\n      dup3\n        /* \"#utility.yul\":7146:7165   */\n      mstore\n        /* \"#utility.yul\":7198:7202   */\n      0x20\n        /* \"#utility.yul\":7193:7196   */\n      dup3\n        /* \"#utility.yul\":7189:7203   */\n      add\n        /* \"#utility.yul\":7174:7203   */\n      swap1\n      pop\n        /* \"#utility.yul\":7015:7209   */\n      swap3\n      swap2\n      pop\n      pop\n      jump\t// out\n        /* \"#utility.yul\":7215:7357   */\n    tag_209:\n        /* \"#utility.yul\":7292:7296   */\n      0x00\n        /* \"#utility.yul\":7315:7318   */\n      dup2\n        /* \"#utility.yul\":7307:7318   */\n      swap1\n      pop\n        /* \"#utility.yul\":7345:7349   */\n      0x20\n        /* \"#utility.yul\":7340:7343   */\n      dup3\n        /* \"#utility.yul\":7336:7350   */\n      add\n        /* \"#utility.yul\":7328:7350   */\n      swap1\n      pop\n        /* \"#utility.yul\":7215:7357   */\n      swap2\n      swap1\n      pop\n      jump\t// out\n        /* \"#utility.yul\":7363:7522   */\n    tag_210:\n        /* \"#utility.yul\":7437:7448   */\n      0x00\n        /* \"#utility.yul\":7471:7477   */\n      dup3\n        /* \"#utility.yul\":7466:7469   */\n      dup3\n        /* \"#utility.yul\":7459:7478   */\n      mstore\n        /* \"#utility.yul\":7511:7515   */\n      0x20\n        /* \"#utility.yul\":7506:7509   */\n      dup3\n        /* \"#utility.yul\":7502:7516   */\n      add\n        /* \"#utility.yul\":7487:7516   */\n      swap1\n      pop\n        /* \"#utility.yul\":7363:7522   */\n      swap3\n      swap2\n      pop\n      pop\n      jump\t// out\n        /* \"#utility.yul\":7528:7885   */\n    tag_211:\n        /* \"#utility.yul\":7606:7609   */\n      0x00\n        /* \"#utility.yul\":7634:7673   */\n      tag_315\n        /* \"#utility.yul\":7667:7672   */\n      dup3\n        /* \"#utility.yul\":7634:7673   */\n      tag_190\n      jump\t// in\n    tag_315:\n        /* \"#utility.yul\":7689:7750   */\n      tag_316\n        /* \"#utility.yul\":7743:7749   */\n      dup2\n        /* \"#utility.yul\":7738:7741   */\n      dup6\n        /* \"#utility.yul\":7689:7750   */\n      tag_210\n      jump\t// in\n    tag_316:\n        /* \"#utility.yul\":7682:7750   */\n      swap4\n      pop\n        /* \"#utility.yul\":7759:7824   */\n      tag_317\n        /* \"#utility.yul\":7817:7823   */\n      dup2\n        /* \"#utility.yul\":7812:7815   */\n      dup6\n        /* \"#utility.yul\":7805:7809   */\n      0x20\n        /* \"#utility.yul\":7798:7803   */\n      dup7\n        /* \"#utility.yul\":7794:7810   */\n      add\n        /* \"#utility.yul\":7759:7824   */\n      tag_192\n      jump\t// in\n    tag_317:\n        /* \"#utility.yul\":7849:7878   */\n      tag_318\n        /* \"#utility.yul\":7871:7877   */\n      dup2\n        /* \"#utility.yul\":7849:7878   */\n      tag_193\n      jump\t// in\n    tag_318:\n        /* \"#utility.yul\":7844:7847   */\n      dup5\n        /* \"#utility.yul\":7840:7879   */\n      add\n        /* \"#utility.yul\":7833:7879   */\n      swap2\n      pop\n        /* \"#utility.yul\":7610:7885   */\n      pop\n        /* \"#utility.yul\":7528:7885   */\n      swap3\n      swap2\n      pop\n      pop\n      jump\t// out\n        /* \"#utility.yul\":7891:8087   */\n    tag_212:\n        /* \"#utility.yul\":7980:7990   */\n      0x00\n        /* \"#utility.yul\":8015:8081   */\n      tag_320\n        /* \"#utility.yul\":8077:8080   */\n      dup4\n        /* \"#utility.yul\":8069:8075   */\n      dup4\n        /* \"#utility.yul\":8015:8081   */\n      tag_211\n      jump\t// in\n    tag_320:\n        /* \"#utility.yul\":8001:8081   */\n      swap1\n      pop\n        /* \"#utility.yul\":7891:8087   */\n      swap3\n      swap2\n      pop\n      pop\n      jump\t// out\n        /* \"#utility.yul\":8093:8216   */\n    tag_213:\n        /* \"#utility.yul\":8173:8177   */\n      0x00\n        /* \"#utility.yul\":8205:8209   */\n      0x20\n        /* \"#utility.yul\":8200:8203   */\n      dup3\n        /* \"#utility.yul\":8196:8210   */\n      add\n        /* \"#utility.yul\":8188:8210   */\n      swap1\n      pop\n        /* \"#utility.yul\":8093:8216   */\n      swap2\n      swap1\n      pop\n      jump\t// out\n        /* \"#utility.yul\":8250:9241   */\n    tag_214:\n        /* \"#utility.yul\":8389:8392   */\n      0x00\n        /* \"#utility.yul\":8418:8482   */\n      tag_323\n        /* \"#utility.yul\":8476:8481   */\n      dup3\n        /* \"#utility.yul\":8418:8482   */\n      tag_207\n      jump\t// in\n    tag_323:\n        /* \"#utility.yul\":8498:8594   */\n      tag_324\n        /* \"#utility.yul\":8587:8593   */\n      dup2\n        /* \"#utility.yul\":8582:8585   */\n      dup6\n        /* \"#utility.yul\":8498:8594   */\n      tag_208\n      jump\t// in\n    tag_324:\n        /* \"#utility.yul\":8491:8594   */\n      swap4\n      pop\n        /* \"#utility.yul\":8620:8623   */\n      dup4\n        /* \"#utility.yul\":8665:8669   */\n      0x20\n        /* \"#utility.yul\":8657:8663   */\n      dup3\n        /* \"#utility.yul\":8653:8670   */\n      mul\n        /* \"#utility.yul\":8648:8651   */\n      dup6\n        /* \"#utility.yul\":8644:8671   */\n      add\n        /* \"#utility.yul\":8695:8761   */\n      tag_325\n        /* \"#utility.yul\":8755:8760   */\n      dup6\n        /* \"#utility.yul\":8695:8761   */\n      tag_209\n      jump\t// in\n    tag_325:\n        /* \"#utility.yul\":8784:8791   */\n      dup1\n        /* \"#utility.yul\":8815:8816   */\n      0x00\n        /* \"#utility.yul\":8800:9196   */\n    tag_326:\n        /* \"#utility.yul\":8825:8831   */\n      dup6\n        /* \"#utility.yul\":8822:8823   */\n      dup2\n        /* \"#utility.yul\":8819:8832   */\n      lt\n        /* \"#utility.yul\":8800:9196   */\n      iszero\n      tag_328\n      jumpi\n        /* \"#utility.yul\":8896:8905   */\n      dup5\n        /* \"#utility.yul\":8890:8894   */\n      dup5\n        /* \"#utility.yul\":8886:8906   */\n      sub\n        /* \"#utility.yul\":8881:8884   */\n      dup10\n        /* \"#utility.yul\":8874:8907   */\n      mstore\n        /* \"#utility.yul\":8947:8953   */\n      dup2\n        /* \"#utility.yul\":8941:8954   */\n      mload\n        /* \"#utility.yul\":8975:9059   */\n      tag_329\n        /* \"#utility.yul\":9054:9058   */\n      dup6\n        /* \"#utility.yul\":9039:9052   */\n      dup3\n        /* \"#utility.yul\":8975:9059   */\n      tag_212\n      jump\t// in\n    tag_329:\n        /* \"#utility.yul\":8967:9059   */\n      swap5\n      pop\n        /* \"#utility.yul\":9082:9152   */\n      tag_330\n        /* \"#utility.yul\":9145:9151   */\n      dup4\n        /* \"#utility.yul\":9082:9152   */\n      tag_213\n      jump\t// in\n    tag_330:\n        /* \"#utility.yul\":9072:9152   */\n      swap3\n      pop\n        /* \"#utility.yul\":9181:9185   */\n      0x20\n        /* \"#utility.yul\":9176:9179   */\n      dup11\n        /* \"#utility.yul\":9172:9186   */\n      add\n        /* \"#utility.yul\":9165:9186   */\n      swap10\n      pop\n        /* \"#utility.yul\":8860:9196   */\n      pop\n        /* \"#utility.yul\":8847:8848   */\n      0x01\n        /* \"#utility.yul\":8844:8845   */\n      dup2\n        /* \"#utility.yul\":8840:8849   */\n      add\n        /* \"#utility.yul\":8835:8849   */\n      swap1\n      pop\n        /* \"#utility.yul\":8800:9196   */\n      jump(tag_326)\n    tag_328:\n        /* \"#utility.yul\":8804:8818   */\n      pop\n        /* \"#utility.yul\":9212:9216   */\n      dup3\n        /* \"#utility.yul\":9205:9216   */\n      swap8\n      pop\n        /* \"#utility.yul\":9232:9235   */\n      dup8\n        /* \"#utility.yul\":9225:9235   */\n      swap6\n      pop\n        /* \"#utility.yul\":8394:9241   */\n      pop\n      pop\n      pop\n      pop\n      pop\n        /* \"#utility.yul\":8250:9241   */\n      swap3\n      swap2\n      pop\n      pop\n      jump\t// out\n        /* \"#utility.yul\":9247:9660   */\n    tag_31:\n        /* \"#utility.yul\":9410:9414   */\n      0x00\n        /* \"#utility.yul\":9448:9450   */\n      0x20\n        /* \"#utility.yul\":9437:9446   */\n      dup3\n        /* \"#utility.yul\":9433:9451   */\n      add\n        /* \"#utility.yul\":9425:9451   */\n      swap1\n      pop\n        /* \"#utility.yul\":9497:9506   */\n      dup2\n        /* \"#utility.yul\":9491:9495   */\n      dup2\n        /* \"#utility.yul\":9487:9507   */\n      sub\n        /* \"#utility.yul\":9483:9484   */\n      0x00\n        /* \"#utility.yul\":9472:9481   */\n      dup4\n        /* \"#utility.yul\":9468:9485   */\n      add\n        /* \"#utility.yul\":9461:9508   */\n      mstore\n        /* \"#utility.yul\":9525:9653   */\n      tag_332\n        /* \"#utility.yul\":9648:9652   */\n      dup2\n        /* \"#utility.yul\":9639:9645   */\n      dup5\n        /* \"#utility.yul\":9525:9653   */\n      tag_214\n      jump\t// in\n    tag_332:\n        /* \"#utility.yul\":9517:9653   */\n      swap1\n      pop\n        /* \"#utility.yul\":9247:9660   */\n      swap3\n      swap2\n      pop\n      pop\n      jump\t// out\n        /* \"#utility.yul\":9666:10896   */\n    tag_36:\n        /* \"#utility.yul\":9999:10003   */\n      0x00\n        /* \"#utility.yul\":10037:10040   */\n      0xc0\n        /* \"#utility.yul\":10026:10035   */\n      dup3\n        /* \"#utility.yul\":10022:10041   */\n      add\n        /* \"#utility.yul\":10014:10041   */\n      swap1\n      pop\n        /* \"#utility.yul\":10087:10096   */\n      dup2\n        /* \"#utility.yul\":10081:10085   */\n      dup2\n        /* \"#utility.yul\":10077:10097   */\n      sub\n        /* \"#utility.yul\":10073:10074   */\n      0x00\n        /* \"#utility.yul\":10062:10071   */\n      dup4\n        /* \"#utility.yul\":10058:10075   */\n      add\n        /* \"#utility.yul\":10051:10098   */\n      mstore\n        /* \"#utility.yul\":10115:10193   */\n      tag_334\n        /* \"#utility.yul\":10188:10192   */\n      dup2\n        /* \"#utility.yul\":10179:10185   */\n      dup10\n        /* \"#utility.yul\":10115:10193   */\n      tag_194\n      jump\t// in\n    tag_334:\n        /* \"#utility.yul\":10107:10193   */\n      swap1\n      pop\n        /* \"#utility.yul\":10240:10249   */\n      dup2\n        /* \"#utility.yul\":10234:10238   */\n      dup2\n        /* \"#utility.yul\":10230:10250   */\n      sub\n        /* \"#utility.yul\":10225:10227   */\n      0x20\n        /* \"#utility.yul\":10214:10223   */\n      dup4\n        /* \"#utility.yul\":10210:10228   */\n      add\n        /* \"#utility.yul\":10203:10251   */\n      mstore\n        /* \"#utility.yul\":10268:10346   */\n      tag_335\n        /* \"#utility.yul\":10341:10345   */\n      dup2\n        /* \"#utility.yul\":10332:10338   */\n      dup9\n        /* \"#utility.yul\":10268:10346   */\n      tag_194\n      jump\t// in\n    tag_335:\n        /* \"#utility.yul\":10260:10346   */\n      swap1\n      pop\n        /* \"#utility.yul\":10393:10402   */\n      dup2\n        /* \"#utility.yul\":10387:10391   */\n      dup2\n        /* \"#utility.yul\":10383:10403   */\n      sub\n        /* \"#utility.yul\":10378:10380   */\n      0x40\n        /* \"#utility.yul\":10367:10376   */\n      dup4\n        /* \"#utility.yul\":10363:10381   */\n      add\n        /* \"#utility.yul\":10356:10404   */\n      mstore\n        /* \"#utility.yul\":10421:10499   */\n      tag_336\n        /* \"#utility.yul\":10494:10498   */\n      dup2\n        /* \"#utility.yul\":10485:10491   */\n      dup8\n        /* \"#utility.yul\":10421:10499   */\n      tag_194\n      jump\t// in\n    tag_336:\n        /* \"#utility.yul\":10413:10499   */\n      swap1\n      pop\n        /* \"#utility.yul\":10546:10555   */\n      dup2\n        /* \"#utility.yul\":10540:10544   */\n      dup2\n        /* \"#utility.yul\":10536:10556   */\n      sub\n        /* \"#utility.yul\":10531:10533   */\n      0x60\n        /* \"#utility.yul\":10520:10529   */\n      dup4\n        /* \"#utility.yul\":10516:10534   */\n      add\n        /* \"#utility.yul\":10509:10557   */\n      mstore\n        /* \"#utility.yul\":10574:10652   */\n      tag_337\n        /* \"#utility.yul\":10647:10651   */\n      dup2\n        /* \"#utility.yul\":10638:10644   */\n      dup7\n        /* \"#utility.yul\":10574:10652   */\n      tag_194\n      jump\t// in\n    tag_337:\n        /* \"#utility.yul\":10566:10652   */\n      swap1\n      pop\n        /* \"#utility.yul\":10700:10709   */\n      dup2\n        /* \"#utility.yul\":10694:10698   */\n      dup2\n        /* \"#utility.yul\":10690:10710   */\n      sub\n        /* \"#utility.yul\":10684:10687   */\n      0x80\n        /* \"#utility.yul\":10673:10682   */\n      dup4\n        /* \"#utility.yul\":10669:10688   */\n      add\n        /* \"#utility.yul\":10662:10711   */\n      mstore\n        /* \"#utility.yul\":10728:10806   */\n      tag_338\n        /* \"#utility.yul\":10801:10805   */\n      dup2\n        /* \"#utility.yul\":10792:10798   */\n      dup6\n        /* \"#utility.yul\":10728:10806   */\n      tag_194\n      jump\t// in\n    tag_338:\n        /* \"#utility.yul\":10720:10806   */\n      swap1\n      pop\n        /* \"#utility.yul\":10816:10889   */\n      tag_339\n        /* \"#utility.yul\":10884:10887   */\n      0xa0\n        /* \"#utility.yul\":10873:10882   */\n      dup4\n        /* \"#utility.yul\":10869:10888   */\n      add\n        /* \"#utility.yul\":10860:10866   */\n      dup5\n        /* \"#utility.yul\":10816:10889   */\n      tag_204\n      jump\t// in\n    tag_339:\n        /* \"#utility.yul\":9666:10896   */\n      swap8\n      swap7\n      pop\n      pop\n      pop\n      pop\n      pop\n      pop\n      pop\n      jump\t// out\n        /* \"#utility.yul\":10902:11124   */\n    tag_40:\n        /* \"#utility.yul\":10995:10999   */\n      0x00\n        /* \"#utility.yul\":11033:11035   */\n      0x20\n        /* \"#utility.yul\":11022:11031   */\n      dup3\n        /* \"#utility.yul\":11018:11036   */\n      add\n        /* \"#utility.yul\":11010:11036   */\n      swap1\n      pop\n        /* \"#utility.yul\":11046:11117   */\n      tag_341\n        /* \"#utility.yul\":11114:11115   */\n      0x00\n        /* \"#utility.yul\":11103:11112   */\n      dup4\n        /* \"#utility.yul\":11099:11116   */\n      add\n        /* \"#utility.yul\":11090:11096   */\n      dup5\n        /* \"#utility.yul\":11046:11117   */\n      tag_204\n      jump\t// in\n    tag_341:\n        /* \"#utility.yul\":10902:11124   */\n      swap3\n      swap2\n      pop\n      pop\n      jump\t// out\n        /* \"#utility.yul\":11130:13267   */\n    tag_43:\n        /* \"#utility.yul\":11294:11300   */\n      0x00\n        /* \"#utility.yul\":11302:11308   */\n      dup1\n        /* \"#utility.yul\":11310:11316   */\n      0x00\n        /* \"#utility.yul\":11318:11324   */\n      dup1\n        /* \"#utility.yul\":11326:11332   */\n      0x00\n        /* \"#utility.yul\":11334:11340   */\n      dup1\n        /* \"#utility.yul\":11383:11386   */\n      0xc0\n        /* \"#utility.yul\":11371:11380   */\n      dup8\n        /* \"#utility.yul\":11362:11369   */\n      dup10\n        /* \"#utility.yul\":11358:11381   */\n      sub\n        /* \"#utility.yul\":11354:11387   */\n      slt\n        /* \"#utility.yul\":11351:11471   */\n      iszero\n      tag_343\n      jumpi\n        /* \"#utility.yul\":11390:11469   */\n      tag_344\n      tag_185\n      jump\t// in\n    tag_344:\n        /* \"#utility.yul\":11351:11471   */\n    tag_343:\n        /* \"#utility.yul\":11538:11539   */\n      0x00\n        /* \"#utility.yul\":11527:11536   */\n      dup8\n        /* \"#utility.yul\":11523:11540   */\n      add\n        /* \"#utility.yul\":11510:11541   */\n      calldataload\n        /* \"#utility.yul\":11568:11586   */\n      0xffffffffffffffff\n        /* \"#utility.yul\":11560:11566   */\n      dup2\n        /* \"#utility.yul\":11557:11587   */\n      gt\n        /* \"#utility.yul\":11554:11671   */\n      iszero\n      tag_345\n      jumpi\n        /* \"#utility.yul\":11590:11669   */\n      tag_346\n      tag_186\n      jump\t// in\n    tag_346:\n        /* \"#utility.yul\":11554:11671   */\n    tag_345:\n        /* \"#utility.yul\":11695:11758   */\n      tag_347\n        /* \"#utility.yul\":11750:11757   */\n      dup10\n        /* \"#utility.yul\":11741:11747   */\n      dup3\n        /* \"#utility.yul\":11730:11739   */\n      dup11\n        /* \"#utility.yul\":11726:11748   */\n      add\n        /* \"#utility.yul\":11695:11758   */\n      tag_203\n      jump\t// in\n    tag_347:\n        /* \"#utility.yul\":11685:11758   */\n      swap7\n      pop\n        /* \"#utility.yul\":11481:11768   */\n      pop\n        /* \"#utility.yul\":11835:11837   */\n      0x20\n        /* \"#utility.yul\":11824:11833   */\n      dup8\n        /* \"#utility.yul\":11820:11838   */\n      add\n        /* \"#utility.yul\":11807:11839   */\n      calldataload\n        /* \"#utility.yul\":11866:11884   */\n      0xffffffffffffffff\n        /* \"#utility.yul\":11858:11864   */\n      dup2\n        /* \"#utility.yul\":11855:11885   */\n      gt\n        /* \"#utility.yul\":11852:11969   */\n      iszero\n      tag_348\n      jumpi\n        /* \"#utility.yul\":11888:11967   */\n      tag_349\n      tag_186\n      jump\t// in\n    tag_349:\n        /* \"#utility.yul\":11852:11969   */\n    tag_348:\n        /* \"#utility.yul\":11993:12056   */\n      tag_350\n        /* \"#utility.yul\":12048:12055   */\n      dup10\n        /* \"#utility.yul\":12039:12045   */\n      dup3\n        /* \"#utility.yul\":12028:12037   */\n      dup11\n        /* \"#utility.yul\":12024:12046   */\n      add\n        /* \"#utility.yul\":11993:12056   */\n      tag_203\n      jump\t// in\n    tag_350:\n        /* \"#utility.yul\":11983:12056   */\n      swap6\n      pop\n        /* \"#utility.yul\":11778:12066   */\n      pop\n        /* \"#utility.yul\":12133:12135   */\n      0x40\n        /* \"#utility.yul\":12122:12131   */\n      dup8\n        /* \"#utility.yul\":12118:12136   */\n      add\n        /* \"#utility.yul\":12105:12137   */\n      calldataload\n        /* \"#utility.yul\":12164:12182   */\n      0xffffffffffffffff\n        /* \"#utility.yul\":12156:12162   */\n      dup2\n        /* \"#utility.yul\":12153:12183   */\n      gt\n        /* \"#utility.yul\":12150:12267   */\n      iszero\n      tag_351\n      jumpi\n        /* \"#utility.yul\":12186:12265   */\n      tag_352\n      tag_186\n      jump\t// in\n    tag_352:\n        /* \"#utility.yul\":12150:12267   */\n    tag_351:\n        /* \"#utility.yul\":12291:12354   */\n      tag_353\n        /* \"#utility.yul\":12346:12353   */\n      dup10\n        /* \"#utility.yul\":12337:12343   */\n      dup3\n        /* \"#utility.yul\":12326:12335   */\n      dup11\n        /* \"#utility.yul\":12322:12344   */\n      add\n        /* \"#utility.yul\":12291:12354   */\n      tag_203\n      jump\t// in\n    tag_353:\n        /* \"#utility.yul\":12281:12354   */\n      swap5\n      pop\n        /* \"#utility.yul\":12076:12364   */\n      pop\n        /* \"#utility.yul\":12431:12433   */\n      0x60\n        /* \"#utility.yul\":12420:12429   */\n      dup8\n        /* \"#utility.yul\":12416:12434   */\n      add\n        /* \"#utility.yul\":12403:12435   */\n      calldataload\n        /* \"#utility.yul\":12462:12480   */\n      0xffffffffffffffff\n        /* \"#utility.yul\":12454:12460   */\n      dup2\n        /* \"#utility.yul\":12451:12481   */\n      gt\n        /* \"#utility.yul\":12448:12565   */\n      iszero\n      tag_354\n      jumpi\n        /* \"#utility.yul\":12484:12563   */\n      tag_355\n      tag_186\n      jump\t// in\n    tag_355:\n        /* \"#utility.yul\":12448:12565   */\n    tag_354:\n        /* \"#utility.yul\":12589:12652   */\n      tag_356\n        /* \"#utility.yul\":12644:12651   */\n      dup10\n        /* \"#utility.yul\":12635:12641   */\n      dup3\n        /* \"#utility.yul\":12624:12633   */\n      dup11\n        /* \"#utility.yul\":12620:12642   */\n      add\n        /* \"#utility.yul\":12589:12652   */\n      tag_203\n      jump\t// in\n    tag_356:\n        /* \"#utility.yul\":12579:12652   */\n      swap4\n      pop\n        /* \"#utility.yul\":12374:12662   */\n      pop\n        /* \"#utility.yul\":12729:12732   */\n      0x80\n        /* \"#utility.yul\":12718:12727   */\n      dup8\n        /* \"#utility.yul\":12714:12733   */\n      add\n        /* \"#utility.yul\":12701:12734   */\n      calldataload\n        /* \"#utility.yul\":12761:12779   */\n      0xffffffffffffffff\n        /* \"#utility.yul\":12753:12759   */\n      dup2\n        /* \"#utility.yul\":12750:12780   */\n      gt\n        /* \"#utility.yul\":12747:12864   */\n      iszero\n      tag_357\n      jumpi\n        /* \"#utility.yul\":12783:12862   */\n      tag_358\n      tag_186\n      jump\t// in\n    tag_358:\n        /* \"#utility.yul\":12747:12864   */\n    tag_357:\n        /* \"#utility.yul\":12888:12951   */\n      tag_359\n        /* \"#utility.yul\":12943:12950   */\n      dup10\n        /* \"#utility.yul\":12934:12940   */\n      dup3\n        /* \"#utility.yul\":12923:12932   */\n      dup11\n        /* \"#utility.yul\":12919:12941   */\n      add\n        /* \"#utility.yul\":12888:12951   */\n      tag_203\n      jump\t// in\n    tag_359:\n        /* \"#utility.yul\":12878:12951   */\n      swap3\n      pop\n        /* \"#utility.yul\":12672:12961   */\n      pop\n        /* \"#utility.yul\":13028:13031   */\n      0xa0\n        /* \"#utility.yul\":13017:13026   */\n      dup8\n        /* \"#utility.yul\":13013:13032   */\n      add\n        /* \"#utility.yul\":13000:13033   */\n      calldataload\n        /* \"#utility.yul\":13060:13078   */\n      0xffffffffffffffff\n        /* \"#utility.yul\":13052:13058   */\n      dup2\n        /* \"#utility.yul\":13049:13079   */\n      gt\n        /* \"#utility.yul\":13046:13163   */\n      iszero\n      tag_360\n      jumpi\n        /* \"#utility.yul\":13082:13161   */\n      tag_361\n      tag_186\n      jump\t// in\n    tag_361:\n        /* \"#utility.yul\":13046:13163   */\n    tag_360:\n        /* \"#utility.yul\":13187:13250   */\n      tag_362\n        /* \"#utility.yul\":13242:13249   */\n      dup10\n        /* \"#utility.yul\":13233:13239   */\n      dup3\n        /* \"#utility.yul\":13222:13231   */\n      dup11\n        /* \"#utility.yul\":13218:13240   */\n      add\n        /* \"#utility.yul\":13187:13250   */\n      tag_203\n      jump\t// in\n    tag_362:\n        /* \"#utility.yul\":13177:13250   */\n      swap2\n      pop\n        /* \"#utility.yul\":12971:13260   */\n      pop\n        /* \"#utility.yul\":11130:13267   */\n      swap3\n      swap6\n      pop\n      swap3\n      swap6\n      pop\n      swap3\n      swap6\n      jump\t// out\n        /* \"#utility.yul\":13273:13453   */\n    tag_215:\n        /* \"#utility.yul\":13321:13398   */\n      0x4e487b7100000000000000000000000000000000000000000000000000000000\n        /* \"#utility.yul\":13318:13319   */\n      0x00\n        /* \"#utility.yul\":13311:13399   */\n      mstore\n        /* \"#utility.yul\":13418:13422   */\n      0x22\n        /* \"#utility.yul\":13415:13416   */\n      0x04\n        /* \"#utility.yul\":13408:13423   */\n      mstore\n        /* \"#utility.yul\":13442:13446   */\n      0x24\n        /* \"#utility.yul\":13439:13440   */\n      0x00\n        /* \"#utility.yul\":13432:13447   */\n      revert\n        /* \"#utility.yul\":13459:13779   */\n    tag_48:\n        /* \"#utility.yul\":13503:13509   */\n      0x00\n        /* \"#utility.yul\":13540:13541   */\n      0x02\n        /* \"#utility.yul\":13534:13538   */\n      dup3\n        /* \"#utility.yul\":13530:13542   */\n      div\n        /* \"#utility.yul\":13520:13542   */\n      swap1\n      pop\n        /* \"#utility.yul\":13587:13588   */\n      0x01\n        /* \"#utility.yul\":13581:13585   */\n      dup3\n        /* \"#utility.yul\":13577:13589   */\n      and\n        /* \"#utility.yul\":13608:13626   */\n      dup1\n        /* \"#utility.yul\":13598:13679   */\n      tag_365\n      jumpi\n        /* \"#utility.yul\":13664:13668   */\n      0x7f\n        /* \"#utility.yul\":13656:13662   */\n      dup3\n        /* \"#utility.yul\":13652:13669   */\n      and\n        /* \"#utility.yul\":13642:13669   */\n      swap2\n      pop\n        /* \"#utility.yul\":13598:13679   */\n    tag_365:\n        /* \"#utility.yul\":13726:13728   */\n      0x20\n        /* \"#utility.yul\":13718:13724   */\n      dup3\n        /* \"#utility.yul\":13715:13729   */\n      lt\n        /* \"#utility.yul\":13695:13713   */\n      dup2\n        /* \"#utility.yul\":13692:13730   */\n      sub\n        /* \"#utility.yul\":13689:13773   */\n      tag_366\n      jumpi\n        /* \"#utility.yul\":13745:13763   */\n      tag_367\n      tag_215\n      jump\t// in\n    tag_367:\n        /* \"#utility.yul\":13689:13773   */\n    tag_366:\n        /* \"#utility.yul\":13510:13779   */\n      pop\n        /* \"#utility.yul\":13459:13779   */\n      swap2\n      swap1\n      pop\n      jump\t// out\n        /* \"#utility.yul\":13785:13933   */\n    tag_216:\n        /* \"#utility.yul\":13887:13898   */\n      0x00\n        /* \"#utility.yul\":13924:13927   */\n      dup2\n        /* \"#utility.yul\":13909:13927   */\n      swap1\n      pop\n        /* \"#utility.yul\":13785:13933   */\n      swap3\n      swap2\n      pop\n      pop\n      jump\t// out\n        /* \"#utility.yul\":13939:14329   */\n    tag_217:\n        /* \"#utility.yul\":14045:14048   */\n      0x00\n        /* \"#utility.yul\":14073:14112   */\n      tag_370\n        /* \"#utility.yul\":14106:14111   */\n      dup3\n        /* \"#utility.yul\":14073:14112   */\n      tag_190\n      jump\t// in\n    tag_370:\n        /* \"#utility.yul\":14128:14217   */\n      tag_371\n        /* \"#utility.yul\":14210:14216   */\n      dup2\n        /* \"#utility.yul\":14205:14208   */\n      dup6\n        /* \"#utility.yul\":14128:14217   */\n      tag_216\n      jump\t// in\n    tag_371:\n        /* \"#utility.yul\":14121:14217   */\n      swap4\n      pop\n        /* \"#utility.yul\":14226:14291   */\n      tag_372\n        /* \"#utility.yul\":14284:14290   */\n      dup2\n        /* \"#utility.yul\":14279:14282   */\n      dup6\n        /* \"#utility.yul\":14272:14276   */\n      0x20\n        /* \"#utility.yul\":14265:14270   */\n      dup7\n        /* \"#utility.yul\":14261:14277   */\n      add\n        /* \"#utility.yul\":14226:14291   */\n      tag_192\n      jump\t// in\n    tag_372:\n        /* \"#utility.yul\":14316:14322   */\n      dup1\n        /* \"#utility.yul\":14311:14314   */\n      dup5\n        /* \"#utility.yul\":14307:14323   */\n      add\n        /* \"#utility.yul\":14300:14323   */\n      swap2\n      pop\n        /* \"#utility.yul\":14049:14329   */\n      pop\n        /* \"#utility.yul\":13939:14329   */\n      swap3\n      swap2\n      pop\n      pop\n      jump\t// out\n        /* \"#utility.yul\":14335:14610   */\n    tag_85:\n        /* \"#utility.yul\":14467:14470   */\n      0x00\n        /* \"#utility.yul\":14489:14584   */\n      tag_374\n        /* \"#utility.yul\":14580:14583   */\n      dup3\n        /* \"#utility.yul\":14571:14577   */\n      dup5\n        /* \"#utility.yul\":14489:14584   */\n      tag_217\n      jump\t// in\n    tag_374:\n        /* \"#utility.yul\":14482:14584   */\n      swap2\n      pop\n        /* \"#utility.yul\":14601:14604   */\n      dup2\n        /* \"#utility.yul\":14594:14604   */\n      swap1\n      pop\n        /* \"#utility.yul\":14335:14610   */\n      swap3\n      swap2\n      pop\n      pop\n      jump\t// out\n        /* \"#utility.yul\":14616:14786   */\n    tag_218:\n        /* \"#utility.yul\":14756:14778   */\n      0x426174636820646f6573206e6f74206578697374000000000000000000000000\n        /* \"#utility.yul\":14752:14753   */\n      0x00\n        /* \"#utility.yul\":14744:14750   */\n      dup3\n        /* \"#utility.yul\":14740:14754   */\n      add\n        /* \"#utility.yul\":14733:14779   */\n      mstore\n        /* \"#utility.yul\":14616:14786   */\n      pop\n      jump\t// out\n        /* \"#utility.yul\":14792:15158   */\n    tag_219:\n        /* \"#utility.yul\":14934:14937   */\n      0x00\n        /* \"#utility.yul\":14955:15022   */\n      tag_377\n        /* \"#utility.yul\":15019:15021   */\n      0x14\n        /* \"#utility.yul\":15014:15017   */\n      dup4\n        /* \"#utility.yul\":14955:15022   */\n      tag_191\n      jump\t// in\n    tag_377:\n        /* \"#utility.yul\":14948:15022   */\n      swap2\n      pop\n        /* \"#utility.yul\":15031:15124   */\n      tag_378\n        /* \"#utility.yul\":15120:15123   */\n      dup3\n        /* \"#utility.yul\":15031:15124   */\n      tag_218\n      jump\t// in\n    tag_378:\n        /* \"#utility.yul\":15149:15151   */\n      0x20\n        /* \"#utility.yul\":15144:15147   */\n      dup3\n        /* \"#utility.yul\":15140:15152   */\n      add\n        /* \"#utility.yul\":15133:15152   */\n      swap1\n      pop\n        /* \"#utility.yul\":14792:15158   */\n      swap2\n      swap1\n      pop\n      jump\t// out\n        /* \"#utility.yul\":15164:15583   */\n    tag_118:\n        /* \"#utility.yul\":15330:15334   */\n      0x00\n        /* \"#utility.yul\":15368:15370   */\n      0x20\n        /* \"#utility.yul\":15357:15366   */\n      dup3\n        /* \"#utility.yul\":15353:15371   */\n      add\n        /* \"#utility.yul\":15345:15371   */\n      swap1\n      pop\n        /* \"#utility.yul\":15417:15426   */\n      dup2\n        /* \"#utility.yul\":15411:15415   */\n      dup2\n        /* \"#utility.yul\":15407:15427   */\n      sub\n        /* \"#utility.yul\":15403:15404   */\n      0x00\n        /* \"#utility.yul\":15392:15401   */\n      dup4\n        /* \"#utility.yul\":15388:15405   */\n      add\n        /* \"#utility.yul\":15381:15428   */\n      mstore\n        /* \"#utility.yul\":15445:15576   */\n      tag_380\n        /* \"#utility.yul\":15571:15575   */\n      dup2\n        /* \"#utility.yul\":15445:15576   */\n      tag_219\n      jump\t// in\n    tag_380:\n        /* \"#utility.yul\":15437:15576   */\n      swap1\n      pop\n        /* \"#utility.yul\":15164:15583   */\n      swap2\n      swap1\n      pop\n      jump\t// out\n        /* \"#utility.yul\":15589:15668   */\n    tag_220:\n        /* \"#utility.yul\":15628:15635   */\n      0x00\n        /* \"#utility.yul\":15657:15662   */\n      dup2\n        /* \"#utility.yul\":15646:15662   */\n      swap1\n      pop\n        /* \"#utility.yul\":15589:15668   */\n      swap2\n      swap1\n      pop\n      jump\t// out\n        /* \"#utility.yul\":15674:15831   */\n    tag_221:\n        /* \"#utility.yul\":15779:15824   */\n      tag_383\n        /* \"#utility.yul\":15799:15823   */\n      tag_384\n        /* \"#utility.yul\":15817:15822   */\n      dup3\n        /* \"#utility.yul\":15799:15823   */\n      tag_187\n      jump\t// in\n    tag_384:\n        /* \"#utility.yul\":15779:15824   */\n      tag_220\n      jump\t// in\n    tag_383:\n        /* \"#utility.yul\":15774:15777   */\n      dup3\n        /* \"#utility.yul\":15767:15825   */\n      mstore\n        /* \"#utility.yul\":15674:15831   */\n      pop\n      pop\n      jump\t// out\n        /* \"#utility.yul\":15837:17053   */\n    tag_120:\n        /* \"#utility.yul\":16237:16240   */\n      0x00\n        /* \"#utility.yul\":16259:16354   */\n      tag_386\n        /* \"#utility.yul\":16350:16353   */\n      dup3\n        /* \"#utility.yul\":16341:16347   */\n      dup11\n        /* \"#utility.yul\":16259:16354   */\n      tag_217\n      jump\t// in\n    tag_386:\n        /* \"#utility.yul\":16252:16354   */\n      swap2\n      pop\n        /* \"#utility.yul\":16371:16466   */\n      tag_387\n        /* \"#utility.yul\":16462:16465   */\n      dup3\n        /* \"#utility.yul\":16453:16459   */\n      dup10\n        /* \"#utility.yul\":16371:16466   */\n      tag_217\n      jump\t// in\n    tag_387:\n        /* \"#utility.yul\":16364:16466   */\n      swap2\n      pop\n        /* \"#utility.yul\":16483:16578   */\n      tag_388\n        /* \"#utility.yul\":16574:16577   */\n      dup3\n        /* \"#utility.yul\":16565:16571   */\n      dup9\n        /* \"#utility.yul\":16483:16578   */\n      tag_217\n      jump\t// in\n    tag_388:\n        /* \"#utility.yul\":16476:16578   */\n      swap2\n      pop\n        /* \"#utility.yul\":16595:16690   */\n      tag_389\n        /* \"#utility.yul\":16686:16689   */\n      dup3\n        /* \"#utility.yul\":16677:16683   */\n      dup8\n        /* \"#utility.yul\":16595:16690   */\n      tag_217\n      jump\t// in\n    tag_389:\n        /* \"#utility.yul\":16588:16690   */\n      swap2\n      pop\n        /* \"#utility.yul\":16707:16802   */\n      tag_390\n        /* \"#utility.yul\":16798:16801   */\n      dup3\n        /* \"#utility.yul\":16789:16795   */\n      dup7\n        /* \"#utility.yul\":16707:16802   */\n      tag_217\n      jump\t// in\n    tag_390:\n        /* \"#utility.yul\":16700:16802   */\n      swap2\n      pop\n        /* \"#utility.yul\":16819:16914   */\n      tag_391\n        /* \"#utility.yul\":16910:16913   */\n      dup3\n        /* \"#utility.yul\":16901:16907   */\n      dup6\n        /* \"#utility.yul\":16819:16914   */\n      tag_217\n      jump\t// in\n    tag_391:\n        /* \"#utility.yul\":16812:16914   */\n      swap2\n      pop\n        /* \"#utility.yul\":16924:16999   */\n      tag_392\n        /* \"#utility.yul\":16995:16998   */\n      dup3\n        /* \"#utility.yul\":16986:16992   */\n      dup5\n        /* \"#utility.yul\":16924:16999   */\n      tag_221\n      jump\t// in\n    tag_392:\n        /* \"#utility.yul\":17024:17026   */\n      0x20\n        /* \"#utility.yul\":17019:17022   */\n      dup3\n        /* \"#utility.yul\":17015:17027   */\n      add\n        /* \"#utility.yul\":17008:17027   */\n      swap2\n      pop\n        /* \"#utility.yul\":17044:17047   */\n      dup2\n        /* \"#utility.yul\":17037:17047   */\n      swap1\n      pop\n        /* \"#utility.yul\":15837:17053   */\n      swap9\n      swap8\n      pop\n      pop\n      pop\n      pop\n      pop\n      pop\n      pop\n      pop\n      jump\t// out\n        /* \"#utility.yul\":17059:17233   */\n    tag_222:\n        /* \"#utility.yul\":17199:17225   */\n      0x426174636820616c726561647920726567697374657265640000000000000000\n        /* \"#utility.yul\":17195:17196   */\n      0x00\n        /* \"#utility.yul\":17187:17193   */\n      dup3\n        /* \"#utility.yul\":17183:17197   */\n      add\n        /* \"#utility.yul\":17176:17226   */\n      mstore\n        /* \"#utility.yul\":17059:17233   */\n      pop\n      jump\t// out\n        /* \"#utility.yul\":17239:17605   */\n    tag_223:\n        /* \"#utility.yul\":17381:17384   */\n      0x00\n        /* \"#utility.yul\":17402:17469   */\n      tag_395\n        /* \"#utility.yul\":17466:17468   */\n      0x18\n        /* \"#utility.yul\":17461:17464   */\n      dup4\n        /* \"#utility.yul\":17402:17469   */\n      tag_191\n      jump\t// in\n    tag_395:\n        /* \"#utility.yul\":17395:17469   */\n      swap2\n      pop\n        /* \"#utility.yul\":17478:17571   */\n      tag_396\n        /* \"#utility.yul\":17567:17570   */\n      dup3\n        /* \"#utility.yul\":17478:17571   */\n      tag_222\n      jump\t// in\n    tag_396:\n        /* \"#utility.yul\":17596:17598   */\n      0x20\n        /* \"#utility.yul\":17591:17594   */\n      dup3\n        /* \"#utility.yul\":17587:17599   */\n      add\n        /* \"#utility.yul\":17580:17599   */\n      swap1\n      pop\n        /* \"#utility.yul\":17239:17605   */\n      swap2\n      swap1\n      pop\n      jump\t// out\n        /* \"#utility.yul\":17611:18030   */\n    tag_170:\n        /* \"#utility.yul\":17777:17781   */\n      0x00\n        /* \"#utility.yul\":17815:17817   */\n      0x20\n        /* \"#utility.yul\":17804:17813   */\n      dup3\n        /* \"#utility.yul\":17800:17818   */\n      add\n        /* \"#utility.yul\":17792:17818   */\n      swap1\n      pop\n        /* \"#utility.yul\":17864:17873   */\n      dup2\n        /* \"#utility.yul\":17858:17862   */\n      dup2\n        /* \"#utility.yul\":17854:17874   */\n      sub\n        /* \"#utility.yul\":17850:17851   */\n      0x00\n        /* \"#utility.yul\":17839:17848   */\n      dup4\n        /* \"#utility.yul\":17835:17852   */\n      add\n        /* \"#utility.yul\":17828:17875   */\n      mstore\n        /* \"#utility.yul\":17892:18023   */\n      tag_398\n        /* \"#utility.yul\":18018:18022   */\n      dup2\n        /* \"#utility.yul\":17892:18023   */\n      tag_223\n      jump\t// in\n    tag_398:\n        /* \"#utility.yul\":17884:18023   */\n      swap1\n      pop\n        /* \"#utility.yul\":17611:18030   */\n      swap2\n      swap1\n      pop\n      jump\t// out\n        /* \"#utility.yul\":18036:18177   */\n    tag_224:\n        /* \"#utility.yul\":18085:18089   */\n      0x00\n        /* \"#utility.yul\":18108:18111   */\n      dup2\n        /* \"#utility.yul\":18100:18111   */\n      swap1\n      pop\n        /* \"#utility.yul\":18131:18134   */\n      dup2\n        /* \"#utility.yul\":18128:18129   */\n      0x00\n        /* \"#utility.yul\":18121:18135   */\n      mstore\n        /* \"#utility.yul\":18165:18169   */\n      0x20\n        /* \"#utility.yul\":18162:18163   */\n      0x00\n        /* \"#utility.yul\":18152:18170   */\n      keccak256\n        /* \"#utility.yul\":18144:18170   */\n      swap1\n      pop\n        /* \"#utility.yul\":18036:18177   */\n      swap2\n      swap1\n      pop\n      jump\t// out\n        /* \"#utility.yul\":18183:18276   */\n    tag_225:\n        /* \"#utility.yul\":18220:18226   */\n      0x00\n        /* \"#utility.yul\":18267:18269   */\n      0x20\n        /* \"#utility.yul\":18262:18264   */\n      0x1f\n        /* \"#utility.yul\":18255:18260   */\n      dup4\n        /* \"#utility.yul\":18251:18265   */\n      add\n        /* \"#utility.yul\":18247:18270   */\n      div\n        /* \"#utility.yul\":18237:18270   */\n      swap1\n      pop\n        /* \"#utility.yul\":18183:18276   */\n      swap2\n      swap1\n      pop\n      jump\t// out\n        /* \"#utility.yul\":18282:18389   */\n    tag_226:\n        /* \"#utility.yul\":18326:18334   */\n      0x00\n        /* \"#utility.yul\":18376:18381   */\n      dup3\n        /* \"#utility.yul\":18370:18374   */\n      dup3\n        /* \"#utility.yul\":18366:18382   */\n      shl\n        /* \"#utility.yul\":18345:18382   */\n      swap1\n      pop\n        /* \"#utility.yul\":18282:18389   */\n      swap3\n      swap2\n      pop\n      pop\n      jump\t// out\n        /* \"#utility.yul\":18395:18788   */\n    tag_227:\n        /* \"#utility.yul\":18464:18470   */\n      0x00\n        /* \"#utility.yul\":18514:18515   */\n      0x08\n        /* \"#utility.yul\":18502:18512   */\n      dup4\n        /* \"#utility.yul\":18498:18516   */\n      mul\n        /* \"#utility.yul\":18537:18634   */\n      tag_403\n        /* \"#utility.yul\":18567:18633   */\n      0xffffffffffffffffffffffffffffffffffffffffffffffffffffffffffffffff\n        /* \"#utility.yul\":18556:18565   */\n      dup3\n        /* \"#utility.yul\":18537:18634   */\n      tag_226\n      jump\t// in\n    tag_403:\n        /* \"#utility.yul\":18655:18694   */\n      tag_404\n        /* \"#utility.yul\":18685:18693   */\n      dup7\n        /* \"#utility.yul\":18674:18683   */\n      dup4\n        /* \"#utility.yul\":18655:18694   */\n      tag_226\n      jump\t// in\n    tag_404:\n        /* \"#utility.yul\":18643:18694   */\n      swap6\n      pop\n        /* \"#utility.yul\":18727:18731   */\n      dup1\n        /* \"#utility.yul\":18723:18732   */\n      not\n        /* \"#utility.yul\":18716:18721   */\n      dup5\n        /* \"#utility.yul\":18712:18733   */\n      and\n        /* \"#utility.yul\":18703:18733   */\n      swap4\n      pop\n        /* \"#utility.yul\":18776:18780   */\n      dup1\n        /* \"#utility.yul\":18766:18774   */\n      dup7\n        /* \"#utility.yul\":18762:18781   */\n      and\n        /* \"#utility.yul\":18755:18760   */\n      dup5\n        /* \"#utility.yul\":18752:18782   */\n      or\n        /* \"#utility.yul\":18742:18782   */\n      swap3\n      pop\n        /* \"#utility.yul\":18471:18788   */\n      pop\n      pop\n        /* \"#utility.yul\":18395:18788   */\n      swap4\n      swap3\n      pop\n      pop\n      pop\n      jump\t// out\n        /* \"#utility.yul\":18794:18854   */\n    tag_228:\n        /* \"#utility.yul\":18822:18825   */\n      0x00\n        /* \"#utility.yul\":18843:18848   */\n      dup2\n        /* \"#utility.yul\":18836:18848   */\n      swap1\n      pop\n        /* \"#utility.yul\":18794:18854   */\n      swap2\n      swap1\n      pop\n      jump\t// out\n        /* \"#utility.yul\":18860:19002   */\n    tag_229:\n        /* \"#utility.yul\":18910:18919   */\n      0x00\n        /* \"#utility.yul\":18943:18996   */\n      tag_407\n        /* \"#utility.yul\":18961:18995   */\n      tag_408\n        /* \"#utility.yul\":18970:18994   */\n      tag_409\n        /* \"#utility.yul\":18988:18993   */\n      dup5\n        /* \"#utility.yul\":18970:18994   */\n      tag_187\n      jump\t// in\n    tag_409:\n        /* \"#utility.yul\":18961:18995   */\n      tag_228\n      jump\t// in\n    tag_408:\n        /* \"#utility.yul\":18943:18996   */\n      tag_187\n      jump\t// in\n    tag_407:\n        /* \"#utility.yul\":18930:18996   */\n      swap1\n      pop\n        /* \"#utility.yul\":18860:19002   */\n      swap2\n      swap1\n      pop\n      jump\t// out\n        /* \"#utility.yul\":19008:19083   */\n    tag_230:\n        /* \"#utility.yul\":19051:19054   */\n      0x00\n        /* \"#utility.yul\":19072:19077   */\n      dup2\n        /* \"#utility.yul\":19065:19077   */\n      swap1\n      pop\n        /* \"#utility.yul\":19008:19083   */\n      swap2\n      swap1\n      pop\n      jump\t// out\n        /* \"#utility.yul\":19089:19358   */\n    tag_231:\n        /* \"#utility.yul\":19199:19238   */\n      tag_412\n        /* \"#utility.yul\":19230:19237   */\n      dup4\n        /* \"#utility.yul\":19199:19238   */\n      tag_229\n      jump\t// in\n    tag_412:\n        /* \"#utility.yul\":19260:19351   */\n      tag_413\n        /* \"#utility.yul\":19309:19350   */\n      tag_414\n        /* \"#utility.yul\":19333:19349   */\n      dup3\n        /* \"#utility.yul\":19309:19350   */\n      tag_230\n      jump\t// in\n    tag_414:\n        /* \"#utility.yul\":19301:19307   */\n      dup5\n        /* \"#utility.yul\":19294:19298   */\n      dup5\n        /* \"#utility.yul\":19288:19299   */\n      sload\n        /* \"#utility.yul\":19260:19351   */\n      tag_227\n      jump\t// in\n    tag_413:\n        /* \"#utility.yul\":19254:19258   */\n      dup3\n        /* \"#utility.yul\":19247:19352   */\n      sstore\n        /* \"#utility.yul\":19165:19358   */\n      pop\n        /* \"#utility.yul\":19089:19358   */\n      pop\n      pop\n      pop\n      jump\t// out\n        /* \"#utility.yul\":19364:19437   */\n    tag_232:\n        /* \"#utility.yul\":19409:19412   */\n      0x00\n        /* \"#utility.yul\":19364:19437   */\n      swap1\n      jump\t// out\n        /* \"#utility.yul\":19443:19632   */\n    tag_233:\n        /* \"#utility.yul\":19520:19552   */\n      tag_417\n      tag_232\n      jump\t// in\n    tag_417:\n        /* \"#utility.yul\":19561:19626   */\n      tag_418\n        /* \"#utility.yul\":19619:19625   */\n      dup2\n        /* \"#utility.yul\":19611:19617   */\n      dup5\n        /* \"#utility.yul\":19605:19609   */\n      dup5\n        /* \"#utility.yul\":19561:19626   */\n      tag_231\n      jump\t// in\n    tag_418:\n        /* \"#utility.yul\":19496:19632   */\n      pop\n        /* \"#utility.yul\":19443:19632   */\n      pop\n      pop\n      jump\t// out\n        /* \"#utility.yul\":19638:19824   */\n    tag_234:\n        /* \"#utility.yul\":19698:19818   */\n    tag_420:\n        /* \"#utility.yul\":19715:19718   */\n      dup2\n        /* \"#utility.yul\":19708:19713   */\n      dup2\n        /* \"#utility.yul\":19705:19719   */\n      lt\n        /* \"#utility.yul\":19698:19818   */\n      iszero\n      tag_422\n      jumpi\n        /* \"#utility.yul\":19769:19808   */\n      tag_423\n        /* \"#utility.yul\":19806:19807   */\n      0x00\n        /* \"#utility.yul\":19799:19804   */\n      dup3\n        /* \"#utility.yul\":19769:19808   */\n      tag_233\n      jump\t// in\n    tag_423:\n        /* \"#utility.yul\":19742:19743   */\n      0x01\n        /* \"#utility.yul\":19735:19740   */\n      dup2\n        /* \"#utility.yul\":19731:19744   */\n      add\n        /* \"#utility.yul\":19722:19744   */\n      swap1\n      pop\n        /* \"#utility.yul\":19698:19818   */\n      jump(tag_420)\n    tag_422:\n        /* \"#utility.yul\":19638:19824   */\n      pop\n      pop\n      jump\t// out\n        /* \"#utility.yul\":19830:20373   */\n    tag_235:\n        /* \"#utility.yul\":19931:19933   */\n      0x1f\n        /* \"#utility.yul\":19926:19929   */\n      dup3\n        /* \"#utility.yul\":19923:19934   */\n      gt\n        /* \"#utility.yul\":19920:20366   */\n      iszero\n      tag_425\n      jumpi\n        /* \"#utility.yul\":19965:20003   */\n      tag_426\n        /* \"#utility.yul\":19997:20002   */\n      dup2\n        /* \"#utility.yul\":19965:20003   */\n      tag_224\n      jump\t// in\n    tag_426:\n        /* \"#utility.yul\":20049:20078   */\n      tag_427\n        /* \"#utility.yul\":20067:20077   */\n      dup5\n        /* \"#utility.yul\":20049:20078   */\n      tag_225\n      jump\t// in\n    tag_427:\n        /* \"#utility.yul\":20039:20047   */\n      dup2\n        /* \"#utility.yul\":20035:20079   */\n      add\n        /* \"#utility.yul\":20232:20234   */\n      0x20\n        /* \"#utility.yul\":20220:20230   */\n      dup6\n        /* \"#utility.yul\":20217:20235   */\n      lt\n        /* \"#utility.yul\":20214:20263   */\n      iszero\n      tag_428\n      jumpi\n        /* \"#utility.yul\":20253:20261   */\n      dup2\n        /* \"#utility.yul\":20238:20261   */\n      swap1\n      pop\n        /* \"#utility.yul\":20214:20263   */\n    tag_428:\n        /* \"#utility.yul\":20276:20356   */\n      tag_429\n        /* \"#utility.yul\":20332:20354   */\n      tag_430\n        /* \"#utility.yul\":20350:20353   */\n      dup6\n        /* \"#utility.yul\":20332:20354   */\n      tag_225\n      jump\t// in\n    tag_430:\n        /* \"#utility.yul\":20322:20330   */\n      dup4\n        /* \"#utility.yul\":20318:20355   */\n      add\n        /* \"#utility.yul\":20305:20316   */\n      dup3\n        /* \"#utility.yul\":20276:20356   */\n      tag_234\n      jump\t// in\n    tag_429:\n        /* \"#utility.yul\":19935:20366   */\n      pop\n      pop\n        /* \"#utility.yul\":19920:20366   */\n    tag_425:\n        /* \"#utility.yul\":19830:20373   */\n      pop\n      pop\n      pop\n      jump\t// out\n        /* \"#utility.yul\":20379:20496   */\n    tag_236:\n        /* \"#utility.yul\":20433:20441   */\n      0x00\n        /* \"#utility.yul\":20483:20488   */\n      dup3\n        /* \"#utility.yul\":20477:20481   */\n      dup3\n        /* \"#utility.yul\":20473:20489   */\n      shr\n        /* \"#utility.yul\":20452:20489   */\n      swap1\n      pop\n        /* \"#utility.yul\":20379:20496   */\n      swap3\n      swap2\n      pop\n      pop\n      jump\t// out\n        /* \"#utility.yul\":20502:20671   */\n    tag_237:\n        /* \"#utility.yul\":20546:20552   */\n      0x00\n        /* \"#utility.yul\":20579:20630   */\n      tag_433\n        /* \"#utility.yul\":20627:20628   */\n      0x00\n        /* \"#utility.yul\":20623:20629   */\n      not\n        /* \"#utility.yul\":20615:20620   */\n      dup5\n        /* \"#utility.yul\":20612:20613   */\n      0x08\n        /* \"#utility.yul\":20608:20621   */\n      mul\n        /* \"#utility.yul\":20579:20630   */\n      tag_236\n      jump\t// in\n    tag_433:\n        /* \"#utility.yul\":20575:20631   */\n      not\n        /* \"#utility.yul\":20660:20664   */\n      dup1\n        /* \"#utility.yul\":20654:20658   */\n      dup4\n        /* \"#utility.yul\":20650:20665   */\n      and\n        /* \"#utility.yul\":20640:20665   */\n      swap2\n      pop\n        /* \"#utility.yul\":20553:20671   */\n      pop\n        /* \"#utility.yul\":20502:20671   */\n      swap3\n      swap2\n      pop\n      pop\n      jump\t// out\n        /* \"#utility.yul\":20676:20971   */\n    tag_238:\n        /* \"#utility.yul\":20752:20756   */\n      0x00\n        /* \"#utility.yul\":20898:20927   */\n      tag_435\n        /* \"#utility.yul\":20923:20926   */\n      dup4\n        /* \"#utility.yul\":20917:20921   */\n      dup4\n        /* \"#utility.yul\":20898:20927   */\n      tag_237\n      jump\t// in\n    tag_435:\n        /* \"#utility.yul\":20890:20927   */\n      swap2\n      pop\n        /* \"#utility.yul\":20960:20963   */\n      dup3\n        /* \"#utility.yul\":20957:20958   */\n      0x02\n        /* \"#utility.yul\":20953:20964   */\n      mul\n        /* \"#utility.yul\":20947:20951   */\n      dup3\n        /* \"#utility.yul\":20944:20965   */\n      or\n        /* \"#utility.yul\":20936:20965   */\n      swap1\n      pop\n        /* \"#utility.yul\":20676:20971   */\n      swap3\n      swap2\n      pop\n      pop\n      jump\t// out\n        /* \"#utility.yul\":20976:22371   */\n    tag_173:\n        /* \"#utility.yul\":21093:21130   */\n      tag_437\n        /* \"#utility.yul\":21126:21129   */\n      dup3\n        /* \"#utility.yul\":21093:21130   */\n      tag_190\n      jump\t// in\n    tag_437:\n        /* \"#utility.yul\":21195:21213   */\n      0xffffffffffffffff\n        /* \"#utility.yul\":21187:21193   */\n      dup2\n        /* \"#utility.yul\":21184:21214   */\n      gt\n        /* \"#utility.yul\":21181:21237   */\n      iszero\n      tag_438\n      jumpi\n        /* \"#utility.yul\":21217:21235   */\n      tag_439\n      tag_197\n      jump\t// in\n    tag_439:\n        /* \"#utility.yul\":21181:21237   */\n    tag_438:\n        /* \"#utility.yul\":21261:21299   */\n      tag_440\n        /* \"#utility.yul\":21293:21297   */\n      dup3\n        /* \"#utility.yul\":21287:21298   */\n      sload\n        /* \"#utility.yul\":21261:21299   */\n      tag_48\n      jump\t// in\n    tag_440:\n        /* \"#utility.yul\":21346:21413   */\n      tag_441\n        /* \"#utility.yul\":21406:21412   */\n      dup3\n        /* \"#utility.yul\":21398:21404   */\n      dup3\n        /* \"#utility.yul\":21392:21396   */\n      dup6\n        /* \"#utility.yul\":21346:21413   */\n      tag_235\n      jump\t// in\n    tag_441:\n        /* \"#utility.yul\":21440:21441   */\n      0x00\n        /* \"#utility.yul\":21464:21468   */\n      0x20\n        /* \"#utility.yul\":21451:21468   */\n      swap1\n      pop\n        /* \"#utility.yul\":21496:21498   */\n      0x1f\n        /* \"#utility.yul\":21488:21494   */\n      dup4\n        /* \"#utility.yul\":21485:21499   */\n      gt\n        /* \"#utility.yul\":21513:21514   */\n      0x01\n        /* \"#utility.yul\":21508:22126   */\n      dup2\n      eq\n      tag_443\n      jumpi\n        /* \"#utility.yul\":22170:22171   */\n      0x00\n        /* \"#utility.yul\":22187:22193   */\n      dup5\n        /* \"#utility.yul\":22184:22261   */\n      iszero\n      tag_444\n      jumpi\n        /* \"#utility.yul\":22236:22245   */\n      dup3\n        /* \"#utility.yul\":22231:22234   */\n      dup8\n        /* \"#utility.yul\":22227:22246   */\n      add\n        /* \"#utility.yul\":22221:22247   */\n      mload\n        /* \"#utility.yul\":22212:22247   */\n      swap1\n      pop\n        /* \"#utility.yul\":22184:22261   */\n    tag_444:\n        /* \"#utility.yul\":22287:22354   */\n      tag_445\n        /* \"#utility.yul\":22347:22353   */\n      dup6\n        /* \"#utility.yul\":22340:22345   */\n      dup3\n        /* \"#utility.yul\":22287:22354   */\n      tag_238\n      jump\t// in\n    tag_445:\n        /* \"#utility.yul\":22281:22285   */\n      dup7\n        /* \"#utility.yul\":22274:22355   */\n      sstore\n        /* \"#utility.yul\":22143:22365   */\n      pop\n        /* \"#utility.yul\":21478:22365   */\n      jump(tag_442)\n        /* \"#utility.yul\":21508:22126   */\n    tag_443:\n        /* \"#utility.yul\":21560:21564   */\n      0x1f\n        /* \"#utility.yul\":21556:21565   */\n      not\n        /* \"#utility.yul\":21548:21554   */\n      dup5\n        /* \"#utility.yul\":21544:21566   */\n      and\n        /* \"#utility.yul\":21594:21631   */\n      tag_446\n        /* \"#utility.yul\":21626:21630   */\n      dup7\n        /* \"#utility.yul\":21594:21631   */\n      tag_224\n      jump\t// in\n    tag_446:\n        /* \"#utility.yul\":21653:21654   */\n      0x00\n        /* \"#utility.yul\":21667:21875   */\n    tag_447:\n        /* \"#utility.yul\":21681:21688   */\n      dup3\n        /* \"#utility.yul\":21678:21679   */\n      dup2\n        /* \"#utility.yul\":21675:21689   */\n      lt\n        /* \"#utility.yul\":21667:21875   */\n      iszero\n      tag_449\n      jumpi\n        /* \"#utility.yul\":21760:21769   */\n      dup5\n        /* \"#utility.yul\":21755:21758   */\n      dup10\n        /* \"#utility.yul\":21751:21770   */\n      add\n        /* \"#utility.yul\":21745:21771   */\n      mload\n        /* \"#utility.yul\":21737:21743   */\n      dup3\n        /* \"#utility.yul\":21730:21772   */\n      sstore\n        /* \"#utility.yul\":21811:21812   */\n      0x01\n        /* \"#utility.yul\":21803:21809   */\n      dup3\n        /* \"#utility.yul\":21799:21813   */\n      add\n        /* \"#utility.yul\":21789:21813   */\n      swap2\n      pop\n        /* \"#utility.yul\":21858:21860   */\n      0x20\n        /* \"#utility.yul\":21847:21856   */\n      dup6\n        /* \"#utility.yul\":21843:21861   */\n      add\n        /* \"#utility.yul\":21830:21861   */\n      swap5\n      pop\n        /* \"#utility.yul\":21704:21708   */\n      0x20\n        /* \"#utility.yul\":21701:21702   */\n      dup2\n        /* \"#utility.yul\":21697:21709   */\n      add\n        /* \"#utility.yul\":21692:21709   */\n      swap1\n      pop\n        /* \"#utility.yul\":21667:21875   */\n      jump(tag_447)\n    tag_449:\n        /* \"#utility.yul\":21903:21909   */\n      dup7\n        /* \"#utility.yul\":21894:21901   */\n      dup4\n        /* \"#utility.yul\":21891:21910   */\n      lt\n        /* \"#utility.yul\":21888:22067   */\n      iszero\n      tag_450\n      jumpi\n        /* \"#utility.yul\":21961:21970   */\n      dup5\n        /* \"#utility.yul\":21956:21959   */\n      dup10\n        /* \"#utility.yul\":21952:21971   */\n      add\n        /* \"#utility.yul\":21946:21972   */\n      mload\n        /* \"#utility.yul\":22004:22052   */\n      tag_451\n        /* \"#utility.yul\":22046:22050   */\n      0x1f\n        /* \"#utility.yul\":22038:22044   */\n      dup10\n        /* \"#utility.yul\":22034:22051   */\n      and\n        /* \"#utility.yul\":22023:22032   */\n      dup3\n        /* \"#utility.yul\":22004:22052   */\n      tag_237\n      jump\t// in\n    tag_451:\n        /* \"#utility.yul\":21996:22002   */\n      dup4\n        /* \"#utility.yul\":21989:22053   */\n      sstore\n        /* \"#utility.yul\":21911:22067   */\n      pop\n        /* \"#utility.yul\":21888:22067   */\n    tag_450:\n        /* \"#utility.yul\":22113:22114   */\n      0x01\n        /* \"#utility.yul\":22109:22110   */\n      0x02\n        /* \"#utility.yul\":22101:22107   */\n      dup9\n        /* \"#utility.yul\":22097:22111   */\n      mul\n        /* \"#utility.yul\":22093:22115   */\n      add\n        /* \"#utility.yul\":22087:22091   */\n      dup9\n        /* \"#utility.yul\":22080:22116   */\n      sstore\n        /* \"#utility.yul\":21515:22126   */\n      pop\n      pop\n      pop\n        /* \"#utility.yul\":21478:22365   */\n    tag_442:\n      pop\n        /* \"#utility.yul\":21068:22371   */\n      pop\n      pop\n      pop\n        /* \"#utility.yul\":20976:22371   */\n      pop\n      pop\n      jump\t// out\n        /* \"#utility.yul\":22377:22800   */\n    tag_183:\n        /* \"#utility.yul\":22518:22522   */\n      0x00\n        /* \"#utility.yul\":22556:22558   */\n      0x40\n        /* \"#utility.yul\":22545:22554   */\n      dup3\n        /* \"#utility.yul\":22541:22559   */\n      add\n        /* \"#utility.yul\":22533:22559   */\n      swap1\n      pop\n        /* \"#utility.yul\":22605:22614   */\n      dup2\n        /* \"#utility.yul\":22599:22603   */\n      dup2\n        /* \"#utility.yul\":22595:22615   */\n      sub\n        /* \"#utility.yul\":22591:22592   */\n      0x00\n        /* \"#utility.yul\":22580:22589   */\n      dup4\n        /* \"#utility.yul\":22576:22593   */\n      add\n        /* \"#utility.yul\":22569:22616   */\n      mstore\n        /* \"#utility.yul\":22633:22711   */\n      tag_453\n        /* \"#utility.yul\":22706:22710   */\n      dup2\n        /* \"#utility.yul\":22697:22703   */\n      dup6\n        /* \"#utility.yul\":22633:22711   */\n      tag_194\n      jump\t// in\n    tag_453:\n        /* \"#utility.yul\":22625:22711   */\n      swap1\n      pop\n        /* \"#utility.yul\":22721:22793   */\n      tag_454\n        /* \"#utility.yul\":22789:22791   */\n      0x20\n        /* \"#utility.yul\":22778:22787   */\n      dup4\n        /* \"#utility.yul\":22774:22792   */\n      add\n        /* \"#utility.yul\":22765:22771   */\n      dup5\n        /* \"#utility.yul\":22721:22793   */\n      tag_206\n      jump\t// in\n    tag_454:\n        /* \"#utility.yul\":22377:22800   */\n      swap4\n      swap3\n      pop\n      pop\n      pop\n      jump\t// out\n\n    auxdata: 0xa26469706673582212208fe2a1481b6feb24fa23cc3a571e4da9c1ad717f9841b5a8a2e655e98038e66d64736f6c634300081a0033\n}\n",
				"bytecode": {
					"linkReferences": {},
					"object": "6080604052348015600e575f80fd5b50611bc28061001c5f395ff3fe608060405234801561000f575f80fd5b506004361061007b575f3560e01c8063bce0694711610059578063bce0694714610115578063d54d5b9214610133578063e561dddc14610168578063f16f9271146101865761007b565b8063290b17ec1461007f5780637ef1446a146100af57806388cb968e146100e5575b5f80fd5b610099600480360381019061009491906110f9565b6101a2565b6040516100a69190611194565b60405180910390f35b6100c960048036038101906100c491906112e0565b610248565b6040516100dc9796959493929190611336565b60405180910390f35b6100ff60048036038101906100fa91906112e0565b6105c1565b60405161010c91906113e5565b60405180910390f35b61011d6109f2565b60405161012a9190611501565b60405180910390f35b61014d600480360381019061014891906112e0565b610ac6565b60405161015f96959493929190611521565b60405180910390f35b610170610edd565b60405161017d91906115a3565b60405180910390f35b6101a0600480360381019061019b91906115bc565b610ee9565b005b600181815481106101b1575f80fd5b905f5260205f20015f9150905080546101c99061171a565b80601f01602080910402602001604051908101604052809291908181526020018280546101f59061171a565b80156102405780601f1061021757610100808354040283529160200191610240565b820191905f5260205f20905b81548152906001019060200180831161022357829003601f168201915b505050505081565b5f818051602081018201805184825260208301602085012081835280955050505050505f91509050805f01805461027e9061171a565b80601f01602080910402602001604051908101604052809291908181526020018280546102aa9061171a565b80156102f55780601f106102cc576101008083540402835291602001916102f5565b820191905f5260205f20905b8154815290600101906020018083116102d857829003601f168201915b50505050509080600101805461030a9061171a565b80601f01602080910402602001604051908101604052809291908181526020018280546103369061171a565b80156103815780601f1061035857610100808354040283529160200191610381565b820191905f5260205f20905b81548152906001019060200180831161036457829003601f168201915b5050505050908060020180546103969061171a565b80601f01602080910402602001604051908101604052809291908181526020018280546103c29061171a565b801561040d5780601f106103e45761010080835404028352916020019161040d565b820191905f5260205f20905b8154815290600101906020018083116103f057829003601f168201915b5050505050908060030180546104229061171a565b80601f016020809104026020016040519081016040528092919081815260200182805461044e9061171a565b80156104995780601f1061047057610100808354040283529160200191610499565b820191905f5260205f20905b81548152906001019060200180831161047c57829003601f168201915b5050505050908060040180546104ae9061171a565b80601f01602080910402602001604051908101604052809291908181526020018280546104da9061171a565b80156105255780601f106104fc57610100808354040283529160200191610525565b820191905f5260205f20905b81548152906001019060200180831161050857829003601f168201915b50505050509080600501805461053a9061171a565b80601f01602080910402602001604051908101604052809291908181526020018280546105669061171a565b80156105b15780601f10610588576101008083540402835291602001916105b1565b820191905f5260205f20905b81548152906001019060200180831161059457829003601f168201915b5050505050908060060154905087565b5f805f836040516105d29190611784565b90815260200160405180910390206040518060e00160405290815f820180546105fa9061171a565b80601f01602080910402602001604051908101604052809291908181526020018280546106269061171a565b80156106715780601f1061064857610100808354040283529160200191610671565b820191905f5260205f20905b81548152906001019060200180831161065457829003601f168201915b5050505050815260200160018201805461068a9061171a565b80601f01602080910402602001604051908101604052809291908181526020018280546106b69061171a565b80156107015780601f106106d857610100808354040283529160200191610701565b820191905f5260205f20905b8154815290600101906020018083116106e457829003601f168201915b5050505050815260200160028201805461071a9061171a565b80601f01602080910402602001604051908101604052809291908181526020018280546107469061171a565b80156107915780601f1061076857610100808354040283529160200191610791565b820191905f5260205f20905b81548152906001019060200180831161077457829003601f168201915b505050505081526020016003820180546107aa9061171a565b80601f01602080910402602001604051908101604052809291908181526020018280546107d69061171a565b80156108215780601f106107f857610100808354040283529160200191610821565b820191905f5260205f20905b81548152906001019060200180831161080457829003601f168201915b5050505050815260200160048201805461083a9061171a565b80601f01602080910402602001604051908101604052809291908181526020018280546108669061171a565b80156108b15780601f10610888576101008083540402835291602001916108b1565b820191905f5260205f20905b81548152906001019060200180831161089457829003601f168201915b505050505081526020016005820180546108ca9061171a565b80601f01602080910402602001604051908101604052809291908181526020018280546108f69061171a565b80156109415780601f1061091857610100808354040283529160200191610941565b820191905f5260205f20905b81548152906001019060200180831161092457829003601f168201915b5050505050815260200160068201548152505090505f815f0151511161099c576040517f08c379a0000000000000000000000000000000000000000000000000000000008152600401610993906117e4565b60405180910390fd5b805f015181602001518260400151836060015184608001518560a001518660c001516040516020016109d49796959493929190611822565b60405160208183030381529060405280519060200120915050919050565b60606001805480602002602001604051908101604052809291908181526020015f905b82821015610abd578382905f5260205f20018054610a329061171a565b80601f0160208091040260200160405190810160405280929190818152602001828054610a5e9061171a565b8015610aa95780601f10610a8057610100808354040283529160200191610aa9565b820191905f5260205f20905b815481529060010190602001808311610a8c57829003601f168201915b505050505081526020019060010190610a15565b50505050905090565b60608060608060605f805f88604051610adf9190611784565b90815260200160405180910390206040518060e00160405290815f82018054610b079061171a565b80601f0160208091040260200160405190810160405280929190818152602001828054610b339061171a565b8015610b7e5780601f10610b5557610100808354040283529160200191610b7e565b820191905f5260205f20905b815481529060010190602001808311610b6157829003601f168201915b50505050508152602001600182018054610b979061171a565b80601f0160208091040260200160405190810160405280929190818152602001828054610bc39061171a565b8015610c0e5780601f10610be557610100808354040283529160200191610c0e565b820191905f5260205f20905b815481529060010190602001808311610bf157829003601f168201915b50505050508152602001600282018054610c279061171a565b80601f0160208091040260200160405190810160405280929190818152602001828054610c539061171a565b8015610c9e5780601f10610c7557610100808354040283529160200191610c9e565b820191905f5260205f20905b815481529060010190602001808311610c8157829003601f168201915b50505050508152602001600382018054610cb79061171a565b80601f0160208091040260200160405190810160405280929190818152602001828054610ce39061171a565b8015610d2e5780601f10610d0557610100808354040283529160200191610d2e565b820191905f5260205f20905b815481529060010190602001808311610d1157829003601f168201915b50505050508152602001600482018054610d479061171a565b80601f0160208091040260200160405190810160405280929190818152602001828054610d739061171a565b8015610dbe5780601f10610d9557610100808354040283529160200191610dbe565b820191905f5260205f20905b815481529060010190602001808311610da157829003601f168201915b50505050508152602001600582018054610dd79061171a565b80601f0160208091040260200160405190810160405280929190818152602001828054610e039061171a565b8015610e4e5780601f10610e2557610100808354040283529160200191610e4e565b820191905f5260205f20905b815481529060010190602001808311610e3157829003601f168201915b5050505050815260200160068201548152505090505f815f01515111610ea9576040517f08c379a0000000000000000000000000000000000000000000000000000000008152600401610ea0906117e4565b60405180910390fd5b80602001518160400151826060015183608001518460a001518560c001519650965096509650965096505091939550919395565b5f600180549050905090565b5f8087604051610ef99190611784565b90815260200160405180910390205f018054610f149061171a565b905014610f56576040517f08c379a0000000000000000000000000000000000000000000000000000000008152600401610f4d906118d4565b60405180910390fd5b6040518060e00160405280878152602001868152602001858152602001848152602001838152602001828152602001428152505f87604051610f989190611784565b90815260200160405180910390205f820151815f019081610fb99190611a8f565b506020820151816001019081610fcf9190611a8f565b506040820151816002019081610fe59190611a8f565b506060820151816003019081610ffb9190611a8f565b5060808201518160040190816110119190611a8f565b5060a08201518160050190816110279190611a8f565b5060c08201518160060155905050600186908060018154018082558091505060019003905f5260205f20015f9091909190915090816110669190611a8f565b505f611071876105c1565b90507f609d236b1e89861dacd5955039123e735c00914465da65b79aa8cff0762e941c87826040516110a4929190611b5e565b60405180910390a150505050505050565b5f604051905090565b5f80fd5b5f80fd5b5f819050919050565b6110d8816110c6565b81146110e2575f80fd5b50565b5f813590506110f3816110cf565b92915050565b5f6020828403121561110e5761110d6110be565b5b5f61111b848285016110e5565b91505092915050565b5f81519050919050565b5f82825260208201905092915050565b8281835e5f83830152505050565b5f601f19601f8301169050919050565b5f61116682611124565b611170818561112e565b935061118081856020860161113e565b6111898161114c565b840191505092915050565b5f6020820190508181035f8301526111ac818461115c565b905092915050565b5f80fd5b5f80fd5b7f4e487b71000000000000000000000000000000000000000000000000000000005f52604160045260245ffd5b6111f28261114c565b810181811067ffffffffffffffff82111715611211576112106111bc565b5b80604052505050565b5f6112236110b5565b905061122f82826111e9565b919050565b5f67ffffffffffffffff82111561124e5761124d6111bc565b5b6112578261114c565b9050602081019050919050565b828183375f83830152505050565b5f61128461127f84611234565b61121a565b9050828152602081018484840111156112a05761129f6111b8565b5b6112ab848285611264565b509392505050565b5f82601f8301126112c7576112c66111b4565b5b81356112d7848260208601611272565b91505092915050565b5f602082840312156112f5576112f46110be565b5b5f82013567ffffffffffffffff811115611312576113116110c2565b5b61131e848285016112b3565b91505092915050565b611330816110c6565b82525050565b5f60e0820190508181035f83015261134e818a61115c565b90508181036020830152611362818961115c565b90508181036040830152611376818861115c565b9050818103606083015261138a818761115c565b9050818103608083015261139e818661115c565b905081810360a08301526113b2818561115c565b90506113c160c0830184611327565b98975050505050505050565b5f819050919050565b6113df816113cd565b82525050565b5f6020820190506113f85f8301846113d6565b92915050565b5f81519050919050565b5f82825260208201905092915050565b5f819050602082019050919050565b5f82825260208201905092915050565b5f61144182611124565b61144b8185611427565b935061145b81856020860161113e565b6114648161114c565b840191505092915050565b5f61147a8383611437565b905092915050565b5f602082019050919050565b5f611498826113fe565b6114a28185611408565b9350836020820285016114b485611418565b805f5b858110156114ef57848403895281516114d0858261146f565b94506114db83611482565b925060208a019950506001810190506114b7565b50829750879550505050505092915050565b5f6020820190508181035f830152611519818461148e565b905092915050565b5f60c0820190508181035f830152611539818961115c565b9050818103602083015261154d818861115c565b90508181036040830152611561818761115c565b90508181036060830152611575818661115c565b90508181036080830152611589818561115c565b905061159860a0830184611327565b979650505050505050565b5f6020820190506115b65f830184611327565b92915050565b5f805f805f8060c087890312156115d6576115d56110be565b5b5f87013567ffffffffffffffff8111156115f3576115f26110c2565b5b6115ff89828a016112b3565b965050602087013567ffffffffffffffff8111156116205761161f6110c2565b5b61162c89828a016112b3565b955050604087013567ffffffffffffffff81111561164d5761164c6110c2565b5b61165989828a016112b3565b945050606087013567ffffffffffffffff81111561167a576116796110c2565b5b61168689828a016112b3565b935050608087013567ffffffffffffffff8111156116a7576116a66110c2565b5b6116b389828a016112b3565b92505060a087013567ffffffffffffffff8111156116d4576116d36110c2565b5b6116e089828a016112b3565b9150509295509295509295565b7f4e487b71000000000000000000000000000000000000000000000000000000005f52602260045260245ffd5b5f600282049050600182168061173157607f821691505b602082108103611744576117436116ed565b5b50919050565b5f81905092915050565b5f61175e82611124565b611768818561174a565b935061177881856020860161113e565b80840191505092915050565b5f61178f8284611754565b915081905092915050565b7f426174636820646f6573206e6f742065786973740000000000000000000000005f82015250565b5f6117ce60148361112e565b91506117d98261179a565b602082019050919050565b5f6020820190508181035f8301526117fb816117c2565b9050919050565b5f819050919050565b61181c611817826110c6565b611802565b82525050565b5f61182d828a611754565b91506118398289611754565b91506118458288611754565b91506118518287611754565b915061185d8286611754565b91506118698285611754565b9150611875828461180b565b60208201915081905098975050505050505050565b7f426174636820616c7265616479207265676973746572656400000000000000005f82015250565b5f6118be60188361112e565b91506118c98261188a565b602082019050919050565b5f6020820190508181035f8301526118eb816118b2565b9050919050565b5f819050815f5260205f209050919050565b5f6020601f8301049050919050565b5f82821b905092915050565b5f6008830261194e7fffffffffffffffffffffffffffffffffffffffffffffffffffffffffffffffff82611913565b6119588683611913565b95508019841693508086168417925050509392505050565b5f819050919050565b5f61199361198e611989846110c6565b611970565b6110c6565b9050919050565b5f819050919050565b6119ac83611979565b6119c06119b88261199a565b84845461191f565b825550505050565b5f90565b6119d46119c8565b6119df8184846119a3565b505050565b5b81811015611a02576119f75f826119cc565b6001810190506119e5565b5050565b601f821115611a4757611a18816118f2565b611a2184611904565b81016020851015611a30578190505b611a44611a3c85611904565b8301826119e4565b50505b505050565b5f82821c905092915050565b5f611a675f1984600802611a4c565b1980831691505092915050565b5f611a7f8383611a58565b9150826002028217905092915050565b611a9882611124565b67ffffffffffffffff811115611ab157611ab06111bc565b5b611abb825461171a565b611ac6828285611a06565b5f60209050601f831160018114611af7575f8415611ae5578287015190505b611aef8582611a74565b865550611b56565b601f198416611b05866118f2565b5f5b82811015611b2c57848901518255600182019150602085019450602081019050611b07565b86831015611b495784890151611b45601f891682611a58565b8355505b6001600288020188555050505b505050505050565b5f6040820190508181035f830152611b76818561115c565b9050611b8560208301846113d6565b939250505056fea26469706673582212208fe2a1481b6feb24fa23cc3a571e4da9c1ad717f9841b5a8a2e655e98038e66d64736f6c634300081a0033",
					"opcodes": "PUSH1 0x80 PUSH1 0x40 MSTORE CALLVALUE DUP1 ISZERO PUSH1 0xE JUMPI PUSH0 DUP1 REVERT JUMPDEST POP PUSH2 0x1BC2 DUP1 PUSH2 0x1C PUSH0 CODECOPY PUSH0 RETURN INVALID PUSH1 0x80 PUSH1 0x40 MSTORE CALLVALUE DUP1 ISZERO PUSH2 0xF JUMPI PUSH0 DUP1 REVERT JUMPDEST POP PUSH1 0x4 CALLDATASIZE LT PUSH2 0x7B JUMPI PUSH0 CALLDATALOAD PUSH1 0xE0 SHR DUP1 PUSH4 0xBCE06947 GT PUSH2 0x59 JUMPI DUP1 PUSH4 0xBCE06947 EQ PUSH2 0x115 JUMPI DUP1 PUSH4 0xD54D5B92 EQ PUSH2 0x133 JUMPI DUP1 PUSH4 0xE561DDDC EQ PUSH2 0x168 JUMPI DUP1 PUSH4 0xF16F9271 EQ PUSH2 0x186 JUMPI PUSH2 0x7B JUMP JUMPDEST DUP1 PUSH4 0x290B17EC EQ PUSH2 0x7F JUMPI DUP1 PUSH4 0x7EF1446A EQ PUSH2 0xAF JUMPI DUP1 PUSH4 0x88CB968E EQ PUSH2 0xE5 JUMPI JUMPDEST PUSH0 DUP1 REVERT JUMPDEST PUSH2 0x99 PUSH1 0x4 DUP1 CALLDATASIZE SUB DUP2 ADD SWAP1 PUSH2 0x94 SWAP2 SWAP1 PUSH2 0x10F9 JUMP JUMPDEST PUSH2 0x1A2 JUMP JUMPDEST PUSH1 0x40 MLOAD PUSH2 0xA6 SWAP2 SWAP1 PUSH2 0x1194 JUMP JUMPDEST PUSH1 0x40 MLOAD DUP1 SWAP2 SUB SWAP1 RETURN JUMPDEST PUSH2 0xC9 PUSH1 0x4 DUP1 CALLDATASIZE SUB DUP2 ADD SWAP1 PUSH2 0xC4 SWAP2 SWAP1 PUSH2 0x12E0 JUMP JUMPDEST PUSH2 0x248 JUMP JUMPDEST PUSH1 0x40 MLOAD PUSH2 0xDC SWAP8 SWAP7 SWAP6 SWAP5 SWAP4 SWAP3 SWAP2 SWAP1 PUSH2 0x1336 JUMP JUMPDEST PUSH1 0x40 MLOAD DUP1 SWAP2 SUB SWAP1 RETURN JUMPDEST PUSH2 0xFF PUSH1 0x4 DUP1 CALLDATASIZE SUB DUP2 ADD SWAP1 PUSH2 0xFA SWAP2 SWAP1 PUSH2 0x12E0 JUMP JUMPDEST PUSH2 0x5C1 JUMP JUMPDEST PUSH1 0x40 MLOAD PUSH2 0x10C SWAP2 SWAP1 PUSH2 0x13E5 JUMP JUMPDEST PUSH1 0x40 MLOAD DUP1 SWAP2 SUB SWAP1 RETURN JUMPDEST PUSH2 0x11D PUSH2 0x9F2 JUMP JUMPDEST PUSH1 0x40 MLOAD PUSH2 0x12A SWAP2 SWAP1 PUSH2 0x1501 JUMP JUMPDEST PUSH1 0x40 MLOAD DUP1 SWAP2 SUB SWAP1 RETURN JUMPDEST PUSH2 0x14D PUSH1 0x4 DUP1 CALLDATASIZE SUB DUP2 ADD SWAP1 PUSH2 0x148 SWAP2 SWAP1 PUSH2 0x12E0 JUMP JUMPDEST PUSH2 0xAC6 JUMP JUMPDEST PUSH1 0x40 MLOAD PUSH2 0x15F SWAP7 SWAP6 SWAP5 SWAP4 SWAP3 SWAP2 SWAP1 PUSH2 0x1521 JUMP JUMPDEST PUSH1 0x40 MLOAD DUP1 SWAP2 SUB SWAP1 RETURN JUMPDEST PUSH2 0x170 PUSH2 0xEDD JUMP JUMPDEST PUSH1 0x40 MLOAD PUSH2 0x17D SWAP2 SWAP1 PUSH2 0x15A3 JUMP JUMPDEST PUSH1 0x40 MLOAD DUP1 SWAP2 SUB SWAP1 RETURN JUMPDEST PUSH2 0x1A0 PUSH1 0x4 DUP1 CALLDATASIZE SUB DUP2 ADD SWAP1 PUSH2 0x19B SWAP2 SWAP1 PUSH2 0x15BC JUMP JUMPDEST PUSH2 0xEE9 JUMP JUMPDEST STOP JUMPDEST PUSH1 0x1 DUP2 DUP2 SLOAD DUP2 LT PUSH2 0x1B1 JUMPI PUSH0 DUP1 REVERT JUMPDEST SWAP1 PUSH0 MSTORE PUSH1 0x20 PUSH0 KECCAK256 ADD PUSH0 SWAP2 POP SWAP1 POP DUP1 SLOAD PUSH2 0x1C9 SWAP1 PUSH2 0x171A JUMP JUMPDEST DUP1 PUSH1 0x1F ADD PUSH1 0x20 DUP1 SWAP2 DIV MUL PUSH1 0x20 ADD PUSH1 0x40 MLOAD SWAP1 DUP2 ADD PUSH1 0x40 MSTORE DUP1 SWAP3 SWAP2 SWAP1 DUP2 DUP2 MSTORE PUSH1 0x20 ADD DUP3 DUP1 SLOAD PUSH2 0x1F5 SWAP1 PUSH2 0x171A JUMP JUMPDEST DUP1 ISZERO PUSH2 0x240 JUMPI DUP1 PUSH1 0x1F LT PUSH2 0x217 JUMPI PUSH2 0x100 DUP1 DUP4 SLOAD DIV MUL DUP4 MSTORE SWAP2 PUSH1 0x20 ADD SWAP2 PUSH2 0x240 JUMP JUMPDEST DUP3 ADD SWAP2 SWAP1 PUSH0 MSTORE PUSH1 0x20 PUSH0 KECCAK256 SWAP1 JUMPDEST DUP2 SLOAD DUP2 MSTORE SWAP1 PUSH1 0x1 ADD SWAP1 PUSH1 0x20 ADD DUP1 DUP4 GT PUSH2 0x223 JUMPI DUP3 SWAP1 SUB PUSH1 0x1F AND DUP3 ADD SWAP2 JUMPDEST POP POP POP POP POP DUP2 JUMP JUMPDEST PUSH0 DUP2 DUP1 MLOAD PUSH1 0x20 DUP2 ADD DUP3 ADD DUP1 MLOAD DUP5 DUP3 MSTORE PUSH1 0x20 DUP4 ADD PUSH1 0x20 DUP6 ADD KECCAK256 DUP2 DUP4 MSTORE DUP1 SWAP6 POP POP POP POP POP POP PUSH0 SWAP2 POP SWAP1 POP DUP1 PUSH0 ADD DUP1 SLOAD PUSH2 0x27E SWAP1 PUSH2 0x171A JUMP JUMPDEST DUP1 PUSH1 0x1F ADD PUSH1 0x20 DUP1 SWAP2 DIV MUL PUSH1 0x20 ADD PUSH1 0x40 MLOAD SWAP1 DUP2 ADD PUSH1 0x40 MSTORE DUP1 SWAP3 SWAP2 SWAP1 DUP2 DUP2 MSTORE PUSH1 0x20 ADD DUP3 DUP1 SLOAD PUSH2 0x2AA SWAP1 PUSH2 0x171A JUMP JUMPDEST DUP1 ISZERO PUSH2 0x2F5 JUMPI DUP1 PUSH1 0x1F LT PUSH2 0x2CC JUMPI PUSH2 0x100 DUP1 DUP4 SLOAD DIV MUL DUP4 MSTORE SWAP2 PUSH1 0x20 ADD SWAP2 PUSH2 0x2F5 JUMP JUMPDEST DUP3 ADD SWAP2 SWAP1 PUSH0 MSTORE PUSH1 0x20 PUSH0 KECCAK256 SWAP1 JUMPDEST DUP2 SLOAD DUP2 MSTORE SWAP1 PUSH1 0x1 ADD SWAP1 PUSH1 0x20 ADD DUP1 DUP4 GT PUSH2 0x2D8 JUMPI DUP3 SWAP1 SUB PUSH1 0x1F AND DUP3 ADD SWAP2 JUMPDEST POP POP POP POP POP SWAP1 DUP1 PUSH1 0x1 ADD DUP1 SLOAD PUSH2 0x30A SWAP1 PUSH2 0x171A JUMP JUMPDEST DUP1 PUSH1 0x1F ADD PUSH1 0x20 DUP1 SWAP2 DIV MUL PUSH1 0x20 ADD PUSH1 0x40 MLOAD SWAP1 DUP2 ADD PUSH1 0x40 MSTORE DUP1 SWAP3 SWAP2 SWAP1 DUP2 DUP2 MSTORE PUSH1 0x20 ADD DUP3 DUP1 SLOAD PUSH2 0x336 SWAP1 PUSH2 0x171A JUMP JUMPDEST DUP1 ISZERO PUSH2 0x381 JUMPI DUP1 PUSH1 0x1F LT PUSH2 0x358 JUMPI PUSH2 0x100 DUP1 DUP4 SLOAD DIV MUL DUP4 MSTORE SWAP2 PUSH1 0x20 ADD SWAP2 PUSH2 0x381 JUMP JUMPDEST DUP3 ADD SWAP2 SWAP1 PUSH0 MSTORE PUSH1 0x20 PUSH0 KECCAK256 SWAP1 JUMPDEST DUP2 SLOAD DUP2 MSTORE SWAP1 PUSH1 0x1 ADD SWAP1 PUSH1 0x20 ADD DUP1 DUP4 GT PUSH2 0x364 JUMPI DUP3 SWAP1 SUB PUSH1 0x1F AND DUP3 ADD SWAP2 JUMPDEST POP POP POP POP POP SWAP1 DUP1 PUSH1 0x2 ADD DUP1 SLOAD PUSH2 0x396 SWAP1 PUSH2 0x171A JUMP JUMPDEST DUP1 PUSH1 0x1F ADD PUSH1 0x20 DUP1 SWAP2 DIV MUL PUSH1 0x20 ADD PUSH1 0x40 MLOAD SWAP1 DUP2 ADD PUSH1 0x40 MSTORE DUP1 SWAP3 SWAP2 SWAP1 DUP2 DUP2 MSTORE PUSH1 0x20 ADD DUP3 DUP1 SLOAD PUSH2 0x3C2 SWAP1 PUSH2 0x171A JUMP JUMPDEST DUP1 ISZERO PUSH2 0x40D JUMPI DUP1 PUSH1 0x1F LT PUSH2 0x3E4 JUMPI PUSH2 0x100 DUP1 DUP4 SLOAD DIV MUL DUP4 MSTORE SWAP2 PUSH1 0x20 ADD SWAP2 PUSH2 0x40D JUMP JUMPDEST DUP3 ADD SWAP2 SWAP1 PUSH0 MSTORE PUSH1 0x20 PUSH0 KECCAK256 SWAP1 JUMPDEST DUP2 SLOAD DUP2 MSTORE SWAP1 PUSH1 0x1 ADD SWAP1 PUSH1 0x20 ADD DUP1 DUP4 GT PUSH2 0x3F0 JUMPI DUP3 SWAP1 SUB PUSH1 0x1F AND DUP3 ADD SWAP2 JUMPDEST POP POP POP POP POP SWAP1 DUP1 PUSH1 0x3 ADD DUP1 SLOAD PUSH2 0x422 SWAP1 PUSH2 0x171A JUMP JUMPDEST DUP1 PUSH1 0x1F ADD PUSH1 0x20 DUP1 SWAP2 DIV MUL PUSH1 0x20 ADD PUSH1 0x40 MLOAD SWAP1 DUP2 ADD PUSH1 0x40 MSTORE DUP1 SWAP3 SWAP2 SWAP1 DUP2 DUP2 MSTORE PUSH1 0x20 ADD DUP3 DUP1 SLOAD PUSH2 0x44E SWAP1 PUSH2 0x171A JUMP JUMPDEST DUP1 ISZERO PUSH2 0x499 JUMPI DUP1 PUSH1 0x1F LT PUSH2 0x470 JUMPI PUSH2 0x100 DUP1 DUP4 SLOAD DIV MUL DUP4 MSTORE SWAP2 PUSH1 0x20 ADD SWAP2 PUSH2 0x499 JUMP JUMPDEST DUP3 ADD SWAP2 SWAP1 PUSH0 MSTORE PUSH1 0x20 PUSH0 KECCAK256 SWAP1 JUMPDEST DUP2 SLOAD DUP2 MSTORE SWAP1 PUSH1 0x1 ADD SWAP1 PUSH1 0x20 ADD DUP1 DUP4 GT PUSH2 0x47C JUMPI DUP3 SWAP1 SUB PUSH1 0x1F AND DUP3 ADD SWAP2 JUMPDEST POP POP POP POP POP SWAP1 DUP1 PUSH1 0x4 ADD DUP1 SLOAD PUSH2 0x4AE SWAP1 PUSH2 0x171A JUMP JUMPDEST DUP1 PUSH1 0x1F ADD PUSH1 0x20 DUP1 SWAP2 DIV MUL PUSH1 0x20 ADD PUSH1 0x40 MLOAD SWAP1 DUP2 ADD PUSH1 0x40 MSTORE DUP1 SWAP3 SWAP2 SWAP1 DUP2 DUP2 MSTORE PUSH1 0x20 ADD DUP3 DUP1 SLOAD PUSH2 0x4DA SWAP1 PUSH2 0x171A JUMP JUMPDEST DUP1 ISZERO PUSH2 0x525 JUMPI DUP1 PUSH1 0x1F LT PUSH2 0x4FC JUMPI PUSH2 0x100 DUP1 DUP4 SLOAD DIV MUL DUP4 MSTORE SWAP2 PUSH1 0x20 ADD SWAP2 PUSH2 0x525 JUMP JUMPDEST DUP3 ADD SWAP2 SWAP1 PUSH0 MSTORE PUSH1 0x20 PUSH0 KECCAK256 SWAP1 JUMPDEST DUP2 SLOAD DUP2 MSTORE SWAP1 PUSH1 0x1 ADD SWAP1 PUSH1 0x20 ADD DUP1 DUP4 GT PUSH2 0x508 JUMPI DUP3 SWAP1 SUB PUSH1 0x1F AND DUP3 ADD SWAP2 JUMPDEST POP POP POP POP POP SWAP1 DUP1 PUSH1 0x5 ADD DUP1 SLOAD PUSH2 0x53A SWAP1 PUSH2 0x171A JUMP JUMPDEST DUP1 PUSH1 0x1F ADD PUSH1 0x20 DUP1 SWAP2 DIV MUL PUSH1 0x20 ADD PUSH1 0x40 MLOAD SWAP1 DUP2 ADD PUSH1 0x40 MSTORE DUP1 SWAP3 SWAP2 SWAP1 DUP2 DUP2 MSTORE PUSH1 0x20 ADD DUP3 DUP1 SLOAD PUSH2 0x566 SWAP1 PUSH2 0x171A JUMP JUMPDEST DUP1 ISZERO PUSH2 0x5B1 JUMPI DUP1 PUSH1 0x1F LT PUSH2 0x588 JUMPI PUSH2 0x100 DUP1 DUP4 SLOAD DIV MUL DUP4 MSTORE SWAP2 PUSH1 0x20 ADD SWAP2 PUSH2 0x5B1 JUMP JUMPDEST DUP3 ADD SWAP2 SWAP1 PUSH0 MSTORE PUSH1 0x20 PUSH0 KECCAK256 SWAP1 JUMPDEST DUP2 SLOAD DUP2 MSTORE SWAP1 PUSH1 0x1 ADD SWAP1 PUSH1 0x20 ADD DUP1 DUP4 GT PUSH2 0x594 JUMPI DUP3 SWAP1 SUB PUSH1 0x1F AND DUP3 ADD SWAP2 JUMPDEST POP POP POP POP POP SWAP1 DUP1 PUSH1 0x6 ADD SLOAD SWAP1 POP DUP8 JUMP JUMPDEST PUSH0 DUP1 PUSH0 DUP4 PUSH1 0x40 MLOAD PUSH2 0x5D2 SWAP2 SWAP1 PUSH2 0x1784 JUMP JUMPDEST SWAP1 DUP2 MSTORE PUSH1 0x20 ADD PUSH1 0x40 MLOAD DUP1 SWAP2 SUB SWAP1 KECCAK256 PUSH1 0x40 MLOAD DUP1 PUSH1 0xE0 ADD PUSH1 0x40 MSTORE SWAP1 DUP2 PUSH0 DUP3 ADD DUP1 SLOAD PUSH2 0x5FA SWAP1 PUSH2 0x171A JUMP JUMPDEST DUP1 PUSH1 0x1F ADD PUSH1 0x20 DUP1 SWAP2 DIV MUL PUSH1 0x20 ADD PUSH1 0x40 MLOAD SWAP1 DUP2 ADD PUSH1 0x40 MSTORE DUP1 SWAP3 SWAP2 SWAP1 DUP2 DUP2 MSTORE PUSH1 0x20 ADD DUP3 DUP1 SLOAD PUSH2 0x626 SWAP1 PUSH2 0x171A JUMP JUMPDEST DUP1 ISZERO PUSH2 0x671 JUMPI DUP1 PUSH1 0x1F LT PUSH2 0x648 JUMPI PUSH2 0x100 DUP1 DUP4 SLOAD DIV MUL DUP4 MSTORE SWAP2 PUSH1 0x20 ADD SWAP2 PUSH2 0x671 JUMP JUMPDEST DUP3 ADD SWAP2 SWAP1 PUSH0 MSTORE PUSH1 0x20 PUSH0 KECCAK256 SWAP1 JUMPDEST DUP2 SLOAD DUP2 MSTORE SWAP1 PUSH1 0x1 ADD SWAP1 PUSH1 0x20 ADD DUP1 DUP4 GT PUSH2 0x654 JUMPI DUP3 SWAP1 SUB PUSH1 0x1F AND DUP3 ADD SWAP2 JUMPDEST POP POP POP POP POP DUP2 MSTORE PUSH1 0x20 ADD PUSH1 0x1 DUP3 ADD DUP1 SLOAD PUSH2 0x68A SWAP1 PUSH2 0x171A JUMP JUMPDEST DUP1 PUSH1 0x1F ADD PUSH1 0x20 DUP1 SWAP2 DIV MUL PUSH1 0x20 ADD PUSH1 0x40 MLOAD SWAP1 DUP2 ADD PUSH1 0x40 MSTORE DUP1 SWAP3 SWAP2 SWAP1 DUP2 DUP2 MSTORE PUSH1 0x20 ADD DUP3 DUP1 SLOAD PUSH2 0x6B6 SWAP1 PUSH2 0x171A JUMP JUMPDEST DUP1 ISZERO PUSH2 0x701 JUMPI DUP1 PUSH1 0x1F LT PUSH2 0x6D8 JUMPI PUSH2 0x100 DUP1 DUP4 SLOAD DIV MUL DUP4 MSTORE SWAP2 PUSH1 0x20 ADD SWAP2 PUSH2 0x701 JUMP JUMPDEST DUP3 ADD SWAP2 SWAP1 PUSH0 MSTORE PUSH1 0x20 PUSH0 KECCAK256 SWAP1 JUMPDEST DUP2 SLOAD DUP2 MSTORE SWAP1 PUSH1 0x1 ADD SWAP1 PUSH1 0x20 ADD DUP1 DUP4 GT PUSH2 0x6E4 JUMPI DUP3 SWAP1 SUB PUSH1 0x1F AND DUP3 ADD SWAP2 JUMPDEST POP POP POP POP POP DUP2 MSTORE PUSH1 0x20 ADD PUSH1 0x2 DUP3 ADD DUP1 SLOAD PUSH2 0x71A SWAP1 PUSH2 0x171A JUMP JUMPDEST DUP1 PUSH1 0x1F ADD PUSH1 0x20 DUP1 SWAP2 DIV MUL PUSH1 0x20 ADD PUSH1 0x40 MLOAD SWAP1 DUP2 ADD PUSH1 0x40 MSTORE DUP1 SWAP3 SWAP2 SWAP1 DUP2 DUP2 MSTORE PUSH1 0x20 ADD DUP3 DUP1 SLOAD PUSH2 0x746 SWAP1 PUSH2 0x171A JUMP JUMPDEST DUP1 ISZERO PUSH2 0x791 JUMPI DUP1 PUSH1 0x1F LT PUSH2 0x768 JUMPI PUSH2 0x100 DUP1 DUP4 SLOAD DIV MUL DUP4 MSTORE SWAP2 PUSH1 0x20 ADD SWAP2 PUSH2 0x791 JUMP JUMPDEST DUP3 ADD SWAP2 SWAP1 PUSH0 MSTORE PUSH1 0x20 PUSH0 KECCAK256 SWAP1 JUMPDEST DUP2 SLOAD DUP2 MSTORE SWAP1 PUSH1 0x1 ADD SWAP1 PUSH1 0x20 ADD DUP1 DUP4 GT PUSH2 0x774 JUMPI DUP3 SWAP1 SUB PUSH1 0x1F AND DUP3 ADD SWAP2 JUMPDEST POP POP POP POP POP DUP2 MSTORE PUSH1 0x20 ADD PUSH1 0x3 DUP3 ADD DUP1 SLOAD PUSH2 0x7AA SWAP1 PUSH2 0x171A JUMP JUMPDEST DUP1 PUSH1 0x1F ADD PUSH1 0x20 DUP1 SWAP2 DIV MUL PUSH1 0x20 ADD PUSH1 0x40 MLOAD SWAP1 DUP2 ADD PUSH1 0x40 MSTORE DUP1 SWAP3 SWAP2 SWAP1 DUP2 DUP2 MSTORE PUSH1 0x20 ADD DUP3 DUP1 SLOAD PUSH2 0x7D6 SWAP1 PUSH2 0x171A JUMP JUMPDEST DUP1 ISZERO PUSH2 0x821 JUMPI DUP1 PUSH1 0x1F LT PUSH2 0x7F8 JUMPI PUSH2 0x100 DUP1 DUP4 SLOAD DIV MUL DUP4 MSTORE SWAP2 PUSH1 0x20 ADD SWAP2 PUSH2 0x821 JUMP JUMPDEST DUP3 ADD SWAP2 SWAP1 PUSH0 MSTORE PUSH1 0x20 PUSH0 KECCAK256 SWAP1 JUMPDEST DUP2 SLOAD DUP2 MSTORE SWAP1 PUSH1 0x1 ADD SWAP1 PUSH1 0x20 ADD DUP1 DUP4 GT PUSH2 0x804 JUMPI DUP3 SWAP1 SUB PUSH1 0x1F AND DUP3 ADD SWAP2 JUMPDEST POP POP POP POP POP DUP2 MSTORE PUSH1 0x20 ADD PUSH1 0x4 DUP3 ADD DUP1 SLOAD PUSH2 0x83A SWAP1 PUSH2 0x171A JUMP JUMPDEST DUP1 PUSH1 0x1F ADD PUSH1 0x20 DUP1 SWAP2 DIV MUL PUSH1 0x20 ADD PUSH1 0x40 MLOAD SWAP1 DUP2 ADD PUSH1 0x40 MSTORE DUP1 SWAP3 SWAP2 SWAP1 DUP2 DUP2 MSTORE PUSH1 0x20 ADD DUP3 DUP1 SLOAD PUSH2 0x866 SWAP1 PUSH2 0x171A JUMP JUMPDEST DUP1 ISZERO PUSH2 0x8B1 JUMPI DUP1 PUSH1 0x1F LT PUSH2 0x888 JUMPI PUSH2 0x100 DUP1 DUP4 SLOAD DIV MUL DUP4 MSTORE SWAP2 PUSH1 0x20 ADD SWAP2 PUSH2 0x8B1 JUMP JUMPDEST DUP3 ADD SWAP2 SWAP1 PUSH0 MSTORE PUSH1 0x20 PUSH0 KECCAK256 SWAP1 JUMPDEST DUP2 SLOAD DUP2 MSTORE SWAP1 PUSH1 0x1 ADD SWAP1 PUSH1 0x20 ADD DUP1 DUP4 GT PUSH2 0x894 JUMPI DUP3 SWAP1 SUB PUSH1 0x1F AND DUP3 ADD SWAP2 JUMPDEST POP POP POP POP POP DUP2 MSTORE PUSH1 0x20 ADD PUSH1 0x5 DUP3 ADD DUP1 SLOAD PUSH2 0x8CA SWAP1 PUSH2 0x171A JUMP JUMPDEST DUP1 PUSH1 0x1F ADD PUSH1 0x20 DUP1 SWAP2 DIV MUL PUSH1 0x20 ADD PUSH1 0x40 MLOAD SWAP1 DUP2 ADD PUSH1 0x40 MSTORE DUP1 SWAP3 SWAP2 SWAP1 DUP2 DUP2 MSTORE PUSH1 0x20 ADD DUP3 DUP1 SLOAD PUSH2 0x8F6 SWAP1 PUSH2 0x171A JUMP JUMPDEST DUP1 ISZERO PUSH2 0x941 JUMPI DUP1 PUSH1 0x1F LT PUSH2 0x918 JUMPI PUSH2 0x100 DUP1 DUP4 SLOAD DIV MUL DUP4 MSTORE SWAP2 PUSH1 0x20 ADD SWAP2 PUSH2 0x941 JUMP JUMPDEST DUP3 ADD SWAP2 SWAP1 PUSH0 MSTORE PUSH1 0x20 PUSH0 KECCAK256 SWAP1 JUMPDEST DUP2 SLOAD DUP2 MSTORE SWAP1 PUSH1 0x1 ADD SWAP1 PUSH1 0x20 ADD DUP1 DUP4 GT PUSH2 0x924 JUMPI DUP3 SWAP1 SUB PUSH1 0x1F AND DUP3 ADD SWAP2 JUMPDEST POP POP POP POP POP DUP2 MSTORE PUSH1 0x20 ADD PUSH1 0x6 DUP3 ADD SLOAD DUP2 MSTORE POP POP SWAP1 POP PUSH0 DUP2 PUSH0 ADD MLOAD MLOAD GT PUSH2 0x99C JUMPI PUSH1 0x40 MLOAD PUSH32 0x8C379A000000000000000000000000000000000000000000000000000000000 DUP2 MSTORE PUSH1 0x4 ADD PUSH2 0x993 SWAP1 PUSH2 0x17E4 JUMP JUMPDEST PUSH1 0x40 MLOAD DUP1 SWAP2 SUB SWAP1 REVERT JUMPDEST DUP1 PUSH0 ADD MLOAD DUP2 PUSH1 0x20 ADD MLOAD DUP3 PUSH1 0x40 ADD MLOAD DUP4 PUSH1 0x60 ADD MLOAD DUP5 PUSH1 0x80 ADD MLOAD DUP6 PUSH1 0xA0 ADD MLOAD DUP7 PUSH1 0xC0 ADD MLOAD PUSH1 0x40 MLOAD PUSH1 0x20 ADD PUSH2 0x9D4 SWAP8 SWAP7 SWAP6 SWAP5 SWAP4 SWAP3 SWAP2 SWAP1 PUSH2 0x1822 JUMP JUMPDEST PUSH1 0x40 MLOAD PUSH1 0x20 DUP2 DUP4 SUB SUB DUP2 MSTORE SWAP1 PUSH1 0x40 MSTORE DUP1 MLOAD SWAP1 PUSH1 0x20 ADD KECCAK256 SWAP2 POP POP SWAP2 SWAP1 POP JUMP JUMPDEST PUSH1 0x60 PUSH1 0x1 DUP1 SLOAD DUP1 PUSH1 0x20 MUL PUSH1 0x20 ADD PUSH1 0x40 MLOAD SWAP1 DUP2 ADD PUSH1 0x40 MSTORE DUP1 SWAP3 SWAP2 SWAP1 DUP2 DUP2 MSTORE PUSH1 0x20 ADD PUSH0 SWAP1 JUMPDEST DUP3 DUP3 LT ISZERO PUSH2 0xABD JUMPI DUP4 DUP3 SWAP1 PUSH0 MSTORE PUSH1 0x20 PUSH0 KECCAK256 ADD DUP1 SLOAD PUSH2 0xA32 SWAP1 PUSH2 0x171A JUMP JUMPDEST DUP1 PUSH1 0x1F ADD PUSH1 0x20 DUP1 SWAP2 DIV MUL PUSH1 0x20 ADD PUSH1 0x40 MLOAD SWAP1 DUP2 ADD PUSH1 0x40 MSTORE DUP1 SWAP3 SWAP2 SWAP1 DUP2 DUP2 MSTORE PUSH1 0x20 ADD DUP3 DUP1 SLOAD PUSH2 0xA5E SWAP1 PUSH2 0x171A JUMP JUMPDEST DUP1 ISZERO PUSH2 0xAA9 JUMPI DUP1 PUSH1 0x1F LT PUSH2 0xA80 JUMPI PUSH2 0x100 DUP1 DUP4 SLOAD DIV MUL DUP4 MSTORE SWAP2 PUSH1 0x20 ADD SWAP2 PUSH2 0xAA9 JUMP JUMPDEST DUP3 ADD SWAP2 SWAP1 PUSH0 MSTORE PUSH1 0x20 PUSH0 KECCAK256 SWAP1 JUMPDEST DUP2 SLOAD DUP2 MSTORE SWAP1 PUSH1 0x1 ADD SWAP1 PUSH1 0x20 ADD DUP1 DUP4 GT PUSH2 0xA8C JUMPI DUP3 SWAP1 SUB PUSH1 0x1F AND DUP3 ADD SWAP2 JUMPDEST POP POP POP POP POP DUP2 MSTORE PUSH1 0x20 ADD SWAP1 PUSH1 0x1 ADD SWAP1 PUSH2 0xA15 JUMP JUMPDEST POP POP POP POP SWAP1 POP SWAP1 JUMP JUMPDEST PUSH1 0x60 DUP1 PUSH1 0x60 DUP1 PUSH1 0x60 PUSH0 DUP1 PUSH0 DUP9 PUSH1 0x40 MLOAD PUSH2 0xADF SWAP2 SWAP1 PUSH2 0x1784 JUMP JUMPDEST SWAP1 DUP2 MSTORE PUSH1 0x20 ADD PUSH1 0x40 MLOAD DUP1 SWAP2 SUB SWAP1 KECCAK256 PUSH1 0x40 MLOAD DUP1 PUSH1 0xE0 ADD PUSH1 0x40 MSTORE SWAP1 DUP2 PUSH0 DUP3 ADD DUP1 SLOAD PUSH2 0xB07 SWAP1 PUSH2 0x171A JUMP JUMPDEST DUP1 PUSH1 0x1F ADD PUSH1 0x20 DUP1 SWAP2 DIV MUL PUSH1 0x20 ADD PUSH1 0x40 MLOAD SWAP1 DUP2 ADD PUSH1 0x40 MSTORE DUP1 SWAP3 SWAP2 SWAP1 DUP2 DUP2 MSTORE PUSH1 0x20 ADD DUP3 DUP1 SLOAD PUSH2 0xB33 SWAP1 PUSH2 0x171A JUMP JUMPDEST DUP1 ISZERO PUSH2 0xB7E JUMPI DUP1 PUSH1 0x1F LT PUSH2 0xB55 JUMPI PUSH2 0x100 DUP1 DUP4 SLOAD DIV MUL DUP4 MSTORE SWAP2 PUSH1 0x20 ADD SWAP2 PUSH2 0xB7E JUMP JUMPDEST DUP3 ADD SWAP2 SWAP1 PUSH0 MSTORE PUSH1 0x20 PUSH0 KECCAK256 SWAP1 JUMPDEST DUP2 SLOAD DUP2 MSTORE SWAP1 PUSH1 0x1 ADD SWAP1 PUSH1 0x20 ADD DUP1 DUP4 GT PUSH2 0xB61 JUMPI DUP3 SWAP1 SUB PUSH1 0x1F AND DUP3 ADD SWAP2 JUMPDEST POP POP POP POP POP DUP2 MSTORE PUSH1 0x20 ADD PUSH1 0x1 DUP3 ADD DUP1 SLOAD PUSH2 0xB97 SWAP1 PUSH2 0x171A JUMP JUMPDEST DUP1 PUSH1 0x1F ADD PUSH1 0x20 DUP1 SWAP2 DIV MUL PUSH1 0x20 ADD PUSH1 0x40 MLOAD SWAP1 DUP2 ADD PUSH1 0x40 MSTORE DUP1 SWAP3 SWAP2 SWAP1 DUP2 DUP2 MSTORE PUSH1 0x20 ADD DUP3 DUP1 SLOAD PUSH2 0xBC3 SWAP1 PUSH2 0x171A JUMP JUMPDEST DUP1 ISZERO PUSH2 0xC0E JUMPI DUP1 PUSH1 0x1F LT PUSH2 0xBE5 JUMPI PUSH2 0x100 DUP1 DUP4 SLOAD DIV MUL DUP4 MSTORE SWAP2 PUSH1 0x20 ADD SWAP2 PUSH2 0xC0E JUMP JUMPDEST DUP3 ADD SWAP2 SWAP1 PUSH0 MSTORE PUSH1 0x20 PUSH0 KECCAK256 SWAP1 JUMPDEST DUP2 SLOAD DUP2 MSTORE SWAP1 PUSH1 0x1 ADD SWAP1 PUSH1 0x20 ADD DUP1 DUP4 GT PUSH2 0xBF1 JUMPI DUP3 SWAP1 SUB PUSH1 0x1F AND DUP3 ADD SWAP2 JUMPDEST POP POP POP POP POP DUP2 MSTORE PUSH1 0x20 ADD PUSH1 0x2 DUP3 ADD DUP1 SLOAD PUSH2 0xC27 SWAP1 PUSH2 0x171A JUMP JUMPDEST DUP1 PUSH1 0x1F ADD PUSH1 0x20 DUP1 SWAP2 DIV MUL PUSH1 0x20 ADD PUSH1 0x40 MLOAD SWAP1 DUP2 ADD PUSH1 0x40 MSTORE DUP1 SWAP3 SWAP2 SWAP1 DUP2 DUP2 MSTORE PUSH1 0x20 ADD DUP3 DUP1 SLOAD PUSH2 0xC53 SWAP1 PUSH2 0x171A JUMP JUMPDEST DUP1 ISZERO PUSH2 0xC9E JUMPI DUP1 PUSH1 0x1F LT PUSH2 0xC75 JUMPI PUSH2 0x100 DUP1 DUP4 SLOAD DIV MUL DUP4 MSTORE SWAP2 PUSH1 0x20 ADD SWAP2 PUSH2 0xC9E JUMP JUMPDEST DUP3 ADD SWAP2 SWAP1 PUSH0 MSTORE PUSH1 0x20 PUSH0 KECCAK256 SWAP1 JUMPDEST DUP2 SLOAD DUP2 MSTORE SWAP1 PUSH1 0x1 ADD SWAP1 PUSH1 0x20 ADD DUP1 DUP4 GT PUSH2 0xC81 JUMPI DUP3 SWAP1 SUB PUSH1 0x1F AND DUP3 ADD SWAP2 JUMPDEST POP POP POP POP POP DUP2 MSTORE PUSH1 0x20 ADD PUSH1 0x3 DUP3 ADD DUP1 SLOAD PUSH2 0xCB7 SWAP1 PUSH2 0x171A JUMP JUMPDEST DUP1 PUSH1 0x1F ADD PUSH1 0x20 DUP1 SWAP2 DIV MUL PUSH1 0x20 ADD PUSH1 0x40 MLOAD SWAP1 DUP2 ADD PUSH1 0x40 MSTORE DUP1 SWAP3 SWAP2 SWAP1 DUP2 DUP2 MSTORE PUSH1 0x20 ADD DUP3 DUP1 SLOAD PUSH2 0xCE3 SWAP1 PUSH2 0x171A JUMP JUMPDEST DUP1 ISZERO PUSH2 0xD2E JUMPI DUP1 PUSH1 0x1F LT PUSH2 0xD05 JUMPI PUSH2 0x100 DUP1 DUP4 SLOAD DIV MUL DUP4 MSTORE SWAP2 PUSH1 0x20 ADD SWAP2 PUSH2 0xD2E JUMP JUMPDEST DUP3 ADD SWAP2 SWAP1 PUSH0 MSTORE PUSH1 0x20 PUSH0 KECCAK256 SWAP1 JUMPDEST DUP2 SLOAD DUP2 MSTORE SWAP1 PUSH1 0x1 ADD SWAP1 PUSH1 0x20 ADD DUP1 DUP4 GT PUSH2 0xD11 JUMPI DUP3 SWAP1 SUB PUSH1 0x1F AND DUP3 ADD SWAP2 JUMPDEST POP POP POP POP POP DUP2 MSTORE PUSH1 0x20 ADD PUSH1 0x4 DUP3 ADD DUP1 SLOAD PUSH2 0xD47 SWAP1 PUSH2 0x171A JUMP JUMPDEST DUP1 PUSH1 0x1F ADD PUSH1 0x20 DUP1 SWAP2 DIV MUL PUSH1 0x20 ADD PUSH1 0x40 MLOAD SWAP1 DUP2 ADD PUSH1 0x40 MSTORE DUP1 SWAP3 SWAP2 SWAP1 DUP2 DUP2 MSTORE PUSH1 0x20 ADD DUP3 DUP1 SLOAD PUSH2 0xD73 SWAP1 PUSH2 0x171A JUMP JUMPDEST DUP1 ISZERO PUSH2 0xDBE JUMPI DUP1 PUSH1 0x1F LT PUSH2 0xD95 JUMPI PUSH2 0x100 DUP1 DUP4 SLOAD DIV MUL DUP4 MSTORE SWAP2 PUSH1 0x20 ADD SWAP2 PUSH2 0xDBE JUMP JUMPDEST DUP3 ADD SWAP2 SWAP1 PUSH0 MSTORE PUSH1 0x20 PUSH0 KECCAK256 SWAP1 JUMPDEST DUP2 SLOAD DUP2 MSTORE SWAP1 PUSH1 0x1 ADD SWAP1 PUSH1 0x20 ADD DUP1 DUP4 GT PUSH2 0xDA1 JUMPI DUP3 SWAP1 SUB PUSH1 0x1F AND DUP3 ADD SWAP2 JUMPDEST POP POP POP POP POP DUP2 MSTORE PUSH1 0x20 ADD PUSH1 0x5 DUP3 ADD DUP1 SLOAD PUSH2 0xDD7 SWAP1 PUSH2 0x171A JUMP JUMPDEST DUP1 PUSH1 0x1F ADD PUSH1 0x20 DUP1 SWAP2 DIV MUL PUSH1 0x20 ADD PUSH1 0x40 MLOAD SWAP1 DUP2 ADD PUSH1 0x40 MSTORE DUP1 SWAP3 SWAP2 SWAP1 DUP2 DUP2 MSTORE PUSH1 0x20 ADD DUP3 DUP1 SLOAD PUSH2 0xE03 SWAP1 PUSH2 0x171A JUMP JUMPDEST DUP1 ISZERO PUSH2 0xE4E JUMPI DUP1 PUSH1 0x1F LT PUSH2 0xE25 JUMPI PUSH2 0x100 DUP1 DUP4 SLOAD DIV MUL DUP4 MSTORE SWAP2 PUSH1 0x20 ADD SWAP2 PUSH2 0xE4E JUMP JUMPDEST DUP3 ADD SWAP2 SWAP1 PUSH0 MSTORE PUSH1 0x20 PUSH0 KECCAK256 SWAP1 JUMPDEST DUP2 SLOAD DUP2 MSTORE SWAP1 PUSH1 0x1 ADD SWAP1 PUSH1 0x20 ADD DUP1 DUP4 GT PUSH2 0xE31 JUMPI DUP3 SWAP1 SUB PUSH1 0x1F AND DUP3 ADD SWAP2 JUMPDEST POP POP POP POP POP DUP2 MSTORE PUSH1 0x20 ADD PUSH1 0x6 DUP3 ADD SLOAD DUP2 MSTORE POP POP SWAP1 POP PUSH0 DUP2 PUSH0 ADD MLOAD MLOAD GT PUSH2 0xEA9 JUMPI PUSH1 0x40 MLOAD PUSH32 0x8C379A000000000000000000000000000000000000000000000000000000000 DUP2 MSTORE PUSH1 0x4 ADD PUSH2 0xEA0 SWAP1 PUSH2 0x17E4 JUMP JUMPDEST PUSH1 0x40 MLOAD DUP1 SWAP2 SUB SWAP1 REVERT JUMPDEST DUP1 PUSH1 0x20 ADD MLOAD DUP2 PUSH1 0x40 ADD MLOAD DUP3 PUSH1 0x60 ADD MLOAD DUP4 PUSH1 0x80 ADD MLOAD DUP5 PUSH1 0xA0 ADD MLOAD DUP6 PUSH1 0xC0 ADD MLOAD SWAP7 POP SWAP7 POP SWAP7 POP SWAP7 POP SWAP7 POP SWAP7 POP POP SWAP2 SWAP4 SWAP6 POP SWAP2 SWAP4 SWAP6 JUMP JUMPDEST PUSH0 PUSH1 0x1 DUP1 SLOAD SWAP1 POP SWAP1 POP SWAP1 JUMP JUMPDEST PUSH0 DUP1 DUP8 PUSH1 0x40 MLOAD PUSH2 0xEF9 SWAP2 SWAP1 PUSH2 0x1784 JUMP JUMPDEST SWAP1 DUP2 MSTORE PUSH1 0x20 ADD PUSH1 0x40 MLOAD DUP1 SWAP2 SUB SWAP1 KECCAK256 PUSH0 ADD DUP1 SLOAD PUSH2 0xF14 SWAP1 PUSH2 0x171A JUMP JUMPDEST SWAP1 POP EQ PUSH2 0xF56 JUMPI PUSH1 0x40 MLOAD PUSH32 0x8C379A000000000000000000000000000000000000000000000000000000000 DUP2 MSTORE PUSH1 0x4 ADD PUSH2 0xF4D SWAP1 PUSH2 0x18D4 JUMP JUMPDEST PUSH1 0x40 MLOAD DUP1 SWAP2 SUB SWAP1 REVERT JUMPDEST PUSH1 0x40 MLOAD DUP1 PUSH1 0xE0 ADD PUSH1 0x40 MSTORE DUP1 DUP8 DUP2 MSTORE PUSH1 0x20 ADD DUP7 DUP2 MSTORE PUSH1 0x20 ADD DUP6 DUP2 MSTORE PUSH1 0x20 ADD DUP5 DUP2 MSTORE PUSH1 0x20 ADD DUP4 DUP2 MSTORE PUSH1 0x20 ADD DUP3 DUP2 MSTORE PUSH1 0x20 ADD TIMESTAMP DUP2 MSTORE POP PUSH0 DUP8 PUSH1 0x40 MLOAD PUSH2 0xF98 SWAP2 SWAP1 PUSH2 0x1784 JUMP JUMPDEST SWAP1 DUP2 MSTORE PUSH1 0x20 ADD PUSH1 0x40 MLOAD DUP1 SWAP2 SUB SWAP1 KECCAK256 PUSH0 DUP3 ADD MLOAD DUP2 PUSH0 ADD SWAP1 DUP2 PUSH2 0xFB9 SWAP2 SWAP1 PUSH2 0x1A8F JUMP JUMPDEST POP PUSH1 0x20 DUP3 ADD MLOAD DUP2 PUSH1 0x1 ADD SWAP1 DUP2 PUSH2 0xFCF SWAP2 SWAP1 PUSH2 0x1A8F JUMP JUMPDEST POP PUSH1 0x40 DUP3 ADD MLOAD DUP2 PUSH1 0x2 ADD SWAP1 DUP2 PUSH2 0xFE5 SWAP2 SWAP1 PUSH2 0x1A8F JUMP JUMPDEST POP PUSH1 0x60 DUP3 ADD MLOAD DUP2 PUSH1 0x3 ADD SWAP1 DUP2 PUSH2 0xFFB SWAP2 SWAP1 PUSH2 0x1A8F JUMP JUMPDEST POP PUSH1 0x80 DUP3 ADD MLOAD DUP2 PUSH1 0x4 ADD SWAP1 DUP2 PUSH2 0x1011 SWAP2 SWAP1 PUSH2 0x1A8F JUMP JUMPDEST POP PUSH1 0xA0 DUP3 ADD MLOAD DUP2 PUSH1 0x5 ADD SWAP1 DUP2 PUSH2 0x1027 SWAP2 SWAP1 PUSH2 0x1A8F JUMP JUMPDEST POP PUSH1 0xC0 DUP3 ADD MLOAD DUP2 PUSH1 0x6 ADD SSTORE SWAP1 POP POP PUSH1 0x1 DUP7 SWAP1 DUP1 PUSH1 0x1 DUP2 SLOAD ADD DUP1 DUP3 SSTORE DUP1 SWAP2 POP POP PUSH1 0x1 SWAP1 SUB SWAP1 PUSH0 MSTORE PUSH1 0x20 PUSH0 KECCAK256 ADD PUSH0 SWAP1 SWAP2 SWAP1 SWAP2 SWAP1 SWAP2 POP SWAP1 DUP2 PUSH2 0x1066 SWAP2 SWAP1 PUSH2 0x1A8F JUMP JUMPDEST POP PUSH0 PUSH2 0x1071 DUP8 PUSH2 0x5C1 JUMP JUMPDEST SWAP1 POP PUSH32 0x609D236B1E89861DACD5955039123E735C00914465DA65B79AA8CFF0762E941C DUP8 DUP3 PUSH1 0x40 MLOAD PUSH2 0x10A4 SWAP3 SWAP2 SWAP1 PUSH2 0x1B5E JUMP JUMPDEST PUSH1 0x40 MLOAD DUP1 SWAP2 SUB SWAP1 LOG1 POP POP POP POP POP POP POP JUMP JUMPDEST PUSH0 PUSH1 0x40 MLOAD SWAP1 POP SWAP1 JUMP JUMPDEST PUSH0 DUP1 REVERT JUMPDEST PUSH0 DUP1 REVERT JUMPDEST PUSH0 DUP2 SWAP1 POP SWAP2 SWAP1 POP JUMP JUMPDEST PUSH2 0x10D8 DUP2 PUSH2 0x10C6 JUMP JUMPDEST DUP2 EQ PUSH2 0x10E2 JUMPI PUSH0 DUP1 REVERT JUMPDEST POP JUMP JUMPDEST PUSH0 DUP2 CALLDATALOAD SWAP1 POP PUSH2 0x10F3 DUP2 PUSH2 0x10CF JUMP JUMPDEST SWAP3 SWAP2 POP POP JUMP JUMPDEST PUSH0 PUSH1 0x20 DUP3 DUP5 SUB SLT ISZERO PUSH2 0x110E JUMPI PUSH2 0x110D PUSH2 0x10BE JUMP JUMPDEST JUMPDEST PUSH0 PUSH2 0x111B DUP5 DUP3 DUP6 ADD PUSH2 0x10E5 JUMP JUMPDEST SWAP2 POP POP SWAP3 SWAP2 POP POP JUMP JUMPDEST PUSH0 DUP2 MLOAD SWAP1 POP SWAP2 SWAP1 POP JUMP JUMPDEST PUSH0 DUP3 DUP3 MSTORE PUSH1 0x20 DUP3 ADD SWAP1 POP SWAP3 SWAP2 POP POP JUMP JUMPDEST DUP3 DUP2 DUP4 MCOPY PUSH0 DUP4 DUP4 ADD MSTORE POP POP POP JUMP JUMPDEST PUSH0 PUSH1 0x1F NOT PUSH1 0x1F DUP4 ADD AND SWAP1 POP SWAP2 SWAP1 POP JUMP JUMPDEST PUSH0 PUSH2 0x1166 DUP3 PUSH2 0x1124 JUMP JUMPDEST PUSH2 0x1170 DUP2 DUP6 PUSH2 0x112E JUMP JUMPDEST SWAP4 POP PUSH2 0x1180 DUP2 DUP6 PUSH1 0x20 DUP7 ADD PUSH2 0x113E JUMP JUMPDEST PUSH2 0x1189 DUP2 PUSH2 0x114C JUMP JUMPDEST DUP5 ADD SWAP2 POP POP SWAP3 SWAP2 POP POP JUMP JUMPDEST PUSH0 PUSH1 0x20 DUP3 ADD SWAP1 POP DUP2 DUP2 SUB PUSH0 DUP4 ADD MSTORE PUSH2 0x11AC DUP2 DUP5 PUSH2 0x115C JUMP JUMPDEST SWAP1 POP SWAP3 SWAP2 POP POP JUMP JUMPDEST PUSH0 DUP1 REVERT JUMPDEST PUSH0 DUP1 REVERT JUMPDEST PUSH32 0x4E487B7100000000000000000000000000000000000000000000000000000000 PUSH0 MSTORE PUSH1 0x41 PUSH1 0x4 MSTORE PUSH1 0x24 PUSH0 REVERT JUMPDEST PUSH2 0x11F2 DUP3 PUSH2 0x114C JUMP JUMPDEST DUP2 ADD DUP2 DUP2 LT PUSH8 0xFFFFFFFFFFFFFFFF DUP3 GT OR ISZERO PUSH2 0x1211 JUMPI PUSH2 0x1210 PUSH2 0x11BC JUMP JUMPDEST JUMPDEST DUP1 PUSH1 0x40 MSTORE POP POP POP JUMP JUMPDEST PUSH0 PUSH2 0x1223 PUSH2 0x10B5 JUMP JUMPDEST SWAP1 POP PUSH2 0x122F DUP3 DUP3 PUSH2 0x11E9 JUMP JUMPDEST SWAP2 SWAP1 POP JUMP JUMPDEST PUSH0 PUSH8 0xFFFFFFFFFFFFFFFF DUP3 GT ISZERO PUSH2 0x124E JUMPI PUSH2 0x124D PUSH2 0x11BC JUMP JUMPDEST JUMPDEST PUSH2 0x1257 DUP3 PUSH2 0x114C JUMP JUMPDEST SWAP1 POP PUSH1 0x20 DUP2 ADD SWAP1 POP SWAP2 SWAP1 POP JUMP JUMPDEST DUP3 DUP2 DUP4 CALLDATACOPY PUSH0 DUP4 DUP4 ADD MSTORE POP POP POP JUMP JUMPDEST PUSH0 PUSH2 0x1284 PUSH2 0x127F DUP5 PUSH2 0x1234 JUMP JUMPDEST PUSH2 0x121A JUMP JUMPDEST SWAP1 POP DUP3 DUP2 MSTORE PUSH1 0x20 DUP2 ADD DUP5 DUP5 DUP5 ADD GT ISZERO PUSH2 0x12A0 JUMPI PUSH2 0x129F PUSH2 0x11B8 JUMP JUMPDEST JUMPDEST PUSH2 0x12AB DUP5 DUP3 DUP6 PUSH2 0x1264 JUMP JUMPDEST POP SWAP4 SWAP3 POP POP POP JUMP JUMPDEST PUSH0 DUP3 PUSH1 0x1F DUP4 ADD SLT PUSH2 0x12C7 JUMPI PUSH2 0x12C6 PUSH2 0x11B4 JUMP JUMPDEST JUMPDEST DUP2 CALLDATALOAD PUSH2 0x12D7 DUP5 DUP3 PUSH1 0x20 DUP7 ADD PUSH2 0x1272 JUMP JUMPDEST SWAP2 POP POP SWAP3 SWAP2 POP POP JUMP JUMPDEST PUSH0 PUSH1 0x20 DUP3 DUP5 SUB SLT ISZERO PUSH2 0x12F5 JUMPI PUSH2 0x12F4 PUSH2 0x10BE JUMP JUMPDEST JUMPDEST PUSH0 DUP3 ADD CALLDATALOAD PUSH8 0xFFFFFFFFFFFFFFFF DUP2 GT ISZERO PUSH2 0x1312 JUMPI PUSH2 0x1311 PUSH2 0x10C2 JUMP JUMPDEST JUMPDEST PUSH2 0x131E DUP5 DUP3 DUP6 ADD PUSH2 0x12B3 JUMP JUMPDEST SWAP2 POP POP SWAP3 SWAP2 POP POP JUMP JUMPDEST PUSH2 0x1330 DUP2 PUSH2 0x10C6 JUMP JUMPDEST DUP3 MSTORE POP POP JUMP JUMPDEST PUSH0 PUSH1 0xE0 DUP3 ADD SWAP1 POP DUP2 DUP2 SUB PUSH0 DUP4 ADD MSTORE PUSH2 0x134E DUP2 DUP11 PUSH2 0x115C JUMP JUMPDEST SWAP1 POP DUP2 DUP2 SUB PUSH1 0x20 DUP4 ADD MSTORE PUSH2 0x1362 DUP2 DUP10 PUSH2 0x115C JUMP JUMPDEST SWAP1 POP DUP2 DUP2 SUB PUSH1 0x40 DUP4 ADD MSTORE PUSH2 0x1376 DUP2 DUP9 PUSH2 0x115C JUMP JUMPDEST SWAP1 POP DUP2 DUP2 SUB PUSH1 0x60 DUP4 ADD MSTORE PUSH2 0x138A DUP2 DUP8 PUSH2 0x115C JUMP JUMPDEST SWAP1 POP DUP2 DUP2 SUB PUSH1 0x80 DUP4 ADD MSTORE PUSH2 0x139E DUP2 DUP7 PUSH2 0x115C JUMP JUMPDEST SWAP1 POP DUP2 DUP2 SUB PUSH1 0xA0 DUP4 ADD MSTORE PUSH2 0x13B2 DUP2 DUP6 PUSH2 0x115C JUMP JUMPDEST SWAP1 POP PUSH2 0x13C1 PUSH1 0xC0 DUP4 ADD DUP5 PUSH2 0x1327 JUMP JUMPDEST SWAP9 SWAP8 POP POP POP POP POP POP POP POP JUMP JUMPDEST PUSH0 DUP2 SWAP1 POP SWAP2 SWAP1 POP JUMP JUMPDEST PUSH2 0x13DF DUP2 PUSH2 0x13CD JUMP JUMPDEST DUP3 MSTORE POP POP JUMP JUMPDEST PUSH0 PUSH1 0x20 DUP3 ADD SWAP1 POP PUSH2 0x13F8 PUSH0 DUP4 ADD DUP5 PUSH2 0x13D6 JUMP JUMPDEST SWAP3 SWAP2 POP POP JUMP JUMPDEST PUSH0 DUP2 MLOAD SWAP1 POP SWAP2 SWAP1 POP JUMP JUMPDEST PUSH0 DUP3 DUP3 MSTORE PUSH1 0x20 DUP3 ADD SWAP1 POP SWAP3 SWAP2 POP POP JUMP JUMPDEST PUSH0 DUP2 SWAP1 POP PUSH1 0x20 DUP3 ADD SWAP1 POP SWAP2 SWAP1 POP JUMP JUMPDEST PUSH0 DUP3 DUP3 MSTORE PUSH1 0x20 DUP3 ADD SWAP1 POP SWAP3 SWAP2 POP POP JUMP JUMPDEST PUSH0 PUSH2 0x1441 DUP3 PUSH2 0x1124 JUMP JUMPDEST PUSH2 0x144B DUP2 DUP6 PUSH2 0x1427 JUMP JUMPDEST SWAP4 POP PUSH2 0x145B DUP2 DUP6 PUSH1 0x20 DUP7 ADD PUSH2 0x113E JUMP JUMPDEST PUSH2 0x1464 DUP2 PUSH2 0x114C JUMP JUMPDEST DUP5 ADD SWAP2 POP POP SWAP3 SWAP2 POP POP JUMP JUMPDEST PUSH0 PUSH2 0x147A DUP4 DUP4 PUSH2 0x1437 JUMP JUMPDEST SWAP1 POP SWAP3 SWAP2 POP POP JUMP JUMPDEST PUSH0 PUSH1 0x20 DUP3 ADD SWAP1 POP SWAP2 SWAP1 POP JUMP JUMPDEST PUSH0 PUSH2 0x1498 DUP3 PUSH2 0x13FE JUMP JUMPDEST PUSH2 0x14A2 DUP2 DUP6 PUSH2 0x1408 JUMP JUMPDEST SWAP4 POP DUP4 PUSH1 0x20 DUP3 MUL DUP6 ADD PUSH2 0x14B4 DUP6 PUSH2 0x1418 JUMP JUMPDEST DUP1 PUSH0 JUMPDEST DUP6 DUP2 LT ISZERO PUSH2 0x14EF JUMPI DUP5 DUP5 SUB DUP10 MSTORE DUP2 MLOAD PUSH2 0x14D0 DUP6 DUP3 PUSH2 0x146F JUMP JUMPDEST SWAP5 POP PUSH2 0x14DB DUP4 PUSH2 0x1482 JUMP JUMPDEST SWAP3 POP PUSH1 0x20 DUP11 ADD SWAP10 POP POP PUSH1 0x1 DUP2 ADD SWAP1 POP PUSH2 0x14B7 JUMP JUMPDEST POP DUP3 SWAP8 POP DUP8 SWAP6 POP POP POP POP POP POP SWAP3 SWAP2 POP POP JUMP JUMPDEST PUSH0 PUSH1 0x20 DUP3 ADD SWAP1 POP DUP2 DUP2 SUB PUSH0 DUP4 ADD MSTORE PUSH2 0x1519 DUP2 DUP5 PUSH2 0x148E JUMP JUMPDEST SWAP1 POP SWAP3 SWAP2 POP POP JUMP JUMPDEST PUSH0 PUSH1 0xC0 DUP3 ADD SWAP1 POP DUP2 DUP2 SUB PUSH0 DUP4 ADD MSTORE PUSH2 0x1539 DUP2 DUP10 PUSH2 0x115C JUMP JUMPDEST SWAP1 POP DUP2 DUP2 SUB PUSH1 0x20 DUP4 ADD MSTORE PUSH2 0x154D DUP2 DUP9 PUSH2 0x115C JUMP JUMPDEST SWAP1 POP DUP2 DUP2 SUB PUSH1 0x40 DUP4 ADD MSTORE PUSH2 0x1561 DUP2 DUP8 PUSH2 0x115C JUMP JUMPDEST SWAP1 POP DUP2 DUP2 SUB PUSH1 0x60 DUP4 ADD MSTORE PUSH2 0x1575 DUP2 DUP7 PUSH2 0x115C JUMP JUMPDEST SWAP1 POP DUP2 DUP2 SUB PUSH1 0x80 DUP4 ADD MSTORE PUSH2 0x1589 DUP2 DUP6 PUSH2 0x115C JUMP JUMPDEST SWAP1 POP PUSH2 0x1598 PUSH1 0xA0 DUP4 ADD DUP5 PUSH2 0x1327 JUMP JUMPDEST SWAP8 SWAP7 POP POP POP POP POP POP POP JUMP JUMPDEST PUSH0 PUSH1 0x20 DUP3 ADD SWAP1 POP PUSH2 0x15B6 PUSH0 DUP4 ADD DUP5 PUSH2 0x1327 JUMP JUMPDEST SWAP3 SWAP2 POP POP JUMP JUMPDEST PUSH0 DUP1 PUSH0 DUP1 PUSH0 DUP1 PUSH1 0xC0 DUP8 DUP10 SUB SLT ISZERO PUSH2 0x15D6 JUMPI PUSH2 0x15D5 PUSH2 0x10BE JUMP JUMPDEST JUMPDEST PUSH0 DUP8 ADD CALLDATALOAD PUSH8 0xFFFFFFFFFFFFFFFF DUP2 GT ISZERO PUSH2 0x15F3 JUMPI PUSH2 0x15F2 PUSH2 0x10C2 JUMP JUMPDEST JUMPDEST PUSH2 0x15FF DUP10 DUP3 DUP11 ADD PUSH2 0x12B3 JUMP JUMPDEST SWAP7 POP POP PUSH1 0x20 DUP8 ADD CALLDATALOAD PUSH8 0xFFFFFFFFFFFFFFFF DUP2 GT ISZERO PUSH2 0x1620 JUMPI PUSH2 0x161F PUSH2 0x10C2 JUMP JUMPDEST JUMPDEST PUSH2 0x162C DUP10 DUP3 DUP11 ADD PUSH2 0x12B3 JUMP JUMPDEST SWAP6 POP POP PUSH1 0x40 DUP8 ADD CALLDATALOAD PUSH8 0xFFFFFFFFFFFFFFFF DUP2 GT ISZERO PUSH2 0x164D JUMPI PUSH2 0x164C PUSH2 0x10C2 JUMP JUMPDEST JUMPDEST PUSH2 0x1659 DUP10 DUP3 DUP11 ADD PUSH2 0x12B3 JUMP JUMPDEST SWAP5 POP POP PUSH1 0x60 DUP8 ADD CALLDATALOAD PUSH8 0xFFFFFFFFFFFFFFFF DUP2 GT ISZERO PUSH2 0x167A JUMPI PUSH2 0x1679 PUSH2 0x10C2 JUMP JUMPDEST JUMPDEST PUSH2 0x1686 DUP10 DUP3 DUP11 ADD PUSH2 0x12B3 JUMP JUMPDEST SWAP4 POP POP PUSH1 0x80 DUP8 ADD CALLDATALOAD PUSH8 0xFFFFFFFFFFFFFFFF DUP2 GT ISZERO PUSH2 0x16A7 JUMPI PUSH2 0x16A6 PUSH2 0x10C2 JUMP JUMPDEST JUMPDEST PUSH2 0x16B3 DUP10 DUP3 DUP11 ADD PUSH2 0x12B3 JUMP JUMPDEST SWAP3 POP POP PUSH1 0xA0 DUP8 ADD CALLDATALOAD PUSH8 0xFFFFFFFFFFFFFFFF DUP2 GT ISZERO PUSH2 0x16D4 JUMPI PUSH2 0x16D3 PUSH2 0x10C2 JUMP JUMPDEST JUMPDEST PUSH2 0x16E0 DUP10 DUP3 DUP11 ADD PUSH2 0x12B3 JUMP JUMPDEST SWAP2 POP POP SWAP3 SWAP6 POP SWAP3 SWAP6 POP SWAP3 SWAP6 JUMP JUMPDEST PUSH32 0x4E487B7100000000000000000000000000000000000000000000000000000000 PUSH0 MSTORE PUSH1 0x22 PUSH1 0x4 MSTORE PUSH1 0x24 PUSH0 REVERT JUMPDEST PUSH0 PUSH1 0x2 DUP3 DIV SWAP1 POP PUSH1 0x1 DUP3 AND DUP1 PUSH2 0x1731 JUMPI PUSH1 0x7F DUP3 AND SWAP2 POP JUMPDEST PUSH1 0x20 DUP3 LT DUP2 SUB PUSH2 0x1744 JUMPI PUSH2 0x1743 PUSH2 0x16ED JUMP JUMPDEST JUMPDEST POP SWAP2 SWAP1 POP JUMP JUMPDEST PUSH0 DUP2 SWAP1 POP SWAP3 SWAP2 POP POP JUMP JUMPDEST PUSH0 PUSH2 0x175E DUP3 PUSH2 0x1124 JUMP JUMPDEST PUSH2 0x1768 DUP2 DUP6 PUSH2 0x174A JUMP JUMPDEST SWAP4 POP PUSH2 0x1778 DUP2 DUP6 PUSH1 0x20 DUP7 ADD PUSH2 0x113E JUMP JUMPDEST DUP1 DUP5 ADD SWAP2 POP POP SWAP3 SWAP2 POP POP JUMP JUMPDEST PUSH0 PUSH2 0x178F DUP3 DUP5 PUSH2 0x1754 JUMP JUMPDEST SWAP2 POP DUP2 SWAP1 POP SWAP3 SWAP2 POP POP JUMP JUMPDEST PUSH32 0x426174636820646F6573206E6F74206578697374000000000000000000000000 PUSH0 DUP3 ADD MSTORE POP JUMP JUMPDEST PUSH0 PUSH2 0x17CE PUSH1 0x14 DUP4 PUSH2 0x112E JUMP JUMPDEST SWAP2 POP PUSH2 0x17D9 DUP3 PUSH2 0x179A JUMP JUMPDEST PUSH1 0x20 DUP3 ADD SWAP1 POP SWAP2 SWAP1 POP JUMP JUMPDEST PUSH0 PUSH1 0x20 DUP3 ADD SWAP1 POP DUP2 DUP2 SUB PUSH0 DUP4 ADD MSTORE PUSH2 0x17FB DUP2 PUSH2 0x17C2 JUMP JUMPDEST SWAP1 POP SWAP2 SWAP1 POP JUMP JUMPDEST PUSH0 DUP2 SWAP1 POP SWAP2 SWAP1 POP JUMP JUMPDEST PUSH2 0x181C PUSH2 0x1817 DUP3 PUSH2 0x10C6 JUMP JUMPDEST PUSH2 0x1802 JUMP JUMPDEST DUP3 MSTORE POP POP JUMP JUMPDEST PUSH0 PUSH2 0x182D DUP3 DUP11 PUSH2 0x1754 JUMP JUMPDEST SWAP2 POP PUSH2 0x1839 DUP3 DUP10 PUSH2 0x1754 JUMP JUMPDEST SWAP2 POP PUSH2 0x1845 DUP3 DUP9 PUSH2 0x1754 JUMP JUMPDEST SWAP2 POP PUSH2 0x1851 DUP3 DUP8 PUSH2 0x1754 JUMP JUMPDEST SWAP2 POP PUSH2 0x185D DUP3 DUP7 PUSH2 0x1754 JUMP JUMPDEST SWAP2 POP PUSH2 0x1869 DUP3 DUP6 PUSH2 0x1754 JUMP JUMPDEST SWAP2 POP PUSH2 0x1875 DUP3 DUP5 PUSH2 0x180B JUMP JUMPDEST PUSH1 0x20 DUP3 ADD SWAP2 POP DUP2 SWAP1 POP SWAP9 SWAP8 POP POP POP POP POP POP POP POP JUMP JUMPDEST PUSH32 0x426174636820616C726561647920726567697374657265640000000000000000 PUSH0 DUP3 ADD MSTORE POP JUMP JUMPDEST PUSH0 PUSH2 0x18BE PUSH1 0x18 DUP4 PUSH2 0x112E JUMP JUMPDEST SWAP2 POP PUSH2 0x18C9 DUP3 PUSH2 0x188A JUMP JUMPDEST PUSH1 0x20 DUP3 ADD SWAP1 POP SWAP2 SWAP1 POP JUMP JUMPDEST PUSH0 PUSH1 0x20 DUP3 ADD SWAP1 POP DUP2 DUP2 SUB PUSH0 DUP4 ADD MSTORE PUSH2 0x18EB DUP2 PUSH2 0x18B2 JUMP JUMPDEST SWAP1 POP SWAP2 SWAP1 POP JUMP JUMPDEST PUSH0 DUP2 SWAP1 POP DUP2 PUSH0 MSTORE PUSH1 0x20 PUSH0 KECCAK256 SWAP1 POP SWAP2 SWAP1 POP JUMP JUMPDEST PUSH0 PUSH1 0x20 PUSH1 0x1F DUP4 ADD DIV SWAP1 POP SWAP2 SWAP1 POP JUMP JUMPDEST PUSH0 DUP3 DUP3 SHL SWAP1 POP SWAP3 SWAP2 POP POP JUMP JUMPDEST PUSH0 PUSH1 0x8 DUP4 MUL PUSH2 0x194E PUSH32 0xFFFFFFFFFFFFFFFFFFFFFFFFFFFFFFFFFFFFFFFFFFFFFFFFFFFFFFFFFFFFFFFF DUP3 PUSH2 0x1913 JUMP JUMPDEST PUSH2 0x1958 DUP7 DUP4 PUSH2 0x1913 JUMP JUMPDEST SWAP6 POP DUP1 NOT DUP5 AND SWAP4 POP DUP1 DUP7 AND DUP5 OR SWAP3 POP POP POP SWAP4 SWAP3 POP POP POP JUMP JUMPDEST PUSH0 DUP2 SWAP1 POP SWAP2 SWAP1 POP JUMP JUMPDEST PUSH0 PUSH2 0x1993 PUSH2 0x198E PUSH2 0x1989 DUP5 PUSH2 0x10C6 JUMP JUMPDEST PUSH2 0x1970 JUMP JUMPDEST PUSH2 0x10C6 JUMP JUMPDEST SWAP1 POP SWAP2 SWAP1 POP JUMP JUMPDEST PUSH0 DUP2 SWAP1 POP SWAP2 SWAP1 POP JUMP JUMPDEST PUSH2 0x19AC DUP4 PUSH2 0x1979 JUMP JUMPDEST PUSH2 0x19C0 PUSH2 0x19B8 DUP3 PUSH2 0x199A JUMP JUMPDEST DUP5 DUP5 SLOAD PUSH2 0x191F JUMP JUMPDEST DUP3 SSTORE POP POP POP POP JUMP JUMPDEST PUSH0 SWAP1 JUMP JUMPDEST PUSH2 0x19D4 PUSH2 0x19C8 JUMP JUMPDEST PUSH2 0x19DF DUP2 DUP5 DUP5 PUSH2 0x19A3 JUMP JUMPDEST POP POP POP JUMP JUMPDEST JUMPDEST DUP2 DUP2 LT ISZERO PUSH2 0x1A02 JUMPI PUSH2 0x19F7 PUSH0 DUP3 PUSH2 0x19CC JUMP JUMPDEST PUSH1 0x1 DUP2 ADD SWAP1 POP PUSH2 0x19E5 JUMP JUMPDEST POP POP JUMP JUMPDEST PUSH1 0x1F DUP3 GT ISZERO PUSH2 0x1A47 JUMPI PUSH2 0x1A18 DUP2 PUSH2 0x18F2 JUMP JUMPDEST PUSH2 0x1A21 DUP5 PUSH2 0x1904 JUMP JUMPDEST DUP2 ADD PUSH1 0x20 DUP6 LT ISZERO PUSH2 0x1A30 JUMPI DUP2 SWAP1 POP JUMPDEST PUSH2 0x1A44 PUSH2 0x1A3C DUP6 PUSH2 0x1904 JUMP JUMPDEST DUP4 ADD DUP3 PUSH2 0x19E4 JUMP JUMPDEST POP POP JUMPDEST POP POP POP JUMP JUMPDEST PUSH0 DUP3 DUP3 SHR SWAP1 POP SWAP3 SWAP2 POP POP JUMP JUMPDEST PUSH0 PUSH2 0x1A67 PUSH0 NOT DUP5 PUSH1 0x8 MUL PUSH2 0x1A4C JUMP JUMPDEST NOT DUP1 DUP4 AND SWAP2 POP POP SWAP3 SWAP2 POP POP JUMP JUMPDEST PUSH0 PUSH2 0x1A7F DUP4 DUP4 PUSH2 0x1A58 JUMP JUMPDEST SWAP2 POP DUP3 PUSH1 0x2 MUL DUP3 OR SWAP1 POP SWAP3 SWAP2 POP POP JUMP JUMPDEST PUSH2 0x1A98 DUP3 PUSH2 0x1124 JUMP JUMPDEST PUSH8 0xFFFFFFFFFFFFFFFF DUP2 GT ISZERO PUSH2 0x1AB1 JUMPI PUSH2 0x1AB0 PUSH2 0x11BC JUMP JUMPDEST JUMPDEST PUSH2 0x1ABB DUP3 SLOAD PUSH2 0x171A JUMP JUMPDEST PUSH2 0x1AC6 DUP3 DUP3 DUP6 PUSH2 0x1A06 JUMP JUMPDEST PUSH0 PUSH1 0x20 SWAP1 POP PUSH1 0x1F DUP4 GT PUSH1 0x1 DUP2 EQ PUSH2 0x1AF7 JUMPI PUSH0 DUP5 ISZERO PUSH2 0x1AE5 JUMPI DUP3 DUP8 ADD MLOAD SWAP1 POP JUMPDEST PUSH2 0x1AEF DUP6 DUP3 PUSH2 0x1A74 JUMP JUMPDEST DUP7 SSTORE POP PUSH2 0x1B56 JUMP JUMPDEST PUSH1 0x1F NOT DUP5 AND PUSH2 0x1B05 DUP7 PUSH2 0x18F2 JUMP JUMPDEST PUSH0 JUMPDEST DUP3 DUP2 LT ISZERO PUSH2 0x1B2C JUMPI DUP5 DUP10 ADD MLOAD DUP3 SSTORE PUSH1 0x1 DUP3 ADD SWAP2 POP PUSH1 0x20 DUP6 ADD SWAP5 POP PUSH1 0x20 DUP2 ADD SWAP1 POP PUSH2 0x1B07 JUMP JUMPDEST DUP7 DUP4 LT ISZERO PUSH2 0x1B49 JUMPI DUP5 DUP10 ADD MLOAD PUSH2 0x1B45 PUSH1 0x1F DUP10 AND DUP3 PUSH2 0x1A58 JUMP JUMPDEST DUP4 SSTORE POP JUMPDEST PUSH1 0x1 PUSH1 0x2 DUP9 MUL ADD DUP9 SSTORE POP POP POP JUMPDEST POP POP POP POP POP POP JUMP JUMPDEST PUSH0 PUSH1 0x40 DUP3 ADD SWAP1 POP DUP2 DUP2 SUB PUSH0 DUP4 ADD MSTORE PUSH2 0x1B76 DUP2 DUP6 PUSH2 0x115C JUMP JUMPDEST SWAP1 POP PUSH2 0x1B85 PUSH1 0x20 DUP4 ADD DUP5 PUSH2 0x13D6 JUMP JUMPDEST SWAP4 SWAP3 POP POP POP JUMP INVALID LOG2 PUSH5 0x6970667358 0x22 SLT KECCAK256 DUP16 0xE2 LOG1 BASEFEE SHL PUSH16 0xEB24FA23CC3A571E4DA9C1AD717F9841 0xB5 0xA8 LOG2 0xE6 SSTORE 0xE9 DUP1 CODESIZE 0xE6 PUSH14 0x64736F6C634300081A0033000000 "
				},
				"gasEstimates": {
					"creation": {
						"codeDepositCost": "1421200",
						"executionCost": "1484",
						"totalCost": "1422684"
					},
					"external": {
						"allBatchIds(uint256)": "infinite",
						"batches(string)": "infinite",
						"getAllBatchIds()": "infinite",
						"getBatchHash(string)": "infinite",
						"getBatchInfo(string)": "infinite",
						"getTotalBatches()": "2484",
						"registerBatch(string,string,string,string,string,string)": "infinite"
					}
				},
				"methodIdentifiers": {
					"allBatchIds(uint256)": "290b17ec",
					"batches(string)": "7ef1446a",
					"getAllBatchIds()": "bce06947",
					"getBatchHash(string)": "88cb968e",
					"getBatchInfo(string)": "d54d5b92",
					"getTotalBatches()": "e561dddc",
					"registerBatch(string,string,string,string,string,string)": "f16f9271"
				}
			},
			"storageLayout": {
				"storage": [
					{
						"astId": 21,
						"contract": "1-RegistroFinca.sol:RegistroFinca",
						"label": "batches",
						"offset": 0,
						"slot": "0",
						"type": "t_mapping(t_string_memory_ptr,t_struct(Batch)16_storage)"
					},
					{
						"astId": 24,
						"contract": "1-RegistroFinca.sol:RegistroFinca",
						"label": "allBatchIds",
						"offset": 0,
						"slot": "1",
						"type": "t_array(t_string_storage)dyn_storage"
					}
				],
				"types": {
					"t_array(t_string_storage)dyn_storage": {
						"base": "t_string_storage",
						"encoding": "dynamic_array",
						"label": "string[]",
						"numberOfBytes": "32"
					},
					"t_mapping(t_string_memory_ptr,t_struct(Batch)16_storage)": {
						"encoding": "mapping",
						"key": "t_string_memory_ptr",
						"label": "mapping(string => struct RegistroFinca.Batch)",
						"numberOfBytes": "32",
						"value": "t_struct(Batch)16_storage"
					},
					"t_string_memory_ptr": {
						"encoding": "bytes",
						"label": "string",
						"numberOfBytes": "32"
					},
					"t_string_storage": {
						"encoding": "bytes",
						"label": "string",
						"numberOfBytes": "32"
					},
					"t_struct(Batch)16_storage": {
						"encoding": "inplace",
						"label": "struct RegistroFinca.Batch",
						"members": [
							{
								"astId": 3,
								"contract": "1-RegistroFinca.sol:RegistroFinca",
								"label": "batchId",
								"offset": 0,
								"slot": "0",
								"type": "t_string_storage"
							},
							{
								"astId": 5,
								"contract": "1-RegistroFinca.sol:RegistroFinca",
								"label": "producerName",
								"offset": 0,
								"slot": "1",
								"type": "t_string_storage"
							},
							{
								"astId": 7,
								"contract": "1-RegistroFinca.sol:RegistroFinca",
								"label": "farm",
								"offset": 0,
								"slot": "2",
								"type": "t_string_storage"
							},
							{
								"astId": 9,
								"contract": "1-RegistroFinca.sol:RegistroFinca",
								"label": "locationGPS",
								"offset": 0,
								"slot": "3",
								"type": "t_string_storage"
							},
							{
								"astId": 11,
								"contract": "1-RegistroFinca.sol:RegistroFinca",
								"label": "tastingResults",
								"offset": 0,
								"slot": "4",
								"type": "t_string_storage"
							},
							{
								"astId": 13,
								"contract": "1-RegistroFinca.sol:RegistroFinca",
								"label": "humidityAnalysis",
								"offset": 0,
								"slot": "5",
								"type": "t_string_storage"
							},
							{
								"astId": 15,
								"contract": "1-RegistroFinca.sol:RegistroFinca",
								"label": "timestamp",
								"offset": 0,
								"slot": "6",
								"type": "t_uint256"
							}
						],
						"numberOfBytes": "224"
					},
					"t_uint256": {
						"encoding": "inplace",
						"label": "uint256",
						"numberOfBytes": "32"
					}
				}
			},
			"userdoc": {
				"kind": "user",
				"methods": {},
				"version": 1
			}
		}
	}
}