{
	"Procesamiento.sol": {
		"Procesamiento": {
			"abi": [
				{
					"anonymous": false,
					"inputs": [
						{
							"indexed": false,
							"internalType": "string",
							"name": "batchId",
							"type": "string"
						},
						{
							"indexed": false,
							"internalType": "bytes32",
							"name": "processingHash",
							"type": "bytes32"
						}
					],
					"name": "ProcessingUpdated",
					"type": "event"
				},
				{
					"inputs": [
						{
							"internalType": "string",
							"name": "_batchId",
							"type": "string"
						}
					],
					"name": "getProcessingHash",
					"outputs": [
						{
							"internalType": "bytes32",
							"name": "",
							"type": "bytes32"
						}
					],
					"stateMutability": "view",
					"type": "function"
				},
				{
					"inputs": [
						{
							"internalType": "string",
							"name": "",
							"type": "string"
						}
					],
					"name": "processData",
					"outputs": [
						{
							"internalType": "string",
							"name": "batchId",
							"type": "string"
						},
						{
							"internalType": "string",
							"name": "processingDetails",
							"type": "string"
						},
						{
							"internalType": "string",
							"name": "certifications",
							"type": "string"
						},
						{
							"internalType": "uint256",
							"name": "timestamp",
							"type": "uint256"
						},
						{
							"internalType": "bytes32",
							"name": "previousStageHash",
							"type": "bytes32"
						}
					],
					"stateMutability": "view",
					"type": "function"
				},
				{
					"inputs": [
						{
							"internalType": "string",
							"name": "_batchId",
							"type": "string"
						},
						{
							"internalType": "string",
							"name": "_processingDetails",
							"type": "string"
						},
						{
							"internalType": "string",
							"name": "_certifications",
							"type": "string"
						},
						{
							"internalType": "bytes32",
							"name": "_previousStageHash",
							"type": "bytes32"
						}
					],
					"name": "updateProcessing",
					"outputs": [],
					"stateMutability": "nonpayable",
					"type": "function"
				}
			],
			"devdoc": {
				"kind": "dev",
				"methods": {},
				"version": 1
			},
			"evm": {
				"assembly": "    /* \"Procesamiento.sol\":58:1766  contract Procesamiento {... */\n  mstore(0x40, 0x80)\n  callvalue\n  dup1\n  iszero\n  tag_1\n  jumpi\n  0x00\n  dup1\n  revert\ntag_1:\n  pop\n  dataSize(sub_0)\n  dup1\n  dataOffset(sub_0)\n  0x00\n  codecopy\n  0x00\n  return\nstop\n\nsub_0: assembly {\n        /* \"Procesamiento.sol\":58:1766  contract Procesamiento {... */\n      mstore(0x40, 0x80)\n      callvalue\n      dup1\n      iszero\n      tag_1\n      jumpi\n      0x00\n      dup1\n      revert\n    tag_1:\n      pop\n      jumpi(tag_2, lt(calldatasize, 0x04))\n      shr(0xe0, calldataload(0x00))\n      dup1\n      0x18e48b22\n      eq\n      tag_3\n      jumpi\n      dup1\n      0x53adab30\n      eq\n      tag_4\n      jumpi\n      dup1\n      0x8351a2b3\n      eq\n      tag_5\n      jumpi\n    tag_2:\n      0x00\n      dup1\n      revert\n        /* \"Procesamiento.sol\":567:1411  function updateProcessing(... */\n    tag_3:\n      tag_6\n      0x04\n      dup1\n      calldatasize\n      sub\n      dup2\n      add\n      swap1\n      tag_7\n      swap2\n      swap1\n      tag_8\n      jump\t// in\n    tag_7:\n      tag_9\n      jump\t// in\n    tag_6:\n      stop\n        /* \"Procesamiento.sol\":1421:1764  function getProcessingHash(string memory _batchId) public view returns (bytes32) {... */\n    tag_4:\n      tag_10\n      0x04\n      dup1\n      calldatasize\n      sub\n      dup2\n      add\n      swap1\n      tag_11\n      swap2\n      swap1\n      tag_12\n      jump\t// in\n    tag_11:\n      tag_13\n      jump\t// in\n    tag_10:\n      mload(0x40)\n      tag_14\n      swap2\n      swap1\n      tag_15\n      jump\t// in\n    tag_14:\n      mload(0x40)\n      dup1\n      swap2\n      sub\n      swap1\n      return\n        /* \"Procesamiento.sol\":430:482  mapping(string => ProcessingData) public processData */\n    tag_5:\n      tag_16\n      0x04\n      dup1\n      calldatasize\n      sub\n      dup2\n      add\n      swap1\n      tag_17\n      swap2\n      swap1\n      tag_12\n      jump\t// in\n    tag_17:\n      tag_18\n      jump\t// in\n    tag_16:\n      mload(0x40)\n      tag_19\n      swap6\n      swap5\n      swap4\n      swap3\n      swap2\n      swap1\n      tag_20\n      jump\t// in\n    tag_19:\n      mload(0x40)\n      dup1\n      swap2\n      sub\n      swap1\n      return\n        /* \"Procesamiento.sol\":567:1411  function updateProcessing(... */\n    tag_9:\n        /* \"Procesamiento.sol\":820:821  0 */\n      0x00\n        /* \"Procesamiento.sol\":779:790  processData */\n      dup1\n        /* \"Procesamiento.sol\":791:799  _batchId */\n      dup6\n        /* \"Procesamiento.sol\":779:800  processData[_batchId] */\n      mload(0x40)\n      tag_22\n      swap2\n      swap1\n      tag_23\n      jump\t// in\n    tag_22:\n      swap1\n      dup2\n      mstore\n      0x20\n      add\n      mload(0x40)\n      dup1\n      swap2\n      sub\n      swap1\n      keccak256\n        /* \"Procesamiento.sol\":779:808  processData[_batchId].batchId */\n      0x00\n      add\n        /* \"Procesamiento.sol\":773:816  bytes(processData[_batchId].batchId).length */\n      dup1\n      sload\n      tag_24\n      swap1\n      tag_25\n      jump\t// in\n    tag_24:\n      swap1\n      pop\n        /* \"Procesamiento.sol\":773:821  bytes(processData[_batchId].batchId).length == 0 */\n      eq\n        /* \"Procesamiento.sol\":765:852  require(bytes(processData[_batchId].batchId).length == 0, \"Processing already updated\") */\n      tag_26\n      jumpi\n      mload(0x40)\n      0x08c379a000000000000000000000000000000000000000000000000000000000\n      dup2\n      mstore\n      0x04\n      add\n      tag_27\n      swap1\n      tag_28\n      jump\t// in\n    tag_27:\n      mload(0x40)\n      dup1\n      swap2\n      sub\n      swap1\n      revert\n    tag_26:\n        /* \"Procesamiento.sol\":886:1130  ProcessingData({... */\n      mload(0x40)\n      dup1\n      0xa0\n      add\n      0x40\n      mstore\n      dup1\n        /* \"Procesamiento.sol\":924:932  _batchId */\n      dup6\n        /* \"Procesamiento.sol\":886:1130  ProcessingData({... */\n      dup2\n      mstore\n      0x20\n      add\n        /* \"Procesamiento.sol\":965:983  _processingDetails */\n      dup5\n        /* \"Procesamiento.sol\":886:1130  ProcessingData({... */\n      dup2\n      mstore\n      0x20\n      add\n        /* \"Procesamiento.sol\":1013:1028  _certifications */\n      dup4\n        /* \"Procesamiento.sol\":886:1130  ProcessingData({... */\n      dup2\n      mstore\n      0x20\n      add\n        /* \"Procesamiento.sol\":1053:1068  block.timestamp */\n      timestamp\n        /* \"Procesamiento.sol\":886:1130  ProcessingData({... */\n      dup2\n      mstore\n      0x20\n      add\n        /* \"Procesamiento.sol\":1101:1119  _previousStageHash */\n      dup3\n        /* \"Procesamiento.sol\":886:1130  ProcessingData({... */\n      dup2\n      mstore\n      pop\n        /* \"Procesamiento.sol\":862:873  processData */\n      0x00\n        /* \"Procesamiento.sol\":874:882  _batchId */\n      dup6\n        /* \"Procesamiento.sol\":862:883  processData[_batchId] */\n      mload(0x40)\n      tag_29\n      swap2\n      swap1\n      tag_23\n      jump\t// in\n    tag_29:\n      swap1\n      dup2\n      mstore\n      0x20\n      add\n      mload(0x40)\n      dup1\n      swap2\n      sub\n      swap1\n      keccak256\n        /* \"Procesamiento.sol\":862:1130  processData[_batchId] = ProcessingData({... */\n      0x00\n      dup3\n      add\n      mload\n      dup2\n      0x00\n      add\n      swap1\n      dup2\n      tag_30\n      swap2\n      swap1\n      tag_31\n      jump\t// in\n    tag_30:\n      pop\n      0x20\n      dup3\n      add\n      mload\n      dup2\n      0x01\n      add\n      swap1\n      dup2\n      tag_32\n      swap2\n      swap1\n      tag_31\n      jump\t// in\n    tag_32:\n      pop\n      0x40\n      dup3\n      add\n      mload\n      dup2\n      0x02\n      add\n      swap1\n      dup2\n      tag_33\n      swap2\n      swap1\n      tag_31\n      jump\t// in\n    tag_33:\n      pop\n      0x60\n      dup3\n      add\n      mload\n      dup2\n      0x03\n      add\n      sstore\n      0x80\n      dup3\n      add\n      mload\n      dup2\n      0x04\n      add\n      sstore\n      swap1\n      pop\n      pop\n        /* \"Procesamiento.sol\":1140:1162  bytes32 processingHash */\n      0x00\n        /* \"Procesamiento.sol\":1205:1213  _batchId */\n      dup5\n        /* \"Procesamiento.sol\":1227:1245  _processingDetails */\n      dup5\n        /* \"Procesamiento.sol\":1259:1274  _certifications */\n      dup5\n        /* \"Procesamiento.sol\":1288:1303  block.timestamp */\n      timestamp\n        /* \"Procesamiento.sol\":1317:1335  _previousStageHash */\n      dup6\n        /* \"Procesamiento.sol\":1175:1345  abi.encodePacked(... */\n      add(0x20, mload(0x40))\n      tag_34\n      swap6\n      swap5\n      swap4\n      swap3\n      swap2\n      swap1\n      tag_35\n      jump\t// in\n    tag_34:\n      mload(0x40)\n      0x20\n      dup2\n      dup4\n      sub\n      sub\n      dup2\n      mstore\n      swap1\n      0x40\n      mstore\n        /* \"Procesamiento.sol\":1165:1346  keccak256(abi.encodePacked(... */\n      dup1\n      mload\n      swap1\n      0x20\n      add\n      keccak256\n        /* \"Procesamiento.sol\":1140:1346  bytes32 processingHash = keccak256(abi.encodePacked(... */\n      swap1\n      pop\n        /* \"Procesamiento.sol\":1361:1404  ProcessingUpdated(_batchId, processingHash) */\n      0xc9945697c655af0b805a409f564fee17b5e60728ee2f9a821d3ec31b2aea6c05\n        /* \"Procesamiento.sol\":1379:1387  _batchId */\n      dup6\n        /* \"Procesamiento.sol\":1389:1403  processingHash */\n      dup3\n        /* \"Procesamiento.sol\":1361:1404  ProcessingUpdated(_batchId, processingHash) */\n      mload(0x40)\n      tag_36\n      swap3\n      swap2\n      swap1\n      tag_37\n      jump\t// in\n    tag_36:\n      mload(0x40)\n      dup1\n      swap2\n      sub\n      swap1\n      log1\n        /* \"Procesamiento.sol\":755:1411  {... */\n      pop\n        /* \"Procesamiento.sol\":567:1411  function updateProcessing(... */\n      pop\n      pop\n      pop\n      pop\n      jump\t// out\n        /* \"Procesamiento.sol\":1421:1764  function getProcessingHash(string memory _batchId) public view returns (bytes32) {... */\n    tag_13:\n        /* \"Procesamiento.sol\":1493:1500  bytes32 */\n      0x00\n        /* \"Procesamiento.sol\":1512:1535  ProcessingData memory p */\n      dup1\n        /* \"Procesamiento.sol\":1538:1549  processData */\n      0x00\n        /* \"Procesamiento.sol\":1550:1558  _batchId */\n      dup4\n        /* \"Procesamiento.sol\":1538:1559  processData[_batchId] */\n      mload(0x40)\n      tag_39\n      swap2\n      swap1\n      tag_23\n      jump\t// in\n    tag_39:\n      swap1\n      dup2\n      mstore\n      0x20\n      add\n      mload(0x40)\n      dup1\n      swap2\n      sub\n      swap1\n      keccak256\n        /* \"Procesamiento.sol\":1512:1559  ProcessingData memory p = processData[_batchId] */\n      mload(0x40)\n      dup1\n      0xa0\n      add\n      0x40\n      mstore\n      swap1\n      dup2\n      0x00\n      dup3\n      add\n      dup1\n      sload\n      tag_40\n      swap1\n      tag_25\n      jump\t// in\n    tag_40:\n      dup1\n      0x1f\n      add\n      0x20\n      dup1\n      swap2\n      div\n      mul\n      0x20\n      add\n      mload(0x40)\n      swap1\n      dup2\n      add\n      0x40\n      mstore\n      dup1\n      swap3\n      swap2\n      swap1\n      dup2\n      dup2\n      mstore\n      0x20\n      add\n      dup3\n      dup1\n      sload\n      tag_41\n      swap1\n      tag_25\n      jump\t// in\n    tag_41:\n      dup1\n      iszero\n      tag_42\n      jumpi\n      dup1\n      0x1f\n      lt\n      tag_43\n      jumpi\n      0x0100\n      dup1\n      dup4\n      sload\n      div\n      mul\n      dup4\n      mstore\n      swap2\n      0x20\n      add\n      swap2\n      jump(tag_42)\n    tag_43:\n      dup3\n      add\n      swap2\n      swap1\n      0x00\n      mstore\n      keccak256(0x00, 0x20)\n      swap1\n    tag_44:\n      dup2\n      sload\n      dup2\n      mstore\n      swap1\n      0x01\n      add\n      swap1\n      0x20\n      add\n      dup1\n      dup4\n      gt\n      tag_44\n      jumpi\n      dup3\n      swap1\n      sub\n      0x1f\n      and\n      dup3\n      add\n      swap2\n    tag_42:\n      pop\n      pop\n      pop\n      pop\n      pop\n      dup2\n      mstore\n      0x20\n      add\n      0x01\n      dup3\n      add\n      dup1\n      sload\n      tag_45\n      swap1\n      tag_25\n      jump\t// in\n    tag_45:\n      dup1\n      0x1f\n      add\n      0x20\n      dup1\n      swap2\n      div\n      mul\n      0x20\n      add\n      mload(0x40)\n      swap1\n      dup2\n      add\n      0x40\n      mstore\n      dup1\n      swap3\n      swap2\n      swap1\n      dup2\n      dup2\n      mstore\n      0x20\n      add\n      dup3\n      dup1\n      sload\n      tag_46\n      swap1\n      tag_25\n      jump\t// in\n    tag_46:\n      dup1\n      iszero\n      tag_47\n      jumpi\n      dup1\n      0x1f\n      lt\n      tag_48\n      jumpi\n      0x0100\n      dup1\n      dup4\n      sload\n      div\n      mul\n      dup4\n      mstore\n      swap2\n      0x20\n      add\n      swap2\n      jump(tag_47)\n    tag_48:\n      dup3\n      add\n      swap2\n      swap1\n      0x00\n      mstore\n      keccak256(0x00, 0x20)\n      swap1\n    tag_49:\n      dup2\n      sload\n      dup2\n      mstore\n      swap1\n      0x01\n      add\n      swap1\n      0x20\n      add\n      dup1\n      dup4\n      gt\n      tag_49\n      jumpi\n      dup3\n      swap1\n      sub\n      0x1f\n      and\n      dup3\n      add\n      swap2\n    tag_47:\n      pop\n      pop\n      pop\n      pop\n      pop\n      dup2\n      mstore\n      0x20\n      add\n      0x02\n      dup3\n      add\n      dup1\n      sload\n      tag_50\n      swap1\n      tag_25\n      jump\t// in\n    tag_50:\n      dup1\n      0x1f\n      add\n      0x20\n      dup1\n      swap2\n      div\n      mul\n      0x20\n      add\n      mload(0x40)\n      swap1\n      dup2\n      add\n      0x40\n      mstore\n      dup1\n      swap3\n      swap2\n      swap1\n      dup2\n      dup2\n      mstore\n      0x20\n      add\n      dup3\n      dup1\n      sload\n      tag_51\n      swap1\n      tag_25\n      jump\t// in\n    tag_51:\n      dup1\n      iszero\n      tag_52\n      jumpi\n      dup1\n      0x1f\n      lt\n      tag_53\n      jumpi\n      0x0100\n      dup1\n      dup4\n      sload\n      div\n      mul\n      dup4\n      mstore\n      swap2\n      0x20\n      add\n      swap2\n      jump(tag_52)\n    tag_53:\n      dup3\n      add\n      swap2\n      swap1\n      0x00\n      mstore\n      keccak256(0x00, 0x20)\n      swap1\n    tag_54:\n      dup2\n      sload\n      dup2\n      mstore\n      swap1\n      0x01\n      add\n      swap1\n      0x20\n      add\n      dup1\n      dup4\n      gt\n      tag_54\n      jumpi\n      dup3\n      swap1\n      sub\n      0x1f\n      and\n      dup3\n      add\n      swap2\n    tag_52:\n      pop\n      pop\n      pop\n      pop\n      pop\n      dup2\n      mstore\n      0x20\n      add\n      0x03\n      dup3\n      add\n      sload\n      dup2\n      mstore\n      0x20\n      add\n      0x04\n      dup3\n      add\n      sload\n      dup2\n      mstore\n      pop\n      pop\n      swap1\n      pop\n        /* \"Procesamiento.sol\":1616:1617  p */\n      dup1\n        /* \"Procesamiento.sol\":1616:1625  p.batchId */\n      0x00\n      add\n      mload\n        /* \"Procesamiento.sol\":1639:1640  p */\n      dup2\n        /* \"Procesamiento.sol\":1639:1658  p.processingDetails */\n      0x20\n      add\n      mload\n        /* \"Procesamiento.sol\":1672:1673  p */\n      dup3\n        /* \"Procesamiento.sol\":1672:1688  p.certifications */\n      0x40\n      add\n      mload\n        /* \"Procesamiento.sol\":1702:1703  p */\n      dup4\n        /* \"Procesamiento.sol\":1702:1713  p.timestamp */\n      0x60\n      add\n      mload\n        /* \"Procesamiento.sol\":1727:1728  p */\n      dup5\n        /* \"Procesamiento.sol\":1727:1746  p.previousStageHash */\n      0x80\n      add\n      mload\n        /* \"Procesamiento.sol\":1586:1756  abi.encodePacked(... */\n      add(0x20, mload(0x40))\n      tag_55\n      swap6\n      swap5\n      swap4\n      swap3\n      swap2\n      swap1\n      tag_35\n      jump\t// in\n    tag_55:\n      mload(0x40)\n      0x20\n      dup2\n      dup4\n      sub\n      sub\n      dup2\n      mstore\n      swap1\n      0x40\n      mstore\n        /* \"Procesamiento.sol\":1576:1757  keccak256(abi.encodePacked(... */\n      dup1\n      mload\n      swap1\n      0x20\n      add\n      keccak256\n        /* \"Procesamiento.sol\":1569:1757  return keccak256(abi.encodePacked(... */\n      swap2\n      pop\n      pop\n        /* \"Procesamiento.sol\":1421:1764  function getProcessingHash(string memory _batchId) public view returns (bytes32) {... */\n      swap2\n      swap1\n      pop\n      jump\t// out\n        /* \"Procesamiento.sol\":430:482  mapping(string => ProcessingData) public processData */\n    tag_18:\n      0x00\n      dup2\n      dup1\n      mload\n      0x20\n      dup2\n      add\n      dup3\n      add\n      dup1\n      mload\n      dup5\n      dup3\n      mstore\n      0x20\n      dup4\n      add\n      0x20\n      dup6\n      add\n      keccak256\n      dup2\n      dup4\n      mstore\n      dup1\n      swap6\n      pop\n      pop\n      pop\n      pop\n      pop\n      pop\n      0x00\n      swap2\n      pop\n      swap1\n      pop\n      dup1\n      0x00\n      add\n      dup1\n      sload\n      tag_56\n      swap1\n      tag_25\n      jump\t// in\n    tag_56:\n      dup1\n      0x1f\n      add\n      0x20\n      dup1\n      swap2\n      div\n      mul\n      0x20\n      add\n      mload(0x40)\n      swap1\n      dup2\n      add\n      0x40\n      mstore\n      dup1\n      swap3\n      swap2\n      swap1\n      dup2\n      dup2\n      mstore\n      0x20\n      add\n      dup3\n      dup1\n      sload\n      tag_57\n      swap1\n      tag_25\n      jump\t// in\n    tag_57:\n      dup1\n      iszero\n      tag_58\n      jumpi\n      dup1\n      0x1f\n      lt\n      tag_59\n      jumpi\n      0x0100\n      dup1\n      dup4\n      sload\n      div\n      mul\n      dup4\n      mstore\n      swap2\n      0x20\n      add\n      swap2\n      jump(tag_58)\n    tag_59:\n      dup3\n      add\n      swap2\n      swap1\n      0x00\n      mstore\n      keccak256(0x00, 0x20)\n      swap1\n    tag_60:\n      dup2\n      sload\n      dup2\n      mstore\n      swap1\n      0x01\n      add\n      swap1\n      0x20\n      add\n      dup1\n      dup4\n      gt\n      tag_60\n      jumpi\n      dup3\n      swap1\n      sub\n      0x1f\n      and\n      dup3\n      add\n      swap2\n    tag_58:\n      pop\n      pop\n      pop\n      pop\n      pop\n      swap1\n      dup1\n      0x01\n      add\n      dup1\n      sload\n      tag_61\n      swap1\n      tag_25\n      jump\t// in\n    tag_61:\n      dup1\n      0x1f\n      add\n      0x20\n      dup1\n      swap2\n      div\n      mul\n      0x20\n      add\n      mload(0x40)\n      swap1\n      dup2\n      add\n      0x40\n      mstore\n      dup1\n      swap3\n      swap2\n      swap1\n      dup2\n      dup2\n      mstore\n      0x20\n      add\n      dup3\n      dup1\n      sload\n      tag_62\n      swap1\n      tag_25\n      jump\t// in\n    tag_62:\n      dup1\n      iszero\n      tag_63\n      jumpi\n      dup1\n      0x1f\n      lt\n      tag_64\n      jumpi\n      0x0100\n      dup1\n      dup4\n      sload\n      div\n      mul\n      dup4\n      mstore\n      swap2\n      0x20\n      add\n      swap2\n      jump(tag_63)\n    tag_64:\n      dup3\n      add\n      swap2\n      swap1\n      0x00\n      mstore\n      keccak256(0x00, 0x20)\n      swap1\n    tag_65:\n      dup2\n      sload\n      dup2\n      mstore\n      swap1\n      0x01\n      add\n      swap1\n      0x20\n      add\n      dup1\n      dup4\n      gt\n      tag_65\n      jumpi\n      dup3\n      swap1\n      sub\n      0x1f\n      and\n      dup3\n      add\n      swap2\n    tag_63:\n      pop\n      pop\n      pop\n      pop\n      pop\n      swap1\n      dup1\n      0x02\n      add\n      dup1\n      sload\n      tag_66\n      swap1\n      tag_25\n      jump\t// in\n    tag_66:\n      dup1\n      0x1f\n      add\n      0x20\n      dup1\n      swap2\n      div\n      mul\n      0x20\n      add\n      mload(0x40)\n      swap1\n      dup2\n      add\n      0x40\n      mstore\n      dup1\n      swap3\n      swap2\n      swap1\n      dup2\n      dup2\n      mstore\n      0x20\n      add\n      dup3\n      dup1\n      sload\n      tag_67\n      swap1\n      tag_25\n      jump\t// in\n    tag_67:\n      dup1\n      iszero\n      tag_68\n      jumpi\n      dup1\n      0x1f\n      lt\n      tag_69\n      jumpi\n      0x0100\n      dup1\n      dup4\n      sload\n      div\n      mul\n      dup4\n      mstore\n      swap2\n      0x20\n      add\n      swap2\n      jump(tag_68)\n    tag_69:\n      dup3\n      add\n      swap2\n      swap1\n      0x00\n      mstore\n      keccak256(0x00, 0x20)\n      swap1\n    tag_70:\n      dup2\n      sload\n      dup2\n      mstore\n      swap1\n      0x01\n      add\n      swap1\n      0x20\n      add\n      dup1\n      dup4\n      gt\n      tag_70\n      jumpi\n      dup3\n      swap1\n      sub\n      0x1f\n      and\n      dup3\n      add\n      swap2\n    tag_68:\n      pop\n      pop\n      pop\n      pop\n      pop\n      swap1\n      dup1\n      0x03\n      add\n      sload\n      swap1\n      dup1\n      0x04\n      add\n      sload\n      swap1\n      pop\n      dup6\n      jump\t// out\n        /* \"#utility.yul\":7:82   */\n    tag_71:\n        /* \"#utility.yul\":40:46   */\n      0x00\n        /* \"#utility.yul\":73:75   */\n      0x40\n        /* \"#utility.yul\":67:76   */\n      mload\n        /* \"#utility.yul\":57:76   */\n      swap1\n      pop\n        /* \"#utility.yul\":7:82   */\n      swap1\n      jump\t// out\n        /* \"#utility.yul\":88:205   */\n    tag_72:\n        /* \"#utility.yul\":197:198   */\n      0x00\n        /* \"#utility.yul\":194:195   */\n      dup1\n        /* \"#utility.yul\":187:199   */\n      revert\n        /* \"#utility.yul\":211:328   */\n    tag_73:\n        /* \"#utility.yul\":320:321   */\n      0x00\n        /* \"#utility.yul\":317:318   */\n      dup1\n        /* \"#utility.yul\":310:322   */\n      revert\n        /* \"#utility.yul\":334:451   */\n    tag_74:\n        /* \"#utility.yul\":443:444   */\n      0x00\n        /* \"#utility.yul\":440:441   */\n      dup1\n        /* \"#utility.yul\":433:445   */\n      revert\n        /* \"#utility.yul\":457:574   */\n    tag_75:\n        /* \"#utility.yul\":566:567   */\n      0x00\n        /* \"#utility.yul\":563:564   */\n      dup1\n        /* \"#utility.yul\":556:568   */\n      revert\n        /* \"#utility.yul\":580:682   */\n    tag_76:\n        /* \"#utility.yul\":621:627   */\n      0x00\n        /* \"#utility.yul\":672:674   */\n      0x1f\n        /* \"#utility.yul\":668:675   */\n      not\n        /* \"#utility.yul\":663:665   */\n      0x1f\n        /* \"#utility.yul\":656:661   */\n      dup4\n        /* \"#utility.yul\":652:666   */\n      add\n        /* \"#utility.yul\":648:676   */\n      and\n        /* \"#utility.yul\":638:676   */\n      swap1\n      pop\n        /* \"#utility.yul\":580:682   */\n      swap2\n      swap1\n      pop\n      jump\t// out\n        /* \"#utility.yul\":688:868   */\n    tag_77:\n        /* \"#utility.yul\":736:813   */\n      0x4e487b7100000000000000000000000000000000000000000000000000000000\n        /* \"#utility.yul\":733:734   */\n      0x00\n        /* \"#utility.yul\":726:814   */\n      mstore\n        /* \"#utility.yul\":833:837   */\n      0x41\n        /* \"#utility.yul\":830:831   */\n      0x04\n        /* \"#utility.yul\":823:838   */\n      mstore\n        /* \"#utility.yul\":857:861   */\n      0x24\n        /* \"#utility.yul\":854:855   */\n      0x00\n        /* \"#utility.yul\":847:862   */\n      revert\n        /* \"#utility.yul\":874:1155   */\n    tag_78:\n        /* \"#utility.yul\":957:984   */\n      tag_127\n        /* \"#utility.yul\":979:983   */\n      dup3\n        /* \"#utility.yul\":957:984   */\n      tag_76\n      jump\t// in\n    tag_127:\n        /* \"#utility.yul\":949:955   */\n      dup2\n        /* \"#utility.yul\":945:985   */\n      add\n        /* \"#utility.yul\":1087:1093   */\n      dup2\n        /* \"#utility.yul\":1075:1085   */\n      dup2\n        /* \"#utility.yul\":1072:1094   */\n      lt\n        /* \"#utility.yul\":1051:1069   */\n      0xffffffffffffffff\n        /* \"#utility.yul\":1039:1049   */\n      dup3\n        /* \"#utility.yul\":1036:1070   */\n      gt\n        /* \"#utility.yul\":1033:1095   */\n      or\n        /* \"#utility.yul\":1030:1118   */\n      iszero\n      tag_128\n      jumpi\n        /* \"#utility.yul\":1098:1116   */\n      tag_129\n      tag_77\n      jump\t// in\n    tag_129:\n        /* \"#utility.yul\":1030:1118   */\n    tag_128:\n        /* \"#utility.yul\":1138:1148   */\n      dup1\n        /* \"#utility.yul\":1134:1136   */\n      0x40\n        /* \"#utility.yul\":1127:1149   */\n      mstore\n        /* \"#utility.yul\":917:1155   */\n      pop\n        /* \"#utility.yul\":874:1155   */\n      pop\n      pop\n      jump\t// out\n        /* \"#utility.yul\":1161:1290   */\n    tag_79:\n        /* \"#utility.yul\":1195:1201   */\n      0x00\n        /* \"#utility.yul\":1222:1242   */\n      tag_131\n      tag_71\n      jump\t// in\n    tag_131:\n        /* \"#utility.yul\":1212:1242   */\n      swap1\n      pop\n        /* \"#utility.yul\":1251:1284   */\n      tag_132\n        /* \"#utility.yul\":1279:1283   */\n      dup3\n        /* \"#utility.yul\":1271:1277   */\n      dup3\n        /* \"#utility.yul\":1251:1284   */\n      tag_78\n      jump\t// in\n    tag_132:\n        /* \"#utility.yul\":1161:1290   */\n      swap2\n      swap1\n      pop\n      jump\t// out\n        /* \"#utility.yul\":1296:1604   */\n    tag_80:\n        /* \"#utility.yul\":1358:1362   */\n      0x00\n        /* \"#utility.yul\":1448:1466   */\n      0xffffffffffffffff\n        /* \"#utility.yul\":1440:1446   */\n      dup3\n        /* \"#utility.yul\":1437:1467   */\n      gt\n        /* \"#utility.yul\":1434:1490   */\n      iszero\n      tag_134\n      jumpi\n        /* \"#utility.yul\":1470:1488   */\n      tag_135\n      tag_77\n      jump\t// in\n    tag_135:\n        /* \"#utility.yul\":1434:1490   */\n    tag_134:\n        /* \"#utility.yul\":1508:1537   */\n      tag_136\n        /* \"#utility.yul\":1530:1536   */\n      dup3\n        /* \"#utility.yul\":1508:1537   */\n      tag_76\n      jump\t// in\n    tag_136:\n        /* \"#utility.yul\":1500:1537   */\n      swap1\n      pop\n        /* \"#utility.yul\":1592:1596   */\n      0x20\n        /* \"#utility.yul\":1586:1590   */\n      dup2\n        /* \"#utility.yul\":1582:1597   */\n      add\n        /* \"#utility.yul\":1574:1597   */\n      swap1\n      pop\n        /* \"#utility.yul\":1296:1604   */\n      swap2\n      swap1\n      pop\n      jump\t// out\n        /* \"#utility.yul\":1610:1758   */\n    tag_81:\n        /* \"#utility.yul\":1708:1714   */\n      dup3\n        /* \"#utility.yul\":1703:1706   */\n      dup2\n        /* \"#utility.yul\":1698:1701   */\n      dup4\n        /* \"#utility.yul\":1685:1715   */\n      calldatacopy\n        /* \"#utility.yul\":1749:1750   */\n      0x00\n        /* \"#utility.yul\":1740:1746   */\n      dup4\n        /* \"#utility.yul\":1735:1738   */\n      dup4\n        /* \"#utility.yul\":1731:1747   */\n      add\n        /* \"#utility.yul\":1724:1751   */\n      mstore\n        /* \"#utility.yul\":1610:1758   */\n      pop\n      pop\n      pop\n      jump\t// out\n        /* \"#utility.yul\":1764:2189   */\n    tag_82:\n        /* \"#utility.yul\":1842:1847   */\n      0x00\n        /* \"#utility.yul\":1867:1933   */\n      tag_139\n        /* \"#utility.yul\":1883:1932   */\n      tag_140\n        /* \"#utility.yul\":1925:1931   */\n      dup5\n        /* \"#utility.yul\":1883:1932   */\n      tag_80\n      jump\t// in\n    tag_140:\n        /* \"#utility.yul\":1867:1933   */\n      tag_79\n      jump\t// in\n    tag_139:\n        /* \"#utility.yul\":1858:1933   */\n      swap1\n      pop\n        /* \"#utility.yul\":1956:1962   */\n      dup3\n        /* \"#utility.yul\":1949:1954   */\n      dup2\n        /* \"#utility.yul\":1942:1963   */\n      mstore\n        /* \"#utility.yul\":1994:1998   */\n      0x20\n        /* \"#utility.yul\":1987:1992   */\n      dup2\n        /* \"#utility.yul\":1983:1999   */\n      add\n        /* \"#utility.yul\":2032:2035   */\n      dup5\n        /* \"#utility.yul\":2023:2029   */\n      dup5\n        /* \"#utility.yul\":2018:2021   */\n      dup5\n        /* \"#utility.yul\":2014:2030   */\n      add\n        /* \"#utility.yul\":2011:2036   */\n      gt\n        /* \"#utility.yul\":2008:2120   */\n      iszero\n      tag_141\n      jumpi\n        /* \"#utility.yul\":2039:2118   */\n      tag_142\n      tag_75\n      jump\t// in\n    tag_142:\n        /* \"#utility.yul\":2008:2120   */\n    tag_141:\n        /* \"#utility.yul\":2129:2183   */\n      tag_143\n        /* \"#utility.yul\":2176:2182   */\n      dup5\n        /* \"#utility.yul\":2171:2174   */\n      dup3\n        /* \"#utility.yul\":2166:2169   */\n      dup6\n        /* \"#utility.yul\":2129:2183   */\n      tag_81\n      jump\t// in\n    tag_143:\n        /* \"#utility.yul\":1848:2189   */\n      pop\n        /* \"#utility.yul\":1764:2189   */\n      swap4\n      swap3\n      pop\n      pop\n      pop\n      jump\t// out\n        /* \"#utility.yul\":2209:2549   */\n    tag_83:\n        /* \"#utility.yul\":2265:2270   */\n      0x00\n        /* \"#utility.yul\":2314:2317   */\n      dup3\n        /* \"#utility.yul\":2307:2311   */\n      0x1f\n        /* \"#utility.yul\":2299:2305   */\n      dup4\n        /* \"#utility.yul\":2295:2312   */\n      add\n        /* \"#utility.yul\":2291:2318   */\n      slt\n        /* \"#utility.yul\":2281:2403   */\n      tag_145\n      jumpi\n        /* \"#utility.yul\":2322:2401   */\n      tag_146\n      tag_74\n      jump\t// in\n    tag_146:\n        /* \"#utility.yul\":2281:2403   */\n    tag_145:\n        /* \"#utility.yul\":2439:2445   */\n      dup2\n        /* \"#utility.yul\":2426:2446   */\n      calldataload\n        /* \"#utility.yul\":2464:2543   */\n      tag_147\n        /* \"#utility.yul\":2539:2542   */\n      dup5\n        /* \"#utility.yul\":2531:2537   */\n      dup3\n        /* \"#utility.yul\":2524:2528   */\n      0x20\n        /* \"#utility.yul\":2516:2522   */\n      dup7\n        /* \"#utility.yul\":2512:2529   */\n      add\n        /* \"#utility.yul\":2464:2543   */\n      tag_82\n      jump\t// in\n    tag_147:\n        /* \"#utility.yul\":2455:2543   */\n      swap2\n      pop\n        /* \"#utility.yul\":2271:2549   */\n      pop\n        /* \"#utility.yul\":2209:2549   */\n      swap3\n      swap2\n      pop\n      pop\n      jump\t// out\n        /* \"#utility.yul\":2555:2632   */\n    tag_84:\n        /* \"#utility.yul\":2592:2599   */\n      0x00\n        /* \"#utility.yul\":2621:2626   */\n      dup2\n        /* \"#utility.yul\":2610:2626   */\n      swap1\n      pop\n        /* \"#utility.yul\":2555:2632   */\n      swap2\n      swap1\n      pop\n      jump\t// out\n        /* \"#utility.yul\":2638:2760   */\n    tag_85:\n        /* \"#utility.yul\":2711:2735   */\n      tag_150\n        /* \"#utility.yul\":2729:2734   */\n      dup2\n        /* \"#utility.yul\":2711:2735   */\n      tag_84\n      jump\t// in\n    tag_150:\n        /* \"#utility.yul\":2704:2709   */\n      dup2\n        /* \"#utility.yul\":2701:2736   */\n      eq\n        /* \"#utility.yul\":2691:2754   */\n      tag_151\n      jumpi\n        /* \"#utility.yul\":2750:2751   */\n      0x00\n        /* \"#utility.yul\":2747:2748   */\n      dup1\n        /* \"#utility.yul\":2740:2752   */\n      revert\n        /* \"#utility.yul\":2691:2754   */\n    tag_151:\n        /* \"#utility.yul\":2638:2760   */\n      pop\n      jump\t// out\n        /* \"#utility.yul\":2766:2905   */\n    tag_86:\n        /* \"#utility.yul\":2812:2817   */\n      0x00\n        /* \"#utility.yul\":2850:2856   */\n      dup2\n        /* \"#utility.yul\":2837:2857   */\n      calldataload\n        /* \"#utility.yul\":2828:2857   */\n      swap1\n      pop\n        /* \"#utility.yul\":2866:2899   */\n      tag_153\n        /* \"#utility.yul\":2893:2898   */\n      dup2\n        /* \"#utility.yul\":2866:2899   */\n      tag_85\n      jump\t// in\n    tag_153:\n        /* \"#utility.yul\":2766:2905   */\n      swap3\n      swap2\n      pop\n      pop\n      jump\t// out\n        /* \"#utility.yul\":2911:4216   */\n    tag_8:\n        /* \"#utility.yul\":3027:3033   */\n      0x00\n        /* \"#utility.yul\":3035:3041   */\n      dup1\n        /* \"#utility.yul\":3043:3049   */\n      0x00\n        /* \"#utility.yul\":3051:3057   */\n      dup1\n        /* \"#utility.yul\":3100:3103   */\n      0x80\n        /* \"#utility.yul\":3088:3097   */\n      dup6\n        /* \"#utility.yul\":3079:3086   */\n      dup8\n        /* \"#utility.yul\":3075:3098   */\n      sub\n        /* \"#utility.yul\":3071:3104   */\n      slt\n        /* \"#utility.yul\":3068:3188   */\n      iszero\n      tag_155\n      jumpi\n        /* \"#utility.yul\":3107:3186   */\n      tag_156\n      tag_72\n      jump\t// in\n    tag_156:\n        /* \"#utility.yul\":3068:3188   */\n    tag_155:\n        /* \"#utility.yul\":3255:3256   */\n      0x00\n        /* \"#utility.yul\":3244:3253   */\n      dup6\n        /* \"#utility.yul\":3240:3257   */\n      add\n        /* \"#utility.yul\":3227:3258   */\n      calldataload\n        /* \"#utility.yul\":3285:3303   */\n      0xffffffffffffffff\n        /* \"#utility.yul\":3277:3283   */\n      dup2\n        /* \"#utility.yul\":3274:3304   */\n      gt\n        /* \"#utility.yul\":3271:3388   */\n      iszero\n      tag_157\n      jumpi\n        /* \"#utility.yul\":3307:3386   */\n      tag_158\n      tag_73\n      jump\t// in\n    tag_158:\n        /* \"#utility.yul\":3271:3388   */\n    tag_157:\n        /* \"#utility.yul\":3412:3475   */\n      tag_159\n        /* \"#utility.yul\":3467:3474   */\n      dup8\n        /* \"#utility.yul\":3458:3464   */\n      dup3\n        /* \"#utility.yul\":3447:3456   */\n      dup9\n        /* \"#utility.yul\":3443:3465   */\n      add\n        /* \"#utility.yul\":3412:3475   */\n      tag_83\n      jump\t// in\n    tag_159:\n        /* \"#utility.yul\":3402:3475   */\n      swap5\n      pop\n        /* \"#utility.yul\":3198:3485   */\n      pop\n        /* \"#utility.yul\":3552:3554   */\n      0x20\n        /* \"#utility.yul\":3541:3550   */\n      dup6\n        /* \"#utility.yul\":3537:3555   */\n      add\n        /* \"#utility.yul\":3524:3556   */\n      calldataload\n        /* \"#utility.yul\":3583:3601   */\n      0xffffffffffffffff\n        /* \"#utility.yul\":3575:3581   */\n      dup2\n        /* \"#utility.yul\":3572:3602   */\n      gt\n        /* \"#utility.yul\":3569:3686   */\n      iszero\n      tag_160\n      jumpi\n        /* \"#utility.yul\":3605:3684   */\n      tag_161\n      tag_73\n      jump\t// in\n    tag_161:\n        /* \"#utility.yul\":3569:3686   */\n    tag_160:\n        /* \"#utility.yul\":3710:3773   */\n      tag_162\n        /* \"#utility.yul\":3765:3772   */\n      dup8\n        /* \"#utility.yul\":3756:3762   */\n      dup3\n        /* \"#utility.yul\":3745:3754   */\n      dup9\n        /* \"#utility.yul\":3741:3763   */\n      add\n        /* \"#utility.yul\":3710:3773   */\n      tag_83\n      jump\t// in\n    tag_162:\n        /* \"#utility.yul\":3700:3773   */\n      swap4\n      pop\n        /* \"#utility.yul\":3495:3783   */\n      pop\n        /* \"#utility.yul\":3850:3852   */\n      0x40\n        /* \"#utility.yul\":3839:3848   */\n      dup6\n        /* \"#utility.yul\":3835:3853   */\n      add\n        /* \"#utility.yul\":3822:3854   */\n      calldataload\n        /* \"#utility.yul\":3881:3899   */\n      0xffffffffffffffff\n        /* \"#utility.yul\":3873:3879   */\n      dup2\n        /* \"#utility.yul\":3870:3900   */\n      gt\n        /* \"#utility.yul\":3867:3984   */\n      iszero\n      tag_163\n      jumpi\n        /* \"#utility.yul\":3903:3982   */\n      tag_164\n      tag_73\n      jump\t// in\n    tag_164:\n        /* \"#utility.yul\":3867:3984   */\n    tag_163:\n        /* \"#utility.yul\":4008:4071   */\n      tag_165\n        /* \"#utility.yul\":4063:4070   */\n      dup8\n        /* \"#utility.yul\":4054:4060   */\n      dup3\n        /* \"#utility.yul\":4043:4052   */\n      dup9\n        /* \"#utility.yul\":4039:4061   */\n      add\n        /* \"#utility.yul\":4008:4071   */\n      tag_83\n      jump\t// in\n    tag_165:\n        /* \"#utility.yul\":3998:4071   */\n      swap3\n      pop\n        /* \"#utility.yul\":3793:4081   */\n      pop\n        /* \"#utility.yul\":4120:4122   */\n      0x60\n        /* \"#utility.yul\":4146:4199   */\n      tag_166\n        /* \"#utility.yul\":4191:4198   */\n      dup8\n        /* \"#utility.yul\":4182:4188   */\n      dup3\n        /* \"#utility.yul\":4171:4180   */\n      dup9\n        /* \"#utility.yul\":4167:4189   */\n      add\n        /* \"#utility.yul\":4146:4199   */\n      tag_86\n      jump\t// in\n    tag_166:\n        /* \"#utility.yul\":4136:4199   */\n      swap2\n      pop\n        /* \"#utility.yul\":4091:4209   */\n      pop\n        /* \"#utility.yul\":2911:4216   */\n      swap3\n      swap6\n      swap2\n      swap5\n      pop\n      swap3\n      pop\n      jump\t// out\n        /* \"#utility.yul\":4222:4731   */\n    tag_12:\n        /* \"#utility.yul\":4291:4297   */\n      0x00\n        /* \"#utility.yul\":4340:4342   */\n      0x20\n        /* \"#utility.yul\":4328:4337   */\n      dup3\n        /* \"#utility.yul\":4319:4326   */\n      dup5\n        /* \"#utility.yul\":4315:4338   */\n      sub\n        /* \"#utility.yul\":4311:4343   */\n      slt\n        /* \"#utility.yul\":4308:4427   */\n      iszero\n      tag_168\n      jumpi\n        /* \"#utility.yul\":4346:4425   */\n      tag_169\n      tag_72\n      jump\t// in\n    tag_169:\n        /* \"#utility.yul\":4308:4427   */\n    tag_168:\n        /* \"#utility.yul\":4494:4495   */\n      0x00\n        /* \"#utility.yul\":4483:4492   */\n      dup3\n        /* \"#utility.yul\":4479:4496   */\n      add\n        /* \"#utility.yul\":4466:4497   */\n      calldataload\n        /* \"#utility.yul\":4524:4542   */\n      0xffffffffffffffff\n        /* \"#utility.yul\":4516:4522   */\n      dup2\n        /* \"#utility.yul\":4513:4543   */\n      gt\n        /* \"#utility.yul\":4510:4627   */\n      iszero\n      tag_170\n      jumpi\n        /* \"#utility.yul\":4546:4625   */\n      tag_171\n      tag_73\n      jump\t// in\n    tag_171:\n        /* \"#utility.yul\":4510:4627   */\n    tag_170:\n        /* \"#utility.yul\":4651:4714   */\n      tag_172\n        /* \"#utility.yul\":4706:4713   */\n      dup5\n        /* \"#utility.yul\":4697:4703   */\n      dup3\n        /* \"#utility.yul\":4686:4695   */\n      dup6\n        /* \"#utility.yul\":4682:4704   */\n      add\n        /* \"#utility.yul\":4651:4714   */\n      tag_83\n      jump\t// in\n    tag_172:\n        /* \"#utility.yul\":4641:4714   */\n      swap2\n      pop\n        /* \"#utility.yul\":4437:4724   */\n      pop\n        /* \"#utility.yul\":4222:4731   */\n      swap3\n      swap2\n      pop\n      pop\n      jump\t// out\n        /* \"#utility.yul\":4737:4855   */\n    tag_87:\n        /* \"#utility.yul\":4824:4848   */\n      tag_174\n        /* \"#utility.yul\":4842:4847   */\n      dup2\n        /* \"#utility.yul\":4824:4848   */\n      tag_84\n      jump\t// in\n    tag_174:\n        /* \"#utility.yul\":4819:4822   */\n      dup3\n        /* \"#utility.yul\":4812:4849   */\n      mstore\n        /* \"#utility.yul\":4737:4855   */\n      pop\n      pop\n      jump\t// out\n        /* \"#utility.yul\":4861:5083   */\n    tag_15:\n        /* \"#utility.yul\":4954:4958   */\n      0x00\n        /* \"#utility.yul\":4992:4994   */\n      0x20\n        /* \"#utility.yul\":4981:4990   */\n      dup3\n        /* \"#utility.yul\":4977:4995   */\n      add\n        /* \"#utility.yul\":4969:4995   */\n      swap1\n      pop\n        /* \"#utility.yul\":5005:5076   */\n      tag_176\n        /* \"#utility.yul\":5073:5074   */\n      0x00\n        /* \"#utility.yul\":5062:5071   */\n      dup4\n        /* \"#utility.yul\":5058:5075   */\n      add\n        /* \"#utility.yul\":5049:5055   */\n      dup5\n        /* \"#utility.yul\":5005:5076   */\n      tag_87\n      jump\t// in\n    tag_176:\n        /* \"#utility.yul\":4861:5083   */\n      swap3\n      swap2\n      pop\n      pop\n      jump\t// out\n        /* \"#utility.yul\":5089:5188   */\n    tag_88:\n        /* \"#utility.yul\":5141:5147   */\n      0x00\n        /* \"#utility.yul\":5175:5180   */\n      dup2\n        /* \"#utility.yul\":5169:5181   */\n      mload\n        /* \"#utility.yul\":5159:5181   */\n      swap1\n      pop\n        /* \"#utility.yul\":5089:5188   */\n      swap2\n      swap1\n      pop\n      jump\t// out\n        /* \"#utility.yul\":5194:5363   */\n    tag_89:\n        /* \"#utility.yul\":5278:5289   */\n      0x00\n        /* \"#utility.yul\":5312:5318   */\n      dup3\n        /* \"#utility.yul\":5307:5310   */\n      dup3\n        /* \"#utility.yul\":5300:5319   */\n      mstore\n        /* \"#utility.yul\":5352:5356   */\n      0x20\n        /* \"#utility.yul\":5347:5350   */\n      dup3\n        /* \"#utility.yul\":5343:5357   */\n      add\n        /* \"#utility.yul\":5328:5357   */\n      swap1\n      pop\n        /* \"#utility.yul\":5194:5363   */\n      swap3\n      swap2\n      pop\n      pop\n      jump\t// out\n        /* \"#utility.yul\":5369:5508   */\n    tag_90:\n        /* \"#utility.yul\":5458:5464   */\n      dup3\n        /* \"#utility.yul\":5453:5456   */\n      dup2\n        /* \"#utility.yul\":5448:5451   */\n      dup4\n        /* \"#utility.yul\":5442:5465   */\n      mcopy\n        /* \"#utility.yul\":5499:5500   */\n      0x00\n        /* \"#utility.yul\":5490:5496   */\n      dup4\n        /* \"#utility.yul\":5485:5488   */\n      dup4\n        /* \"#utility.yul\":5481:5497   */\n      add\n        /* \"#utility.yul\":5474:5501   */\n      mstore\n        /* \"#utility.yul\":5369:5508   */\n      pop\n      pop\n      pop\n      jump\t// out\n        /* \"#utility.yul\":5514:5891   */\n    tag_91:\n        /* \"#utility.yul\":5602:5605   */\n      0x00\n        /* \"#utility.yul\":5630:5669   */\n      tag_181\n        /* \"#utility.yul\":5663:5668   */\n      dup3\n        /* \"#utility.yul\":5630:5669   */\n      tag_88\n      jump\t// in\n    tag_181:\n        /* \"#utility.yul\":5685:5756   */\n      tag_182\n        /* \"#utility.yul\":5749:5755   */\n      dup2\n        /* \"#utility.yul\":5744:5747   */\n      dup6\n        /* \"#utility.yul\":5685:5756   */\n      tag_89\n      jump\t// in\n    tag_182:\n        /* \"#utility.yul\":5678:5756   */\n      swap4\n      pop\n        /* \"#utility.yul\":5765:5830   */\n      tag_183\n        /* \"#utility.yul\":5823:5829   */\n      dup2\n        /* \"#utility.yul\":5818:5821   */\n      dup6\n        /* \"#utility.yul\":5811:5815   */\n      0x20\n        /* \"#utility.yul\":5804:5809   */\n      dup7\n        /* \"#utility.yul\":5800:5816   */\n      add\n        /* \"#utility.yul\":5765:5830   */\n      tag_90\n      jump\t// in\n    tag_183:\n        /* \"#utility.yul\":5855:5884   */\n      tag_184\n        /* \"#utility.yul\":5877:5883   */\n      dup2\n        /* \"#utility.yul\":5855:5884   */\n      tag_76\n      jump\t// in\n    tag_184:\n        /* \"#utility.yul\":5850:5853   */\n      dup5\n        /* \"#utility.yul\":5846:5885   */\n      add\n        /* \"#utility.yul\":5839:5885   */\n      swap2\n      pop\n        /* \"#utility.yul\":5606:5891   */\n      pop\n        /* \"#utility.yul\":5514:5891   */\n      swap3\n      swap2\n      pop\n      pop\n      jump\t// out\n        /* \"#utility.yul\":5897:5974   */\n    tag_92:\n        /* \"#utility.yul\":5934:5941   */\n      0x00\n        /* \"#utility.yul\":5963:5968   */\n      dup2\n        /* \"#utility.yul\":5952:5968   */\n      swap1\n      pop\n        /* \"#utility.yul\":5897:5974   */\n      swap2\n      swap1\n      pop\n      jump\t// out\n        /* \"#utility.yul\":5980:6098   */\n    tag_93:\n        /* \"#utility.yul\":6067:6091   */\n      tag_187\n        /* \"#utility.yul\":6085:6090   */\n      dup2\n        /* \"#utility.yul\":6067:6091   */\n      tag_92\n      jump\t// in\n    tag_187:\n        /* \"#utility.yul\":6062:6065   */\n      dup3\n        /* \"#utility.yul\":6055:6092   */\n      mstore\n        /* \"#utility.yul\":5980:6098   */\n      pop\n      pop\n      jump\t// out\n        /* \"#utility.yul\":6104:7041   */\n    tag_20:\n        /* \"#utility.yul\":6369:6373   */\n      0x00\n        /* \"#utility.yul\":6407:6410   */\n      0xa0\n        /* \"#utility.yul\":6396:6405   */\n      dup3\n        /* \"#utility.yul\":6392:6411   */\n      add\n        /* \"#utility.yul\":6384:6411   */\n      swap1\n      pop\n        /* \"#utility.yul\":6457:6466   */\n      dup2\n        /* \"#utility.yul\":6451:6455   */\n      dup2\n        /* \"#utility.yul\":6447:6467   */\n      sub\n        /* \"#utility.yul\":6443:6444   */\n      0x00\n        /* \"#utility.yul\":6432:6441   */\n      dup4\n        /* \"#utility.yul\":6428:6445   */\n      add\n        /* \"#utility.yul\":6421:6468   */\n      mstore\n        /* \"#utility.yul\":6485:6563   */\n      tag_189\n        /* \"#utility.yul\":6558:6562   */\n      dup2\n        /* \"#utility.yul\":6549:6555   */\n      dup9\n        /* \"#utility.yul\":6485:6563   */\n      tag_91\n      jump\t// in\n    tag_189:\n        /* \"#utility.yul\":6477:6563   */\n      swap1\n      pop\n        /* \"#utility.yul\":6610:6619   */\n      dup2\n        /* \"#utility.yul\":6604:6608   */\n      dup2\n        /* \"#utility.yul\":6600:6620   */\n      sub\n        /* \"#utility.yul\":6595:6597   */\n      0x20\n        /* \"#utility.yul\":6584:6593   */\n      dup4\n        /* \"#utility.yul\":6580:6598   */\n      add\n        /* \"#utility.yul\":6573:6621   */\n      mstore\n        /* \"#utility.yul\":6638:6716   */\n      tag_190\n        /* \"#utility.yul\":6711:6715   */\n      dup2\n        /* \"#utility.yul\":6702:6708   */\n      dup8\n        /* \"#utility.yul\":6638:6716   */\n      tag_91\n      jump\t// in\n    tag_190:\n        /* \"#utility.yul\":6630:6716   */\n      swap1\n      pop\n        /* \"#utility.yul\":6763:6772   */\n      dup2\n        /* \"#utility.yul\":6757:6761   */\n      dup2\n        /* \"#utility.yul\":6753:6773   */\n      sub\n        /* \"#utility.yul\":6748:6750   */\n      0x40\n        /* \"#utility.yul\":6737:6746   */\n      dup4\n        /* \"#utility.yul\":6733:6751   */\n      add\n        /* \"#utility.yul\":6726:6774   */\n      mstore\n        /* \"#utility.yul\":6791:6869   */\n      tag_191\n        /* \"#utility.yul\":6864:6868   */\n      dup2\n        /* \"#utility.yul\":6855:6861   */\n      dup7\n        /* \"#utility.yul\":6791:6869   */\n      tag_91\n      jump\t// in\n    tag_191:\n        /* \"#utility.yul\":6783:6869   */\n      swap1\n      pop\n        /* \"#utility.yul\":6879:6951   */\n      tag_192\n        /* \"#utility.yul\":6947:6949   */\n      0x60\n        /* \"#utility.yul\":6936:6945   */\n      dup4\n        /* \"#utility.yul\":6932:6950   */\n      add\n        /* \"#utility.yul\":6923:6929   */\n      dup6\n        /* \"#utility.yul\":6879:6951   */\n      tag_93\n      jump\t// in\n    tag_192:\n        /* \"#utility.yul\":6961:7034   */\n      tag_193\n        /* \"#utility.yul\":7029:7032   */\n      0x80\n        /* \"#utility.yul\":7018:7027   */\n      dup4\n        /* \"#utility.yul\":7014:7033   */\n      add\n        /* \"#utility.yul\":7005:7011   */\n      dup5\n        /* \"#utility.yul\":6961:7034   */\n      tag_87\n      jump\t// in\n    tag_193:\n        /* \"#utility.yul\":6104:7041   */\n      swap7\n      swap6\n      pop\n      pop\n      pop\n      pop\n      pop\n      pop\n      jump\t// out\n        /* \"#utility.yul\":7047:7195   */\n    tag_94:\n        /* \"#utility.yul\":7149:7160   */\n      0x00\n        /* \"#utility.yul\":7186:7189   */\n      dup2\n        /* \"#utility.yul\":7171:7189   */\n      swap1\n      pop\n        /* \"#utility.yul\":7047:7195   */\n      swap3\n      swap2\n      pop\n      pop\n      jump\t// out\n        /* \"#utility.yul\":7201:7591   */\n    tag_95:\n        /* \"#utility.yul\":7307:7310   */\n      0x00\n        /* \"#utility.yul\":7335:7374   */\n      tag_196\n        /* \"#utility.yul\":7368:7373   */\n      dup3\n        /* \"#utility.yul\":7335:7374   */\n      tag_88\n      jump\t// in\n    tag_196:\n        /* \"#utility.yul\":7390:7479   */\n      tag_197\n        /* \"#utility.yul\":7472:7478   */\n      dup2\n        /* \"#utility.yul\":7467:7470   */\n      dup6\n        /* \"#utility.yul\":7390:7479   */\n      tag_94\n      jump\t// in\n    tag_197:\n        /* \"#utility.yul\":7383:7479   */\n      swap4\n      pop\n        /* \"#utility.yul\":7488:7553   */\n      tag_198\n        /* \"#utility.yul\":7546:7552   */\n      dup2\n        /* \"#utility.yul\":7541:7544   */\n      dup6\n        /* \"#utility.yul\":7534:7538   */\n      0x20\n        /* \"#utility.yul\":7527:7532   */\n      dup7\n        /* \"#utility.yul\":7523:7539   */\n      add\n        /* \"#utility.yul\":7488:7553   */\n      tag_90\n      jump\t// in\n    tag_198:\n        /* \"#utility.yul\":7578:7584   */\n      dup1\n        /* \"#utility.yul\":7573:7576   */\n      dup5\n        /* \"#utility.yul\":7569:7585   */\n      add\n        /* \"#utility.yul\":7562:7585   */\n      swap2\n      pop\n        /* \"#utility.yul\":7311:7591   */\n      pop\n        /* \"#utility.yul\":7201:7591   */\n      swap3\n      swap2\n      pop\n      pop\n      jump\t// out\n        /* \"#utility.yul\":7597:7872   */\n    tag_23:\n        /* \"#utility.yul\":7729:7732   */\n      0x00\n        /* \"#utility.yul\":7751:7846   */\n      tag_200\n        /* \"#utility.yul\":7842:7845   */\n      dup3\n        /* \"#utility.yul\":7833:7839   */\n      dup5\n        /* \"#utility.yul\":7751:7846   */\n      tag_95\n      jump\t// in\n    tag_200:\n        /* \"#utility.yul\":7744:7846   */\n      swap2\n      pop\n        /* \"#utility.yul\":7863:7866   */\n      dup2\n        /* \"#utility.yul\":7856:7866   */\n      swap1\n      pop\n        /* \"#utility.yul\":7597:7872   */\n      swap3\n      swap2\n      pop\n      pop\n      jump\t// out\n        /* \"#utility.yul\":7878:8058   */\n    tag_96:\n        /* \"#utility.yul\":7926:8003   */\n      0x4e487b7100000000000000000000000000000000000000000000000000000000\n        /* \"#utility.yul\":7923:7924   */\n      0x00\n        /* \"#utility.yul\":7916:8004   */\n      mstore\n        /* \"#utility.yul\":8023:8027   */\n      0x22\n        /* \"#utility.yul\":8020:8021   */\n      0x04\n        /* \"#utility.yul\":8013:8028   */\n      mstore\n        /* \"#utility.yul\":8047:8051   */\n      0x24\n        /* \"#utility.yul\":8044:8045   */\n      0x00\n        /* \"#utility.yul\":8037:8052   */\n      revert\n        /* \"#utility.yul\":8064:8384   */\n    tag_25:\n        /* \"#utility.yul\":8108:8114   */\n      0x00\n        /* \"#utility.yul\":8145:8146   */\n      0x02\n        /* \"#utility.yul\":8139:8143   */\n      dup3\n        /* \"#utility.yul\":8135:8147   */\n      div\n        /* \"#utility.yul\":8125:8147   */\n      swap1\n      pop\n        /* \"#utility.yul\":8192:8193   */\n      0x01\n        /* \"#utility.yul\":8186:8190   */\n      dup3\n        /* \"#utility.yul\":8182:8194   */\n      and\n        /* \"#utility.yul\":8213:8231   */\n      dup1\n        /* \"#utility.yul\":8203:8284   */\n      tag_203\n      jumpi\n        /* \"#utility.yul\":8269:8273   */\n      0x7f\n        /* \"#utility.yul\":8261:8267   */\n      dup3\n        /* \"#utility.yul\":8257:8274   */\n      and\n        /* \"#utility.yul\":8247:8274   */\n      swap2\n      pop\n        /* \"#utility.yul\":8203:8284   */\n    tag_203:\n        /* \"#utility.yul\":8331:8333   */\n      0x20\n        /* \"#utility.yul\":8323:8329   */\n      dup3\n        /* \"#utility.yul\":8320:8334   */\n      lt\n        /* \"#utility.yul\":8300:8318   */\n      dup2\n        /* \"#utility.yul\":8297:8335   */\n      sub\n        /* \"#utility.yul\":8294:8378   */\n      tag_204\n      jumpi\n        /* \"#utility.yul\":8350:8368   */\n      tag_205\n      tag_96\n      jump\t// in\n    tag_205:\n        /* \"#utility.yul\":8294:8378   */\n    tag_204:\n        /* \"#utility.yul\":8115:8384   */\n      pop\n        /* \"#utility.yul\":8064:8384   */\n      swap2\n      swap1\n      pop\n      jump\t// out\n        /* \"#utility.yul\":8390:8566   */\n    tag_97:\n        /* \"#utility.yul\":8530:8558   */\n      0x50726f63657373696e6720616c72656164792075706461746564000000000000\n        /* \"#utility.yul\":8526:8527   */\n      0x00\n        /* \"#utility.yul\":8518:8524   */\n      dup3\n        /* \"#utility.yul\":8514:8528   */\n      add\n        /* \"#utility.yul\":8507:8559   */\n      mstore\n        /* \"#utility.yul\":8390:8566   */\n      pop\n      jump\t// out\n        /* \"#utility.yul\":8572:8938   */\n    tag_98:\n        /* \"#utility.yul\":8714:8717   */\n      0x00\n        /* \"#utility.yul\":8735:8802   */\n      tag_208\n        /* \"#utility.yul\":8799:8801   */\n      0x1a\n        /* \"#utility.yul\":8794:8797   */\n      dup4\n        /* \"#utility.yul\":8735:8802   */\n      tag_89\n      jump\t// in\n    tag_208:\n        /* \"#utility.yul\":8728:8802   */\n      swap2\n      pop\n        /* \"#utility.yul\":8811:8904   */\n      tag_209\n        /* \"#utility.yul\":8900:8903   */\n      dup3\n        /* \"#utility.yul\":8811:8904   */\n      tag_97\n      jump\t// in\n    tag_209:\n        /* \"#utility.yul\":8929:8931   */\n      0x20\n        /* \"#utility.yul\":8924:8927   */\n      dup3\n        /* \"#utility.yul\":8920:8932   */\n      add\n        /* \"#utility.yul\":8913:8932   */\n      swap1\n      pop\n        /* \"#utility.yul\":8572:8938   */\n      swap2\n      swap1\n      pop\n      jump\t// out\n        /* \"#utility.yul\":8944:9363   */\n    tag_28:\n        /* \"#utility.yul\":9110:9114   */\n      0x00\n        /* \"#utility.yul\":9148:9150   */\n      0x20\n        /* \"#utility.yul\":9137:9146   */\n      dup3\n        /* \"#utility.yul\":9133:9151   */\n      add\n        /* \"#utility.yul\":9125:9151   */\n      swap1\n      pop\n        /* \"#utility.yul\":9197:9206   */\n      dup2\n        /* \"#utility.yul\":9191:9195   */\n      dup2\n        /* \"#utility.yul\":9187:9207   */\n      sub\n        /* \"#utility.yul\":9183:9184   */\n      0x00\n        /* \"#utility.yul\":9172:9181   */\n      dup4\n        /* \"#utility.yul\":9168:9185   */\n      add\n        /* \"#utility.yul\":9161:9208   */\n      mstore\n        /* \"#utility.yul\":9225:9356   */\n      tag_211\n        /* \"#utility.yul\":9351:9355   */\n      dup2\n        /* \"#utility.yul\":9225:9356   */\n      tag_98\n      jump\t// in\n    tag_211:\n        /* \"#utility.yul\":9217:9356   */\n      swap1\n      pop\n        /* \"#utility.yul\":8944:9363   */\n      swap2\n      swap1\n      pop\n      jump\t// out\n        /* \"#utility.yul\":9369:9510   */\n    tag_99:\n        /* \"#utility.yul\":9418:9422   */\n      0x00\n        /* \"#utility.yul\":9441:9444   */\n      dup2\n        /* \"#utility.yul\":9433:9444   */\n      swap1\n      pop\n        /* \"#utility.yul\":9464:9467   */\n      dup2\n        /* \"#utility.yul\":9461:9462   */\n      0x00\n        /* \"#utility.yul\":9454:9468   */\n      mstore\n        /* \"#utility.yul\":9498:9502   */\n      0x20\n        /* \"#utility.yul\":9495:9496   */\n      0x00\n        /* \"#utility.yul\":9485:9503   */\n      keccak256\n        /* \"#utility.yul\":9477:9503   */\n      swap1\n      pop\n        /* \"#utility.yul\":9369:9510   */\n      swap2\n      swap1\n      pop\n      jump\t// out\n        /* \"#utility.yul\":9516:9609   */\n    tag_100:\n        /* \"#utility.yul\":9553:9559   */\n      0x00\n        /* \"#utility.yul\":9600:9602   */\n      0x20\n        /* \"#utility.yul\":9595:9597   */\n      0x1f\n        /* \"#utility.yul\":9588:9593   */\n      dup4\n        /* \"#utility.yul\":9584:9598   */\n      add\n        /* \"#utility.yul\":9580:9603   */\n      div\n        /* \"#utility.yul\":9570:9603   */\n      swap1\n      pop\n        /* \"#utility.yul\":9516:9609   */\n      swap2\n      swap1\n      pop\n      jump\t// out\n        /* \"#utility.yul\":9615:9722   */\n    tag_101:\n        /* \"#utility.yul\":9659:9667   */\n      0x00\n        /* \"#utility.yul\":9709:9714   */\n      dup3\n        /* \"#utility.yul\":9703:9707   */\n      dup3\n        /* \"#utility.yul\":9699:9715   */\n      shl\n        /* \"#utility.yul\":9678:9715   */\n      swap1\n      pop\n        /* \"#utility.yul\":9615:9722   */\n      swap3\n      swap2\n      pop\n      pop\n      jump\t// out\n        /* \"#utility.yul\":9728:10121   */\n    tag_102:\n        /* \"#utility.yul\":9797:9803   */\n      0x00\n        /* \"#utility.yul\":9847:9848   */\n      0x08\n        /* \"#utility.yul\":9835:9845   */\n      dup4\n        /* \"#utility.yul\":9831:9849   */\n      mul\n        /* \"#utility.yul\":9870:9967   */\n      tag_216\n        /* \"#utility.yul\":9900:9966   */\n      0xffffffffffffffffffffffffffffffffffffffffffffffffffffffffffffffff\n        /* \"#utility.yul\":9889:9898   */\n      dup3\n        /* \"#utility.yul\":9870:9967   */\n      tag_101\n      jump\t// in\n    tag_216:\n        /* \"#utility.yul\":9988:10027   */\n      tag_217\n        /* \"#utility.yul\":10018:10026   */\n      dup7\n        /* \"#utility.yul\":10007:10016   */\n      dup4\n        /* \"#utility.yul\":9988:10027   */\n      tag_101\n      jump\t// in\n    tag_217:\n        /* \"#utility.yul\":9976:10027   */\n      swap6\n      pop\n        /* \"#utility.yul\":10060:10064   */\n      dup1\n        /* \"#utility.yul\":10056:10065   */\n      not\n        /* \"#utility.yul\":10049:10054   */\n      dup5\n        /* \"#utility.yul\":10045:10066   */\n      and\n        /* \"#utility.yul\":10036:10066   */\n      swap4\n      pop\n        /* \"#utility.yul\":10109:10113   */\n      dup1\n        /* \"#utility.yul\":10099:10107   */\n      dup7\n        /* \"#utility.yul\":10095:10114   */\n      and\n        /* \"#utility.yul\":10088:10093   */\n      dup5\n        /* \"#utility.yul\":10085:10115   */\n      or\n        /* \"#utility.yul\":10075:10115   */\n      swap3\n      pop\n        /* \"#utility.yul\":9804:10121   */\n      pop\n      pop\n        /* \"#utility.yul\":9728:10121   */\n      swap4\n      swap3\n      pop\n      pop\n      pop\n      jump\t// out\n        /* \"#utility.yul\":10127:10187   */\n    tag_103:\n        /* \"#utility.yul\":10155:10158   */\n      0x00\n        /* \"#utility.yul\":10176:10181   */\n      dup2\n        /* \"#utility.yul\":10169:10181   */\n      swap1\n      pop\n        /* \"#utility.yul\":10127:10187   */\n      swap2\n      swap1\n      pop\n      jump\t// out\n        /* \"#utility.yul\":10193:10335   */\n    tag_104:\n        /* \"#utility.yul\":10243:10252   */\n      0x00\n        /* \"#utility.yul\":10276:10329   */\n      tag_220\n        /* \"#utility.yul\":10294:10328   */\n      tag_221\n        /* \"#utility.yul\":10303:10327   */\n      tag_222\n        /* \"#utility.yul\":10321:10326   */\n      dup5\n        /* \"#utility.yul\":10303:10327   */\n      tag_92\n      jump\t// in\n    tag_222:\n        /* \"#utility.yul\":10294:10328   */\n      tag_103\n      jump\t// in\n    tag_221:\n        /* \"#utility.yul\":10276:10329   */\n      tag_92\n      jump\t// in\n    tag_220:\n        /* \"#utility.yul\":10263:10329   */\n      swap1\n      pop\n        /* \"#utility.yul\":10193:10335   */\n      swap2\n      swap1\n      pop\n      jump\t// out\n        /* \"#utility.yul\":10341:10416   */\n    tag_105:\n        /* \"#utility.yul\":10384:10387   */\n      0x00\n        /* \"#utility.yul\":10405:10410   */\n      dup2\n        /* \"#utility.yul\":10398:10410   */\n      swap1\n      pop\n        /* \"#utility.yul\":10341:10416   */\n      swap2\n      swap1\n      pop\n      jump\t// out\n        /* \"#utility.yul\":10422:10691   */\n    tag_106:\n        /* \"#utility.yul\":10532:10571   */\n      tag_225\n        /* \"#utility.yul\":10563:10570   */\n      dup4\n        /* \"#utility.yul\":10532:10571   */\n      tag_104\n      jump\t// in\n    tag_225:\n        /* \"#utility.yul\":10593:10684   */\n      tag_226\n        /* \"#utility.yul\":10642:10683   */\n      tag_227\n        /* \"#utility.yul\":10666:10682   */\n      dup3\n        /* \"#utility.yul\":10642:10683   */\n      tag_105\n      jump\t// in\n    tag_227:\n        /* \"#utility.yul\":10634:10640   */\n      dup5\n        /* \"#utility.yul\":10627:10631   */\n      dup5\n        /* \"#utility.yul\":10621:10632   */\n      sload\n        /* \"#utility.yul\":10593:10684   */\n      tag_102\n      jump\t// in\n    tag_226:\n        /* \"#utility.yul\":10587:10591   */\n      dup3\n        /* \"#utility.yul\":10580:10685   */\n      sstore\n        /* \"#utility.yul\":10498:10691   */\n      pop\n        /* \"#utility.yul\":10422:10691   */\n      pop\n      pop\n      pop\n      jump\t// out\n        /* \"#utility.yul\":10697:10770   */\n    tag_107:\n        /* \"#utility.yul\":10742:10745   */\n      0x00\n        /* \"#utility.yul\":10697:10770   */\n      swap1\n      jump\t// out\n        /* \"#utility.yul\":10776:10965   */\n    tag_108:\n        /* \"#utility.yul\":10853:10885   */\n      tag_230\n      tag_107\n      jump\t// in\n    tag_230:\n        /* \"#utility.yul\":10894:10959   */\n      tag_231\n        /* \"#utility.yul\":10952:10958   */\n      dup2\n        /* \"#utility.yul\":10944:10950   */\n      dup5\n        /* \"#utility.yul\":10938:10942   */\n      dup5\n        /* \"#utility.yul\":10894:10959   */\n      tag_106\n      jump\t// in\n    tag_231:\n        /* \"#utility.yul\":10829:10965   */\n      pop\n        /* \"#utility.yul\":10776:10965   */\n      pop\n      pop\n      jump\t// out\n        /* \"#utility.yul\":10971:11157   */\n    tag_109:\n        /* \"#utility.yul\":11031:11151   */\n    tag_233:\n        /* \"#utility.yul\":11048:11051   */\n      dup2\n        /* \"#utility.yul\":11041:11046   */\n      dup2\n        /* \"#utility.yul\":11038:11052   */\n      lt\n        /* \"#utility.yul\":11031:11151   */\n      iszero\n      tag_235\n      jumpi\n        /* \"#utility.yul\":11102:11141   */\n      tag_236\n        /* \"#utility.yul\":11139:11140   */\n      0x00\n        /* \"#utility.yul\":11132:11137   */\n      dup3\n        /* \"#utility.yul\":11102:11141   */\n      tag_108\n      jump\t// in\n    tag_236:\n        /* \"#utility.yul\":11075:11076   */\n      0x01\n        /* \"#utility.yul\":11068:11073   */\n      dup2\n        /* \"#utility.yul\":11064:11077   */\n      add\n        /* \"#utility.yul\":11055:11077   */\n      swap1\n      pop\n        /* \"#utility.yul\":11031:11151   */\n      jump(tag_233)\n    tag_235:\n        /* \"#utility.yul\":10971:11157   */\n      pop\n      pop\n      jump\t// out\n        /* \"#utility.yul\":11163:11706   */\n    tag_110:\n        /* \"#utility.yul\":11264:11266   */\n      0x1f\n        /* \"#utility.yul\":11259:11262   */\n      dup3\n        /* \"#utility.yul\":11256:11267   */\n      gt\n        /* \"#utility.yul\":11253:11699   */\n      iszero\n      tag_238\n      jumpi\n        /* \"#utility.yul\":11298:11336   */\n      tag_239\n        /* \"#utility.yul\":11330:11335   */\n      dup2\n        /* \"#utility.yul\":11298:11336   */\n      tag_99\n      jump\t// in\n    tag_239:\n        /* \"#utility.yul\":11382:11411   */\n      tag_240\n        /* \"#utility.yul\":11400:11410   */\n      dup5\n        /* \"#utility.yul\":11382:11411   */\n      tag_100\n      jump\t// in\n    tag_240:\n        /* \"#utility.yul\":11372:11380   */\n      dup2\n        /* \"#utility.yul\":11368:11412   */\n      add\n        /* \"#utility.yul\":11565:11567   */\n      0x20\n        /* \"#utility.yul\":11553:11563   */\n      dup6\n        /* \"#utility.yul\":11550:11568   */\n      lt\n        /* \"#utility.yul\":11547:11596   */\n      iszero\n      tag_241\n      jumpi\n        /* \"#utility.yul\":11586:11594   */\n      dup2\n        /* \"#utility.yul\":11571:11594   */\n      swap1\n      pop\n        /* \"#utility.yul\":11547:11596   */\n    tag_241:\n        /* \"#utility.yul\":11609:11689   */\n      tag_242\n        /* \"#utility.yul\":11665:11687   */\n      tag_243\n        /* \"#utility.yul\":11683:11686   */\n      dup6\n        /* \"#utility.yul\":11665:11687   */\n      tag_100\n      jump\t// in\n    tag_243:\n        /* \"#utility.yul\":11655:11663   */\n      dup4\n        /* \"#utility.yul\":11651:11688   */\n      add\n        /* \"#utility.yul\":11638:11649   */\n      dup3\n        /* \"#utility.yul\":11609:11689   */\n      tag_109\n      jump\t// in\n    tag_242:\n        /* \"#utility.yul\":11268:11699   */\n      pop\n      pop\n        /* \"#utility.yul\":11253:11699   */\n    tag_238:\n        /* \"#utility.yul\":11163:11706   */\n      pop\n      pop\n      pop\n      jump\t// out\n        /* \"#utility.yul\":11712:11829   */\n    tag_111:\n        /* \"#utility.yul\":11766:11774   */\n      0x00\n        /* \"#utility.yul\":11816:11821   */\n      dup3\n        /* \"#utility.yul\":11810:11814   */\n      dup3\n        /* \"#utility.yul\":11806:11822   */\n      shr\n        /* \"#utility.yul\":11785:11822   */\n      swap1\n      pop\n        /* \"#utility.yul\":11712:11829   */\n      swap3\n      swap2\n      pop\n      pop\n      jump\t// out\n        /* \"#utility.yul\":11835:12004   */\n    tag_112:\n        /* \"#utility.yul\":11879:11885   */\n      0x00\n        /* \"#utility.yul\":11912:11963   */\n      tag_246\n        /* \"#utility.yul\":11960:11961   */\n      0x00\n        /* \"#utility.yul\":11956:11962   */\n      not\n        /* \"#utility.yul\":11948:11953   */\n      dup5\n        /* \"#utility.yul\":11945:11946   */\n      0x08\n        /* \"#utility.yul\":11941:11954   */\n      mul\n        /* \"#utility.yul\":11912:11963   */\n      tag_111\n      jump\t// in\n    tag_246:\n        /* \"#utility.yul\":11908:11964   */\n      not\n        /* \"#utility.yul\":11993:11997   */\n      dup1\n        /* \"#utility.yul\":11987:11991   */\n      dup4\n        /* \"#utility.yul\":11983:11998   */\n      and\n        /* \"#utility.yul\":11973:11998   */\n      swap2\n      pop\n        /* \"#utility.yul\":11886:12004   */\n      pop\n        /* \"#utility.yul\":11835:12004   */\n      swap3\n      swap2\n      pop\n      pop\n      jump\t// out\n        /* \"#utility.yul\":12009:12304   */\n    tag_113:\n        /* \"#utility.yul\":12085:12089   */\n      0x00\n        /* \"#utility.yul\":12231:12260   */\n      tag_248\n        /* \"#utility.yul\":12256:12259   */\n      dup4\n        /* \"#utility.yul\":12250:12254   */\n      dup4\n        /* \"#utility.yul\":12231:12260   */\n      tag_112\n      jump\t// in\n    tag_248:\n        /* \"#utility.yul\":12223:12260   */\n      swap2\n      pop\n        /* \"#utility.yul\":12293:12296   */\n      dup3\n        /* \"#utility.yul\":12290:12291   */\n      0x02\n        /* \"#utility.yul\":12286:12297   */\n      mul\n        /* \"#utility.yul\":12280:12284   */\n      dup3\n        /* \"#utility.yul\":12277:12298   */\n      or\n        /* \"#utility.yul\":12269:12298   */\n      swap1\n      pop\n        /* \"#utility.yul\":12009:12304   */\n      swap3\n      swap2\n      pop\n      pop\n      jump\t// out\n        /* \"#utility.yul\":12309:13704   */\n    tag_31:\n        /* \"#utility.yul\":12426:12463   */\n      tag_250\n        /* \"#utility.yul\":12459:12462   */\n      dup3\n        /* \"#utility.yul\":12426:12463   */\n      tag_88\n      jump\t// in\n    tag_250:\n        /* \"#utility.yul\":12528:12546   */\n      0xffffffffffffffff\n        /* \"#utility.yul\":12520:12526   */\n      dup2\n        /* \"#utility.yul\":12517:12547   */\n      gt\n        /* \"#utility.yul\":12514:12570   */\n      iszero\n      tag_251\n      jumpi\n        /* \"#utility.yul\":12550:12568   */\n      tag_252\n      tag_77\n      jump\t// in\n    tag_252:\n        /* \"#utility.yul\":12514:12570   */\n    tag_251:\n        /* \"#utility.yul\":12594:12632   */\n      tag_253\n        /* \"#utility.yul\":12626:12630   */\n      dup3\n        /* \"#utility.yul\":12620:12631   */\n      sload\n        /* \"#utility.yul\":12594:12632   */\n      tag_25\n      jump\t// in\n    tag_253:\n        /* \"#utility.yul\":12679:12746   */\n      tag_254\n        /* \"#utility.yul\":12739:12745   */\n      dup3\n        /* \"#utility.yul\":12731:12737   */\n      dup3\n        /* \"#utility.yul\":12725:12729   */\n      dup6\n        /* \"#utility.yul\":12679:12746   */\n      tag_110\n      jump\t// in\n    tag_254:\n        /* \"#utility.yul\":12773:12774   */\n      0x00\n        /* \"#utility.yul\":12797:12801   */\n      0x20\n        /* \"#utility.yul\":12784:12801   */\n      swap1\n      pop\n        /* \"#utility.yul\":12829:12831   */\n      0x1f\n        /* \"#utility.yul\":12821:12827   */\n      dup4\n        /* \"#utility.yul\":12818:12832   */\n      gt\n        /* \"#utility.yul\":12846:12847   */\n      0x01\n        /* \"#utility.yul\":12841:13459   */\n      dup2\n      eq\n      tag_256\n      jumpi\n        /* \"#utility.yul\":13503:13504   */\n      0x00\n        /* \"#utility.yul\":13520:13526   */\n      dup5\n        /* \"#utility.yul\":13517:13594   */\n      iszero\n      tag_257\n      jumpi\n        /* \"#utility.yul\":13569:13578   */\n      dup3\n        /* \"#utility.yul\":13564:13567   */\n      dup8\n        /* \"#utility.yul\":13560:13579   */\n      add\n        /* \"#utility.yul\":13554:13580   */\n      mload\n        /* \"#utility.yul\":13545:13580   */\n      swap1\n      pop\n        /* \"#utility.yul\":13517:13594   */\n    tag_257:\n        /* \"#utility.yul\":13620:13687   */\n      tag_258\n        /* \"#utility.yul\":13680:13686   */\n      dup6\n        /* \"#utility.yul\":13673:13678   */\n      dup3\n        /* \"#utility.yul\":13620:13687   */\n      tag_113\n      jump\t// in\n    tag_258:\n        /* \"#utility.yul\":13614:13618   */\n      dup7\n        /* \"#utility.yul\":13607:13688   */\n      sstore\n        /* \"#utility.yul\":13476:13698   */\n      pop\n        /* \"#utility.yul\":12811:13698   */\n      jump(tag_255)\n        /* \"#utility.yul\":12841:13459   */\n    tag_256:\n        /* \"#utility.yul\":12893:12897   */\n      0x1f\n        /* \"#utility.yul\":12889:12898   */\n      not\n        /* \"#utility.yul\":12881:12887   */\n      dup5\n        /* \"#utility.yul\":12877:12899   */\n      and\n        /* \"#utility.yul\":12927:12964   */\n      tag_259\n        /* \"#utility.yul\":12959:12963   */\n      dup7\n        /* \"#utility.yul\":12927:12964   */\n      tag_99\n      jump\t// in\n    tag_259:\n        /* \"#utility.yul\":12986:12987   */\n      0x00\n        /* \"#utility.yul\":13000:13208   */\n    tag_260:\n        /* \"#utility.yul\":13014:13021   */\n      dup3\n        /* \"#utility.yul\":13011:13012   */\n      dup2\n        /* \"#utility.yul\":13008:13022   */\n      lt\n        /* \"#utility.yul\":13000:13208   */\n      iszero\n      tag_262\n      jumpi\n        /* \"#utility.yul\":13093:13102   */\n      dup5\n        /* \"#utility.yul\":13088:13091   */\n      dup10\n        /* \"#utility.yul\":13084:13103   */\n      add\n        /* \"#utility.yul\":13078:13104   */\n      mload\n        /* \"#utility.yul\":13070:13076   */\n      dup3\n        /* \"#utility.yul\":13063:13105   */\n      sstore\n        /* \"#utility.yul\":13144:13145   */\n      0x01\n        /* \"#utility.yul\":13136:13142   */\n      dup3\n        /* \"#utility.yul\":13132:13146   */\n      add\n        /* \"#utility.yul\":13122:13146   */\n      swap2\n      pop\n        /* \"#utility.yul\":13191:13193   */\n      0x20\n        /* \"#utility.yul\":13180:13189   */\n      dup6\n        /* \"#utility.yul\":13176:13194   */\n      add\n        /* \"#utility.yul\":13163:13194   */\n      swap5\n      pop\n        /* \"#utility.yul\":13037:13041   */\n      0x20\n        /* \"#utility.yul\":13034:13035   */\n      dup2\n        /* \"#utility.yul\":13030:13042   */\n      add\n        /* \"#utility.yul\":13025:13042   */\n      swap1\n      pop\n        /* \"#utility.yul\":13000:13208   */\n      jump(tag_260)\n    tag_262:\n        /* \"#utility.yul\":13236:13242   */\n      dup7\n        /* \"#utility.yul\":13227:13234   */\n      dup4\n        /* \"#utility.yul\":13224:13243   */\n      lt\n        /* \"#utility.yul\":13221:13400   */\n      iszero\n      tag_263\n      jumpi\n        /* \"#utility.yul\":13294:13303   */\n      dup5\n        /* \"#utility.yul\":13289:13292   */\n      dup10\n        /* \"#utility.yul\":13285:13304   */\n      add\n        /* \"#utility.yul\":13279:13305   */\n      mload\n        /* \"#utility.yul\":13337:13385   */\n      tag_264\n        /* \"#utility.yul\":13379:13383   */\n      0x1f\n        /* \"#utility.yul\":13371:13377   */\n      dup10\n        /* \"#utility.yul\":13367:13384   */\n      and\n        /* \"#utility.yul\":13356:13365   */\n      dup3\n        /* \"#utility.yul\":13337:13385   */\n      tag_112\n      jump\t// in\n    tag_264:\n        /* \"#utility.yul\":13329:13335   */\n      dup4\n        /* \"#utility.yul\":13322:13386   */\n      sstore\n        /* \"#utility.yul\":13244:13400   */\n      pop\n        /* \"#utility.yul\":13221:13400   */\n    tag_263:\n        /* \"#utility.yul\":13446:13447   */\n      0x01\n        /* \"#utility.yul\":13442:13443   */\n      0x02\n        /* \"#utility.yul\":13434:13440   */\n      dup9\n        /* \"#utility.yul\":13430:13444   */\n      mul\n        /* \"#utility.yul\":13426:13448   */\n      add\n        /* \"#utility.yul\":13420:13424   */\n      dup9\n        /* \"#utility.yul\":13413:13449   */\n      sstore\n        /* \"#utility.yul\":12848:13459   */\n      pop\n      pop\n      pop\n        /* \"#utility.yul\":12811:13698   */\n    tag_255:\n      pop\n        /* \"#utility.yul\":12401:13704   */\n      pop\n      pop\n      pop\n        /* \"#utility.yul\":12309:13704   */\n      pop\n      pop\n      jump\t// out\n        /* \"#utility.yul\":13710:13789   */\n    tag_114:\n        /* \"#utility.yul\":13749:13756   */\n      0x00\n        /* \"#utility.yul\":13778:13783   */\n      dup2\n        /* \"#utility.yul\":13767:13783   */\n      swap1\n      pop\n        /* \"#utility.yul\":13710:13789   */\n      swap2\n      swap1\n      pop\n      jump\t// out\n        /* \"#utility.yul\":13795:13952   */\n    tag_115:\n        /* \"#utility.yul\":13900:13945   */\n      tag_267\n        /* \"#utility.yul\":13920:13944   */\n      tag_268\n        /* \"#utility.yul\":13938:13943   */\n      dup3\n        /* \"#utility.yul\":13920:13944   */\n      tag_92\n      jump\t// in\n    tag_268:\n        /* \"#utility.yul\":13900:13945   */\n      tag_114\n      jump\t// in\n    tag_267:\n        /* \"#utility.yul\":13895:13898   */\n      dup3\n        /* \"#utility.yul\":13888:13946   */\n      mstore\n        /* \"#utility.yul\":13795:13952   */\n      pop\n      pop\n      jump\t// out\n        /* \"#utility.yul\":13958:14037   */\n    tag_116:\n        /* \"#utility.yul\":13997:14004   */\n      0x00\n        /* \"#utility.yul\":14026:14031   */\n      dup2\n        /* \"#utility.yul\":14015:14031   */\n      swap1\n      pop\n        /* \"#utility.yul\":13958:14037   */\n      swap2\n      swap1\n      pop\n      jump\t// out\n        /* \"#utility.yul\":14043:14200   */\n    tag_117:\n        /* \"#utility.yul\":14148:14193   */\n      tag_271\n        /* \"#utility.yul\":14168:14192   */\n      tag_272\n        /* \"#utility.yul\":14186:14191   */\n      dup3\n        /* \"#utility.yul\":14168:14192   */\n      tag_84\n      jump\t// in\n    tag_272:\n        /* \"#utility.yul\":14148:14193   */\n      tag_116\n      jump\t// in\n    tag_271:\n        /* \"#utility.yul\":14143:14146   */\n      dup3\n        /* \"#utility.yul\":14136:14194   */\n      mstore\n        /* \"#utility.yul\":14043:14200   */\n      pop\n      pop\n      jump\t// out\n        /* \"#utility.yul\":14206:15083   */\n    tag_35:\n        /* \"#utility.yul\":14490:14493   */\n      0x00\n        /* \"#utility.yul\":14512:14607   */\n      tag_274\n        /* \"#utility.yul\":14603:14606   */\n      dup3\n        /* \"#utility.yul\":14594:14600   */\n      dup9\n        /* \"#utility.yul\":14512:14607   */\n      tag_95\n      jump\t// in\n    tag_274:\n        /* \"#utility.yul\":14505:14607   */\n      swap2\n      pop\n        /* \"#utility.yul\":14624:14719   */\n      tag_275\n        /* \"#utility.yul\":14715:14718   */\n      dup3\n        /* \"#utility.yul\":14706:14712   */\n      dup8\n        /* \"#utility.yul\":14624:14719   */\n      tag_95\n      jump\t// in\n    tag_275:\n        /* \"#utility.yul\":14617:14719   */\n      swap2\n      pop\n        /* \"#utility.yul\":14736:14831   */\n      tag_276\n        /* \"#utility.yul\":14827:14830   */\n      dup3\n        /* \"#utility.yul\":14818:14824   */\n      dup7\n        /* \"#utility.yul\":14736:14831   */\n      tag_95\n      jump\t// in\n    tag_276:\n        /* \"#utility.yul\":14729:14831   */\n      swap2\n      pop\n        /* \"#utility.yul\":14841:14916   */\n      tag_277\n        /* \"#utility.yul\":14912:14915   */\n      dup3\n        /* \"#utility.yul\":14903:14909   */\n      dup6\n        /* \"#utility.yul\":14841:14916   */\n      tag_115\n      jump\t// in\n    tag_277:\n        /* \"#utility.yul\":14941:14943   */\n      0x20\n        /* \"#utility.yul\":14936:14939   */\n      dup3\n        /* \"#utility.yul\":14932:14944   */\n      add\n        /* \"#utility.yul\":14925:14944   */\n      swap2\n      pop\n        /* \"#utility.yul\":14954:15029   */\n      tag_278\n        /* \"#utility.yul\":15025:15028   */\n      dup3\n        /* \"#utility.yul\":15016:15022   */\n      dup5\n        /* \"#utility.yul\":14954:15029   */\n      tag_117\n      jump\t// in\n    tag_278:\n        /* \"#utility.yul\":15054:15056   */\n      0x20\n        /* \"#utility.yul\":15049:15052   */\n      dup3\n        /* \"#utility.yul\":15045:15057   */\n      add\n        /* \"#utility.yul\":15038:15057   */\n      swap2\n      pop\n        /* \"#utility.yul\":15074:15077   */\n      dup2\n        /* \"#utility.yul\":15067:15077   */\n      swap1\n      pop\n        /* \"#utility.yul\":14206:15083   */\n      swap7\n      swap6\n      pop\n      pop\n      pop\n      pop\n      pop\n      pop\n      jump\t// out\n        /* \"#utility.yul\":15089:15512   */\n    tag_37:\n        /* \"#utility.yul\":15230:15234   */\n      0x00\n        /* \"#utility.yul\":15268:15270   */\n      0x40\n        /* \"#utility.yul\":15257:15266   */\n      dup3\n        /* \"#utility.yul\":15253:15271   */\n      add\n        /* \"#utility.yul\":15245:15271   */\n      swap1\n      pop\n        /* \"#utility.yul\":15317:15326   */\n      dup2\n        /* \"#utility.yul\":15311:15315   */\n      dup2\n        /* \"#utility.yul\":15307:15327   */\n      sub\n        /* \"#utility.yul\":15303:15304   */\n      0x00\n        /* \"#utility.yul\":15292:15301   */\n      dup4\n        /* \"#utility.yul\":15288:15305   */\n      add\n        /* \"#utility.yul\":15281:15328   */\n      mstore\n        /* \"#utility.yul\":15345:15423   */\n      tag_280\n        /* \"#utility.yul\":15418:15422   */\n      dup2\n        /* \"#utility.yul\":15409:15415   */\n      dup6\n        /* \"#utility.yul\":15345:15423   */\n      tag_91\n      jump\t// in\n    tag_280:\n        /* \"#utility.yul\":15337:15423   */\n      swap1\n      pop\n        /* \"#utility.yul\":15433:15505   */\n      tag_281\n        /* \"#utility.yul\":15501:15503   */\n      0x20\n        /* \"#utility.yul\":15490:15499   */\n      dup4\n        /* \"#utility.yul\":15486:15504   */\n      add\n        /* \"#utility.yul\":15477:15483   */\n      dup5\n        /* \"#utility.yul\":15433:15505   */\n      tag_87\n      jump\t// in\n    tag_281:\n        /* \"#utility.yul\":15089:15512   */\n      swap4\n      swap3\n      pop\n      pop\n      pop\n      jump\t// out\n\n    auxdata: 0xa26469706673582212204ac092a9d2dfcd86894ed4481f6c79bd176074271e9ca556df8a904bc2879abb64736f6c634300081a0033\n}\n",
				"bytecode": {
					"linkReferences": {},
					"object": "6080604052348015600e575f80fd5b50610e4d8061001c5f395ff3fe608060405234801561000f575f80fd5b506004361061003f575f3560e01c806318e48b221461004357806353adab301461005f5780638351a2b31461008f575b5f80fd5b61005d600480360381019061005891906107d1565b6100c3565b005b61007960048036038101906100749190610889565b61023d565b60405161008691906108df565b60405180910390f35b6100a960048036038101906100a49190610889565b610476565b6040516100ba959493929190610970565b60405180910390f35b5f80856040516100d39190610a10565b90815260200160405180910390205f0180546100ee90610a53565b905014610130576040517f08c379a000000000000000000000000000000000000000000000000000000000815260040161012790610acd565b60405180910390fd5b6040518060a00160405280858152602001848152602001838152602001428152602001828152505f856040516101669190610a10565b90815260200160405180910390205f820151815f0190816101879190610c88565b50602082015181600101908161019d9190610c88565b5060408201518160020190816101b39190610c88565b5060608201518160030155608082015181600401559050505f84848442856040516020016101e5959493929190610d97565b6040516020818303038152906040528051906020012090507fc9945697c655af0b805a409f564fee17b5e60728ee2f9a821d3ec31b2aea6c05858260405161022e929190610de9565b60405180910390a15050505050565b5f805f8360405161024e9190610a10565b90815260200160405180910390206040518060a00160405290815f8201805461027690610a53565b80601f01602080910402602001604051908101604052809291908181526020018280546102a290610a53565b80156102ed5780601f106102c4576101008083540402835291602001916102ed565b820191905f5260205f20905b8154815290600101906020018083116102d057829003601f168201915b5050505050815260200160018201805461030690610a53565b80601f016020809104026020016040519081016040528092919081815260200182805461033290610a53565b801561037d5780601f106103545761010080835404028352916020019161037d565b820191905f5260205f20905b81548152906001019060200180831161036057829003601f168201915b5050505050815260200160028201805461039690610a53565b80601f01602080910402602001604051908101604052809291908181526020018280546103c290610a53565b801561040d5780601f106103e45761010080835404028352916020019161040d565b820191905f5260205f20905b8154815290600101906020018083116103f057829003601f168201915b50505050508152602001600382015481526020016004820154815250509050805f01518160200151826040015183606001518460800151604051602001610458959493929190610d97565b60405160208183030381529060405280519060200120915050919050565b5f818051602081018201805184825260208301602085012081835280955050505050505f91509050805f0180546104ac90610a53565b80601f01602080910402602001604051908101604052809291908181526020018280546104d890610a53565b80156105235780601f106104fa57610100808354040283529160200191610523565b820191905f5260205f20905b81548152906001019060200180831161050657829003601f168201915b50505050509080600101805461053890610a53565b80601f016020809104026020016040519081016040528092919081815260200182805461056490610a53565b80156105af5780601f10610586576101008083540402835291602001916105af565b820191905f5260205f20905b81548152906001019060200180831161059257829003601f168201915b5050505050908060020180546105c490610a53565b80601f01602080910402602001604051908101604052809291908181526020018280546105f090610a53565b801561063b5780601f106106125761010080835404028352916020019161063b565b820191905f5260205f20905b81548152906001019060200180831161061e57829003601f168201915b5050505050908060030154908060040154905085565b5f604051905090565b5f80fd5b5f80fd5b5f80fd5b5f80fd5b5f601f19601f8301169050919050565b7f4e487b71000000000000000000000000000000000000000000000000000000005f52604160045260245ffd5b6106b08261066a565b810181811067ffffffffffffffff821117156106cf576106ce61067a565b5b80604052505050565b5f6106e1610651565b90506106ed82826106a7565b919050565b5f67ffffffffffffffff82111561070c5761070b61067a565b5b6107158261066a565b9050602081019050919050565b828183375f83830152505050565b5f61074261073d846106f2565b6106d8565b90508281526020810184848401111561075e5761075d610666565b5b610769848285610722565b509392505050565b5f82601f83011261078557610784610662565b5b8135610795848260208601610730565b91505092915050565b5f819050919050565b6107b08161079e565b81146107ba575f80fd5b50565b5f813590506107cb816107a7565b92915050565b5f805f80608085870312156107e9576107e861065a565b5b5f85013567ffffffffffffffff8111156108065761080561065e565b5b61081287828801610771565b945050602085013567ffffffffffffffff8111156108335761083261065e565b5b61083f87828801610771565b935050604085013567ffffffffffffffff8111156108605761085f61065e565b5b61086c87828801610771565b925050606061087d878288016107bd565b91505092959194509250565b5f6020828403121561089e5761089d61065a565b5b5f82013567ffffffffffffffff8111156108bb576108ba61065e565b5b6108c784828501610771565b91505092915050565b6108d98161079e565b82525050565b5f6020820190506108f25f8301846108d0565b92915050565b5f81519050919050565b5f82825260208201905092915050565b8281835e5f83830152505050565b5f61092a826108f8565b6109348185610902565b9350610944818560208601610912565b61094d8161066a565b840191505092915050565b5f819050919050565b61096a81610958565b82525050565b5f60a0820190508181035f8301526109888188610920565b9050818103602083015261099c8187610920565b905081810360408301526109b08186610920565b90506109bf6060830185610961565b6109cc60808301846108d0565b9695505050505050565b5f81905092915050565b5f6109ea826108f8565b6109f481856109d6565b9350610a04818560208601610912565b80840191505092915050565b5f610a1b82846109e0565b915081905092915050565b7f4e487b71000000000000000000000000000000000000000000000000000000005f52602260045260245ffd5b5f6002820490506001821680610a6a57607f821691505b602082108103610a7d57610a7c610a26565b5b50919050565b7f50726f63657373696e6720616c726561647920757064617465640000000000005f82015250565b5f610ab7601a83610902565b9150610ac282610a83565b602082019050919050565b5f6020820190508181035f830152610ae481610aab565b9050919050565b5f819050815f5260205f209050919050565b5f6020601f8301049050919050565b5f82821b905092915050565b5f60088302610b477fffffffffffffffffffffffffffffffffffffffffffffffffffffffffffffffff82610b0c565b610b518683610b0c565b95508019841693508086168417925050509392505050565b5f819050919050565b5f610b8c610b87610b8284610958565b610b69565b610958565b9050919050565b5f819050919050565b610ba583610b72565b610bb9610bb182610b93565b848454610b18565b825550505050565b5f90565b610bcd610bc1565b610bd8818484610b9c565b505050565b5b81811015610bfb57610bf05f82610bc5565b600181019050610bde565b5050565b601f821115610c4057610c1181610aeb565b610c1a84610afd565b81016020851015610c29578190505b610c3d610c3585610afd565b830182610bdd565b50505b505050565b5f82821c905092915050565b5f610c605f1984600802610c45565b1980831691505092915050565b5f610c788383610c51565b9150826002028217905092915050565b610c91826108f8565b67ffffffffffffffff811115610caa57610ca961067a565b5b610cb48254610a53565b610cbf828285610bff565b5f60209050601f831160018114610cf0575f8415610cde578287015190505b610ce88582610c6d565b865550610d4f565b601f198416610cfe86610aeb565b5f5b82811015610d2557848901518255600182019150602085019450602081019050610d00565b86831015610d425784890151610d3e601f891682610c51565b8355505b6001600288020188555050505b505050505050565b5f819050919050565b610d71610d6c82610958565b610d57565b82525050565b5f819050919050565b610d91610d8c8261079e565b610d77565b82525050565b5f610da282886109e0565b9150610dae82876109e0565b9150610dba82866109e0565b9150610dc68285610d60565b602082019150610dd68284610d80565b6020820191508190509695505050505050565b5f6040820190508181035f830152610e018185610920565b9050610e1060208301846108d0565b939250505056fea26469706673582212204ac092a9d2dfcd86894ed4481f6c79bd176074271e9ca556df8a904bc2879abb64736f6c634300081a0033",
					"opcodes": "PUSH1 0x80 PUSH1 0x40 MSTORE CALLVALUE DUP1 ISZERO PUSH1 0xE JUMPI PUSH0 DUP1 REVERT JUMPDEST POP PUSH2 0xE4D DUP1 PUSH2 0x1C PUSH0 CODECOPY PUSH0 RETURN INVALID PUSH1 0x80 PUSH1 0x40 MSTORE CALLVALUE DUP1 ISZERO PUSH2 0xF JUMPI PUSH0 DUP1 REVERT JUMPDEST POP PUSH1 0x4 CALLDATASIZE LT PUSH2 0x3F JUMPI PUSH0 CALLDATALOAD PUSH1 0xE0 SHR DUP1 PUSH4 0x18E48B22 EQ PUSH2 0x43 JUMPI DUP1 PUSH4 0x53ADAB30 EQ PUSH2 0x5F JUMPI DUP1 PUSH4 0x8351A2B3 EQ PUSH2 0x8F JUMPI JUMPDEST PUSH0 DUP1 REVERT JUMPDEST PUSH2 0x5D PUSH1 0x4 DUP1 CALLDATASIZE SUB DUP2 ADD SWAP1 PUSH2 0x58 SWAP2 SWAP1 PUSH2 0x7D1 JUMP JUMPDEST PUSH2 0xC3 JUMP JUMPDEST STOP JUMPDEST PUSH2 0x79 PUSH1 0x4 DUP1 CALLDATASIZE SUB DUP2 ADD SWAP1 PUSH2 0x74 SWAP2 SWAP1 PUSH2 0x889 JUMP JUMPDEST PUSH2 0x23D JUMP JUMPDEST PUSH1 0x40 MLOAD PUSH2 0x86 SWAP2 SWAP1 PUSH2 0x8DF JUMP JUMPDEST PUSH1 0x40 MLOAD DUP1 SWAP2 SUB SWAP1 RETURN JUMPDEST PUSH2 0xA9 PUSH1 0x4 DUP1 CALLDATASIZE SUB DUP2 ADD SWAP1 PUSH2 0xA4 SWAP2 SWAP1 PUSH2 0x889 JUMP JUMPDEST PUSH2 0x476 JUMP JUMPDEST PUSH1 0x40 MLOAD PUSH2 0xBA SWAP6 SWAP5 SWAP4 SWAP3 SWAP2 SWAP1 PUSH2 0x970 JUMP JUMPDEST PUSH1 0x40 MLOAD DUP1 SWAP2 SUB SWAP1 RETURN JUMPDEST PUSH0 DUP1 DUP6 PUSH1 0x40 MLOAD PUSH2 0xD3 SWAP2 SWAP1 PUSH2 0xA10 JUMP JUMPDEST SWAP1 DUP2 MSTORE PUSH1 0x20 ADD PUSH1 0x40 MLOAD DUP1 SWAP2 SUB SWAP1 KECCAK256 PUSH0 ADD DUP1 SLOAD PUSH2 0xEE SWAP1 PUSH2 0xA53 JUMP JUMPDEST SWAP1 POP EQ PUSH2 0x130 JUMPI PUSH1 0x40 MLOAD PUSH32 0x8C379A000000000000000000000000000000000000000000000000000000000 DUP2 MSTORE PUSH1 0x4 ADD PUSH2 0x127 SWAP1 PUSH2 0xACD JUMP JUMPDEST PUSH1 0x40 MLOAD DUP1 SWAP2 SUB SWAP1 REVERT JUMPDEST PUSH1 0x40 MLOAD DUP1 PUSH1 0xA0 ADD PUSH1 0x40 MSTORE DUP1 DUP6 DUP2 MSTORE PUSH1 0x20 ADD DUP5 DUP2 MSTORE PUSH1 0x20 ADD DUP4 DUP2 MSTORE PUSH1 0x20 ADD TIMESTAMP DUP2 MSTORE PUSH1 0x20 ADD DUP3 DUP2 MSTORE POP PUSH0 DUP6 PUSH1 0x40 MLOAD PUSH2 0x166 SWAP2 SWAP1 PUSH2 0xA10 JUMP JUMPDEST SWAP1 DUP2 MSTORE PUSH1 0x20 ADD PUSH1 0x40 MLOAD DUP1 SWAP2 SUB SWAP1 KECCAK256 PUSH0 DUP3 ADD MLOAD DUP2 PUSH0 ADD SWAP1 DUP2 PUSH2 0x187 SWAP2 SWAP1 PUSH2 0xC88 JUMP JUMPDEST POP PUSH1 0x20 DUP3 ADD MLOAD DUP2 PUSH1 0x1 ADD SWAP1 DUP2 PUSH2 0x19D SWAP2 SWAP1 PUSH2 0xC88 JUMP JUMPDEST POP PUSH1 0x40 DUP3 ADD MLOAD DUP2 PUSH1 0x2 ADD SWAP1 DUP2 PUSH2 0x1B3 SWAP2 SWAP1 PUSH2 0xC88 JUMP JUMPDEST POP PUSH1 0x60 DUP3 ADD MLOAD DUP2 PUSH1 0x3 ADD SSTORE PUSH1 0x80 DUP3 ADD MLOAD DUP2 PUSH1 0x4 ADD SSTORE SWAP1 POP POP PUSH0 DUP5 DUP5 DUP5 TIMESTAMP DUP6 PUSH1 0x40 MLOAD PUSH1 0x20 ADD PUSH2 0x1E5 SWAP6 SWAP5 SWAP4 SWAP3 SWAP2 SWAP1 PUSH2 0xD97 JUMP JUMPDEST PUSH1 0x40 MLOAD PUSH1 0x20 DUP2 DUP4 SUB SUB DUP2 MSTORE SWAP1 PUSH1 0x40 MSTORE DUP1 MLOAD SWAP1 PUSH1 0x20 ADD KECCAK256 SWAP1 POP PUSH32 0xC9945697C655AF0B805A409F564FEE17B5E60728EE2F9A821D3EC31B2AEA6C05 DUP6 DUP3 PUSH1 0x40 MLOAD PUSH2 0x22E SWAP3 SWAP2 SWAP1 PUSH2 0xDE9 JUMP JUMPDEST PUSH1 0x40 MLOAD DUP1 SWAP2 SUB SWAP1 LOG1 POP POP POP POP POP JUMP JUMPDEST PUSH0 DUP1 PUSH0 DUP4 PUSH1 0x40 MLOAD PUSH2 0x24E SWAP2 SWAP1 PUSH2 0xA10 JUMP JUMPDEST SWAP1 DUP2 MSTORE PUSH1 0x20 ADD PUSH1 0x40 MLOAD DUP1 SWAP2 SUB SWAP1 KECCAK256 PUSH1 0x40 MLOAD DUP1 PUSH1 0xA0 ADD PUSH1 0x40 MSTORE SWAP1 DUP2 PUSH0 DUP3 ADD DUP1 SLOAD PUSH2 0x276 SWAP1 PUSH2 0xA53 JUMP JUMPDEST DUP1 PUSH1 0x1F ADD PUSH1 0x20 DUP1 SWAP2 DIV MUL PUSH1 0x20 ADD PUSH1 0x40 MLOAD SWAP1 DUP2 ADD PUSH1 0x40 MSTORE DUP1 SWAP3 SWAP2 SWAP1 DUP2 DUP2 MSTORE PUSH1 0x20 ADD DUP3 DUP1 SLOAD PUSH2 0x2A2 SWAP1 PUSH2 0xA53 JUMP JUMPDEST DUP1 ISZERO PUSH2 0x2ED JUMPI DUP1 PUSH1 0x1F LT PUSH2 0x2C4 JUMPI PUSH2 0x100 DUP1 DUP4 SLOAD DIV MUL DUP4 MSTORE SWAP2 PUSH1 0x20 ADD SWAP2 PUSH2 0x2ED JUMP JUMPDEST DUP3 ADD SWAP2 SWAP1 PUSH0 MSTORE PUSH1 0x20 PUSH0 KECCAK256 SWAP1 JUMPDEST DUP2 SLOAD DUP2 MSTORE SWAP1 PUSH1 0x1 ADD SWAP1 PUSH1 0x20 ADD DUP1 DUP4 GT PUSH2 0x2D0 JUMPI DUP3 SWAP1 SUB PUSH1 0x1F AND DUP3 ADD SWAP2 JUMPDEST POP POP POP POP POP DUP2 MSTORE PUSH1 0x20 ADD PUSH1 0x1 DUP3 ADD DUP1 SLOAD PUSH2 0x306 SWAP1 PUSH2 0xA53 JUMP JUMPDEST DUP1 PUSH1 0x1F ADD PUSH1 0x20 DUP1 SWAP2 DIV MUL PUSH1 0x20 ADD PUSH1 0x40 MLOAD SWAP1 DUP2 ADD PUSH1 0x40 MSTORE DUP1 SWAP3 SWAP2 SWAP1 DUP2 DUP2 MSTORE PUSH1 0x20 ADD DUP3 DUP1 SLOAD PUSH2 0x332 SWAP1 PUSH2 0xA53 JUMP JUMPDEST DUP1 ISZERO PUSH2 0x37D JUMPI DUP1 PUSH1 0x1F LT PUSH2 0x354 JUMPI PUSH2 0x100 DUP1 DUP4 SLOAD DIV MUL DUP4 MSTORE SWAP2 PUSH1 0x20 ADD SWAP2 PUSH2 0x37D JUMP JUMPDEST DUP3 ADD SWAP2 SWAP1 PUSH0 MSTORE PUSH1 0x20 PUSH0 KECCAK256 SWAP1 JUMPDEST DUP2 SLOAD DUP2 MSTORE SWAP1 PUSH1 0x1 ADD SWAP1 PUSH1 0x20 ADD DUP1 DUP4 GT PUSH2 0x360 JUMPI DUP3 SWAP1 SUB PUSH1 0x1F AND DUP3 ADD SWAP2 JUMPDEST POP POP POP POP POP DUP2 MSTORE PUSH1 0x20 ADD PUSH1 0x2 DUP3 ADD DUP1 SLOAD PUSH2 0x396 SWAP1 PUSH2 0xA53 JUMP JUMPDEST DUP1 PUSH1 0x1F ADD PUSH1 0x20 DUP1 SWAP2 DIV MUL PUSH1 0x20 ADD PUSH1 0x40 MLOAD SWAP1 DUP2 ADD PUSH1 0x40 MSTORE DUP1 SWAP3 SWAP2 SWAP1 DUP2 DUP2 MSTORE PUSH1 0x20 ADD DUP3 DUP1 SLOAD PUSH2 0x3C2 SWAP1 PUSH2 0xA53 JUMP JUMPDEST DUP1 ISZERO PUSH2 0x40D JUMPI DUP1 PUSH1 0x1F LT PUSH2 0x3E4 JUMPI PUSH2 0x100 DUP1 DUP4 SLOAD DIV MUL DUP4 MSTORE SWAP2 PUSH1 0x20 ADD SWAP2 PUSH2 0x40D JUMP JUMPDEST DUP3 ADD SWAP2 SWAP1 PUSH0 MSTORE PUSH1 0x20 PUSH0 KECCAK256 SWAP1 JUMPDEST DUP2 SLOAD DUP2 MSTORE SWAP1 PUSH1 0x1 ADD SWAP1 PUSH1 0x20 ADD DUP1 DUP4 GT PUSH2 0x3F0 JUMPI DUP3 SWAP1 SUB PUSH1 0x1F AND DUP3 ADD SWAP2 JUMPDEST POP POP POP POP POP DUP2 MSTORE PUSH1 0x20 ADD PUSH1 0x3 DUP3 ADD SLOAD DUP2 MSTORE PUSH1 0x20 ADD PUSH1 0x4 DUP3 ADD SLOAD DUP2 MSTORE POP POP SWAP1 POP DUP1 PUSH0 ADD MLOAD DUP2 PUSH1 0x20 ADD MLOAD DUP3 PUSH1 0x40 ADD MLOAD DUP4 PUSH1 0x60 ADD MLOAD DUP5 PUSH1 0x80 ADD MLOAD PUSH1 0x40 MLOAD PUSH1 0x20 ADD PUSH2 0x458 SWAP6 SWAP5 SWAP4 SWAP3 SWAP2 SWAP1 PUSH2 0xD97 JUMP JUMPDEST PUSH1 0x40 MLOAD PUSH1 0x20 DUP2 DUP4 SUB SUB DUP2 MSTORE SWAP1 PUSH1 0x40 MSTORE DUP1 MLOAD SWAP1 PUSH1 0x20 ADD KECCAK256 SWAP2 POP POP SWAP2 SWAP1 POP JUMP JUMPDEST PUSH0 DUP2 DUP1 MLOAD PUSH1 0x20 DUP2 ADD DUP3 ADD DUP1 MLOAD DUP5 DUP3 MSTORE PUSH1 0x20 DUP4 ADD PUSH1 0x20 DUP6 ADD KECCAK256 DUP2 DUP4 MSTORE DUP1 SWAP6 POP POP POP POP POP POP PUSH0 SWAP2 POP SWAP1 POP DUP1 PUSH0 ADD DUP1 SLOAD PUSH2 0x4AC SWAP1 PUSH2 0xA53 JUMP JUMPDEST DUP1 PUSH1 0x1F ADD PUSH1 0x20 DUP1 SWAP2 DIV MUL PUSH1 0x20 ADD PUSH1 0x40 MLOAD SWAP1 DUP2 ADD PUSH1 0x40 MSTORE DUP1 SWAP3 SWAP2 SWAP1 DUP2 DUP2 MSTORE PUSH1 0x20 ADD DUP3 DUP1 SLOAD PUSH2 0x4D8 SWAP1 PUSH2 0xA53 JUMP JUMPDEST DUP1 ISZERO PUSH2 0x523 JUMPI DUP1 PUSH1 0x1F LT PUSH2 0x4FA JUMPI PUSH2 0x100 DUP1 DUP4 SLOAD DIV MUL DUP4 MSTORE SWAP2 PUSH1 0x20 ADD SWAP2 PUSH2 0x523 JUMP JUMPDEST DUP3 ADD SWAP2 SWAP1 PUSH0 MSTORE PUSH1 0x20 PUSH0 KECCAK256 SWAP1 JUMPDEST DUP2 SLOAD DUP2 MSTORE SWAP1 PUSH1 0x1 ADD SWAP1 PUSH1 0x20 ADD DUP1 DUP4 GT PUSH2 0x506 JUMPI DUP3 SWAP1 SUB PUSH1 0x1F AND DUP3 ADD SWAP2 JUMPDEST POP POP POP POP POP SWAP1 DUP1 PUSH1 0x1 ADD DUP1 SLOAD PUSH2 0x538 SWAP1 PUSH2 0xA53 JUMP JUMPDEST DUP1 PUSH1 0x1F ADD PUSH1 0x20 DUP1 SWAP2 DIV MUL PUSH1 0x20 ADD PUSH1 0x40 MLOAD SWAP1 DUP2 ADD PUSH1 0x40 MSTORE DUP1 SWAP3 SWAP2 SWAP1 DUP2 DUP2 MSTORE PUSH1 0x20 ADD DUP3 DUP1 SLOAD PUSH2 0x564 SWAP1 PUSH2 0xA53 JUMP JUMPDEST DUP1 ISZERO PUSH2 0x5AF JUMPI DUP1 PUSH1 0x1F LT PUSH2 0x586 JUMPI PUSH2 0x100 DUP1 DUP4 SLOAD DIV MUL DUP4 MSTORE SWAP2 PUSH1 0x20 ADD SWAP2 PUSH2 0x5AF JUMP JUMPDEST DUP3 ADD SWAP2 SWAP1 PUSH0 MSTORE PUSH1 0x20 PUSH0 KECCAK256 SWAP1 JUMPDEST DUP2 SLOAD DUP2 MSTORE SWAP1 PUSH1 0x1 ADD SWAP1 PUSH1 0x20 ADD DUP1 DUP4 GT PUSH2 0x592 JUMPI DUP3 SWAP1 SUB PUSH1 0x1F AND DUP3 ADD SWAP2 JUMPDEST POP POP POP POP POP SWAP1 DUP1 PUSH1 0x2 ADD DUP1 SLOAD PUSH2 0x5C4 SWAP1 PUSH2 0xA53 JUMP JUMPDEST DUP1 PUSH1 0x1F ADD PUSH1 0x20 DUP1 SWAP2 DIV MUL PUSH1 0x20 ADD PUSH1 0x40 MLOAD SWAP1 DUP2 ADD PUSH1 0x40 MSTORE DUP1 SWAP3 SWAP2 SWAP1 DUP2 DUP2 MSTORE PUSH1 0x20 ADD DUP3 DUP1 SLOAD PUSH2 0x5F0 SWAP1 PUSH2 0xA53 JUMP JUMPDEST DUP1 ISZERO PUSH2 0x63B JUMPI DUP1 PUSH1 0x1F LT PUSH2 0x612 JUMPI PUSH2 0x100 DUP1 DUP4 SLOAD DIV MUL DUP4 MSTORE SWAP2 PUSH1 0x20 ADD SWAP2 PUSH2 0x63B JUMP JUMPDEST DUP3 ADD SWAP2 SWAP1 PUSH0 MSTORE PUSH1 0x20 PUSH0 KECCAK256 SWAP1 JUMPDEST DUP2 SLOAD DUP2 MSTORE SWAP1 PUSH1 0x1 ADD SWAP1 PUSH1 0x20 ADD DUP1 DUP4 GT PUSH2 0x61E JUMPI DUP3 SWAP1 SUB PUSH1 0x1F AND DUP3 ADD SWAP2 JUMPDEST POP POP POP POP POP SWAP1 DUP1 PUSH1 0x3 ADD SLOAD SWAP1 DUP1 PUSH1 0x4 ADD SLOAD SWAP1 POP DUP6 JUMP JUMPDEST PUSH0 PUSH1 0x40 MLOAD SWAP1 POP SWAP1 JUMP JUMPDEST PUSH0 DUP1 REVERT JUMPDEST PUSH0 DUP1 REVERT JUMPDEST PUSH0 DUP1 REVERT JUMPDEST PUSH0 DUP1 REVERT JUMPDEST PUSH0 PUSH1 0x1F NOT PUSH1 0x1F DUP4 ADD AND SWAP1 POP SWAP2 SWAP1 POP JUMP JUMPDEST PUSH32 0x4E487B7100000000000000000000000000000000000000000000000000000000 PUSH0 MSTORE PUSH1 0x41 PUSH1 0x4 MSTORE PUSH1 0x24 PUSH0 REVERT JUMPDEST PUSH2 0x6B0 DUP3 PUSH2 0x66A JUMP JUMPDEST DUP2 ADD DUP2 DUP2 LT PUSH8 0xFFFFFFFFFFFFFFFF DUP3 GT OR ISZERO PUSH2 0x6CF JUMPI PUSH2 0x6CE PUSH2 0x67A JUMP JUMPDEST JUMPDEST DUP1 PUSH1 0x40 MSTORE POP POP POP JUMP JUMPDEST PUSH0 PUSH2 0x6E1 PUSH2 0x651 JUMP JUMPDEST SWAP1 POP PUSH2 0x6ED DUP3 DUP3 PUSH2 0x6A7 JUMP JUMPDEST SWAP2 SWAP1 POP JUMP JUMPDEST PUSH0 PUSH8 0xFFFFFFFFFFFFFFFF DUP3 GT ISZERO PUSH2 0x70C JUMPI PUSH2 0x70B PUSH2 0x67A JUMP JUMPDEST JUMPDEST PUSH2 0x715 DUP3 PUSH2 0x66A JUMP JUMPDEST SWAP1 POP PUSH1 0x20 DUP2 ADD SWAP1 POP SWAP2 SWAP1 POP JUMP JUMPDEST DUP3 DUP2 DUP4 CALLDATACOPY PUSH0 DUP4 DUP4 ADD MSTORE POP POP POP JUMP JUMPDEST PUSH0 PUSH2 0x742 PUSH2 0x73D DUP5 PUSH2 0x6F2 JUMP JUMPDEST PUSH2 0x6D8 JUMP JUMPDEST SWAP1 POP DUP3 DUP2 MSTORE PUSH1 0x20 DUP2 ADD DUP5 DUP5 DUP5 ADD GT ISZERO PUSH2 0x75E JUMPI PUSH2 0x75D PUSH2 0x666 JUMP JUMPDEST JUMPDEST PUSH2 0x769 DUP5 DUP3 DUP6 PUSH2 0x722 JUMP JUMPDEST POP SWAP4 SWAP3 POP POP POP JUMP JUMPDEST PUSH0 DUP3 PUSH1 0x1F DUP4 ADD SLT PUSH2 0x785 JUMPI PUSH2 0x784 PUSH2 0x662 JUMP JUMPDEST JUMPDEST DUP2 CALLDATALOAD PUSH2 0x795 DUP5 DUP3 PUSH1 0x20 DUP7 ADD PUSH2 0x730 JUMP JUMPDEST SWAP2 POP POP SWAP3 SWAP2 POP POP JUMP JUMPDEST PUSH0 DUP2 SWAP1 POP SWAP2 SWAP1 POP JUMP JUMPDEST PUSH2 0x7B0 DUP2 PUSH2 0x79E JUMP JUMPDEST DUP2 EQ PUSH2 0x7BA JUMPI PUSH0 DUP1 REVERT JUMPDEST POP JUMP JUMPDEST PUSH0 DUP2 CALLDATALOAD SWAP1 POP PUSH2 0x7CB DUP2 PUSH2 0x7A7 JUMP JUMPDEST SWAP3 SWAP2 POP POP JUMP JUMPDEST PUSH0 DUP1 PUSH0 DUP1 PUSH1 0x80 DUP6 DUP8 SUB SLT ISZERO PUSH2 0x7E9 JUMPI PUSH2 0x7E8 PUSH2 0x65A JUMP JUMPDEST JUMPDEST PUSH0 DUP6 ADD CALLDATALOAD PUSH8 0xFFFFFFFFFFFFFFFF DUP2 GT ISZERO PUSH2 0x806 JUMPI PUSH2 0x805 PUSH2 0x65E JUMP JUMPDEST JUMPDEST PUSH2 0x812 DUP8 DUP3 DUP9 ADD PUSH2 0x771 JUMP JUMPDEST SWAP5 POP POP PUSH1 0x20 DUP6 ADD CALLDATALOAD PUSH8 0xFFFFFFFFFFFFFFFF DUP2 GT ISZERO PUSH2 0x833 JUMPI PUSH2 0x832 PUSH2 0x65E JUMP JUMPDEST JUMPDEST PUSH2 0x83F DUP8 DUP3 DUP9 ADD PUSH2 0x771 JUMP JUMPDEST SWAP4 POP POP PUSH1 0x40 DUP6 ADD CALLDATALOAD PUSH8 0xFFFFFFFFFFFFFFFF DUP2 GT ISZERO PUSH2 0x860 JUMPI PUSH2 0x85F PUSH2 0x65E JUMP JUMPDEST JUMPDEST PUSH2 0x86C DUP8 DUP3 DUP9 ADD PUSH2 0x771 JUMP JUMPDEST SWAP3 POP POP PUSH1 0x60 PUSH2 0x87D DUP8 DUP3 DUP9 ADD PUSH2 0x7BD JUMP JUMPDEST SWAP2 POP POP SWAP3 SWAP6 SWAP2 SWAP5 POP SWAP3 POP JUMP JUMPDEST PUSH0 PUSH1 0x20 DUP3 DUP5 SUB SLT ISZERO PUSH2 0x89E JUMPI PUSH2 0x89D PUSH2 0x65A JUMP JUMPDEST JUMPDEST PUSH0 DUP3 ADD CALLDATALOAD PUSH8 0xFFFFFFFFFFFFFFFF DUP2 GT ISZERO PUSH2 0x8BB JUMPI PUSH2 0x8BA PUSH2 0x65E JUMP JUMPDEST JUMPDEST PUSH2 0x8C7 DUP5 DUP3 DUP6 ADD PUSH2 0x771 JUMP JUMPDEST SWAP2 POP POP SWAP3 SWAP2 POP POP JUMP JUMPDEST PUSH2 0x8D9 DUP2 PUSH2 0x79E JUMP JUMPDEST DUP3 MSTORE POP POP JUMP JUMPDEST PUSH0 PUSH1 0x20 DUP3 ADD SWAP1 POP PUSH2 0x8F2 PUSH0 DUP4 ADD DUP5 PUSH2 0x8D0 JUMP JUMPDEST SWAP3 SWAP2 POP POP JUMP JUMPDEST PUSH0 DUP2 MLOAD SWAP1 POP SWAP2 SWAP1 POP JUMP JUMPDEST PUSH0 DUP3 DUP3 MSTORE PUSH1 0x20 DUP3 ADD SWAP1 POP SWAP3 SWAP2 POP POP JUMP JUMPDEST DUP3 DUP2 DUP4 MCOPY PUSH0 DUP4 DUP4 ADD MSTORE POP POP POP JUMP JUMPDEST PUSH0 PUSH2 0x92A DUP3 PUSH2 0x8F8 JUMP JUMPDEST PUSH2 0x934 DUP2 DUP6 PUSH2 0x902 JUMP JUMPDEST SWAP4 POP PUSH2 0x944 DUP2 DUP6 PUSH1 0x20 DUP7 ADD PUSH2 0x912 JUMP JUMPDEST PUSH2 0x94D DUP2 PUSH2 0x66A JUMP JUMPDEST DUP5 ADD SWAP2 POP POP SWAP3 SWAP2 POP POP JUMP JUMPDEST PUSH0 DUP2 SWAP1 POP SWAP2 SWAP1 POP JUMP JUMPDEST PUSH2 0x96A DUP2 PUSH2 0x958 JUMP JUMPDEST DUP3 MSTORE POP POP JUMP JUMPDEST PUSH0 PUSH1 0xA0 DUP3 ADD SWAP1 POP DUP2 DUP2 SUB PUSH0 DUP4 ADD MSTORE PUSH2 0x988 DUP2 DUP9 PUSH2 0x920 JUMP JUMPDEST SWAP1 POP DUP2 DUP2 SUB PUSH1 0x20 DUP4 ADD MSTORE PUSH2 0x99C DUP2 DUP8 PUSH2 0x920 JUMP JUMPDEST SWAP1 POP DUP2 DUP2 SUB PUSH1 0x40 DUP4 ADD MSTORE PUSH2 0x9B0 DUP2 DUP7 PUSH2 0x920 JUMP JUMPDEST SWAP1 POP PUSH2 0x9BF PUSH1 0x60 DUP4 ADD DUP6 PUSH2 0x961 JUMP JUMPDEST PUSH2 0x9CC PUSH1 0x80 DUP4 ADD DUP5 PUSH2 0x8D0 JUMP JUMPDEST SWAP7 SWAP6 POP POP POP POP POP POP JUMP JUMPDEST PUSH0 DUP2 SWAP1 POP SWAP3 SWAP2 POP POP JUMP JUMPDEST PUSH0 PUSH2 0x9EA DUP3 PUSH2 0x8F8 JUMP JUMPDEST PUSH2 0x9F4 DUP2 DUP6 PUSH2 0x9D6 JUMP JUMPDEST SWAP4 POP PUSH2 0xA04 DUP2 DUP6 PUSH1 0x20 DUP7 ADD PUSH2 0x912 JUMP JUMPDEST DUP1 DUP5 ADD SWAP2 POP POP SWAP3 SWAP2 POP POP JUMP JUMPDEST PUSH0 PUSH2 0xA1B DUP3 DUP5 PUSH2 0x9E0 JUMP JUMPDEST SWAP2 POP DUP2 SWAP1 POP SWAP3 SWAP2 POP POP JUMP JUMPDEST PUSH32 0x4E487B7100000000000000000000000000000000000000000000000000000000 PUSH0 MSTORE PUSH1 0x22 PUSH1 0x4 MSTORE PUSH1 0x24 PUSH0 REVERT JUMPDEST PUSH0 PUSH1 0x2 DUP3 DIV SWAP1 POP PUSH1 0x1 DUP3 AND DUP1 PUSH2 0xA6A JUMPI PUSH1 0x7F DUP3 AND SWAP2 POP JUMPDEST PUSH1 0x20 DUP3 LT DUP2 SUB PUSH2 0xA7D JUMPI PUSH2 0xA7C PUSH2 0xA26 JUMP JUMPDEST JUMPDEST POP SWAP2 SWAP1 POP JUMP JUMPDEST PUSH32 0x50726F63657373696E6720616C72656164792075706461746564000000000000 PUSH0 DUP3 ADD MSTORE POP JUMP JUMPDEST PUSH0 PUSH2 0xAB7 PUSH1 0x1A DUP4 PUSH2 0x902 JUMP JUMPDEST SWAP2 POP PUSH2 0xAC2 DUP3 PUSH2 0xA83 JUMP JUMPDEST PUSH1 0x20 DUP3 ADD SWAP1 POP SWAP2 SWAP1 POP JUMP JUMPDEST PUSH0 PUSH1 0x20 DUP3 ADD SWAP1 POP DUP2 DUP2 SUB PUSH0 DUP4 ADD MSTORE PUSH2 0xAE4 DUP2 PUSH2 0xAAB JUMP JUMPDEST SWAP1 POP SWAP2 SWAP1 POP JUMP JUMPDEST PUSH0 DUP2 SWAP1 POP DUP2 PUSH0 MSTORE PUSH1 0x20 PUSH0 KECCAK256 SWAP1 POP SWAP2 SWAP1 POP JUMP JUMPDEST PUSH0 PUSH1 0x20 PUSH1 0x1F DUP4 ADD DIV SWAP1 POP SWAP2 SWAP1 POP JUMP JUMPDEST PUSH0 DUP3 DUP3 SHL SWAP1 POP SWAP3 SWAP2 POP POP JUMP JUMPDEST PUSH0 PUSH1 0x8 DUP4 MUL PUSH2 0xB47 PUSH32 0xFFFFFFFFFFFFFFFFFFFFFFFFFFFFFFFFFFFFFFFFFFFFFFFFFFFFFFFFFFFFFFFF DUP3 PUSH2 0xB0C JUMP JUMPDEST PUSH2 0xB51 DUP7 DUP4 PUSH2 0xB0C JUMP JUMPDEST SWAP6 POP DUP1 NOT DUP5 AND SWAP4 POP DUP1 DUP7 AND DUP5 OR SWAP3 POP POP POP SWAP4 SWAP3 POP POP POP JUMP JUMPDEST PUSH0 DUP2 SWAP1 POP SWAP2 SWAP1 POP JUMP JUMPDEST PUSH0 PUSH2 0xB8C PUSH2 0xB87 PUSH2 0xB82 DUP5 PUSH2 0x958 JUMP JUMPDEST PUSH2 0xB69 JUMP JUMPDEST PUSH2 0x958 JUMP JUMPDEST SWAP1 POP SWAP2 SWAP1 POP JUMP JUMPDEST PUSH0 DUP2 SWAP1 POP SWAP2 SWAP1 POP JUMP JUMPDEST PUSH2 0xBA5 DUP4 PUSH2 0xB72 JUMP JUMPDEST PUSH2 0xBB9 PUSH2 0xBB1 DUP3 PUSH2 0xB93 JUMP JUMPDEST DUP5 DUP5 SLOAD PUSH2 0xB18 JUMP JUMPDEST DUP3 SSTORE POP POP POP POP JUMP JUMPDEST PUSH0 SWAP1 JUMP JUMPDEST PUSH2 0xBCD PUSH2 0xBC1 JUMP JUMPDEST PUSH2 0xBD8 DUP2 DUP5 DUP5 PUSH2 0xB9C JUMP JUMPDEST POP POP POP JUMP JUMPDEST JUMPDEST DUP2 DUP2 LT ISZERO PUSH2 0xBFB JUMPI PUSH2 0xBF0 PUSH0 DUP3 PUSH2 0xBC5 JUMP JUMPDEST PUSH1 0x1 DUP2 ADD SWAP1 POP PUSH2 0xBDE JUMP JUMPDEST POP POP JUMP JUMPDEST PUSH1 0x1F DUP3 GT ISZERO PUSH2 0xC40 JUMPI PUSH2 0xC11 DUP2 PUSH2 0xAEB JUMP JUMPDEST PUSH2 0xC1A DUP5 PUSH2 0xAFD JUMP JUMPDEST DUP2 ADD PUSH1 0x20 DUP6 LT ISZERO PUSH2 0xC29 JUMPI DUP2 SWAP1 POP JUMPDEST PUSH2 0xC3D PUSH2 0xC35 DUP6 PUSH2 0xAFD JUMP JUMPDEST DUP4 ADD DUP3 PUSH2 0xBDD JUMP JUMPDEST POP POP JUMPDEST POP POP POP JUMP JUMPDEST PUSH0 DUP3 DUP3 SHR SWAP1 POP SWAP3 SWAP2 POP POP JUMP JUMPDEST PUSH0 PUSH2 0xC60 PUSH0 NOT DUP5 PUSH1 0x8 MUL PUSH2 0xC45 JUMP JUMPDEST NOT DUP1 DUP4 AND SWAP2 POP POP SWAP3 SWAP2 POP POP JUMP JUMPDEST PUSH0 PUSH2 0xC78 DUP4 DUP4 PUSH2 0xC51 JUMP JUMPDEST SWAP2 POP DUP3 PUSH1 0x2 MUL DUP3 OR SWAP1 POP SWAP3 SWAP2 POP POP JUMP JUMPDEST PUSH2 0xC91 DUP3 PUSH2 0x8F8 JUMP JUMPDEST PUSH8 0xFFFFFFFFFFFFFFFF DUP2 GT ISZERO PUSH2 0xCAA JUMPI PUSH2 0xCA9 PUSH2 0x67A JUMP JUMPDEST JUMPDEST PUSH2 0xCB4 DUP3 SLOAD PUSH2 0xA53 JUMP JUMPDEST PUSH2 0xCBF DUP3 DUP3 DUP6 PUSH2 0xBFF JUMP JUMPDEST PUSH0 PUSH1 0x20 SWAP1 POP PUSH1 0x1F DUP4 GT PUSH1 0x1 DUP2 EQ PUSH2 0xCF0 JUMPI PUSH0 DUP5 ISZERO PUSH2 0xCDE JUMPI DUP3 DUP8 ADD MLOAD SWAP1 POP JUMPDEST PUSH2 0xCE8 DUP6 DUP3 PUSH2 0xC6D JUMP JUMPDEST DUP7 SSTORE POP PUSH2 0xD4F JUMP JUMPDEST PUSH1 0x1F NOT DUP5 AND PUSH2 0xCFE DUP7 PUSH2 0xAEB JUMP JUMPDEST PUSH0 JUMPDEST DUP3 DUP2 LT ISZERO PUSH2 0xD25 JUMPI DUP5 DUP10 ADD MLOAD DUP3 SSTORE PUSH1 0x1 DUP3 ADD SWAP2 POP PUSH1 0x20 DUP6 ADD SWAP5 POP PUSH1 0x20 DUP2 ADD SWAP1 POP PUSH2 0xD00 JUMP JUMPDEST DUP7 DUP4 LT ISZERO PUSH2 0xD42 JUMPI DUP5 DUP10 ADD MLOAD PUSH2 0xD3E PUSH1 0x1F DUP10 AND DUP3 PUSH2 0xC51 JUMP JUMPDEST DUP4 SSTORE POP JUMPDEST PUSH1 0x1 PUSH1 0x2 DUP9 MUL ADD DUP9 SSTORE POP POP POP JUMPDEST POP POP POP POP POP POP JUMP JUMPDEST PUSH0 DUP2 SWAP1 POP SWAP2 SWAP1 POP JUMP JUMPDEST PUSH2 0xD71 PUSH2 0xD6C DUP3 PUSH2 0x958 JUMP JUMPDEST PUSH2 0xD57 JUMP JUMPDEST DUP3 MSTORE POP POP JUMP JUMPDEST PUSH0 DUP2 SWAP1 POP SWAP2 SWAP1 POP JUMP JUMPDEST PUSH2 0xD91 PUSH2 0xD8C DUP3 PUSH2 0x79E JUMP JUMPDEST PUSH2 0xD77 JUMP JUMPDEST DUP3 MSTORE POP POP JUMP JUMPDEST PUSH0 PUSH2 0xDA2 DUP3 DUP9 PUSH2 0x9E0 JUMP JUMPDEST SWAP2 POP PUSH2 0xDAE DUP3 DUP8 PUSH2 0x9E0 JUMP JUMPDEST SWAP2 POP PUSH2 0xDBA DUP3 DUP7 PUSH2 0x9E0 JUMP JUMPDEST SWAP2 POP PUSH2 0xDC6 DUP3 DUP6 PUSH2 0xD60 JUMP JUMPDEST PUSH1 0x20 DUP3 ADD SWAP2 POP PUSH2 0xDD6 DUP3 DUP5 PUSH2 0xD80 JUMP JUMPDEST PUSH1 0x20 DUP3 ADD SWAP2 POP DUP2 SWAP1 POP SWAP7 SWAP6 POP POP POP POP POP POP JUMP JUMPDEST PUSH0 PUSH1 0x40 DUP3 ADD SWAP1 POP DUP2 DUP2 SUB PUSH0 DUP4 ADD MSTORE PUSH2 0xE01 DUP2 DUP6 PUSH2 0x920 JUMP JUMPDEST SWAP1 POP PUSH2 0xE10 PUSH1 0x20 DUP4 ADD DUP5 PUSH2 0x8D0 JUMP JUMPDEST SWAP4 SWAP3 POP POP POP JUMP INVALID LOG2 PUSH5 0x6970667358 0x22 SLT KECCAK256 BLOBBASEFEE 0xC0 SWAP3 0xA9 0xD2 0xDF 0xCD DUP7 DUP10 0x4E 0xD4 BASEFEE 0x1F PUSH13 0x79BD176074271E9CA556DF8A90 0x4B 0xC2 DUP8 SWAP11 0xBB PUSH5 0x736F6C6343 STOP ADDMOD BYTE STOP CALLER "
				},
				"gasEstimates": {
					"creation": {
						"codeDepositCost": "732200",
						"executionCost": "764",
						"totalCost": "732964"
					},
					"external": {
						"getProcessingHash(string)": "infinite",
						"processData(string)": "infinite",
						"updateProcessing(string,string,string,bytes32)": "infinite"
					}
				},
				"methodIdentifiers": {
					"getProcessingHash(string)": "53adab30",
					"processData(string)": "8351a2b3",
					"updateProcessing(string,string,string,bytes32)": "18e48b22"
				}
			},
			"storageLayout": {
				"storage": [
					{
						"astId": 17,
						"contract": "Procesamiento.sol:Procesamiento",
						"label": "processData",
						"offset": 0,
						"slot": "0",
						"type": "t_mapping(t_string_memory_ptr,t_struct(ProcessingData)12_storage)"
					}
				],
				"types": {
					"t_bytes32": {
						"encoding": "inplace",
						"label": "bytes32",
						"numberOfBytes": "32"
					},
					"t_mapping(t_string_memory_ptr,t_struct(ProcessingData)12_storage)": {
						"encoding": "mapping",
						"key": "t_string_memory_ptr",
						"label": "mapping(string => struct Procesamiento.ProcessingData)",
						"numberOfBytes": "32",
						"value": "t_struct(ProcessingData)12_storage"
					},
					"t_string_memory_ptr": {
						"encoding": "bytes",
						"label": "string",
						"numberOfBytes": "32"
					},
					"t_string_storage": {
						"encoding": "bytes",
						"label": "string",
						"numberOfBytes": "32"
					},
					"t_struct(ProcessingData)12_storage": {
						"encoding": "inplace",
						"label": "struct Procesamiento.ProcessingData",
						"members": [
							{
								"astId": 3,
								"contract": "Procesamiento.sol:Procesamiento",
								"label": "batchId",
								"offset": 0,
								"slot": "0",
								"type": "t_string_storage"
							},
							{
								"astId": 5,
								"contract": "Procesamiento.sol:Procesamiento",
								"label": "processingDetails",
								"offset": 0,
								"slot": "1",
								"type": "t_string_storage"
							},
							{
								"astId": 7,
								"contract": "Procesamiento.sol:Procesamiento",
								"label": "certifications",
								"offset": 0,
								"slot": "2",
								"type": "t_string_storage"
							},
							{
								"astId": 9,
								"contract": "Procesamiento.sol:Procesamiento",
								"label": "timestamp",
								"offset": 0,
								"slot": "3",
								"type": "t_uint256"
							},
							{
								"astId": 11,
								"contract": "Procesamiento.sol:Procesamiento",
								"label": "previousStageHash",
								"offset": 0,
								"slot": "4",
								"type": "t_bytes32"
							}
						],
						"numberOfBytes": "160"
					},
					"t_uint256": {
						"encoding": "inplace",
						"label": "uint256",
						"numberOfBytes": "32"
					}
				}
			},
			"userdoc": {
				"kind": "user",
				"methods": {},
				"version": 1
			}
		}
	}
}