{
	"3-Consolidacion.sol": {
		"Consolidacion": {
			"abi": [
				{
					"inputs": [
						{
							"internalType": "address",
							"name": "_procesamientoAddress",
							"type": "address"
						}
					],
					"stateMutability": "nonpayable",
					"type": "constructor"
				},
				{
					"anonymous": false,
					"inputs": [
						{
							"indexed": false,
							"internalType": "string",
							"name": "batchId",
							"type": "string"
						},
						{
							"indexed": false,
							"internalType": "bytes32",
							"name": "consolidationHash",
							"type": "bytes32"
						}
					],
					"name": "BatchConsolidated",
					"type": "event"
				},
				{
					"inputs": [
						{
							"internalType": "uint256",
							"name": "",
							"type": "uint256"
						}
					],
					"name": "allConsolidatedBatchIds",
					"outputs": [
						{
							"internalType": "string",
							"name": "",
							"type": "string"
						}
					],
					"stateMutability": "view",
					"type": "function"
				},
				{
					"inputs": [
						{
							"internalType": "string",
							"name": "_batchId",
							"type": "string"
						},
						{
							"internalType": "uint256",
							"name": "_totalKG",
							"type": "uint256"
						},
						{
							"internalType": "string",
							"name": "_exportDocs",
							"type": "string"
						}
					],
					"name": "consolidateBatch",
					"outputs": [],
					"stateMutability": "nonpayable",
					"type": "function"
				},
				{
					"inputs": [
						{
							"internalType": "string",
							"name": "",
							"type": "string"
						}
					],
					"name": "consolidationData",
					"outputs": [
						{
							"internalType": "string",
							"name": "batchId",
							"type": "string"
						},
						{
							"internalType": "uint256",
							"name": "totalKG",
							"type": "uint256"
						},
						{
							"internalType": "string",
							"name": "exportDocs",
							"type": "string"
						},
						{
							"internalType": "uint256",
							"name": "timestamp",
							"type": "uint256"
						},
						{
							"internalType": "bytes32",
							"name": "previousStageHash",
							"type": "bytes32"
						}
					],
					"stateMutability": "view",
					"type": "function"
				},
				{
					"inputs": [],
					"name": "getAllConsolidatedBatchIds",
					"outputs": [
						{
							"internalType": "string[]",
							"name": "",
							"type": "string[]"
						}
					],
					"stateMutability": "view",
					"type": "function"
				},
				{
					"inputs": [
						{
							"internalType": "string",
							"name": "_batchId",
							"type": "string"
						}
					],
					"name": "getConsolidationHash",
					"outputs": [
						{
							"internalType": "bytes32",
							"name": "",
							"type": "bytes32"
						}
					],
					"stateMutability": "view",
					"type": "function"
				},
				{
					"inputs": [
						{
							"internalType": "string",
							"name": "_batchId",
							"type": "string"
						}
					],
					"name": "getConsolidationInfo",
					"outputs": [
						{
							"internalType": "uint256",
							"name": "totalKG",
							"type": "uint256"
						},
						{
							"internalType": "string",
							"name": "exportDocs",
							"type": "string"
						},
						{
							"internalType": "uint256",
							"name": "timestamp",
							"type": "uint256"
						},
						{
							"internalType": "bytes32",
							"name": "previousStageHash",
							"type": "bytes32"
						}
					],
					"stateMutability": "view",
					"type": "function"
				},
				{
					"inputs": [],
					"name": "getTotalConsolidatedBatches",
					"outputs": [
						{
							"internalType": "uint256",
							"name": "",
							"type": "uint256"
						}
					],
					"stateMutability": "view",
					"type": "function"
				},
				{
					"inputs": [],
					"name": "procesamientoAddress",
					"outputs": [
						{
							"internalType": "address",
							"name": "",
							"type": "address"
						}
					],
					"stateMutability": "view",
					"type": "function"
				}
			],
			"devdoc": {
				"kind": "dev",
				"methods": {},
				"version": 1
			},
			"evm": {
				"assembly": "    /* \"3-Consolidacion.sol\":86:2807  contract Consolidacion {... */\n  mstore(0x40, 0x80)\n    /* \"3-Consolidacion.sol\":569:736  constructor(address _procesamientoAddress) {... */\n  callvalue\n  dup1\n  iszero\n  tag_1\n  jumpi\n  0x00\n  dup1\n  revert\ntag_1:\n  pop\n  mload(0x40)\n  sub(codesize, bytecodeSize)\n  dup1\n  bytecodeSize\n  dup4\n  codecopy\n  dup2\n  dup2\n  add\n  0x40\n  mstore\n  dup2\n  add\n  swap1\n  tag_2\n  swap2\n  swap1\n  tag_3\n  jump\t// in\ntag_2:\n    /* \"3-Consolidacion.sol\":645:666  _procesamientoAddress */\n  dup1\n    /* \"3-Consolidacion.sol\":622:642  procesamientoAddress */\n  0x02\n  0x00\n    /* \"3-Consolidacion.sol\":622:666  procesamientoAddress = _procesamientoAddress */\n  0x0100\n  exp\n  dup2\n  sload\n  dup2\n  0xffffffffffffffffffffffffffffffffffffffff\n  mul\n  not\n  and\n  swap1\n  dup4\n  0xffffffffffffffffffffffffffffffffffffffff\n  and\n  mul\n  or\n  swap1\n  sstore\n  pop\n    /* \"3-Consolidacion.sol\":707:728  _procesamientoAddress */\n  dup1\n    /* \"3-Consolidacion.sol\":676:689  procesamiento */\n  0x03\n  0x00\n    /* \"3-Consolidacion.sol\":676:729  procesamiento = IProcesamiento(_procesamientoAddress) */\n  0x0100\n  exp\n  dup2\n  sload\n  dup2\n  0xffffffffffffffffffffffffffffffffffffffff\n  mul\n  not\n  and\n  swap1\n  dup4\n  0xffffffffffffffffffffffffffffffffffffffff\n  and\n  mul\n  or\n  swap1\n  sstore\n  pop\n    /* \"3-Consolidacion.sol\":569:736  constructor(address _procesamientoAddress) {... */\n  pop\n    /* \"3-Consolidacion.sol\":86:2807  contract Consolidacion {... */\n  jump(tag_6)\n    /* \"#utility.yul\":88:205   */\ntag_8:\n    /* \"#utility.yul\":197:198   */\n  0x00\n    /* \"#utility.yul\":194:195   */\n  dup1\n    /* \"#utility.yul\":187:199   */\n  revert\n    /* \"#utility.yul\":334:460   */\ntag_10:\n    /* \"#utility.yul\":371:378   */\n  0x00\n    /* \"#utility.yul\":411:453   */\n  0xffffffffffffffffffffffffffffffffffffffff\n    /* \"#utility.yul\":404:409   */\n  dup3\n    /* \"#utility.yul\":400:454   */\n  and\n    /* \"#utility.yul\":389:454   */\n  swap1\n  pop\n    /* \"#utility.yul\":334:460   */\n  swap2\n  swap1\n  pop\n  jump\t// out\n    /* \"#utility.yul\":466:562   */\ntag_11:\n    /* \"#utility.yul\":503:510   */\n  0x00\n    /* \"#utility.yul\":532:556   */\n  tag_20\n    /* \"#utility.yul\":550:555   */\n  dup3\n    /* \"#utility.yul\":532:556   */\n  tag_10\n  jump\t// in\ntag_20:\n    /* \"#utility.yul\":521:556   */\n  swap1\n  pop\n    /* \"#utility.yul\":466:562   */\n  swap2\n  swap1\n  pop\n  jump\t// out\n    /* \"#utility.yul\":568:690   */\ntag_12:\n    /* \"#utility.yul\":641:665   */\n  tag_22\n    /* \"#utility.yul\":659:664   */\n  dup2\n    /* \"#utility.yul\":641:665   */\n  tag_11\n  jump\t// in\ntag_22:\n    /* \"#utility.yul\":634:639   */\n  dup2\n    /* \"#utility.yul\":631:666   */\n  eq\n    /* \"#utility.yul\":621:684   */\n  tag_23\n  jumpi\n    /* \"#utility.yul\":680:681   */\n  0x00\n    /* \"#utility.yul\":677:678   */\n  dup1\n    /* \"#utility.yul\":670:682   */\n  revert\n    /* \"#utility.yul\":621:684   */\ntag_23:\n    /* \"#utility.yul\":568:690   */\n  pop\n  jump\t// out\n    /* \"#utility.yul\":696:839   */\ntag_13:\n    /* \"#utility.yul\":753:758   */\n  0x00\n    /* \"#utility.yul\":784:790   */\n  dup2\n    /* \"#utility.yul\":778:791   */\n  mload\n    /* \"#utility.yul\":769:791   */\n  swap1\n  pop\n    /* \"#utility.yul\":800:833   */\n  tag_25\n    /* \"#utility.yul\":827:832   */\n  dup2\n    /* \"#utility.yul\":800:833   */\n  tag_12\n  jump\t// in\ntag_25:\n    /* \"#utility.yul\":696:839   */\n  swap3\n  swap2\n  pop\n  pop\n  jump\t// out\n    /* \"#utility.yul\":845:1196   */\ntag_3:\n    /* \"#utility.yul\":915:921   */\n  0x00\n    /* \"#utility.yul\":964:966   */\n  0x20\n    /* \"#utility.yul\":952:961   */\n  dup3\n    /* \"#utility.yul\":943:950   */\n  dup5\n    /* \"#utility.yul\":939:962   */\n  sub\n    /* \"#utility.yul\":935:967   */\n  slt\n    /* \"#utility.yul\":932:1051   */\n  iszero\n  tag_27\n  jumpi\n    /* \"#utility.yul\":970:1049   */\n  tag_28\n  tag_8\n  jump\t// in\ntag_28:\n    /* \"#utility.yul\":932:1051   */\ntag_27:\n    /* \"#utility.yul\":1090:1091   */\n  0x00\n    /* \"#utility.yul\":1115:1179   */\n  tag_29\n    /* \"#utility.yul\":1171:1178   */\n  dup5\n    /* \"#utility.yul\":1162:1168   */\n  dup3\n    /* \"#utility.yul\":1151:1160   */\n  dup6\n    /* \"#utility.yul\":1147:1169   */\n  add\n    /* \"#utility.yul\":1115:1179   */\n  tag_13\n  jump\t// in\ntag_29:\n    /* \"#utility.yul\":1105:1179   */\n  swap2\n  pop\n    /* \"#utility.yul\":1061:1189   */\n  pop\n    /* \"#utility.yul\":845:1196   */\n  swap3\n  swap2\n  pop\n  pop\n  jump\t// out\n    /* \"3-Consolidacion.sol\":86:2807  contract Consolidacion {... */\ntag_6:\n  dataSize(sub_0)\n  dup1\n  dataOffset(sub_0)\n  0x00\n  codecopy\n  0x00\n  return\nstop\n\nsub_0: assembly {\n        /* \"3-Consolidacion.sol\":86:2807  contract Consolidacion {... */\n      mstore(0x40, 0x80)\n      callvalue\n      dup1\n      iszero\n      tag_1\n      jumpi\n      0x00\n      dup1\n      revert\n    tag_1:\n      pop\n      jumpi(tag_2, lt(calldatasize, 0x04))\n      shr(0xe0, calldataload(0x00))\n      dup1\n      0x4a0757f5\n      gt\n      tag_11\n      jumpi\n      dup1\n      0x4a0757f5\n      eq\n      tag_7\n      jumpi\n      dup1\n      0x70aa6204\n      eq\n      tag_8\n      jumpi\n      dup1\n      0x8f3e20d1\n      eq\n      tag_9\n      jumpi\n      dup1\n      0xf684d8cd\n      eq\n      tag_10\n      jumpi\n      jump(tag_2)\n    tag_11:\n      dup1\n      0x134ec64c\n      eq\n      tag_3\n      jumpi\n      dup1\n      0x33531f93\n      eq\n      tag_4\n      jumpi\n      dup1\n      0x38ec16da\n      eq\n      tag_5\n      jumpi\n      dup1\n      0x49c149c2\n      eq\n      tag_6\n      jumpi\n    tag_2:\n      0x00\n      dup1\n      revert\n        /* \"3-Consolidacion.sol\":746:1585  function consolidateBatch(... */\n    tag_3:\n      tag_12\n      0x04\n      dup1\n      calldatasize\n      sub\n      dup2\n      add\n      swap1\n      tag_13\n      swap2\n      swap1\n      tag_14\n      jump\t// in\n    tag_13:\n      tag_15\n      jump\t// in\n    tag_12:\n      stop\n        /* \"3-Consolidacion.sol\":2549:2672  function getAllConsolidatedBatchIds() public view returns (string[] memory) {... */\n    tag_4:\n      tag_16\n      tag_17\n      jump\t// in\n    tag_16:\n      mload(0x40)\n      tag_18\n      swap2\n      swap1\n      tag_19\n      jump\t// in\n    tag_18:\n      mload(0x40)\n      dup1\n      swap2\n      sub\n      swap1\n      return\n        /* \"3-Consolidacion.sol\":2682:2805  function getTotalConsolidatedBatches() public view returns (uint256) {... */\n    tag_5:\n      tag_20\n      tag_21\n      jump\t// in\n    tag_20:\n      mload(0x40)\n      tag_22\n      swap2\n      swap1\n      tag_23\n      jump\t// in\n    tag_22:\n      mload(0x40)\n      dup1\n      swap2\n      sub\n      swap1\n      return\n        /* \"3-Consolidacion.sol\":295:356  mapping(string => ConsolidationData) public consolidationData */\n    tag_6:\n      tag_24\n      0x04\n      dup1\n      calldatasize\n      sub\n      dup2\n      add\n      swap1\n      tag_25\n      swap2\n      swap1\n      tag_26\n      jump\t// in\n    tag_25:\n      tag_27\n      jump\t// in\n    tag_24:\n      mload(0x40)\n      tag_28\n      swap6\n      swap5\n      swap4\n      swap3\n      swap2\n      swap1\n      tag_29\n      jump\t// in\n    tag_28:\n      mload(0x40)\n      dup1\n      swap2\n      sub\n      swap1\n      return\n        /* \"3-Consolidacion.sol\":2038:2539  function getConsolidationInfo(string memory _batchId) public view returns (... */\n    tag_7:\n      tag_30\n      0x04\n      dup1\n      calldatasize\n      sub\n      dup2\n      add\n      swap1\n      tag_31\n      swap2\n      swap1\n      tag_26\n      jump\t// in\n    tag_31:\n      tag_32\n      jump\t// in\n    tag_30:\n      mload(0x40)\n      tag_33\n      swap5\n      swap4\n      swap3\n      swap2\n      swap1\n      tag_34\n      jump\t// in\n    tag_33:\n      mload(0x40)\n      dup1\n      swap2\n      sub\n      swap1\n      return\n        /* \"3-Consolidacion.sol\":362:401  string[] public allConsolidatedBatchIds */\n    tag_8:\n      tag_35\n      0x04\n      dup1\n      calldatasize\n      sub\n      dup2\n      add\n      swap1\n      tag_36\n      swap2\n      swap1\n      tag_37\n      jump\t// in\n    tag_36:\n      tag_38\n      jump\t// in\n    tag_35:\n      mload(0x40)\n      tag_39\n      swap2\n      swap1\n      tag_40\n      jump\t// in\n    tag_39:\n      mload(0x40)\n      dup1\n      swap2\n      sub\n      swap1\n      return\n        /* \"3-Consolidacion.sol\":412:447  address public procesamientoAddress */\n    tag_9:\n      tag_41\n      tag_42\n      jump\t// in\n    tag_41:\n      mload(0x40)\n      tag_43\n      swap2\n      swap1\n      tag_44\n      jump\t// in\n    tag_43:\n      mload(0x40)\n      dup1\n      swap2\n      sub\n      swap1\n      return\n        /* \"3-Consolidacion.sol\":1595:2028  function getConsolidationHash(string memory _batchId) public view returns (bytes32) {... */\n    tag_10:\n      tag_45\n      0x04\n      dup1\n      calldatasize\n      sub\n      dup2\n      add\n      swap1\n      tag_46\n      swap2\n      swap1\n      tag_26\n      jump\t// in\n    tag_46:\n      tag_47\n      jump\t// in\n    tag_45:\n      mload(0x40)\n      tag_48\n      swap2\n      swap1\n      tag_49\n      jump\t// in\n    tag_48:\n      mload(0x40)\n      dup1\n      swap2\n      sub\n      swap1\n      return\n        /* \"3-Consolidacion.sol\":746:1585  function consolidateBatch(... */\n    tag_15:\n        /* \"3-Consolidacion.sol\":949:950  0 */\n      0x00\n        /* \"3-Consolidacion.sol\":902:919  consolidationData */\n      dup1\n        /* \"3-Consolidacion.sol\":920:928  _batchId */\n      dup5\n        /* \"3-Consolidacion.sol\":902:929  consolidationData[_batchId] */\n      mload(0x40)\n      tag_51\n      swap2\n      swap1\n      tag_52\n      jump\t// in\n    tag_51:\n      swap1\n      dup2\n      mstore\n      0x20\n      add\n      mload(0x40)\n      dup1\n      swap2\n      sub\n      swap1\n      keccak256\n        /* \"3-Consolidacion.sol\":902:937  consolidationData[_batchId].batchId */\n      0x00\n      add\n        /* \"3-Consolidacion.sol\":896:945  bytes(consolidationData[_batchId].batchId).length */\n      dup1\n      sload\n      tag_53\n      swap1\n      tag_54\n      jump\t// in\n    tag_53:\n      swap1\n      pop\n        /* \"3-Consolidacion.sol\":896:950  bytes(consolidationData[_batchId].batchId).length == 0 */\n      eq\n        /* \"3-Consolidacion.sol\":888:981  require(bytes(consolidationData[_batchId].batchId).length == 0, \"Batch already consolidated\") */\n      tag_55\n      jumpi\n      mload(0x40)\n      0x08c379a000000000000000000000000000000000000000000000000000000000\n      dup2\n      mstore\n      0x04\n      add\n      tag_56\n      swap1\n      tag_57\n      jump\t// in\n    tag_56:\n      mload(0x40)\n      dup1\n      swap2\n      sub\n      swap1\n      revert\n    tag_55:\n        /* \"3-Consolidacion.sol\":1057:1077  bytes32 previousHash */\n      0x00\n        /* \"3-Consolidacion.sol\":1080:1093  procesamiento */\n      0x03\n      0x00\n      swap1\n      sload\n      swap1\n      0x0100\n      exp\n      swap1\n      div\n      0xffffffffffffffffffffffffffffffffffffffff\n      and\n        /* \"3-Consolidacion.sol\":1080:1111  procesamiento.getProcessingHash */\n      0xffffffffffffffffffffffffffffffffffffffff\n      and\n      0x53adab30\n        /* \"3-Consolidacion.sol\":1112:1120  _batchId */\n      dup6\n        /* \"3-Consolidacion.sol\":1080:1121  procesamiento.getProcessingHash(_batchId) */\n      mload(0x40)\n      dup3\n      0xffffffff\n      and\n      0xe0\n      shl\n      dup2\n      mstore\n      0x04\n      add\n      tag_58\n      swap2\n      swap1\n      tag_40\n      jump\t// in\n    tag_58:\n      0x20\n      mload(0x40)\n      dup1\n      dup4\n      sub\n      dup2\n      dup7\n      gas\n      staticcall\n      iszero\n      dup1\n      iszero\n      tag_60\n      jumpi\n      returndatasize\n      0x00\n      dup1\n      returndatacopy\n      revert(0x00, returndatasize)\n    tag_60:\n      pop\n      pop\n      pop\n      pop\n      mload(0x40)\n      returndatasize\n      not(0x1f)\n      0x1f\n      dup3\n      add\n      and\n      dup3\n      add\n      dup1\n      0x40\n      mstore\n      pop\n      dup2\n      add\n      swap1\n      tag_61\n      swap2\n      swap1\n      tag_62\n      jump\t// in\n    tag_61:\n        /* \"3-Consolidacion.sol\":1057:1121  bytes32 previousHash = procesamiento.getProcessingHash(_batchId) */\n      swap1\n      pop\n        /* \"3-Consolidacion.sol\":1170:1383  ConsolidationData({... */\n      mload(0x40)\n      dup1\n      0xa0\n      add\n      0x40\n      mstore\n      dup1\n        /* \"3-Consolidacion.sol\":1211:1219  _batchId */\n      dup6\n        /* \"3-Consolidacion.sol\":1170:1383  ConsolidationData({... */\n      dup2\n      mstore\n      0x20\n      add\n        /* \"3-Consolidacion.sol\":1242:1250  _totalKG */\n      dup5\n        /* \"3-Consolidacion.sol\":1170:1383  ConsolidationData({... */\n      dup2\n      mstore\n      0x20\n      add\n        /* \"3-Consolidacion.sol\":1276:1287  _exportDocs */\n      dup4\n        /* \"3-Consolidacion.sol\":1170:1383  ConsolidationData({... */\n      dup2\n      mstore\n      0x20\n      add\n        /* \"3-Consolidacion.sol\":1312:1327  block.timestamp */\n      timestamp\n        /* \"3-Consolidacion.sol\":1170:1383  ConsolidationData({... */\n      dup2\n      mstore\n      0x20\n      add\n        /* \"3-Consolidacion.sol\":1360:1372  previousHash */\n      dup3\n        /* \"3-Consolidacion.sol\":1170:1383  ConsolidationData({... */\n      dup2\n      mstore\n      pop\n        /* \"3-Consolidacion.sol\":1140:1157  consolidationData */\n      0x00\n        /* \"3-Consolidacion.sol\":1158:1166  _batchId */\n      dup6\n        /* \"3-Consolidacion.sol\":1140:1167  consolidationData[_batchId] */\n      mload(0x40)\n      tag_63\n      swap2\n      swap1\n      tag_52\n      jump\t// in\n    tag_63:\n      swap1\n      dup2\n      mstore\n      0x20\n      add\n      mload(0x40)\n      dup1\n      swap2\n      sub\n      swap1\n      keccak256\n        /* \"3-Consolidacion.sol\":1140:1383  consolidationData[_batchId] = ConsolidationData({... */\n      0x00\n      dup3\n      add\n      mload\n      dup2\n      0x00\n      add\n      swap1\n      dup2\n      tag_64\n      swap2\n      swap1\n      tag_65\n      jump\t// in\n    tag_64:\n      pop\n      0x20\n      dup3\n      add\n      mload\n      dup2\n      0x01\n      add\n      sstore\n      0x40\n      dup3\n      add\n      mload\n      dup2\n      0x02\n      add\n      swap1\n      dup2\n      tag_66\n      swap2\n      swap1\n      tag_65\n      jump\t// in\n    tag_66:\n      pop\n      0x60\n      dup3\n      add\n      mload\n      dup2\n      0x03\n      add\n      sstore\n      0x80\n      dup3\n      add\n      mload\n      dup2\n      0x04\n      add\n      sstore\n      swap1\n      pop\n      pop\n        /* \"3-Consolidacion.sol\":1402:1425  allConsolidatedBatchIds */\n      0x01\n        /* \"3-Consolidacion.sol\":1431:1439  _batchId */\n      dup5\n        /* \"3-Consolidacion.sol\":1402:1440  allConsolidatedBatchIds.push(_batchId) */\n      swap1\n      dup1\n      0x01\n      dup2\n      sload\n      add\n      dup1\n      dup3\n      sstore\n      dup1\n      swap2\n      pop\n      pop\n      0x01\n      swap1\n      sub\n      swap1\n      0x00\n      mstore\n      keccak256(0x00, 0x20)\n      add\n      0x00\n      swap1\n      swap2\n      swap1\n      swap2\n      swap1\n      swap2\n      pop\n      swap1\n      dup2\n      tag_68\n      swap2\n      swap1\n      tag_65\n      jump\t// in\n    tag_68:\n      pop\n        /* \"3-Consolidacion.sol\":1459:1484  bytes32 consolidationHash */\n      0x00\n        /* \"3-Consolidacion.sol\":1487:1517  getConsolidationHash(_batchId) */\n      tag_69\n        /* \"3-Consolidacion.sol\":1508:1516  _batchId */\n      dup6\n        /* \"3-Consolidacion.sol\":1487:1507  getConsolidationHash */\n      tag_47\n        /* \"3-Consolidacion.sol\":1487:1517  getConsolidationHash(_batchId) */\n      jump\t// in\n    tag_69:\n        /* \"3-Consolidacion.sol\":1459:1517  bytes32 consolidationHash = getConsolidationHash(_batchId) */\n      swap1\n      pop\n        /* \"3-Consolidacion.sol\":1532:1578  BatchConsolidated(_batchId, consolidationHash) */\n      0x5254e0cccb9ec15554edad910e10e1eebff3b8cee60f09f9344038f27da04883\n        /* \"3-Consolidacion.sol\":1550:1558  _batchId */\n      dup6\n        /* \"3-Consolidacion.sol\":1560:1577  consolidationHash */\n      dup3\n        /* \"3-Consolidacion.sol\":1532:1578  BatchConsolidated(_batchId, consolidationHash) */\n      mload(0x40)\n      tag_70\n      swap3\n      swap2\n      swap1\n      tag_71\n      jump\t// in\n    tag_70:\n      mload(0x40)\n      dup1\n      swap2\n      sub\n      swap1\n      log1\n        /* \"3-Consolidacion.sol\":878:1585  {... */\n      pop\n      pop\n        /* \"3-Consolidacion.sol\":746:1585  function consolidateBatch(... */\n      pop\n      pop\n      pop\n      jump\t// out\n        /* \"3-Consolidacion.sol\":2549:2672  function getAllConsolidatedBatchIds() public view returns (string[] memory) {... */\n    tag_17:\n        /* \"3-Consolidacion.sol\":2608:2623  string[] memory */\n      0x60\n        /* \"3-Consolidacion.sol\":2642:2665  allConsolidatedBatchIds */\n      0x01\n        /* \"3-Consolidacion.sol\":2635:2665  return allConsolidatedBatchIds */\n      dup1\n      sload\n      dup1\n      0x20\n      mul\n      0x20\n      add\n      mload(0x40)\n      swap1\n      dup2\n      add\n      0x40\n      mstore\n      dup1\n      swap3\n      swap2\n      swap1\n      dup2\n      dup2\n      mstore\n      0x20\n      add\n      0x00\n      swap1\n    tag_73:\n      dup3\n      dup3\n      lt\n      iszero\n      tag_74\n      jumpi\n      dup4\n      dup3\n      swap1\n      0x00\n      mstore\n      keccak256(0x00, 0x20)\n      add\n      dup1\n      sload\n      tag_76\n      swap1\n      tag_54\n      jump\t// in\n    tag_76:\n      dup1\n      0x1f\n      add\n      0x20\n      dup1\n      swap2\n      div\n      mul\n      0x20\n      add\n      mload(0x40)\n      swap1\n      dup2\n      add\n      0x40\n      mstore\n      dup1\n      swap3\n      swap2\n      swap1\n      dup2\n      dup2\n      mstore\n      0x20\n      add\n      dup3\n      dup1\n      sload\n      tag_77\n      swap1\n      tag_54\n      jump\t// in\n    tag_77:\n      dup1\n      iszero\n      tag_78\n      jumpi\n      dup1\n      0x1f\n      lt\n      tag_79\n      jumpi\n      0x0100\n      dup1\n      dup4\n      sload\n      div\n      mul\n      dup4\n      mstore\n      swap2\n      0x20\n      add\n      swap2\n      jump(tag_78)\n    tag_79:\n      dup3\n      add\n      swap2\n      swap1\n      0x00\n      mstore\n      keccak256(0x00, 0x20)\n      swap1\n    tag_80:\n      dup2\n      sload\n      dup2\n      mstore\n      swap1\n      0x01\n      add\n      swap1\n      0x20\n      add\n      dup1\n      dup4\n      gt\n      tag_80\n      jumpi\n      dup3\n      swap1\n      sub\n      0x1f\n      and\n      dup3\n      add\n      swap2\n    tag_78:\n      pop\n      pop\n      pop\n      pop\n      pop\n      dup2\n      mstore\n      0x20\n      add\n      swap1\n      0x01\n      add\n      swap1\n      jump(tag_73)\n    tag_74:\n      pop\n      pop\n      pop\n      pop\n      swap1\n      pop\n        /* \"3-Consolidacion.sol\":2549:2672  function getAllConsolidatedBatchIds() public view returns (string[] memory) {... */\n      swap1\n      jump\t// out\n        /* \"3-Consolidacion.sol\":2682:2805  function getTotalConsolidatedBatches() public view returns (uint256) {... */\n    tag_21:\n        /* \"3-Consolidacion.sol\":2742:2749  uint256 */\n      0x00\n        /* \"3-Consolidacion.sol\":2768:2791  allConsolidatedBatchIds */\n      0x01\n        /* \"3-Consolidacion.sol\":2768:2798  allConsolidatedBatchIds.length */\n      dup1\n      sload\n      swap1\n      pop\n        /* \"3-Consolidacion.sol\":2761:2798  return allConsolidatedBatchIds.length */\n      swap1\n      pop\n        /* \"3-Consolidacion.sol\":2682:2805  function getTotalConsolidatedBatches() public view returns (uint256) {... */\n      swap1\n      jump\t// out\n        /* \"3-Consolidacion.sol\":295:356  mapping(string => ConsolidationData) public consolidationData */\n    tag_27:\n      0x00\n      dup2\n      dup1\n      mload\n      0x20\n      dup2\n      add\n      dup3\n      add\n      dup1\n      mload\n      dup5\n      dup3\n      mstore\n      0x20\n      dup4\n      add\n      0x20\n      dup6\n      add\n      keccak256\n      dup2\n      dup4\n      mstore\n      dup1\n      swap6\n      pop\n      pop\n      pop\n      pop\n      pop\n      pop\n      0x00\n      swap2\n      pop\n      swap1\n      pop\n      dup1\n      0x00\n      add\n      dup1\n      sload\n      tag_82\n      swap1\n      tag_54\n      jump\t// in\n    tag_82:\n      dup1\n      0x1f\n      add\n      0x20\n      dup1\n      swap2\n      div\n      mul\n      0x20\n      add\n      mload(0x40)\n      swap1\n      dup2\n      add\n      0x40\n      mstore\n      dup1\n      swap3\n      swap2\n      swap1\n      dup2\n      dup2\n      mstore\n      0x20\n      add\n      dup3\n      dup1\n      sload\n      tag_83\n      swap1\n      tag_54\n      jump\t// in\n    tag_83:\n      dup1\n      iszero\n      tag_84\n      jumpi\n      dup1\n      0x1f\n      lt\n      tag_85\n      jumpi\n      0x0100\n      dup1\n      dup4\n      sload\n      div\n      mul\n      dup4\n      mstore\n      swap2\n      0x20\n      add\n      swap2\n      jump(tag_84)\n    tag_85:\n      dup3\n      add\n      swap2\n      swap1\n      0x00\n      mstore\n      keccak256(0x00, 0x20)\n      swap1\n    tag_86:\n      dup2\n      sload\n      dup2\n      mstore\n      swap1\n      0x01\n      add\n      swap1\n      0x20\n      add\n      dup1\n      dup4\n      gt\n      tag_86\n      jumpi\n      dup3\n      swap1\n      sub\n      0x1f\n      and\n      dup3\n      add\n      swap2\n    tag_84:\n      pop\n      pop\n      pop\n      pop\n      pop\n      swap1\n      dup1\n      0x01\n      add\n      sload\n      swap1\n      dup1\n      0x02\n      add\n      dup1\n      sload\n      tag_87\n      swap1\n      tag_54\n      jump\t// in\n    tag_87:\n      dup1\n      0x1f\n      add\n      0x20\n      dup1\n      swap2\n      div\n      mul\n      0x20\n      add\n      mload(0x40)\n      swap1\n      dup2\n      add\n      0x40\n      mstore\n      dup1\n      swap3\n      swap2\n      swap1\n      dup2\n      dup2\n      mstore\n      0x20\n      add\n      dup3\n      dup1\n      sload\n      tag_88\n      swap1\n      tag_54\n      jump\t// in\n    tag_88:\n      dup1\n      iszero\n      tag_89\n      jumpi\n      dup1\n      0x1f\n      lt\n      tag_90\n      jumpi\n      0x0100\n      dup1\n      dup4\n      sload\n      div\n      mul\n      dup4\n      mstore\n      swap2\n      0x20\n      add\n      swap2\n      jump(tag_89)\n    tag_90:\n      dup3\n      add\n      swap2\n      swap1\n      0x00\n      mstore\n      keccak256(0x00, 0x20)\n      swap1\n    tag_91:\n      dup2\n      sload\n      dup2\n      mstore\n      swap1\n      0x01\n      add\n      swap1\n      0x20\n      add\n      dup1\n      dup4\n      gt\n      tag_91\n      jumpi\n      dup3\n      swap1\n      sub\n      0x1f\n      and\n      dup3\n      add\n      swap2\n    tag_89:\n      pop\n      pop\n      pop\n      pop\n      pop\n      swap1\n      dup1\n      0x03\n      add\n      sload\n      swap1\n      dup1\n      0x04\n      add\n      sload\n      swap1\n      pop\n      dup6\n      jump\t// out\n        /* \"3-Consolidacion.sol\":2038:2539  function getConsolidationInfo(string memory _batchId) public view returns (... */\n    tag_32:\n        /* \"3-Consolidacion.sol\":2122:2137  uint256 totalKG */\n      0x00\n        /* \"3-Consolidacion.sol\":2147:2171  string memory exportDocs */\n      0x60\n        /* \"3-Consolidacion.sol\":2181:2198  uint256 timestamp */\n      0x00\n        /* \"3-Consolidacion.sol\":2208:2233  bytes32 previousStageHash */\n      dup1\n        /* \"3-Consolidacion.sol\":2250:2276  ConsolidationData memory c */\n      0x00\n        /* \"3-Consolidacion.sol\":2279:2296  consolidationData */\n      dup1\n        /* \"3-Consolidacion.sol\":2297:2305  _batchId */\n      dup7\n        /* \"3-Consolidacion.sol\":2279:2306  consolidationData[_batchId] */\n      mload(0x40)\n      tag_93\n      swap2\n      swap1\n      tag_52\n      jump\t// in\n    tag_93:\n      swap1\n      dup2\n      mstore\n      0x20\n      add\n      mload(0x40)\n      dup1\n      swap2\n      sub\n      swap1\n      keccak256\n        /* \"3-Consolidacion.sol\":2250:2306  ConsolidationData memory c = consolidationData[_batchId] */\n      mload(0x40)\n      dup1\n      0xa0\n      add\n      0x40\n      mstore\n      swap1\n      dup2\n      0x00\n      dup3\n      add\n      dup1\n      sload\n      tag_94\n      swap1\n      tag_54\n      jump\t// in\n    tag_94:\n      dup1\n      0x1f\n      add\n      0x20\n      dup1\n      swap2\n      div\n      mul\n      0x20\n      add\n      mload(0x40)\n      swap1\n      dup2\n      add\n      0x40\n      mstore\n      dup1\n      swap3\n      swap2\n      swap1\n      dup2\n      dup2\n      mstore\n      0x20\n      add\n      dup3\n      dup1\n      sload\n      tag_95\n      swap1\n      tag_54\n      jump\t// in\n    tag_95:\n      dup1\n      iszero\n      tag_96\n      jumpi\n      dup1\n      0x1f\n      lt\n      tag_97\n      jumpi\n      0x0100\n      dup1\n      dup4\n      sload\n      div\n      mul\n      dup4\n      mstore\n      swap2\n      0x20\n      add\n      swap2\n      jump(tag_96)\n    tag_97:\n      dup3\n      add\n      swap2\n      swap1\n      0x00\n      mstore\n      keccak256(0x00, 0x20)\n      swap1\n    tag_98:\n      dup2\n      sload\n      dup2\n      mstore\n      swap1\n      0x01\n      add\n      swap1\n      0x20\n      add\n      dup1\n      dup4\n      gt\n      tag_98\n      jumpi\n      dup3\n      swap1\n      sub\n      0x1f\n      and\n      dup3\n      add\n      swap2\n    tag_96:\n      pop\n      pop\n      pop\n      pop\n      pop\n      dup2\n      mstore\n      0x20\n      add\n      0x01\n      dup3\n      add\n      sload\n      dup2\n      mstore\n      0x20\n      add\n      0x02\n      dup3\n      add\n      dup1\n      sload\n      tag_99\n      swap1\n      tag_54\n      jump\t// in\n    tag_99:\n      dup1\n      0x1f\n      add\n      0x20\n      dup1\n      swap2\n      div\n      mul\n      0x20\n      add\n      mload(0x40)\n      swap1\n      dup2\n      add\n      0x40\n      mstore\n      dup1\n      swap3\n      swap2\n      swap1\n      dup2\n      dup2\n      mstore\n      0x20\n      add\n      dup3\n      dup1\n      sload\n      tag_100\n      swap1\n      tag_54\n      jump\t// in\n    tag_100:\n      dup1\n      iszero\n      tag_101\n      jumpi\n      dup1\n      0x1f\n      lt\n      tag_102\n      jumpi\n      0x0100\n      dup1\n      dup4\n      sload\n      div\n      mul\n      dup4\n      mstore\n      swap2\n      0x20\n      add\n      swap2\n      jump(tag_101)\n    tag_102:\n      dup3\n      add\n      swap2\n      swap1\n      0x00\n      mstore\n      keccak256(0x00, 0x20)\n      swap1\n    tag_103:\n      dup2\n      sload\n      dup2\n      mstore\n      swap1\n      0x01\n      add\n      swap1\n      0x20\n      add\n      dup1\n      dup4\n      gt\n      tag_103\n      jumpi\n      dup3\n      swap1\n      sub\n      0x1f\n      and\n      dup3\n      add\n      swap2\n    tag_101:\n      pop\n      pop\n      pop\n      pop\n      pop\n      dup2\n      mstore\n      0x20\n      add\n      0x03\n      dup3\n      add\n      sload\n      dup2\n      mstore\n      0x20\n      add\n      0x04\n      dup3\n      add\n      sload\n      dup2\n      mstore\n      pop\n      pop\n      swap1\n      pop\n        /* \"3-Consolidacion.sol\":2350:2351  0 */\n      0x00\n        /* \"3-Consolidacion.sol\":2330:2331  c */\n      dup2\n        /* \"3-Consolidacion.sol\":2330:2339  c.batchId */\n      0x00\n      add\n      mload\n        /* \"3-Consolidacion.sol\":2324:2347  bytes(c.batchId).length */\n      mload\n        /* \"3-Consolidacion.sol\":2324:2351  bytes(c.batchId).length > 0 */\n      gt\n        /* \"3-Consolidacion.sol\":2316:2389  require(bytes(c.batchId).length > 0, \"Consolidation data does not exist\") */\n      tag_104\n      jumpi\n      mload(0x40)\n      0x08c379a000000000000000000000000000000000000000000000000000000000\n      dup2\n      mstore\n      0x04\n      add\n      tag_105\n      swap1\n      tag_106\n      jump\t// in\n    tag_105:\n      mload(0x40)\n      dup1\n      swap2\n      sub\n      swap1\n      revert\n    tag_104:\n        /* \"3-Consolidacion.sol\":2429:2430  c */\n      dup1\n        /* \"3-Consolidacion.sol\":2429:2438  c.totalKG */\n      0x20\n      add\n      mload\n        /* \"3-Consolidacion.sol\":2452:2453  c */\n      dup2\n        /* \"3-Consolidacion.sol\":2452:2464  c.exportDocs */\n      0x40\n      add\n      mload\n        /* \"3-Consolidacion.sol\":2478:2479  c */\n      dup3\n        /* \"3-Consolidacion.sol\":2478:2489  c.timestamp */\n      0x60\n      add\n      mload\n        /* \"3-Consolidacion.sol\":2503:2504  c */\n      dup4\n        /* \"3-Consolidacion.sol\":2503:2522  c.previousStageHash */\n      0x80\n      add\n      mload\n        /* \"3-Consolidacion.sol\":2408:2532  return (... */\n      swap5\n      pop\n      swap5\n      pop\n      swap5\n      pop\n      swap5\n      pop\n      pop\n        /* \"3-Consolidacion.sol\":2038:2539  function getConsolidationInfo(string memory _batchId) public view returns (... */\n      swap2\n      swap4\n      pop\n      swap2\n      swap4\n      jump\t// out\n        /* \"3-Consolidacion.sol\":362:401  string[] public allConsolidatedBatchIds */\n    tag_38:\n      0x01\n      dup2\n      dup2\n      sload\n      dup2\n      lt\n      tag_107\n      jumpi\n      0x00\n      dup1\n      revert\n    tag_107:\n      swap1\n      0x00\n      mstore\n      keccak256(0x00, 0x20)\n      add\n      0x00\n      swap2\n      pop\n      swap1\n      pop\n      dup1\n      sload\n      tag_109\n      swap1\n      tag_54\n      jump\t// in\n    tag_109:\n      dup1\n      0x1f\n      add\n      0x20\n      dup1\n      swap2\n      div\n      mul\n      0x20\n      add\n      mload(0x40)\n      swap1\n      dup2\n      add\n      0x40\n      mstore\n      dup1\n      swap3\n      swap2\n      swap1\n      dup2\n      dup2\n      mstore\n      0x20\n      add\n      dup3\n      dup1\n      sload\n      tag_110\n      swap1\n      tag_54\n      jump\t// in\n    tag_110:\n      dup1\n      iszero\n      tag_111\n      jumpi\n      dup1\n      0x1f\n      lt\n      tag_112\n      jumpi\n      0x0100\n      dup1\n      dup4\n      sload\n      div\n      mul\n      dup4\n      mstore\n      swap2\n      0x20\n      add\n      swap2\n      jump(tag_111)\n    tag_112:\n      dup3\n      add\n      swap2\n      swap1\n      0x00\n      mstore\n      keccak256(0x00, 0x20)\n      swap1\n    tag_113:\n      dup2\n      sload\n      dup2\n      mstore\n      swap1\n      0x01\n      add\n      swap1\n      0x20\n      add\n      dup1\n      dup4\n      gt\n      tag_113\n      jumpi\n      dup3\n      swap1\n      sub\n      0x1f\n      and\n      dup3\n      add\n      swap2\n    tag_111:\n      pop\n      pop\n      pop\n      pop\n      pop\n      dup2\n      jump\t// out\n        /* \"3-Consolidacion.sol\":412:447  address public procesamientoAddress */\n    tag_42:\n      0x02\n      0x00\n      swap1\n      sload\n      swap1\n      0x0100\n      exp\n      swap1\n      div\n      0xffffffffffffffffffffffffffffffffffffffff\n      and\n      dup2\n      jump\t// out\n        /* \"3-Consolidacion.sol\":1595:2028  function getConsolidationHash(string memory _batchId) public view returns (bytes32) {... */\n    tag_47:\n        /* \"3-Consolidacion.sol\":1670:1677  bytes32 */\n      0x00\n        /* \"3-Consolidacion.sol\":1689:1715  ConsolidationData memory c */\n      dup1\n        /* \"3-Consolidacion.sol\":1718:1735  consolidationData */\n      0x00\n        /* \"3-Consolidacion.sol\":1736:1744  _batchId */\n      dup4\n        /* \"3-Consolidacion.sol\":1718:1745  consolidationData[_batchId] */\n      mload(0x40)\n      tag_115\n      swap2\n      swap1\n      tag_52\n      jump\t// in\n    tag_115:\n      swap1\n      dup2\n      mstore\n      0x20\n      add\n      mload(0x40)\n      dup1\n      swap2\n      sub\n      swap1\n      keccak256\n        /* \"3-Consolidacion.sol\":1689:1745  ConsolidationData memory c = consolidationData[_batchId] */\n      mload(0x40)\n      dup1\n      0xa0\n      add\n      0x40\n      mstore\n      swap1\n      dup2\n      0x00\n      dup3\n      add\n      dup1\n      sload\n      tag_116\n      swap1\n      tag_54\n      jump\t// in\n    tag_116:\n      dup1\n      0x1f\n      add\n      0x20\n      dup1\n      swap2\n      div\n      mul\n      0x20\n      add\n      mload(0x40)\n      swap1\n      dup2\n      add\n      0x40\n      mstore\n      dup1\n      swap3\n      swap2\n      swap1\n      dup2\n      dup2\n      mstore\n      0x20\n      add\n      dup3\n      dup1\n      sload\n      tag_117\n      swap1\n      tag_54\n      jump\t// in\n    tag_117:\n      dup1\n      iszero\n      tag_118\n      jumpi\n      dup1\n      0x1f\n      lt\n      tag_119\n      jumpi\n      0x0100\n      dup1\n      dup4\n      sload\n      div\n      mul\n      dup4\n      mstore\n      swap2\n      0x20\n      add\n      swap2\n      jump(tag_118)\n    tag_119:\n      dup3\n      add\n      swap2\n      swap1\n      0x00\n      mstore\n      keccak256(0x00, 0x20)\n      swap1\n    tag_120:\n      dup2\n      sload\n      dup2\n      mstore\n      swap1\n      0x01\n      add\n      swap1\n      0x20\n      add\n      dup1\n      dup4\n      gt\n      tag_120\n      jumpi\n      dup3\n      swap1\n      sub\n      0x1f\n      and\n      dup3\n      add\n      swap2\n    tag_118:\n      pop\n      pop\n      pop\n      pop\n      pop\n      dup2\n      mstore\n      0x20\n      add\n      0x01\n      dup3\n      add\n      sload\n      dup2\n      mstore\n      0x20\n      add\n      0x02\n      dup3\n      add\n      dup1\n      sload\n      tag_121\n      swap1\n      tag_54\n      jump\t// in\n    tag_121:\n      dup1\n      0x1f\n      add\n      0x20\n      dup1\n      swap2\n      div\n      mul\n      0x20\n      add\n      mload(0x40)\n      swap1\n      dup2\n      add\n      0x40\n      mstore\n      dup1\n      swap3\n      swap2\n      swap1\n      dup2\n      dup2\n      mstore\n      0x20\n      add\n      dup3\n      dup1\n      sload\n      tag_122\n      swap1\n      tag_54\n      jump\t// in\n    tag_122:\n      dup1\n      iszero\n      tag_123\n      jumpi\n      dup1\n      0x1f\n      lt\n      tag_124\n      jumpi\n      0x0100\n      dup1\n      dup4\n      sload\n      div\n      mul\n      dup4\n      mstore\n      swap2\n      0x20\n      add\n      swap2\n      jump(tag_123)\n    tag_124:\n      dup3\n      add\n      swap2\n      swap1\n      0x00\n      mstore\n      keccak256(0x00, 0x20)\n      swap1\n    tag_125:\n      dup2\n      sload\n      dup2\n      mstore\n      swap1\n      0x01\n      add\n      swap1\n      0x20\n      add\n      dup1\n      dup4\n      gt\n      tag_125\n      jumpi\n      dup3\n      swap1\n      sub\n      0x1f\n      and\n      dup3\n      add\n      swap2\n    tag_123:\n      pop\n      pop\n      pop\n      pop\n      pop\n      dup2\n      mstore\n      0x20\n      add\n      0x03\n      dup3\n      add\n      sload\n      dup2\n      mstore\n      0x20\n      add\n      0x04\n      dup3\n      add\n      sload\n      dup2\n      mstore\n      pop\n      pop\n      swap1\n      pop\n        /* \"3-Consolidacion.sol\":1789:1790  0 */\n      0x00\n        /* \"3-Consolidacion.sol\":1769:1770  c */\n      dup2\n        /* \"3-Consolidacion.sol\":1769:1778  c.batchId */\n      0x00\n      add\n      mload\n        /* \"3-Consolidacion.sol\":1763:1786  bytes(c.batchId).length */\n      mload\n        /* \"3-Consolidacion.sol\":1763:1790  bytes(c.batchId).length > 0 */\n      gt\n        /* \"3-Consolidacion.sol\":1755:1828  require(bytes(c.batchId).length > 0, \"Consolidation data does not exist\") */\n      tag_126\n      jumpi\n      mload(0x40)\n      0x08c379a000000000000000000000000000000000000000000000000000000000\n      dup2\n      mstore\n      0x04\n      add\n      tag_127\n      swap1\n      tag_106\n      jump\t// in\n    tag_127:\n      mload(0x40)\n      dup1\n      swap2\n      sub\n      swap1\n      revert\n    tag_126:\n        /* \"3-Consolidacion.sol\":1894:1895  c */\n      dup1\n        /* \"3-Consolidacion.sol\":1894:1903  c.batchId */\n      0x00\n      add\n      mload\n        /* \"3-Consolidacion.sol\":1917:1918  c */\n      dup2\n        /* \"3-Consolidacion.sol\":1917:1926  c.totalKG */\n      0x20\n      add\n      mload\n        /* \"3-Consolidacion.sol\":1940:1941  c */\n      dup3\n        /* \"3-Consolidacion.sol\":1940:1952  c.exportDocs */\n      0x40\n      add\n      mload\n        /* \"3-Consolidacion.sol\":1966:1967  c */\n      dup4\n        /* \"3-Consolidacion.sol\":1966:1977  c.timestamp */\n      0x60\n      add\n      mload\n        /* \"3-Consolidacion.sol\":1991:1992  c */\n      dup5\n        /* \"3-Consolidacion.sol\":1991:2010  c.previousStageHash */\n      0x80\n      add\n      mload\n        /* \"3-Consolidacion.sol\":1864:2020  abi.encodePacked(... */\n      add(0x20, mload(0x40))\n      tag_128\n      swap6\n      swap5\n      swap4\n      swap3\n      swap2\n      swap1\n      tag_129\n      jump\t// in\n    tag_128:\n      mload(0x40)\n      0x20\n      dup2\n      dup4\n      sub\n      sub\n      dup2\n      mstore\n      swap1\n      0x40\n      mstore\n        /* \"3-Consolidacion.sol\":1854:2021  keccak256(abi.encodePacked(... */\n      dup1\n      mload\n      swap1\n      0x20\n      add\n      keccak256\n        /* \"3-Consolidacion.sol\":1847:2021  return keccak256(abi.encodePacked(... */\n      swap2\n      pop\n      pop\n        /* \"3-Consolidacion.sol\":1595:2028  function getConsolidationHash(string memory _batchId) public view returns (bytes32) {... */\n      swap2\n      swap1\n      pop\n      jump\t// out\n        /* \"#utility.yul\":7:82   */\n    tag_130:\n        /* \"#utility.yul\":40:46   */\n      0x00\n        /* \"#utility.yul\":73:75   */\n      0x40\n        /* \"#utility.yul\":67:76   */\n      mload\n        /* \"#utility.yul\":57:76   */\n      swap1\n      pop\n        /* \"#utility.yul\":7:82   */\n      swap1\n      jump\t// out\n        /* \"#utility.yul\":88:205   */\n    tag_131:\n        /* \"#utility.yul\":197:198   */\n      0x00\n        /* \"#utility.yul\":194:195   */\n      dup1\n        /* \"#utility.yul\":187:199   */\n      revert\n        /* \"#utility.yul\":211:328   */\n    tag_132:\n        /* \"#utility.yul\":320:321   */\n      0x00\n        /* \"#utility.yul\":317:318   */\n      dup1\n        /* \"#utility.yul\":310:322   */\n      revert\n        /* \"#utility.yul\":334:451   */\n    tag_133:\n        /* \"#utility.yul\":443:444   */\n      0x00\n        /* \"#utility.yul\":440:441   */\n      dup1\n        /* \"#utility.yul\":433:445   */\n      revert\n        /* \"#utility.yul\":457:574   */\n    tag_134:\n        /* \"#utility.yul\":566:567   */\n      0x00\n        /* \"#utility.yul\":563:564   */\n      dup1\n        /* \"#utility.yul\":556:568   */\n      revert\n        /* \"#utility.yul\":580:682   */\n    tag_135:\n        /* \"#utility.yul\":621:627   */\n      0x00\n        /* \"#utility.yul\":672:674   */\n      0x1f\n        /* \"#utility.yul\":668:675   */\n      not\n        /* \"#utility.yul\":663:665   */\n      0x1f\n        /* \"#utility.yul\":656:661   */\n      dup4\n        /* \"#utility.yul\":652:666   */\n      add\n        /* \"#utility.yul\":648:676   */\n      and\n        /* \"#utility.yul\":638:676   */\n      swap1\n      pop\n        /* \"#utility.yul\":580:682   */\n      swap2\n      swap1\n      pop\n      jump\t// out\n        /* \"#utility.yul\":688:868   */\n    tag_136:\n        /* \"#utility.yul\":736:813   */\n      0x4e487b7100000000000000000000000000000000000000000000000000000000\n        /* \"#utility.yul\":733:734   */\n      0x00\n        /* \"#utility.yul\":726:814   */\n      mstore\n        /* \"#utility.yul\":833:837   */\n      0x41\n        /* \"#utility.yul\":830:831   */\n      0x04\n        /* \"#utility.yul\":823:838   */\n      mstore\n        /* \"#utility.yul\":857:861   */\n      0x24\n        /* \"#utility.yul\":854:855   */\n      0x00\n        /* \"#utility.yul\":847:862   */\n      revert\n        /* \"#utility.yul\":874:1155   */\n    tag_137:\n        /* \"#utility.yul\":957:984   */\n      tag_201\n        /* \"#utility.yul\":979:983   */\n      dup3\n        /* \"#utility.yul\":957:984   */\n      tag_135\n      jump\t// in\n    tag_201:\n        /* \"#utility.yul\":949:955   */\n      dup2\n        /* \"#utility.yul\":945:985   */\n      add\n        /* \"#utility.yul\":1087:1093   */\n      dup2\n        /* \"#utility.yul\":1075:1085   */\n      dup2\n        /* \"#utility.yul\":1072:1094   */\n      lt\n        /* \"#utility.yul\":1051:1069   */\n      0xffffffffffffffff\n        /* \"#utility.yul\":1039:1049   */\n      dup3\n        /* \"#utility.yul\":1036:1070   */\n      gt\n        /* \"#utility.yul\":1033:1095   */\n      or\n        /* \"#utility.yul\":1030:1118   */\n      iszero\n      tag_202\n      jumpi\n        /* \"#utility.yul\":1098:1116   */\n      tag_203\n      tag_136\n      jump\t// in\n    tag_203:\n        /* \"#utility.yul\":1030:1118   */\n    tag_202:\n        /* \"#utility.yul\":1138:1148   */\n      dup1\n        /* \"#utility.yul\":1134:1136   */\n      0x40\n        /* \"#utility.yul\":1127:1149   */\n      mstore\n        /* \"#utility.yul\":917:1155   */\n      pop\n        /* \"#utility.yul\":874:1155   */\n      pop\n      pop\n      jump\t// out\n        /* \"#utility.yul\":1161:1290   */\n    tag_138:\n        /* \"#utility.yul\":1195:1201   */\n      0x00\n        /* \"#utility.yul\":1222:1242   */\n      tag_205\n      tag_130\n      jump\t// in\n    tag_205:\n        /* \"#utility.yul\":1212:1242   */\n      swap1\n      pop\n        /* \"#utility.yul\":1251:1284   */\n      tag_206\n        /* \"#utility.yul\":1279:1283   */\n      dup3\n        /* \"#utility.yul\":1271:1277   */\n      dup3\n        /* \"#utility.yul\":1251:1284   */\n      tag_137\n      jump\t// in\n    tag_206:\n        /* \"#utility.yul\":1161:1290   */\n      swap2\n      swap1\n      pop\n      jump\t// out\n        /* \"#utility.yul\":1296:1604   */\n    tag_139:\n        /* \"#utility.yul\":1358:1362   */\n      0x00\n        /* \"#utility.yul\":1448:1466   */\n      0xffffffffffffffff\n        /* \"#utility.yul\":1440:1446   */\n      dup3\n        /* \"#utility.yul\":1437:1467   */\n      gt\n        /* \"#utility.yul\":1434:1490   */\n      iszero\n      tag_208\n      jumpi\n        /* \"#utility.yul\":1470:1488   */\n      tag_209\n      tag_136\n      jump\t// in\n    tag_209:\n        /* \"#utility.yul\":1434:1490   */\n    tag_208:\n        /* \"#utility.yul\":1508:1537   */\n      tag_210\n        /* \"#utility.yul\":1530:1536   */\n      dup3\n        /* \"#utility.yul\":1508:1537   */\n      tag_135\n      jump\t// in\n    tag_210:\n        /* \"#utility.yul\":1500:1537   */\n      swap1\n      pop\n        /* \"#utility.yul\":1592:1596   */\n      0x20\n        /* \"#utility.yul\":1586:1590   */\n      dup2\n        /* \"#utility.yul\":1582:1597   */\n      add\n        /* \"#utility.yul\":1574:1597   */\n      swap1\n      pop\n        /* \"#utility.yul\":1296:1604   */\n      swap2\n      swap1\n      pop\n      jump\t// out\n        /* \"#utility.yul\":1610:1758   */\n    tag_140:\n        /* \"#utility.yul\":1708:1714   */\n      dup3\n        /* \"#utility.yul\":1703:1706   */\n      dup2\n        /* \"#utility.yul\":1698:1701   */\n      dup4\n        /* \"#utility.yul\":1685:1715   */\n      calldatacopy\n        /* \"#utility.yul\":1749:1750   */\n      0x00\n        /* \"#utility.yul\":1740:1746   */\n      dup4\n        /* \"#utility.yul\":1735:1738   */\n      dup4\n        /* \"#utility.yul\":1731:1747   */\n      add\n        /* \"#utility.yul\":1724:1751   */\n      mstore\n        /* \"#utility.yul\":1610:1758   */\n      pop\n      pop\n      pop\n      jump\t// out\n        /* \"#utility.yul\":1764:2189   */\n    tag_141:\n        /* \"#utility.yul\":1842:1847   */\n      0x00\n        /* \"#utility.yul\":1867:1933   */\n      tag_213\n        /* \"#utility.yul\":1883:1932   */\n      tag_214\n        /* \"#utility.yul\":1925:1931   */\n      dup5\n        /* \"#utility.yul\":1883:1932   */\n      tag_139\n      jump\t// in\n    tag_214:\n        /* \"#utility.yul\":1867:1933   */\n      tag_138\n      jump\t// in\n    tag_213:\n        /* \"#utility.yul\":1858:1933   */\n      swap1\n      pop\n        /* \"#utility.yul\":1956:1962   */\n      dup3\n        /* \"#utility.yul\":1949:1954   */\n      dup2\n        /* \"#utility.yul\":1942:1963   */\n      mstore\n        /* \"#utility.yul\":1994:1998   */\n      0x20\n        /* \"#utility.yul\":1987:1992   */\n      dup2\n        /* \"#utility.yul\":1983:1999   */\n      add\n        /* \"#utility.yul\":2032:2035   */\n      dup5\n        /* \"#utility.yul\":2023:2029   */\n      dup5\n        /* \"#utility.yul\":2018:2021   */\n      dup5\n        /* \"#utility.yul\":2014:2030   */\n      add\n        /* \"#utility.yul\":2011:2036   */\n      gt\n        /* \"#utility.yul\":2008:2120   */\n      iszero\n      tag_215\n      jumpi\n        /* \"#utility.yul\":2039:2118   */\n      tag_216\n      tag_134\n      jump\t// in\n    tag_216:\n        /* \"#utility.yul\":2008:2120   */\n    tag_215:\n        /* \"#utility.yul\":2129:2183   */\n      tag_217\n        /* \"#utility.yul\":2176:2182   */\n      dup5\n        /* \"#utility.yul\":2171:2174   */\n      dup3\n        /* \"#utility.yul\":2166:2169   */\n      dup6\n        /* \"#utility.yul\":2129:2183   */\n      tag_140\n      jump\t// in\n    tag_217:\n        /* \"#utility.yul\":1848:2189   */\n      pop\n        /* \"#utility.yul\":1764:2189   */\n      swap4\n      swap3\n      pop\n      pop\n      pop\n      jump\t// out\n        /* \"#utility.yul\":2209:2549   */\n    tag_142:\n        /* \"#utility.yul\":2265:2270   */\n      0x00\n        /* \"#utility.yul\":2314:2317   */\n      dup3\n        /* \"#utility.yul\":2307:2311   */\n      0x1f\n        /* \"#utility.yul\":2299:2305   */\n      dup4\n        /* \"#utility.yul\":2295:2312   */\n      add\n        /* \"#utility.yul\":2291:2318   */\n      slt\n        /* \"#utility.yul\":2281:2403   */\n      tag_219\n      jumpi\n        /* \"#utility.yul\":2322:2401   */\n      tag_220\n      tag_133\n      jump\t// in\n    tag_220:\n        /* \"#utility.yul\":2281:2403   */\n    tag_219:\n        /* \"#utility.yul\":2439:2445   */\n      dup2\n        /* \"#utility.yul\":2426:2446   */\n      calldataload\n        /* \"#utility.yul\":2464:2543   */\n      tag_221\n        /* \"#utility.yul\":2539:2542   */\n      dup5\n        /* \"#utility.yul\":2531:2537   */\n      dup3\n        /* \"#utility.yul\":2524:2528   */\n      0x20\n        /* \"#utility.yul\":2516:2522   */\n      dup7\n        /* \"#utility.yul\":2512:2529   */\n      add\n        /* \"#utility.yul\":2464:2543   */\n      tag_141\n      jump\t// in\n    tag_221:\n        /* \"#utility.yul\":2455:2543   */\n      swap2\n      pop\n        /* \"#utility.yul\":2271:2549   */\n      pop\n        /* \"#utility.yul\":2209:2549   */\n      swap3\n      swap2\n      pop\n      pop\n      jump\t// out\n        /* \"#utility.yul\":2555:2632   */\n    tag_143:\n        /* \"#utility.yul\":2592:2599   */\n      0x00\n        /* \"#utility.yul\":2621:2626   */\n      dup2\n        /* \"#utility.yul\":2610:2626   */\n      swap1\n      pop\n        /* \"#utility.yul\":2555:2632   */\n      swap2\n      swap1\n      pop\n      jump\t// out\n        /* \"#utility.yul\":2638:2760   */\n    tag_144:\n        /* \"#utility.yul\":2711:2735   */\n      tag_224\n        /* \"#utility.yul\":2729:2734   */\n      dup2\n        /* \"#utility.yul\":2711:2735   */\n      tag_143\n      jump\t// in\n    tag_224:\n        /* \"#utility.yul\":2704:2709   */\n      dup2\n        /* \"#utility.yul\":2701:2736   */\n      eq\n        /* \"#utility.yul\":2691:2754   */\n      tag_225\n      jumpi\n        /* \"#utility.yul\":2750:2751   */\n      0x00\n        /* \"#utility.yul\":2747:2748   */\n      dup1\n        /* \"#utility.yul\":2740:2752   */\n      revert\n        /* \"#utility.yul\":2691:2754   */\n    tag_225:\n        /* \"#utility.yul\":2638:2760   */\n      pop\n      jump\t// out\n        /* \"#utility.yul\":2766:2905   */\n    tag_145:\n        /* \"#utility.yul\":2812:2817   */\n      0x00\n        /* \"#utility.yul\":2850:2856   */\n      dup2\n        /* \"#utility.yul\":2837:2857   */\n      calldataload\n        /* \"#utility.yul\":2828:2857   */\n      swap1\n      pop\n        /* \"#utility.yul\":2866:2899   */\n      tag_227\n        /* \"#utility.yul\":2893:2898   */\n      dup2\n        /* \"#utility.yul\":2866:2899   */\n      tag_144\n      jump\t// in\n    tag_227:\n        /* \"#utility.yul\":2766:2905   */\n      swap3\n      swap2\n      pop\n      pop\n      jump\t// out\n        /* \"#utility.yul\":2911:3890   */\n    tag_14:\n        /* \"#utility.yul\":3008:3014   */\n      0x00\n        /* \"#utility.yul\":3016:3022   */\n      dup1\n        /* \"#utility.yul\":3024:3030   */\n      0x00\n        /* \"#utility.yul\":3073:3075   */\n      0x60\n        /* \"#utility.yul\":3061:3070   */\n      dup5\n        /* \"#utility.yul\":3052:3059   */\n      dup7\n        /* \"#utility.yul\":3048:3071   */\n      sub\n        /* \"#utility.yul\":3044:3076   */\n      slt\n        /* \"#utility.yul\":3041:3160   */\n      iszero\n      tag_229\n      jumpi\n        /* \"#utility.yul\":3079:3158   */\n      tag_230\n      tag_131\n      jump\t// in\n    tag_230:\n        /* \"#utility.yul\":3041:3160   */\n    tag_229:\n        /* \"#utility.yul\":3227:3228   */\n      0x00\n        /* \"#utility.yul\":3216:3225   */\n      dup5\n        /* \"#utility.yul\":3212:3229   */\n      add\n        /* \"#utility.yul\":3199:3230   */\n      calldataload\n        /* \"#utility.yul\":3257:3275   */\n      0xffffffffffffffff\n        /* \"#utility.yul\":3249:3255   */\n      dup2\n        /* \"#utility.yul\":3246:3276   */\n      gt\n        /* \"#utility.yul\":3243:3360   */\n      iszero\n      tag_231\n      jumpi\n        /* \"#utility.yul\":3279:3358   */\n      tag_232\n      tag_132\n      jump\t// in\n    tag_232:\n        /* \"#utility.yul\":3243:3360   */\n    tag_231:\n        /* \"#utility.yul\":3384:3447   */\n      tag_233\n        /* \"#utility.yul\":3439:3446   */\n      dup7\n        /* \"#utility.yul\":3430:3436   */\n      dup3\n        /* \"#utility.yul\":3419:3428   */\n      dup8\n        /* \"#utility.yul\":3415:3437   */\n      add\n        /* \"#utility.yul\":3384:3447   */\n      tag_142\n      jump\t// in\n    tag_233:\n        /* \"#utility.yul\":3374:3447   */\n      swap4\n      pop\n        /* \"#utility.yul\":3170:3457   */\n      pop\n        /* \"#utility.yul\":3496:3498   */\n      0x20\n        /* \"#utility.yul\":3522:3575   */\n      tag_234\n        /* \"#utility.yul\":3567:3574   */\n      dup7\n        /* \"#utility.yul\":3558:3564   */\n      dup3\n        /* \"#utility.yul\":3547:3556   */\n      dup8\n        /* \"#utility.yul\":3543:3565   */\n      add\n        /* \"#utility.yul\":3522:3575   */\n      tag_145\n      jump\t// in\n    tag_234:\n        /* \"#utility.yul\":3512:3575   */\n      swap3\n      pop\n        /* \"#utility.yul\":3467:3585   */\n      pop\n        /* \"#utility.yul\":3652:3654   */\n      0x40\n        /* \"#utility.yul\":3641:3650   */\n      dup5\n        /* \"#utility.yul\":3637:3655   */\n      add\n        /* \"#utility.yul\":3624:3656   */\n      calldataload\n        /* \"#utility.yul\":3683:3701   */\n      0xffffffffffffffff\n        /* \"#utility.yul\":3675:3681   */\n      dup2\n        /* \"#utility.yul\":3672:3702   */\n      gt\n        /* \"#utility.yul\":3669:3786   */\n      iszero\n      tag_235\n      jumpi\n        /* \"#utility.yul\":3705:3784   */\n      tag_236\n      tag_132\n      jump\t// in\n    tag_236:\n        /* \"#utility.yul\":3669:3786   */\n    tag_235:\n        /* \"#utility.yul\":3810:3873   */\n      tag_237\n        /* \"#utility.yul\":3865:3872   */\n      dup7\n        /* \"#utility.yul\":3856:3862   */\n      dup3\n        /* \"#utility.yul\":3845:3854   */\n      dup8\n        /* \"#utility.yul\":3841:3863   */\n      add\n        /* \"#utility.yul\":3810:3873   */\n      tag_142\n      jump\t// in\n    tag_237:\n        /* \"#utility.yul\":3800:3873   */\n      swap2\n      pop\n        /* \"#utility.yul\":3595:3883   */\n      pop\n        /* \"#utility.yul\":2911:3890   */\n      swap3\n      pop\n      swap3\n      pop\n      swap3\n      jump\t// out\n        /* \"#utility.yul\":3896:4020   */\n    tag_146:\n        /* \"#utility.yul\":3973:3979   */\n      0x00\n        /* \"#utility.yul\":4007:4012   */\n      dup2\n        /* \"#utility.yul\":4001:4013   */\n      mload\n        /* \"#utility.yul\":3991:4013   */\n      swap1\n      pop\n        /* \"#utility.yul\":3896:4020   */\n      swap2\n      swap1\n      pop\n      jump\t// out\n        /* \"#utility.yul\":4026:4220   */\n    tag_147:\n        /* \"#utility.yul\":4135:4146   */\n      0x00\n        /* \"#utility.yul\":4169:4175   */\n      dup3\n        /* \"#utility.yul\":4164:4167   */\n      dup3\n        /* \"#utility.yul\":4157:4176   */\n      mstore\n        /* \"#utility.yul\":4209:4213   */\n      0x20\n        /* \"#utility.yul\":4204:4207   */\n      dup3\n        /* \"#utility.yul\":4200:4214   */\n      add\n        /* \"#utility.yul\":4185:4214   */\n      swap1\n      pop\n        /* \"#utility.yul\":4026:4220   */\n      swap3\n      swap2\n      pop\n      pop\n      jump\t// out\n        /* \"#utility.yul\":4226:4368   */\n    tag_148:\n        /* \"#utility.yul\":4303:4307   */\n      0x00\n        /* \"#utility.yul\":4326:4329   */\n      dup2\n        /* \"#utility.yul\":4318:4329   */\n      swap1\n      pop\n        /* \"#utility.yul\":4356:4360   */\n      0x20\n        /* \"#utility.yul\":4351:4354   */\n      dup3\n        /* \"#utility.yul\":4347:4361   */\n      add\n        /* \"#utility.yul\":4339:4361   */\n      swap1\n      pop\n        /* \"#utility.yul\":4226:4368   */\n      swap2\n      swap1\n      pop\n      jump\t// out\n        /* \"#utility.yul\":4374:4473   */\n    tag_149:\n        /* \"#utility.yul\":4426:4432   */\n      0x00\n        /* \"#utility.yul\":4460:4465   */\n      dup2\n        /* \"#utility.yul\":4454:4466   */\n      mload\n        /* \"#utility.yul\":4444:4466   */\n      swap1\n      pop\n        /* \"#utility.yul\":4374:4473   */\n      swap2\n      swap1\n      pop\n      jump\t// out\n        /* \"#utility.yul\":4479:4638   */\n    tag_150:\n        /* \"#utility.yul\":4553:4564   */\n      0x00\n        /* \"#utility.yul\":4587:4593   */\n      dup3\n        /* \"#utility.yul\":4582:4585   */\n      dup3\n        /* \"#utility.yul\":4575:4594   */\n      mstore\n        /* \"#utility.yul\":4627:4631   */\n      0x20\n        /* \"#utility.yul\":4622:4625   */\n      dup3\n        /* \"#utility.yul\":4618:4632   */\n      add\n        /* \"#utility.yul\":4603:4632   */\n      swap1\n      pop\n        /* \"#utility.yul\":4479:4638   */\n      swap3\n      swap2\n      pop\n      pop\n      jump\t// out\n        /* \"#utility.yul\":4644:4783   */\n    tag_151:\n        /* \"#utility.yul\":4733:4739   */\n      dup3\n        /* \"#utility.yul\":4728:4731   */\n      dup2\n        /* \"#utility.yul\":4723:4726   */\n      dup4\n        /* \"#utility.yul\":4717:4740   */\n      mcopy\n        /* \"#utility.yul\":4774:4775   */\n      0x00\n        /* \"#utility.yul\":4765:4771   */\n      dup4\n        /* \"#utility.yul\":4760:4763   */\n      dup4\n        /* \"#utility.yul\":4756:4772   */\n      add\n        /* \"#utility.yul\":4749:4776   */\n      mstore\n        /* \"#utility.yul\":4644:4783   */\n      pop\n      pop\n      pop\n      jump\t// out\n        /* \"#utility.yul\":4789:5146   */\n    tag_152:\n        /* \"#utility.yul\":4867:4870   */\n      0x00\n        /* \"#utility.yul\":4895:4934   */\n      tag_245\n        /* \"#utility.yul\":4928:4933   */\n      dup3\n        /* \"#utility.yul\":4895:4934   */\n      tag_149\n      jump\t// in\n    tag_245:\n        /* \"#utility.yul\":4950:5011   */\n      tag_246\n        /* \"#utility.yul\":5004:5010   */\n      dup2\n        /* \"#utility.yul\":4999:5002   */\n      dup6\n        /* \"#utility.yul\":4950:5011   */\n      tag_150\n      jump\t// in\n    tag_246:\n        /* \"#utility.yul\":4943:5011   */\n      swap4\n      pop\n        /* \"#utility.yul\":5020:5085   */\n      tag_247\n        /* \"#utility.yul\":5078:5084   */\n      dup2\n        /* \"#utility.yul\":5073:5076   */\n      dup6\n        /* \"#utility.yul\":5066:5070   */\n      0x20\n        /* \"#utility.yul\":5059:5064   */\n      dup7\n        /* \"#utility.yul\":5055:5071   */\n      add\n        /* \"#utility.yul\":5020:5085   */\n      tag_151\n      jump\t// in\n    tag_247:\n        /* \"#utility.yul\":5110:5139   */\n      tag_248\n        /* \"#utility.yul\":5132:5138   */\n      dup2\n        /* \"#utility.yul\":5110:5139   */\n      tag_135\n      jump\t// in\n    tag_248:\n        /* \"#utility.yul\":5105:5108   */\n      dup5\n        /* \"#utility.yul\":5101:5140   */\n      add\n        /* \"#utility.yul\":5094:5140   */\n      swap2\n      pop\n        /* \"#utility.yul\":4871:5146   */\n      pop\n        /* \"#utility.yul\":4789:5146   */\n      swap3\n      swap2\n      pop\n      pop\n      jump\t// out\n        /* \"#utility.yul\":5152:5348   */\n    tag_153:\n        /* \"#utility.yul\":5241:5251   */\n      0x00\n        /* \"#utility.yul\":5276:5342   */\n      tag_250\n        /* \"#utility.yul\":5338:5341   */\n      dup4\n        /* \"#utility.yul\":5330:5336   */\n      dup4\n        /* \"#utility.yul\":5276:5342   */\n      tag_152\n      jump\t// in\n    tag_250:\n        /* \"#utility.yul\":5262:5342   */\n      swap1\n      pop\n        /* \"#utility.yul\":5152:5348   */\n      swap3\n      swap2\n      pop\n      pop\n      jump\t// out\n        /* \"#utility.yul\":5354:5477   */\n    tag_154:\n        /* \"#utility.yul\":5434:5438   */\n      0x00\n        /* \"#utility.yul\":5466:5470   */\n      0x20\n        /* \"#utility.yul\":5461:5464   */\n      dup3\n        /* \"#utility.yul\":5457:5471   */\n      add\n        /* \"#utility.yul\":5449:5471   */\n      swap1\n      pop\n        /* \"#utility.yul\":5354:5477   */\n      swap2\n      swap1\n      pop\n      jump\t// out\n        /* \"#utility.yul\":5511:6502   */\n    tag_155:\n        /* \"#utility.yul\":5650:5653   */\n      0x00\n        /* \"#utility.yul\":5679:5743   */\n      tag_253\n        /* \"#utility.yul\":5737:5742   */\n      dup3\n        /* \"#utility.yul\":5679:5743   */\n      tag_146\n      jump\t// in\n    tag_253:\n        /* \"#utility.yul\":5759:5855   */\n      tag_254\n        /* \"#utility.yul\":5848:5854   */\n      dup2\n        /* \"#utility.yul\":5843:5846   */\n      dup6\n        /* \"#utility.yul\":5759:5855   */\n      tag_147\n      jump\t// in\n    tag_254:\n        /* \"#utility.yul\":5752:5855   */\n      swap4\n      pop\n        /* \"#utility.yul\":5881:5884   */\n      dup4\n        /* \"#utility.yul\":5926:5930   */\n      0x20\n        /* \"#utility.yul\":5918:5924   */\n      dup3\n        /* \"#utility.yul\":5914:5931   */\n      mul\n        /* \"#utility.yul\":5909:5912   */\n      dup6\n        /* \"#utility.yul\":5905:5932   */\n      add\n        /* \"#utility.yul\":5956:6022   */\n      tag_255\n        /* \"#utility.yul\":6016:6021   */\n      dup6\n        /* \"#utility.yul\":5956:6022   */\n      tag_148\n      jump\t// in\n    tag_255:\n        /* \"#utility.yul\":6045:6052   */\n      dup1\n        /* \"#utility.yul\":6076:6077   */\n      0x00\n        /* \"#utility.yul\":6061:6457   */\n    tag_256:\n        /* \"#utility.yul\":6086:6092   */\n      dup6\n        /* \"#utility.yul\":6083:6084   */\n      dup2\n        /* \"#utility.yul\":6080:6093   */\n      lt\n        /* \"#utility.yul\":6061:6457   */\n      iszero\n      tag_258\n      jumpi\n        /* \"#utility.yul\":6157:6166   */\n      dup5\n        /* \"#utility.yul\":6151:6155   */\n      dup5\n        /* \"#utility.yul\":6147:6167   */\n      sub\n        /* \"#utility.yul\":6142:6145   */\n      dup10\n        /* \"#utility.yul\":6135:6168   */\n      mstore\n        /* \"#utility.yul\":6208:6214   */\n      dup2\n        /* \"#utility.yul\":6202:6215   */\n      mload\n        /* \"#utility.yul\":6236:6320   */\n      tag_259\n        /* \"#utility.yul\":6315:6319   */\n      dup6\n        /* \"#utility.yul\":6300:6313   */\n      dup3\n        /* \"#utility.yul\":6236:6320   */\n      tag_153\n      jump\t// in\n    tag_259:\n        /* \"#utility.yul\":6228:6320   */\n      swap5\n      pop\n        /* \"#utility.yul\":6343:6413   */\n      tag_260\n        /* \"#utility.yul\":6406:6412   */\n      dup4\n        /* \"#utility.yul\":6343:6413   */\n      tag_154\n      jump\t// in\n    tag_260:\n        /* \"#utility.yul\":6333:6413   */\n      swap3\n      pop\n        /* \"#utility.yul\":6442:6446   */\n      0x20\n        /* \"#utility.yul\":6437:6440   */\n      dup11\n        /* \"#utility.yul\":6433:6447   */\n      add\n        /* \"#utility.yul\":6426:6447   */\n      swap10\n      pop\n        /* \"#utility.yul\":6121:6457   */\n      pop\n        /* \"#utility.yul\":6108:6109   */\n      0x01\n        /* \"#utility.yul\":6105:6106   */\n      dup2\n        /* \"#utility.yul\":6101:6110   */\n      add\n        /* \"#utility.yul\":6096:6110   */\n      swap1\n      pop\n        /* \"#utility.yul\":6061:6457   */\n      jump(tag_256)\n    tag_258:\n        /* \"#utility.yul\":6065:6079   */\n      pop\n        /* \"#utility.yul\":6473:6477   */\n      dup3\n        /* \"#utility.yul\":6466:6477   */\n      swap8\n      pop\n        /* \"#utility.yul\":6493:6496   */\n      dup8\n        /* \"#utility.yul\":6486:6496   */\n      swap6\n      pop\n        /* \"#utility.yul\":5655:6502   */\n      pop\n      pop\n      pop\n      pop\n      pop\n        /* \"#utility.yul\":5511:6502   */\n      swap3\n      swap2\n      pop\n      pop\n      jump\t// out\n        /* \"#utility.yul\":6508:6921   */\n    tag_19:\n        /* \"#utility.yul\":6671:6675   */\n      0x00\n        /* \"#utility.yul\":6709:6711   */\n      0x20\n        /* \"#utility.yul\":6698:6707   */\n      dup3\n        /* \"#utility.yul\":6694:6712   */\n      add\n        /* \"#utility.yul\":6686:6712   */\n      swap1\n      pop\n        /* \"#utility.yul\":6758:6767   */\n      dup2\n        /* \"#utility.yul\":6752:6756   */\n      dup2\n        /* \"#utility.yul\":6748:6768   */\n      sub\n        /* \"#utility.yul\":6744:6745   */\n      0x00\n        /* \"#utility.yul\":6733:6742   */\n      dup4\n        /* \"#utility.yul\":6729:6746   */\n      add\n        /* \"#utility.yul\":6722:6769   */\n      mstore\n        /* \"#utility.yul\":6786:6914   */\n      tag_262\n        /* \"#utility.yul\":6909:6913   */\n      dup2\n        /* \"#utility.yul\":6900:6906   */\n      dup5\n        /* \"#utility.yul\":6786:6914   */\n      tag_155\n      jump\t// in\n    tag_262:\n        /* \"#utility.yul\":6778:6914   */\n      swap1\n      pop\n        /* \"#utility.yul\":6508:6921   */\n      swap3\n      swap2\n      pop\n      pop\n      jump\t// out\n        /* \"#utility.yul\":6927:7045   */\n    tag_156:\n        /* \"#utility.yul\":7014:7038   */\n      tag_264\n        /* \"#utility.yul\":7032:7037   */\n      dup2\n        /* \"#utility.yul\":7014:7038   */\n      tag_143\n      jump\t// in\n    tag_264:\n        /* \"#utility.yul\":7009:7012   */\n      dup3\n        /* \"#utility.yul\":7002:7039   */\n      mstore\n        /* \"#utility.yul\":6927:7045   */\n      pop\n      pop\n      jump\t// out\n        /* \"#utility.yul\":7051:7273   */\n    tag_23:\n        /* \"#utility.yul\":7144:7148   */\n      0x00\n        /* \"#utility.yul\":7182:7184   */\n      0x20\n        /* \"#utility.yul\":7171:7180   */\n      dup3\n        /* \"#utility.yul\":7167:7185   */\n      add\n        /* \"#utility.yul\":7159:7185   */\n      swap1\n      pop\n        /* \"#utility.yul\":7195:7266   */\n      tag_266\n        /* \"#utility.yul\":7263:7264   */\n      0x00\n        /* \"#utility.yul\":7252:7261   */\n      dup4\n        /* \"#utility.yul\":7248:7265   */\n      add\n        /* \"#utility.yul\":7239:7245   */\n      dup5\n        /* \"#utility.yul\":7195:7266   */\n      tag_156\n      jump\t// in\n    tag_266:\n        /* \"#utility.yul\":7051:7273   */\n      swap3\n      swap2\n      pop\n      pop\n      jump\t// out\n        /* \"#utility.yul\":7279:7788   */\n    tag_26:\n        /* \"#utility.yul\":7348:7354   */\n      0x00\n        /* \"#utility.yul\":7397:7399   */\n      0x20\n        /* \"#utility.yul\":7385:7394   */\n      dup3\n        /* \"#utility.yul\":7376:7383   */\n      dup5\n        /* \"#utility.yul\":7372:7395   */\n      sub\n        /* \"#utility.yul\":7368:7400   */\n      slt\n        /* \"#utility.yul\":7365:7484   */\n      iszero\n      tag_268\n      jumpi\n        /* \"#utility.yul\":7403:7482   */\n      tag_269\n      tag_131\n      jump\t// in\n    tag_269:\n        /* \"#utility.yul\":7365:7484   */\n    tag_268:\n        /* \"#utility.yul\":7551:7552   */\n      0x00\n        /* \"#utility.yul\":7540:7549   */\n      dup3\n        /* \"#utility.yul\":7536:7553   */\n      add\n        /* \"#utility.yul\":7523:7554   */\n      calldataload\n        /* \"#utility.yul\":7581:7599   */\n      0xffffffffffffffff\n        /* \"#utility.yul\":7573:7579   */\n      dup2\n        /* \"#utility.yul\":7570:7600   */\n      gt\n        /* \"#utility.yul\":7567:7684   */\n      iszero\n      tag_270\n      jumpi\n        /* \"#utility.yul\":7603:7682   */\n      tag_271\n      tag_132\n      jump\t// in\n    tag_271:\n        /* \"#utility.yul\":7567:7684   */\n    tag_270:\n        /* \"#utility.yul\":7708:7771   */\n      tag_272\n        /* \"#utility.yul\":7763:7770   */\n      dup5\n        /* \"#utility.yul\":7754:7760   */\n      dup3\n        /* \"#utility.yul\":7743:7752   */\n      dup6\n        /* \"#utility.yul\":7739:7761   */\n      add\n        /* \"#utility.yul\":7708:7771   */\n      tag_142\n      jump\t// in\n    tag_272:\n        /* \"#utility.yul\":7698:7771   */\n      swap2\n      pop\n        /* \"#utility.yul\":7494:7781   */\n      pop\n        /* \"#utility.yul\":7279:7788   */\n      swap3\n      swap2\n      pop\n      pop\n      jump\t// out\n        /* \"#utility.yul\":7794:7963   */\n    tag_157:\n        /* \"#utility.yul\":7878:7889   */\n      0x00\n        /* \"#utility.yul\":7912:7918   */\n      dup3\n        /* \"#utility.yul\":7907:7910   */\n      dup3\n        /* \"#utility.yul\":7900:7919   */\n      mstore\n        /* \"#utility.yul\":7952:7956   */\n      0x20\n        /* \"#utility.yul\":7947:7950   */\n      dup3\n        /* \"#utility.yul\":7943:7957   */\n      add\n        /* \"#utility.yul\":7928:7957   */\n      swap1\n      pop\n        /* \"#utility.yul\":7794:7963   */\n      swap3\n      swap2\n      pop\n      pop\n      jump\t// out\n        /* \"#utility.yul\":7969:8346   */\n    tag_158:\n        /* \"#utility.yul\":8057:8060   */\n      0x00\n        /* \"#utility.yul\":8085:8124   */\n      tag_275\n        /* \"#utility.yul\":8118:8123   */\n      dup3\n        /* \"#utility.yul\":8085:8124   */\n      tag_149\n      jump\t// in\n    tag_275:\n        /* \"#utility.yul\":8140:8211   */\n      tag_276\n        /* \"#utility.yul\":8204:8210   */\n      dup2\n        /* \"#utility.yul\":8199:8202   */\n      dup6\n        /* \"#utility.yul\":8140:8211   */\n      tag_157\n      jump\t// in\n    tag_276:\n        /* \"#utility.yul\":8133:8211   */\n      swap4\n      pop\n        /* \"#utility.yul\":8220:8285   */\n      tag_277\n        /* \"#utility.yul\":8278:8284   */\n      dup2\n        /* \"#utility.yul\":8273:8276   */\n      dup6\n        /* \"#utility.yul\":8266:8270   */\n      0x20\n        /* \"#utility.yul\":8259:8264   */\n      dup7\n        /* \"#utility.yul\":8255:8271   */\n      add\n        /* \"#utility.yul\":8220:8285   */\n      tag_151\n      jump\t// in\n    tag_277:\n        /* \"#utility.yul\":8310:8339   */\n      tag_278\n        /* \"#utility.yul\":8332:8338   */\n      dup2\n        /* \"#utility.yul\":8310:8339   */\n      tag_135\n      jump\t// in\n    tag_278:\n        /* \"#utility.yul\":8305:8308   */\n      dup5\n        /* \"#utility.yul\":8301:8340   */\n      add\n        /* \"#utility.yul\":8294:8340   */\n      swap2\n      pop\n        /* \"#utility.yul\":8061:8346   */\n      pop\n        /* \"#utility.yul\":7969:8346   */\n      swap3\n      swap2\n      pop\n      pop\n      jump\t// out\n        /* \"#utility.yul\":8352:8429   */\n    tag_159:\n        /* \"#utility.yul\":8389:8396   */\n      0x00\n        /* \"#utility.yul\":8418:8423   */\n      dup2\n        /* \"#utility.yul\":8407:8423   */\n      swap1\n      pop\n        /* \"#utility.yul\":8352:8429   */\n      swap2\n      swap1\n      pop\n      jump\t// out\n        /* \"#utility.yul\":8435:8553   */\n    tag_160:\n        /* \"#utility.yul\":8522:8546   */\n      tag_281\n        /* \"#utility.yul\":8540:8545   */\n      dup2\n        /* \"#utility.yul\":8522:8546   */\n      tag_159\n      jump\t// in\n    tag_281:\n        /* \"#utility.yul\":8517:8520   */\n      dup3\n        /* \"#utility.yul\":8510:8547   */\n      mstore\n        /* \"#utility.yul\":8435:8553   */\n      pop\n      pop\n      jump\t// out\n        /* \"#utility.yul\":8559:9405   */\n    tag_29:\n        /* \"#utility.yul\":8804:8808   */\n      0x00\n        /* \"#utility.yul\":8842:8845   */\n      0xa0\n        /* \"#utility.yul\":8831:8840   */\n      dup3\n        /* \"#utility.yul\":8827:8846   */\n      add\n        /* \"#utility.yul\":8819:8846   */\n      swap1\n      pop\n        /* \"#utility.yul\":8892:8901   */\n      dup2\n        /* \"#utility.yul\":8886:8890   */\n      dup2\n        /* \"#utility.yul\":8882:8902   */\n      sub\n        /* \"#utility.yul\":8878:8879   */\n      0x00\n        /* \"#utility.yul\":8867:8876   */\n      dup4\n        /* \"#utility.yul\":8863:8880   */\n      add\n        /* \"#utility.yul\":8856:8903   */\n      mstore\n        /* \"#utility.yul\":8920:8998   */\n      tag_283\n        /* \"#utility.yul\":8993:8997   */\n      dup2\n        /* \"#utility.yul\":8984:8990   */\n      dup9\n        /* \"#utility.yul\":8920:8998   */\n      tag_158\n      jump\t// in\n    tag_283:\n        /* \"#utility.yul\":8912:8998   */\n      swap1\n      pop\n        /* \"#utility.yul\":9008:9080   */\n      tag_284\n        /* \"#utility.yul\":9076:9078   */\n      0x20\n        /* \"#utility.yul\":9065:9074   */\n      dup4\n        /* \"#utility.yul\":9061:9079   */\n      add\n        /* \"#utility.yul\":9052:9058   */\n      dup8\n        /* \"#utility.yul\":9008:9080   */\n      tag_156\n      jump\t// in\n    tag_284:\n        /* \"#utility.yul\":9127:9136   */\n      dup2\n        /* \"#utility.yul\":9121:9125   */\n      dup2\n        /* \"#utility.yul\":9117:9137   */\n      sub\n        /* \"#utility.yul\":9112:9114   */\n      0x40\n        /* \"#utility.yul\":9101:9110   */\n      dup4\n        /* \"#utility.yul\":9097:9115   */\n      add\n        /* \"#utility.yul\":9090:9138   */\n      mstore\n        /* \"#utility.yul\":9155:9233   */\n      tag_285\n        /* \"#utility.yul\":9228:9232   */\n      dup2\n        /* \"#utility.yul\":9219:9225   */\n      dup7\n        /* \"#utility.yul\":9155:9233   */\n      tag_158\n      jump\t// in\n    tag_285:\n        /* \"#utility.yul\":9147:9233   */\n      swap1\n      pop\n        /* \"#utility.yul\":9243:9315   */\n      tag_286\n        /* \"#utility.yul\":9311:9313   */\n      0x60\n        /* \"#utility.yul\":9300:9309   */\n      dup4\n        /* \"#utility.yul\":9296:9314   */\n      add\n        /* \"#utility.yul\":9287:9293   */\n      dup6\n        /* \"#utility.yul\":9243:9315   */\n      tag_156\n      jump\t// in\n    tag_286:\n        /* \"#utility.yul\":9325:9398   */\n      tag_287\n        /* \"#utility.yul\":9393:9396   */\n      0x80\n        /* \"#utility.yul\":9382:9391   */\n      dup4\n        /* \"#utility.yul\":9378:9397   */\n      add\n        /* \"#utility.yul\":9369:9375   */\n      dup5\n        /* \"#utility.yul\":9325:9398   */\n      tag_160\n      jump\t// in\n    tag_287:\n        /* \"#utility.yul\":8559:9405   */\n      swap7\n      swap6\n      pop\n      pop\n      pop\n      pop\n      pop\n      pop\n      jump\t// out\n        /* \"#utility.yul\":9411:10055   */\n    tag_34:\n        /* \"#utility.yul\":9608:9612   */\n      0x00\n        /* \"#utility.yul\":9646:9649   */\n      0x80\n        /* \"#utility.yul\":9635:9644   */\n      dup3\n        /* \"#utility.yul\":9631:9650   */\n      add\n        /* \"#utility.yul\":9623:9650   */\n      swap1\n      pop\n        /* \"#utility.yul\":9660:9731   */\n      tag_289\n        /* \"#utility.yul\":9728:9729   */\n      0x00\n        /* \"#utility.yul\":9717:9726   */\n      dup4\n        /* \"#utility.yul\":9713:9730   */\n      add\n        /* \"#utility.yul\":9704:9710   */\n      dup8\n        /* \"#utility.yul\":9660:9731   */\n      tag_156\n      jump\t// in\n    tag_289:\n        /* \"#utility.yul\":9778:9787   */\n      dup2\n        /* \"#utility.yul\":9772:9776   */\n      dup2\n        /* \"#utility.yul\":9768:9788   */\n      sub\n        /* \"#utility.yul\":9763:9765   */\n      0x20\n        /* \"#utility.yul\":9752:9761   */\n      dup4\n        /* \"#utility.yul\":9748:9766   */\n      add\n        /* \"#utility.yul\":9741:9789   */\n      mstore\n        /* \"#utility.yul\":9806:9884   */\n      tag_290\n        /* \"#utility.yul\":9879:9883   */\n      dup2\n        /* \"#utility.yul\":9870:9876   */\n      dup7\n        /* \"#utility.yul\":9806:9884   */\n      tag_158\n      jump\t// in\n    tag_290:\n        /* \"#utility.yul\":9798:9884   */\n      swap1\n      pop\n        /* \"#utility.yul\":9894:9966   */\n      tag_291\n        /* \"#utility.yul\":9962:9964   */\n      0x40\n        /* \"#utility.yul\":9951:9960   */\n      dup4\n        /* \"#utility.yul\":9947:9965   */\n      add\n        /* \"#utility.yul\":9938:9944   */\n      dup6\n        /* \"#utility.yul\":9894:9966   */\n      tag_156\n      jump\t// in\n    tag_291:\n        /* \"#utility.yul\":9976:10048   */\n      tag_292\n        /* \"#utility.yul\":10044:10046   */\n      0x60\n        /* \"#utility.yul\":10033:10042   */\n      dup4\n        /* \"#utility.yul\":10029:10047   */\n      add\n        /* \"#utility.yul\":10020:10026   */\n      dup5\n        /* \"#utility.yul\":9976:10048   */\n      tag_160\n      jump\t// in\n    tag_292:\n        /* \"#utility.yul\":9411:10055   */\n      swap6\n      swap5\n      pop\n      pop\n      pop\n      pop\n      pop\n      jump\t// out\n        /* \"#utility.yul\":10061:10390   */\n    tag_37:\n        /* \"#utility.yul\":10120:10126   */\n      0x00\n        /* \"#utility.yul\":10169:10171   */\n      0x20\n        /* \"#utility.yul\":10157:10166   */\n      dup3\n        /* \"#utility.yul\":10148:10155   */\n      dup5\n        /* \"#utility.yul\":10144:10167   */\n      sub\n        /* \"#utility.yul\":10140:10172   */\n      slt\n        /* \"#utility.yul\":10137:10256   */\n      iszero\n      tag_294\n      jumpi\n        /* \"#utility.yul\":10175:10254   */\n      tag_295\n      tag_131\n      jump\t// in\n    tag_295:\n        /* \"#utility.yul\":10137:10256   */\n    tag_294:\n        /* \"#utility.yul\":10295:10296   */\n      0x00\n        /* \"#utility.yul\":10320:10373   */\n      tag_296\n        /* \"#utility.yul\":10365:10372   */\n      dup5\n        /* \"#utility.yul\":10356:10362   */\n      dup3\n        /* \"#utility.yul\":10345:10354   */\n      dup6\n        /* \"#utility.yul\":10341:10363   */\n      add\n        /* \"#utility.yul\":10320:10373   */\n      tag_145\n      jump\t// in\n    tag_296:\n        /* \"#utility.yul\":10310:10373   */\n      swap2\n      pop\n        /* \"#utility.yul\":10266:10383   */\n      pop\n        /* \"#utility.yul\":10061:10390   */\n      swap3\n      swap2\n      pop\n      pop\n      jump\t// out\n        /* \"#utility.yul\":10396:10709   */\n    tag_40:\n        /* \"#utility.yul\":10509:10513   */\n      0x00\n        /* \"#utility.yul\":10547:10549   */\n      0x20\n        /* \"#utility.yul\":10536:10545   */\n      dup3\n        /* \"#utility.yul\":10532:10550   */\n      add\n        /* \"#utility.yul\":10524:10550   */\n      swap1\n      pop\n        /* \"#utility.yul\":10596:10605   */\n      dup2\n        /* \"#utility.yul\":10590:10594   */\n      dup2\n        /* \"#utility.yul\":10586:10606   */\n      sub\n        /* \"#utility.yul\":10582:10583   */\n      0x00\n        /* \"#utility.yul\":10571:10580   */\n      dup4\n        /* \"#utility.yul\":10567:10584   */\n      add\n        /* \"#utility.yul\":10560:10607   */\n      mstore\n        /* \"#utility.yul\":10624:10702   */\n      tag_298\n        /* \"#utility.yul\":10697:10701   */\n      dup2\n        /* \"#utility.yul\":10688:10694   */\n      dup5\n        /* \"#utility.yul\":10624:10702   */\n      tag_158\n      jump\t// in\n    tag_298:\n        /* \"#utility.yul\":10616:10702   */\n      swap1\n      pop\n        /* \"#utility.yul\":10396:10709   */\n      swap3\n      swap2\n      pop\n      pop\n      jump\t// out\n        /* \"#utility.yul\":10715:10841   */\n    tag_161:\n        /* \"#utility.yul\":10752:10759   */\n      0x00\n        /* \"#utility.yul\":10792:10834   */\n      0xffffffffffffffffffffffffffffffffffffffff\n        /* \"#utility.yul\":10785:10790   */\n      dup3\n        /* \"#utility.yul\":10781:10835   */\n      and\n        /* \"#utility.yul\":10770:10835   */\n      swap1\n      pop\n        /* \"#utility.yul\":10715:10841   */\n      swap2\n      swap1\n      pop\n      jump\t// out\n        /* \"#utility.yul\":10847:10943   */\n    tag_162:\n        /* \"#utility.yul\":10884:10891   */\n      0x00\n        /* \"#utility.yul\":10913:10937   */\n      tag_301\n        /* \"#utility.yul\":10931:10936   */\n      dup3\n        /* \"#utility.yul\":10913:10937   */\n      tag_161\n      jump\t// in\n    tag_301:\n        /* \"#utility.yul\":10902:10937   */\n      swap1\n      pop\n        /* \"#utility.yul\":10847:10943   */\n      swap2\n      swap1\n      pop\n      jump\t// out\n        /* \"#utility.yul\":10949:11067   */\n    tag_163:\n        /* \"#utility.yul\":11036:11060   */\n      tag_303\n        /* \"#utility.yul\":11054:11059   */\n      dup2\n        /* \"#utility.yul\":11036:11060   */\n      tag_162\n      jump\t// in\n    tag_303:\n        /* \"#utility.yul\":11031:11034   */\n      dup3\n        /* \"#utility.yul\":11024:11061   */\n      mstore\n        /* \"#utility.yul\":10949:11067   */\n      pop\n      pop\n      jump\t// out\n        /* \"#utility.yul\":11073:11295   */\n    tag_44:\n        /* \"#utility.yul\":11166:11170   */\n      0x00\n        /* \"#utility.yul\":11204:11206   */\n      0x20\n        /* \"#utility.yul\":11193:11202   */\n      dup3\n        /* \"#utility.yul\":11189:11207   */\n      add\n        /* \"#utility.yul\":11181:11207   */\n      swap1\n      pop\n        /* \"#utility.yul\":11217:11288   */\n      tag_305\n        /* \"#utility.yul\":11285:11286   */\n      0x00\n        /* \"#utility.yul\":11274:11283   */\n      dup4\n        /* \"#utility.yul\":11270:11287   */\n      add\n        /* \"#utility.yul\":11261:11267   */\n      dup5\n        /* \"#utility.yul\":11217:11288   */\n      tag_163\n      jump\t// in\n    tag_305:\n        /* \"#utility.yul\":11073:11295   */\n      swap3\n      swap2\n      pop\n      pop\n      jump\t// out\n        /* \"#utility.yul\":11301:11523   */\n    tag_49:\n        /* \"#utility.yul\":11394:11398   */\n      0x00\n        /* \"#utility.yul\":11432:11434   */\n      0x20\n        /* \"#utility.yul\":11421:11430   */\n      dup3\n        /* \"#utility.yul\":11417:11435   */\n      add\n        /* \"#utility.yul\":11409:11435   */\n      swap1\n      pop\n        /* \"#utility.yul\":11445:11516   */\n      tag_307\n        /* \"#utility.yul\":11513:11514   */\n      0x00\n        /* \"#utility.yul\":11502:11511   */\n      dup4\n        /* \"#utility.yul\":11498:11515   */\n      add\n        /* \"#utility.yul\":11489:11495   */\n      dup5\n        /* \"#utility.yul\":11445:11516   */\n      tag_160\n      jump\t// in\n    tag_307:\n        /* \"#utility.yul\":11301:11523   */\n      swap3\n      swap2\n      pop\n      pop\n      jump\t// out\n        /* \"#utility.yul\":11529:11677   */\n    tag_164:\n        /* \"#utility.yul\":11631:11642   */\n      0x00\n        /* \"#utility.yul\":11668:11671   */\n      dup2\n        /* \"#utility.yul\":11653:11671   */\n      swap1\n      pop\n        /* \"#utility.yul\":11529:11677   */\n      swap3\n      swap2\n      pop\n      pop\n      jump\t// out\n        /* \"#utility.yul\":11683:12073   */\n    tag_165:\n        /* \"#utility.yul\":11789:11792   */\n      0x00\n        /* \"#utility.yul\":11817:11856   */\n      tag_310\n        /* \"#utility.yul\":11850:11855   */\n      dup3\n        /* \"#utility.yul\":11817:11856   */\n      tag_149\n      jump\t// in\n    tag_310:\n        /* \"#utility.yul\":11872:11961   */\n      tag_311\n        /* \"#utility.yul\":11954:11960   */\n      dup2\n        /* \"#utility.yul\":11949:11952   */\n      dup6\n        /* \"#utility.yul\":11872:11961   */\n      tag_164\n      jump\t// in\n    tag_311:\n        /* \"#utility.yul\":11865:11961   */\n      swap4\n      pop\n        /* \"#utility.yul\":11970:12035   */\n      tag_312\n        /* \"#utility.yul\":12028:12034   */\n      dup2\n        /* \"#utility.yul\":12023:12026   */\n      dup6\n        /* \"#utility.yul\":12016:12020   */\n      0x20\n        /* \"#utility.yul\":12009:12014   */\n      dup7\n        /* \"#utility.yul\":12005:12021   */\n      add\n        /* \"#utility.yul\":11970:12035   */\n      tag_151\n      jump\t// in\n    tag_312:\n        /* \"#utility.yul\":12060:12066   */\n      dup1\n        /* \"#utility.yul\":12055:12058   */\n      dup5\n        /* \"#utility.yul\":12051:12067   */\n      add\n        /* \"#utility.yul\":12044:12067   */\n      swap2\n      pop\n        /* \"#utility.yul\":11793:12073   */\n      pop\n        /* \"#utility.yul\":11683:12073   */\n      swap3\n      swap2\n      pop\n      pop\n      jump\t// out\n        /* \"#utility.yul\":12079:12354   */\n    tag_52:\n        /* \"#utility.yul\":12211:12214   */\n      0x00\n        /* \"#utility.yul\":12233:12328   */\n      tag_314\n        /* \"#utility.yul\":12324:12327   */\n      dup3\n        /* \"#utility.yul\":12315:12321   */\n      dup5\n        /* \"#utility.yul\":12233:12328   */\n      tag_165\n      jump\t// in\n    tag_314:\n        /* \"#utility.yul\":12226:12328   */\n      swap2\n      pop\n        /* \"#utility.yul\":12345:12348   */\n      dup2\n        /* \"#utility.yul\":12338:12348   */\n      swap1\n      pop\n        /* \"#utility.yul\":12079:12354   */\n      swap3\n      swap2\n      pop\n      pop\n      jump\t// out\n        /* \"#utility.yul\":12360:12540   */\n    tag_166:\n        /* \"#utility.yul\":12408:12485   */\n      0x4e487b7100000000000000000000000000000000000000000000000000000000\n        /* \"#utility.yul\":12405:12406   */\n      0x00\n        /* \"#utility.yul\":12398:12486   */\n      mstore\n        /* \"#utility.yul\":12505:12509   */\n      0x22\n        /* \"#utility.yul\":12502:12503   */\n      0x04\n        /* \"#utility.yul\":12495:12510   */\n      mstore\n        /* \"#utility.yul\":12529:12533   */\n      0x24\n        /* \"#utility.yul\":12526:12527   */\n      0x00\n        /* \"#utility.yul\":12519:12534   */\n      revert\n        /* \"#utility.yul\":12546:12866   */\n    tag_54:\n        /* \"#utility.yul\":12590:12596   */\n      0x00\n        /* \"#utility.yul\":12627:12628   */\n      0x02\n        /* \"#utility.yul\":12621:12625   */\n      dup3\n        /* \"#utility.yul\":12617:12629   */\n      div\n        /* \"#utility.yul\":12607:12629   */\n      swap1\n      pop\n        /* \"#utility.yul\":12674:12675   */\n      0x01\n        /* \"#utility.yul\":12668:12672   */\n      dup3\n        /* \"#utility.yul\":12664:12676   */\n      and\n        /* \"#utility.yul\":12695:12713   */\n      dup1\n        /* \"#utility.yul\":12685:12766   */\n      tag_317\n      jumpi\n        /* \"#utility.yul\":12751:12755   */\n      0x7f\n        /* \"#utility.yul\":12743:12749   */\n      dup3\n        /* \"#utility.yul\":12739:12756   */\n      and\n        /* \"#utility.yul\":12729:12756   */\n      swap2\n      pop\n        /* \"#utility.yul\":12685:12766   */\n    tag_317:\n        /* \"#utility.yul\":12813:12815   */\n      0x20\n        /* \"#utility.yul\":12805:12811   */\n      dup3\n        /* \"#utility.yul\":12802:12816   */\n      lt\n        /* \"#utility.yul\":12782:12800   */\n      dup2\n        /* \"#utility.yul\":12779:12817   */\n      sub\n        /* \"#utility.yul\":12776:12860   */\n      tag_318\n      jumpi\n        /* \"#utility.yul\":12832:12850   */\n      tag_319\n      tag_166\n      jump\t// in\n    tag_319:\n        /* \"#utility.yul\":12776:12860   */\n    tag_318:\n        /* \"#utility.yul\":12597:12866   */\n      pop\n        /* \"#utility.yul\":12546:12866   */\n      swap2\n      swap1\n      pop\n      jump\t// out\n        /* \"#utility.yul\":12872:13048   */\n    tag_167:\n        /* \"#utility.yul\":13012:13040   */\n      0x426174636820616c726561647920636f6e736f6c696461746564000000000000\n        /* \"#utility.yul\":13008:13009   */\n      0x00\n        /* \"#utility.yul\":13000:13006   */\n      dup3\n        /* \"#utility.yul\":12996:13010   */\n      add\n        /* \"#utility.yul\":12989:13041   */\n      mstore\n        /* \"#utility.yul\":12872:13048   */\n      pop\n      jump\t// out\n        /* \"#utility.yul\":13054:13420   */\n    tag_168:\n        /* \"#utility.yul\":13196:13199   */\n      0x00\n        /* \"#utility.yul\":13217:13284   */\n      tag_322\n        /* \"#utility.yul\":13281:13283   */\n      0x1a\n        /* \"#utility.yul\":13276:13279   */\n      dup4\n        /* \"#utility.yul\":13217:13284   */\n      tag_157\n      jump\t// in\n    tag_322:\n        /* \"#utility.yul\":13210:13284   */\n      swap2\n      pop\n        /* \"#utility.yul\":13293:13386   */\n      tag_323\n        /* \"#utility.yul\":13382:13385   */\n      dup3\n        /* \"#utility.yul\":13293:13386   */\n      tag_167\n      jump\t// in\n    tag_323:\n        /* \"#utility.yul\":13411:13413   */\n      0x20\n        /* \"#utility.yul\":13406:13409   */\n      dup3\n        /* \"#utility.yul\":13402:13414   */\n      add\n        /* \"#utility.yul\":13395:13414   */\n      swap1\n      pop\n        /* \"#utility.yul\":13054:13420   */\n      swap2\n      swap1\n      pop\n      jump\t// out\n        /* \"#utility.yul\":13426:13845   */\n    tag_57:\n        /* \"#utility.yul\":13592:13596   */\n      0x00\n        /* \"#utility.yul\":13630:13632   */\n      0x20\n        /* \"#utility.yul\":13619:13628   */\n      dup3\n        /* \"#utility.yul\":13615:13633   */\n      add\n        /* \"#utility.yul\":13607:13633   */\n      swap1\n      pop\n        /* \"#utility.yul\":13679:13688   */\n      dup2\n        /* \"#utility.yul\":13673:13677   */\n      dup2\n        /* \"#utility.yul\":13669:13689   */\n      sub\n        /* \"#utility.yul\":13665:13666   */\n      0x00\n        /* \"#utility.yul\":13654:13663   */\n      dup4\n        /* \"#utility.yul\":13650:13667   */\n      add\n        /* \"#utility.yul\":13643:13690   */\n      mstore\n        /* \"#utility.yul\":13707:13838   */\n      tag_325\n        /* \"#utility.yul\":13833:13837   */\n      dup2\n        /* \"#utility.yul\":13707:13838   */\n      tag_168\n      jump\t// in\n    tag_325:\n        /* \"#utility.yul\":13699:13838   */\n      swap1\n      pop\n        /* \"#utility.yul\":13426:13845   */\n      swap2\n      swap1\n      pop\n      jump\t// out\n        /* \"#utility.yul\":13851:13973   */\n    tag_169:\n        /* \"#utility.yul\":13924:13948   */\n      tag_327\n        /* \"#utility.yul\":13942:13947   */\n      dup2\n        /* \"#utility.yul\":13924:13948   */\n      tag_159\n      jump\t// in\n    tag_327:\n        /* \"#utility.yul\":13917:13922   */\n      dup2\n        /* \"#utility.yul\":13914:13949   */\n      eq\n        /* \"#utility.yul\":13904:13967   */\n      tag_328\n      jumpi\n        /* \"#utility.yul\":13963:13964   */\n      0x00\n        /* \"#utility.yul\":13960:13961   */\n      dup1\n        /* \"#utility.yul\":13953:13965   */\n      revert\n        /* \"#utility.yul\":13904:13967   */\n    tag_328:\n        /* \"#utility.yul\":13851:13973   */\n      pop\n      jump\t// out\n        /* \"#utility.yul\":13979:14122   */\n    tag_170:\n        /* \"#utility.yul\":14036:14041   */\n      0x00\n        /* \"#utility.yul\":14067:14073   */\n      dup2\n        /* \"#utility.yul\":14061:14074   */\n      mload\n        /* \"#utility.yul\":14052:14074   */\n      swap1\n      pop\n        /* \"#utility.yul\":14083:14116   */\n      tag_330\n        /* \"#utility.yul\":14110:14115   */\n      dup2\n        /* \"#utility.yul\":14083:14116   */\n      tag_169\n      jump\t// in\n    tag_330:\n        /* \"#utility.yul\":13979:14122   */\n      swap3\n      swap2\n      pop\n      pop\n      jump\t// out\n        /* \"#utility.yul\":14128:14479   */\n    tag_62:\n        /* \"#utility.yul\":14198:14204   */\n      0x00\n        /* \"#utility.yul\":14247:14249   */\n      0x20\n        /* \"#utility.yul\":14235:14244   */\n      dup3\n        /* \"#utility.yul\":14226:14233   */\n      dup5\n        /* \"#utility.yul\":14222:14245   */\n      sub\n        /* \"#utility.yul\":14218:14250   */\n      slt\n        /* \"#utility.yul\":14215:14334   */\n      iszero\n      tag_332\n      jumpi\n        /* \"#utility.yul\":14253:14332   */\n      tag_333\n      tag_131\n      jump\t// in\n    tag_333:\n        /* \"#utility.yul\":14215:14334   */\n    tag_332:\n        /* \"#utility.yul\":14373:14374   */\n      0x00\n        /* \"#utility.yul\":14398:14462   */\n      tag_334\n        /* \"#utility.yul\":14454:14461   */\n      dup5\n        /* \"#utility.yul\":14445:14451   */\n      dup3\n        /* \"#utility.yul\":14434:14443   */\n      dup6\n        /* \"#utility.yul\":14430:14452   */\n      add\n        /* \"#utility.yul\":14398:14462   */\n      tag_170\n      jump\t// in\n    tag_334:\n        /* \"#utility.yul\":14388:14462   */\n      swap2\n      pop\n        /* \"#utility.yul\":14344:14472   */\n      pop\n        /* \"#utility.yul\":14128:14479   */\n      swap3\n      swap2\n      pop\n      pop\n      jump\t// out\n        /* \"#utility.yul\":14485:14626   */\n    tag_171:\n        /* \"#utility.yul\":14534:14538   */\n      0x00\n        /* \"#utility.yul\":14557:14560   */\n      dup2\n        /* \"#utility.yul\":14549:14560   */\n      swap1\n      pop\n        /* \"#utility.yul\":14580:14583   */\n      dup2\n        /* \"#utility.yul\":14577:14578   */\n      0x00\n        /* \"#utility.yul\":14570:14584   */\n      mstore\n        /* \"#utility.yul\":14614:14618   */\n      0x20\n        /* \"#utility.yul\":14611:14612   */\n      0x00\n        /* \"#utility.yul\":14601:14619   */\n      keccak256\n        /* \"#utility.yul\":14593:14619   */\n      swap1\n      pop\n        /* \"#utility.yul\":14485:14626   */\n      swap2\n      swap1\n      pop\n      jump\t// out\n        /* \"#utility.yul\":14632:14725   */\n    tag_172:\n        /* \"#utility.yul\":14669:14675   */\n      0x00\n        /* \"#utility.yul\":14716:14718   */\n      0x20\n        /* \"#utility.yul\":14711:14713   */\n      0x1f\n        /* \"#utility.yul\":14704:14709   */\n      dup4\n        /* \"#utility.yul\":14700:14714   */\n      add\n        /* \"#utility.yul\":14696:14719   */\n      div\n        /* \"#utility.yul\":14686:14719   */\n      swap1\n      pop\n        /* \"#utility.yul\":14632:14725   */\n      swap2\n      swap1\n      pop\n      jump\t// out\n        /* \"#utility.yul\":14731:14838   */\n    tag_173:\n        /* \"#utility.yul\":14775:14783   */\n      0x00\n        /* \"#utility.yul\":14825:14830   */\n      dup3\n        /* \"#utility.yul\":14819:14823   */\n      dup3\n        /* \"#utility.yul\":14815:14831   */\n      shl\n        /* \"#utility.yul\":14794:14831   */\n      swap1\n      pop\n        /* \"#utility.yul\":14731:14838   */\n      swap3\n      swap2\n      pop\n      pop\n      jump\t// out\n        /* \"#utility.yul\":14844:15237   */\n    tag_174:\n        /* \"#utility.yul\":14913:14919   */\n      0x00\n        /* \"#utility.yul\":14963:14964   */\n      0x08\n        /* \"#utility.yul\":14951:14961   */\n      dup4\n        /* \"#utility.yul\":14947:14965   */\n      mul\n        /* \"#utility.yul\":14986:15083   */\n      tag_339\n        /* \"#utility.yul\":15016:15082   */\n      0xffffffffffffffffffffffffffffffffffffffffffffffffffffffffffffffff\n        /* \"#utility.yul\":15005:15014   */\n      dup3\n        /* \"#utility.yul\":14986:15083   */\n      tag_173\n      jump\t// in\n    tag_339:\n        /* \"#utility.yul\":15104:15143   */\n      tag_340\n        /* \"#utility.yul\":15134:15142   */\n      dup7\n        /* \"#utility.yul\":15123:15132   */\n      dup4\n        /* \"#utility.yul\":15104:15143   */\n      tag_173\n      jump\t// in\n    tag_340:\n        /* \"#utility.yul\":15092:15143   */\n      swap6\n      pop\n        /* \"#utility.yul\":15176:15180   */\n      dup1\n        /* \"#utility.yul\":15172:15181   */\n      not\n        /* \"#utility.yul\":15165:15170   */\n      dup5\n        /* \"#utility.yul\":15161:15182   */\n      and\n        /* \"#utility.yul\":15152:15182   */\n      swap4\n      pop\n        /* \"#utility.yul\":15225:15229   */\n      dup1\n        /* \"#utility.yul\":15215:15223   */\n      dup7\n        /* \"#utility.yul\":15211:15230   */\n      and\n        /* \"#utility.yul\":15204:15209   */\n      dup5\n        /* \"#utility.yul\":15201:15231   */\n      or\n        /* \"#utility.yul\":15191:15231   */\n      swap3\n      pop\n        /* \"#utility.yul\":14920:15237   */\n      pop\n      pop\n        /* \"#utility.yul\":14844:15237   */\n      swap4\n      swap3\n      pop\n      pop\n      pop\n      jump\t// out\n        /* \"#utility.yul\":15243:15303   */\n    tag_175:\n        /* \"#utility.yul\":15271:15274   */\n      0x00\n        /* \"#utility.yul\":15292:15297   */\n      dup2\n        /* \"#utility.yul\":15285:15297   */\n      swap1\n      pop\n        /* \"#utility.yul\":15243:15303   */\n      swap2\n      swap1\n      pop\n      jump\t// out\n        /* \"#utility.yul\":15309:15451   */\n    tag_176:\n        /* \"#utility.yul\":15359:15368   */\n      0x00\n        /* \"#utility.yul\":15392:15445   */\n      tag_343\n        /* \"#utility.yul\":15410:15444   */\n      tag_344\n        /* \"#utility.yul\":15419:15443   */\n      tag_345\n        /* \"#utility.yul\":15437:15442   */\n      dup5\n        /* \"#utility.yul\":15419:15443   */\n      tag_143\n      jump\t// in\n    tag_345:\n        /* \"#utility.yul\":15410:15444   */\n      tag_175\n      jump\t// in\n    tag_344:\n        /* \"#utility.yul\":15392:15445   */\n      tag_143\n      jump\t// in\n    tag_343:\n        /* \"#utility.yul\":15379:15445   */\n      swap1\n      pop\n        /* \"#utility.yul\":15309:15451   */\n      swap2\n      swap1\n      pop\n      jump\t// out\n        /* \"#utility.yul\":15457:15532   */\n    tag_177:\n        /* \"#utility.yul\":15500:15503   */\n      0x00\n        /* \"#utility.yul\":15521:15526   */\n      dup2\n        /* \"#utility.yul\":15514:15526   */\n      swap1\n      pop\n        /* \"#utility.yul\":15457:15532   */\n      swap2\n      swap1\n      pop\n      jump\t// out\n        /* \"#utility.yul\":15538:15807   */\n    tag_178:\n        /* \"#utility.yul\":15648:15687   */\n      tag_348\n        /* \"#utility.yul\":15679:15686   */\n      dup4\n        /* \"#utility.yul\":15648:15687   */\n      tag_176\n      jump\t// in\n    tag_348:\n        /* \"#utility.yul\":15709:15800   */\n      tag_349\n        /* \"#utility.yul\":15758:15799   */\n      tag_350\n        /* \"#utility.yul\":15782:15798   */\n      dup3\n        /* \"#utility.yul\":15758:15799   */\n      tag_177\n      jump\t// in\n    tag_350:\n        /* \"#utility.yul\":15750:15756   */\n      dup5\n        /* \"#utility.yul\":15743:15747   */\n      dup5\n        /* \"#utility.yul\":15737:15748   */\n      sload\n        /* \"#utility.yul\":15709:15800   */\n      tag_174\n      jump\t// in\n    tag_349:\n        /* \"#utility.yul\":15703:15707   */\n      dup3\n        /* \"#utility.yul\":15696:15801   */\n      sstore\n        /* \"#utility.yul\":15614:15807   */\n      pop\n        /* \"#utility.yul\":15538:15807   */\n      pop\n      pop\n      pop\n      jump\t// out\n        /* \"#utility.yul\":15813:15886   */\n    tag_179:\n        /* \"#utility.yul\":15858:15861   */\n      0x00\n        /* \"#utility.yul\":15813:15886   */\n      swap1\n      jump\t// out\n        /* \"#utility.yul\":15892:16081   */\n    tag_180:\n        /* \"#utility.yul\":15969:16001   */\n      tag_353\n      tag_179\n      jump\t// in\n    tag_353:\n        /* \"#utility.yul\":16010:16075   */\n      tag_354\n        /* \"#utility.yul\":16068:16074   */\n      dup2\n        /* \"#utility.yul\":16060:16066   */\n      dup5\n        /* \"#utility.yul\":16054:16058   */\n      dup5\n        /* \"#utility.yul\":16010:16075   */\n      tag_178\n      jump\t// in\n    tag_354:\n        /* \"#utility.yul\":15945:16081   */\n      pop\n        /* \"#utility.yul\":15892:16081   */\n      pop\n      pop\n      jump\t// out\n        /* \"#utility.yul\":16087:16273   */\n    tag_181:\n        /* \"#utility.yul\":16147:16267   */\n    tag_356:\n        /* \"#utility.yul\":16164:16167   */\n      dup2\n        /* \"#utility.yul\":16157:16162   */\n      dup2\n        /* \"#utility.yul\":16154:16168   */\n      lt\n        /* \"#utility.yul\":16147:16267   */\n      iszero\n      tag_358\n      jumpi\n        /* \"#utility.yul\":16218:16257   */\n      tag_359\n        /* \"#utility.yul\":16255:16256   */\n      0x00\n        /* \"#utility.yul\":16248:16253   */\n      dup3\n        /* \"#utility.yul\":16218:16257   */\n      tag_180\n      jump\t// in\n    tag_359:\n        /* \"#utility.yul\":16191:16192   */\n      0x01\n        /* \"#utility.yul\":16184:16189   */\n      dup2\n        /* \"#utility.yul\":16180:16193   */\n      add\n        /* \"#utility.yul\":16171:16193   */\n      swap1\n      pop\n        /* \"#utility.yul\":16147:16267   */\n      jump(tag_356)\n    tag_358:\n        /* \"#utility.yul\":16087:16273   */\n      pop\n      pop\n      jump\t// out\n        /* \"#utility.yul\":16279:16822   */\n    tag_182:\n        /* \"#utility.yul\":16380:16382   */\n      0x1f\n        /* \"#utility.yul\":16375:16378   */\n      dup3\n        /* \"#utility.yul\":16372:16383   */\n      gt\n        /* \"#utility.yul\":16369:16815   */\n      iszero\n      tag_361\n      jumpi\n        /* \"#utility.yul\":16414:16452   */\n      tag_362\n        /* \"#utility.yul\":16446:16451   */\n      dup2\n        /* \"#utility.yul\":16414:16452   */\n      tag_171\n      jump\t// in\n    tag_362:\n        /* \"#utility.yul\":16498:16527   */\n      tag_363\n        /* \"#utility.yul\":16516:16526   */\n      dup5\n        /* \"#utility.yul\":16498:16527   */\n      tag_172\n      jump\t// in\n    tag_363:\n        /* \"#utility.yul\":16488:16496   */\n      dup2\n        /* \"#utility.yul\":16484:16528   */\n      add\n        /* \"#utility.yul\":16681:16683   */\n      0x20\n        /* \"#utility.yul\":16669:16679   */\n      dup6\n        /* \"#utility.yul\":16666:16684   */\n      lt\n        /* \"#utility.yul\":16663:16712   */\n      iszero\n      tag_364\n      jumpi\n        /* \"#utility.yul\":16702:16710   */\n      dup2\n        /* \"#utility.yul\":16687:16710   */\n      swap1\n      pop\n        /* \"#utility.yul\":16663:16712   */\n    tag_364:\n        /* \"#utility.yul\":16725:16805   */\n      tag_365\n        /* \"#utility.yul\":16781:16803   */\n      tag_366\n        /* \"#utility.yul\":16799:16802   */\n      dup6\n        /* \"#utility.yul\":16781:16803   */\n      tag_172\n      jump\t// in\n    tag_366:\n        /* \"#utility.yul\":16771:16779   */\n      dup4\n        /* \"#utility.yul\":16767:16804   */\n      add\n        /* \"#utility.yul\":16754:16765   */\n      dup3\n        /* \"#utility.yul\":16725:16805   */\n      tag_181\n      jump\t// in\n    tag_365:\n        /* \"#utility.yul\":16384:16815   */\n      pop\n      pop\n        /* \"#utility.yul\":16369:16815   */\n    tag_361:\n        /* \"#utility.yul\":16279:16822   */\n      pop\n      pop\n      pop\n      jump\t// out\n        /* \"#utility.yul\":16828:16945   */\n    tag_183:\n        /* \"#utility.yul\":16882:16890   */\n      0x00\n        /* \"#utility.yul\":16932:16937   */\n      dup3\n        /* \"#utility.yul\":16926:16930   */\n      dup3\n        /* \"#utility.yul\":16922:16938   */\n      shr\n        /* \"#utility.yul\":16901:16938   */\n      swap1\n      pop\n        /* \"#utility.yul\":16828:16945   */\n      swap3\n      swap2\n      pop\n      pop\n      jump\t// out\n        /* \"#utility.yul\":16951:17120   */\n    tag_184:\n        /* \"#utility.yul\":16995:17001   */\n      0x00\n        /* \"#utility.yul\":17028:17079   */\n      tag_369\n        /* \"#utility.yul\":17076:17077   */\n      0x00\n        /* \"#utility.yul\":17072:17078   */\n      not\n        /* \"#utility.yul\":17064:17069   */\n      dup5\n        /* \"#utility.yul\":17061:17062   */\n      0x08\n        /* \"#utility.yul\":17057:17070   */\n      mul\n        /* \"#utility.yul\":17028:17079   */\n      tag_183\n      jump\t// in\n    tag_369:\n        /* \"#utility.yul\":17024:17080   */\n      not\n        /* \"#utility.yul\":17109:17113   */\n      dup1\n        /* \"#utility.yul\":17103:17107   */\n      dup4\n        /* \"#utility.yul\":17099:17114   */\n      and\n        /* \"#utility.yul\":17089:17114   */\n      swap2\n      pop\n        /* \"#utility.yul\":17002:17120   */\n      pop\n        /* \"#utility.yul\":16951:17120   */\n      swap3\n      swap2\n      pop\n      pop\n      jump\t// out\n        /* \"#utility.yul\":17125:17420   */\n    tag_185:\n        /* \"#utility.yul\":17201:17205   */\n      0x00\n        /* \"#utility.yul\":17347:17376   */\n      tag_371\n        /* \"#utility.yul\":17372:17375   */\n      dup4\n        /* \"#utility.yul\":17366:17370   */\n      dup4\n        /* \"#utility.yul\":17347:17376   */\n      tag_184\n      jump\t// in\n    tag_371:\n        /* \"#utility.yul\":17339:17376   */\n      swap2\n      pop\n        /* \"#utility.yul\":17409:17412   */\n      dup3\n        /* \"#utility.yul\":17406:17407   */\n      0x02\n        /* \"#utility.yul\":17402:17413   */\n      mul\n        /* \"#utility.yul\":17396:17400   */\n      dup3\n        /* \"#utility.yul\":17393:17414   */\n      or\n        /* \"#utility.yul\":17385:17414   */\n      swap1\n      pop\n        /* \"#utility.yul\":17125:17420   */\n      swap3\n      swap2\n      pop\n      pop\n      jump\t// out\n        /* \"#utility.yul\":17425:18820   */\n    tag_65:\n        /* \"#utility.yul\":17542:17579   */\n      tag_373\n        /* \"#utility.yul\":17575:17578   */\n      dup3\n        /* \"#utility.yul\":17542:17579   */\n      tag_149\n      jump\t// in\n    tag_373:\n        /* \"#utility.yul\":17644:17662   */\n      0xffffffffffffffff\n        /* \"#utility.yul\":17636:17642   */\n      dup2\n        /* \"#utility.yul\":17633:17663   */\n      gt\n        /* \"#utility.yul\":17630:17686   */\n      iszero\n      tag_374\n      jumpi\n        /* \"#utility.yul\":17666:17684   */\n      tag_375\n      tag_136\n      jump\t// in\n    tag_375:\n        /* \"#utility.yul\":17630:17686   */\n    tag_374:\n        /* \"#utility.yul\":17710:17748   */\n      tag_376\n        /* \"#utility.yul\":17742:17746   */\n      dup3\n        /* \"#utility.yul\":17736:17747   */\n      sload\n        /* \"#utility.yul\":17710:17748   */\n      tag_54\n      jump\t// in\n    tag_376:\n        /* \"#utility.yul\":17795:17862   */\n      tag_377\n        /* \"#utility.yul\":17855:17861   */\n      dup3\n        /* \"#utility.yul\":17847:17853   */\n      dup3\n        /* \"#utility.yul\":17841:17845   */\n      dup6\n        /* \"#utility.yul\":17795:17862   */\n      tag_182\n      jump\t// in\n    tag_377:\n        /* \"#utility.yul\":17889:17890   */\n      0x00\n        /* \"#utility.yul\":17913:17917   */\n      0x20\n        /* \"#utility.yul\":17900:17917   */\n      swap1\n      pop\n        /* \"#utility.yul\":17945:17947   */\n      0x1f\n        /* \"#utility.yul\":17937:17943   */\n      dup4\n        /* \"#utility.yul\":17934:17948   */\n      gt\n        /* \"#utility.yul\":17962:17963   */\n      0x01\n        /* \"#utility.yul\":17957:18575   */\n      dup2\n      eq\n      tag_379\n      jumpi\n        /* \"#utility.yul\":18619:18620   */\n      0x00\n        /* \"#utility.yul\":18636:18642   */\n      dup5\n        /* \"#utility.yul\":18633:18710   */\n      iszero\n      tag_380\n      jumpi\n        /* \"#utility.yul\":18685:18694   */\n      dup3\n        /* \"#utility.yul\":18680:18683   */\n      dup8\n        /* \"#utility.yul\":18676:18695   */\n      add\n        /* \"#utility.yul\":18670:18696   */\n      mload\n        /* \"#utility.yul\":18661:18696   */\n      swap1\n      pop\n        /* \"#utility.yul\":18633:18710   */\n    tag_380:\n        /* \"#utility.yul\":18736:18803   */\n      tag_381\n        /* \"#utility.yul\":18796:18802   */\n      dup6\n        /* \"#utility.yul\":18789:18794   */\n      dup3\n        /* \"#utility.yul\":18736:18803   */\n      tag_185\n      jump\t// in\n    tag_381:\n        /* \"#utility.yul\":18730:18734   */\n      dup7\n        /* \"#utility.yul\":18723:18804   */\n      sstore\n        /* \"#utility.yul\":18592:18814   */\n      pop\n        /* \"#utility.yul\":17927:18814   */\n      jump(tag_378)\n        /* \"#utility.yul\":17957:18575   */\n    tag_379:\n        /* \"#utility.yul\":18009:18013   */\n      0x1f\n        /* \"#utility.yul\":18005:18014   */\n      not\n        /* \"#utility.yul\":17997:18003   */\n      dup5\n        /* \"#utility.yul\":17993:18015   */\n      and\n        /* \"#utility.yul\":18043:18080   */\n      tag_382\n        /* \"#utility.yul\":18075:18079   */\n      dup7\n        /* \"#utility.yul\":18043:18080   */\n      tag_171\n      jump\t// in\n    tag_382:\n        /* \"#utility.yul\":18102:18103   */\n      0x00\n        /* \"#utility.yul\":18116:18324   */\n    tag_383:\n        /* \"#utility.yul\":18130:18137   */\n      dup3\n        /* \"#utility.yul\":18127:18128   */\n      dup2\n        /* \"#utility.yul\":18124:18138   */\n      lt\n        /* \"#utility.yul\":18116:18324   */\n      iszero\n      tag_385\n      jumpi\n        /* \"#utility.yul\":18209:18218   */\n      dup5\n        /* \"#utility.yul\":18204:18207   */\n      dup10\n        /* \"#utility.yul\":18200:18219   */\n      add\n        /* \"#utility.yul\":18194:18220   */\n      mload\n        /* \"#utility.yul\":18186:18192   */\n      dup3\n        /* \"#utility.yul\":18179:18221   */\n      sstore\n        /* \"#utility.yul\":18260:18261   */\n      0x01\n        /* \"#utility.yul\":18252:18258   */\n      dup3\n        /* \"#utility.yul\":18248:18262   */\n      add\n        /* \"#utility.yul\":18238:18262   */\n      swap2\n      pop\n        /* \"#utility.yul\":18307:18309   */\n      0x20\n        /* \"#utility.yul\":18296:18305   */\n      dup6\n        /* \"#utility.yul\":18292:18310   */\n      add\n        /* \"#utility.yul\":18279:18310   */\n      swap5\n      pop\n        /* \"#utility.yul\":18153:18157   */\n      0x20\n        /* \"#utility.yul\":18150:18151   */\n      dup2\n        /* \"#utility.yul\":18146:18158   */\n      add\n        /* \"#utility.yul\":18141:18158   */\n      swap1\n      pop\n        /* \"#utility.yul\":18116:18324   */\n      jump(tag_383)\n    tag_385:\n        /* \"#utility.yul\":18352:18358   */\n      dup7\n        /* \"#utility.yul\":18343:18350   */\n      dup4\n        /* \"#utility.yul\":18340:18359   */\n      lt\n        /* \"#utility.yul\":18337:18516   */\n      iszero\n      tag_386\n      jumpi\n        /* \"#utility.yul\":18410:18419   */\n      dup5\n        /* \"#utility.yul\":18405:18408   */\n      dup10\n        /* \"#utility.yul\":18401:18420   */\n      add\n        /* \"#utility.yul\":18395:18421   */\n      mload\n        /* \"#utility.yul\":18453:18501   */\n      tag_387\n        /* \"#utility.yul\":18495:18499   */\n      0x1f\n        /* \"#utility.yul\":18487:18493   */\n      dup10\n        /* \"#utility.yul\":18483:18500   */\n      and\n        /* \"#utility.yul\":18472:18481   */\n      dup3\n        /* \"#utility.yul\":18453:18501   */\n      tag_184\n      jump\t// in\n    tag_387:\n        /* \"#utility.yul\":18445:18451   */\n      dup4\n        /* \"#utility.yul\":18438:18502   */\n      sstore\n        /* \"#utility.yul\":18360:18516   */\n      pop\n        /* \"#utility.yul\":18337:18516   */\n    tag_386:\n        /* \"#utility.yul\":18562:18563   */\n      0x01\n        /* \"#utility.yul\":18558:18559   */\n      0x02\n        /* \"#utility.yul\":18550:18556   */\n      dup9\n        /* \"#utility.yul\":18546:18560   */\n      mul\n        /* \"#utility.yul\":18542:18564   */\n      add\n        /* \"#utility.yul\":18536:18540   */\n      dup9\n        /* \"#utility.yul\":18529:18565   */\n      sstore\n        /* \"#utility.yul\":17964:18575   */\n      pop\n      pop\n      pop\n        /* \"#utility.yul\":17927:18814   */\n    tag_378:\n      pop\n        /* \"#utility.yul\":17517:18820   */\n      pop\n      pop\n      pop\n        /* \"#utility.yul\":17425:18820   */\n      pop\n      pop\n      jump\t// out\n        /* \"#utility.yul\":18826:19249   */\n    tag_71:\n        /* \"#utility.yul\":18967:18971   */\n      0x00\n        /* \"#utility.yul\":19005:19007   */\n      0x40\n        /* \"#utility.yul\":18994:19003   */\n      dup3\n        /* \"#utility.yul\":18990:19008   */\n      add\n        /* \"#utility.yul\":18982:19008   */\n      swap1\n      pop\n        /* \"#utility.yul\":19054:19063   */\n      dup2\n        /* \"#utility.yul\":19048:19052   */\n      dup2\n        /* \"#utility.yul\":19044:19064   */\n      sub\n        /* \"#utility.yul\":19040:19041   */\n      0x00\n        /* \"#utility.yul\":19029:19038   */\n      dup4\n        /* \"#utility.yul\":19025:19042   */\n      add\n        /* \"#utility.yul\":19018:19065   */\n      mstore\n        /* \"#utility.yul\":19082:19160   */\n      tag_389\n        /* \"#utility.yul\":19155:19159   */\n      dup2\n        /* \"#utility.yul\":19146:19152   */\n      dup6\n        /* \"#utility.yul\":19082:19160   */\n      tag_158\n      jump\t// in\n    tag_389:\n        /* \"#utility.yul\":19074:19160   */\n      swap1\n      pop\n        /* \"#utility.yul\":19170:19242   */\n      tag_390\n        /* \"#utility.yul\":19238:19240   */\n      0x20\n        /* \"#utility.yul\":19227:19236   */\n      dup4\n        /* \"#utility.yul\":19223:19241   */\n      add\n        /* \"#utility.yul\":19214:19220   */\n      dup5\n        /* \"#utility.yul\":19170:19242   */\n      tag_160\n      jump\t// in\n    tag_390:\n        /* \"#utility.yul\":18826:19249   */\n      swap4\n      swap3\n      pop\n      pop\n      pop\n      jump\t// out\n        /* \"#utility.yul\":19255:19475   */\n    tag_186:\n        /* \"#utility.yul\":19395:19429   */\n      0x436f6e736f6c69646174696f6e206461746120646f6573206e6f742065786973\n        /* \"#utility.yul\":19391:19392   */\n      0x00\n        /* \"#utility.yul\":19383:19389   */\n      dup3\n        /* \"#utility.yul\":19379:19393   */\n      add\n        /* \"#utility.yul\":19372:19430   */\n      mstore\n        /* \"#utility.yul\":19464:19467   */\n      0x7400000000000000000000000000000000000000000000000000000000000000\n        /* \"#utility.yul\":19459:19461   */\n      0x20\n        /* \"#utility.yul\":19451:19457   */\n      dup3\n        /* \"#utility.yul\":19447:19462   */\n      add\n        /* \"#utility.yul\":19440:19468   */\n      mstore\n        /* \"#utility.yul\":19255:19475   */\n      pop\n      jump\t// out\n        /* \"#utility.yul\":19481:19847   */\n    tag_187:\n        /* \"#utility.yul\":19623:19626   */\n      0x00\n        /* \"#utility.yul\":19644:19711   */\n      tag_393\n        /* \"#utility.yul\":19708:19710   */\n      0x21\n        /* \"#utility.yul\":19703:19706   */\n      dup4\n        /* \"#utility.yul\":19644:19711   */\n      tag_157\n      jump\t// in\n    tag_393:\n        /* \"#utility.yul\":19637:19711   */\n      swap2\n      pop\n        /* \"#utility.yul\":19720:19813   */\n      tag_394\n        /* \"#utility.yul\":19809:19812   */\n      dup3\n        /* \"#utility.yul\":19720:19813   */\n      tag_186\n      jump\t// in\n    tag_394:\n        /* \"#utility.yul\":19838:19840   */\n      0x40\n        /* \"#utility.yul\":19833:19836   */\n      dup3\n        /* \"#utility.yul\":19829:19841   */\n      add\n        /* \"#utility.yul\":19822:19841   */\n      swap1\n      pop\n        /* \"#utility.yul\":19481:19847   */\n      swap2\n      swap1\n      pop\n      jump\t// out\n        /* \"#utility.yul\":19853:20272   */\n    tag_106:\n        /* \"#utility.yul\":20019:20023   */\n      0x00\n        /* \"#utility.yul\":20057:20059   */\n      0x20\n        /* \"#utility.yul\":20046:20055   */\n      dup3\n        /* \"#utility.yul\":20042:20060   */\n      add\n        /* \"#utility.yul\":20034:20060   */\n      swap1\n      pop\n        /* \"#utility.yul\":20106:20115   */\n      dup2\n        /* \"#utility.yul\":20100:20104   */\n      dup2\n        /* \"#utility.yul\":20096:20116   */\n      sub\n        /* \"#utility.yul\":20092:20093   */\n      0x00\n        /* \"#utility.yul\":20081:20090   */\n      dup4\n        /* \"#utility.yul\":20077:20094   */\n      add\n        /* \"#utility.yul\":20070:20117   */\n      mstore\n        /* \"#utility.yul\":20134:20265   */\n      tag_396\n        /* \"#utility.yul\":20260:20264   */\n      dup2\n        /* \"#utility.yul\":20134:20265   */\n      tag_187\n      jump\t// in\n    tag_396:\n        /* \"#utility.yul\":20126:20265   */\n      swap1\n      pop\n        /* \"#utility.yul\":19853:20272   */\n      swap2\n      swap1\n      pop\n      jump\t// out\n        /* \"#utility.yul\":20278:20357   */\n    tag_188:\n        /* \"#utility.yul\":20317:20324   */\n      0x00\n        /* \"#utility.yul\":20346:20351   */\n      dup2\n        /* \"#utility.yul\":20335:20351   */\n      swap1\n      pop\n        /* \"#utility.yul\":20278:20357   */\n      swap2\n      swap1\n      pop\n      jump\t// out\n        /* \"#utility.yul\":20363:20520   */\n    tag_189:\n        /* \"#utility.yul\":20468:20513   */\n      tag_399\n        /* \"#utility.yul\":20488:20512   */\n      tag_400\n        /* \"#utility.yul\":20506:20511   */\n      dup3\n        /* \"#utility.yul\":20488:20512   */\n      tag_143\n      jump\t// in\n    tag_400:\n        /* \"#utility.yul\":20468:20513   */\n      tag_188\n      jump\t// in\n    tag_399:\n        /* \"#utility.yul\":20463:20466   */\n      dup3\n        /* \"#utility.yul\":20456:20514   */\n      mstore\n        /* \"#utility.yul\":20363:20520   */\n      pop\n      pop\n      jump\t// out\n        /* \"#utility.yul\":20526:20605   */\n    tag_190:\n        /* \"#utility.yul\":20565:20572   */\n      0x00\n        /* \"#utility.yul\":20594:20599   */\n      dup2\n        /* \"#utility.yul\":20583:20599   */\n      swap1\n      pop\n        /* \"#utility.yul\":20526:20605   */\n      swap2\n      swap1\n      pop\n      jump\t// out\n        /* \"#utility.yul\":20611:20768   */\n    tag_191:\n        /* \"#utility.yul\":20716:20761   */\n      tag_403\n        /* \"#utility.yul\":20736:20760   */\n      tag_404\n        /* \"#utility.yul\":20754:20759   */\n      dup3\n        /* \"#utility.yul\":20736:20760   */\n      tag_159\n      jump\t// in\n    tag_404:\n        /* \"#utility.yul\":20716:20761   */\n      tag_190\n      jump\t// in\n    tag_403:\n        /* \"#utility.yul\":20711:20714   */\n      dup3\n        /* \"#utility.yul\":20704:20762   */\n      mstore\n        /* \"#utility.yul\":20611:20768   */\n      pop\n      pop\n      jump\t// out\n        /* \"#utility.yul\":20774:21632   */\n    tag_129:\n        /* \"#utility.yul\":21038:21041   */\n      0x00\n        /* \"#utility.yul\":21060:21155   */\n      tag_406\n        /* \"#utility.yul\":21151:21154   */\n      dup3\n        /* \"#utility.yul\":21142:21148   */\n      dup9\n        /* \"#utility.yul\":21060:21155   */\n      tag_165\n      jump\t// in\n    tag_406:\n        /* \"#utility.yul\":21053:21155   */\n      swap2\n      pop\n        /* \"#utility.yul\":21165:21240   */\n      tag_407\n        /* \"#utility.yul\":21236:21239   */\n      dup3\n        /* \"#utility.yul\":21227:21233   */\n      dup8\n        /* \"#utility.yul\":21165:21240   */\n      tag_189\n      jump\t// in\n    tag_407:\n        /* \"#utility.yul\":21265:21267   */\n      0x20\n        /* \"#utility.yul\":21260:21263   */\n      dup3\n        /* \"#utility.yul\":21256:21268   */\n      add\n        /* \"#utility.yul\":21249:21268   */\n      swap2\n      pop\n        /* \"#utility.yul\":21285:21380   */\n      tag_408\n        /* \"#utility.yul\":21376:21379   */\n      dup3\n        /* \"#utility.yul\":21367:21373   */\n      dup7\n        /* \"#utility.yul\":21285:21380   */\n      tag_165\n      jump\t// in\n    tag_408:\n        /* \"#utility.yul\":21278:21380   */\n      swap2\n      pop\n        /* \"#utility.yul\":21390:21465   */\n      tag_409\n        /* \"#utility.yul\":21461:21464   */\n      dup3\n        /* \"#utility.yul\":21452:21458   */\n      dup6\n        /* \"#utility.yul\":21390:21465   */\n      tag_189\n      jump\t// in\n    tag_409:\n        /* \"#utility.yul\":21490:21492   */\n      0x20\n        /* \"#utility.yul\":21485:21488   */\n      dup3\n        /* \"#utility.yul\":21481:21493   */\n      add\n        /* \"#utility.yul\":21474:21493   */\n      swap2\n      pop\n        /* \"#utility.yul\":21503:21578   */\n      tag_410\n        /* \"#utility.yul\":21574:21577   */\n      dup3\n        /* \"#utility.yul\":21565:21571   */\n      dup5\n        /* \"#utility.yul\":21503:21578   */\n      tag_191\n      jump\t// in\n    tag_410:\n        /* \"#utility.yul\":21603:21605   */\n      0x20\n        /* \"#utility.yul\":21598:21601   */\n      dup3\n        /* \"#utility.yul\":21594:21606   */\n      add\n        /* \"#utility.yul\":21587:21606   */\n      swap2\n      pop\n        /* \"#utility.yul\":21623:21626   */\n      dup2\n        /* \"#utility.yul\":21616:21626   */\n      swap1\n      pop\n        /* \"#utility.yul\":20774:21632   */\n      swap7\n      swap6\n      pop\n      pop\n      pop\n      pop\n      pop\n      pop\n      jump\t// out\n\n    auxdata: 0xa26469706673582212201489895348dbf2d41a8483c637460218ee19585d3504c80eb237995aa1ef5c9c64736f6c634300081a0033\n}\n",
				"bytecode": {
					"linkReferences": {},
					"object": "608060405234801561000f575f80fd5b506040516116cf3803806116cf83398181016040528101906100319190610115565b8060025f6101000a81548173ffffffffffffffffffffffffffffffffffffffff021916908373ffffffffffffffffffffffffffffffffffffffff1602179055508060035f6101000a81548173ffffffffffffffffffffffffffffffffffffffff021916908373ffffffffffffffffffffffffffffffffffffffff16021790555050610140565b5f80fd5b5f73ffffffffffffffffffffffffffffffffffffffff82169050919050565b5f6100e4826100bb565b9050919050565b6100f4816100da565b81146100fe575f80fd5b50565b5f8151905061010f816100eb565b92915050565b5f6020828403121561012a576101296100b7565b5b5f61013784828501610101565b91505092915050565b6115828061014d5f395ff3fe608060405234801561000f575f80fd5b5060043610610086575f3560e01c80634a0757f5116100595780634a0757f51461011657806370aa6204146101495780638f3e20d114610179578063f684d8cd1461019757610086565b8063134ec64c1461008a57806333531f93146100a657806338ec16da146100c457806349c149c2146100e2575b5f80fd5b6100a4600480360381019061009f9190610c2d565b6101c7565b005b6100ae6103dd565b6040516100bb9190610dd0565b60405180910390f35b6100cc6104b1565b6040516100d99190610dff565b60405180910390f35b6100fc60048036038101906100f79190610e18565b6104bd565b60405161010d959493929190610ebf565b60405180910390f35b610130600480360381019061012b9190610e18565b610612565b6040516101409493929190610f1e565b60405180910390f35b610163600480360381019061015e9190610f68565b6107e9565b6040516101709190610f93565b60405180910390f35b61018161088f565b60405161018e9190610ff2565b60405180910390f35b6101b160048036038101906101ac9190610e18565b6108b4565b6040516101be919061100b565b60405180910390f35b5f80846040516101d7919061105e565b90815260200160405180910390205f0180546101f2906110a1565b905014610234576040517f08c379a000000000000000000000000000000000000000000000000000000000815260040161022b9061111b565b60405180910390fd5b5f60035f9054906101000a900473ffffffffffffffffffffffffffffffffffffffff1673ffffffffffffffffffffffffffffffffffffffff166353adab30856040518263ffffffff1660e01b815260040161028f9190610f93565b602060405180830381865afa1580156102aa573d5f803e3d5ffd5b505050506040513d601f19601f820116820180604052508101906102ce9190611163565b90506040518060a00160405280858152602001848152602001838152602001428152602001828152505f85604051610306919061105e565b90815260200160405180910390205f820151815f019081610327919061132b565b50602082015181600101556040820151816002019081610347919061132b565b506060820151816003015560808201518160040155905050600184908060018154018082558091505060019003905f5260205f20015f909190919091509081610390919061132b565b505f61039b856108b4565b90507f5254e0cccb9ec15554edad910e10e1eebff3b8cee60f09f9344038f27da0488385826040516103ce9291906113fa565b60405180910390a15050505050565b60606001805480602002602001604051908101604052809291908181526020015f905b828210156104a8578382905f5260205f2001805461041d906110a1565b80601f0160208091040260200160405190810160405280929190818152602001828054610449906110a1565b80156104945780601f1061046b57610100808354040283529160200191610494565b820191905f5260205f20905b81548152906001019060200180831161047757829003601f168201915b505050505081526020019060010190610400565b50505050905090565b5f600180549050905090565b5f818051602081018201805184825260208301602085012081835280955050505050505f91509050805f0180546104f3906110a1565b80601f016020809104026020016040519081016040528092919081815260200182805461051f906110a1565b801561056a5780601f106105415761010080835404028352916020019161056a565b820191905f5260205f20905b81548152906001019060200180831161054d57829003601f168201915b505050505090806001015490806002018054610585906110a1565b80601f01602080910402602001604051908101604052809291908181526020018280546105b1906110a1565b80156105fc5780601f106105d3576101008083540402835291602001916105fc565b820191905f5260205f20905b8154815290600101906020018083116105df57829003601f168201915b5050505050908060030154908060040154905085565b5f60605f805f8086604051610627919061105e565b90815260200160405180910390206040518060a00160405290815f8201805461064f906110a1565b80601f016020809104026020016040519081016040528092919081815260200182805461067b906110a1565b80156106c65780601f1061069d576101008083540402835291602001916106c6565b820191905f5260205f20905b8154815290600101906020018083116106a957829003601f168201915b50505050508152602001600182015481526020016002820180546106e9906110a1565b80601f0160208091040260200160405190810160405280929190818152602001828054610715906110a1565b80156107605780601f1061073757610100808354040283529160200191610760565b820191905f5260205f20905b81548152906001019060200180831161074357829003601f168201915b505050505081526020016003820154815260200160048201548152505090505f815f015151116107c5576040517f08c379a00000000000000000000000000000000000000000000000000000000081526004016107bc90611498565b60405180910390fd5b80602001518160400151826060015183608001519450945094509450509193509193565b600181815481106107f8575f80fd5b905f5260205f20015f915090508054610810906110a1565b80601f016020809104026020016040519081016040528092919081815260200182805461083c906110a1565b80156108875780601f1061085e57610100808354040283529160200191610887565b820191905f5260205f20905b81548152906001019060200180831161086a57829003601f168201915b505050505081565b60025f9054906101000a900473ffffffffffffffffffffffffffffffffffffffff1681565b5f805f836040516108c5919061105e565b90815260200160405180910390206040518060a00160405290815f820180546108ed906110a1565b80601f0160208091040260200160405190810160405280929190818152602001828054610919906110a1565b80156109645780601f1061093b57610100808354040283529160200191610964565b820191905f5260205f20905b81548152906001019060200180831161094757829003601f168201915b5050505050815260200160018201548152602001600282018054610987906110a1565b80601f01602080910402602001604051908101604052809291908181526020018280546109b3906110a1565b80156109fe5780601f106109d5576101008083540402835291602001916109fe565b820191905f5260205f20905b8154815290600101906020018083116109e157829003601f168201915b505050505081526020016003820154815260200160048201548152505090505f815f01515111610a63576040517f08c379a0000000000000000000000000000000000000000000000000000000008152600401610a5a90611498565b60405180910390fd5b805f01518160200151826040015183606001518460800151604051602001610a8f9594939291906114f6565b60405160208183030381529060405280519060200120915050919050565b5f604051905090565b5f80fd5b5f80fd5b5f80fd5b5f80fd5b5f601f19601f8301169050919050565b7f4e487b71000000000000000000000000000000000000000000000000000000005f52604160045260245ffd5b610b0c82610ac6565b810181811067ffffffffffffffff82111715610b2b57610b2a610ad6565b5b80604052505050565b5f610b3d610aad565b9050610b498282610b03565b919050565b5f67ffffffffffffffff821115610b6857610b67610ad6565b5b610b7182610ac6565b9050602081019050919050565b828183375f83830152505050565b5f610b9e610b9984610b4e565b610b34565b905082815260208101848484011115610bba57610bb9610ac2565b5b610bc5848285610b7e565b509392505050565b5f82601f830112610be157610be0610abe565b5b8135610bf1848260208601610b8c565b91505092915050565b5f819050919050565b610c0c81610bfa565b8114610c16575f80fd5b50565b5f81359050610c2781610c03565b92915050565b5f805f60608486031215610c4457610c43610ab6565b5b5f84013567ffffffffffffffff811115610c6157610c60610aba565b5b610c6d86828701610bcd565b9350506020610c7e86828701610c19565b925050604084013567ffffffffffffffff811115610c9f57610c9e610aba565b5b610cab86828701610bcd565b9150509250925092565b5f81519050919050565b5f82825260208201905092915050565b5f819050602082019050919050565b5f81519050919050565b5f82825260208201905092915050565b8281835e5f83830152505050565b5f610d1082610cde565b610d1a8185610ce8565b9350610d2a818560208601610cf8565b610d3381610ac6565b840191505092915050565b5f610d498383610d06565b905092915050565b5f602082019050919050565b5f610d6782610cb5565b610d718185610cbf565b935083602082028501610d8385610ccf565b805f5b85811015610dbe5784840389528151610d9f8582610d3e565b9450610daa83610d51565b925060208a01995050600181019050610d86565b50829750879550505050505092915050565b5f6020820190508181035f830152610de88184610d5d565b905092915050565b610df981610bfa565b82525050565b5f602082019050610e125f830184610df0565b92915050565b5f60208284031215610e2d57610e2c610ab6565b5b5f82013567ffffffffffffffff811115610e4a57610e49610aba565b5b610e5684828501610bcd565b91505092915050565b5f82825260208201905092915050565b5f610e7982610cde565b610e838185610e5f565b9350610e93818560208601610cf8565b610e9c81610ac6565b840191505092915050565b5f819050919050565b610eb981610ea7565b82525050565b5f60a0820190508181035f830152610ed78188610e6f565b9050610ee66020830187610df0565b8181036040830152610ef88186610e6f565b9050610f076060830185610df0565b610f146080830184610eb0565b9695505050505050565b5f608082019050610f315f830187610df0565b8181036020830152610f438186610e6f565b9050610f526040830185610df0565b610f5f6060830184610eb0565b95945050505050565b5f60208284031215610f7d57610f7c610ab6565b5b5f610f8a84828501610c19565b91505092915050565b5f6020820190508181035f830152610fab8184610e6f565b905092915050565b5f73ffffffffffffffffffffffffffffffffffffffff82169050919050565b5f610fdc82610fb3565b9050919050565b610fec81610fd2565b82525050565b5f6020820190506110055f830184610fe3565b92915050565b5f60208201905061101e5f830184610eb0565b92915050565b5f81905092915050565b5f61103882610cde565b6110428185611024565b9350611052818560208601610cf8565b80840191505092915050565b5f611069828461102e565b915081905092915050565b7f4e487b71000000000000000000000000000000000000000000000000000000005f52602260045260245ffd5b5f60028204905060018216806110b857607f821691505b6020821081036110cb576110ca611074565b5b50919050565b7f426174636820616c726561647920636f6e736f6c6964617465640000000000005f82015250565b5f611105601a83610e5f565b9150611110826110d1565b602082019050919050565b5f6020820190508181035f830152611132816110f9565b9050919050565b61114281610ea7565b811461114c575f80fd5b50565b5f8151905061115d81611139565b92915050565b5f6020828403121561117857611177610ab6565b5b5f6111858482850161114f565b91505092915050565b5f819050815f5260205f209050919050565b5f6020601f8301049050919050565b5f82821b905092915050565b5f600883026111ea7fffffffffffffffffffffffffffffffffffffffffffffffffffffffffffffffff826111af565b6111f486836111af565b95508019841693508086168417925050509392505050565b5f819050919050565b5f61122f61122a61122584610bfa565b61120c565b610bfa565b9050919050565b5f819050919050565b61124883611215565b61125c61125482611236565b8484546111bb565b825550505050565b5f90565b611270611264565b61127b81848461123f565b505050565b5b8181101561129e576112935f82611268565b600181019050611281565b5050565b601f8211156112e3576112b48161118e565b6112bd846111a0565b810160208510156112cc578190505b6112e06112d8856111a0565b830182611280565b50505b505050565b5f82821c905092915050565b5f6113035f19846008026112e8565b1980831691505092915050565b5f61131b83836112f4565b9150826002028217905092915050565b61133482610cde565b67ffffffffffffffff81111561134d5761134c610ad6565b5b61135782546110a1565b6113628282856112a2565b5f60209050601f831160018114611393575f8415611381578287015190505b61138b8582611310565b8655506113f2565b601f1984166113a18661118e565b5f5b828110156113c8578489015182556001820191506020850194506020810190506113a3565b868310156113e557848901516113e1601f8916826112f4565b8355505b6001600288020188555050505b505050505050565b5f6040820190508181035f8301526114128185610e6f565b90506114216020830184610eb0565b9392505050565b7f436f6e736f6c69646174696f6e206461746120646f6573206e6f7420657869735f8201527f7400000000000000000000000000000000000000000000000000000000000000602082015250565b5f611482602183610e5f565b915061148d82611428565b604082019050919050565b5f6020820190508181035f8301526114af81611476565b9050919050565b5f819050919050565b6114d06114cb82610bfa565b6114b6565b82525050565b5f819050919050565b6114f06114eb82610ea7565b6114d6565b82525050565b5f611501828861102e565b915061150d82876114bf565b60208201915061151d828661102e565b915061152982856114bf565b60208201915061153982846114df565b602082019150819050969550505050505056fea26469706673582212201489895348dbf2d41a8483c637460218ee19585d3504c80eb237995aa1ef5c9c64736f6c634300081a0033",
					"opcodes": "PUSH1 0x80 PUSH1 0x40 MSTORE CALLVALUE DUP1 ISZERO PUSH2 0xF JUMPI PUSH0 DUP1 REVERT JUMPDEST POP PUSH1 0x40 MLOAD PUSH2 0x16CF CODESIZE SUB DUP1 PUSH2 0x16CF DUP4 CODECOPY DUP2 DUP2 ADD PUSH1 0x40 MSTORE DUP2 ADD SWAP1 PUSH2 0x31 SWAP2 SWAP1 PUSH2 0x115 JUMP JUMPDEST DUP1 PUSH1 0x2 PUSH0 PUSH2 0x100 EXP DUP2 SLOAD DUP2 PUSH20 0xFFFFFFFFFFFFFFFFFFFFFFFFFFFFFFFFFFFFFFFF MUL NOT AND SWAP1 DUP4 PUSH20 0xFFFFFFFFFFFFFFFFFFFFFFFFFFFFFFFFFFFFFFFF AND MUL OR SWAP1 SSTORE POP DUP1 PUSH1 0x3 PUSH0 PUSH2 0x100 EXP DUP2 SLOAD DUP2 PUSH20 0xFFFFFFFFFFFFFFFFFFFFFFFFFFFFFFFFFFFFFFFF MUL NOT AND SWAP1 DUP4 PUSH20 0xFFFFFFFFFFFFFFFFFFFFFFFFFFFFFFFFFFFFFFFF AND MUL OR SWAP1 SSTORE POP POP PUSH2 0x140 JUMP JUMPDEST PUSH0 DUP1 REVERT JUMPDEST PUSH0 PUSH20 0xFFFFFFFFFFFFFFFFFFFFFFFFFFFFFFFFFFFFFFFF DUP3 AND SWAP1 POP SWAP2 SWAP1 POP JUMP JUMPDEST PUSH0 PUSH2 0xE4 DUP3 PUSH2 0xBB JUMP JUMPDEST SWAP1 POP SWAP2 SWAP1 POP JUMP JUMPDEST PUSH2 0xF4 DUP2 PUSH2 0xDA JUMP JUMPDEST DUP2 EQ PUSH2 0xFE JUMPI PUSH0 DUP1 REVERT JUMPDEST POP JUMP JUMPDEST PUSH0 DUP2 MLOAD SWAP1 POP PUSH2 0x10F DUP2 PUSH2 0xEB JUMP JUMPDEST SWAP3 SWAP2 POP POP JUMP JUMPDEST PUSH0 PUSH1 0x20 DUP3 DUP5 SUB SLT ISZERO PUSH2 0x12A JUMPI PUSH2 0x129 PUSH2 0xB7 JUMP JUMPDEST JUMPDEST PUSH0 PUSH2 0x137 DUP5 DUP3 DUP6 ADD PUSH2 0x101 JUMP JUMPDEST SWAP2 POP POP SWAP3 SWAP2 POP POP JUMP JUMPDEST PUSH2 0x1582 DUP1 PUSH2 0x14D PUSH0 CODECOPY PUSH0 RETURN INVALID PUSH1 0x80 PUSH1 0x40 MSTORE CALLVALUE DUP1 ISZERO PUSH2 0xF JUMPI PUSH0 DUP1 REVERT JUMPDEST POP PUSH1 0x4 CALLDATASIZE LT PUSH2 0x86 JUMPI PUSH0 CALLDATALOAD PUSH1 0xE0 SHR DUP1 PUSH4 0x4A0757F5 GT PUSH2 0x59 JUMPI DUP1 PUSH4 0x4A0757F5 EQ PUSH2 0x116 JUMPI DUP1 PUSH4 0x70AA6204 EQ PUSH2 0x149 JUMPI DUP1 PUSH4 0x8F3E20D1 EQ PUSH2 0x179 JUMPI DUP1 PUSH4 0xF684D8CD EQ PUSH2 0x197 JUMPI PUSH2 0x86 JUMP JUMPDEST DUP1 PUSH4 0x134EC64C EQ PUSH2 0x8A JUMPI DUP1 PUSH4 0x33531F93 EQ PUSH2 0xA6 JUMPI DUP1 PUSH4 0x38EC16DA EQ PUSH2 0xC4 JUMPI DUP1 PUSH4 0x49C149C2 EQ PUSH2 0xE2 JUMPI JUMPDEST PUSH0 DUP1 REVERT JUMPDEST PUSH2 0xA4 PUSH1 0x4 DUP1 CALLDATASIZE SUB DUP2 ADD SWAP1 PUSH2 0x9F SWAP2 SWAP1 PUSH2 0xC2D JUMP JUMPDEST PUSH2 0x1C7 JUMP JUMPDEST STOP JUMPDEST PUSH2 0xAE PUSH2 0x3DD JUMP JUMPDEST PUSH1 0x40 MLOAD PUSH2 0xBB SWAP2 SWAP1 PUSH2 0xDD0 JUMP JUMPDEST PUSH1 0x40 MLOAD DUP1 SWAP2 SUB SWAP1 RETURN JUMPDEST PUSH2 0xCC PUSH2 0x4B1 JUMP JUMPDEST PUSH1 0x40 MLOAD PUSH2 0xD9 SWAP2 SWAP1 PUSH2 0xDFF JUMP JUMPDEST PUSH1 0x40 MLOAD DUP1 SWAP2 SUB SWAP1 RETURN JUMPDEST PUSH2 0xFC PUSH1 0x4 DUP1 CALLDATASIZE SUB DUP2 ADD SWAP1 PUSH2 0xF7 SWAP2 SWAP1 PUSH2 0xE18 JUMP JUMPDEST PUSH2 0x4BD JUMP JUMPDEST PUSH1 0x40 MLOAD PUSH2 0x10D SWAP6 SWAP5 SWAP4 SWAP3 SWAP2 SWAP1 PUSH2 0xEBF JUMP JUMPDEST PUSH1 0x40 MLOAD DUP1 SWAP2 SUB SWAP1 RETURN JUMPDEST PUSH2 0x130 PUSH1 0x4 DUP1 CALLDATASIZE SUB DUP2 ADD SWAP1 PUSH2 0x12B SWAP2 SWAP1 PUSH2 0xE18 JUMP JUMPDEST PUSH2 0x612 JUMP JUMPDEST PUSH1 0x40 MLOAD PUSH2 0x140 SWAP5 SWAP4 SWAP3 SWAP2 SWAP1 PUSH2 0xF1E JUMP JUMPDEST PUSH1 0x40 MLOAD DUP1 SWAP2 SUB SWAP1 RETURN JUMPDEST PUSH2 0x163 PUSH1 0x4 DUP1 CALLDATASIZE SUB DUP2 ADD SWAP1 PUSH2 0x15E SWAP2 SWAP1 PUSH2 0xF68 JUMP JUMPDEST PUSH2 0x7E9 JUMP JUMPDEST PUSH1 0x40 MLOAD PUSH2 0x170 SWAP2 SWAP1 PUSH2 0xF93 JUMP JUMPDEST PUSH1 0x40 MLOAD DUP1 SWAP2 SUB SWAP1 RETURN JUMPDEST PUSH2 0x181 PUSH2 0x88F JUMP JUMPDEST PUSH1 0x40 MLOAD PUSH2 0x18E SWAP2 SWAP1 PUSH2 0xFF2 JUMP JUMPDEST PUSH1 0x40 MLOAD DUP1 SWAP2 SUB SWAP1 RETURN JUMPDEST PUSH2 0x1B1 PUSH1 0x4 DUP1 CALLDATASIZE SUB DUP2 ADD SWAP1 PUSH2 0x1AC SWAP2 SWAP1 PUSH2 0xE18 JUMP JUMPDEST PUSH2 0x8B4 JUMP JUMPDEST PUSH1 0x40 MLOAD PUSH2 0x1BE SWAP2 SWAP1 PUSH2 0x100B JUMP JUMPDEST PUSH1 0x40 MLOAD DUP1 SWAP2 SUB SWAP1 RETURN JUMPDEST PUSH0 DUP1 DUP5 PUSH1 0x40 MLOAD PUSH2 0x1D7 SWAP2 SWAP1 PUSH2 0x105E JUMP JUMPDEST SWAP1 DUP2 MSTORE PUSH1 0x20 ADD PUSH1 0x40 MLOAD DUP1 SWAP2 SUB SWAP1 KECCAK256 PUSH0 ADD DUP1 SLOAD PUSH2 0x1F2 SWAP1 PUSH2 0x10A1 JUMP JUMPDEST SWAP1 POP EQ PUSH2 0x234 JUMPI PUSH1 0x40 MLOAD PUSH32 0x8C379A000000000000000000000000000000000000000000000000000000000 DUP2 MSTORE PUSH1 0x4 ADD PUSH2 0x22B SWAP1 PUSH2 0x111B JUMP JUMPDEST PUSH1 0x40 MLOAD DUP1 SWAP2 SUB SWAP1 REVERT JUMPDEST PUSH0 PUSH1 0x3 PUSH0 SWAP1 SLOAD SWAP1 PUSH2 0x100 EXP SWAP1 DIV PUSH20 0xFFFFFFFFFFFFFFFFFFFFFFFFFFFFFFFFFFFFFFFF AND PUSH20 0xFFFFFFFFFFFFFFFFFFFFFFFFFFFFFFFFFFFFFFFF AND PUSH4 0x53ADAB30 DUP6 PUSH1 0x40 MLOAD DUP3 PUSH4 0xFFFFFFFF AND PUSH1 0xE0 SHL DUP2 MSTORE PUSH1 0x4 ADD PUSH2 0x28F SWAP2 SWAP1 PUSH2 0xF93 JUMP JUMPDEST PUSH1 0x20 PUSH1 0x40 MLOAD DUP1 DUP4 SUB DUP2 DUP7 GAS STATICCALL ISZERO DUP1 ISZERO PUSH2 0x2AA JUMPI RETURNDATASIZE PUSH0 DUP1 RETURNDATACOPY RETURNDATASIZE PUSH0 REVERT JUMPDEST POP POP POP POP PUSH1 0x40 MLOAD RETURNDATASIZE PUSH1 0x1F NOT PUSH1 0x1F DUP3 ADD AND DUP3 ADD DUP1 PUSH1 0x40 MSTORE POP DUP2 ADD SWAP1 PUSH2 0x2CE SWAP2 SWAP1 PUSH2 0x1163 JUMP JUMPDEST SWAP1 POP PUSH1 0x40 MLOAD DUP1 PUSH1 0xA0 ADD PUSH1 0x40 MSTORE DUP1 DUP6 DUP2 MSTORE PUSH1 0x20 ADD DUP5 DUP2 MSTORE PUSH1 0x20 ADD DUP4 DUP2 MSTORE PUSH1 0x20 ADD TIMESTAMP DUP2 MSTORE PUSH1 0x20 ADD DUP3 DUP2 MSTORE POP PUSH0 DUP6 PUSH1 0x40 MLOAD PUSH2 0x306 SWAP2 SWAP1 PUSH2 0x105E JUMP JUMPDEST SWAP1 DUP2 MSTORE PUSH1 0x20 ADD PUSH1 0x40 MLOAD DUP1 SWAP2 SUB SWAP1 KECCAK256 PUSH0 DUP3 ADD MLOAD DUP2 PUSH0 ADD SWAP1 DUP2 PUSH2 0x327 SWAP2 SWAP1 PUSH2 0x132B JUMP JUMPDEST POP PUSH1 0x20 DUP3 ADD MLOAD DUP2 PUSH1 0x1 ADD SSTORE PUSH1 0x40 DUP3 ADD MLOAD DUP2 PUSH1 0x2 ADD SWAP1 DUP2 PUSH2 0x347 SWAP2 SWAP1 PUSH2 0x132B JUMP JUMPDEST POP PUSH1 0x60 DUP3 ADD MLOAD DUP2 PUSH1 0x3 ADD SSTORE PUSH1 0x80 DUP3 ADD MLOAD DUP2 PUSH1 0x4 ADD SSTORE SWAP1 POP POP PUSH1 0x1 DUP5 SWAP1 DUP1 PUSH1 0x1 DUP2 SLOAD ADD DUP1 DUP3 SSTORE DUP1 SWAP2 POP POP PUSH1 0x1 SWAP1 SUB SWAP1 PUSH0 MSTORE PUSH1 0x20 PUSH0 KECCAK256 ADD PUSH0 SWAP1 SWAP2 SWAP1 SWAP2 SWAP1 SWAP2 POP SWAP1 DUP2 PUSH2 0x390 SWAP2 SWAP1 PUSH2 0x132B JUMP JUMPDEST POP PUSH0 PUSH2 0x39B DUP6 PUSH2 0x8B4 JUMP JUMPDEST SWAP1 POP PUSH32 0x5254E0CCCB9EC15554EDAD910E10E1EEBFF3B8CEE60F09F9344038F27DA04883 DUP6 DUP3 PUSH1 0x40 MLOAD PUSH2 0x3CE SWAP3 SWAP2 SWAP1 PUSH2 0x13FA JUMP JUMPDEST PUSH1 0x40 MLOAD DUP1 SWAP2 SUB SWAP1 LOG1 POP POP POP POP POP JUMP JUMPDEST PUSH1 0x60 PUSH1 0x1 DUP1 SLOAD DUP1 PUSH1 0x20 MUL PUSH1 0x20 ADD PUSH1 0x40 MLOAD SWAP1 DUP2 ADD PUSH1 0x40 MSTORE DUP1 SWAP3 SWAP2 SWAP1 DUP2 DUP2 MSTORE PUSH1 0x20 ADD PUSH0 SWAP1 JUMPDEST DUP3 DUP3 LT ISZERO PUSH2 0x4A8 JUMPI DUP4 DUP3 SWAP1 PUSH0 MSTORE PUSH1 0x20 PUSH0 KECCAK256 ADD DUP1 SLOAD PUSH2 0x41D SWAP1 PUSH2 0x10A1 JUMP JUMPDEST DUP1 PUSH1 0x1F ADD PUSH1 0x20 DUP1 SWAP2 DIV MUL PUSH1 0x20 ADD PUSH1 0x40 MLOAD SWAP1 DUP2 ADD PUSH1 0x40 MSTORE DUP1 SWAP3 SWAP2 SWAP1 DUP2 DUP2 MSTORE PUSH1 0x20 ADD DUP3 DUP1 SLOAD PUSH2 0x449 SWAP1 PUSH2 0x10A1 JUMP JUMPDEST DUP1 ISZERO PUSH2 0x494 JUMPI DUP1 PUSH1 0x1F LT PUSH2 0x46B JUMPI PUSH2 0x100 DUP1 DUP4 SLOAD DIV MUL DUP4 MSTORE SWAP2 PUSH1 0x20 ADD SWAP2 PUSH2 0x494 JUMP JUMPDEST DUP3 ADD SWAP2 SWAP1 PUSH0 MSTORE PUSH1 0x20 PUSH0 KECCAK256 SWAP1 JUMPDEST DUP2 SLOAD DUP2 MSTORE SWAP1 PUSH1 0x1 ADD SWAP1 PUSH1 0x20 ADD DUP1 DUP4 GT PUSH2 0x477 JUMPI DUP3 SWAP1 SUB PUSH1 0x1F AND DUP3 ADD SWAP2 JUMPDEST POP POP POP POP POP DUP2 MSTORE PUSH1 0x20 ADD SWAP1 PUSH1 0x1 ADD SWAP1 PUSH2 0x400 JUMP JUMPDEST POP POP POP POP SWAP1 POP SWAP1 JUMP JUMPDEST PUSH0 PUSH1 0x1 DUP1 SLOAD SWAP1 POP SWAP1 POP SWAP1 JUMP JUMPDEST PUSH0 DUP2 DUP1 MLOAD PUSH1 0x20 DUP2 ADD DUP3 ADD DUP1 MLOAD DUP5 DUP3 MSTORE PUSH1 0x20 DUP4 ADD PUSH1 0x20 DUP6 ADD KECCAK256 DUP2 DUP4 MSTORE DUP1 SWAP6 POP POP POP POP POP POP PUSH0 SWAP2 POP SWAP1 POP DUP1 PUSH0 ADD DUP1 SLOAD PUSH2 0x4F3 SWAP1 PUSH2 0x10A1 JUMP JUMPDEST DUP1 PUSH1 0x1F ADD PUSH1 0x20 DUP1 SWAP2 DIV MUL PUSH1 0x20 ADD PUSH1 0x40 MLOAD SWAP1 DUP2 ADD PUSH1 0x40 MSTORE DUP1 SWAP3 SWAP2 SWAP1 DUP2 DUP2 MSTORE PUSH1 0x20 ADD DUP3 DUP1 SLOAD PUSH2 0x51F SWAP1 PUSH2 0x10A1 JUMP JUMPDEST DUP1 ISZERO PUSH2 0x56A JUMPI DUP1 PUSH1 0x1F LT PUSH2 0x541 JUMPI PUSH2 0x100 DUP1 DUP4 SLOAD DIV MUL DUP4 MSTORE SWAP2 PUSH1 0x20 ADD SWAP2 PUSH2 0x56A JUMP JUMPDEST DUP3 ADD SWAP2 SWAP1 PUSH0 MSTORE PUSH1 0x20 PUSH0 KECCAK256 SWAP1 JUMPDEST DUP2 SLOAD DUP2 MSTORE SWAP1 PUSH1 0x1 ADD SWAP1 PUSH1 0x20 ADD DUP1 DUP4 GT PUSH2 0x54D JUMPI DUP3 SWAP1 SUB PUSH1 0x1F AND DUP3 ADD SWAP2 JUMPDEST POP POP POP POP POP SWAP1 DUP1 PUSH1 0x1 ADD SLOAD SWAP1 DUP1 PUSH1 0x2 ADD DUP1 SLOAD PUSH2 0x585 SWAP1 PUSH2 0x10A1 JUMP JUMPDEST DUP1 PUSH1 0x1F ADD PUSH1 0x20 DUP1 SWAP2 DIV MUL PUSH1 0x20 ADD PUSH1 0x40 MLOAD SWAP1 DUP2 ADD PUSH1 0x40 MSTORE DUP1 SWAP3 SWAP2 SWAP1 DUP2 DUP2 MSTORE PUSH1 0x20 ADD DUP3 DUP1 SLOAD PUSH2 0x5B1 SWAP1 PUSH2 0x10A1 JUMP JUMPDEST DUP1 ISZERO PUSH2 0x5FC JUMPI DUP1 PUSH1 0x1F LT PUSH2 0x5D3 JUMPI PUSH2 0x100 DUP1 DUP4 SLOAD DIV MUL DUP4 MSTORE SWAP2 PUSH1 0x20 ADD SWAP2 PUSH2 0x5FC JUMP JUMPDEST DUP3 ADD SWAP2 SWAP1 PUSH0 MSTORE PUSH1 0x20 PUSH0 KECCAK256 SWAP1 JUMPDEST DUP2 SLOAD DUP2 MSTORE SWAP1 PUSH1 0x1 ADD SWAP1 PUSH1 0x20 ADD DUP1 DUP4 GT PUSH2 0x5DF JUMPI DUP3 SWAP1 SUB PUSH1 0x1F AND DUP3 ADD SWAP2 JUMPDEST POP POP POP POP POP SWAP1 DUP1 PUSH1 0x3 ADD SLOAD SWAP1 DUP1 PUSH1 0x4 ADD SLOAD SWAP1 POP DUP6 JUMP JUMPDEST PUSH0 PUSH1 0x60 PUSH0 DUP1 PUSH0 DUP1 DUP7 PUSH1 0x40 MLOAD PUSH2 0x627 SWAP2 SWAP1 PUSH2 0x105E JUMP JUMPDEST SWAP1 DUP2 MSTORE PUSH1 0x20 ADD PUSH1 0x40 MLOAD DUP1 SWAP2 SUB SWAP1 KECCAK256 PUSH1 0x40 MLOAD DUP1 PUSH1 0xA0 ADD PUSH1 0x40 MSTORE SWAP1 DUP2 PUSH0 DUP3 ADD DUP1 SLOAD PUSH2 0x64F SWAP1 PUSH2 0x10A1 JUMP JUMPDEST DUP1 PUSH1 0x1F ADD PUSH1 0x20 DUP1 SWAP2 DIV MUL PUSH1 0x20 ADD PUSH1 0x40 MLOAD SWAP1 DUP2 ADD PUSH1 0x40 MSTORE DUP1 SWAP3 SWAP2 SWAP1 DUP2 DUP2 MSTORE PUSH1 0x20 ADD DUP3 DUP1 SLOAD PUSH2 0x67B SWAP1 PUSH2 0x10A1 JUMP JUMPDEST DUP1 ISZERO PUSH2 0x6C6 JUMPI DUP1 PUSH1 0x1F LT PUSH2 0x69D JUMPI PUSH2 0x100 DUP1 DUP4 SLOAD DIV MUL DUP4 MSTORE SWAP2 PUSH1 0x20 ADD SWAP2 PUSH2 0x6C6 JUMP JUMPDEST DUP3 ADD SWAP2 SWAP1 PUSH0 MSTORE PUSH1 0x20 PUSH0 KECCAK256 SWAP1 JUMPDEST DUP2 SLOAD DUP2 MSTORE SWAP1 PUSH1 0x1 ADD SWAP1 PUSH1 0x20 ADD DUP1 DUP4 GT PUSH2 0x6A9 JUMPI DUP3 SWAP1 SUB PUSH1 0x1F AND DUP3 ADD SWAP2 JUMPDEST POP POP POP POP POP DUP2 MSTORE PUSH1 0x20 ADD PUSH1 0x1 DUP3 ADD SLOAD DUP2 MSTORE PUSH1 0x20 ADD PUSH1 0x2 DUP3 ADD DUP1 SLOAD PUSH2 0x6E9 SWAP1 PUSH2 0x10A1 JUMP JUMPDEST DUP1 PUSH1 0x1F ADD PUSH1 0x20 DUP1 SWAP2 DIV MUL PUSH1 0x20 ADD PUSH1 0x40 MLOAD SWAP1 DUP2 ADD PUSH1 0x40 MSTORE DUP1 SWAP3 SWAP2 SWAP1 DUP2 DUP2 MSTORE PUSH1 0x20 ADD DUP3 DUP1 SLOAD PUSH2 0x715 SWAP1 PUSH2 0x10A1 JUMP JUMPDEST DUP1 ISZERO PUSH2 0x760 JUMPI DUP1 PUSH1 0x1F LT PUSH2 0x737 JUMPI PUSH2 0x100 DUP1 DUP4 SLOAD DIV MUL DUP4 MSTORE SWAP2 PUSH1 0x20 ADD SWAP2 PUSH2 0x760 JUMP JUMPDEST DUP3 ADD SWAP2 SWAP1 PUSH0 MSTORE PUSH1 0x20 PUSH0 KECCAK256 SWAP1 JUMPDEST DUP2 SLOAD DUP2 MSTORE SWAP1 PUSH1 0x1 ADD SWAP1 PUSH1 0x20 ADD DUP1 DUP4 GT PUSH2 0x743 JUMPI DUP3 SWAP1 SUB PUSH1 0x1F AND DUP3 ADD SWAP2 JUMPDEST POP POP POP POP POP DUP2 MSTORE PUSH1 0x20 ADD PUSH1 0x3 DUP3 ADD SLOAD DUP2 MSTORE PUSH1 0x20 ADD PUSH1 0x4 DUP3 ADD SLOAD DUP2 MSTORE POP POP SWAP1 POP PUSH0 DUP2 PUSH0 ADD MLOAD MLOAD GT PUSH2 0x7C5 JUMPI PUSH1 0x40 MLOAD PUSH32 0x8C379A000000000000000000000000000000000000000000000000000000000 DUP2 MSTORE PUSH1 0x4 ADD PUSH2 0x7BC SWAP1 PUSH2 0x1498 JUMP JUMPDEST PUSH1 0x40 MLOAD DUP1 SWAP2 SUB SWAP1 REVERT JUMPDEST DUP1 PUSH1 0x20 ADD MLOAD DUP2 PUSH1 0x40 ADD MLOAD DUP3 PUSH1 0x60 ADD MLOAD DUP4 PUSH1 0x80 ADD MLOAD SWAP5 POP SWAP5 POP SWAP5 POP SWAP5 POP POP SWAP2 SWAP4 POP SWAP2 SWAP4 JUMP JUMPDEST PUSH1 0x1 DUP2 DUP2 SLOAD DUP2 LT PUSH2 0x7F8 JUMPI PUSH0 DUP1 REVERT JUMPDEST SWAP1 PUSH0 MSTORE PUSH1 0x20 PUSH0 KECCAK256 ADD PUSH0 SWAP2 POP SWAP1 POP DUP1 SLOAD PUSH2 0x810 SWAP1 PUSH2 0x10A1 JUMP JUMPDEST DUP1 PUSH1 0x1F ADD PUSH1 0x20 DUP1 SWAP2 DIV MUL PUSH1 0x20 ADD PUSH1 0x40 MLOAD SWAP1 DUP2 ADD PUSH1 0x40 MSTORE DUP1 SWAP3 SWAP2 SWAP1 DUP2 DUP2 MSTORE PUSH1 0x20 ADD DUP3 DUP1 SLOAD PUSH2 0x83C SWAP1 PUSH2 0x10A1 JUMP JUMPDEST DUP1 ISZERO PUSH2 0x887 JUMPI DUP1 PUSH1 0x1F LT PUSH2 0x85E JUMPI PUSH2 0x100 DUP1 DUP4 SLOAD DIV MUL DUP4 MSTORE SWAP2 PUSH1 0x20 ADD SWAP2 PUSH2 0x887 JUMP JUMPDEST DUP3 ADD SWAP2 SWAP1 PUSH0 MSTORE PUSH1 0x20 PUSH0 KECCAK256 SWAP1 JUMPDEST DUP2 SLOAD DUP2 MSTORE SWAP1 PUSH1 0x1 ADD SWAP1 PUSH1 0x20 ADD DUP1 DUP4 GT PUSH2 0x86A JUMPI DUP3 SWAP1 SUB PUSH1 0x1F AND DUP3 ADD SWAP2 JUMPDEST POP POP POP POP POP DUP2 JUMP JUMPDEST PUSH1 0x2 PUSH0 SWAP1 SLOAD SWAP1 PUSH2 0x100 EXP SWAP1 DIV PUSH20 0xFFFFFFFFFFFFFFFFFFFFFFFFFFFFFFFFFFFFFFFF AND DUP2 JUMP JUMPDEST PUSH0 DUP1 PUSH0 DUP4 PUSH1 0x40 MLOAD PUSH2 0x8C5 SWAP2 SWAP1 PUSH2 0x105E JUMP JUMPDEST SWAP1 DUP2 MSTORE PUSH1 0x20 ADD PUSH1 0x40 MLOAD DUP1 SWAP2 SUB SWAP1 KECCAK256 PUSH1 0x40 MLOAD DUP1 PUSH1 0xA0 ADD PUSH1 0x40 MSTORE SWAP1 DUP2 PUSH0 DUP3 ADD DUP1 SLOAD PUSH2 0x8ED SWAP1 PUSH2 0x10A1 JUMP JUMPDEST DUP1 PUSH1 0x1F ADD PUSH1 0x20 DUP1 SWAP2 DIV MUL PUSH1 0x20 ADD PUSH1 0x40 MLOAD SWAP1 DUP2 ADD PUSH1 0x40 MSTORE DUP1 SWAP3 SWAP2 SWAP1 DUP2 DUP2 MSTORE PUSH1 0x20 ADD DUP3 DUP1 SLOAD PUSH2 0x919 SWAP1 PUSH2 0x10A1 JUMP JUMPDEST DUP1 ISZERO PUSH2 0x964 JUMPI DUP1 PUSH1 0x1F LT PUSH2 0x93B JUMPI PUSH2 0x100 DUP1 DUP4 SLOAD DIV MUL DUP4 MSTORE SWAP2 PUSH1 0x20 ADD SWAP2 PUSH2 0x964 JUMP JUMPDEST DUP3 ADD SWAP2 SWAP1 PUSH0 MSTORE PUSH1 0x20 PUSH0 KECCAK256 SWAP1 JUMPDEST DUP2 SLOAD DUP2 MSTORE SWAP1 PUSH1 0x1 ADD SWAP1 PUSH1 0x20 ADD DUP1 DUP4 GT PUSH2 0x947 JUMPI DUP3 SWAP1 SUB PUSH1 0x1F AND DUP3 ADD SWAP2 JUMPDEST POP POP POP POP POP DUP2 MSTORE PUSH1 0x20 ADD PUSH1 0x1 DUP3 ADD SLOAD DUP2 MSTORE PUSH1 0x20 ADD PUSH1 0x2 DUP3 ADD DUP1 SLOAD PUSH2 0x987 SWAP1 PUSH2 0x10A1 JUMP JUMPDEST DUP1 PUSH1 0x1F ADD PUSH1 0x20 DUP1 SWAP2 DIV MUL PUSH1 0x20 ADD PUSH1 0x40 MLOAD SWAP1 DUP2 ADD PUSH1 0x40 MSTORE DUP1 SWAP3 SWAP2 SWAP1 DUP2 DUP2 MSTORE PUSH1 0x20 ADD DUP3 DUP1 SLOAD PUSH2 0x9B3 SWAP1 PUSH2 0x10A1 JUMP JUMPDEST DUP1 ISZERO PUSH2 0x9FE JUMPI DUP1 PUSH1 0x1F LT PUSH2 0x9D5 JUMPI PUSH2 0x100 DUP1 DUP4 SLOAD DIV MUL DUP4 MSTORE SWAP2 PUSH1 0x20 ADD SWAP2 PUSH2 0x9FE JUMP JUMPDEST DUP3 ADD SWAP2 SWAP1 PUSH0 MSTORE PUSH1 0x20 PUSH0 KECCAK256 SWAP1 JUMPDEST DUP2 SLOAD DUP2 MSTORE SWAP1 PUSH1 0x1 ADD SWAP1 PUSH1 0x20 ADD DUP1 DUP4 GT PUSH2 0x9E1 JUMPI DUP3 SWAP1 SUB PUSH1 0x1F AND DUP3 ADD SWAP2 JUMPDEST POP POP POP POP POP DUP2 MSTORE PUSH1 0x20 ADD PUSH1 0x3 DUP3 ADD SLOAD DUP2 MSTORE PUSH1 0x20 ADD PUSH1 0x4 DUP3 ADD SLOAD DUP2 MSTORE POP POP SWAP1 POP PUSH0 DUP2 PUSH0 ADD MLOAD MLOAD GT PUSH2 0xA63 JUMPI PUSH1 0x40 MLOAD PUSH32 0x8C379A000000000000000000000000000000000000000000000000000000000 DUP2 MSTORE PUSH1 0x4 ADD PUSH2 0xA5A SWAP1 PUSH2 0x1498 JUMP JUMPDEST PUSH1 0x40 MLOAD DUP1 SWAP2 SUB SWAP1 REVERT JUMPDEST DUP1 PUSH0 ADD MLOAD DUP2 PUSH1 0x20 ADD MLOAD DUP3 PUSH1 0x40 ADD MLOAD DUP4 PUSH1 0x60 ADD MLOAD DUP5 PUSH1 0x80 ADD MLOAD PUSH1 0x40 MLOAD PUSH1 0x20 ADD PUSH2 0xA8F SWAP6 SWAP5 SWAP4 SWAP3 SWAP2 SWAP1 PUSH2 0x14F6 JUMP JUMPDEST PUSH1 0x40 MLOAD PUSH1 0x20 DUP2 DUP4 SUB SUB DUP2 MSTORE SWAP1 PUSH1 0x40 MSTORE DUP1 MLOAD SWAP1 PUSH1 0x20 ADD KECCAK256 SWAP2 POP POP SWAP2 SWAP1 POP JUMP JUMPDEST PUSH0 PUSH1 0x40 MLOAD SWAP1 POP SWAP1 JUMP JUMPDEST PUSH0 DUP1 REVERT JUMPDEST PUSH0 DUP1 REVERT JUMPDEST PUSH0 DUP1 REVERT JUMPDEST PUSH0 DUP1 REVERT JUMPDEST PUSH0 PUSH1 0x1F NOT PUSH1 0x1F DUP4 ADD AND SWAP1 POP SWAP2 SWAP1 POP JUMP JUMPDEST PUSH32 0x4E487B7100000000000000000000000000000000000000000000000000000000 PUSH0 MSTORE PUSH1 0x41 PUSH1 0x4 MSTORE PUSH1 0x24 PUSH0 REVERT JUMPDEST PUSH2 0xB0C DUP3 PUSH2 0xAC6 JUMP JUMPDEST DUP2 ADD DUP2 DUP2 LT PUSH8 0xFFFFFFFFFFFFFFFF DUP3 GT OR ISZERO PUSH2 0xB2B JUMPI PUSH2 0xB2A PUSH2 0xAD6 JUMP JUMPDEST JUMPDEST DUP1 PUSH1 0x40 MSTORE POP POP POP JUMP JUMPDEST PUSH0 PUSH2 0xB3D PUSH2 0xAAD JUMP JUMPDEST SWAP1 POP PUSH2 0xB49 DUP3 DUP3 PUSH2 0xB03 JUMP JUMPDEST SWAP2 SWAP1 POP JUMP JUMPDEST PUSH0 PUSH8 0xFFFFFFFFFFFFFFFF DUP3 GT ISZERO PUSH2 0xB68 JUMPI PUSH2 0xB67 PUSH2 0xAD6 JUMP JUMPDEST JUMPDEST PUSH2 0xB71 DUP3 PUSH2 0xAC6 JUMP JUMPDEST SWAP1 POP PUSH1 0x20 DUP2 ADD SWAP1 POP SWAP2 SWAP1 POP JUMP JUMPDEST DUP3 DUP2 DUP4 CALLDATACOPY PUSH0 DUP4 DUP4 ADD MSTORE POP POP POP JUMP JUMPDEST PUSH0 PUSH2 0xB9E PUSH2 0xB99 DUP5 PUSH2 0xB4E JUMP JUMPDEST PUSH2 0xB34 JUMP JUMPDEST SWAP1 POP DUP3 DUP2 MSTORE PUSH1 0x20 DUP2 ADD DUP5 DUP5 DUP5 ADD GT ISZERO PUSH2 0xBBA JUMPI PUSH2 0xBB9 PUSH2 0xAC2 JUMP JUMPDEST JUMPDEST PUSH2 0xBC5 DUP5 DUP3 DUP6 PUSH2 0xB7E JUMP JUMPDEST POP SWAP4 SWAP3 POP POP POP JUMP JUMPDEST PUSH0 DUP3 PUSH1 0x1F DUP4 ADD SLT PUSH2 0xBE1 JUMPI PUSH2 0xBE0 PUSH2 0xABE JUMP JUMPDEST JUMPDEST DUP2 CALLDATALOAD PUSH2 0xBF1 DUP5 DUP3 PUSH1 0x20 DUP7 ADD PUSH2 0xB8C JUMP JUMPDEST SWAP2 POP POP SWAP3 SWAP2 POP POP JUMP JUMPDEST PUSH0 DUP2 SWAP1 POP SWAP2 SWAP1 POP JUMP JUMPDEST PUSH2 0xC0C DUP2 PUSH2 0xBFA JUMP JUMPDEST DUP2 EQ PUSH2 0xC16 JUMPI PUSH0 DUP1 REVERT JUMPDEST POP JUMP JUMPDEST PUSH0 DUP2 CALLDATALOAD SWAP1 POP PUSH2 0xC27 DUP2 PUSH2 0xC03 JUMP JUMPDEST SWAP3 SWAP2 POP POP JUMP JUMPDEST PUSH0 DUP1 PUSH0 PUSH1 0x60 DUP5 DUP7 SUB SLT ISZERO PUSH2 0xC44 JUMPI PUSH2 0xC43 PUSH2 0xAB6 JUMP JUMPDEST JUMPDEST PUSH0 DUP5 ADD CALLDATALOAD PUSH8 0xFFFFFFFFFFFFFFFF DUP2 GT ISZERO PUSH2 0xC61 JUMPI PUSH2 0xC60 PUSH2 0xABA JUMP JUMPDEST JUMPDEST PUSH2 0xC6D DUP7 DUP3 DUP8 ADD PUSH2 0xBCD JUMP JUMPDEST SWAP4 POP POP PUSH1 0x20 PUSH2 0xC7E DUP7 DUP3 DUP8 ADD PUSH2 0xC19 JUMP JUMPDEST SWAP3 POP POP PUSH1 0x40 DUP5 ADD CALLDATALOAD PUSH8 0xFFFFFFFFFFFFFFFF DUP2 GT ISZERO PUSH2 0xC9F JUMPI PUSH2 0xC9E PUSH2 0xABA JUMP JUMPDEST JUMPDEST PUSH2 0xCAB DUP7 DUP3 DUP8 ADD PUSH2 0xBCD JUMP JUMPDEST SWAP2 POP POP SWAP3 POP SWAP3 POP SWAP3 JUMP JUMPDEST PUSH0 DUP2 MLOAD SWAP1 POP SWAP2 SWAP1 POP JUMP JUMPDEST PUSH0 DUP3 DUP3 MSTORE PUSH1 0x20 DUP3 ADD SWAP1 POP SWAP3 SWAP2 POP POP JUMP JUMPDEST PUSH0 DUP2 SWAP1 POP PUSH1 0x20 DUP3 ADD SWAP1 POP SWAP2 SWAP1 POP JUMP JUMPDEST PUSH0 DUP2 MLOAD SWAP1 POP SWAP2 SWAP1 POP JUMP JUMPDEST PUSH0 DUP3 DUP3 MSTORE PUSH1 0x20 DUP3 ADD SWAP1 POP SWAP3 SWAP2 POP POP JUMP JUMPDEST DUP3 DUP2 DUP4 MCOPY PUSH0 DUP4 DUP4 ADD MSTORE POP POP POP JUMP JUMPDEST PUSH0 PUSH2 0xD10 DUP3 PUSH2 0xCDE JUMP JUMPDEST PUSH2 0xD1A DUP2 DUP6 PUSH2 0xCE8 JUMP JUMPDEST SWAP4 POP PUSH2 0xD2A DUP2 DUP6 PUSH1 0x20 DUP7 ADD PUSH2 0xCF8 JUMP JUMPDEST PUSH2 0xD33 DUP2 PUSH2 0xAC6 JUMP JUMPDEST DUP5 ADD SWAP2 POP POP SWAP3 SWAP2 POP POP JUMP JUMPDEST PUSH0 PUSH2 0xD49 DUP4 DUP4 PUSH2 0xD06 JUMP JUMPDEST SWAP1 POP SWAP3 SWAP2 POP POP JUMP JUMPDEST PUSH0 PUSH1 0x20 DUP3 ADD SWAP1 POP SWAP2 SWAP1 POP JUMP JUMPDEST PUSH0 PUSH2 0xD67 DUP3 PUSH2 0xCB5 JUMP JUMPDEST PUSH2 0xD71 DUP2 DUP6 PUSH2 0xCBF JUMP JUMPDEST SWAP4 POP DUP4 PUSH1 0x20 DUP3 MUL DUP6 ADD PUSH2 0xD83 DUP6 PUSH2 0xCCF JUMP JUMPDEST DUP1 PUSH0 JUMPDEST DUP6 DUP2 LT ISZERO PUSH2 0xDBE JUMPI DUP5 DUP5 SUB DUP10 MSTORE DUP2 MLOAD PUSH2 0xD9F DUP6 DUP3 PUSH2 0xD3E JUMP JUMPDEST SWAP5 POP PUSH2 0xDAA DUP4 PUSH2 0xD51 JUMP JUMPDEST SWAP3 POP PUSH1 0x20 DUP11 ADD SWAP10 POP POP PUSH1 0x1 DUP2 ADD SWAP1 POP PUSH2 0xD86 JUMP JUMPDEST POP DUP3 SWAP8 POP DUP8 SWAP6 POP POP POP POP POP POP SWAP3 SWAP2 POP POP JUMP JUMPDEST PUSH0 PUSH1 0x20 DUP3 ADD SWAP1 POP DUP2 DUP2 SUB PUSH0 DUP4 ADD MSTORE PUSH2 0xDE8 DUP2 DUP5 PUSH2 0xD5D JUMP JUMPDEST SWAP1 POP SWAP3 SWAP2 POP POP JUMP JUMPDEST PUSH2 0xDF9 DUP2 PUSH2 0xBFA JUMP JUMPDEST DUP3 MSTORE POP POP JUMP JUMPDEST PUSH0 PUSH1 0x20 DUP3 ADD SWAP1 POP PUSH2 0xE12 PUSH0 DUP4 ADD DUP5 PUSH2 0xDF0 JUMP JUMPDEST SWAP3 SWAP2 POP POP JUMP JUMPDEST PUSH0 PUSH1 0x20 DUP3 DUP5 SUB SLT ISZERO PUSH2 0xE2D JUMPI PUSH2 0xE2C PUSH2 0xAB6 JUMP JUMPDEST JUMPDEST PUSH0 DUP3 ADD CALLDATALOAD PUSH8 0xFFFFFFFFFFFFFFFF DUP2 GT ISZERO PUSH2 0xE4A JUMPI PUSH2 0xE49 PUSH2 0xABA JUMP JUMPDEST JUMPDEST PUSH2 0xE56 DUP5 DUP3 DUP6 ADD PUSH2 0xBCD JUMP JUMPDEST SWAP2 POP POP SWAP3 SWAP2 POP POP JUMP JUMPDEST PUSH0 DUP3 DUP3 MSTORE PUSH1 0x20 DUP3 ADD SWAP1 POP SWAP3 SWAP2 POP POP JUMP JUMPDEST PUSH0 PUSH2 0xE79 DUP3 PUSH2 0xCDE JUMP JUMPDEST PUSH2 0xE83 DUP2 DUP6 PUSH2 0xE5F JUMP JUMPDEST SWAP4 POP PUSH2 0xE93 DUP2 DUP6 PUSH1 0x20 DUP7 ADD PUSH2 0xCF8 JUMP JUMPDEST PUSH2 0xE9C DUP2 PUSH2 0xAC6 JUMP JUMPDEST DUP5 ADD SWAP2 POP POP SWAP3 SWAP2 POP POP JUMP JUMPDEST PUSH0 DUP2 SWAP1 POP SWAP2 SWAP1 POP JUMP JUMPDEST PUSH2 0xEB9 DUP2 PUSH2 0xEA7 JUMP JUMPDEST DUP3 MSTORE POP POP JUMP JUMPDEST PUSH0 PUSH1 0xA0 DUP3 ADD SWAP1 POP DUP2 DUP2 SUB PUSH0 DUP4 ADD MSTORE PUSH2 0xED7 DUP2 DUP9 PUSH2 0xE6F JUMP JUMPDEST SWAP1 POP PUSH2 0xEE6 PUSH1 0x20 DUP4 ADD DUP8 PUSH2 0xDF0 JUMP JUMPDEST DUP2 DUP2 SUB PUSH1 0x40 DUP4 ADD MSTORE PUSH2 0xEF8 DUP2 DUP7 PUSH2 0xE6F JUMP JUMPDEST SWAP1 POP PUSH2 0xF07 PUSH1 0x60 DUP4 ADD DUP6 PUSH2 0xDF0 JUMP JUMPDEST PUSH2 0xF14 PUSH1 0x80 DUP4 ADD DUP5 PUSH2 0xEB0 JUMP JUMPDEST SWAP7 SWAP6 POP POP POP POP POP POP JUMP JUMPDEST PUSH0 PUSH1 0x80 DUP3 ADD SWAP1 POP PUSH2 0xF31 PUSH0 DUP4 ADD DUP8 PUSH2 0xDF0 JUMP JUMPDEST DUP2 DUP2 SUB PUSH1 0x20 DUP4 ADD MSTORE PUSH2 0xF43 DUP2 DUP7 PUSH2 0xE6F JUMP JUMPDEST SWAP1 POP PUSH2 0xF52 PUSH1 0x40 DUP4 ADD DUP6 PUSH2 0xDF0 JUMP JUMPDEST PUSH2 0xF5F PUSH1 0x60 DUP4 ADD DUP5 PUSH2 0xEB0 JUMP JUMPDEST SWAP6 SWAP5 POP POP POP POP POP JUMP JUMPDEST PUSH0 PUSH1 0x20 DUP3 DUP5 SUB SLT ISZERO PUSH2 0xF7D JUMPI PUSH2 0xF7C PUSH2 0xAB6 JUMP JUMPDEST JUMPDEST PUSH0 PUSH2 0xF8A DUP5 DUP3 DUP6 ADD PUSH2 0xC19 JUMP JUMPDEST SWAP2 POP POP SWAP3 SWAP2 POP POP JUMP JUMPDEST PUSH0 PUSH1 0x20 DUP3 ADD SWAP1 POP DUP2 DUP2 SUB PUSH0 DUP4 ADD MSTORE PUSH2 0xFAB DUP2 DUP5 PUSH2 0xE6F JUMP JUMPDEST SWAP1 POP SWAP3 SWAP2 POP POP JUMP JUMPDEST PUSH0 PUSH20 0xFFFFFFFFFFFFFFFFFFFFFFFFFFFFFFFFFFFFFFFF DUP3 AND SWAP1 POP SWAP2 SWAP1 POP JUMP JUMPDEST PUSH0 PUSH2 0xFDC DUP3 PUSH2 0xFB3 JUMP JUMPDEST SWAP1 POP SWAP2 SWAP1 POP JUMP JUMPDEST PUSH2 0xFEC DUP2 PUSH2 0xFD2 JUMP JUMPDEST DUP3 MSTORE POP POP JUMP JUMPDEST PUSH0 PUSH1 0x20 DUP3 ADD SWAP1 POP PUSH2 0x1005 PUSH0 DUP4 ADD DUP5 PUSH2 0xFE3 JUMP JUMPDEST SWAP3 SWAP2 POP POP JUMP JUMPDEST PUSH0 PUSH1 0x20 DUP3 ADD SWAP1 POP PUSH2 0x101E PUSH0 DUP4 ADD DUP5 PUSH2 0xEB0 JUMP JUMPDEST SWAP3 SWAP2 POP POP JUMP JUMPDEST PUSH0 DUP2 SWAP1 POP SWAP3 SWAP2 POP POP JUMP JUMPDEST PUSH0 PUSH2 0x1038 DUP3 PUSH2 0xCDE JUMP JUMPDEST PUSH2 0x1042 DUP2 DUP6 PUSH2 0x1024 JUMP JUMPDEST SWAP4 POP PUSH2 0x1052 DUP2 DUP6 PUSH1 0x20 DUP7 ADD PUSH2 0xCF8 JUMP JUMPDEST DUP1 DUP5 ADD SWAP2 POP POP SWAP3 SWAP2 POP POP JUMP JUMPDEST PUSH0 PUSH2 0x1069 DUP3 DUP5 PUSH2 0x102E JUMP JUMPDEST SWAP2 POP DUP2 SWAP1 POP SWAP3 SWAP2 POP POP JUMP JUMPDEST PUSH32 0x4E487B7100000000000000000000000000000000000000000000000000000000 PUSH0 MSTORE PUSH1 0x22 PUSH1 0x4 MSTORE PUSH1 0x24 PUSH0 REVERT JUMPDEST PUSH0 PUSH1 0x2 DUP3 DIV SWAP1 POP PUSH1 0x1 DUP3 AND DUP1 PUSH2 0x10B8 JUMPI PUSH1 0x7F DUP3 AND SWAP2 POP JUMPDEST PUSH1 0x20 DUP3 LT DUP2 SUB PUSH2 0x10CB JUMPI PUSH2 0x10CA PUSH2 0x1074 JUMP JUMPDEST JUMPDEST POP SWAP2 SWAP1 POP JUMP JUMPDEST PUSH32 0x426174636820616C726561647920636F6E736F6C696461746564000000000000 PUSH0 DUP3 ADD MSTORE POP JUMP JUMPDEST PUSH0 PUSH2 0x1105 PUSH1 0x1A DUP4 PUSH2 0xE5F JUMP JUMPDEST SWAP2 POP PUSH2 0x1110 DUP3 PUSH2 0x10D1 JUMP JUMPDEST PUSH1 0x20 DUP3 ADD SWAP1 POP SWAP2 SWAP1 POP JUMP JUMPDEST PUSH0 PUSH1 0x20 DUP3 ADD SWAP1 POP DUP2 DUP2 SUB PUSH0 DUP4 ADD MSTORE PUSH2 0x1132 DUP2 PUSH2 0x10F9 JUMP JUMPDEST SWAP1 POP SWAP2 SWAP1 POP JUMP JUMPDEST PUSH2 0x1142 DUP2 PUSH2 0xEA7 JUMP JUMPDEST DUP2 EQ PUSH2 0x114C JUMPI PUSH0 DUP1 REVERT JUMPDEST POP JUMP JUMPDEST PUSH0 DUP2 MLOAD SWAP1 POP PUSH2 0x115D DUP2 PUSH2 0x1139 JUMP JUMPDEST SWAP3 SWAP2 POP POP JUMP JUMPDEST PUSH0 PUSH1 0x20 DUP3 DUP5 SUB SLT ISZERO PUSH2 0x1178 JUMPI PUSH2 0x1177 PUSH2 0xAB6 JUMP JUMPDEST JUMPDEST PUSH0 PUSH2 0x1185 DUP5 DUP3 DUP6 ADD PUSH2 0x114F JUMP JUMPDEST SWAP2 POP POP SWAP3 SWAP2 POP POP JUMP JUMPDEST PUSH0 DUP2 SWAP1 POP DUP2 PUSH0 MSTORE PUSH1 0x20 PUSH0 KECCAK256 SWAP1 POP SWAP2 SWAP1 POP JUMP JUMPDEST PUSH0 PUSH1 0x20 PUSH1 0x1F DUP4 ADD DIV SWAP1 POP SWAP2 SWAP1 POP JUMP JUMPDEST PUSH0 DUP3 DUP3 SHL SWAP1 POP SWAP3 SWAP2 POP POP JUMP JUMPDEST PUSH0 PUSH1 0x8 DUP4 MUL PUSH2 0x11EA PUSH32 0xFFFFFFFFFFFFFFFFFFFFFFFFFFFFFFFFFFFFFFFFFFFFFFFFFFFFFFFFFFFFFFFF DUP3 PUSH2 0x11AF JUMP JUMPDEST PUSH2 0x11F4 DUP7 DUP4 PUSH2 0x11AF JUMP JUMPDEST SWAP6 POP DUP1 NOT DUP5 AND SWAP4 POP DUP1 DUP7 AND DUP5 OR SWAP3 POP POP POP SWAP4 SWAP3 POP POP POP JUMP JUMPDEST PUSH0 DUP2 SWAP1 POP SWAP2 SWAP1 POP JUMP JUMPDEST PUSH0 PUSH2 0x122F PUSH2 0x122A PUSH2 0x1225 DUP5 PUSH2 0xBFA JUMP JUMPDEST PUSH2 0x120C JUMP JUMPDEST PUSH2 0xBFA JUMP JUMPDEST SWAP1 POP SWAP2 SWAP1 POP JUMP JUMPDEST PUSH0 DUP2 SWAP1 POP SWAP2 SWAP1 POP JUMP JUMPDEST PUSH2 0x1248 DUP4 PUSH2 0x1215 JUMP JUMPDEST PUSH2 0x125C PUSH2 0x1254 DUP3 PUSH2 0x1236 JUMP JUMPDEST DUP5 DUP5 SLOAD PUSH2 0x11BB JUMP JUMPDEST DUP3 SSTORE POP POP POP POP JUMP JUMPDEST PUSH0 SWAP1 JUMP JUMPDEST PUSH2 0x1270 PUSH2 0x1264 JUMP JUMPDEST PUSH2 0x127B DUP2 DUP5 DUP5 PUSH2 0x123F JUMP JUMPDEST POP POP POP JUMP JUMPDEST JUMPDEST DUP2 DUP2 LT ISZERO PUSH2 0x129E JUMPI PUSH2 0x1293 PUSH0 DUP3 PUSH2 0x1268 JUMP JUMPDEST PUSH1 0x1 DUP2 ADD SWAP1 POP PUSH2 0x1281 JUMP JUMPDEST POP POP JUMP JUMPDEST PUSH1 0x1F DUP3 GT ISZERO PUSH2 0x12E3 JUMPI PUSH2 0x12B4 DUP2 PUSH2 0x118E JUMP JUMPDEST PUSH2 0x12BD DUP5 PUSH2 0x11A0 JUMP JUMPDEST DUP2 ADD PUSH1 0x20 DUP6 LT ISZERO PUSH2 0x12CC JUMPI DUP2 SWAP1 POP JUMPDEST PUSH2 0x12E0 PUSH2 0x12D8 DUP6 PUSH2 0x11A0 JUMP JUMPDEST DUP4 ADD DUP3 PUSH2 0x1280 JUMP JUMPDEST POP POP JUMPDEST POP POP POP JUMP JUMPDEST PUSH0 DUP3 DUP3 SHR SWAP1 POP SWAP3 SWAP2 POP POP JUMP JUMPDEST PUSH0 PUSH2 0x1303 PUSH0 NOT DUP5 PUSH1 0x8 MUL PUSH2 0x12E8 JUMP JUMPDEST NOT DUP1 DUP4 AND SWAP2 POP POP SWAP3 SWAP2 POP POP JUMP JUMPDEST PUSH0 PUSH2 0x131B DUP4 DUP4 PUSH2 0x12F4 JUMP JUMPDEST SWAP2 POP DUP3 PUSH1 0x2 MUL DUP3 OR SWAP1 POP SWAP3 SWAP2 POP POP JUMP JUMPDEST PUSH2 0x1334 DUP3 PUSH2 0xCDE JUMP JUMPDEST PUSH8 0xFFFFFFFFFFFFFFFF DUP2 GT ISZERO PUSH2 0x134D JUMPI PUSH2 0x134C PUSH2 0xAD6 JUMP JUMPDEST JUMPDEST PUSH2 0x1357 DUP3 SLOAD PUSH2 0x10A1 JUMP JUMPDEST PUSH2 0x1362 DUP3 DUP3 DUP6 PUSH2 0x12A2 JUMP JUMPDEST PUSH0 PUSH1 0x20 SWAP1 POP PUSH1 0x1F DUP4 GT PUSH1 0x1 DUP2 EQ PUSH2 0x1393 JUMPI PUSH0 DUP5 ISZERO PUSH2 0x1381 JUMPI DUP3 DUP8 ADD MLOAD SWAP1 POP JUMPDEST PUSH2 0x138B DUP6 DUP3 PUSH2 0x1310 JUMP JUMPDEST DUP7 SSTORE POP PUSH2 0x13F2 JUMP JUMPDEST PUSH1 0x1F NOT DUP5 AND PUSH2 0x13A1 DUP7 PUSH2 0x118E JUMP JUMPDEST PUSH0 JUMPDEST DUP3 DUP2 LT ISZERO PUSH2 0x13C8 JUMPI DUP5 DUP10 ADD MLOAD DUP3 SSTORE PUSH1 0x1 DUP3 ADD SWAP2 POP PUSH1 0x20 DUP6 ADD SWAP5 POP PUSH1 0x20 DUP2 ADD SWAP1 POP PUSH2 0x13A3 JUMP JUMPDEST DUP7 DUP4 LT ISZERO PUSH2 0x13E5 JUMPI DUP5 DUP10 ADD MLOAD PUSH2 0x13E1 PUSH1 0x1F DUP10 AND DUP3 PUSH2 0x12F4 JUMP JUMPDEST DUP4 SSTORE POP JUMPDEST PUSH1 0x1 PUSH1 0x2 DUP9 MUL ADD DUP9 SSTORE POP POP POP JUMPDEST POP POP POP POP POP POP JUMP JUMPDEST PUSH0 PUSH1 0x40 DUP3 ADD SWAP1 POP DUP2 DUP2 SUB PUSH0 DUP4 ADD MSTORE PUSH2 0x1412 DUP2 DUP6 PUSH2 0xE6F JUMP JUMPDEST SWAP1 POP PUSH2 0x1421 PUSH1 0x20 DUP4 ADD DUP5 PUSH2 0xEB0 JUMP JUMPDEST SWAP4 SWAP3 POP POP POP JUMP JUMPDEST PUSH32 0x436F6E736F6C69646174696F6E206461746120646F6573206E6F742065786973 PUSH0 DUP3 ADD MSTORE PUSH32 0x7400000000000000000000000000000000000000000000000000000000000000 PUSH1 0x20 DUP3 ADD MSTORE POP JUMP JUMPDEST PUSH0 PUSH2 0x1482 PUSH1 0x21 DUP4 PUSH2 0xE5F JUMP JUMPDEST SWAP2 POP PUSH2 0x148D DUP3 PUSH2 0x1428 JUMP JUMPDEST PUSH1 0x40 DUP3 ADD SWAP1 POP SWAP2 SWAP1 POP JUMP JUMPDEST PUSH0 PUSH1 0x20 DUP3 ADD SWAP1 POP DUP2 DUP2 SUB PUSH0 DUP4 ADD MSTORE PUSH2 0x14AF DUP2 PUSH2 0x1476 JUMP JUMPDEST SWAP1 POP SWAP2 SWAP1 POP JUMP JUMPDEST PUSH0 DUP2 SWAP1 POP SWAP2 SWAP1 POP JUMP JUMPDEST PUSH2 0x14D0 PUSH2 0x14CB DUP3 PUSH2 0xBFA JUMP JUMPDEST PUSH2 0x14B6 JUMP JUMPDEST DUP3 MSTORE POP POP JUMP JUMPDEST PUSH0 DUP2 SWAP1 POP SWAP2 SWAP1 POP JUMP JUMPDEST PUSH2 0x14F0 PUSH2 0x14EB DUP3 PUSH2 0xEA7 JUMP JUMPDEST PUSH2 0x14D6 JUMP JUMPDEST DUP3 MSTORE POP POP JUMP JUMPDEST PUSH0 PUSH2 0x1501 DUP3 DUP9 PUSH2 0x102E JUMP JUMPDEST SWAP2 POP PUSH2 0x150D DUP3 DUP8 PUSH2 0x14BF JUMP JUMPDEST PUSH1 0x20 DUP3 ADD SWAP2 POP PUSH2 0x151D DUP3 DUP7 PUSH2 0x102E JUMP JUMPDEST SWAP2 POP PUSH2 0x1529 DUP3 DUP6 PUSH2 0x14BF JUMP JUMPDEST PUSH1 0x20 DUP3 ADD SWAP2 POP PUSH2 0x1539 DUP3 DUP5 PUSH2 0x14DF JUMP JUMPDEST PUSH1 0x20 DUP3 ADD SWAP2 POP DUP2 SWAP1 POP SWAP7 SWAP6 POP POP POP POP POP POP JUMP INVALID LOG2 PUSH5 0x6970667358 0x22 SLT KECCAK256 EQ DUP10 DUP10 MSTORE8 BASEFEE 0xDB CALLCODE 0xD4 BYTE DUP5 DUP4 0xC6 CALLDATACOPY CHAINID MUL XOR 0xEE NOT PC TSTORE CALLDATALOAD DIV 0xC8 0xE 0xB2 CALLDATACOPY SWAP10 GAS LOG1 0xEF TLOAD SWAP13 PUSH5 0x736F6C6343 STOP ADDMOD BYTE STOP CALLER "
				},
				"gasEstimates": {
					"creation": {
						"codeDepositCost": "1101200",
						"executionCost": "infinite",
						"totalCost": "infinite"
					},
					"external": {
						"allConsolidatedBatchIds(uint256)": "infinite",
						"consolidateBatch(string,uint256,string)": "infinite",
						"consolidationData(string)": "infinite",
						"getAllConsolidatedBatchIds()": "infinite",
						"getConsolidationHash(string)": "infinite",
						"getConsolidationInfo(string)": "infinite",
						"getTotalConsolidatedBatches()": "2485",
						"procesamientoAddress()": "2552"
					}
				},
				"methodIdentifiers": {
					"allConsolidatedBatchIds(uint256)": "70aa6204",
					"consolidateBatch(string,uint256,string)": "134ec64c",
					"consolidationData(string)": "49c149c2",
					"getAllConsolidatedBatchIds()": "33531f93",
					"getConsolidationHash(string)": "f684d8cd",
					"getConsolidationInfo(string)": "4a0757f5",
					"getTotalConsolidatedBatches()": "38ec16da",
					"procesamientoAddress()": "8f3e20d1"
				}
			},
			"storageLayout": {
				"storage": [
					{
						"astId": 60,
						"contract": "3-Consolidacion.sol:Consolidacion",
						"label": "consolidationData",
						"offset": 0,
						"slot": "0",
						"type": "t_mapping(t_string_memory_ptr,t_struct(ConsolidationData)55_storage)"
					},
					{
						"astId": 63,
						"contract": "3-Consolidacion.sol:Consolidacion",
						"label": "allConsolidatedBatchIds",
						"offset": 0,
						"slot": "1",
						"type": "t_array(t_string_storage)dyn_storage"
					},
					{
						"astId": 65,
						"contract": "3-Consolidacion.sol:Consolidacion",
						"label": "procesamientoAddress",
						"offset": 0,
						"slot": "2",
						"type": "t_address"
					},
					{
						"astId": 68,
						"contract": "3-Consolidacion.sol:Consolidacion",
						"label": "procesamiento",
						"offset": 0,
						"slot": "3",
						"type": "t_contract(IProcesamiento)17"
					}
				],
				"types": {
					"t_address": {
						"encoding": "inplace",
						"label": "address",
						"numberOfBytes": "20"
					},
					"t_array(t_string_storage)dyn_storage": {
						"base": "t_string_storage",
						"encoding": "dynamic_array",
						"label": "string[]",
						"numberOfBytes": "32"
					},
					"t_bytes32": {
						"encoding": "inplace",
						"label": "bytes32",
						"numberOfBytes": "32"
					},
					"t_contract(IProcesamiento)17": {
						"encoding": "inplace",
						"label": "contract IProcesamiento",
						"numberOfBytes": "20"
					},
					"t_mapping(t_string_memory_ptr,t_struct(ConsolidationData)55_storage)": {
						"encoding": "mapping",
						"key": "t_string_memory_ptr",
						"label": "mapping(string => struct Consolidacion.ConsolidationData)",
						"numberOfBytes": "32",
						"value": "t_struct(ConsolidationData)55_storage"
					},
					"t_string_memory_ptr": {
						"encoding": "bytes",
						"label": "string",
						"numberOfBytes": "32"
					},
					"t_string_storage": {
						"encoding": "bytes",
						"label": "string",
						"numberOfBytes": "32"
					},
					"t_struct(ConsolidationData)55_storage": {
						"encoding": "inplace",
						"label": "struct Consolidacion.ConsolidationData",
						"members": [
							{
								"astId": 46,
								"contract": "3-Consolidacion.sol:Consolidacion",
								"label": "batchId",
								"offset": 0,
								"slot": "0",
								"type": "t_string_storage"
							},
							{
								"astId": 48,
								"contract": "3-Consolidacion.sol:Consolidacion",
								"label": "totalKG",
								"offset": 0,
								"slot": "1",
								"type": "t_uint256"
							},
							{
								"astId": 50,
								"contract": "3-Consolidacion.sol:Consolidacion",
								"label": "exportDocs",
								"offset": 0,
								"slot": "2",
								"type": "t_string_storage"
							},
							{
								"astId": 52,
								"contract": "3-Consolidacion.sol:Consolidacion",
								"label": "timestamp",
								"offset": 0,
								"slot": "3",
								"type": "t_uint256"
							},
							{
								"astId": 54,
								"contract": "3-Consolidacion.sol:Consolidacion",
								"label": "previousStageHash",
								"offset": 0,
								"slot": "4",
								"type": "t_bytes32"
							}
						],
						"numberOfBytes": "160"
					},
					"t_uint256": {
						"encoding": "inplace",
						"label": "uint256",
						"numberOfBytes": "32"
					}
				}
			},
			"userdoc": {
				"kind": "user",
				"methods": {},
				"version": 1
			}
		}
	}
}